:020000040001F9
:100200000008002045030100C7030100A1110100FF
:10021000AB110100B5110100C9110100BF110100AE
:10022000000000000000000000000000712101003B
:10023000E30301000000000039210100EB0301008D
:10024000000000000000000000000000952B0100ED
:1002500000000000F30301000000000000000000A7
:10026000F7030100FB030100FF0301000304010089
:1002700000000000070401000B0401000F0401004E
:10028000130401001704010000000000000000003A
:100290001B0401001F04010000000000000000001A
:1002A00023040100000000000000000027040100FA
:1002B0002B0401002F040100330401003704010066
:1002C0003B0401003F040100430401004704010016
:1002D0004B040100000000004F040100000000007A
:1002E000530401000000000057040100000000005A
:1002F0005B0401000000000000000000000000009E
:10030000000000005F040100000000000000000089
:1003100000000000000000000000000000000000DD
:100320000000000063040100000000000000000065
:1003300000000000000000000000000000000000BD
:1003400067040100002080F31488BFF36F8F80F3EF
:100350000A8880F30B8814490860BFF34F8F00F0C0
:1003600037FF124C124DAC4209DA21686268A3686B
:10037000043BA2BFC858D050FAE70C34F3E70D4B4A
:100380000D4CA34208DA19685A680020043AA4BF49
:100390008850FBE70833F4E772B60848084908605C
:1003A00000F05AFF00F0C0FE94ED00E06C04010084
:1003B0009004010090040100A80401000002010063
:1003C00008ED00E0FEE7FFF7FEBF00F0E9BE00F039
:1003D000ECBE00F0EFBE00F0F7BE00F0F0BE01F0A2
:1003E000C7BEFFF7FEBF01F0A7BEFFF7FEBF02F0DA
:1003F000D1BBFFF7FEBFFFF7FEBFFFF7FEBFFFF762
:10040000FEBFFFF7FEBFFFF7FEBFFFF7FEBFFFF720
:10041000FEBFFFF7FEBFFFF7FEBFFFF7FEBFFFF710
:10042000FEBFFFF7FEBFFFF7FEBFFFF7FEBFFFF700
:10043000FEBFFFF7FEBFFFF7FEBFFFF7FEBFFFF7F0
:10044000FEBFFFF7FEBFFFF7FEBFFFF7FEBFFFF7E0
:10045000FEBFFFF7FEBFFFF7FEBFFFF7FEBFFFF7D0
:10046000FEBFFFF7FEBFFFF7FEBF00BF98590100B8
:1004700040670020F4000000A05901002020002067
:1004800000000000A0590100002000200000000032
:10049000406800204C200000202000202047000061
:0804A0000020002020000000F4
:1004C000024B0A460146186800F05CB8C867002075
:1004D00008B5074B044613B1002100E000BF054BEF
:1004E0001868836A03B19847204605F0B1F800BF49
:1004F000000000002407010070B50D4D00260D4CD2
:10050000641BA410A64209D10B4D00260B4C05F02C
:10051000A1F8641BA410A64205D170BD55F8043B98
:1005200001369847EEE755F8043B01369847F2E765
:100530002C6800202C6800202C68002030680020E7
:10054000024B0146186800F02BB800BFC8670020B6
:10055000884210B501EB020402D98442234607D831
:10056000431EA14208D011F8012B03F8012FF8E730
:10057000024401468A4200D110BD13F8014D02F831
:10058000014DF7E738B502FB01F5294600F052F8B6
:10059000044618B12A46002100F088F9204638BDEB
:1005A00038B50546002941D051F8043C0C1F002BFA
:1005B000B8BFE41800F0A8F81D4A136833B96360A7
:1005C00014602846BDE8384000F0A4B8A34208D91A
:1005D000206821188B4201BF19685B6809182160E7
:1005E000EDE71A465B680BB1A342FAD911685018BF
:1005F000A0420BD120680144501811608342E0D121
:1006000018685B68014453601160DAE702D90C2373
:100610002B60D6E7206821188B4202BF19685B68FF
:100620000918636008BF21605460CAE738BD00BF85
:1006300078880020F8B5CD1C064625F0030508355E
:100640000C2D38BF0C25002D01DBA94203D90C234A
:1006500033600020F8BD00F057F821490A681446BD
:100660009CB9204F3B6823B92146304600F03CF846
:1006700038602946304600F037F8431C23D10C235C
:100680003046336000F046F8E3E723685B1B17D47D
:100690000B2B03D923601C44256004E06368A2424D
:1006A0000CBF0B605360304600F034F804F10B00CF
:1006B000231D20F00700C21ACCD01B1AA350C9E793
:1006C00022466468CCE7C41C24F00304A042E3D0B3
:1006D000211A304600F008F80130DDD1CFE700BF25
:1006E000788800207C88002038B50023054D04461A
:1006F00008462B6004F09CFF431C02D12B6803B119
:10070000236038BD80880020014800F009B800BF90
:1007100084880020014800F004B800BF84880020CD
:1007200070477047CC670020009A284B9A4209D145
:100730001FB527486946002200F090FE0FBC0CBC94
:100740009E4674470FDFFEE7009A204B9A4209D17C
:100750001FB520486946002200F080FE0FBC0CBC8B
:100760009E4674470FDFFEE7009A184B9A4209D164
:100770001FB519486946002200F070FE0FBC0CBC82
:100780009E4674470FDFFEE70CB4029A0F4B9A4265
:100790000AD10CBC1FB511486946002200F05EFE6C
:1007A0000FBC0CBC9E4674470FDFFEE7009A074B58
:1007B0009A4209D11FB50A486946002200F04EFE50
:1007C0000FBC0CBC9E4674470FDFFEE7A5EDF5FE9F
:1007D000951401009B140100C9140100911501003A
:1007E00019180100C3438B4210B50ED332F01F031A
:1007F0000BD1013902F014030144102B81EA0004EB
:100800003DD004DC63B1042B32D0002041E0142B36
:10081000FBD11F2C40E8C0F30CD941E8C0F105E042
:100820001F2C40E800F305D941E800F11C460B46B7
:100830008C42EAD122F01402013A0A2AE5D801A139
:1008400051F822F0A10801009B0801008D08010069
:100850000B0801000B0801000B0801000B08010048
:10086000A7080100A1080100950801008D080100FA
:100870001F2C40E840F3DDD941E840F1D6E71F2CBA
:1008800040E880F3D6D941E880F1CFE713F4001FA8
:10089000BBD010BD13F4801FFAE75B02F9D5B4E7B3
:1008A00013F4002FF4E713F4802FF1E70346F0B5BB
:1008B000C9B29AB19C0715D115460C0444EA0164EB
:1008C0000C4344EA0124D618032D0FD822F0030567
:1008D0002B446FF00305940805FB04221A4493424D
:1008E00008D1F0BD03F8011B013AE2E7771B3C6039
:1008F000043DE9E703F8011BF1E70346002030B5AA
:10090000013A00D230BD1D780C78A54202D008B95A
:10091000281BF5E701330131F2E7F0B504468AB34D
:1009200041EA040515F0010513D1012A23D941EA52
:10093000040313F0020312D1D618032E15D86FF05A
:100940000306930806FB032204EB830401EB8301F7
:1009500016E011F8013B013A04F8013BDFE731F8FA
:10096000023B023A24F8023BDFE7CE1A3768E61A68
:100970003760043BE0E70023DEE76B5C2B55013575
:10098000AA42FAD1F0BD42DF00470000000000009B
:100990000000000000000000000000000000000057
:1009A00001015F5F030100001F030000E50A010071
:1009B0000020000000000000010000000100000015
:1009C0000000000000000000304200200000000095
:1009D000700000006457010010000000800000005B
:1009E000000700000100000000015F5F040100003B
:1009F0001F030000950F010000050000000000002B
:100A000000000000030000000000000000000000E3
:100A100030620020000000006F570100100000004D
:100A20004000000000050000010000008C5701009C
:100A3000200000004100000000050000010000004F
:100A4000A257010040000000420000000004000026
:100A50000100000000015F5F00000000FE030000D5
:100A6000F921010000040000000000000000000067
:100A7000000000000000000000000000E06900200D
:100A80000000000001015F5F01000000FF030000A3
:100A90001922010000010000000000000000000019
:100AA000000000000000000000000000E06D0020D9
:040AB0000000000042
:100AC00038B500250648294600F58054D4F800249E
:100AD000C4F80454FFF7EAFEC4F8005438BD00BF60
:100AE000242000202DE9F04FADB000F0E9F80028F7
:100AF00040F0DB8001216E4802F05AFE02F0DAFE7F
:100B0000002840F0D2801FAD014634222846FFF76E
:100B1000CDFE4FF0FF34674F4FF000414FF0FF30F4
:100B200004F0BCFDC20640F1BF80102013A904F000
:100B3000B9FD00B1FEE71399002940F0B4803423D9
:100B40002A46149804F0B6FD342805D11F9C402C89
:100B500004D94FF0FF341EE0631C1CD0202200217A
:100B600003A8FFF7A3FE202200210BA8FFF79EFE9B
:100B700004231AAA52F804191E46013B49B1342332
:100B80004FF0010B039504930DF10C090DF1600872
:100B900028E0002BEED16FF0830676E0DFF818C175
:100BA000D8F80030DCF80004D91C21F00301C0F5AE
:100BB000A0529142C24664D80144C219CCF8001434
:100BC00014985946019204F075FD019ADAF8003044
:100BD000C9F80820C9F80C3008F104080BF1010B22
:100BE00009F10809B345D9D34FF004091EAB53F8F6
:100BF0000429C84609F1FF391AB34FF0000E7346B5
:100C0000DFF8B4C00BA9DCF800240DF16C0A5AF827
:100C1000049BC2F5A05B09F1030020F003005845D6
:100C200001F1080128D8013302EB070E434541E9E1
:100C300002E902444FF0010EE9D19946CCF80024B4
:100C400002E0B9F1000FD2D1159A1B4B3146C3F81F
:100C500004241A4B0BAA53F8248003A84B46C04720
:100C60004FF0000806460DF12C0AC8450AF1080AA3
:100C700010D1FFF725FF08E0BEF1000F01D0CCF83E
:100C80000024FFF71DFF6FF08C063146149804F026
:100C90001DFD41E741465AE90223149804F012FD74
:100CA00008F10108E1E7FEE7FEE72DB0BDE8F08FAF
:100CB000202000202420002024300020DC0F010010
:100CC00008B54FF4606200210248FFF7EFFD0020F5
:100CD00008BD00BF303400206FF0850070476FF012
:100CE000850070476FF0850070476FF08500704792
:100CF0006FF0850070476FF0850070476FF08500DA
:100D000070476FF0850070476FF0850070476FF097
:100D1000850070476FF0850070476FF08500704761
:100D20006FF0850070476FF0850070476FF08500A9
:100D300070476FF0850070476FF0850070476FF067
:100D4000850070476FF0850070476FF08500704731
:100D50006FF0850070476FF0850070476FF0850079
:100D600070476FF0850070476FF0850070476FF037
:100D7000850070476FF0850070476FF08500704701
:100D80006FF0850070476FF0850070476FF0850049
:100D900070476FF0850070476FF0850070476FF007
:100DA000850070476FF0850070476FF085007047D1
:100DB0006FF0850070476FF0850070476FF0850019
:100DC00070476FF0850070476FF0850070476FF0D7
:100DD000850070476FF0850070476FF085007047A1
:100DE0006FF0850070476FF0850070476FF08500E9
:100DF00070476FF0850070476FF0850070476FF0A7
:100E0000850070476FF0850070476FF08500704770
:100E10006FF0850070476FF0850070476FF08500B8
:100E200070476FF0850070476FF0850070476FF076
:100E3000850070476FF0850070476FF08500704740
:100E40006FF0850070476FF0850070476FF0850088
:100E500070476FF085007047012908D1012B06D833
:100E60004368342B03D1D2E9000102F0F3BC6FF0E8
:100E7000800070476FF08500704708B502F09AF95E
:100E8000002008BD70B5002405460426A6B03C220B
:100E9000214607A8CDE90244CDE904440694FFF7B2
:100EA00005FD3C22214617A81694FFF7FFFC01948C
:100EB00005F11C0353F804193246013E09B11646E8
:100EC00001E0002EF6D1042405F12C0353F8041997
:100ED0002246013C09B1144601E0002CF6D1731EF4
:100EE000012B38D8012C36D80423002168680DEB7B
:100EF000030204F0DFFB042804D06FF080063046C4
:100F000026B070BD022E24D16B69402BF5D806AEF9
:100F100032460121686804F0CDFB6B699842ECD140
:100F2000CDE9026002A934B12B6A402BE5D816AA9C
:100F3000CDE9042304AC2246019802F095F9064657
:100F4000002CDCD0DDE904230021686804F0BAFB42
:100F5000D5E70021E7E70126D1E710B58CB00C46B4
:100F6000694604F09FFB009B002B04DA02330BDA86
:100F700004F0BCFB0CE003D0A3F2F233012BF7D852
:100F80006846A047014600E00021019804F09EFB5E
:100F90000CB010BD70B50E4C0E4D0F4E4FF0004111
:100FA0004FF0FF3004F07AFBC10604D53146102023
:100FB000FFF7D3FFF2E7820602D529462020F7E7A4
:100FC000430602D521464020F2E704F08FFBE5E717
:100FD000750E0100850E01007B0E01002F0E010031
:100FE000350E01001D0E0100230E0100170E010039
:100FF000290E01003B0E0100410E0100470E0100C9
:101000004D0E0100330D0100390D01000F0D0100DF
:10101000150D01001B0D0100210D0100270D010020
:101020002D0D0100630D0100690D01003F0D010050
:10103000450D01004B0D0100510D0100570D010040
:101040005D0D0100030D0100090D0100E50C01001B
:10105000EB0C0100D90C0100DF0C0100F10C0100C8
:10106000F70C0100FD0C01006F0D0100750D010072
:101070007B0D0100810D0100930D0100990D010010
:101080009F0D0100AB0D0100A50D01008D0D0100AC
:10109000B10D0100870D0100B70D0100BD0D01006C
:1010A000C30D0100C90D0100CF0D0100D50D0100D8
:1010B000DB0D0100E10D0100E70D0100ED0D010068
:1010C000F90D01000B0E0100F30D0100FF0D0100F1
:1010D000050E0100110E0100590E0100530E010012
:1010E00010B5054C237833B9044B13B1044800E024
:1010F00000BF0123237010BDB06900200000000074
:101100008C59010008B5034B1BB10349034800E0AB
:1011100000BF08BD00000000B46900208C59010028
:10112000A3F5803A704700BF174B002B08BF134B45
:101130009D46FFF7F5FF00218B460F461348144AE2
:10114000121AFFF7B3FB0E4B002B00D098470D4B44
:10115000002B00D098470020002104000D000D480E
:10116000002802D00C4800E000BFFFF7C5F92000BE
:10117000290000F039F9FFF7ABF900BF00000800C3
:101180000000000000000000001000204068002067
:101190008C880020000000000000000000F020BF4C
:1011A000FFF7FCFFFEE700F01BBFFFF7FCFFFEE7C9
:1011B00000F016BFFFF7FCFFFEE700F011BFFFF7DE
:1011C000FCFFFEE700F00CBFFFF7FCFFFEE70000AE
:1011D00072B6002383F3138883F3118818461449E9
:1011E000D1F89020C2F307229A421AD100234FF07F
:1011F000FF30104A03F120010133102B42F8210087
:10120000F8D100234FF0FF3003F160010133102BC0
:1012100042F82100F8D162B6BFF34F8FBFF36F8F52
:101220007047C1F89830C1F8A0000133DCE700BF77
:1012300000ED00E000E100E04FF47F03D3F830213F
:10124000D3F83401BFF34F8F092A03D1431E58420C
:1012500058417047002070475B4A08B5D2F8D0303B
:1012600043F00203C2F8D0304FF47F03D3F83021AB
:10127000D3F83431BFF34F8F092A01BF4FF0502309
:101280000022C3F81421C3F81821FFF7D5FF28B1B5
:1012900001224E4BC3F8382AC3F878254FF47F0358
:1012A000D3F83021D3F83431BFF34F8F092A05D159
:1012B000012B1EBF0122454BC3F87825FFF7BCFF69
:1012C00018B10E22424BC3F8E42E4FF47F03D3F83B
:1012D0003021D3F83431BFF34F8F092A06D10022D1
:1012E0003A4BC3F80C270122C3F810270022D30081
:1012F00003F57F03D3F80013BFF34F8F013108D0FC
:10130000D3F800130132D3F80433B2F5807F0B60B9
:10131000EDD1304BDA69BFF34F8FD10743D52E4B58
:10132000D3F80024012AFBD1C3F80425D3F8002404
:10133000012AFBD1274BDA69BFF34F8FD2070AD5B9
:10134000DA6922F00102DA61BFF34F8F224AD2F844
:101350000034012BFBD11F4A136ABFF34F8F0133B7
:101360000CD1136A23F0FF0343F020031362BFF391
:101370004F8F194AD2F80034012BFBD10022164BB3
:10138000C3F80425D3F80024012AFBD1BFF34F8F03
:101390000D49124BCA6802F4E0621343CB60BFF3FD
:1013A0004F8F00BFFDE71B6ABFF34F8F0133B6D0ED
:1013B000054AD2F88C3043F44063C2F88C30084BB5
:1013C000084A1A6008BD00BF00ED00E00040005070
:1013D00000A003500080FF00009003500400FA05B5
:1013E000406700200090D0030248024903B400F097
:1013F00003F80020A5EDF5FE08B5124B83F30A882B
:1014000001F042FD58B901F0B5FE40B901F0CAFE45
:1014100028B901F0C9FE28B101F0C8FE20B100F0E2
:101420008CFF07E001F0C4FE00F0DCFE00F0FEFEE1
:1014300000F0D8FD00F0C2FE00F0D5FE00F0CEFDB9
:10144000002008BD0004002038B5D1E9022305467C
:101450000C46D1E90001A847206038BD10B51346FD
:101460000C461AB1084B1B68D3E90023214600F053
:101470003DFE00F0C3FD054B1B68834202D000F027
:1014800065FF206010BD00BFE06E0020EC6E002004
:101490000020704740F20110704770B5054601F01A
:1014A00019F90646284601F017F8044608B9002045
:1014B00070BD01463246284601F04CF80028F6D1AE
:1014C00023681869F4E70000F0B589B006460F46B6
:1014D00001F000F90546304600F0FEFF044630B941
:1014E0001DB16FF0810009B0F0BD00F026FF236848
:1014F000DB689B0503D5002D45D100F01EFF2A4671
:101500002146304601F026F818B1002DE9D100F04F
:1015100014FF3946204601F00BF818B1002DE0D138
:1015200000F00BFF284601F0EAF80646EFF31085BD
:1015300072B60146204600F05BFF074685F310882F
:1015400010B96FF08200CEE701F024F805460028BC
:10155000F7D0384600F034FF0023024621462846E3
:10156000CDE90433CDE90233CDE900634FF0FF3319
:1015700001F012F829462046044B9B68079309B0F6
:10158000BDE8F04018476FF08000ACE7C05701009D
:101590002DE9F04F0D469FB00B930646174601F01C
:1015A00099F8EBB207932B140446C5F307290C9363
:1015B00016D520B16FF080001FB0BDE8F08F00F0AD
:1015C000BCFEB9F1040F10D8079B042B0DD802E024
:1015D000079B042B07D8079B4B44042B03D806E03A
:1015E000B9F1040FF4D9002CE4D100F0A6FE204696
:1015F00001F085F873000A9040F1A58016F0E00F25
:10160000F5B203D0002CD5D100F097FE804B53F8F3
:101610002580B8F1000F01D100F08FFED8F800301E
:1016200022464146986800F095FF20B1002C40F01A
:10163000E98000F082FE4046C6F3072100F078FF03
:1016400018B1002CB6D100F078FEEFF3108672B618
:1016500040460A9900F0CCFE054686F3108820B972
:10166000002C40F0D28000F068FE002328462B605A
:1016700000F0A6FE064601F03AF84FEAC90B0890C2
:101680000090012322465946384601F003F818B16C
:10169000002C8FD100F051FE079B2246DB000993FE
:1016A000089B099900930B98022300F0F3FF20B1E7
:1016B000002C7FF47FAF00F040FE202200210EA816
:1016C00000F014FE2022002116A800F00FFE5A465A
:1016D00039460EA800F0D4FD0EAF099A0B9916A852
:1016E00000F0CEFDBA46BB44D3454ED14FF0000AC0
:1016F0000AF1010AD14559D8DDF824A016AFBA4441
:1017000057456FD1284600F045FF054620B9002C0B
:101710007FF450AF00F011FE0B9B41460593079BF1
:101720002846049316ABCDE902930EAB01930A9BB6
:10173000324600930C9B00F02FFF364B2946404663
:101740009B68984738E7304600F04AFE0A990546FC
:1017500000F06CFE20B1002C7FF42CAF00F0EDFD0A
:101760006B68012B04D1002C7FF424AF00F0E5FD61
:101770006B68022B3FF41EAFD5F81480B8F1000F50
:101780007FF479AF00F0D9FD75E7089B22460093FE
:10179000DAE90001012300F07DFF20B1002C7FF485
:1017A00009AF00F0CAFD0AF1080A9DE7BB4653469F
:1017B000DBF80800DBF80C203968024491420AD2B9
:1017C0007A680A44904206D20D93002C7FF4F2AE60
:1017D00000F0B3FD0D9B013399450BF1080BE7D8E1
:1017E000083785E7089B22460093D7E900010223CA
:1017F00000F050FF20B1002C7FF4DCAE00F09DFD26
:1018000008377DE76FF08100D6E66FF08200D3E6FF
:101810009C790020C05701002DE9F04389B00446AF
:1018200000F058FF0546002C3FD0630003D5002888
:101830003BD100F082FD284600F061FF8046204643
:1018400000F0CEFD4146074600F0F0FD10B165BB4B
:1018500000F073FDD7F81490B9F1000F01D100F03A
:101860006CFD384600F096FE064608B900F065FDAE
:101870007B68012B02D1C5B900F05FFD002349460A
:101880003046CDE90433CDE90233CDE90083224669
:101890006FF0010300F080FE31464846044B9B6820
:1018A000079309B0BDE8F043184709B0BDE8F083DD
:1018B000C057010070B505460E4600F031FE0446E3
:1018C00008B900F03AFDA36B1D4201D100F035FDCF
:1018D000002E09DA236C1D4206D1054BE563196819
:1018E00004F11C0000F0E2FB206C284070BD00BF3A
:1018F000EC6E002073B50E46054610B1431E034240
:1019000001D000F01AFD00F00BFE044608B900F00B
:1019100014FD2368986800F0DCFD0223009000228B
:101920003021304600F0B6FE08B100F006FD236C11
:101930000BB900F002FD236C1D4201D100F0FDFC4B
:101940002946204600F09DFD58B1012300F1100109
:1019500040F8083C3022304600F092FC002002B0F3
:1019600070BD6FF08B00FAE770B506460D4600F0CB
:1019700073FE044608B900F0E0FCA3681B68DB684E
:101980009B0501D500F0D9FC3046E56100F028FD4B
:101990002A460146A068BDE8704000F06FBD2DE901
:1019A000F3470E469046994600F056FE044608B9A5
:1019B00000F0C3FCA3685B681B68986800F089FDB1
:1019C00023698246002B01DA00F0B7FC032E01D90F
:1019D00000F0B3FC04EB86073D6ADDB10223002270
:1019E00049464046CDF800A000F054FE08B100F092
:1019F000A4FC3D6A04EBC6044D4528BF4D46404655
:101A00002A46216C00F03CFC236C2B4423643B6A87
:101A10005B1B3B62284602B0BDE8F08770B50E46FE
:101A2000154600F019FE044608B900F086FC23694B
:101A3000002B01DA00F081FC032E01D900F07DFCBF
:101A400004EB8601086A58B185422A4628BF02463F
:101A500004EBC604236C801A134423640862104606
:101A600070BD2DE9F7430D4690461E4600F0F4FD8B
:101A7000044608B900F061FCA3685B681B689868BD
:101A800000F027FD23698146002B01DA00F055FCA8
:101A9000032D01D900F051FC04EBC5070C3554F8B7
:101AA00025307A6E9B1AB34201D200F046FC012326
:101AB000002231464046CDF8009000F0EBFD08B121
:101AC00000F03BFCD7E9180332464146184400F0C9
:101AD000D7FB7B6E33447B6603B0BDE8F083000028
:101AE0002DE9F04180460C4600F0B6FD054608B9E8
:101AF00000F023FCAF680FB900F01FFC404600F077
:101B00006FFC2B690646991C12D05A1C15D154B390
:101B100014F1820F05D10146384600F09BFC0023EA
:101B20001FE014F1830FFAD000F007FC0024F6E761
:101B30000146384600F08EFCF8E7002BF4DB28461F
:101B400000F064FE3B68DB689B0503D531463846F0
:101B500000F080FC14F1810FE1D1AB69002B04DAB5
:101B60000223736003E04446F4E700F0E6FBEFF382
:101B7000108672B6044B21462846DB68984786F3E8
:101B80001088BDE8F08100BFC057010008B500F023
:101B9000B9FCBDE80840082100F04CBE10B500F0CB
:101BA000BFFC044608B900F0C8FB236C1B0701D436
:101BB00000F0C3FBEFF3108272B6236C23F008032E
:101BC000236482F3108810BD70B5064600F0A8FCAF
:101BD000044608B900F0B1FB3146206800F045FE2C
:101BE000054608B900F0A9FB6B680BB100F0A5FB36
:101BF000236C1E4201D100F0A0FBEFF3108372B6FC
:101C0000206C20EA0600206483F31088E86801F065
:101C100071F9E868BDE8704001F046B901F030BBE9
:101C200038B5054600F07CFC044608B900F085FB99
:101C30002068294600F019FE044608B900F07DFB33
:101C4000E068BDE8384001F02FB938B5054600F02E
:101C500067FC044608B900F070FB2068294600F0D4
:101C600004FE044608B900F068FBE06801F02CF9B6
:101C7000012038BD70B5054600F052FC044608B995
:101C800000F05BFB2946206800F0EFFD064608B92E
:101C900000F053FB73680BB900F04FFB236C1D423F
:101CA00001D100F04AFBEFF3108372B6206C20EAFA
:101CB0000500206483F3108870BD08B50C3000F077
:101CC00001FA002008BD0000F8B506460D4621B116
:101CD00018B103680BB143680BB900F02EFBD6E9CD
:101CE00000345E68EFF3108772B6236B05F184024F
:101CF0005A60236BE16BC5F88430234643F8302FDC
:101D0000C5F88830236C314243EA0603236408D0C7
:101D1000194004F11C0000F0D5F9E36B23EA060337
:101D2000E36387F31088044B05F10C00196800F099
:101D3000BDF90020F8BD00BFEC6E002038B5084D9D
:101D4000284600F0A5F92B6804465B6853E90801B2
:101D500000F05FFF08B100F0F0FA204638BD00BF88
:101D6000EC6E00200022836B73B50568194300F107
:101D70003003C0E90C33AB6841F0080103746B68B1
:101D800000F1200604468163C261427442824661CA
:101D900023B900F019FF0246064B1E60AB6A2969A1
:101DA00004F1100019440091E96800F047F902B00D
:101DB00070BD00BFE06E00202DE9F041164E0546D3
:101DC0003368046886B00BB900F0B7FA336862690B
:101DD0005B68D2F80480203B9C4210D1EFF3098766
:101DE00000220E4B696802A8CDE9008700F0BAFA1C
:101DF00002A800F0DBFA059806B0BDE8F081616842
:101E00005B681768994202D0206800F002FF3368CF
:101E100020345C60E4E700BFEC6E0020870901001D
:101E200070B50E4E8B6B32680C46526853F81C1C12
:101E300052F81C2C05468A4203D053F8200C00F0BF
:101E4000E8FEA36B326853605B6883F30B88E36A38
:101E500083F30988A06A256370BD00BFEC6E002083
:101E6000F8B501F00C030C2B14BF0446144611F016
:101E7000400607460D4627D0A36913F8026C85F08B
:101E80000803C3F3C003B3EBD61F01D000F055FA2B
:101E9000422E30D01BD8402E29D0412E1ED04D4886
:101EA000C71B082F01D900F048FA132E00F28F80CB
:101EB000DFE806F02733373C43484D52575E646BEA
:101EC0007074777B7E81858900F037FAD7E7802EA2
:101ED000E5D12046BDE8F840FFF76EBF00F020FCDA
:101EE000054601463B4800F02AFA2846F8BD204640
:101EF00000F0A2F9F9E739462068BDE8F840FFF79D
:101F00008FBFFFF7C7FA206000F078F8324B1B68EC
:101F10008342EAD000F01AFAE7E72068FFF7BDFA3B
:101F2000F1E7D4E90001FFF7CFFAECE7D4E90223A7
:101F3000D4E90001FFF72CFBE5E72068FFF76CFC14
:101F40000020E0E7D4E90001FFF7B4FCDBE7D4E9C7
:101F50000001FFF7CFFCD6E7D4E90001FFF704FD4D
:101F6000EEE7D4E90223D4E90001FFF718FDCAE740
:101F70002068D4E90112FFF751FDC4E7D4E9022338
:101F8000D4E90001FFF76DFDDAE7D4E90001FFF7BE
:101F9000A7FDD5E72068FFF7F9FDD1E7FFF7FEFDC4
:101FA000CEE72068FFF710FECAE7FFF737FEC7E766
:101FB000FFF76EFAA7E72068FFF732FEC0E7206858
:101FC000FFF743FE9FE72068FFF754FEB8E76FF086
:101FD000830098E700080020EC6E002041DF704786
:101FE00000F0ABB908B500F0E3FD034B986000F0DA
:101FF000E5FD80F3888808BD00ED02E0044B186819
:1020000010B14378012B00D170478068F8E700BF1A
:10201000F06E0020C9B20129064B417005D11A6843
:102020002AB101781278914201D3034A10681860EE
:10203000704700BFF06E0020F46E0020F7B5164622
:10204000124A044610680D461F4618B123780178DD
:10205000994211D3A060146020460121FFF7DAFFF6
:10206000089B3246CDE900732946606825F00103DC
:1020700000F078F903B0F0BD0246806810B1017835
:102080009942F9D3A0609460E6E700BFF46E0020A7
:1020900038B50546FFF7B2FF044600F057F905B121
:1020A0002C606068BDE8384000F080B90223016010
:1020B0004B70024B1A68024B1A607047F46E002096
:1020C000F06E002038B5044600680D4660B14378D4
:1020D000022B09D10121FFF79DFF2368294658688B
:1020E00000F031F90023236038BD000070B572B6EE
:1020F0001446EFF30B855FF0000C002A1FBF8CF332
:102100000B886C46954683F30B880A4A01231360BB
:1021100062B6FFF799F972B65FF0000C002C1EBF93
:102120008CF30B88A54685F30B88024C00252560AF
:1021300062B670BDF86E0020402010EA0E0016D086
:1021400001B500F033FBBDE8044088420FD0EFF347
:102150000982EFF30B8322E9F00F80E81C4091E83D
:102160001C40B2E8F00F82F3098883F30B887047B4
:10217000EFF308807146EFF3098206B4FFF770FEB3
:10218000864606BC00F0080001F00803C01A01DC16
:102190000DDB704706B42DE9F00F074C25462646A7
:1021A0002746A046A146A246A34630B4704730BC9D
:1021B000BDE8F00F06BC7047A5EDF5FE084BDA68E8
:1021C00082F07F4282F47F0242F48042DA60002291
:1021D0001A765A76DA76DA77602283F82220704708
:1021E00000ED00E07047EFF3148030F0040080F35E
:1021F0001488BFF36F8F7047044601229443204632
:10220000214622462346254626462746A046A14685
:10221000A246A346A446044708B500214FF0FF306C
:1022200003F03CFA0028F8D130BFF6E70122014B59
:102230001A607047FC6E0020F7B5D0E901670446CC
:1022400000F06EF9054608B900F077F82B68986839
:1022500000F03FF90223009000223046B9B200F0AE
:1022600019FA18B10323236003B0F0BD034B1B68B8
:10227000012BF7D100F0E4F9F4E700BFFC6E002079
:10228000F0B504468AB341EA040515F0010513D1FF
:10229000012A23D941EA040313F0020312D1D6180C
:1022A000032E15D86FF00306930806FB032204EBF8
:1022B000830401EB830116E011F8013B013A04F8B5
:1022C000013BDFE731F8023B023A24F8023BDFE74B
:1022D000CE1A3768E61A3760043BE0E70023DEE7F2
:1022E0006B5C2B550135AA42FAD1F0BD0346F0B51F
:1022F000C9B29AB19C0715D115460C0444EA016491
:102300000C4344EA0124D618032D0FD822F003050C
:102310002B446FF00305940805FB04221A449342F2
:1023200008D1F0BD03F8011B013AE2E7771B3C60DE
:10233000043DE9E703F8011BF1E700F0A1BF08380D
:1023400080F30888084703681962704704484FF013
:1023500080510160BFF34F8FBFF36F8F7047000054
:1023600004ED00E02DE9F843099C1F460E4BA4F153
:10237000080644E90233483C054688469146002158
:1023800040222046FFF7B2FF4FF0807346F8043C2E
:102390006FF0020346E9037846F8209CEB60089B47
:1023A000C5E90043BDE8F883A5EDF5FE436883F376
:1023B0000B880368203383F30988C06870470000E6
:1023C000054A1368013303F007031360034A01331E
:1023D000801A03EBC000704790790020006F002046
:1023E00018B1024B013803EBD0007047006F00209A
:1023F00070B505460C480E4600F096FB044688B1C1
:10240000A0220021FFF772FF0023AA68C4E9013669
:1024100004F1980365615360C4F8982045F8083FBB
:10242000C4F89C50204670BD006F002038B50446AB
:102430000D460146054800F090FB28B1A36804480A
:10244000AB4208BF002038BD0148FCE7006F002008
:102450000500008038B50024CC60EFF3108572B61B
:102460000548D1E9262353601A6000F06BFB85F321
:102470001088204638BD00BF006F002000200A6091
:102480007047426BF0B500F13005AA4203461ED0FA
:10249000EFF3108472B6426B0020AA4204D11A6C8A
:1024A00022EA0101196408E052F87C7CA2F184065A
:1024B0003F687F688F4208D110B184F31088F0BD67
:1024C000D2E900707860076030465268E5E7002086
:1024D000F5E701207047000030B5094C02466168FD
:1024E0000023084640B10568AD68954205D11BB18F
:1024F000026960601A61016130BD03460069F1E75D
:1025000094790020054A0346506800B97047026874
:1025100052689A42FAD0406CF7E700BFE46E0020A0
:10252000024B1B6858682038704700BFEC6E0020D3
:1025300003680748DA681B6912F4806F03D18B4285
:1025400028BF002070478B4208BF0020704700BFA3
:102550000300008038B505462AB10B68DB68DB054F
:102560000DD5002038BDFFF7DBFF044608B9FFF7A3
:10257000E4FE0022236899692C338A4201D1044881
:10258000F0E753F8040FA842EBD00132F5E700BFA3
:10259000050000800C3070472DE9F84A0446894652
:1025A00017460021302210309B46099E0B9DFFF7F5
:1025B0009DFE0023204AE3602260204AC4F8089070
:1025C0001268301D526804F1400C203A62600D9A86
:1025D000C4F810B0C4F88020089AA26104F1200267
:1025E0000A998B4214D10023184604F1300104F1FA
:1025F00060022E1DDDF830C00832634512D1384626
:102600006761FFF7EDFE08B10368E361BDE8F88A92
:1026100050F8331042F8041B56F833104CF83310BE
:102620000133DDE756F833C041F804CB55F833C029
:10263000013342E902C0DDE743431515EC6E00208B
:1026400008B5FFF76DFF18B103680BB1586808BDF6
:102650004FF0FF30FBE7000010B5FFF7C1FE044666
:1026600001460A4800F079FA68B1E268084B9A42DC
:102670000AD1FFF7E5FF63695B681B685B6883420B
:1026800002D104F10C0010BD0020FCE7006F002017
:102690004343151538B5049D144699B1A0B1CA43FA
:1026A000824201D2094838BD022B0CBF0622022209
:1026B0000DB942F008020CB142F0200200F0B8FA65
:1026C0000028EFD10020EEE70148ECE7040000808D
:1026D0000100008010B5FFF723FF044608B9FFF79B
:1026E0002CFE23685868B0FA80F0400910BD08B588
:1026F000FFF716FF08B9FFF720FE012008BD38B527
:10270000054648B100F041FAB5EBD07F044601D050
:10271000FFF713FE204638BDFFF792FFF4E70000F5
:102720002DE9F74300251023A0224FF429611A4810
:1027300000F0C6F9194F1A4B7D605D6000F028FA71
:10274000184EDFF86490384600F0AEF80446E0B169
:10275000D0F80080D8F81C302BB180234A461049AD
:1027600000F00AF90546D8F8243013B1204600F0ED
:1027700069F92068211D00F02DFA08B1FFF7DDFD91
:102780002946204633689847DDE77368019303B014
:10279000BDE8F043184700BF006F0020E46E002042
:1027A00094790020C05701009C7900202DE9F04168
:1027B000FFF724FC134F144B3D681B686E68012B18
:1027C000044631461BD0D0B1103DA0F1100845455C
:1027D00015D0EFF309826B6A2033934201D9FFF7DA
:1027E000ACFDD8F804106B688B4206D054F8100C7E
:1027F00000F00FFA08B1FFF7A0FD61683C603046B9
:10280000BDE8F081EC6E0020F86E002030B56FF06E
:102810000304002300F13002241A52F8041B29B1EA
:10282000D0F8801054F8125019444D600833202B12
:10283000F3D130BD70B50D46044608B9FFF77DFDF4
:10284000EFF3108672B6236CE16B2B4329422364AD
:1028500008D0194004F11C00FFF734FCE16B21EAB9
:102860000501E16386F3108870BD70B591B14B1E10
:102870000B400FD1846900F1300202EB8402142472
:102880000C26C56904FB0522056A06FB0522456A7C
:102890009D4201D1002070BD04FB032006698E42D9
:1028A000F9D00133F4E70000F8B5054608B9FFF7A1
:1028B00044FD2C4E346814F1290F50D82A4B196866
:1028C00004F128038B424AD2236AA26903EB430333
:1028D0000C32606A1344E2690244E04302EB820274
:1028E0001344B0EB830F4FEA830202D3A31899423B
:1028F00001D2FFF722FD23681C4A1B0C1B049342E4
:1029000001D0FFF71AFD2388B3F5817F01D3FFF7CC
:1029100014FD6368002B01DAFFF70FFD144A1768F6
:1029200007F148031360134A1268934201D9FFF775
:1029300004FD236AA26903EB43030C32616A13446A
:10294000E2693C600A4402EB82021344326802EB03
:10295000830333606B687B646F603846F8BD002783
:10296000FBE700BF44670020D057010000005F5F15
:1029700048670020D45701002DE9F04F85B0884604
:1029800091460746029300B109B9FFF7D6FC3E68AD
:10299000B26906F1300303EB82030193F569274B1B
:1029A000D3F800A095B1142000FB05A51D60244BB1
:1029B0001B689D4201D9FFF7C0FC00255446AB4679
:1029C000F3695B4502D9BAF1000F03D1284605B07F
:1029D000BDE8F08F1422019B02FB0B320023236120
:1029E000B368C4E90027990544BF53681D4304F147
:1029F0000803C4E90233D3689A0516D5B9F1000F6C
:102A000002D0029A802A03D00393FFF796FC039B1F
:102A100013F0E00FDAB202D159F822301BB1039261
:102A2000FFF78BFC039A49F82240D8F804300BF1E9
:102A3000010B2361C8F804401434C1E74C6700203F
:102A4000D85701002DE9F047054608B9FFF775FC96
:102A50004FF014090C22002740F2011A2E68B369C6
:102A600006F1300404EB8304F36909FB0344336A81
:102A700002FB034409FB07F1736A01EB0408BB4244
:102A800001D8BDE8F087AB6BD8F810202846134377
:102A9000AB630B594146984708B1FFF74EFC3388AA
:102AA000B3F5807F05D1D8F80C0000F0FDF90137AF
:102AB000E0E75345FBD1D8F80C0000F005FAF6E743
:102AC0002DE9F04116461D46044640B33BB302F1E2
:102AD000080803FB08F707F110028A421FD1002102
:102AE000FFF704FC04F1080C04F1100260461346E1
:102AF0000021C4F80CC001318D42436003EB080E85
:102B0000C3E9000C184608D10020A7EB0807C4E968
:102B100000653A44A260BDE8F0817346EBE70148E6
:102B2000F9E700BF0100008058B1C3680830834254
:102B300006D0D3E9001203F108004A601160704723
:102B4000002070478268A1F10803536041F8082C07
:102B500040F8083F41F8040C70470346024653F81A
:102B6000100B526899420ED3083002FB003291429A
:102B700009D20839C91AB1FBF0F300FB1310B0FAFF
:102B800080F040097047002070474FF0FF307047D9
:102B90007047000008B500F0F1FB0822034BC3F8B2
:102BA0008021BDE80840FFF71BBA00BF00E100E04C
:102BB000014B1868704700BFDC570100014B1B68D0
:102BC00018687047DC570100014B1B685868704754
:102BD000DC570100F0B510B943F6DA30F0BD00293A
:102BE000FAD0012300220C2414250B60016A8A42CA
:102BF00001D10020F2E704FB02F3D0E9067603EBF3
:102C0000870305FB063303449B6B1B07E4D40132A7
:102C1000EDE7EFF3148311F00F0F0CBF0122002238
:102C200062F3000383F31488BFF36F8F00207047B3
:102C300012F020032DE9F0410646884609D0EFF353
:102C40009483DC074FF012034CBF42F0080222F0DD
:102C50000802100702F0060148BF43F004030629EA
:102C60003DD143F001052A4641463046FDF7BAFD05
:102C7000002814BF012000202AD146E800F2B04409
:102C8000110E120208F1FF3747E800F34FEA136410
:102C90001ED51B021CD58C421AD046E800F447E82A
:102CA00000F700F0DAFB240E84424FEA176733D3B3
:102CB00000F0D5FB87422FD8204600F0C9FB2A46FA
:102CC000C6F1010101443046FDF78CFDA8B9002092
:102CD000002814BF00206FF07F00BDE8F08191074D
:102CE0003ED543F00805BEE7204600F0AFFB0646A0
:102CF00000F0B7FB2A460146E5E70134A742F3D8C6
:102D0000384600F0A3FB2A46A8EB0001FDF76AFD58
:102D1000003818BF0120DBE700F0B2FB8442D6D3B5
:102D200000F0B0FB8742D2D8204600F0A3FB2A4631
:102D3000C6F1010101443046FDF754FD0028C6D01C
:102D40000134A74203D8384600F08EFBDBE720466B
:102D500000F08AFB064600F097FB2A460146EAE7A8
:102D60004CF2DA20B9E700002DE9F0413B4C86B087
:102D70003B4800F0EBFA236801255A1C0193394BBC
:102D80002260DA681B694FF44078039300233448CB
:102D900001A902920495ADF814808DF8163000F068
:102DA00099FA20B143F6DA3006B0BDE8F081236825
:102DB0008DF816005A1C01932B4B294802932B4B7C
:102DC00001A9CDE903352260ADF8148000F082FA44
:102DD0000028E7D1022740F2011623688DF816007B
:102DE0005A1C0193224B1E480293224B01A92260D8
:102DF00003930497ADF8146000F06CFA0028D1D169
:102E000023688DF816005A1C01931B4B144802933B
:102E10001A4B01A9CDE903352260ADF8148000F00A
:102E200059FA0028BED123688DF816005A1C019368
:102E3000134B0B480293134B01A92260CDE90337D2
:102E4000ADF8146000F046FA04460028AAD12A46DC
:102E50002946034800F026FA2046A5E71C7A002000
:102E600050670020DC570100C0040100A0090100E8
:102E70000008002000100020E0100100E010010018
:102E8000002000202020002008B500F081F800F08C
:102E90008FF828B900F0AAF810B9FFF765FF08B15C
:102EA00043F6DA3008BD000043B2002B08DB0122F4
:102EB00000F01F0002FA00F0024A5B0942F823000A
:102EC0000020704700E100E043B2002B0DDB01223F
:102ED00000F01F0002FA00F05B09054A203342F8B7
:102EE0002300BFF34F8FBFF36F8F0020704700BFE9
:102EF00000E100E043B2002B09DB012200F01F00DB
:102F000002FA00F05B09034A603342F82300002014
:102F1000704700BF00E100E00020034BD8765A6AFA
:102F200042F470225A62704700ED00E00349044BFE
:102F3000CA68002092B21343CB60704700ED00E0F6
:102F40000800FA050020704700224FF0FF30094BBF
:102F500002F1A0010132102A43F82100F8D1D3F880
:102F60008022002022F00802C3F88022D3F88032A9
:102F7000704700BF00E100E008B500F0F7F9082253
:102F8000024BC3F880211A60002008BD00E100E078
:102F9000064BD3F8D02022F00102C3F8D020D3F89A
:102FA000D02042F00202C3F8D020704700ED00E0CC
:102FB00010B50B4C00F0F4F9D4E9010100F006FA69
:102FC0000849094800F014FA2169E068013900F065
:102FD00025FAD4E9050100F0F9F9002010BD00BF81
:102FE000DC570100FFFF03200000012010B5002185
:102FF000444800F04DFA00214FF0502000F048FA0C
:103000000021414800F044FA0021404800F040FA15
:1030100000213F4800F03CFA00213E4800F038FA19
:1030200000213D4800F034FA00213C4800F030FA1D
:1030300000213B4800F02CFA00213A4800F028FA21
:103040000021394800F024FA0021384800F020FA25
:103050000021374800F01CFA0021364800F018FA29
:103060000021354800F014FA0021344800F010FA2D
:103070000021334800F00CFA0021324800F008FA31
:103080000021314800F004FA0021304800F000FA35
:103090002F4C00212F4800F0FBF900212E4800F0B2
:1030A000F7F92046002100F0F3F92046002100F056
:1030B000EFF90021294800F0EBF90021284800F041
:1030C000E7F904F5B0340021264800F0E1F9204684
:1030D000002100F0DDF90021234800F0D9F900219A
:1030E000224800F0D5F901220020214BC3F88004CA
:1030F000C3F88424C3F8C004C3F8C424C4F840252A
:1031000010BD00BF004000500080005000900050F3
:1031100000A0005000B0005000E0005000F000504F
:1031200000000150001001500040015000500150BB
:10313000007001500080015000B0015000C00150EB
:1031400000D0015000E0015000F00150000002509A
:103150000030025000100250002002500060025067
:103160000080025000A0025000A0035000258450AF
:103170000030005008B500F09BF968B900F0ECFB96
:1031800058B9074AD36823F008031B041B0C43F00B
:10319000BF6343F40033D36008BD45F22350FBE71F
:1031A00000ED00E0002070470020704700207047CD
:1031B00070470000BFF34F8F0549064BCA6802F401
:1031C000E0621343CB60BFF34F8F00BFFDE700BF4A
:1031D00000ED00E00400FA052DE9F04F436887B0E8
:1031E000082B2ED14B68042B2BD14FF0FF33D0F896
:1031F0000080D1F800A0D8F80400CAF8003000B36D
:1032000026223C21FFF714FD0546D0B9D8F800303E
:10321000DFF84CB0DFF84C9003AF5BF8046B99E833
:1032200007001E4487E807000C2239463046019308
:10323000FDF763FB019B044600B936B90135052D46
:10324000EBD1022007B0BDE8F08F3C223146D8F820
:103250000400FDF762FB2046CAF80040F2E700BF19
:1032600004580100F85701000346084611461BB1F7
:10327000022B03D00320704700F02EB9FFF7ACBF3C
:10328000BFF34F8F0549064BCA6802F4E06213434F
:10329000CB60BFF34F8F00BFFDE700BF00ED00E044
:1032A0000400FA05002918BF0421002A18BF0222D1
:1032B000036807481143186359605A6842F00102D5
:1032C0005A60BFF34F8FBFF36F8F0020704700BF6E
:1032D00004AAFF004A68034612F01F0070B529D106
:1032E0000E680F2E26D81C6822F01F0265686060E9
:1032F000A6600B7C03F0010313438A7CD20002F02A
:1033000018021A434B7C5B0003F006031343E3608F
:103310008B68013B23F01F02CB685B0003F00E03B8
:10332000134343F0010323616560BFF34F8FBFF385
:103330006F8F70BD0120FCE7036800205A68C9B296
:1033400058609960D86018615A60704738B5054672
:1033500003681C68C4F307240CB9204638BD013C3F
:1033600021462846FFF7E8FFF6E700000722024B58
:10337000C3F80423704700BF003000500022074B01
:10338000C3F80021D3F80011C3F80421D3F80411C5
:10339000C3F80821D3F80831704700BF003000504F
:1033A00000231720084A03F5C0710133202B42F88F
:1033B0002100F8D10023172003F5E0710133202B01
:1033C00042F82100F8D170470030005010B540F2AB
:1033D0000714064AC00BC90B884200D910BDC3B2FE
:1033E00003F5C07342F823400130F5E70030005088
:1033F00010B540F2071400F1604001F16041064A47
:10340000400B490B884200D910BDC3B203F5E073ED
:1034100042F823400130F5E700300050C0F30E03BE
:10342000C3F50043B3FA83F3C3F11B03064AC0F3A9
:10343000C730DBB240F4807043F48073C2F80005FB
:10344000C2F80435704700BF00300050C003704719
:10345000C00300F5FF407F307047002070471F20F9
:1034600070474FF40040704700F57F40C030400384
:10347000704700004303014818447047FF1FF81FBE
:10348000402070475F2070474FF4005070470000A5
:10349000002914BF4FF480720022044BC0F30730A0
:1034A00000F5007043F82020704700BF0030005046
:1034B00008B5FFF731FD60B9FFF738FD48B9FFF7F0
:1034C00041FD30B962B6FFF73FFD10B9FFF754FD7B
:1034D00008B143F6DA3008BD38B543680C2B2CD15F
:1034E0004B68042B29D14FF0FF3304680D68206826
:1034F0002B6010B3A16801B32622FFF799FBE0B956
:103500006168B1F5803F10D3A2688B18B3F5813F95
:1035100005D90B48814208D92D30834208D820684C
:10352000FDF7FBF90020286038BD064B994204D90D
:10353000A268054B88189842F1D90220F4E700BF31
:10354000FF01FF002F01FF003801FF0001680E4A54
:103550000346914215D1C169A2F11022A2F1EF12E6
:1035600091420ED18268012A0BD8C26812B101695A
:103570008A4206D0586928B19B691B1A58425841A3
:1035800070470120704700BF55AA00FF0D4B70B572
:103590009E68A6B13046FFF7D9FF044678B9F368B4
:1035A0006BB935690DB9204670BD2846FFF7CEFFCF
:1035B00028B9EB68B34202D12E462D69F2E7012407
:1035C000F1E700BF207A00202DE9F041394E346840
:1035D000D4B1B468C4B1002861D000295FD001FB28
:1035E00000F5B5FBF0F0884259D1291D57D8AA073C
:1035F0000DD025F003020432F46803E061689142C3
:103600004FD2A469002CF9D12046BDE8F0812A46AA
:10361000F2E7891A232904F12007D4E9050C1AD806
:103620000123A360A0B1C0F818C0A36903B1586119
:103630000023C4E905333369DB0702D5FFF7A6FF92
:10364000A0BB2A46002138463C46FDF72FF9DBE7B0
:10365000C6F80CC0E9E702F1200804EB08032039A2
:10366000C3E9011E2169DFF850E0DC60196144F80C
:1036700008E0AEF1102EAEF1EF1EC3F81CE001B170
:10368000CB60C3E9050C40B18361996901B14B611D
:1036900001212361C4E90121CAE7F360F5E70024B1
:1036A000B2E7D4F808E0BEF1000FB2D00120FCF779
:1036B0000FFF00BF207A002055AA00FFF8B505468D
:1036C00000285DD0394F3B68002B59D0BA68002ADA
:1036D00056D0834203D87A681344984202D301201B
:1036E000FCF7F6FEA0F120042046FFF72FFF00288C
:1036F000F5D155F8183C012BF1D155F8146C45F86B
:10370000180CB6B1B368002B3BD155F81C3C03F143
:10371000200273681344736055F8103C336103B1A1
:10372000DE60204620220021FDF7C0F82346344603
:103730001E462069002830D08368002B2DD1636895
:1037400042682033134463600369D4E9052123618F
:10375000CAB9F1B9426981696261A161DAB1946162
:10376000A26902B1546103B1DC6020220021FDF79F
:103770009DF83B699B0703D5FFF708FF0028AED1F2
:10378000F8BD0646D5E79161A1690029E2D04A61FA
:10379000E0E7F960F8E7FC60E2E7002EE9D1FB68BA
:1037A000A36103B15C61FC60E3E700BF207A002005
:1037B00038B50D461422002104461248FDF776F86C
:1037C0001149124801F02AFF232D1AD914F00303DE
:1037D0001FBF043DED18C3F10403E4182A4600217D
:1037E0002046FDF763F8074B094AC3E900459C6092
:1037F0002260A2F11022203DA2F1EF126560E26189
:10380000DC6038BD207A0020BD360100C9350100DA
:1038100055AA00FF10B50446406A10B1A16A00F035
:103820001DF9606A01F0F4FE0020C4E9090010BD32
:1038300038B50446FFF7EEFF236A2C22012B0CBF9C
:1038400005466FF0960500212046FDF72FF8284623
:1038500038BD000037B505460B480C46037ADB0738
:103860000ED500230A460193294601AB00F064F807
:1038700020B9019BA34218BF6FF0930003B030BD85
:103880006FF08800FAE700BF347A002008B500F036
:103890003DF80748037A13F0060F03D008220021F1
:1038A000FDF704F8BDE808400C21014800F0D6B847
:1038B000347A002038B50E4C217A11F0010112D172
:1038C00008222046FCF7F2FF0222237A62F3420329
:1038D000237200F00FF8054638B9237A43F001034C
:1038E0002372284638BD0025FBE7FFF7CFFFF8E736
:1038F000347A0020044A002092F8803543F0010316
:1039000082F88035704700BF407A0020F8B5094C36
:1039100020252646012720462762FFF789FF013D23
:1039200004F12C04F7D196F8803565F3000386F88E
:103930008035F8BD407A002038B5002014461D4679
:1039400000F05EF828B92B68A34218BF6FF093000F
:1039500038BD6FF09200FBE710B50C4C236813B133
:103960000B4B1B682BB900F089FC30B90122084BC6
:103970001A6001230020236010BD0138062801D9F8
:10398000044810BD044B53F8200010BDC47F002034
:10399000C87F0020FE8FFFFF185801002DE9F0437B
:1039A000144C154F002818BF0446236883B0BB424F
:1039B0001CD016460D4620464FF4147104F104093C
:1039C00000F04CF804F58E78484600F045FB404680
:1039D00000F0D2F82B464A4640460849009600F0CF
:1039E000EDF900B9276003B0BDE8F083002003B013
:1039F000BDE8F083CC7F0020A5BCC95AD5400100AA
:103A000070B50E4D82B0002814BF8446AC461D46EA
:103A1000DCF800000A4B98420DD100260CF58E70A0
:103A200033460096144600F0F3F9002818BF3446D8
:103A30002C6002B070BD0348FBE700BFCC7F0020C4
:103A4000A5BCC95AE88FFFFF38B131B1002201444B
:103A50000346013081421A70FAD1704738B131B152
:103A6000002201440346013088421A70FAD170479F
:103A700070B590B000287AD03E4C0D4640223621D9
:103A800006462046FCF712FF40225C21A018FCF7F6
:103A90000DFF2B1D9C4203D204F144039D4252D3DF
:103AA0002B682268534023602B68226C53402364A8
:103AB0006B686268534063606B68626C5340636418
:103AC000AB68A2685340A360AB68A26C5340A36488
:103AD000EB68E2685340E360EB68E26C5340E364F8
:103AE0002B69226953402361226D2B695340236562
:103AF00062696B69534063616B69626D53406365D2
:103B0000AB69A2695340A361AB69A26D5340A36541
:103B1000EB69E2695340E361EB69E26D5340E365B1
:103B20000021304601F0E2F8044628B94022304630
:103B3000104901F0EFF8044640216846FFF78EFF78
:103B4000204610B070BD631E04F13F01013D1F34DB
:103B500015F8010F13F8012F42401A7011F8012FC8
:103B60002878A34282EA00020A70F1D1D8E76FF008
:103B70007304E5E71C82002010B54FF49A7200210F
:103B80000446FCF793FE42F21072044BC4F8202165
:103B900004F596701B68BDE8104018476867002060
:103BA0002DE9F04F04468946924695B0002900F071
:103BB000A780002A14BF0227012700238DF80C30AC
:103BC000002C00F09F80DFF8448104AE08F1400B28
:103BD0000021204601F08AF8034648B130462021F2
:103BE0000193FFF73BFF019B184615B0BDE8F08F2E
:103BF00040224146204601F08DF803460028EDD1D1
:103C000004F1F40520222946204601F083F80346FA
:103C10000028E3D10122204603A901F07BF80346E6
:103C20000028DBD1022F62D020460CA901F09CF8BD
:103C300003460028D2D11946204601F057F8034622
:103C40000028CBD140225946204601F063F80346B4
:103C50000028C3D1202220460CA901F05BF80346BE
:103C60000028BBD13146204601F07EF803460028EB
:103C7000B4D131462046FFF7FBFE03460028ADD104
:103C800020222946204601F045F803460028A5D108
:103C900020460CA901F068F8034600289ED1014691
:103CA000204601F023F80346002897D140225946C8
:103CB000204601F02FF8034600288FD1202220460D
:103CC0000CA901F027F80346002887D12946204691
:103CD00001F04AF80346002880D19DF80C200132FB
:103CE000D2B2BA428DF80C20FFF472AF76E752469A
:103CF0004946204601F00EF80346002894D06DE7AF
:103D000001275AE76FF0730304AE67E71C820020B7
:103D10002DE9F04104460F4615469846D0F81801A3
:103D2000E0B013B100EB40004008B5F5807F3ED80D
:103D30002844B0F5C07F3AD84FF4C07200216846DD
:103D4000FCF7B4FD6946D4F82431D4F81821D4F82E
:103D50002801984770BBD4F81861B8F1000F0AD059
:103D6000D4E9493072080DEB0601984710BBD4F82E
:103D7000183106EB530607B18DB932466946204625
:103D8000FFF70EFF054610B90123C4F81431314680
:103D90006846FFF763FE284660B0BDE8F0810DEB92
:103DA000060039462A462E44FCF7B7FDE5E76FF0DA
:103DB0000405F0E76FF00805EDE700BF2DE9F047D7
:103DC000044604F1F4050F4691461E46DDF82080B6
:103DD00000F072FF29462046FFF74AFE08B1BDE811
:103DE000F087284620220121FCF760FDD4F8183125
:103DF000C4F82471C4F8289113B92023C4F81831E9
:103E0000424631462046BDE8F0470123FFF780BF18
:103E1000B2F5806F00F295802DE9F04F89B09A4697
:103E2000129BB3F5807F00F29080D0F824311646C3
:103E3000044688464BB3D0F81C31012B05D0D0F88E
:103E40001421D0F820319A421FDD5146002320462C
:103E5000129AFFF75DFF014698B900231293002ED6
:103E60005ED0DFF8EC9009F1400B0021204600F015
:103E70003DFF202E3546014628BF202504F1F407DA
:103E800090B1084609B0BDE8F08FBAF1000FE6D056
:103E9000129B002BE1D051461A462046FFF780FEC8
:103EA00001460028DBD0ECE749464022204600F0DE
:103EB00031FF01460028E4D139462022204600F097
:103EC00029FF01460028DCD16946204600F04CFF5E
:103ED00001460028D5D1204600F008FF0146002801
:103EE000CFD159464022204600F014FF0146002859
:103EF000C7D169462022204600F00CFF0146002869
:103F0000BFD13946204600F02FFF01460028B8D126
:103F100040462A463946FCF700FD761BA844A4D14A
:103F200051462046129AFFF73BFE01460028A8D1D1
:103F30000846D4F814310133C4F8143109B0BDE88F
:103F4000F08F6FF00201084670476FF0040198E7A8
:103F50001C8200202DE9F043202B1D460646884692
:103F600091468BB026D8DBB202AF31688DF8048061
:103F70008DF8053006F1040821B9404600F0B6FE80
:103F8000044640B9012302224046336001A900F0F3
:103F9000C1FE044638B138462021FFF75FFD2046B8
:103FA0000BB0BDE8F0832A464946404600F0B2FE19
:103FB0000446F0E702AF1946104600233A4601F0E6
:103FC0003BF804460028E6D12023B9461D46CCE73D
:103FD0002DE9F041D0F8F830A6B0002BD8BF02AEE2
:103FE00031DD05460027D0F80C4102AEA4F10108EE
:103FF0009022D5F8FC403146D0F8000101AB019782
:10400000B8FA88F8A0474FEA5818044620B9019B2F
:1040100053B9B8F1000F16D030469021FFF71EFDBE
:10402000204626B0BDE8F081014632462846FFF71B
:1040300091FF58B9D5F80431019A1344C5F80431F9
:10404000B8F1000FE8D16FF03C04E5E704462046E4
:1040500026B0BDE8F08100BF70B5002504461422EB
:104060002946C0F8F850FC30FCF720FC154B04F54D
:1040700088761B6830469847204640F8045B00F07D
:104080001BFE114B30461B689847C8B9D4F8F8306E
:10409000AB420FDC03EB830204EB82022021C2F867
:1040A00000010120C2E9421008490133C2F8FC10A6
:1040B000C4F8F830064B3046BDE870401B6818471E
:1040C00070BD00BF686700206C670020B54B010021
:1040D000706700202DE9F047202A88B078D83E4B41
:1040E00000F5887904461B68484617468846984775
:1040F000054640BB40F20116D4F8F830002B63D0DF
:104100002046FFF765FF054600285FD1D4F8F83058
:10411000002B07DDD4E94102904203D3D4F80C21EF
:10412000012A14D0013EE9D16FF03B056E462021F3
:104130003046FFF793FC294B48461B6898470028F8
:1041400018BF6FF01D05284608B0BDE8F0871F288E
:10415000E8D96E4629462022304604F1040AFCF7CD
:10416000A5FB3146504600F0FFFD05460028DED194
:10417000504600F0B5FD504600F09EFD29465046E1
:1041800000F0B4FD05460028D1D15046202231462A
:1041900000F0C0FD05460028C9D103463246202163
:1041A000304600F049FF05460028C0D1D4F8F83069
:1041B0003A46002BC8BF002340463146C8BFC4F86A
:1041C0000431FCF7AAFBB2E76FF03F056E46AEE79D
:1041D0006FF03B05B7E700BF6C67002070670020F9
:1041E000002130B58DB0282202A80191FCF75EFBBA
:1041F00002A800F049FF044610B120460DB030BDC2
:10420000184D4FF0FF31286800F038F90446C0B966
:10421000002000F063F900BB134A02A901A800F0D6
:10422000BBFC0446012000F059F990B9286800F061
:104230002DF90028E1D00D4800F0B8F920460DB066
:1042400030BD0B4800F0B2F9012C08BF0524EDD0B9
:10425000DEE7084800F0AAF9E8E7074800F0A6F909
:10426000DAE700BF64670020048300208C58010057
:10427000345801006C5801004C58010010B582B050
:1042800000F050F828B100F09FF80324204602B057
:1042900010BD00F06BF8D8B900F020F9E0B91E4C61
:1042A000D4F828391B0EF02B0AD1D4F8242A1B4B42
:1042B0009A4229D000F038F8072400F085F8E5E7A5
:1042C000062400F031F800F07FF8204602B010BD5F
:1042D0000424204602B010BD00F026F800F074F867
:1042E000FFF77EFF044658B902460146FFF756FB2A
:1042F00030B968220A4901ABFFF782FB0028C5D01C
:104300000524204602B010BD012000F0E7F8002887
:10431000E2D1C4F80C0AE3E7001084500000E0206A
:104320009C8200200020704700207047430504D580
:104330004FF0FF32034BC3F80821024BC3F8080AC1
:10434000704700BF00108450014BC3F8040A704747
:104350000010845008B100F06BB84FF4750070473E
:1043600008B100F04FB84FF47500704710B5114810
:1043700000F070F800B110BD0F4800F06BF8002895
:10438000F9D10E4C204600F065F80028F3D10C4B13
:104390000C481C6000F05EF801460028EBD100F0EC
:1043A0002DF8044608B1204610BD00F079F82046EB
:1043B000FAE700BF60670020546700205C670020B8
:1043C000646700205867002008B5084800F04CF8E2
:1043D000074800F049F8074800F046F8064800F0A2
:1043E00043F8BDE8084000F00BB800BF606700204C
:1043F000546700205C670020586700200020704749
:10440000704700BF024610B4084CD4F8003A13427B
:10441000FBD021B1D4F804310B60C4F80831034B50
:104420000020C3F8082A10BC704700BF0010845059
:10443000044AD2F8003A1842FBD0C2F8080A002019
:10444000704700BF00108450FCF782B80A46002174
:10445000FCF72CBA08B5034B02681B681068984734
:10446000002008BD8467002008B5034B02685B6824
:1044700010689847002008BD84670020024B02683E
:104480009B681068184700BF8467002008B5034B7D
:104490000268DB6810689847002008BD8467002028
:1044A00070B5094C094D2069AB68984718B1084BA5
:1044B00008485B6898470021074AEB68116020694B
:1044C000BDE87040184700BF946700208467002053
:1044D00074670020A45801002485002070B51B4D8E
:1044E0001B4E0446B26828699047F8B95CB1194C74
:1044F0002368B3B1012B1BD0013B23602869F3680B
:104500009847002070BD134C216841B90122124B1D
:10451000C3F80025114AD2F81039002BFBD1013124
:104520002160F36828699847002070BD0C4870BD71
:104530000A4AD2F81039002BFBD1074A6FF07E40AF
:10454000C2F80035FFF700FF2368D5E79467002025
:1045500084670020248500200000845000108450CF
:10456000E98FFFFF014B1B68184700BF84670020DD
:10457000014B9B68184700BF84670020014BDB6834
:10458000184700BF84670020BFF34F8F0549064BD3
:10459000CA6802F4E0621343CB60BFF34F8F00BFE1
:1045A000FDE700BF00ED00E00400FA0530B44FF075
:1045B000FE320025074B084C08494968C3F800241F
:1045C000C3F80424C3F80824C3F80C24C4F8005525
:1045D00030BC0847001084500000845074670020ED
:1045E00010B5044630B16368DB0602D500232360B2
:1045F000636010BD024B03485B689847F3E700BF58
:1046000074670020C4580100B0B1436893B1DB0661
:104610000ED5012350E8002F194640E8001C9CF0FD
:10462000000FF7D1012AF5D0BFF35F8F002070474C
:1046300003487047034870476FF4E040704700BF7D
:10464000E98FFFFFEA8FFFFF034668B142683AB186
:10465000D20607D5BFF35F8F002210461A6070475D
:1046600003487047034870476FF4E040704700BF4D
:10467000EA8FFFFFE98FFFFF10B5044620B100224B
:1046800011232260636010BD0148FFF78FFFF6E73A
:10469000EC580100002800F084802DE9F0430C461E
:1046A00083B0002978D01D46002B75D007461AB17B
:1046B000012200232A6003602B68002B67D0294663
:1046C000204600F0D7FD0346002861D12146286826
:1046D00000F0B2FD034600285AD12A68082A72D099
:1046E000042A73D0A2F10208B8FA88F84FEA5818E1
:1046F0000120384EC6F8C401C6F84001C6F8C4010E
:10470000626AC6F83021D6F830118A42F6D14FF0ED
:10471000000901934FF0FF30C6F82C91FFF706FE19
:104720006FF01B024846C6F80021FFF70DFEC6F8E1
:104730000C81D6F8040A40F48060FFF705FE0A22D7
:10474000C6F838210A9B012B019B2DD022692249F2
:10475000A1FB02121209616A184601FB02F202EB88
:1047600042021C49D2039209C1F8D8210122C1F8A2
:104770002C213A68296822F07F4242EA01623A60BD
:10478000296842EA01223A6003B0BDE8F083134B86
:10479000184603B0BDE8F083114B184603B0BDE8DE
:1047A000F0830F4B184670474FF47F02D2F80C1C71
:1047B000013106D0D2F80C2C0749A1FB02121209D4
:1047C000C9E71622C7E74FF0030891E74FF0020848
:1047D0008EE700BF00108450ABAAAAAA310CF100EA
:1047E000350CF10070B50024C9004FF0010C2546CE
:1047F000A6464E1E08E09E4514D00125B44516D8A5
:104800009E4601340CF1010C630950F8233004F08A
:104810001F01CB401F2918BF03F00103002CEAD170
:104820000125EDE701359542E8D1024870BD002031
:1048300070BD00BF360CF10000283FD02DE9F041DB
:104840004C1EB4F5047F28D23BB332B34FF0000EB8
:10485000764675467446CF0003F1FF38610950F87B
:10486000211004F01F0C21FA0CF1BCF11F0F18BF2E
:1048700001F00101A4B1AB4218D08E4208BF0EF185
:10488000010EA84515D0314601350134BC4201D096
:104890000E46E3E70020BDE8F0810948BDE8F0815D
:1048A0004FF0010E0E4674467546D7E70125AE4619
:1048B000EBE77245F1D331461D46E6E70048704705
:1048C000370CF1002DE9F04F91B08346DDE91B462E
:1048D0000D46002E4DD1096906911C6000231A99DE
:1048E0000B60002A00F025819E4B6A6AD3F83811CC
:1048F000D3F830319A4248D10A2946D19BF8033087
:10490000089304F1080307930423069A0593964B32
:10491000944CA3FB02139B0803EB4303A2EB43035A
:1049200003931A9B069E1E60002E34D04FF00008A1
:104930004FF0010ADDF81C9000F0ACFC0023099355
:10494000BBF1000F00F0DF80002D00F0DC80089B41
:10495000EBB1284608A900F08DFC00283ED0834B1F
:10496000984218D1039000F095FC039811B0BDE86F
:10497000F08F4FF47F01D1F80C0C01300CBF4FF4D5
:104980000471D1F80C1C0691A7E77948EAE7794849
:10499000764B9842E6D0089B082B00F0C880002296
:1049A0005B000893294608AB58460092FFF772FE59
:1049B000704B984200F0B7800028D3D1DBF800207C
:1049C000130A03F47F03134323F07F43CBF8003033
:1049D000059B013B0593A4D10020C3E72946089815
:1049E00000F02AFC0028BAD1089B082B00F0958023
:1049F000042B00F09580A3F10203B3FA83F35B0963
:104A00000493C4F8C4A1C4F840A1C4F8C4A16B6A5B
:104A1000C4F83031D4F830219342F6D100234FF05E
:104A2000FF30C4F82C31FFF781FC002318466FF0EB
:104A30001B03C4F80031FFF787FC049B4A4FC4F8FE
:104A40000C31D4F8040A40F48060FFF77DFC0A239F
:104A5000C4F838312B6909A8A7FB03236A6A1B092C
:104A600002FB03F303EB4303DB039B09C4F8D831D8
:104A7000C4F82CA10899DBF800200B0222F07F4239
:104A800043EA01631343CBF8003000F0C5FB099BF8
:104A900003F01A0303437FF47EAFA7FB0637D4F875
:104AA0001431B8EB970F0A93D4F818310B93D4F85C
:104AB0001C310C93D4F820310D93D4F824310E938B
:104AC000D4F828310F9301D1039BF3B9484618223B
:104AD0000AA9183E09F11809FFF7B6FC08F1010808
:104AE000002E7FF429AF069BB3F5047F36D8079ECE
:104AF000194630466A691F46FFF774FE20B300234B
:104B00001A9A13602BE71C4829E748461A460AA957
:104B1000F61A9944FFF798FCE0E70323049370E743
:104B2000022304936DE72B6A002B3FF41BAF13485D
:104B300018E7012229465846009608ABFFF7AAFD60
:104B400000283FF4DEAE0DE74FF48063394630466F
:104B5000AA69FFF771FE0028D1D13DE71A9B1E60BC
:104B600019E700BF00108450ABAAAAAA020CF100FA
:104B7000300CF100310CF100350CF100320CF10079
:104B800010B4DDE9013401940024DDF80CC0CDE956
:104B900002C410BCFFF796BE30B51546012487B09D
:104BA00005AB00930022CDE9015404ABFFF78AFE68
:104BB00007B030BD2DE9F04188B00592002968D0DA
:104BC0001C46002B65D01546002A62D0DFF8C8804D
:104BD0000E46D8F800004FF0FF31FFF74FFC0028D9
:104BE0004CD10020FFF77AFC002843D12B4800F07D
:104BF0004BFAE8B101204FF0FF37FFF76FFC0028B8
:104C000034D14FF408712648FEF71EFF04212548D1
:104C1000FEF71AFF21482821FEF716FFD8F80000FA
:104C2000FFF734FC00282DD1384608B0BDE8F081EC
:104C30001B4B0246029307AB039000931749194898
:104C4000019405ABFFF79CFF0028D3D12368AB424A
:104C5000D0D3079907462A4630460831FFF7F4FBC0
:104C600001202560FFF73AFC0028CAD00E48FFF764
:104C70009DFCC6E70D48FFF799FCB7E70C48FFF726
:104C800095FCAEE70B48FFF791FC384608B0BDE84D
:104C9000F0814FF0FF37C7E7646700205C87002092
:104CA0003C850020388500206C5801004C580100DC
:104CB000345801001059010010B5044628B12046AF
:104CC000BDE81040F421FFF7C1BB0448FFF76EFCBC
:104CD0002046BDE81040F421FFF7B8BB2859010079
:104CE00010B1F421FEF7B0BE704700BF08B561B146
:104CF000012907D1022100F05BF8002818BF6FF0EE
:104D0000360008BD6FF0360008BD012100F050F8F4
:104D1000F3E700BF30B505468818B0F5801F0B4695
:104D20001446A1B001D8802A0CD9B3F5801F17D939
:104D300022461946284600F07DF8044684B92046EC
:104D400021B030BD6846FFF77FFB22466946284602
:104D500000F070F8802104466846FFF777FBEDE726
:104D60006FF03604EBE700BF70B5E8B10E46D9B17D
:104D7000044600F031F80546B0B92368012B0BD08A
:104D8000022B01D0284670BD1C22304604F10801D8
:104D9000FFF75AFB284670BD2022304604F1080177
:104DA000FFF752FB284670BD6FF03605EAE700BFFB
:104DB00078B138B50D46F0210446FFF747FB402394
:104DC00020462560E36500F0A5FA003818BF0120F1
:104DD00038BD0120704700BFF0B5056EA5B0044690
:104DE00004AEE5B9002301270193304667602946E8
:104DF00002AA009300F05AFA10B1012025B0F0BDCC
:104E00002A46204602A900F0AFFA0028F5D1204634
:104E100000F0C0FB0028F0D1206625B0F0BD802D49
:104E20002A46304628BF802204F16401FFF70CFBBC
:104E3000256ED7E7002800F0DC802DE9F04F1746FB
:104E4000A5B0002A00F0AB800C46002961D0B2F575
:104E5000803F0546C0F0ED804FF6FF7AA2F57F4710
:104E6000006EFF3F05F1640B01EB0A09EA6DA9F53D
:104E70007F46141AB4FBF2F302FB1344FF3E002CEE
:104E800061D182424FF6FF746ED0B4FBF2F802FBA0
:104E900008F8B8F1000F40D154B9A7F57F43B7F532
:104EA000803F4C46A3F1FF03D14414D31F46DDE7F6
:104EB00019302246314605EB8000FFF7C5FA286E0F
:104EC000A7F57F432044B7F5803F4C462866D14480
:104ED000A3F1FF03EAD2EA6D161AB6FBF2F302FB66
:104EE0001366BE4228BF3E46002E74D1904200F0A9
:104EF0008280B7FBF2F602FB06F6002E5CD00023A0
:104F000031462046CDE9003302AA00F0CFF900284F
:104F100049D0012025B0BDE8F08F0023414630463E
:104F2000CDE9003302AA00F0C1F90028F1D14246D0
:104F3000284602A900F018FA0028EAD1286E464453
:104F4000A4EB0804A8E7544528BF5446314622463E
:104F50005844FFF779FA286EEA6D204482422644CD
:104F60002866AAEB040490D1802A28BF80225946E3
:104F700004A8FFF769FA0023E96D02AACDE900331E
:104F800004A800F093F90028C3D12846EA6D02A9CD
:104F900000F0EAF90028BCD1EA6D286675E73846CA
:104FA00025B0BDE8F08F3246284602A900F0DCF9B2
:104FB0000028AED13444BF1B002FF0D02B6E3A46F0
:104FC000193305EB83002146FFF73EFA2B6E0020D4
:104FD0003B442B669EE705F16403214632461844A4
:104FE000FFF732FA286EEA6D3044BF1B344428665E
:104FF0007CE701207047802A28BF802205F16401E8
:1050000004A8FFF721FA0023E96D04A8CDE90033D5
:1050100002AA00F04BF900287FF47BAF2846EA6D26
:1050200002A900F0A1F900287FF473AFEA6D2866A9
:105030005FE7006E4FE700BFF8B51C460546114814
:1050400016460F46FFF738FE21460E48FFF74EFE84
:10505000044620B10B48FFF743FE2046F8BD3A4610
:1050600029460848FFF756FE04460028F2D131468B
:105070000448FFF779FE04460248FFF731FE204658
:10508000F8BD00BF848700201C2330B583B001A980
:105090000446019300F036F8054638B9019B1C2BF5
:1050A00007D0164D1C212046FFF7D0F9284603B043
:1050B00030BD0121D4E90032003B18BF0123E1617A
:1050C0000AB143F00203A26832B9E26842B9C4E906
:1050D00008328BB90A4DE5E7E26843F004033AB1C0
:1050E0000022284643F00803C4E9083203B030BD6B
:1050F0001546C4E90832D9E71546D7E7370CF00062
:105100000E0CF0000346002866D0002964D00A681F
:105110001C2A61D14FF47F023B49D2F8100C88421F
:105120005CD0D2F8101C013158D0D2F8101C4FF4CA
:105130007F021960D2F8140C3449884260D0D2F84A
:10514000141C01315CD0D2F8141C4FF47F0259605A
:10515000D2F8181C11F5947F4FD0D2F8181C0131E9
:105160004BD0D2F8181C4FF47F029960D2F81C0C77
:10517000274988423ED0D2F81C1C01313AD0D2F8DF
:105180001C1C4FF47F02D960D2F8001C70312FD064
:10519000D2F8001C01312BD0D2F8001C4FF47F0252
:1051A0001961D2F8041CAF3120D0D2F8041C0131AF
:1051B0001CD0D2F8041C4FF47F025961D2F8080CBD
:1051C000144988420DD0D2F8081C013109D0D2F818
:1051D000082C00209A6170470120704740F6FC01BE
:1051E000A5E740F2373200209A6170475121E2E78B
:1051F0009021D3E742F60411C3E740F6D861B2E745
:1052000042F2D001A1E700BFFCF8FFFFD020FFFF72
:105210000429FFFF37F3FFFF014608B54FF4806014
:10522000FFF79EF80022034BC3F8C821C3F82C21D6
:1052300008BD00BF001084500138072805D8DFE8FA
:1052400000F0120E040A0404040609487047CB68F3
:1052500000204B6270478B6800204B6270474B68A0
:1052600000204B6270470B6800204B62704700BF04
:10527000310CF1000B6802E0082B0B6006D8026AC3
:1052800013424FEA4303F7D00020704700487047AD
:10529000310CF1000022044B4FF48060C3F82C2144
:1052A000C3F8C421FFF742B800108450F0B50024C1
:1052B00083B0B0F1005F8DF8074025D38C4684445D
:1052C000BCF1804F04461FD817461D4601220DF140
:1052D000070300F099F90646B0B99DF80730099A1E
:1052E0003C603B7192B14DB10246089928460DF1E0
:1052F000070300F089F938B99DF807303046099A5C
:105300001560137103B0F0BD4FF47506304603B05D
:10531000F0BD00BFE8B110B50468012C04D0022C28
:1053200010D044B10C4810BD20220C490830FFF7C2
:105330008BF8002010BD142209490830FFF784F8CB
:10534000204610BD202207490830FFF77DF80020D5
:1053500010BD4FF4730070470100F3006C59010059
:10536000385901004C5901002DE9F843002900F09B
:10537000F9800446002800F0F98003680F46904643
:10538000002B00F0C380013B012B00F2D7804FF0CF
:10539000FF3178484FF00209FFF770F8002840F01D
:1053A000BF800020FFF79AF80646002840F0C28030
:1053B000714AD2F81C39002BFBD16F4DD5F8203C37
:1053C000002BFBD14FF0FF30FEF7B0FFD5F8040AF9
:1053D00020F04000FEF7B8FF01230722C5F8183877
:1053E000C5F80029C5F8C437A36CC5F8CC37E36C01
:1053F000C5F8D037C5F8C09723685BB1013B012BD6
:1054000018D8636AC5F85C36236AC5F85836E3696C
:10541000C5F85436A269584BC3F850266269C3F8E0
:105420004C262269C3F84826E268C3F84426A268DD
:10543000C3F84026504AD2F81039002BFBD1B8F1FE
:10544000000F5FD063684020012B08BFC2F884368C
:105450003A68494BC3F8282CC3F82C8CFEF77AFF26
:105460000646454AD2F81039002BFBD1424AD2F801
:10547000203C002BFBD123685BB1013B012B18D8EA
:10548000D2F85C366362D2F858362362D2F85436CA
:10549000E361394BD3F85026A261D3F84C26626100
:1054A000D3F848262261D3F84426E260D3F8403688
:1054B000A36000230121304AD2F8CC07A064D2F8BF
:1054C000D007E064C2F8C417C2F88436C2F8C837FF
:1054D000D2F81039002BFBD1C2F81838002E3BD17E
:1054E000254BD3F8040A40F04000FEF72DFF0120C1
:1054F000FEF7F4FF60BB1F48FEF7C8FF10BB304645
:10550000BDE8F8830423C2F8C837AAE74FF0FF319B
:1055100018484FF00109FEF7B1FF00283FF441AFF2
:105520001648FFF743F80020FEF7D8FF064600288C
:105530003FF43EAF1248FFF739F839E7114E3046D5
:10554000BDE8F8831048FFF731F83046BDE8F8832E
:105550000E48FFF72BF8CEE7102104F10800FEF704
:1055600075FFBDE70A4E3046BDE8F8834FF4730679
:10557000C5E700BF60670020001084503458010068
:105580004C5801000100F3008C5801006C580100D8
:105590000300F300A0B3034670B4D0E90240D3E99E
:1055A000041226BA05BA0CBA10BAC3E90440D3E90A
:1055B0000612986A09BAC3E9026512BA996100BA7B
:1055C000D3E9084125BA0CBAC3E90725D3E90B1280
:1055D000C3E9094009BAD86B12BAD962D3E90D41BF
:1055E00025BAC3E90C250CBA00BAD3E9101209BADE
:1055F00012BAC3E90E40196400205A6470BC7047A7
:105600004FF47300704700BF00201870704700BF50
:10561000014B1B68184700BFC4670020024B18608D
:10562000024B002019607047C0670020C46700204B
:10563000054A0346106810B10344136070470348DD
:1056400003441360704700BF8888002000100020CA
:10565000FEE700BFF8B500BFF8BC08BC9E46704727
:10566000F8B500BFF8BC08BC9E4670470122FBF7A6
:10567000F5FE1FBD1FB527486946F7E71FB5264849
:105680006946F3E71FB525486946EFE71FB524488B
:105690006946EBE71FB523486946E7E71FB522488F
:1056A0006946E3E71FB521486946DFE71FB5204893
:1056B0006946DBE71FB51F486946D7E71FB51E4897
:1056C0006946D3E71FB51D486946CFE71FB51C489B
:1056D0006946CBE71FB51B486946C7E71FB51A489F
:1056E0006946C3E71FB519486946BFE71FB51848A3
:1056F0006946BBE71FB517486946B7E71FB51648A7
:105700006946B3E71FB515486946AFE71FB51448AA
:105710006946ABE7951401009B140100C914010010
:105720009115010019180100B5180100F5180100C4
:10573000691901009F1901001D1A0100631A010077
:10574000E11A01008D1B01009D1B0100C91B010016
:105750001D1C01004B1C0100211C0100751C0100D7
:105760009114010054464D5F43525950544F005418
:10577000464D5F53505F504C4154464F524D5F531E
:10578000595354454D5F52455345540054464D5F5F
:1057900053505F504C4154464F524D5F494F435414
:1057A0004C0054464D5F53505F504C4154464F524D
:1057B0004D5F4E565F434F554E544552000000001A
:1057C000651D01003D1D0100C91C0100BB1C01003D
:1057D000B40A010060690020B069002000C2010025
:1057E00000C20100FF7F0800007C01000080010072
:1057F00000800800FFFF0F00DEE61E284CBBCE8FA6
:10580000025B000000000000000200000004000035
:105810000008000000100000FF8FFFFFFF8FFFFF58
:10582000FE8FFFFFFE8FFFFFFD8FFFFFFC8FFFFF4F
:10583000FC8FFFFF4661696C20746F206163717596
:10584000697265206D757465780A00004661696C3F
:1058500020746F20696E63726561736520504D20FE
:10586000636F756E7465720A000000004661696CB2
:1058700020746F20646563726561736520504D20EC
:10588000636F756E7465720A000000004661696C92
:1058900020746F2072656C65617365206D75746529
:1058A000780A0000436F756C64206E6F74206C6F13
:1058B000636B20706F7765722073617665206D75FC
:1058C000746578006D757465785F667265652063D0
:1058D000616C6C65642077697468204E554C4C206F
:1058E000706172616D6574657200000043616E27BE
:1058F0007420696E697469616C697A65206D75746C
:1059000065782C20776173204E554C4C0D0A0000B1
:105910004661696C20746F20756E6C6F636B206DCF
:10592000757465780A0000000A6374782069732032
:105930004E554C4C0A0000000123456789ABCDEF62
:10594000FEDCBA9876543210F0E1D2C3D89E05C17D
:1059500007D57C3617DD703039590EF7310BC0FF93
:1059600011155868A78FF964A44FFABE67E6096A53
:1059700085AE67BB72F36E3C3AF54FA57F520E5170
:105980008C68059BABD9831F19CDE05B000000003C
:1059900090B7FF7F010000000090D003A009010034
:1059A000406800206069002090ED00E098670020CA
:1059B000A46700209C670020946700205C6700209B
:1059C00065450100714501007D45010000000000B2
:1059D000894501002885002011000000794601005A
:1059E000E14501000946010049460100B867002071
:1059F0007C670020B067002000000000A86700203E
:105A00002C850020110000003085002011000000CE
:105A10003485002011000000C1040100410501008F
:105A2000CC67002000000000000000000000000023
:105A30000000000000000000000000000000000066
:105A40000000000000000000000000000000000056
:105A50000000000000000000000000000000000046
:105A60000000000000000000000000000000000036
:105A70000000000000000000000000000000000026
:0C5A80000000000005110100E110010011
:107C00007FE97FE9F8F790BD7FE97FE9F8F79CBD50
:107C10007FE97FE9F8F7CABD7FE97FE9F8F7A4BDFE
:107C20007FE97FE9F8F7B0BD000000000000000028
:107C30000000000000000000000000000000000044
:10C2000068CB0120911D0200D13A0300651D020098
:10C21000651D0200651D0200651D0200651D02000E
:10C220000000000000000000000000003D180200B7
:10C23000651D020000000000DD170200651D020000
:10C24000C5180200C5180200C5180200C518020072
:10C25000C5180200C5180200C5180200C518020062
:10C26000C5180200C5180200C5180200C518020052
:10C27000C5180200C5180200C5180200C518020042
:10C28000C5180200C5180200C5180200C518020032
:10C29000C5180200C5180200C5180200C518020022
:10C2A000C5180200C5180200C5180200C518020012
:10C2B00021500300C5180200C5180200C51802006D
:10C2C000C5180200C5180200C5180200C5180200F2
:10C2D000C5180200C5180200C5180200C5180200E2
:10C2E000C5180200C5180200C5180200C5180200D2
:10C2F000C5180200C5180200C5180200C5180200C2
:10C30000C5180200C5180200C5180200C5180200B1
:10C31000C5180200C5180200C5180200C5180200A1
:10C32000C5180200C5180200C5180200C518020091
:10C33000C5180200C5180200C5180200C518020081
:10C34000C51802000000000000000000000000000E
:10C3500000000000000000000000000000000000DD
:10C3600000000000000000000000000000000000CD
:10C3700000000000000000000000000000000000BD
:10C3800000000000000000000000000000000000AD
:10C39000000000000000000000000000000000009D
:10C3A000000000000000000000000000000000008D
:10C3B000000000000000000000000000000000007D
:10C3C000000000000000000000000000000000006D
:10C3D000000000000000000000000000000000005D
:10C3E000000000000000000000000000000000004D
:10C3F000000000000000000000000000000000003D
:10C40000DEE61E284CBBCE8F025B00003C00000025
:10C41000C42102000100000000C2010000C20100AE
:10C42000FFFF02910000000000000000000000007B
:10C43000000000000000000000000000FFFFFFFF00
:10C440004FF0FF0C1CEAD0521EBF1CEAD15392EAF7
:10C450000C0F93EA0C0F6FD01A4480EA010C4002D3
:10C4600018BF5FEA41211ED04FF0006343EA50102D
:10C4700043EA5111A0FB01310CF00040B1F5000F6F
:10C480003EBF490041EAD3715B0040EA010062F11E
:10C490007F02FD2A1DD8B3F1004F40EBC25008BF08
:10C4A00020F00100704790F0000F0CF0004C08BF26
:10C4B00049024CEA502040EA51207F3AC2BFD2F1F3
:10C4C000FF0340EAC250704740F400004FF0000301
:10C4D000013A5DDC12F1190FDCBF00F0004070473B
:10C4E000C2F10002410021FA02F1C2F1200200FA79
:10C4F00002FC5FEA310040F1000053EA4C0308BF40
:10C5000020EADC70704792F0000F00F0004C02BF90
:10C51000400010F4000F013AF9D040EA0C0093F00B
:10C52000000F01F0004C02BF490011F4000F013B65
:10C53000F9D041EA0C018FE70CEAD15392EA0C0FD3
:10C5400018BF93EA0C0F0AD030F0004C18BF31F03E
:10C55000004CD8D180EA010000F00040704790F014
:10C56000000F17BF90F0004F084691F0000F91F0B8
:10C57000004F14D092EA0C0F01D142020FD193EA7E
:10C580000C0F03D14B0218BF084608D180EA010006
:10C5900000F0004040F0FE4040F40000704740F0E2
:10C5A000FE4040F44000704781F0004102E000BFCF
:10C5B00083F0004330B54FEA41044FEA430594EA63
:10C5C000050F08BF90EA020F1FBF54EA000C55EA9E
:10C5D000020C7FEA645C7FEA655C00F0E2804FEA6F
:10C5E0005454D4EB5555B8BF6D420CDD2C4480EA51
:10C5F000020281EA030382EA000083EA010180EA81
:10C60000020281EA0303362D88BF30BD11F0004FCE
:10C610004FEA01314FF4801C4CEA113102D0404204
:10C6200061EB410113F0004F4FEA03334CEA13333F
:10C6300002D0524263EB430394EA050F00F0A78057
:10C64000A4F10104D5F1200E0DDB02FA0EFC22FA52
:10C6500005F2801841F1000103FA0EF2801843FA46
:10C6600005F359410EE0A5F120050EF1200E012A37
:10C6700003FA0EFC28BF4CF0020C43FA05F3C01875
:10C6800051EBE37101F0004507D54FF0000EDCF1EE
:10C69000000C7EEB00006EEB0101B1F5801F1BD397
:10C6A000B1F5001F0CD349085FEA30004FEA3C0C9B
:10C6B00004F101044FEA445212F5800F80F09A8091
:10C6C000BCF1004F08BF5FEA500C50F1000041EB95
:10C6D000045141EA050130BD5FEA4C0C404141EB99
:10C6E0000101013C28BFB1F5801FE9D291F0000F94
:10C6F00004BF01460020B1FA81F308BF2033A3F143
:10C700000B03B3F120020CDA0C3208DD02F1140C39
:10C71000C2F10C0201FA0CF021FA02F10CE002F174
:10C720001402D8BFC2F1200C01FA02F120FA0CFC6D
:10C73000DCBF41EA0C019040E41AA2BF01EB0451B6
:10C74000294330BD6FEA04041F3C1CDA0C340EDCB4
:10C7500004F11404C4F1200220FA04F001FA02F3F7
:10C7600040EA030021FA04F345EA030130BDC4F1B5
:10C770000C04C4F1200220FA02F001FA04F340EAAA
:10C780000300294630BD21FA04F0294630BD94F05B
:10C79000000F83F4801306BF81F480110134013D42
:10C7A0004EE77FEA645C18BF7FEA655C29D094EAB3
:10C7B000050F08BF90EA020F05D054EA000C04BF31
:10C7C0001946104630BD91EA030F1EBF002100201C
:10C7D00030BD5FEA545C05D14000494128BF41F0BB
:10C7E000004130BD14F580043CBF01F5801130BD1F
:10C7F00001F0004545F0FE4141F470014FF00000AA
:10C8000030BD7FEA645C1ABF194610467FEA655C5A
:10C810001CBF0B46024650EA013406BF52EA0335FC
:10C8200091EA030F41F4002130BD00BF90F0000FEA
:10C8300004BF0021704730B54FF4806404F1320426
:10C840004FF000054FF0000150E700BF90F0000FDF
:10C8500004BF0021704730B54FF4806404F1320406
:10C8600010F0004548BF40424FF000013EE700BFD6
:10C8700042004FEAE2014FEA31014FEA02701FBF66
:10C8800012F07F4393F07F4F81F06051704732F098
:10C890007F4208BF704793F07F4F04BF41F40021EF
:10C8A000704730B54FF4607401F0004521F000414D
:10C8B0001CE700BF50EA010208BF704730B54FF0D7
:10C8C00000050AE050EA010208BF704730B511F0D8
:10C8D000004502D5404261EB41014FF4806404F110
:10C8E00032045FEA915C3FF4D8AE4FF003025FEA96
:10C8F000DC0C18BF03325FEADC0C18BF033202EB1A
:10C90000DC02C2F1200300FA03FC20FA02F001FA73
:10C9100003FE40EA0E0021FA02F11444BDE600BF16
:10C9200070B54FF0FF0C4CF4E06C1CEA11541DBFC5
:10C930001CEA135594EA0C0F95EA0C0F00F0DEF890
:10C940002C4481EA030621EA4C5123EA4C5350EA75
:10C95000013518BF52EA033541F4801143F48013C6
:10C9600038D0A0FB02CE4FF00005E1FB02E506F057
:10C970000042E0FB03E54FF00006E1FB03569CF0AC
:10C98000000F18BF4EF0010EA4F1FF04B6F5007FB2
:10C9900064F5407404D25FEA4E0E6D4146EB060624
:10C9A00042EAC62141EA55514FEAC52040EA5E50AD
:10C9B0004FEACE2EB4F1FD0C88BFBCF5E06F1ED857
:10C9C000BEF1004F08BF5FEA500E50F1000041EB8E
:10C9D000045170BD06F0004646EA010140EA02003B
:10C9E00081EA0301B4EB5C04C2BFD4EB0C0541EA5D
:10C9F000045170BD41F480114FF0000E013C00F372
:10CA0000AB8014F1360FDEBF002001F0004170BD95
:10CA1000C4F10004203C35DA0C341BDC04F11404AE
:10CA2000C4F1200500FA05F320FA04F001FA05F23A
:10CA300040EA020001F0004221F0004110EBD37007
:10CA400021FA04F642EB06015EEA430E08BF20EA33
:10CA5000D37070BDC4F10C04C4F1200500FA04F3D6
:10CA600020FA05F001FA04F240EA020001F0004168
:10CA700010EBD37041F100015EEA430E08BF20EADB
:10CA8000D37070BDC4F1200500FA05F24EEA020E23
:10CA900020FA04F301FA05F243EA020321FA04F052
:10CAA00001F0004121FA04F220EA020000EBD37009
:10CAB0005EEA430E08BF20EAD37070BD94F0000F09
:10CAC0000FD101F00046400041EB010111F4801F3D
:10CAD00008BF013CF7D041EA060195F0000F18BFEE
:10CAE000704703F00046520043EB030313F4801F2A
:10CAF00008BF013DF7D043EA0603704794EA0C0FE4
:10CB00000CEA135518BF95EA0C0F0CD050EA4106F9
:10CB100018BF52EA4306D1D181EA030101F0004176
:10CB20004FF0000070BD50EA410606BF104619469E
:10CB300052EA430619D094EA0C0F02D150EA0136AA
:10CB400013D195EA0C0F05D152EA03361CBF1046EB
:10CB500019460AD181EA030101F0004141F0FE418A
:10CB600041F470014FF0000070BD41F0FE4141F40E
:10CB7000780170BD70B54FF0FF0C4CF4E06C1CEA0E
:10CB800011541DBF1CEA135594EA0C0F95EA0C0FC3
:10CB900000F0A7F8A4EB050481EA030E52EA03357E
:10CBA0004FEA013100F088804FEA03334FF080559F
:10CBB00045EA131343EA12634FEA022245EA1115CC
:10CBC00045EA10654FEA00260EF000419D4208BF7D
:10CBD000964244F1FD0404F5407402D25B084FEA2A
:10CBE0003202B61A65EB03055B084FEA32024FF4D6
:10CBF00080104FF4002CB6EB020E75EB030E22BF33
:10CC0000B61A754640EA0C005B084FEA3202B6EBF2
:10CC1000020E75EB030E22BFB61A754640EA5C00A1
:10CC20005B084FEA3202B6EB020E75EB030E22BF31
:10CC3000B61A754640EA9C005B084FEA3202B6EB32
:10CC4000020E75EB030E22BFB61A754640EADC00F1
:10CC500055EA060E18D04FEA051545EA16754FEA53
:10CC600006164FEAC30343EA52734FEAC2025FEA71
:10CC70001C1CC0D111F4801F0BD141EA00014FF000
:10CC800000004FF0004CB6E711F4801F04BF0143D1
:10CC90000020B4F1FD0C88BFBCF5E06F3FF6AFAEED
:10CCA000B5EB030C04BFB6EB020C5FEA500C50F17D
:10CCB000000041EB045170BD0EF0004E4EEA113100
:10CCC00014EB5C04C2BFD4EB0C0541EA045170BD07
:10CCD00041F480114FF0000E013C90E645EA060E4B
:10CCE0008DE60CEA135594EA0C0F08BF95EA0C0F79
:10CCF0003FF43BAF94EA0C0F0AD150EA01347FF4C1
:10CD000034AF95EA0C0F7FF425AF104619462CE797
:10CD100095EA0C0F06D152EA03353FF4FDAE1046FA
:10CD2000194622E750EA410618BF52EA43067FF44B
:10CD3000C5AE50EA41047FF40DAF52EA43057FF4DB
:10CD4000EBAE12E74FF0FF3C06E000BF4FF0010CE6
:10CD500002E000BF4FF0010C4DF804CD4FEA410C4A
:10CD60007FEA6C5C4FEA430C18BF7FEA6C5C1BD017
:10CD700001B050EA410C0CBF52EA430C91EA030F98
:10CD800002BF90EA020F0020704710F1000F91EAF5
:10CD9000030F58BF994208BF90422CBFD8176FEAC3
:10CDA000E37040F0010070474FEA410C7FEA6C5C91
:10CDB00002D150EA013C07D14FEA430C7FEA6C5C98
:10CDC000D6D152EA033CD3D05DF8040B704700BFC4
:10CDD0008446104662468C461946634600E000BF12
:10CDE00001B5FFF7B7FF002848BF10F1000F01BDE4
:10CDF0004DF808EDFFF7F4FF0CBF012000205DF8AF
:10CE000008FB00BF4DF808EDFFF7EAFF34BF012033
:10CE100000205DF808FB00BF4DF808EDFFF7E0FFCC
:10CE200094BF012000205DF808FB00BF4DF808ED1D
:10CE3000FFF7CEFF94BF012000205DF808FB00BF84
:10CE40004DF808EDFFF7C4FF34BF012000205DF866
:10CE500008FB00BF4FEA410C7FEA6C5C02D150EA4C
:10CE6000013C0AD14FEA430C7FEA6C5C02D152EAE2
:10CE7000033C02D14FF0000070474FF001007047B3
:10CE80004FEA410212F5001215D211D56FF47873F2
:10CE9000B3EB625212D94FEAC12343F0004343EA95
:10CEA000505311F0004F23FA02F018BF4042704770
:10CEB0004FF00000704750EA013005D111F00040FA
:10CEC00008BF6FF0004070474FF00000704700BF90
:10CED0004FEA4102B2F1E04324BFB3F5001CDCF19C
:10CEE000FE5C0DD901F0004C4FEAC0024CEA5070D4
:10CEF000B2F1004F40EB830008BF20F00100704703
:10CF000011F0804F21D113F13872BCBF01F0004005
:10CF1000704741F480114FEA5252C2F11802C2F137
:10CF2000200C10FA0CF320FA02F018BF40F00100B8
:10CF30004FEAC1234FEAD32303FA0CFC40EA0C006A
:10CF400023FA02F34FEA4303CCE77FEA625307D1A7
:10CF500050EA01331EBF4FF0FE4040F440007047DE
:10CF600001F0004040F0FE4040F40000704700BF78
:10CF700080F0004002E000BF81F0004142001FBF8E
:10CF80005FEA410392EA030F7FEA226C7FEA236C97
:10CF90006AD04FEA1262D2EB1363C1BFD21841408C
:10CFA00048404140B8BF5B42192B88BF704710F022
:10CFB000004F40F4000020F07F4018BF404211F0C5
:10CFC000004F41F4000121F07F4118BF494292EA2D
:10CFD000030F3FD0A2F1010241FA03FC10EB0C0059
:10CFE000C3F1200301FA03F100F0004302D54942E6
:10CFF00060EB4000B0F5000F13D3B0F1807F06D393
:10D0000040084FEA310102F10102FE2A51D2B1F18A
:10D01000004F40EBC25008BF20F0010040EA03007F
:10D020007047490040EB0000013A28BFB0F5000FFF
:10D03000EDD2B0FA80FCACF1080CB2EB0C0200FAB5
:10D040000CF0AABF00EBC25052421843BCBFD04004
:10D050001843704792F0000F81F4000106BF80F47E
:10D0600000000132013BB5E74FEA41037FEA226C41
:10D0700018BF7FEA236C21D092EA030F04D092F00C
:10D08000000F08BF0846704790EA010F1CBF002040
:10D09000704712F07F4F04D1400028BF40F000409D
:10D0A000704712F100723CBF00F50000704700F0BD
:10D0B000004343F0FE4040F4000070477FEA2262E4
:10D0C00016BF08467FEA23630146420206BF5FEAB5
:10D0D000412390EA010F40F4800070474FF00003B5
:10D0E00004E000BF10F0004348BF40425FEA000C7C
:10D0F00008BF704743F0964301464FF000001CE024
:10D1000050EA010208BF70474FF000030AE000BF79
:10D1100050EA010208BF704711F0004302D54042B7
:10D1200061EB41015FEA010C02BF84460146002029
:10D1300043F0B64308BFA3F18053A3F50003BCFA44
:10D140008CF2083AA3EBC25310DB01FA02FC6344F1
:10D1500000FA02FCC2F12002BCF1004F20FA02F2F8
:10D1600043EB020008BF20F00100704702F12002EB
:10D1700001FA02FCC2F1200250EA4C0021FA02F24C
:10D1800043EB020008BF20EADC7070477BB972B93C
:10D190000029BEBF00204FF0004106E008BF002874
:10D1A0001CBF6FF000414FF0FF3000F075B8ADF1DB
:10D1B000080C6DE904CE002909DB002B1ADB00F016
:10D1C000A6F8DDF804E0DDE9022304B07047404230
:10D1D00061EB4101002B1BDB00F099F8DDF804E066
:10D1E000DDE9022304B0404261EB4101524263EBAE
:10D1F00043037047524263EB430300F088F8DDF8C5
:10D2000004E0DDE9022304B0404261EB41017047D4
:10D21000524263EB430300F07AF8DDF804E0DDE905
:10D22000022304B0524263EB4303704753B94AB937
:10D23000002908BF00281CBF4FF0FF314FF0FF301E
:10D2400000F02AB8ADF1080C6DE904CE00F05FF8EB
:10D25000DDF804E0DDE9022304B07047D0B5002218
:10D260000B4B06460F46FFF75BFB00F017F8044632
:10D27000FFF7DCFA0022074BFFF752FB02460B4692
:10D2800030463946FFF794F900F008F82146D0BD42
:10D290000000F03D0000F041704700BF4A0011D28D
:10D2A00012F5001211D20DD56FF47873B3EB625200
:10D2B0000ED44FEAC12343F0004343EA505323FA0C
:10D2C00002F070474FF00000704750EA013002D181
:10D2D0004FF0FF3070474FF00000704738B50546FB
:10D2E0000C460022002328462146FFF78BFD28B973
:10D2F00028462146BDE83840FFF7B0BF284604F174
:10D300000041FFF7ABFF404261EB410138BD2DE921
:10D31000F04F07468C460846099E15463C4619467E
:10D32000002B40F0C5808242B2FA82F746D94FB155
:10D33000C7F1200E00FA07F3BD4024FA0EFEBC40F0
:10D340004EEA030C4FEA15481FFA85FE220CBCFB7F
:10D35000F8F908FB19C309FB0EFA42EA03439A45A0
:10D3600028D9EB1809F1FF3004D29A4502D9A9F166
:10D3700002002B44A3EB0A03A4B2B3FBF8F208FBB0
:10D38000123302FB0EFE44EA0344A64514D92C19BD
:10D3900002F1FF3303D2A64501D9931E2C44A4EB1E
:10D3A0000E0443EA00401EB1FC4000233460736069
:10D3B000BDE8F08F4846DDE71346F0E702B9FFDE2F
:10D3C00087BB831A01214FEA154EAAB2200CB3FB8A
:10D3D000FEFC0EFB1C330CFB02F840EA03439845AD
:10D3E00062D9EB180CF1FF3004D2984502D9ACF1A8
:10D3F00002002B44A3EB0803A4B2B3FBFEFC0EFB1C
:10D400001C330CFB02F244EA0344A2424ED92C190D
:10D410000CF1FF3304D2A24202D9ACF102032C4436
:10D42000A41ABEE7C7F1200CBD4000FA07F320FAAA
:10D430000CF84FEA154E24FA0CFCBC404CEA0302EF
:10D44000ABB2B8FBFEFC110C0EFB1C800CFB03F90D
:10D4500041EA0040814523D928180CF1FF3104D25C
:10D46000814502D9ACF102012844A0EB090092B237
:10D47000B0FBFEFC0EFB1C000CFB03F842EA004371
:10D4800098450FD9EB180CF1FF3204D2984502D918
:10D49000ACF102022B44A3EB080342EA014192E7FC
:10D4A0006146E2E76246F6E76046A3E76346B7E710
:10D4B000834205D90EB1C6E900700021084677E71E
:10D4C000B3FA83F181B9834201D3BA420AD8BC1AB4
:10D4D00060EB030301209C46002E67D0C6E9004C98
:10D4E000002165E70846F7E7C1F1200C8B4002FAFE
:10D4F00001F522FA0CF420FA0CFB27FA0CF28F400B
:10D500001C4300FA01F34FEA144913431FFA84FE47
:10D510001A0CBBFBF9F809FB18BB08FB0EFA42EA30
:10D520000B4292453ED9A21808F1FF3004D2924531
:10D5300002D9A8F102002244A2EB0A029BB2B2FB7C
:10D54000F9F809FB182208FB0EFE43EA0242964551
:10D550002AD9A21808F1FF3304D2964502D9A8F1BE
:10D560000203224443EA0040A2EB0E02A0FB059313
:10D570009A42CE46984602D306D14F4504D201388E
:10D58000B9EB050E63EB040886B1B7EB0E0362EB53
:10D59000080707FA0CFCCB40CF404CEA0303C6E96E
:10D5A00000379DE74046C7E74346DBE73146FFE6E5
:10D5B00010F8012B11F8013B012A28BF9A42F7D03D
:10D5C000D01A7047034613F8012B002AFBD1181A12
:10D5D00001387047000000000128F8B50E4606D05B
:10D5E00016F0ACFA162303604FF0FF30F8BD19F0C7
:10D5F00083FB334A33687468A3FB0235B66802FBC9
:10D6000004559C194FEAD03343EA414345EBE67594
:10D61000A3FB0236C90BC0F30E0002FB0161A0FBA5
:10D620000202E41A4FEAD03343EA424365EB0105B4
:10D63000E41A65F1000520461FA3D3E9002329461B
:10D64000FFF7A4FD1CA3D3E9002307460E4620469E
:10D650002946FFF79BFD14464FF02003EFF3118599
:10D6600083F31288BFF36F8F164810F0B1FA40B9F8
:10D67000154916488E2215F0BEFF8E21124815F06E
:10D68000B3FF104810F0C0FA114B0E48C3E9007602
:10D690009C6010F0ABFA40B90B490C48B92215F068
:10D6A000AAFFB921084815F09FFF85F31188BFF341
:10D6B0006F8F00209AE700BF00CA9A3B000000006D
:10D6C00000CA9A3B186D0120C49303008A9303009B
:10D6D000E04E012000000000002370B586B0CDE9C7
:10D6E000043304230D4606460193002800F09E8073
:10D6F000002900F09B80062104A817F0C5FE04460F
:10D7000038B1024645214E4815F0AFFF204606B01D
:10D7100070BD014604AA304617F0B3FE044640B17E
:10D7200045210246474815F0A0FF04A817F0BFFEA8
:10D73000ECE7032101AB02AA04A817F0B1FF0446ED
:10D7400018B1024645214048EDE7019B06AA134463
:10D75000014603F8100C022202A813F0FBFF6A46F0
:10D760000121C6B204A817F066FF044618B10246AC
:10D7700045213648D7E7009B042B16D0052B07D050
:10D7800028705721324815F070FF6FF07F04CCE706
:10D7900009230F2E2B7029D96FF0150245212D4832
:10D7A00015F063FF6FF01504BFE707230F2E2B70F2
:10D7B000F2D8294B33F81600284EE0B1FFF746F8AF
:10D7C0001DA3D3E90023FFF7ABF8FFF781FB04218A
:10D7D00068600DEB010302AA04A8019117F060FF35
:10D7E000044650B1024645211D489CE71D4B33F8C5
:10D7F00016001D4EE1E71D48E9E7019B06AA134408
:10D800000146022203F8100C02A813F0A3FFC2B2D3
:10D810000F2A02D945211648C2E7501CC0B2FFF7B3
:10D8200061FC3146FEF70CFEA8607EE76FF0150440
:10D830006CE700BFAFF300807B14AE47E17A244071
:10D840001FAB03004DAB03007EAB0300AFAB030087
:10D85000D6AB030003AC0300388C03000AD7A33F08
:10D860002CAC0300588C03000AD723400AD7A340EE
:10D870005CAC0300000000002DE9F04306460C46B6
:10D8800093B009B9002024E008680028FAD08B681A
:10D890006268191D91420BD804229549184419F069
:10D8A00047FD28B90423F360A3680433A36087E02D
:10D8B000A3686268591D91420ED8206805228D49DF
:10D8C000184419F035FD38B90120A368F06005331C
:10D8D000A36013B0BDE8F083A3686268191D91428C
:10D8E0000DD8206804228449184419F021FD30B96C
:10D8F00002230120F360A36870610433E8E7D4E9F0
:10D9000001038342BED22168CA5CCF18222A06D105
:10D910002146304613B0BDE8F0430CF003B92D2A80
:10D9200003D0A2F13005092D5FD800220192002911
:10D93000A8D002A90D464FF02E0EC31A17F8010BFE
:10D94000392810D82A281BD9A0F12B0CBCF10E0FB6
:10D9500016D8DFE80CF00D150D37150D0D0D0D0D5A
:10D960000D0D0D0D0D0000F0DF0CBCF1450F07D1C2
:10D97000087001323F2A01F1010101D09A42DDD144
:10D9800012AB1A440023284602F8403C01A913F0C8
:10D990003DFD019F8046AF4289463FF473AF52A3DD
:10D9A000D3E90023C6E90689FFF740FA68B16FF0B2
:10D9B0000043736108237D1BA768F3603D44A560A5
:10D9C000012086E781F800E0D3E70022404649467F
:10D9D0004A4BFFF721FA10B14FF00043E9E7404608
:10D9E0004946FFF74DFA7061E4E75B2A53D1E268DC
:10D9F000B2F57A7FBFF446AF0132E260CA5C5B2ABF
:10DA00007FF440AF0133A360204618F0A1F8D4E9B9
:10DA10000123934263D22268D25C5D2A0CD1002597
:10DA20002F46E368013BE36007B17D602023C6E930
:10DA30000273A368013339E700252F46013BA36039
:10DA4000206918F0FFF8A8460546002800F09D80E0
:10DA5000FFB1C8F80000C0F80480A3682046013375
:10DA6000A36018F075F821462846FFF705FF002847
:10DA700000F08E80204618F06BF8D4E90123934221
:10DA800080F086802268D35C2C2BD9D05D2B7FD18F
:10DA9000C7E70746E1E77B2A7FF4F4AEE268B2F518
:10DAA0007A7FBFF4EFAE0132E260CA5C7B2A7FF47A
:10DAB000E9AE0133A360204618F04AF8D4E9012307
:10DAC00093420CD22268D25C7D2A19D100252F46C0
:10DAD000E368013BE36007B17D604023A7E7013BBA
:10DAE000A360CFE6AFF300800000C0FFFFFFDF417F
:10DAF00067C1030071D2030077D203000000E0C1C8
:10DB000000252F46A846013BA360206918F09AF82B
:10DB1000A9460546002838D0AFB3C9F80000C0F8C0
:10DB20000490A36820460133A36018F011F8214641
:10DB300028460BF0F7FF58B3204618F009F82B6978
:10DB4000C5F810802B62D4E90123934220D22268C9
:10DB5000D25C3A2A1CD101332046A36017F0F8FFAB
:10DB600021462846FFF788FE90B1204617F0F0FFC7
:10DB7000D4E9012393420BD22268D35C2C2BC4D06E
:10DB80007D2B05D1A4E70746CBE7002F3FF47AAE03
:10DB900038460CF061FC75E6174BD0B506461868A0
:10DBA0000F4618F04FF8044670B10823C0E9066725
:10DBB000C36039460EA3D3E900233046FFF736F998
:10DBC00020B16FF0004363612046D0BD0022304693
:10DBD00039460A4BFFF720F910B14FF00043F2E746
:10DBE00030463946FFF74CF96061EDE7AFF300804E
:10DBF0000000C0FFFFFFDF41A44501200000E0C19D
:10DC00002DE9F04F9B469FB0002382460E461592A9
:10DC10001A934FF000089C4B4FF000091F683846DC
:10DC2000FFF7D0FC04461996199B1A782B2A4CD082
:10DC30003AD80D2A33D8082A33D8002A3DD00023F9
:10DC40000A93199D2B78302B40F0A9806B7803F054
:10DC5000DF03582B66D10A9B19A98C4A50460193C1
:10DC60001AABCDF808B000931BAB14F017F810F006
:10DC70000706044605D0062E29D101350023199543
:10DC80000A93159B002B40F086850A9BD3B1424630
:10DC900009F10043104619461FB0BDE8F08F202A55
:10DCA000CDD101331993BFE72D2AC8D101220A92A1
:10DCB0005A1C19925B78002BC3D1159B1996002B27
:10DCC00040F0678542464B46E4E70022EFE71A9AA8
:10DCD0003AB135211CA819F0B1FE1A99504614F03A
:10DCE000B9FA013E042E06D8DFE806F00A0314173D
:10DCF0000A00DDE91C892107C3D549F00049C0E7C6
:10DD0000DDE91C831B9A23F4801302F2334243EAB9
:10DD10000259F0E7DFF87891EDE76FF000494FF036
:10DD2000FF38E8E7199B5A1C19925B78302BF9D021
:10DD3000002BA6D0012307930A22199B08930023E6
:10DD40009B46CDE9053319980578A5F13003D9B282
:10DD5000092926D92246394619F0EAFA002832D094
:10DD600000202A465C4603460490652A01D0452AD5
:10DD700013D11CB9079A02439FD00024199E721C2C
:10DD8000199272782B2A77D02D2A7AD00027A2F107
:10DD90003001092940F28280199600259EE0002377
:10DDA000C9E7BBF1080F00F101000BF1010BD5BF72
:10DDB0000699059902FB013302FB0133D4BF069398
:10DDC00005931990BFE7199B1A1919921A5DBBF1B7
:10DDD000000F35D05C460490A2F13003092B12D914
:10DDE0000123C2E7199B01305A1C19925A78302A34
:10DDF000F8D0A2F13103082B00F2D2840490002065
:10DE0000199B04460893303A00F1010312D004999B
:10DE100005191944234604910A21AB4212D1231853
:10DE20000134082B04441BDC06990A2303FB01235D
:10DE300006930023199A1846511C19915278CBE782
:10DE40005846D4E7082B04DC069F4F43069701335E
:10DE5000E3E75F1C102FDEBF059F4F430597F6E7F2
:10DE6000102CDFBF0A23059903FB01230593E0E78C
:10DE70000023049301237DE70027B21C1992B27896
:10DE800085E70127F9E700BF208C0300988B03008A
:10DE90000000F07F199A511C19915278302AF9D05C
:10DEA000A2F1310108293FF678AFA2F1300C4FF012
:10DEB0000A0E199A0992199A511C19915278A2F1D5
:10DEC0003005092D35D9099D491B44F61F650829E0
:10DED00002DC6545A8BF654607B16D42002C4CD1F8
:10DEE000079901437FF4CDAE002B7FF4E6AE692A9B
:10DEF00026D023DC492A23D04E2A7FF4DEAE9E4969
:10DF000019A819F004FC00283FF4D7AE199B1B7820
:10DF1000282B2CD11CAA994919A819F00CFC05280A
:10DF200025D11D9BDDF8708043F0FF4949F4E009DD
:10DF3000A7E60EFB0C2CACF1300CBCE76E2ADCE73C
:10DF40008F4919A819F0E3FB00283FF4B6AE199BDE
:10DF500019A88C49013B199319F0D9FB10B9199BE9
:10DF600001331993DFF820924FF0000889E68748C3
:10DF700015F0ECF88046894683E6049BBBF1000F60
:10DF800008BFA346102C0698A5EB03032646A8BF9E
:10DF900010260793FEF74AFC092C8046894613DDBC
:10DFA0007B4B03EBC60353E91223FEF7B9FC804613
:10DFB00089460598FEF73AFC02460B46404649461C
:10DFC000FEF7F8FA804689460F2C36DC079B002BBB
:10DFD0003FF457AE22DD162B09DC6D49424601EBBA
:10DFE000C3014B46D1E90001FEF79AFCC2E7C4F138
:10DFF0002503079A934220DBC4F10F04644D424687
:10E000004B4605EBC401D1E90001FEF789FC079BF3
:10E010001C1B05EBC405D5E90023E5E7079B163378
:10E020000BDB049B404649465D1B594B03EBC50582
:10E03000D5E90023FEF79EFD9CE7A61B079B1E4427
:10E04000002E74DD16F00F030AD05149424601EB51
:10E05000C3014B46D1E90001FEF762FC80468946C8
:10E0600036F00F0652D0B6F59A7F27DD4FF0000B41
:10E07000CDF810B0CDF820B0CDF818B02223DFF8DD
:10E0800008914FF00008CAF80030089B002B3FF4BD
:10E09000F8AD1A99504614F0DDF80699504614F080
:10E0A000D9F80499504614F0D5F80899504614F060
:10E0B000D1F85946504614F0CDF8E2E5354B36110B
:10E0C00040464946059300231F46012E21DC0BB133
:10E0D000804689462F4BA9F15479424603EBC70786
:10E0E0004B46D7E90001FEF71BFC274B0A4680464A
:10E0F0000B4029498B42B9D8A1F580118B4286BFCC
:10E10000DFF898904FF0FF3802F15479002305931F
:10E1100080E0F20705D5059BD3E90023FEF700FC5C
:10E120000123059A0137761008320592CDE7EDD02C
:10E13000764216F00F020AD0154B4046494603EBD3
:10E14000C203D3E90023FEF715FD80468946361148
:10E15000DCD01F2E24DD4FF0000BCDF810B0CDF831
:10E1600020B0CDF818B022234FF000084FF000097E
:10E17000CAF8003089E700BF2CD80300AC8B03003D
:10E1800024D8030054D803000000F07FB1A103009D
:10E19000E8820300C08203000000A07CFFFFEF7F45
:10E1A00016F0100340464946B04F18BF6A23059346
:10E1B0000023F20704D5D7E90023FEF7B1FB0123C2
:10E1C000761007F10807F4D10BB180468946059B0C
:10E1D000C3B1C9F30A524946C2F16B03002B11DDEA
:10E1E0001F2B40F32381342B4FF00008DBBFC2F11B
:10E1F0004B024FF0FF334FF05C7903FA02F2D8BFC5
:10E2000002EA01090022002340464946FEF7F0FDDC
:10E210000028A0D1069B5A460899504600932346F1
:10E2200014F082F8089000283FF420AF049B4FF0D0
:10E23000000B5D1B079BCDF810B0002BB4BF2B4625
:10E2400000230E93079B23EAE3731493089B504625
:10E25000596813F0BFFF069000283FF40FAF089BEA
:10E260000C301A6903F10C010232920018F09BFE87
:10E270001CAB4246504601931BAB00934B46CDE985
:10E280000C8914F027FB1A9000283FF4F7AE012107
:10E29000504614F093F80346049000283FF4EEAE85
:10E2A0001B9D1C9A002DA9BF0E9B149BEE18149C5D
:10E2B000B8BF5C1B059BB8BF0E9EED1A6C4B154496
:10E2C000C2F13602013D9D4280F2C2805B1B0127F4
:10E2D0001F2BA2EB030200F3B08007FA03F3002523
:10E2E0000F93B718059B1444BE421C443346A8BF85
:10E2F0003B46A342A8BF2346002BC2BFFF1AE41A25
:10E30000F61A0E9B002B17DD1A460499504614F09E
:10E3100013F9049000283FF4B1AE01461A9A504612
:10E3200014F062F8099000283FF4A8AE1A995046FC
:10E3300013F090FF099B1A93002F00F38D80079B29
:10E34000002B08DD149A5046069914F0F5F8069053
:10E3500000283FF493AE002C08DD22460699504673
:10E3600014F044F9069000283FF488AE002E08DD32
:10E3700032460499504614F039F9049000283FF4CD
:10E380007DAE069A50461A9914F0A0F983460028EB
:10E390003FF474AE0024C3680499C4600B9319F071
:10E3A00004FBA0426ADA0B9B53EA080340F090801A
:10E3B000C9F31303002B40F08B8029F000431B0DA1
:10E3C0001B05B3F1D66F40F28380DBF814301BB924
:10E3D000DBF81030012B7BDD59460122504614F04A
:10E3E00005F90499834619F0E0FA002870DD0599D3
:10E3F0004B46204A002900F08B8002EA0901B1F166
:10E40000D66F00F38580B1F15C7F7FF7ACAE1A4B1D
:10E41000404649460022FEF783FA0B46804689466D
:10E42000034304BF2223CAF8003032E64FF0FF3224
:10E4300002FA03F303EA0808E4E6C5F17F450F9703
:10E4400005F57F0505F57B45E23507FA05F548E753
:10E45000012300250F9344E73A461A99504614F0D9
:10E46000C5F81A9000287FF46AAF07E69882030087
:10E4700002FCFFFF0000F07F00005039CDF824902F
:10E4800065D10B9AC9F313035AB3994A93422BD11E
:10E49000059B414603B34A46964B13404FF0FF326B
:10E4A000B3F1D46F1BD81B0DC3F16B0302FA03F356
:10E4B000994219D1904B099A9A4202D101313FF405
:10E4C000DDAD8C4B4FF00008099A1A4002F5801917
:10E4D000059B002B9BD1DCE54FF0FF33E8E71346AB
:10E4E000E6E753EA080382D0E5B1099B1D42EFD06D
:10E4F0000B9B4046059A4946C3B118F076FF024689
:10E500000B46DDE90C01FEF755F880468946DFE74A
:10E5100013404FF0FF38A3F580136FEA13596FEAE9
:10E520000959D5E70F9B13EA080FE0E718F05DFFE4
:10E5300002460B46DDE90C01FEF73AF80022002303
:10E5400080468946FEF754FC0028C1D00BE60499AA
:10E55000584619F045FA00224FF0804306460F4610
:10E56000FEF75AFC002870D00B9B002B42D00026EF
:10E57000624F624D099B23F000431B0D1B050F9357
:10E580000F9A5F4B9A4240F0C380099B4046A3F12B
:10E590005479494614F028F902460B46304639466C
:10E5A000FEF7BEF942464B46FEF704F80B465149CA
:10E5B0008046544A194091425DD90D9A4E4B9A4279
:10E5C00003D10C9B01333FF459ADDFF82C914FF090
:10E5D000FF381A99504613F03DFE0699504613F045
:10E5E00039FE0499504613F035FE5946504613F053
:10E5F00031FE2BE6B8F1000F19D1099BC3F31303C9
:10E60000E3B900223D4B30463946FEF7FBFBC8B963
:10E6100000223D4B30463946FEF782F904460D464E
:10E6200005F1004316941793DDE91667A2E7B8F1E8
:10E63000010F03D1099B002B3FF495AD0026334F0A
:10E64000002496E70B9C304DEAE72F4B0022304622
:10E650003946FEF765F90B9B04460D4633B901F1C7
:10E66000004310901193DDE9106783E702460B46E3
:10E67000CDE91023F7E703F15479059B002BA8D1CE
:10E6800029F000430F9A1B0D1B059A42A1D1204689
:10E690002946FEF723FEFEF715F902460B462046F3
:10E6A0002946FDF785FFC9F313030B9A044643EA95
:10E6B00008030D46134366D009A3D3E90023FEF7F0
:10E6C000A1FB00287FF4E5AC2046294606A3D3E948
:10E6D0000023FEF7B5FB00283FF47BAFD9E400BF71
:10E6E0009535A094FFFFDF3F35E5AF350000E03FF3
:10E6F000FFFF0F000000F07FFFFFEF7F0000F03F03
:10E700000000E07FFFFF9F7C0000E03F0000F0BFC3
:10E71000059B13B30F9BB3F1D46F1ED82046294637
:10E7200025A3D3E90023FEF777FB90B129462046C5
:10E73000FEF7B4FD012838BF0120FEF777F80B9BE8
:10E7400004460D46D3B901F1004312901393DDE95D
:10E75000126707F1D6630F9A9F1ADDE90C0114F0D6
:10E7600043F802460B4630463946FEF7D9F8DDE954
:10E770000C23FDF71FFF804689467EE702460B46C5
:10E78000CDE91223E3E70EA3D3E90023FEF73AFB1A
:10E79000A1E700230A93199B159A1360FFF775BA36
:10E7A000652A3FF465AB452A3FF462AB0123FFF7CE
:10E7B00097BB00BFAFF300800000C0FFFFFFDF4149
:10E7C0009535A094FFFFCF3F2DE9F04F164699B045
:10E7D0001F46446A0546DDF89480CDE9046774B9A4
:10E7E000102012F051F80246686220B9A84BEA21C5
:10E7F000A84811F06DFFC0E901440460C4606B6A71
:10E80000196851B15A680123284693404A608B60C9
:10E8100013F020FD6B6A00221A603B1EB7BF23F085
:10E820000043002301220593A8BFC8F80030DDF89B
:10E830001490994BB8BFC8F8002033EA090319D1E6
:10E8400042F20F73249A1360C9F31303334300F0A9
:10E850007E85269B53B9914B22E0914B039308335D
:10E86000269A1360039819B0BDE8F08F8B4B039381
:10E870000333F5E7DDE904340022CDE90C34DDE9AA
:10E880000C010023FEF7B4FA804658B10123249A04
:10E890001360269B002B00F0578582481860431EAA
:10E8A0000393DFE716ABC9F30A542846019317AB6D
:10E8B0000093DDE90C2314F00DF88346002C7CD086
:10E8C0000D9BA4F2FF34CDF84C80C3F31303DDE9B4
:10E8D0000C0143F07F5141F440110022724BFDF7CF
:10E8E00067FE65A3D3E90023FEF71AF864A3D3E912
:10E8F0000023FDF75FFE06460F462046FDF7A6FF04
:10E9000061A3D3E90023FEF70BF802460B4630461D
:10E910003946FDF74FFE06460F46FEF7B1FA0022D4
:10E920008246002330463946FEF76CFA48B150461D
:10E93000FDF78CFF32463B46FEF75AFA08B90AF15A
:10E94000FF3ABAF1160F56D8584B03EBCA03DDE96C
:10E950000C01D3E90023FEF755FA00284DD00AF147
:10E96000FF3A00230F93169B1C1B631E099349BF9C
:10E97000C4F1010300230693002354BF06930993B7
:10E98000BAF1000F3BDB099BCDF838A05344099343
:10E9900000230A93229B092B00F28C80052BC5BF14
:10E9A000043B002401242293229B023B032B00F210
:10E9B0008D80DFE803F02E504E5CDDE916431C44E9
:10E9C00004F23243202BC6BFC3F1400304F21240CD
:10E9D000C3F1200304F1FF34C5BF09FA03F326FA9B
:10E9E00000F006FA03F01843FDF720FF0123A1F120
:10E9F000F871139371E70123B4E70F90B3E7069B17
:10EA0000A3EB0A030693CAF100030A9300230E93B3
:10EA1000C0E700230B93239B002B5ADC4FF0010926
:10EA20004B46CDF82090CDF88C900022686A426069
:10EA3000042202F1140641689E4250D9284613F080
:10EA4000C9FB039000284ED1194B02464FF4D571F3
:10EA5000CEE60123DEE700230B93239B0AEB030999
:10EA600009F10103012B0893B8BF0123DDE701235E
:10EA7000F2E700BFAFF3008061436F63A787D23F27
:10EA8000B3C8608B288AC63FFB799F501344D33F9D
:10EA90005ED8030075D803000000F07F5AD8030049
:10EAA00051D80300B5AA03000000F83FE882030034
:10EAB000E9D80300012400230B9422934FF0FF397F
:10EAC00000221223CDF820902392AEE701230B936E
:10EAD000F4E7DDF88C904B46CDF82090A5E70131A6
:10EAE00052004160A5E76B6A039A1A60089B0E2BDF
:10EAF00000F2A880002C00F0A580BAF1000F34DDF0
:10EB00000AF00F03994A1AF4807F02EBC303D3E99A
:10EB10000034CDE910344FEA2A1416D0944B04F097
:10EB20000F040327D3E90823DDE90C01FEF722F8DF
:10EB3000CDE904018E4E54B9DDE91023DDE904016D
:10EB4000FEF718F8CDE9040129E00227F2E7E10712
:10EB500008D50137DDE91001D6E90023FDF7E0FE15
:10EB6000CDE9100164100836E5E700F0A580CAF190
:10EB700000047E4B7E4E022704F00F02241103EBAB
:10EB8000C203DDE90C01D3E90023FDF7C9FE002330
:10EB9000CDE90401002C40F08480002BD2D10F9BE2
:10EBA000002B00F08B800022DDE90434CDE9103425
:10EBB000DDE910016F4BFEF725F900287ED0089B98
:10EBC000002B7BD0B9F1000F38DD0AF1FF38013797
:10EBD0004C460022684BDDE91001FDF7A1FECDE9AE
:10EBE00004013846FDF732FEDDE90423FDF798FE07
:10EBF0000022624BFDF7DEFCA1F15076CDE9100159
:10EC00001196002C5DD100225D4BDDE90401FDF77A
:10EC1000CFFC02460B46CDE90423109A3346FEF79B
:10EC20000FF9002840F09B82109A06F10043DDE9BD
:10EC30000401FEF7E7F8002840F08F82DDE90C348C
:10EC4000CDE90434179B002BC0F25181BAF10E0FAD
:10EC500000F34D81454B03EBCA03D3E90034CDE902
:10EC60000634239B002B80F2DA80089B002B00F3F4
:10EC7000D68040F071820022414BDDE90601FDF7AC
:10EC80004FFEDDE90423FEF7D1F8089C2646002854
:10EC900040F04782039F31230AF1010A07F8013B44
:10ECA00043E2E20705D50137D6E90023FDF738FE38
:10ECB0000123641008366DE7022770E7D046089CF0
:10ECC0008FE70399294B214403EBC40312910B995D
:10ECD000DDE9106753E90223002955D000202949B6
:10ECE000FDF748FF3B463246FDF762FC039FCDE946
:10ECF0001001DDE90401FEF7C3F80446FDF7A6FDA7
:10ED000002460B463034DDE90401FDF751FC0246B2
:10ED10000B4607F8014BCDE90423DDE91023FEF78C
:10ED200071F8002873D100201249DDE90423FDF7B2
:10ED30003FFCDDE91023FEF765F8002840F0B680BF
:10ED4000129B9F423FF47AAF00220B4BDDE910018A
:10ED5000FDF7E6FD0022084BCDE91001DDE90401D5
:10ED6000FDF7DEFDCDE90401C3E700BFE882030043
:10ED7000C08203000000F03F0000244000001C405F
:10ED8000000014400000E03F30463946FDF7C8FD62
:10ED9000129B039C1493CDE91001DDE90401FEF7F9
:10EDA0006FF81590FDF752FD02460B46DDE90401B0
:10EDB000FDF7FEFB159B06460F463033002204F894
:10EDC000013B129B9C4224D1A44BDDE91001FDF7CD
:10EDD000F1FB02460B4630463946FEF731F8002873
:10EDE00063D100209D49DDE91023FDF7E1FB0246D8
:10EDF0000B4630463946FEF705F800283FF41EAFB3
:10EE0000149F7B1E149317F8013C302BF8D0C24698
:10EE10003BE0934BFDF784FDCDE90401BDE7DDE95F
:10EE20000489039F40464946DDE90623FDF7A2FE1B
:10EE3000FEF726F80446FDF709FD04F13006DDE98A
:10EE40000623FDF76DFD02460B4640464946FDF799
:10EE5000AFFB07F8016B039E0246DDF820C00B46AE
:10EE6000BE1BB44536D1FDF7A5FB80468946DDE9DA
:10EE70000623FDF7E5FF58BB40464946DDE906237A
:10EE8000FDF7B6FF08B1E10722D42846594613F032
:10EE9000E1F900230AF101003B70249B1860269BD6
:10EEA000002B3FF4DFAC1F60DCE427463B461F46E7
:10EEB00013F8012D392A07D1039A9A42F7D130224B
:10EEC000039908F101080A701A7801321A709EE756
:10EED000D046EBE70022624BFDF722FD0022002323
:10EEE00080468946FDF784FF00289BD0CDE70B9A2A
:10EEF000002A00F0D080229A012A00F3B380139AEE
:10EF0000002A00F0A68003F233430A9C069F069A6B
:10EF1000012128461A440692099A1A44099213F0CC
:10EF20004DFA0646002F0CDD099B002B09DDBB4284
:10EF3000069AA8BF3B46D21AFF1A0692099AD31A1C
:10EF400009930A9BF3B10B9B002B00F0A880002CC7
:10EF500010DD31462246284613F0EEFA5A460146A5
:10EF60000646284613F040FA804659462846C346CE
:10EF700013F070F90A9B1A1B04D05946284613F067
:10EF8000DBFA83460121284613F018FA0E9B04464B
:10EF9000002B40F386801A460146284613F0CCFA2F
:10EFA000229B0446012B7FDD4FF00008236904EB10
:10EFB0008303186918F0ACFCC0F12000099B1844C9
:10EFC00010F01F0000F09280C0F12003042B40F3EA
:10EFD0008A80C0F11C00069B074403440693099BEA
:10EFE00003440993069B002B05DD59461A46284623
:10EFF00013F0FCFA8346099B002B05DD21461A46D7
:10F00000284613F0F3FA04460F9B002B70D02146DC
:10F01000584618F0CAFC00286ADA002359460A222A
:10F02000284613F039F90B9B0AF1FF3A8346002B6F
:10F0300000F09481314600230A22284613F02CF96F
:10F04000B9F1000F064600F39380229B022B57DC98
:10F050008EE0169BC3F1360357E700BF0000E03F88
:10F0600000002440089B5C1E0A9BA342B7BF0A9B7A
:10F070001C1B0A94E21ABFBF0E9B00249B180E9320
:10F08000089B002BBBBF069B089A069F9F1AACBF2C
:10F09000089B00233BE70A9C069F0B9E42E70A9AC7
:10F0A0006BE7229B012B19DC049BBBB9059BC3F3C7
:10F0B00013039BB9059B23F000431B0D1B0583B174
:10F0C000069B4FF0010801330693099B0133099316
:10F0D0000E9B002B7FF46AAF01206FE74FF0000812
:10F0E000F6E79846F4E73FF47DAF18461C3072E728
:10F0F000089B002B36DC229B022B33DDDDF82090B1
:10F10000B9F1000F0DD121464B460522284613F0D8
:10F11000C3F801460446584618F047FC00283FF75C
:10F12000B9AD239B039F6FEA030A4FF00008214605
:10F13000284613F08FF8002E3FF4A7AEB8F1000F69
:10F1400005D0B04503D04146284613F083F8314638
:10F15000284613F07FF898E600242646E1E7C246E9
:10F16000264697E50B9BDDF82090002B00F0FD80F4
:10F17000002F05DD31463A46284613F037FA064699
:10F18000B8F1000F5CD07168284613F023F80746E9
:10F1900028B9804B024640F2EA21FFF729BB3269C9
:10F1A00006F10C010C300232920017F0FCFE012235
:10F1B0003946284613F01AFA039BB0460646013337
:10F1C0000893039B4B440A93049B03F001030993A8
:10F1D000089B21465846013B049318F05DF903460D
:10F1E00041460690584630330B9318F0DEFB32460A
:10F1F00081462146284613F069FAC26807460B9BF0
:10F2000002BB0146584618F0D0FB0B9B024639461C
:10F210002846CDE90B3213F01DF8229B0C9A089F6B
:10F2200043EA0201099B0B430B9B0DD1392B29D0DB
:10F23000B9F1000F01DD069B3133049A137076E7B4
:10F240003046B9E70122E2E7B9F1000F06DB229967
:10F2500041EA0909099959EA010120D1002AECDDA6
:10F26000594601222846089313F0C0F921468346E7
:10F2700018F09BFB0028089B02DCDED1DA07DCD506
:10F28000392BD8D13923049A13703B461F46013BD2
:10F2900017F8012C392A50D001321A7047E7002A9A
:10F2A00003DD392BEED00133C7E7089A0A9902F83B
:10F2B000013C8A422AD0594600230A22284612F0ED
:10F2C000EBFFB04583464FF000034FF00A02414682
:10F2D000284607D112F0E0FF80460646089B01331E
:10F2E000089375E712F0D8FF3146804600230A22C2
:10F2F000284612F0D1FF0646F0E7B9F1000F039A55
:10F300004FF00008CCBF4F46012717445946012251
:10F310002846089313F06AF92146834618F045FB06
:10F320000028B2DC02D1089BDB07AED43B461F4667
:10F3300013F8012D302AFAD0F9E6039A9A42A5D1A2
:10F340000AF1010A312379E7134BFFF7A9BA269B8B
:10F35000002B7FF482AA114BFFF7A2BAB9F1000F7C
:10F3600003DC229B022B3FF7CBAE039F214658467E
:10F3700018F092F8039A00F1300307F8013BBA1A2B
:10F380009145BADD594600230A22284612F084FF2F
:10F390008346EBE7E9D80300B4AA030051D8030081
:10F3A0000378032B0CD8DFE803F0020507090548B2
:10F3B00013F083BF0448FBE70448F9E70448F7E784
:10F3C000704700BF888C0300A28C0300BA8C030036
:10F3D000D28C03002DE9F041017804464B1E0D2B21
:10F3E00000F29280DFE803F0070C30324290906424
:10F3F0007C6671878E8B4648BDE8F04113F05DBF97
:10F40000444813F05AFF0122434B44481A700FF04E
:10F41000CBFA237913B1424813F04FFF14F098FB55
:10F4200040480FF055F94FF4F01200233E480FF01A
:10F430004DFA012006F008FA0146002866D03B4844
:10F44000BDE8F04113F039BF3948D5E7394813F02A
:10F4500034FF0022304B34481A700FF0A5FABDE893
:10F46000F041002200232D480FF030BA324813F04B
:10F4700024FFD4E90276206916F000FC054608B99D
:10F480002E48B9E716F0FEFB044638B92C4813F0B5
:10F4900014FF2846BDE8F0410AF0DEBF03463A46B5
:10F4A0003146284811F024FF204616F014FCF0E7FE
:10F4B0002548A1E7254813F000FF254813F0FDFE7D
:10F4C00016F03CF910B3234896E7234813F0F5FEF5
:10F4D000224813F0F2FE16F021F9B8B120488BE76C
:10F4E000204813F0EAFE204813F0E7FE09F092FCF2
:10F4F000002001F069FB41681C4813F0DEFE6168E2
:10F500001B489DE71B4877E71B4899E7BDE8F0815A
:10F51000EA8C0300028D0300B0730120804E0120AD
:10F52000198D0300306C0120B04E0120358D030091
:10F53000578D03006A8D0300848D03009F8D0300A7
:10F54000B38D0300CF8D03000C8E0300248E0300C7
:10F55000448E0300638E0300818E03009A8E0300A5
:10F56000B48E0300CD8E0300E48E0300018F0300F0
:10F57000268F03003D8F0300548F03000B4B10B503
:10F58000187890B909F0DEFD014610B1084813F073
:10F5900094FE08481E2113F090FEBDE810404FF481
:10F5A0007022002304480FF091B910BDB073012000
:10F5B000748F0300908F0300804E012010B50378F4
:10F5C000044694B0042B30D8DFE803F003141C3158
:10F5D0003E00037A012B0BD0052B26D11C491D4878
:10F5E00013F06BFE1C4814B0BDE810400EF090BD47
:10F5F0001A49F4E7D0E90212194814B0BDE81040E6
:10F6000013F05BBE0069FDF733F9CDE90201E06854
:10F61000FDF72EF9134ACDE900013C2105A811F0B0
:10F6200097FE114805A913F048FE14B010BD017AE9
:10F630000E4A0F4B0F4801290CBF1146194614B052
:10F64000BDE8104013F039BED0E904120A48D4E7EF
:10F65000CE8F0300F18F0300144E0120B58F0300FD
:10F6600012900300429003008BB50300E28F030069
:10F67000EC8F03006B9003007990030000220023BD
:10F680002DE9F0438DB0CDE902230023814602A885
:10F69000ADF8063007F0B2F9054640B101464E48D4
:10F6A00013F00BFE2C4620460DB0BDE8F0830B2076
:10F6B0000DF1060107F05EF90228044604D0014668
:10F6C000464813F0FAFDEEE70AF070FF07460AF02D
:10F6D0006DFF80460AF06AFF06461FB1B8F1000FC1
:10F6E00000D058B938460AF0B7FE40460AF0B4FEDA
:10F6F00030460AF0B1FE6FF00B04D4E7B9F1000F09
:10F7000008D037480AF03AFF024690B330463549F0
:10F7100016F0BEFA2C46BDF90600FDF797F8FEF785
:10F720003BFA024640B330462F4916F0B1FA0020AA
:10F730000444DDE90201FDF7C5F8FEF72DFA0246A3
:10F74000E8B13046294916F0A3FA32462849404626
:10F7500016F09EFA2C4442463846264916F098FA8E
:10F7600084B12146244813F0A8FD38460AF074FEFF
:10F7700099E76FF00B04CEE76FF00B00D8E76FF05E
:10F780000B05E2E7384616F07DFA054628B91B4816
:10F7900013F093FD6FF00B04E7E71C22214605A848
:10F7A00017F021FC022328468DF814300895FDF748
:10F7B00009FF29460990124813F07FFD05A809F0BA
:10F7C00075F9044618B101460E4813F076FD284637
:10F7D00016F081FAC9E700BFAB900300C5900300A3
:10F7E000E6900300ED900300F9900300FE90030003
:10F7F000019103000A910300109103002591030079
:10F80000489103006A910300012008B5FFF736FF15
:10F81000014620B1BDE80840014813F04EBD08BDC7
:10F82000839103000C4B10B51B789BB10020FFF7B0
:10F8300025FF014610B1094813F03FFD08483C215F
:10F8400013F03BFDBDE810404FF4F01200230548D3
:10F850000FF03CB810BD00BFB073012083910300CE
:10F860009D910300B04E012010B53D493D4886B042
:10F8700013F023FD0AF0A6FE04F0D4FA3A4B014639
:10F8800098420BDC023B984211DCA0F18863013BFB
:10F89000012B11D8354813F010FD05E0344B984288
:10F8A0000AD1344813F009FD012001F08DF93248E6
:10F8B00013F003FD3148F5E73149002009F086FCDB
:10F8C000014610B12F4813F0F8FC182200216846B9
:10F8D00017F089FB2C480190FDF774FE02902B482D
:10F8E0000490FDF76FFE02210590684609F04AFC7E
:10F8F000044638B10146264813F0DFFC214625486E
:10F9000013F0DBFC244925480EF052FF244925481A
:10F910000EF04EFF244925480EF02EFE244815F027
:10F9200000FF014610B1234813F0C7FC07F052F85E
:10F93000014610B1204813F0C0FC4FF0FF324FF0E9
:10F94000FF331E480EF01EFC1D4815F04AFF002232
:10F950000023144806B0BDE810400EF0B7BF00BF4A
:10F96000E6900300C29103000400400447920300A4
:10F9700001005005EB9103000A9203002A92030054
:10F98000D5F3010074920300F84A0120434B012093
:10F99000A9920300D592030025F80100B04E012082
:10F9A0007DF50100804E012009F80100306C012036
:10F9B000BDF501000B93030035930300144E0120A5
:10F9C000A1F30100032808B506D914F0B7F80923FC
:10F9D00003604FF0FF3008BD044B03EB40100830CC
:10F9E000D0E8AF3F002BF0D00020F4E7406C0120BE
:10F9F00070B504460D461646FFF7E4FF002809DB04
:10FA0000064B600145B11A185268AA4204D014F09E
:10FA100095F80660002000E0185870BD406C012089
:10FA200070B504460E461546FFF7CCFF00280CDBE8
:10FA3000074B610103EB4414626832601DB101F1B0
:10FA40000C021A442A60585870BD0020FCE700BF21
:10FA5000406C012010B500244FF0FF324FF0FF330F
:10FA600014480EF007F9144A6301D2E8AF1F79B1C8
:10FA70000134042C02F12002F6D114F05FF81723B0
:10FA80004FF0FF3403600B480EF0C6F9204610BD5E
:10FA9000D2E8EF0F0130C2E8EC0FBCF1000FF7D154
:10FAA0000648C218C15051600C33184417F06AF868
:10FAB000E9E700BF844D0120486C0120406C012023
:10FAC00010B404461046094B620103EB44149950EC
:10FAD000606040B1C46834B10C32134410BC40F2D1
:10FAE000051213F075BB10BC704700BF406C0120BD
:10FAF00030B50D49400100F108030B44D3E8AF2FA6
:10FB000082B1541ED3E8EF5F954204D1C3E8EC4FB5
:10FB1000BCF1000FF6D1F1D1012A01BF00230A1870
:10FB20000B50536030BD00BF406C0120436870B57E
:10FB300003F00303022B04460E46816010D0032B12
:10FB400004D0012B0FD10025284601E005680020D4
:10FB50000023636010B1314610F07CFC284670BD74
:10FB600000250068F4E745220449054813F043FDE9
:10FB70004521024813F038FD0025E8E767930300AC
:10FB80008A9303000B6801330B60014B1B68184715
:10FB900030450120014B1860704700BF30450120FF
:10FBA00007B50B46002102460191034801A900F068
:10FBB00071FC03B05DF804FB85FB01002DE9F74FF4
:10FBC000B0F81CA004461AF0080F93461CD0012977
:10FBD0000CBF4AF0100A4AF0200AA0F81CA004F159
:10FBE00014000EF003F840B992499348B92213F07B
:10FBF00002FDB9218F4813F0F7FC8BF31188BFF396
:10FC00006F8F03B0BDE8F08F8C4FDFF82C820AF0C5
:10FC1000070A022906D1204613F05CFB0028DED03B
:10FC2000012863D1D4F81890A38BB9F1000F19DA29
:10FC30000026256823F00703C4E9006643F00103AA
:10FC4000A383A38B03F007025245009203D0A2685E
:10FC5000002A40F0F58015B9002E00F02F814FF0FA
:10FC6000000AEFE003F00702511F012920D800210C
:10FC700023F00703062A25689BB2C4E900110AD1C4
:10FC80003DB12946E28B0968013292B20029FAD1CE
:10FC9000E28343F002032046A38313F01BFB0646D6
:10FCA0000028CED0A38B43F02003A3830026C8E70F
:10FCB000042A0DD123F007039AB22046A28313F041
:10FCC00009FB054680B142F020020025A283EDE742
:10FCD00040F21B123946404613F08DFC40F21B11D6
:10FCE000384613F081FC00252E46AAE7032831D1BF
:10FCF000BAF1000F0AD0394640464FF4AB7213F008
:10FD00007AFC4FF4AB71384613F06EFC236853B99C
:10FD10003946404640F2571213F06DFC40F257113D
:10FD2000384613F061FC23691E6856B939464046CF
:10FD30004FF4AD7213F05FFC4FF4AD71384613F021
:10FD400053FCA38B23F0070343F006030025A38392
:10FD5000A94676E704282ED1BAF1020F0AD0394617
:10FD6000404640F25D1213F046FC40F25D11384609
:10FD700013F03AFCE38B53B1394640464FF4AF726F
:10FD800013F039FC4FF4AF71384613F02DFC2369A2
:10FD90005E6856B93946404640F2611213F02BFCBA
:10FDA00040F26111384613F01FFCA38B23F00703C8
:10FDB00043F00403CAE705282ED1BAF1010F0AD097
:10FDC000394640464FF4B27213F015FC4FF4B2714D
:10FDD000384613F009FC236853B93946404640F2CF
:10FDE000651213F008FC40F26511384613F0FCFB75
:10FDF00023699E6856B9394640464FF4B47213F0F1
:10FE0000FAFB4FF4B471384613F0EEFBA38B23F0EA
:10FE1000070343F0050399E7002540F26B123946CA
:10FE2000404613F0E8FB40F26B11384613F0DCFB60
:10FE30002E468DE7C49303008A930300A293030028
:10FE40004FF0010A43F00803A38304F1140318469A
:10FE500001930DF0CBFE40B940463149B92213F071
:10FE6000CAFBB9212E4813F0BFFB8BF31188BFF3F7
:10FE70006F8FBAF1000F30D1002D40D116B120465E
:10FE80002849B0474FF02003EFF3118B83F312881A
:10FE9000BFF36F8F01980DF09BFE40B9404620499B
:10FEA0008E2213F0A8FB8E211D4813F09DFB0198B4
:10FEB0000DF0AAFEA38B23F00803A383A38BDA061D
:10FEC00025D5012123F01003A383B4F81CA00AF068
:10FED000070A00297FF49DAE81E6A1680029CBD0F6
:10FEE000D1F800A04B462046D1F804B0009AD8477C
:10FEF000BAF1000FC0D05146DAF800A0F2E7294667
:10FF00004B462046009A2D6813F000FAB4E713F030
:10FF100020011EBF23F020030221A383D5E700BFE9
:10FF2000C493030029FF0100F8B504460D4600F113
:10FF300014064FF02003EFF3118783F31288BFF309
:10FF40006F8F30460DF044FE40B90A490A488E22B0
:10FF500013F051FB8E21074813F046FB30460DF09D
:10FF600053FE3A462046A5610121BDE8F840FFF75F
:10FF700025BE00BFC49303008A9303002DE9F04718
:10FF800004460F4613F0D8F9051E54DB04F114099A
:10FF90004FF02003EFF3118A83F31288BFF36F8FC2
:10FFA00048460DF015FE40B9334934488E2213F00F
:10FFB00022FB8E21304813F017FB48460DF024FE3B
:10FFC0004FF6FF71E38BA28B8B4202F007064AD0FB
:10FFD000022E1FD135464FF001080133E383484616
:10FFE0000DF004FE40B924492448B92213F003FB64
:10FFF000B921214813F0F8FA8AF31188BFF36F8F03
:020000040002F8
:10000000B8F1000F17D0002332463946204613F0CE
:100010007DF910E0930701D0062E0FD100233B603D
:100020006368EBB9C4E900773546F6B95246022158
:100030002046FFF7C3FD2846BDE8F087052E17D000
:10004000012E0AD00E490D4840F2C91213F0D3FA1E
:1000500040F2C9110A4813F0C7FA6FF0040504E032
:100060001F606760E0E76FF00A054FF00008B6E731
:100070006FF08505F9E700BFC49303008A9303007E
:10008000A29303002DE9F843C36844695F1E40F260
:100090006C730569E1170135E41841F10001022D87
:1000A0008CBF00230123E41A61F10001002980467E
:1000B00055DA6FF4C7704FF4C8720023201861F14D
:1000C0000001FDF763F8284B024603FB0044D8E922
:1000D00000903C23D8F80880C617C8FB0306B44636
:1000E000A0FB0306022D8CBF6FF0020E4FF0090E2D
:1000F00003FB0C6610EB090C40F26D104FEA940301
:1001000000FB04334FF06400B4FBF0F405EB0E0089
:100110004FF0990505FB00F04FF0050500F10200D6
:10012000B0FBF5F03B44A3EB0403104C0344A2FBEB
:10013000040204FB012146EBE9761B180C480D4A2A
:1001400041F100011818A0FB020361F1000102FB5C
:10015000013110EB0C0041EB0601BDE8F8834FF4D0
:10016000C87200232046ACE770FEFFFFB13A0200E0
:100170009405F5FF8051010070B579B305680C1F37
:10018000641BE60824F007042C446388DB0708D4CA
:1001900013491448AC2213F02EFAAC21104813F086
:1001A00023FA3146284613F0F3F8304435F830305E
:1001B000C01A864208D00A490A48B42213F01BFA32
:1001C000B421074813F010FA6388314623F0010385
:1001D00028466380BDE8704013F096B970BD00BF3B
:1001E000F19303008A9303004B422DE9F04703EAA1
:1001F000010731EA0303144606681BD0042F3D466D
:1002000028BF0425B946CF1B07F1FF3A1AEA070FAA
:100210000AD0314931484FF4A07213F0ECF94FF491
:10022000A0712D4813F0E0F97CB94FF00009484661
:10023000BDE8F087042904D8BDE8F047114613F063
:1002400094B94FF000090425DEE7B368B3EBD40F8F
:10025000EBD904F10B013944491B3046C90813F0AE
:10026000EDF880460028E0D009F1040505EBC00553
:10027000354455447F422F40A7EB09094C44A9F16E
:10028000040307349B1B24F00704A41BB0EBD30F1B
:100290004FEAD3074FEAE40408D201463A46304613
:1002A00013F018F94146304613F077F839463046D6
:1002B00013F06EF83844844207D23046224613F0D9
:1002C00009F92146304613F068F806EBC706738833
:1002D00043F001037380AAE7F19303008A930300BC
:1002E000B2F5802F2DE9F04104460E4617465ED345
:1002F000364940F2E312364813F07DF940F2E3113B
:10030000324813F071F9043FF51D3E4425F007050E
:1003100026F00706761B172E4FEAD6070AD82B4978
:100320002B4840F2F31213F066F940F2F31127481C
:1003300013F05AF92560B7FA87F40023C4F12008B6
:10034000C4F12404A4000734E408EB60631CBB423E
:10035000AF600AD91D491E484FF4017213F04BF9E2
:100360004FF40171194813F03FF9002205F1100311
:1003700003EB8808984525D1630043F001036B80A7
:100380003B1B05EBC40158002A804880A91925F8B9
:1003900034404A80AB5305EBC7035A88214642F0EC
:1003A00001022846BDE8F0415A8012F0F6BF042A47
:1003B000A9D806494FF4F572054813F01CF94FF41B
:1003C000F5719DE743F8042BD4E700BFF1930300D8
:1003D0008A930300F0B5034602680A270020064E00
:1003E00011460C780132A55D6D0701D41960F0BD8E
:1003F00007FB00403038F3E70ED703002DE9F84F34
:1004000015469A46D378224A6F2B13F802B08046DD
:100410000F460BF0030B29D024D8582B14BF0A2603
:100420001026DDF828903246002340463946FCF776
:10043000FDFE092AD4B21ED83034B045E4B277F1BB
:10044000000309F8014D01D3D14511D82B789B0643
:1004500005D5082E15D1AB7843F00803AB7048469C
:10046000BDE8F88F03F0F703702BD7E70826D8E72D
:1004700080460F46D7E7BBF1010F0CBF3734573426
:10048000DBE7102EEBD1AB7843F01003E6E700BFBB
:100490000ED703002DE9F04F82468B4691461C464D
:1004A000002593B099F8000008B928463DE309F10A
:1004B00001032528029306D05946D0470028C0F2F0
:1004C00034830135F5E1182200210CA816F08BFDCC
:1004D00099F80130252B5AD009F10102164612F87D
:1004E000013B2B2B00F08B8079D8202B00F08C80E7
:1004F000232B00F08E809DF8383003F04402442A0C
:1005000003D16FF386138DF838309DF83830059697
:1005100043F080038DF8383033782A2B7ED19DF854
:10052000393043F001038DF83930731C05931A7884
:100530002E2A0CBF012100219DF8392061F34102D0
:100540008DF839200BD15A1C05925A782A2A7BD172
:100550009DF83920023342F004028DF83920194603
:1005600011F8010B6C2800F0B6807DD8682800F0E7
:1005700084806A2800F0B9804C2800F0BD809DF886
:10058000392019466FF3C6028DF8392080E009F151
:10059000020202928DF83B309DF83930D90740F1C4
:1005A0004A8154F8048BB8F1000F07DA9DF838201F
:1005B000C8F1000842F004028DF838205A0740F1D3
:1005C000438154F8047B002F80F242819DF839303A
:1005D0006FF341038DF839304FF0FF3738E12D2BA1
:1005E00006D0302B87D19DF8383043F0400303E02C
:1005F0009DF8383043F004038DF838306EE79DF8ED
:10060000383043F00803F7E79DF8383043F0100323
:10061000F2E79DF8383043F02003EDE705A8FFF737
:10062000D9FE059BB34281D09DF838100F90C1F3DD
:10063000400242EAD072520062F07F0201F07D0176
:100640000A438DF8382071E705A8FFF7C3FE9DF82F
:1006500038301090C3F3400242EAD07060F3410397
:100660008DF83830059B7AE774289DF8392040D002
:100670007A2884D11346062228E05A78682A9DF801
:10068000392021D1012161F3C6028DF83920991C4E
:100690000B4613F8012B782A02938DF83B209DF826
:1006A000393000F2C080572A33D8412A03D0453A66
:1006B000022A00F2B88004229DF83A3062F3020365
:1006C0008DF83A30012385E01346022262F3C60317
:1006D0008DF83930DCE75A786C2A9DF8392001D141
:1006E0000421D0E713460322F0E705229DF83930B4
:1006F000ECE713460722E9E7BDF8383023F4F0436E
:1007000023F0020343F4804343F00203ADF8383092
:10071000BEE7A2F15801202900F2858001A050F81F
:1007200021F000BFE90702002708020027080200A5
:1007300027080200270802002708020027080200F5
:100740002708020027080200B70602002708020057
:10075000E9070200A9070200B7060200B706020077
:10076000B706020027080200A907020027080200B6
:10077000270802002708020027080200F1070200EC
:10078000E90702000D0802002708020027080200FE
:100790000D08020027080200E907020027080200EE
:1007A00027080200E907020001209DF83A1003F033
:1007B000780360F30201402B8DF83A1002BF9DF8D8
:1007C000381041F001018DF83810632A31D1003B17
:1007D00018BF01239DF83820C2F340010B4363F397
:1007E00041028DF83820D7E602209DF83A10DEE766
:1007F00003219DF83A2003F07803A3F1400061F350
:10080000020243428DF83A204341E3E703219DF879
:100810003A2013F0780F61F3020214BF0123002382
:100820008DF83A20D6E79DF8383043F001038DF873
:1008300038300023CEE79DF93820002AACBF4FF0B6
:10084000FF38DDF83C80B9E69F077FF5C5AE109F05
:100850000023CDE90F339DF83A309DF8391003F0AD
:100860000703012BC1F3C30139D1CB1E042B23D8BD
:10087000DFE803F003090922220054F8043BDA17E9
:10088000CDE90C3206E0073424F00704F4E8022333
:10089000CDE90C239DF8383013F0030657D04A46B3
:1008A00059465046029B12F089FE0028C0F23D8155
:1008B0000544DDF80890F5E554F8043B01294FEABA
:1008C000E372CDE90C3205D19DF830300C93002352
:1008D0000D93DFE70229DDD1BDF93030CFE7022BE0
:1008E00023D1CB1E042B13D8DFE803F0030A0A122E
:1008F000120000232268201D0C920D930446C9E7C4
:10090000E01D20F00700F0E80223CDE90C23F5E715
:1009100054F8043B01290C934FF000030D93D3D0FE
:100920000229B7D1BDF83030D0E7042B09D1E31D3F
:1009300023F0070303F10804D3E90023CDE90C23D6
:10094000A8E7032B04BF54F8043B0C93A2E79DF8DF
:100950003B007828ADD8622820D825283FF4ACADDC
:100960005828A6D1DDE90C010DF12E0300930EAA43
:1009700006ABFFF743FD8146002F0DF12E000BDB88
:100980009DF83820A0EB09036FF386129F428DF883
:10099000382001D9FB1A0F9307463CE0633815282D
:1009A00087D801A252F820F0270A0200890A020023
:1009B000B3080200B3080200B3080200B308020043
:1009C000890A0200B3080200B3080200B30802005B
:1009D000B3080200E30A0200B10A0200B50A0200ED
:1009E000B3080200B3080200010A0200B3080200C3
:1009F000B10A0200B3080200B3080200B10A020003
:100A0000002FDDF830900ADB3946484616F0B7FC77
:100A1000002609EB0007B9F1000F0CD149E7484661
:100A2000FCF7D0FDF4E700260C9B0DF119078DF8BB
:100A300018300DF11809A7EB090306B101339DF831
:100A40003A20D00666D5023352060F9948BF109A55
:100A50000B4448BF9B18B8F1000F73DD9DF8382098
:100A6000A8EB0308C2F38003039353076AD450062C
:100A70005ED53EB159463046D047002855DB039B32
:100A800001351E46302354E01E070FD413F0100624
:100A900018BF2026DDE90C23002BBFF663AF5242BE
:100AA00063EB43032D26CDE90C235BE72B26F1E70F
:100AB000002657E70C9840B30DF12E030093002158
:100AC00006AB0EAAFFF79AFCBDF83A30814603F058
:100AD000EF0343F4F04343F010030026ADF83A303F
:100AE0004AE70C9B07293FF6E4AEDFE801F00C046F
:100AF000060C08080C0C1D70DBE61D80D9E6EA1711
:100B0000C3E90052D5E61D60D3E62E4F0646A7F195
:100B1000050990E7110748BF013395E71846594684
:100B20000393D0470028039B04DA13B0BDE8F08F8D
:100B3000202345444246002AA5EB080108F1FF386E
:100B4000ECDC0D462EB159463046D0470028ECDB90
:100B500001359DF83A30D90601D41A0705D5594612
:100B60003020D0470028E0DB01359DF83A30DB0625
:100B700006D559469DF83B00D0470028D5DB013506
:100B80000F9E2E44731B002B15DC3B464A465946EC
:100B9000504612F013FD0028C7DB0544A844A8EB1B
:100BA0000503002B7FF785AE59462020D04700284B
:100BB000BBDB0135F3E759463020D0470028B4DBD2
:100BC0000135DFE71794030008B54FF02002EFF37B
:100BD000118382F31288BFF36F8F01F009F9034884
:100BE00012F06BFB00F028FDFCE700BF1894030037
:100BF0004FF02002EFF3118382F31288BFF36F8F5F
:100C00000121044AC2F8401583F31188BFF36F8FA6
:100C1000002070470090034020B1034B800143F057
:100C200001031847704700BF90820300F0B50546E6
:100C30009BB00F4614460021302202A816F0D3F9CB
:100C4000002D00F08580002C00F082801B238DF8A1
:100C5000083016F051F84FF47A720026A0FB020318
:100C600002FB0131C00B4FF47A72002340EA41408D
:100C70003146FCF7DBFA384A0244130A110201F448
:100C80007F0103F47F430B4343EA026343F0830392
:100C9000E8682A610C9330223346CDE9006602A948
:100CA00012F086FD00280FDB314630220EA816F028
:100CB0009AF9A9683A46284612F001FEB04205DAD0
:100CC00012F03CFF006840421BB0F0BD37D0E8682E
:100CD00030223346CDE900660EA912F0C0FD00288F
:100CE000EEDB30282ED1149B2A691BBA9A4202D01F
:100CF0006FF01500E8E79DF8383003F00703042B88
:100D0000F6D19DF8393003B3189B199A1BBA12BA61
:100D100053EA0201ECD0002BA2600ADA0F4A934298
:100D2000E6D900200E4A9B1840F1FF32C4E9003298
:100D3000CAE700200A4A1A44C4E90020C4E76FF059
:100D40007300C1E76FF07900BEE76FF00F00BBE7FB
:100D50006FF00D00B8E700BF807EAA837F7EAA8374
:100D60008081557C2DE9F04705460E4617461C4C00
:100D7000DFF87090DFF870804C4508D941461B4879
:100D8000D62212F038FCD621404612F02DFC4C45FC
:100D900007D312F0D3FE6A2303604FF0FF30BDE8A3
:100DA000F0872368AB4200D0BBB9636843B94146C2
:100DB0000E48DC2212F01FFCDC21404612F014FC2D
:100DC0003A46314628466368984730B13A4631463C
:100DD0002846A368BDE8F04718470C34CCE700BFAD
:100DE0002481030030810300799403008A93030077
:100DF0002DE9F04F06464FF000089BB004911046D5
:100E000019461D46144615F07DFFB146C2464746B9
:100E10000BAB0893CDE90501049B0393039B03BB34
:100E2000002F60D0B5F1FF3F08BFB4F1FF3F16BF00
:100E30004FF47A704FF0FF34A4FB0040049B1CBFBA
:100E4000E40B44EA404400934FF482723346414637
:100E50005046019412F04EFC074638461BB0BDE8E0
:100E6000F08FD9F80000002837DB0AAA09A9FEF79D
:100E7000D7FD079088B34FF0FF324FF0FF330A9849
:100E800012F047FC1AAB019308AB00934FF4817248
:100E90004B460799099812F02DFC10F1780F834604
:100EA0000DD010F1120F07990CD1BAF1000F02D139
:100EB0008846DDF824A04FF0000B012702E0002453
:100EC0002546A3460A9812F026FCBBF1000F04DA6F
:100ED00012F034FECBF1000336E0039B09F1080960
:100EE000013B03939AE754EA050310D0B5F1FF3FA5
:100EF00008BFB4F1FF3F0AD00FF012F8059B1C1A8F
:100F0000069B63EB0105002DBCBF3C4625460899B6
:100F10000BAF3F4BC91B891059432B46224638461D
:100F20000FF0C2F900F10B030B2B814608D840F6F5
:100F3000810828FA03F86FEA080818F0010807D0BA
:100F400012F0FCFDC9F100034FF0FF37036084E7A6
:100F50000897B1464746DDF810A0BAF1000F1CD142
:100F6000B8F1000F3FF479AF002F7FF476AF54EA69
:100F700005033FF472AFB5F1FF3F08BFB4F1FF3F87
:100F8000C5D00EF0CDFF059B1C1A069B63EB010537
:100F9000012C75F10003BADA5FE74FF00003D9F8CE
:100FA0000000A9F80630002829DB0AAA09A9FEF7E3
:100FB00037FD834620B92023A9F8063001371EE00B
:100FC0004FF0FF324FF0FF330A9812F0A2FB08AB4C
:100FD000594640F20312009309984B4612F08AFBDF
:100FE00083460A9812F097FB1BF10B0F0CD0BBF154
:100FF000000F7FF46DAFB9F90630002BDED109F197
:1010000008090AF1FF3AA8E74FF00108F7E700BF27
:10101000CDCCCCCC38B5044640B90B490B48132293
:1010200012F0E9FA1321084812F0DEFA084D2B6895
:1010300043B105490548142212F0DDFA1421024893
:1010400012F0D2FA2C6038BDAD9403008A930300ED
:10105000C06C01202DE9F041DFF854801F46D8F81C
:10106000003004460D46164643B9124912481D2267
:1010700012F0C1FA1D210F4812F0B6FAD8F800306C
:101080001B6843B90B490C481E2212F0B4FA1E210A
:10109000084812F0A9FAD8F800303246D3F800E038
:1010A00029463B462046F446BDE8F041604700BF74
:1010B000C06C0120AD9403008A93030070B50F4DFE
:1010C00004462B6843B90E490E48252212F093FAC4
:1010D00025210B4812F088FA2B685B6843B9084950
:1010E0000848262212F087FA2621054812F07CFAD9
:1010F0002B682046BDE870405B681847C06C012033
:10110000AD9403008A9303000C4B70B51B6873B158
:101110000B4A15680022AA4202DB6FF0010070BD85
:101120001C4613F8106B864204D00132F3E76FF0CF
:101130000C00F4E700200C60F1E700BF3845012007
:101140005084030042680B6810B593420C4606D9E0
:101150000548452112F089FA0020606010BD4B68F7
:10116000012013444B60F9E7E894030030B50546CD
:1011700085B0C06801AA13F0D0FC044638B14521FF
:1011800002460C4812F071FA204605B030BD0199B4
:101190002B6A8B42F8D0E868029A83689B6898476C
:1011A000044618B1024645210348EBE7019B2B6238
:1011B000EAE700BF0D95030033950300F8B5856895
:1011C000044675B1D0E90436013D1E44A919FFF764
:1011D000CDFF051E07DA33462A4645212C4812F07A
:1011E00044FA2846F8BDE06812F01EFCA568B5FB7D
:1011F000F0F300FB13555DB1451BE0688368DB68C5
:1012000098472768A36801792A46F81815F0EBFE7D
:10121000A368E06822682B4481684D683146A8477E
:10122000054620B10246334645211A48D7E7E3690F
:10123000E3B92369A268134423610023A360D0E7C4
:10124000535CDB4353540131A36822689942F7D3BE
:10125000E06881680F683146B847074640B10246EA
:1012600045210D4812F001FA3D46BAE70146EBE789
:101270003246E369A1682068984706460028D8D01E
:1012800002464521054812F0F0F93546A9E700BFAE
:101290005495030087950300B0950300CB95030098
:1012A0002DE9F7430D46DDE90A8691461F460446BF
:1012B00020B96FF00D0003B0BDE8F0830029F8D02D
:1012C000002AF6D0009300230846019312F0ACFBED
:1012D000B7FBF0F303FB107020B14521174812F063
:1012E000C4F9E6E76A462846154913F01AFC019B43
:1012F000002BDED006EB0802934202D245211148B2
:10130000EDE7284612F090FBB8FBF0F303FB1080EA
:101310000028F3D1C4E90097E5602061A060C4F81B
:10132000148016B9019EA6EB08060C9B0020E36111
:101330004FF0FF33A6612362BDE700BFE4950300D1
:1013400045110200209603002DE9F84305464FF0B1
:101350002003EFF3118683F31288BFF36F8F1D48CC
:101360000CF036FC40B91C491C488E2212F043F99F
:101370008E21194812F038F916480CF045FC184B2C
:101380001C689CB14FF00C09164FDFF85C80D4E963
:101390000132002D08BF13462BB198F8142009FB29
:1013A00002F2B85C98472468002CF0D109480CF090
:1013B0001DFC40B908490948B92212F01CF9B921AD
:1013C000054812F011F986F31188BFF36F8FBDE85D
:1013D000F88300BFC46C0120C49303008A93030008
:1013E000C86C0120D06C0120207301200123420928
:1013F00000F01F0003FA00F0C043054B03EB82032B
:10140000D3E8EF2F0240C3E8E12F0029F8D170475D
:10141000DC6C0120012238B5174B1C7D04F01F0342
:101420009A40D043154B610903EB8103D3E8EF1FCA
:1014300001EA0005C3E8EC5FBCF1000FF6D11142F0
:1014400013D00F4B0F4D8BB10C236343EA18517827
:10145000E85C12F0EAF80020FFF776FF0C235C430B
:1014600000232A192B51C2E9013338BD83F31188B7
:10147000BFF36F8FEFE700BF20730120E06C012006
:101480002B360300D06C01202DE9F8432F4B074683
:101490001C7D4FEA54184FEA88082D4B4344D3E88B
:1014A000AF3F04F01F0943FA09F313F0010F294E6F
:1014B0000AD10146204600F063F828B107C80C2382
:1014C00003FB046383E807000C236343F55CF21815
:1014D0002DB92046FFF78AFF2846BDE8F8837B1C1C
:1014E0000FD04FF400450021D2F808C01A4800235D
:1014F000ECFB0501194AFBF799FE0121381A0EF0A1
:1015000033FC0DF037FB0120FFF71EFF012303FA28
:1015100009F9134B9844D8E8EF3F43EA0903C8E8B8
:10152000E23F002AF7D10F4B33B10C236343F2188B
:101530005178F05C12F06DF8FFF76CFF2046FFF772
:1015400055FF0DF0B7FF0120C7E700BF2073012052
:10155000DC6C0120D06C01203F420F0040420F00A4
:10156000E06C012013360300044B03EB8000D0E84D
:10157000AF0F003818BF0120704700BFE46C012096
:101580002DE9F04F85B00F4603A900F047F84FF062
:10159000000B441EDFF87880DFF878A024B2631CCB
:1015A00004D10026304605B0BDE8F08F039A04EB65
:1015B000440312F8230002EB8306FFF7D5FF05462C
:1015C00010BB4FF40049C446294670685246E0FB00
:1015D00009C15B466046FBF729FEC44629460190D7
:1015E000B0685B46E0FB09C152466046FBF71EFE51
:1015F000094B1B68591C01D0834205D97A1CD1D0F4
:10160000019B1844B842CDD9013C24B2C7E700BFC2
:101610003F420F0040420F003445012008B9024B01
:101620000B600020704700BFB08303000149102207
:101630000A60704710ED00E072B6404080F31188F8
:10164000BFF36F8FBFF34F8F30BF62B6BFF36F8FA3
:10165000704700BF72B6494081F3118820BF80F304
:10166000118862B6704700BF37B505460C46C9B150
:101670008B6810480093D1E90023452111F0F5FF54
:10168000636945210093D4E903230B4811F0EDFF72
:101690004521E269094811F0E8FF4521A26908489F
:1016A00011F0E3FF2146284603B0BDE830400BF0BF
:1016B00037BF00BF5C96030090960300C4960300FA
:1016C000D896030043B2002B08DB012200F01F0074
:1016D00002FA00F0024A5B0942F82300704700BF9B
:1016E00000E100E0054B420953F82220012300F0FD
:1016F0001F0003FA00F01040704700BF00E100E057
:1017000038B54C1C072C054608D90D490D48572201
:1017100011F071FF57210A4811F066FF6BB2002BE0
:10172000ACBF03F16043084B4FEA4414E4B2ABBFD3
:1017300003F5614305F00F0583F800435C5538BDA0
:101740000B9703008A93030014ED00E008B572B60E
:10175000044B9A691AB100229A6115F004FA62B634
:1017600008BD00BF2073012030BFFFF7FDBF00BFE1
:101770000B4A08B50B4B22F07F029A60BFF34F8FE4
:10178000BFF36F8FD3F8882022F47002C3F888204B
:101790000BF03CFF0EF064F900F0EEFA0BF076FF70
:1017A00000C2010000ED00E0094A0A499368096897
:1017B0009867D96708494B6843F080534B60002312
:1017C00083F31188BFF36F8F9368D86F704700BFA2
:1017D000207301207C8B030000ED00E015498A682E
:1017E00082F881E04FF030001044EFF3098C80E87C
:1017F000F01F202080F31288BFF36F8F0E4F4FF041
:101800000066CA698A603E6092F981E0906F0023A9
:10181000936780F3118802F1300090E8F01F8CF399
:10182000098802F1000004B512F059F9BDE804403E
:10183000704700002073012004ED00E01EF0040F4B
:101840000CBFEFF30880EFF30980816911F8021CE7
:101850000229FFD001B512F033F901BD42F8203C56
:10186000009B0D4942F81C3C019B21F0010142F80C
:10187000183C029B42F8081C42F8143C4FF080735D
:1018800042F8043C002383674FF43C43203A02654E
:10189000C0F88030704700BF7D330300084B98606C
:1018A000836E83F30B88104681F30988002163B6A9
:1018B00081F31188BFF36F8F0022002311F05EFDCA
:1018C0002073012001B572B60B4A906900281EBF33
:1018D0000021916115F047F962B6EFF30580A0F1A0
:1018E00010004FEAC0000549014409C99847BDE806
:1018F0000140034908470000207301201C7F0300BA
:1019000005190200044B9968D869884203D003493D
:101910004FF080520A6070472073012004ED00E010
:1019200038B5214C4521214811F09FFEA36A9D0145
:1019300003D545211E4811F098FEA36ADC0103D5AA
:1019400045211C4811F091FE174DAC6A14F4801427
:1019500004D04521184811F088FE0224AB6A180310
:1019600003D54521154811F080FE0F4DAB6A590390
:1019700003D54521124811F078FEAB6A9A0303D5CE
:101980004521104811F071FE074DAB6ADB0303D50A
:1019900045210D4811F069FEAB6A20466FEA03430A
:1019A0006FEA1343AB6238BD00ED00E041970300DE
:1019B0005E9703007697030095970300C497030092
:1019C000E7970300119803003098030070B5234C8B
:1019D00006460D462248452111F047FEA36AD90468
:1019E00003D545211F4811F040FEA36A1A0503D50F
:1019F00045211D4811F039FE184CA36A9B0510D5EE
:101A00001A48452111F031FEA26BA36A180408D5CB
:101A10004521174811F029FE1EB1A36A23F40043A3
:101A2000A3620E4CA36A590503D54521114811F054
:101A30001CFEA36ADA050BD545210F4811F015FEEF
:101A40000020064A936A43F47F439362287070BD76
:101A5000A36A9B04F4D545210848EFE700ED00E0B8
:101A6000609803007B98030091980300A9980300F5
:101A7000C7980300E1980300019903001E99030031
:101A800070B52E4C06460D462D48452111F0EDFD52
:101A9000A36ADB0603D545212A4811F0E6FDA36AB7
:101AA0001C0703D54521284811F0DFFD234CA36A0C
:101AB000980710D54521254811F0D7FD626BA36A20
:101AC000190608D54521224811F0CFFD1EB1A36AA1
:101AD00023F08003A362194CA36ADB0703D54521D9
:101AE0001C4811F0C2FDA36A9E0603D545211A4881
:101AF00011F0BBFD114B9A6AD40602D49A6A900782
:101B00000DD59B6AD9060AD51449154840F24F12E3
:101B100011F071FD40F24F11104811F065FD0020E9
:101B2000064B9A6A920642BF5A6A22F400525A62DF
:101B30009A6A42F0FF029A62287070BD00ED00E0E0
:101B4000529903006D99030091980300A599030031
:101B5000C2990300DD9903001E990300019A030056
:101B60008A9303002DE9F0436B4B0546D3F80480BC
:101B70008946144600278BB0C8F3080687F31188FE
:101B8000BFF36F8F02F07F43B3F17F4F11D1D007C6
:101B90000FD4510603D4220708D4012708E04521B9
:101BA0005E4811F062FD14F0040400D04D46002799
:101BB0005DB940F2FB325A495A4811F01CFD40F21F
:101BC000FB31574811F010FD00250024F31E8DF85D
:101BD0000740092B00F28D80DFE803F00580846860
:101BE0008B8B8B8B8B884C4E45214F4811F03DFDE4
:101BF0008DF80740F46A14F0020405D045214B48E3
:101C000011F033FD002406E0F36A002B23DA4521AE
:101C1000474811F02AFD9DF80730CBB902AA05F11B
:101C20002006134628686968083503C3B5421A467A
:101C3000F7D1099B002F69D0C3F3080222B96FEADC
:101C400053236FEA43230993204602A9FFF70CFDB3
:101C50000BB0BDE8F083F36A5B0036D5452135480B
:101C600011F003FDAB6933F8022C4DF602739A4272
:101C700006D145212A68304811F0F7FC2C68CAE7E4
:101C800096F8283033B101200DF10701FFF7F8FE77
:101C90000446C0E796F829302BB101200DF1070169
:101CA000FFF794FEF4E7738D9BB213B1FFF738FE94
:101CB000EEE71B4940F2CD221A4811F09CFC40F29D
:101CC000CD21174811F090FCA5E7154940F2D1222B
:101CD000144811F090FC40F2D121F2E700200DF100
:101CE0000701D3E700200DF10701D9E7452113488B
:101CF00086E7134918F4F87F124A134808BF0A46CA
:101D0000A6F11003452111F0B0FC7BE723F4FF732B
:101D100023F0010397E700BF00ED00E0699A03009C
:101D2000019A03008A930300919A0300AD9A03007D
:101D3000D39A0300E69A03000A9B03002B9B03003F
:101D40003B9A0300509A0300549B0300044B5A69CA
:101D500042F010025A615A6942F480625A61704737
:101D600000ED00E0EFF30880EFF3098101B5724662
:101D7000FFF7F8FE01BD00BF002320210348C21871
:101D80000133412B82F80013F9D1704700E100E0E4
:101D9000002080F31488BFF36F8F002080F30A883F
:101DA00080F30B8816F018F800200E490860BFF386
:101DB0004F8F0D4880F3088800F03EF8202080F314
:101DC00011880A484FF40061401880F30988EFF346
:101DD00014800221084380F31488BFF36F8FFFF74C
:101DE000C7FC000094ED00E068CB0120A8CC0120E6
:101DF000BFF34F8F0549064BCA6802F4E0621343F4
:101E0000CB60BFF34F8F00BFFDE700BF00ED00E0E8
:101E10000400FA05002318460649D1F89020C2F3C1
:101E20000722934200D17047C1F89830C1F8A00052
:101E30000133F6E700ED00E010B572B6002484F33C
:101E40001388FFF7E7FF23464FF0FF300B4A03F1FB
:101E500020010133102B42F82100F8D100234FF06C
:101E6000FF3003F160010133102B42F82100F8D15B
:101E700062B6BFF34F8FBFF36F8F10BD00E100E07C
:101E8000084B9B6883420BD1EFF3058343B1064BAC
:101E90005A6842F080525A605A6A22F400425A62EA
:101EA0000DF0F2BC2073012000ED00E01FB5094CDD
:101EB000094A23460121094800F02CF90023039325
:101EC000074B0121E41A01A80193029400F03EF9A6
:101ED00004B010BD0000042000450120548403001C
:101EE000804E012010B50B680C7A23F01F0204F01D
:101EF0001F031A43CB68640923F01F03054943EA13
:101F0000440343F00103C1F89800C1F89C20C1F8D4
:101F1000A03010BD00ED00E030B54B680C6885B016
:101F20000A894D890094013B24F01F04234402F0E8
:101F30001F0242EA451223F01F030F2804468DF8C2
:101F40000820039309D902464521064811F08DFB6C
:101F50006FF01504204605B030BD6946FFF7C2FF9B
:101F6000F8E700BF709B03002DE9F04F8946144647
:101F700006464FF00008584D85B0C84527DAD6F818
:101F800004A0BAF1000F44D0BAF11F0F18D91AF00B
:101F90001F0F15D1D6F800B01BF01F0F10D15846F7
:101FA00011F0A3FD07460AEB0B00013811F09DFD6F
:101FB000874210D06FF015073A464521474802E0A6
:101FC00042464521464811F050FB6FF0150420466B
:101FD00005B0BDE8F08F17F1160FEDD0BC42EBDD78
:101FE000C5F89870D5F89C10C5F89870D5F8A03051
:101FF00021F01F0143F01F0BD6E900321A44994229
:1020000002F1FF3A1DD1D34507D13146F8B2FFF7AF
:1020100083FF08F101080C36AFE73146C5F8987028
:10202000D5F89C3022F01F0203F01F031A43C5F8B5
:102030009C20E0B2FFF770FF10F1160FC5D0441CD2
:10204000E7E7013BD345E0B223F01F03C5F89870E2
:1020500008D1D5F8A020314602F01F021343C5F87D
:10206000A030E7E7D5F8A01001F01F010B43C5F839
:10207000A0303146FFF750FF10F1160FA5D0C5F87C
:102080009870D5F89C209DF808300BF1FF3B62F367
:1020900004038DF80830D5F8A0309DF808205B08BF
:1020A00063F34712D6E900310B44009323F01F037A
:1020B00001305B44A3EB0A03C0B223F01F030F28D7
:1020C0008DF80820039303D90246452105487AE795
:1020D0006946FFF707FFB2E700ED00E0C39B03008E
:1020E0009B9B0300709B03000522044BC3F89420C4
:1020F000BFF34F8FBFF36F8F704700BF00ED00E05D
:10210000BFF35F8F0022024BC3F89420704700BFDB
:1021100000ED00E010B50A4C2278FFF725FF207093
:1021200016300CD10749084840F2111211F063FA39
:10213000BDE8104040F21111024811F055BA10BD2F
:10214000B1730120EB9B03008A9303002DE9F74F45
:10215000304D8A4606464FF00008AB462E4FD0451C
:1021600002DB03B0BDE8F08FD6F80490B9F1000FA0
:102170004AD031680846019111F0B7FC0199044634
:1021800009EB0100013811F0B0FC84424FF0140259
:10219000224B13D06FF0150302FB08F84BF8083000
:1021A00040F221121E491F4811F025FA40F2211178
:1021B0001B4803B0BDE8F04F11F016BA14F1160F2A
:1021C0002C60EDD01978A142EADD02FB08B0C7F817
:1021D0009840C7F89840D7F89C4000F10801007B70
:1021E00064F304000871D7F8A0000C79400860F38C
:1021F00047140C71D7F89C1021F01F016960D7F8C3
:10220000A01021F01F01296108F1010814350C36D6
:10221000A5E700BF006D012000ED00E0B1730120D3
:10222000EB9B03008A93030038B51D4D2C68102CDE
:102230000DD94FF4A4721B491B4811F0DCF9194861
:102240004FF4A47111F0D0F94FF0FF3038BD0020E9
:10225000FFF756FF154B164AC3F8C020844217D12A
:10226000144B1C70FFF740FF104BD3F89030C3F3B2
:102270000723102B0AD00B490B484FF4D67211F0EC
:10228000BAF94FF4D671074811F0AEF90020DDE736
:10229000696801EB0011FFF725FE0130DEE700BFA2
:1022A00060840300EB9B03008A93030000ED00E0D1
:1022B000AAFF4400B173012008B5094BC3F10053D4
:1022C00003F58023B3F5006F08D206490648812242
:1022D00011F091F98121034811F086F9002008BD21
:1022E000A8FC0120229C03008A930300014B186084
:1022F000704700BF40450120F8B506460D46002452
:10230000064FAC4208DA3B6898470A28305504F17A
:10231000010401D00D28F4D12046F8BD3C45012030
:10232000F8B50D46094F461EC0F10104A3199D42A0
:1023300001DC2846F8BD73780A2B02D10D203B68DA
:1023400098473B6816F8010F9847EFE74045012092
:1023500008B505210148FFF7E3FFFEE7529C0300A3
:1023600010B5074C2368C2180648C0F1005101F5AA
:1023700080218A422EBF4FF0FF30C018226010BD6E
:10238000146D0120A8FC012010B5044650B9104975
:10239000104840F2771211F02EF940F277110C48F4
:1023A00011F022F914200EF06FFA206050B908499C
:1023B000084840F27F1211F01EF940F27F110448E4
:1023C00011F012F92068BDE8104014F0DBBB00BF2B
:1023D000229C03008A93030010B5044650B90A49B1
:1023E0000A484FF4D27211F006F94FF4D271064840
:1023F00011F0FAF84FF0FF322046BDE810404FF0E0
:10240000FF330BF037BC00BF229C03008A9303000C
:1024100010B5044650B9084908484FF4E07211F06D
:10242000EAF84FF4E071044811F0DEF82046BDE808
:1024300010400BF0F1BC00BF229C03008A93030004
:1024400008B51D210448FFF76BFF404080F3118859
:102450004FF0030002DF00BF589C030001282DE964
:10246000F0410F4609D004286BD011F067FB16230A
:1024700003604FF0FF30BDE8F0814FF02003EFF331
:10248000118483F31288BFF36F8F30480BF0A0FBE9
:1024900040B92F492F488E2211F0ADF88E212C48DB
:1024A00011F0A2F829480BF0AFFB2B4B27489D6891
:1024B000D3E900680BF09AFB40B925492548B922B9
:1024C00011F099F8B921224811F08EF884F311889F
:1024D000BFF36F8F14F010FC4FF47A720446A0FB28
:1024E000020302FB0131C00B4FF47A72002340EA71
:1024F0004140C90BFAF79AFE4FF0FA7C8619A0FB0F
:102500000C0E48EB01084FF47A7200230CFB01E13A
:10251000C7E90068FAF78AFE1049241AA4FB0140B3
:10252000E30B0F4A43EA40432B449342BB6006D976
:10253000013648F10002C7E900625B1ABB60002067
:1025400099E700252E46A846C4E700BF186D012074
:10255000C49303008A930300E04E012000CA9A3B13
:10256000FFC99A3B10B5044650B90B490B484FF4CC
:10257000F97211F040F84FF4F971074811F034F88E
:1025800023680C33D3E8EF2F42F00102C3E8E12FB8
:102590000029F7D110BD00BF8D9C03008A93030072
:1025A00002460B4601480BF065BB00BFC04D012041
:1025B00001480BF031BC00BFC04D012038B50546C5
:1025C0004FF0FF314FF0FF30FFF7EAFF00212846C0
:1025D00011F0D2FA044648BB2B6828469B7E2BB1EB
:1025E000FFF7C0FFFFF7E4FF204638BD11F0BFFA48
:1025F000044630B1846824B101212846A047041E56
:10260000F0DB2B681B6953B90A490B4840F6D572B9
:1026100010F0F1FF40F6D571064810F0E5FF2846AE
:10262000FFF7A0FF284611F0B0FADBE76FF0770460
:10263000D8E700BFBC9C03008A930300F8B54FF0B5
:10264000FF304FF0FF31FFF7ABFF114C114D124F30
:10265000AC4226460AD93946104841F2F00210F041
:10266000CAFF41F2F001384610F0BEFFAC4203D37E
:10267000BDE8F840FFF79CBF336804341B689B68D3
:10268000002BE5D01B68002BE2D030469847DFE7EF
:10269000604E0120644E0120BC9C03008A9303001D
:1026A00070B50E4C0E4D0F4EAC420AD931460E4855
:1026B00041F2221210F09FFF41F22211304610F039
:1026C00093FFAC4200D370BD0321204611F054FAB1
:1026D00010B92046FFF772FF0434E5E7604E012091
:1026E000644E0120BC9C03008A93030000232DE963
:1026F000F04F022889B006461546CDE90633019110
:102700003CD106A8049101461A4606E00C78013235
:1027100001340C70D4B2072C04D8019C34F8124058
:10272000002CF3D00133082B01F10101ECD14FF063
:10273000FF374FF00108002310F8012B424588BFF6
:102740005FB203F10103DBB288BF9046082BF3D1DF
:10275000B8F1010F9B464FF03A0A08BF4FF0FF3720
:10276000002128460C465C4517DBA84208D0002310
:10277000012E0CBF00F8013C037002E0012804D0D8
:102780000025284609B0BDE8F08F4FF0040B4FF04C
:102790002E0A4FF0FF378046E2E7BBF1040F3FD12E
:1027A000019B1A5D034642B9302203F8022B80F8E0
:1027B00001A001341846E4B2D5E74FF0000E4FF007
:1027C000090CCDF808E0DFF8ECE0B2FBFEF903926B
:1027D000CDF814900EFB1922DDF80890E14503DCDA
:1027E000DDF80C90F14507D3DDF81490CDF808C062
:1027F00009F1300903F8019B4FF00A090CF1FF3C85
:10280000BCF1FF3FBEFBF9FEDFD14FF000021A70B2
:102810001B1ADAB250FA83F3013300F802A0C8E7BA
:10282000A7420ED101B917B93A2300F8013B3A2269
:10283000034603F8012B08F1FF3214440021E4B2EF
:10284000B7E711B13A2300F8013B049B33F8142099
:1028500052BA12F47F4FC2F307235FFA82F918D0FD
:102860000F2BD9B20DD90023612211F09AF98446B9
:10287000012361224946604611F093F90346012184
:1028800097E7092994BF3031573100F1010C0170ED
:10289000EEE7B9F10F0F02D961224946ECE7B9F131
:1028A000090F94BF09F1300909F15709431C80F859
:1028B0000090E4E700CA9A3B2DE9F0410F6890F8D8
:1028C00084503B4B3B4A064690F88200053704286B
:1028D0000CBF104618460F600C4611F005FBC5F3FF
:1028E0004005034638B9D4E90020904296F882109A
:1028F00004D16FF00B031846BDE8F081501C206036
:102900001170D4E900829045F3D008F101022260F1
:1029100088F800302146B6F8800011F0D3FA03465B
:102920000028E8D106F1500011F0DEFA0346002835
:10293000E1D1706E6D00D8B196F8843045F0040591
:1029400003F0010345EA4315037A2146DB0003F057
:1029500018031D4311F0C8FA03460028CBD1B36E0B
:10296000214613B3184611F0BFFA03460028C2D11E
:10297000F06D38B1214611F0B7FA03460028BAD1FC
:1029800045F08005306E38B1214611F0ADFA0346AE
:102990000028B0D145F0400588F80050224639465D
:1029A000BDE8F041102011F0BABA11F08BFADCE763
:1029B0008884030090840300D0E900239B1A012B34
:1029C00081BF054B1B881380036883BF02334360BC
:1029D00000206FF00B007047E69C0300D0E9002355
:1029E0009B1A012B81BF054B1B881380036883BF93
:1029F0000233436000206FF00B007047E89C030037
:102A0000142290F824305343014AD358184700BF8A
:102A10009884030030B4142590F82440024B05FB41
:102A2000043330BC5B6818479884030010B4142446
:102A300090F82420024B04FB023310BC9B6818471B
:102A40009884030070B4142690F82450034C06FBBD
:102A50000544E468A44670BC604700BF9884030046
:102A6000142190F82420024B01FB02331B69184704
:102A70009884030008B50BF0CFF950B1054906481A
:102A80003D2210F0B8FDBDE808403D21014810F09E
:102A9000ABBD08BDF69C03008A93030008B54FF058
:102AA000FF324FF0FF330BF0E5F850B1054906480F
:102AB000332210F0A0FDBDE808403321014810F09A
:102AC00093BD08BDF69C03008A93030090F84C3038
:102AD000F7B5856D002B04463E49288808BF0121C3
:102AE0004FF48172FEF73EF90028A06205DA11F07A
:102AF00025F80068404203B0F0BD0423052200938E
:102B00004FF48D7104F12C0310F0FEFE002803DA5F
:102B1000A06A10F002FEEAE7636B002B2FD1E36B93
:102B2000002B3AD1666C002E45D1236C012B0BD1C2
:102B3000A06A04230A2200934FF48D7104F140032C
:102B400010F0E2FE0028E3DBA36C5BB1A06A042373
:102B50000A2200934FF48D7104F1480310F0D4FE63
:102B60000028D5DB2B88A06A012B0CBF0822182275
:102B7000A16D10F0F6FD0028CADB0020BBE7226B38
:102B8000002ACCD0A06A920000924FF48D710322EB
:102B900010F0BAFE0028C2DABAE7A26B002AC1D050
:102BA000A06A920000924FF48D71012210F0ACFEE9
:102BB0000028B7DAACE73046A76AFAF703FD02222D
:102BC000009033464FF48D71384610F09DFE00287A
:102BD000ABDA9DE70100004037B540230C460A49B7
:102BE0000093411A491105462346084A084811F046
:102BF000E3FE011E05DA2846234603B0BDE8304057
:102C0000184703B030BD00BF2C6D0120274A0300D8
:102C10008C7E030038B5CCB2012C054608D9084992
:102C20000848792210F0E7FC7921054810F0DCFC17
:102C30000C23296904FB0314A06C00F0070038BDC5
:102C4000279D03008A930300F8B5CCB2012C0546FA
:102C5000174606690AD91849184840F24D1210F073
:102C6000CAFC40F24D11144810F0BEFC4FF0200396
:102C7000EFF3118183F31288BFF36F8F0C2202FBF5
:102C800004639B6C13F0C00301D09F4211D1012358
:102C9000002002FB0466B36481F31188BFF36F8FD9
:102CA00030B90C23696803FB04146368984700205B
:102CB000F8BD4FF0FF30EFE7279D03008A93030034
:102CC00070B50D4606490446411A4911402205488F
:102CD000FFF7BAFF2B4601462046BDE87040184773
:102CE0002C6D01208C7E030070B50022012104466A
:102CF0000520FEF705FD0F4807F020FD0E4B98421A
:102D000015D107F03DFD26690C49304610F023FB34
:102D100000280BDB012524690849B56404F1200073
:102D200010F019FB002801DB0020656570BD6FF015
:102D30000400FBE7752D02000000AD0BF0840300DA
:102D400001460C2300224B43084870B5C418483391
:102D5000D4E910561844226411F01BFE2DB13246FE
:102D60002B46BDE870400248184770BD2C6D01200D
:102D70008C7E0300012808B506D0032808D0A0B92E
:102D80000F4B9B6C5B0719D1BDE80840FFF7D8BF1C
:102D90000C4940F25E220C4810F02DFC40F25E21FE
:102DA000BDE80840074810F01FBC064940F2622207
:102DB000054810F020FC40F26221F1E708BD00BF99
:102DC0002C6D0120279D03008A93030008B54FF066
:102DD0002003EFF3118183F31288BFF36F8F114A41
:102DE000136843F0020013F0010310600BD00E4A89
:102DF000D2F80C34D2F80C2413F0010303D00B48A2
:102E000011F0C7FD012381F31188BFF36F8F23B148
:102E1000BDE808400020FFF793BF0120BDE808404F
:102E200007F0D2BC846D012000500040746D012079
:102E30007FB500220123CDE9022304ABCDE90433A1
:102E4000094A6B46CDF800D0CDF804D011F0E4FD6E
:102E5000002805DB4FF48042002368460BF092F90E
:102E600007B05DF804FB00BF454A0300074BD3E8F9
:102E7000EF2F22F00201C3E8E01F0028F7D1D307AB
:102E800002D4012007F002BD704700BF846D01200D
:102E90002DE9F041012206464249D1E8EF3FC1E861
:102EA000E02F0028F9D19BB93F4940484B60CB60E7
:102EB0008A60FDF763F800280ADA3D493D484FF47F
:102EC000087210F098FB4FF40871394810F08CFB31
:102ED00086B3731E012B52D8012E06D1364BD3F880
:102EE0001C3403F00303022B24D013F02FFE0446FE
:102EF00018B9324B1B78002B4ED14FF02003EFF363
:102F0000118783F31288BFF36F8F01242A4DDFF8F6
:102F1000B080D5F81834D5F81824D2030CD503F0B6
:102F20000303022B01D0012E06D124B387F31188AD
:102F3000BFF36F8FBDE8F081C4B13846FEF78AFB5E
:102F4000D5F81835DBB2012BE3D1D5F80421002ADE
:102F5000DFD00022C5F80421D5F804210222C5F8EB
:102F600018252022C8F88021AB60D2E7002121205B
:102F70000CF054FCE4E70223C5F80433DAE70C490B
:102F80000C4840F2322210F036FBBDE8F04140F22E
:102F90003221074810F028BB0222074B0746C3F82E
:102FA0000823B3E7886D01201C6D01204C6D0120C2
:102FB000279D03008A9303000050004036A10120A2
:102FC00000E100E008B50848084B186013F09EFDCA
:102FD00038B10748FFF78AF90548FCF7DBFD002008
:102FE00008BD6FF01200FBE7D47E03008C6D01205A
:102FF000F52F02000A2838B50446074D04D1286889
:1030000083680D215B68984728688368E1B25B6834
:103010009847204638BD00BF8C6D012070B516461C
:103020000C46056941B91E491E48242210F0E3FAF6
:1030300024211B4810F0D8FA636843B9184919488D
:10304000252210F0D8FA2521154810F0CDFA6B682A
:103050005BB100229C4212D12368A96852B9A142F7
:103060006B6000D1AB60002323606EB9002070BD9F
:103070000B46EFE7A142136008BFAA60F3E71968A7
:103080001A460029F4D13EB16B68A86823606C60D1
:103090000028EBD1AC60EAE76FF01500E7E700BF6E
:1030A000849D03008A9303007FB5406801F01F04EC
:1030B000057BB2F5001F44EA45144FF0000504D12A
:1030C000204607F0F9FE00204BE0B2F5800FCDE975
:1030D000025548D1B3F1007F0CBF042305238DF8BE
:1030E0000830836823FA01F1C90748D4B2F1A07F00
:1030F00045D166090CBF4FF0FF33002304F01F05D4
:10310000EB40DA070AD42649264840F2292210F07B
:1031100072FA40F22921224810F066FA56B120498D
:10312000204840F22E2210F066FA40F22E211C4870
:1031300010F05AFA1C4B803553F82530DB071ED4AB
:103140000DF107052946204607F0E4FD174B98428C
:1031500014D1284607F03EFE154B98420ED06FF072
:103160000B0004B070BDB3F1C06F05D0B3F1007FA8
:103170000CBF02230123B2E70323B0E7039500232A
:103180002046194602AA07F09BFC094B984204D13D
:103190000121204607F024FE95E76FF00400E0E7E8
:1031A000B19D03008A930300002584400400AD0B09
:1031B0000000AD0B10B507F0FDFD044668B907F03F
:1031C000D1FD084B98420AD12146074807F09CFDE3
:1031D000224605213120FEF793FA002010BD6FF042
:1031E0000400FBE70000AD0BED3102002DE9F843D0
:1031F000430922D1124B5C68FCB101262568DFF837
:103200004480114FDFF844908640A3681E4210D0DE
:10321000636843B939464846452210F0ECF9452128
:10322000384610F0E1F9D4E90132214640463240F7
:10323000984715B12C462D68E7E7BDE8F88300BF35
:10324000906D0120A47E0300849D03008A930300F7
:103250002DE9F043476801F01F053B7B0E461446FD
:1032600085B045EA4315CAB902A9284607F052FDC0
:103270000446284607F04AFE494B984204D06FF0B6
:10328000040005B0BDE8F083844205D19DF8080034
:1032900007F09AFDA042F2D10020F2E74FF00009BA
:1032A0000DF103013046CDE9029907F033FD4B469D
:1032B00080464946284602AA07F002FC384B98424D
:1032C00002D06FF01500DCE7804503D19DF80300C4
:1032D00007F07AFDA3034FD540F2066340F20622C1
:1032E000234093423AD00CD8062B15D004D89BB17A
:1032F000022BE6D104230FE0B3F5007FE1D10123D7
:103300000AE040F2024293422AD0B3F5C06F29D0BE
:10331000B3F5806FD5D102238DF8043084F4803367
:10332000C3F30043E0068DF805304CBF0323C4F31C
:10333000401321038DF8063016D501217B6801FA70
:1033400006F69E600022284601A907F065FC144B92
:10335000984214BF6FF01500002092E70723DBE7C7
:103360000523D9E70323D7E7620341BF01217B6827
:1033700001FA06F6DE60E5E7E3064FF000034CBF16
:103380000324C4F340141A46284601A98DF80440CA
:1033900007F096FB024B98423FF47EAF91E700BFE7
:1033A0000000AD0B024B0B6001231360704700BFA0
:1033B0009C6D0120004870474485030070B50D46A0
:1033C0001946284616461C4611F05FFB40B90D48C9
:1033D00023462A46452110F048F96FF0150070BDCC
:1033E0006CB1B5F5E13F22462946304603DABDE827
:1033F000704010F020B913F0D6FD0020EFE7204612
:10340000EDE700BFEB9D030010B501220648114611
:1034100013F0D6FB12F0DFFC044C206012F0D8FC55
:103420006060002010BD00BFA46D01209C6D0120D4
:10343000F8B50E46144612F0CBFC21460546304640
:1034400011F023FB374648B3B6FBF5F305FB1363D6
:1034500023B9B4FBF5F005FB104040B123463246DA
:103460004521114810F001F96FF0150015E0A54253
:1034700013D84FF0FF324FF0FF330C480AF082FEB2
:1034800012F0A6FC0546384607F03AFF641B2F44AD
:10349000F9D106480AF03CFE2046F8BD23463246E4
:1034A00045210348DEE700BF0D9E0300A46D012007
:1034B000EB9D0300F8B50E461946304617461C46EC
:1034C00011F0E3FA40B9234632464521174810F07F
:1034D000CCF86FF01500F8BD44EA060515F00305B9
:1034E00004D02346324645211148F0E7DCB14FF0C5
:1034F000FF324FF0FF330F480AF044FE24F003047C
:10350000AC4205EB060009D10B4AD2F80034DB07C8
:10351000FBD508480AF0FCFD0020DCE7795907F0EC
:103520001FFF0435ECE72046D5E700BFEB9D030005
:10353000319E0300A46D012000900340F0B54B794B
:10354000012B26D0032B21D110268B79032B1DD1E3
:10355000CC790CB1012C19D10A7912B1022A15D1FA
:103560000E220B684568B3F5164F2D6865D02DD82F
:10357000B3F5165F64D016D8B3F5966F62D00AD84B
:10358000B3F5967F61D0B3F5167F61D06FF08500FB
:1035900052E00026D9E7B3F5166F5CD0B3F5965F1D
:1035A000F4D1374B3CE0B3F5E14F57D007D8B3F532
:1035B000615F55D0B3F5964FE8D1324B30E047F616
:1035C0001227BB42E2D14FF4000329E0B3F5613F7B
:1035D00048D013D8B3F5963F47D009D84DF6C02749
:1035E000BB4244D0B3F5614FD0D14FF46B0317E029
:1035F000B3F5E13FCAD14FF0EB7311E0B3F5612FA2
:1036000038D008D8204FBB4237D0B3F5E12FBDD119
:103610004FF0E86304E01D4FBB42B7D14FF0805339
:1036200000693443C5F824352243031DC5F86C25D1
:1036300003C983E803000020F0BD4FF41D03EFE74A
:10364000134BEDE74FF49E23EAE74FF4A033E7E78F
:103650004FF41C33E4E74FF41D23E1E70D4BDFE7A4
:103660000D4BDDE74FF06C73DAE70C4BD8E74FF406
:103670006503D5E74FF07063D2E74FF08063CFE783
:1036800000B0130000A04E0090D0030040420F0095
:103690000050270000C0750000F03A0000903A0189
:1036A0002DE9F7430746002201210820FEF728F8FC
:1036B0000820FEF707F80021D7F804803E69D8F803
:1036C0000040D8F80C90C4F800154846376001AAAD
:1036D00011F0D1FB051E1FDB019BD9F800201979E1
:1036E000186811F01DFC051E16DB3846311DFFF76A
:1036F00025FF054680B9D8F8043099072BD506F187
:10370000160007F013F9294B984209D045212848A3
:103710000FF0ABFF6FF00405284603B0BDE8F0835F
:10372000B77D14F10C0F47F00047C4F8A0710AD11F
:103730002049214840F24E220FF05DFF40F24E2119
:103740001C480FF051FF0123C4F88C70B27D9340E8
:103750001A4AC2F804350823C4F8003598F808302E
:103760005BB9C4F81031D4F8103106F11503C4F870
:1037700034350123C4F838352360D8F804301436C2
:103780009A075CBF4FF48072C4F80423DB0644BF81
:103790004FF48003C4F804330023C4F84465C4F82C
:1037A00048350123A360E360B6E700BF0000AD0B1E
:1037B0005E9E0300829E03008A9303000070014016
:1037C000F8B505460F46066913F0C0F910B9204B4D
:1037D0001B7883B94FF02003EFF3118483F3128831
:1037E000BFF36F8F686811F090FA28BB84F31188DB
:1037F000BFF36F8FEEE76424686811F086FA70B942
:10380000012012F06BFA013CF6D1002121200CF0CE
:1038100005F8F0E784F31188BFF36F8FF5E74FF0F9
:103820002003EFF3118483F31288BFF36F8F68686E
:1038300011F06BFA0028EDD0314601F8147F012217
:10384000686811F047FA84F31188BFF36F8FF8BDF1
:1038500036A1012038B50C46154640B90D490E4831
:1038600020220FF0C8FE20210A480FF0BDFE44B907
:103870000849094821220FF0BEFE212105480FF01A
:10388000B3FE294620460CF0C9FE002818BF1620BA
:1038900038BD00BFD19E03008A93030001238340FB
:1038A00010B5DC430C4AD2E8EF1F01EA040CC2E871
:1038B000EECFBEF1000FF6D14FF4803202FA00F0E5
:1038C000064AC2F80803BFF35F8FBFF36F8F0B4246
:1038D00014BF0120002010BDC06D01200050014028
:1038E0001949F8B5044622F07F450868C1E900236C
:1038F000A5F50013101AB3F5400F22D2134B1B6825
:103900001A0A1B065E19124B42F10007C3E9006751
:1039100001260CF067FAA30003F1804303F5A833F6
:10392000D3F84025AA420BD11EB94FF40002C3F8C8
:1039300040254FF48030074B00FA04F4C3F84443A9
:10394000F8BD0026E5E700BF084F0120C46D012047
:10395000F04E012000500140E1B101230E4A8340A6
:10396000D2E8EF1F1943C2E8EC1FBCF1000FF7D1FA
:103970004FF48033094A8340C2F80433084BD3E83C
:10398000AF3F23FA00F0C30742BF4FF40012054BCC
:10399000C3F80021704700BFC06D012000500140F6
:1039A000BC6D012000E100E00D4B1868010A000623
:1039B000BFF35F8F0B4BD3F80435181841F10001AA
:1039C000B3F5801F0AD2084BD3E90023904271EB74
:1039D000030303D210F1807041F10001704700BF72
:1039E000C46D012000500140F04E01202DE9F04F40
:1039F00085B0164698460546FFF750FF0090FFF742
:103A0000D3FFB04271EB080376D2434B301A68EB18
:103A10000101984271F100037BD2404B03EB051387
:103A2000D3E902ABD84508BF564550D04FF4803398
:103A300026F07F4214464FEA850905F1500709F147
:103A40008049BF00AB4009F5A839BFB207F18047F4
:103A50000193D9F84005324B07F5A837D3F8041580
:103A6000401A20F07F4021F07F4C0128C9F840C562
:103A700007D1CDE90221132013F040F9DDE902213D
:103A8000274B01F1020CA4EB0C0020F07F40B0F5B5
:103A9000000F88BF64460020386038680198C3F87A
:103AA000440324F07F40C9F84005D3F8040581425F
:103AB00006D0201A023820F07F40B0F5000F19D848
:103AC000A41A24F07F4414EB060A48F1000B0024EA
:103AD00012490E982B0101EB0512C850C2E902AB46
:103AE0000F9B536028460099FFF736FF204605B02C
:103AF000BDE8F08F2046B1E701230A4AAB40D2E887
:103B0000EF1F1943C2E8E01F0028F8D1B246C346B0
:103B1000DDE76FF01504E5E701000001F84E012034
:103B200000500140BC6D012073B500244FF0FF3000
:103B30004FF0FF31164D174BC5F80845C3E9020198
:103B40004FF4803302264FF40012C5F80433124BB1
:103B50000121C5F804631520C3F880212246FDF732
:103B6000CFFD1520FDF7AEFD01230C4AAB602B60A5
:103B700013600B4B0B4A0093204600230194FFF780
:103B800035FF3046FFF784F9204602B070BD00BF14
:103B900000500140F84E012000E100E0C06D01201E
:103BA000E1380200FFFF7F00354B2DE9F743D3F8E2
:103BB000042391070BD5D3F8042142B10022C3F8A6
:103BC0000421304AD3F804311368013313604FF0F5
:103BD0002003EFF3118183F31288BFF36F8F284B1B
:103BE000D3F80423D2030ED5274AD2E8EF0F20F0F2
:103BF0000104C2E8E54F002DF7D1002837D1D3F8F2
:103C00004021002A33D1002381F31188BFF36F8F45
:103C100053B3FFF7C9FE4FF02003EFF3118783F38F
:103C20001288BFF36F8F194BD3E90245A04271EBA5
:103C300005024FF0000221D3D3E900164FF0FF3800
:103C40004FF0FF391A604FF48032C3E902890C4B00
:103C5000C3F8482387F31188BFF36F8F21B1224641
:103C60002B4600200096884703B0BDE8F083002271
:103C7000C3F84021D3F840310123C5E71146E9E7F5
:103C800000500140C46D0120BC6D0120F84E0120A0
:103C9000431C13B520D0012820DDB0F5000F1FDA3A
:103CA000441EFFF781FE0F4BD3E90013401AB0F515
:103CB000000F28BF0024013002190B48824228BFA0
:103CC00002460020521809490190009143F1000377
:103CD000FFF78CFE02B010BD0348E1E70024E0E7E7
:103CE000014CDEE7084F0120FFFF7F00E1380200B2
:103CF00008B5FFF759FE024B1B68C01A08BD00BF8C
:103D0000084F0120036810B55A090CBF4FF0FF326D
:103D1000002203F01F0322FA03F3DB0704460AD450
:103D20000E490F4840F229220FF065FC40F229218C
:103D30000A480FF059FC236803F01F025B09226058
:103D40000AD00649064840F22E220FF054FC40F2F9
:103D50002E2102480FF048FC024810BDB19D03001F
:103D60008A93030000258440D0E9002345210148BF
:103D70000FF07BBC0F9F0300F8B5214D214C2B7831
:103D800033B9C4E90033204812F0FCFE01232B7044
:103D900000222A201146FDF7B3FC00211B4809F040
:103DA000F1FA1B4F38604FF0FF324FF0FF331648E7
:103DB00009F060FF2068D8B1046804300AF0A8F95F
:103DC000B4B120462468F8E7D4E900313868984750
:103DD0000834B44208D929460E489B220FF00BFC48
:103DE0009B2128460FF000FCB442EDD30020F8BD23
:103DF00005480AF011F8084C084E094DE9E700BFE4
:103E0000D2730120CC6D0120D46D0120D485030034
:103E1000C86D01208A93030010DA030020DA030042
:103E2000309F0300014B1868704700BFC86D012028
:103E3000104BF0B51A68104B01460A2500261846AB
:103E40001F4604688C4211D08CB14468141BB442E4
:103E5000C8BF034600F10800C8BF2646B84201D3D8
:103E6000013DEED11846013A19605A60F0BD034693
:103E7000F8E700BF4C6E0120746E01200020054B56
:103E8000C3E90000044BD3E8EF2FC3E8E10F00299A
:103E9000F9D170476C6E01204C6E01202DE9F0477E
:103EA00088B00C4612F02FFE814620B96FF06D00ED
:103EB00008B0BDE8F08712F01FFF23680546002B0D
:103EC0000F4604D10BF09CFB6FF00A00F0E7BCBF7B
:103ED0004FF0FF3323600122002102A812F070FE90
:103EE00001AE4FF02003EFF3118A83F31288BFF382
:103EF0006F8F0BF0C3FCFFF79BFFDFF81C8143685B
:103F0000D8F8002093424FF0000307D10193434BB0
:103F10005A68002A70D1C3E9006601E09946426000
:103F20008AF31188BFF36F8FB9F1000F62D0236855
:103F30005A1C64D04FF4004E40F2E730002123EACF
:103F4000E37C4FF47A720023CCFB0E01F9F76EF993
:103F500002460B4602A80AF015F94FF02003EFF3D2
:103F6000118983F31288BFF36F8F00212B4A1368E6
:103F70005BB1B3424CD101985668002943D19E42AF
:103F8000106000D15060002301930BF077FCFFF725
:103F90004FFFD8F80030436089F31188BFF36F8F6B
:103FA00012F0B1FD002881D02668731C22D012F0D7
:103FB000A3FE4FF47A7EA0FB0E30A5FB0E250EFB70
:103FC00001010EFB0757DB0BD20B43EA414342EAE8
:103FD00047429B1A4FEAD13161EBD7314FEAE67C79
:103FE000F31A6CEB01010029B8BF00232360002BFA
:103FF0003FF46AAF00205BE716605E6090E74FF029
:10400000FF321346A6E79E42086008BF5160BAE738
:1040100019461B68ACE700BF4C6E01206C6E012096
:1040200010B5041E08DC06490648F1220FF0E3FA39
:10403000F12103480FF0D8FA0FF080FD046010BDA5
:10404000629F03008A93030003682DE9F041044650
:104050000E461746144D2BB1AB4203D305F1600257
:1040600093421AD3DFF8448098F80030032B0AD922
:104070000F49104840F205120FF0BDFA40F2051149
:104080000B480FF0B1FA98F800305A1C03EB4303C9
:1040900005EBC30588F80020256020683A463146C4
:1040A000BDE8F04112F08CBDEC6D0120D37301200E
:1040B000629F03008A93030010B5044628B10B4B9E
:1040C000984202D3603398420AD3094909484FF411
:1040D00088720FF090FA4FF4887105480FF084FA57
:1040E0002046BDE810400AF013B800BFEC6D012077
:1040F000629F03008A93030070B50C46054628B101
:10410000174B984202D3603398420AD31549164898
:104110004FF48D720FF06FFA4FF48D7111480FF05C
:1041200063FA631C17D04FF4004640F2E7300021D9
:1041300024EAE4744FF47A720023C4FB0601F9F711
:1041400075F802460B4628460AF01CF8002818BFEE
:104150006FF00A0070BD4FF0FF321346F3E700BF67
:10416000EC6D0120629F03008A9303004FF08052A0
:10417000014BC3F80021704700E100E04FF080528E
:10418000014BC3F88021704700E100E04FF000527E
:10419000014BC3F80021704700E100E04FF00052EE
:1041A000014BC3F88021704700E100E010B5084BD7
:1041B000D3E8EF2F0132C3E8E12F0029F8D1054BF6
:1041C0001C6824B1201D09F0A3FF2468F9E710BD85
:1041D0004C6E01206C6E0120014600220023014834
:1041E00012F0AABC044D01200146014809F064BB4D
:1041F000044D0120014600220023014812F09CBC1E
:104200001C4D01200146014809F056BB1C4D012000
:10421000014600220023014812F08EBC546E01209A
:104220000146014809F048BB546E012008B510F062
:1042300008FF0023054A06491360064A0648136032
:10424000BDE808404FF4005212F06EBCE86D01204A
:10425000E8040120506E0120546E0120012821D075
:10426000B0F58D7F26D101390B2923D8DFE801F085
:10427000060A0C0E101222222214161802231360B2
:10428000002070470523FAE70623F8E70723F6E73F
:104290000423F4E70123F2E70323F0E70923EEE721
:1042A0000823ECE7372905DC132906DC022959D05D
:1042B0000429EDD04FF0FF30704714392329F9D885
:1042C00001A353F821F000BF594302005D430200EF
:1042D000B5420200B5420200B5420200614302004D
:1042E000B5420200B5420200B5420200B5420200EA
:1042F000694302006D43020071430200B5420200AF
:10430000B5420200B5420200B5420200B5420200C9
:10431000B5420200B5420200B5420200B5420200B9
:10432000B5420200B5420200B5420200B5420200A9
:10433000B5420200B5420200B5420200B542020099
:10434000794302007D43020081430200854302005D
:104350008943020075430200142390E715238EE77A
:1043600019238CE711608BE71E2388E71F2386E75C
:10437000202384E7372382E7332380E732237EE755
:1043800034237CE735237AE7362378E74FF0FF3292
:10439000054B00201A609A601A619A611A629A624B
:1043A0001A639A63704700BFC86E01202DE9F04F71
:1043B000A1F5817391B0032B78D8DFE803F0940264
:1043C00008736FF05E04204611B0BDE8F08F4FF027
:1043D000000AD2E900980021D2F808B068464022CD
:1043E00012F001FE6E464D464F46544653463F4935
:1043F000D0450ADC002CE6D15A464146684612F008
:1044000070FAA04526DC0446DDE73868B380002852
:10441000FB8005DA30600AF1010A08360837E7E761
:104420008622FBF7E5FA0023304978B10268326052
:10443000B888C20742BFB28842F00102B280420788
:1044400042BFB28842F00402B280E4E72022013485
:10445000FA80EDE759F83430002B20DB0DEBC40374
:10446000DB88DF0742BFEA8842F00102EA805E078C
:1044700042BFEA8842F00402EA80190742BFEA8894
:1044800042F00802EA809A0642BFEA8842F020021F
:10449000EA80DB0642BFEB8843F01003EB80013477
:1044A0000835AEE71368002443608CE703290068F1
:1044B0000BD0042910D1126832F480430CD192132E
:1044C00011B0BDE8F04F12F0A1BA002212F09EFA2E
:1044D000840304F4804476E70FF030FB16234FF09A
:1044E000FF3403606FE76FF011046CE7048603008C
:1044F0000122034B1860036802489A76FCF78ABDD4
:10450000C46E0120FC8503000C4B1B788BB90C4B4F
:104510001B7883B1A2F58073022B08D9A2F58870AD
:1045200001288CBF0020012080F00100704701208D
:10453000FAE7002070470120704700BF5474012043
:10454000557401202DE9F04F14460E4600218BB022
:104550000546202202A81F46019112F044FDFCB13D
:10456000626802F48063D20448BF43F4805302932C
:10457000E36804932389032B00F2D5806D4AD35658
:1045800013F16A0F00F0CF802069039310F072FDE1
:1045900005907B3000F0CA80E36903B1089302AC58
:1045A0004FF0FF324FF0FF33634810F0A8FE224671
:1045B0003146284601AB07F0F9FB0446002843D0FA
:1045C0006FF480731C44142C30D8DFE804F0A90B7E
:1045D0003A142F2F2F2F2F2F2F2F2F171A1D202355
:1045E00026292C006FF00204534810F08AFE204662
:1045F0000BB0BDE8F08F6FF00304F5E76FF0050432
:10460000F2E76FF00904EFE76FF00404ECE76FF0F6
:104610000104E9E76FF00704E6E76FF00604E3E75B
:104620006FF06304E0E76FF00A04DDE743494448B4
:1046300040F2A5120EF0DFFF40F2A5113F480EF048
:10464000D3FF4FF0FF34CFE781468046019EDFF86D
:10465000F4A038601EB9019811F069FDC4E750203C
:1046600012F019FC0546002849D0D6F804B0B3680A
:10467000BBF1050FC0F80080C0F81C80C0F80480B2
:10468000C3603FD81AF90B3013F16A0F3AD0836038
:10469000F06810F0EFFC28617B3007D1C5F8188076
:1046A000284612F0F1FB6FF0060430E0BBF1010F79
:1046B00014D1082012F0EFFBA861E8B108236B6168
:1046C00073691A89DB684280A0F800B04360B9F1D1
:1046D000000F22D13D60A946F669BBE7BBF1020F8E
:1046E000DED1182012F0D7FBA86128B11823716918
:1046F0006B6110F035FDEAE7284612F0C5FB6FF05C
:10470000090404E0284612F0BFFB6FF00804386883
:1047100010F019FD00233B609DE7C9F80050DAE76F
:104720006FF0080460E76FF0080460E76FF00604BC
:104730005DE700BFDC9F0300984D01209D9F0300B3
:104740008A930300E09F03002DE9F34780469146DA
:104750000C46F9B100231A46C868984224D1802A31
:104760006DD800254FF0FF324FF0FF33364810F080
:10477000C6FD2F46354EE3689D421CD300263546C4
:10478000DFF8C8A0B74201DD002D25DA2E4810F071
:10479000B8FD05E00FF0D2F916234FF0FF350360A6
:1047A000284602B0BDE8F087A16801EBC301496863
:1047B00001330A44D1E7A168F01901EBC5035A6837
:1047C00051F8351012F0EFFBA3684FEAC50A5344C5
:1047D0005B6801351F44CEE76368BA1B0193236809
:1047E0000AEB0601009340464B4610F0E6FC051E1E
:1047F000C8BF7619C6E7A3684FEAC60A03EBC6032B
:104800005B6833B10027A36803EB0A025268974242
:1048100004D30136E368B342EDD8C1E753F80A1078
:10482000636839440193236840460093D21B4B468A
:1048300010F0C3FC011E05DB0F440D44E3E7002626
:104840003546E7E70D46ABE7D44D0120D473012090
:1048500038B54FF0FF324FF0FF3304460B4810F0ED
:104860004EFD00230A4A52F83310013108D102EB01
:10487000C30542F83340054810F043FD284638BDD3
:104880000133082BEFD10025F5E700BF704D012063
:10489000C86E012038B5094D04464FF0FF32284656
:1048A0004FF0FF3310F02BFD00234FF0FF3228466E
:1048B000C4E90023BDE8384010F023BD704D01204D
:1048C0002DE9F0438BB007460C461546FBF7C2F8BE
:1048D0000646002E386823DB2CB33DB32B686A46AE
:1048E000082B0CBF1023242301AF0093394611F08D
:1048F00044FDB0F100093BDBFFF7AAFF8046C0B9D9
:104900000FF01CF90C230360484611F083FCB8F14A
:10491000000F02D04046FFF7BDFF3046FBF7E8F836
:104920004FF0FF3617E022462746DFE72A462F469C
:10493000DCE75CB155B17B68012B10D108222A60FD
:10494000BDF80C202380049B6280636041463046A2
:104950000A4AFBF7B5F830460BB0BDE8F083022BEE
:10496000D2D1182320462B6001A910F0F9FBEDE706
:10497000B9F1FF3FD1D04FF00008C5E7048603002E
:104980002DE9F0410E1E0546174615DA0AF0F2F839
:10499000DFF8A480012388F800303A46284626F044
:1049A0004041FCF7DFF9002388F8003004460AF0A4
:1049B00081FD2046BDE8F081730004D50AF0DAF8E5
:1049C000DFF87880E6E7FBF745F8041E0EDBADB2B2
:1049D000032D04D81A4B5D5715F16A0F09D10FF05A
:1049E000ADF86A2303602046FBF782F84FF0FF34EE
:1049F000DFE7384610F03EFB10F17B0F024603D193
:104A00000FF09CF87B23EDE72846314611F0A0FB20
:104A1000051EE8DBFFF71CFF014638B90FF08EF8E2
:104A20000C230360284611F0F5FBDCE72046054A1D
:104A3000FBF746F8BDE700BF547401205574012010
:104A4000DC9F03000486030008B5054808F092F8CF
:104A5000024618B1452103480EF007FE002008BDAC
:104A6000694A0200E69F0300F8B5044640B931499F
:104A7000314824220EF0BFFD24212E480EF0B4FD53
:104A80002E4D2F4E2B4FB54208D939462A482A229F
:104A90000EF0B1FD2A2138460EF0A6FDB54210D326
:104AA000284D294E234FB54208D939462248322293
:104AB0000EF0A1FD322138460EF096FDB5420FD31F
:104AC000F8BD2B7A23B9296821B920466B6898472D
:104AD0000C35D8E7204612F072FC0028F5D1F7E734
:104AE0002B7AC3B9296889B92046F8F76BFD0022F3
:104AF000411D0023154812F01FF8054668B92246EB
:104B0000BDE8F840572112480EF0AFBD204612F024
:104B100056FC0028E8D10C35C5E72146043012F0D8
:104B2000FFFB29460B4812F040F8BDE8F8400A4860
:104B300009F0CEBD18A003008A9303005C4C01204D
:104B40005C4C0120E44B01205C4C0120EC4C01202A
:104B500044A00300444E0120744501202DE9F84390
:104B6000DFF86090184F00220023484609F074FADD
:104B7000054610BBBDE8F883237A2BB921682E1DAA
:104B8000A9B93046636898470C34BC4208D94146FD
:104B90000E4853220EF02FFD532140460EF024FD07
:104BA000BC42E9D329460A4808F086FEDBE73046D6
:104BB00012F005FC0028E4D1E6E7064CDFF8188087
:104BC000E3E700BF444E01205C4C01208A930300C0
:104BD000EC4C0120E44B012018A0030038B5054D32
:104BE000441E14F8011F01B938BD286883685B684A
:104BF0009847F6E71C6F012008B50C4B0C4A4FF4A0
:104C00008051184607F0E2FF021E03DA45210948E9
:104C10000EF02BFD0548FFF7E1FF0022064B1A704E
:104C2000064B1868BDE8084010F00DBC5674012012
:104C3000E4C0030080A00300568401201C6F012003
:104C400001222DE9F0433A4B85B01A70394808F03B
:104C500037FC394E306080B9364A452137480EF06E
:104C600004FD6FF01502452135480EF0FEFC6FF093
:104C70000D05284605B0BDE8F0834FF47A7712F0B1
:104C80003BF8B846A0FB070407FB0144C00BDFF864
:104C9000B49040EA4444306883689B68BBB198474D
:104CA000054660B312F028F8A0FB083007FB0100AE
:104CB000DB0B43EA40431B1BB3F5FA7F2A4609D9B5
:104CC000452121480EF0D1FC6FF00402CBE76FF0D4
:104CD0005705E7E7492148460EF0C7FC306883686E
:104CE0009B6903B9FEE701220DF10F0198470028E7
:104CF000F4D100214FF4A4700AF090FDCBE73068A6
:104D0000836823B19B6C13B12A4610499847104918
:104D1000104809F031FC00234FF4806200930E49E3
:104D20000A230E4809F0DAFC306810F08CFBA0E78B
:104D300058840120BA9E03001C6F0120ABA0030021
:104D400035A10300FBA00300C0A00300614D0200D9
:104D5000F94B02000C6F012068A60120104F0120C2
:104D6000F7B5044683685B6C03B19847A3685B6B37
:104D7000C3B93A4E3A4D3378C3B9A3689B692BB196
:104D8000012220460DF10701984778B19DF80720D0
:104D9000082A01D07F2A0BD12B68002BEBD0013BD6
:104DA0002B60E8E7204698470028E2D103B0F0BD29
:104DB0002C490B7883B90A2A18D00D2A08D05AB981
:104DC000294B1B7863B3572128480EF04EFCD2E7DD
:104DD00025480078012823D02F68781CB0F5805F23
:104DE00013D3452122480EF040FCC4E71E4800784A
:104DF000022815D00328EFD12F68002FECD01D48D2
:104E0000384410F8010C0D28E5E7DFF868C0222AC5
:104E10000CF807202860AED183F001030B70AAE7DD
:104E20000022144B0A70194628682A601A5413F895
:104E3000012B202A02D8002AF9D19CE70B78002BFD
:104E400099D00D4B18688368DB6A03B1984701233A
:104E50000A490B48337009F0E7FB8CE756840120C0
:104E6000086F012057840120588401205CA10300B1
:104E70008DA10300567401201C6F01200C6F0120CE
:104E8000104F0120064BC35C03F00303022B08BF45
:104E900020384138C0B219288CBF0020012070474B
:104EA0000ED70300F8B505460024094E56F8047BDA
:104EB0003846F8F787FB39460246284612F038FA9A
:104EC00020B10134042CF1D10020F8BD0120FCE711
:104ED0004486030010B50446F8F774FB012821D975
:104EE000237812495A5C02F00302022A08BF203BD1
:104EF000412B17D16378CA5C02F00302022A08BF73
:104F0000203B542B0ED1A278252A0DD002F0F703B6
:104F1000232B09D0104610F09DFA10B9B2FA82F096
:104F2000400910BD0020FCE70120FAE70ED703007E
:104F30002DE9F0430568A3B000952B7880460F4615
:104F40001646002B00F0CA80664B1C78062C10D148
:104F50006B1C0093009A1078FFF794FF30B9531B35
:104F60002A463946304610F0DEFA1CE00132009243
:104F7000F0E7072C25D1684610F075FA5A4A009BD5
:104F80001978895C490715D12A465B1B394630469A
:104F900010F0C9FA009B1A783D2A0ED15A783F2AA0
:104FA00001D1023300930020009BC8F8003023B0E9
:104FB000BDE8F08301330093E1E73F2AF3D10133E9
:104FC000F0E7082C03D1104610F07FFAEBE7022C33
:104FD00011D1009A1178084610F03CFA18B911B1B5
:104FE00001320092F5E7531B2A463946304610F04D
:104FF0009AFA009BE3E7032C09D1009B1A78222A36
:1050000003D012B101330093F7E75B1BECE7012CEF
:105010003CD128460A2201A90CF09CFB019B334D90
:105020000290009300980378292B1FD0F3B12C3BFA
:10503000DBB20130112B009026D825FA03F3DB07F1
:1050400022D50A2201A90CF085FB22AB04F101094B
:1050500003EB840444F8800C0098F8F7B3FA044694
:105060000198F8F7AFFA844207D14C4639463046EA
:10507000A30002AA10F07DFABBE7019BB9F1200F53
:105080000093F2D04C46CDE7A146FBE7042C0DD1AE
:105090000A22284602A90CF0E1FA0B4602990246C0
:1050A00000913046394610F027FA7CE7052C0BD1E9
:1050B0000D49009B1A78525C12F0440F01D15B1B22
:1050C0004EE701330093F4E7092C7FF46CAF009BAB
:1050D0001A78002AF3D001330093F8E74FF0FF303D
:1050E00065E700BF5A8401200ED70300014002008B
:1050F00070B505460468644E002937D123782B2B00
:1051000001D0252B32D10622604B20461A7060490F
:10511000052212F00DF920B90120307000202C601A
:1051200064E0052220465B4912F002F90028F3D022
:105130000B222046584912F0FBF80028ECD00A2236
:105140002046564912F0F4F80028E5D00B222046FC
:10515000534912F0EDF80028DED0072220465149CD
:1051600012F0E6F8B0FA80F04009D6E7337813B1D0
:10517000464B022243E0002939DD2246164612F84A
:10518000010B10F067F90028F8D13046F8F71AFA49
:10519000032870D93378444A995C01F0030102294D
:1051A00008BF203B412B66D17378D15C01F003012D
:1051B000022908BF203B542B5DD1B378D15C01F0AC
:1051C0000301022908BF203B2B2B0AD0252B52D1EB
:1051D000F378D25C02F00302022A08BF203B582B6E
:1051E00049D009226FF00100284B1A7070BD08D118
:1051F0002046FFF76FFE254B0028BAD007221A7011
:105200008CE72278284BD35C590703D42D2A01D090
:105210002B2A02D104221D4BF1E7222A06D0282A8C
:1052200009D10122194B14441A7077E70322174B56
:1052300001341A7072E7104610F00CF978B1134976
:105240000B78042B08D114F8010F10F003F9002893
:10525000F9D105230B7061E7082B3FF45FAF2C3ABF
:10526000D2B2112A0CD8114B23FA02F2D30707D578
:105270000822064BC3E723782B2B01D0252BC0D166
:105280004FF0FF302C60B1E7598401205A8401208F
:10529000BAA10300C0A10300C6A10300D2A103006C
:1052A000DDA10300E9A103000ED7030001400200C5
:1052B0002DE9F04F894616461F46804685B00028E6
:1052C00000F09780002A00F094805368002B00F0D3
:1052D000908000252C46104600F0E8F83368CDF8A1
:1052E0000C809F4228BF1F46434B1D70434B1D70CF
:1052F000039B1A78002A55D0A74253D9404903A8E6
:10530000525C110748BF0133214648BF0393FFF7A2
:10531000EFFE421C46D0023008BF00243246214630
:1053200003A808BFCDF80C80FFF702FE013039D08A
:10533000039A13782C3BDBB2112B1BD8314921FA8D
:1053400003F3DB0716D5507810F084F878B10134F8
:10535000BC4246D0214603A8FFF7CAFE013021D047
:105360003246214603A8FFF7E3FD01301AD0039B24
:1053700001330393DDF80CB09BF8000010F06AF8DD
:1053800050B30BF101010191A1EB0B0A11F8012BB4
:10539000104610F05FF8019B0028F4D19AB9039BE6
:1053A00053440393039CF5B923781BB12046FFF7C0
:1053B00079FDD8B10020B9F1000F01D0C9F8004043
:1053C00005B0BDE8F08F2B2AE9D0252AE7D0184692
:1053D000FFF768FD0028E2D10134BC4208BF012577
:1053E00086E70546DEE76FF00600E4E76FF00A00A7
:1053F000E1E76FF01500E3E75A84012059840120AA
:105400000ED703000140020038B50D46044640B9EE
:10541000084909482B220EF0EEF82B2105480EF022
:10542000E3F82368AB428ABF6068002000EB0510F8
:1054300038BD00BF14A203008A93030010B50446D0
:1054400040B90A490A4839220EF0D5F839210748EF
:105450000EF0CAF82378012B04D0023B012B03D8AD
:10546000606810BD0820FCE70020FAE714A20300E2
:105470008A93030010B5044640B90A490A481D2220
:105480000EF0B9F81D2107480EF0AEF82378023B64
:10549000012B02D8A06811F0F7FC00220023C4E918
:1054A000022310BD14A203008A9303002DE9F041EA
:1054B000044640B1436833B100260F4FDFF83C800B
:1054C00023689E4201D3BDE8F081656805EB0615AF
:1054D0002846FFF7CFFF45B93946404614220EF063
:1054E0008AF8142138460EF07FF810220021284651
:1054F00011F079FD0136E3E714A203008A9303005B
:1055000010B5044690B040220021684611F06BFDB2
:1055100054B90F490F4840F20B120EF06CF840F2EC
:105520000B110B480EF060F80122204602A900F092
:1055300081FE024628B1452107480EF096F810B0CA
:1055400010BD032368468DF8003000F0A9FDF6E792
:1055500042A203008A93030070A2030010B5044620
:1055600090B040220021684611F03DFD54B90F492A
:105570000F4840F225120EF03EF840F225110B487C
:105580000EF032F8204602A9F8F7A6F8024628B134
:10559000452108480EF069F810B010BD0223684696
:1055A0008DF8003000F07CFDF6E700BF42A203005A
:1055B0008A9303009CA2030010B5044690B04022D9
:1055C0000021684611F00FFD54B91249124840F20B
:1055D00039120EF010F840F239110E480EF004F8AE
:1055E000204602A900F042FF024628B145210B489F
:1055F0000EF03BF810B010BD029B039AA3F59C532C
:10560000083B1343F6D1062368468DF8003000F0BE
:1056100047FDEFE742A203008A930300BDA2030007
:1056200030B5054691B040220021684611F0DBFC00
:1056300055B9214921484FF4AA720DF0DCFF4FF40F
:10564000AA711D480DF0D0FF284600F05DFF04460A
:1056500000F0EEFC50B95CB12046102111F01FFCA7
:10566000044628B9452116480DF0FFFF11B030BDA2
:10567000284602A90F9400F063FFC31D024606D01E
:1056800001280DD945210F480DF0EFFF0EE05721FD
:105690000D480DF0EAFF0A2257210C480DF0E5FFF6
:1056A000072368468DF8003000F0FAFC002CDDD0AE
:1056B000204611F0E9FBD9E742A203008A930300D8
:1056C000F6A2030093A3030028A3030054A303003E
:1056D00010B5044690B040220021684611F083FCCA
:1056E00054B91949194840F289120DF084FF40F26B
:1056F000891115480DF078FF204602A901F06AF8DB
:10570000024628B1452112480DF0AFFF10B010BD80
:105710009DF808305A1E012A01D9042BF6D1DDE983
:105720000412A1F59C53083B134306D10823684695
:105730008DF8003000F0B4FCE8E751EA02030CBF3A
:1057400009230A23F3E700BF42A203008A93030060
:10575000C2A3030010B5044690B040220021684661
:1057600011F041FC54B90F490F4840F2B1120DF04D
:1057700042FF40F2B1110B480DF036FF204602A95E
:1057800001F084F8024628B1452108480DF06DFF6C
:1057900010B010BD0B2368468DF8003000F080FC7F
:1057A000F6E700BF42A203008A93030003A40300AC
:1057B00010B518488EB007F0E3F9024638B1164824
:1057C00045210DF052FF6FF00D000EB010BD1348D3
:1057D00007F0D6F90028F8D00246572110480DF0FE
:1057E00044FF57210F480DF040FF32210E4A01A817
:1057F00007F0ECF9044650B90C4901A811F0DFFD9F
:1058000000B1047057210A4801AA0DF02EFF0020B4
:10581000DBE700BF38A4030043A40300E7AA0300AA
:105820007EA40300BBA40300F1A40300F9A40300B9
:10583000FEA4030018B9492102480DF016BF00F07C
:10584000FFBB00BF26A5030008B568B31748F7F7EC
:10585000B9FE082812D11648F7F7B4FE08280DD172
:10586000134A1249134807F08BF930B1024645211B
:1058700011480DF0FAFE6FF00D0008BD0B48F7F768
:10588000A1FE082804D109490C4807F079F9ECE792
:105890000748F7F797FE082802D105490848F4E7BA
:1058A000084807F06DF9E0E70748FAE7974B012051
:1058B0008E4B01209DA50300E4A50300B4A50300C1
:1058C000C6A50300D9A50300F2AA03000023F0B582
:1058D0008DB00D460646CDE90333CDE90633CDE95B
:1058E00009338DF814308DF820308DF82C300028D5
:1058F00054D0002952D02B4C2B4AA0212046237093
:1059000007F064F9021E08DA452128480DF0ADFEC3
:105910006FF00D0420460DB0F0BD20462C2111F093
:10592000F2FC0C2704467CB3601C2C2111F0EBFC2C
:10593000013F0446F7D138B3811C082203A811F0B7
:105940000BFD601C2C2111F0DEFC0446E0B1811C33
:10595000082206A811F000FD2C21601C11F0D3FCD8
:1059600020B1811C082209A811F0F6FC01AB09AA9C
:1059700006A903A800F0D0FB044650B10246452119
:105980000B480DF072FEC5E745210A480DF06DFE8B
:10599000BEE7019B3360029B2B60BBE76FF01504F1
:1059A000B8E700BF6084012018A6030025A6030005
:1059B00066A6030047A60300F0B50446A3B0402244
:1059C000002112A811F00FFB44B94E494E48922213
:1059D0000DF011FE92214B480DF006FE00253022FD
:1059E000294606A88DF80E5004AF11F0FCFA0DF10F
:1059F0000F037D600DF10E0200930121204606ABDE
:105A0000049500F05FFC024630B1234645213F4833
:105A10000DF02BFE23B0F0BD9DF80E3003F0FB031C
:105A2000012B05D1089B013353D0394808F070FB96
:105A300000F0FEFA0028EDD1364A9DF80E301178BC
:105A4000994207D08DF8480012A813708DF8503095
:105A500000F026FB3022304906A811F094FAC8B1B4
:105A600004232D4D06AC8DF848300FCC0FC50FCC5C
:105A70000FC594E80F0085E80F0014AE06AD0FCDFA
:105A80000FC60FCD0FC694E80F0086E80F0012A8CE
:105A900000F006FB214A9DF80F301178994208D09A
:105AA0001370052212A88DF848208DF8503000F0B0
:105AB000F7FA9DF80E4004F0FB04012CAAD13846F9
:105AC00005A9FFF703FF40B1452115480DF0CDFDB5
:105AD000A0E704238DF80E30AAE7124D08222946CC
:105AE000384611F050FA002894D097E8030014AB20
:105AF00085E8030083E8030012A88DF8484000F011
:105B0000CFFA87E742A203008A93030098A6030016
:105B1000246F01205F840120B84F01205E840120A2
:105B2000C9A603003C6F012037B500240546019447
:105B3000A8B10DF102020B490B4801AB07F0B2F816
:105B4000021E07DC094845210DF08FFD6FF00D00A6
:105B500003B030BDBDF8023020462B70F8E76FF07F
:105B60001500F5E7ECA6030008A7030012A7030041
:105B7000072838B505460C4607D945210246134883
:105B80000DF073FD6FF0150038BD042903D90A46E6
:105B90000F484521F4E70F4B5A5C0F4B53F8201088
:105BA0000E4806F0EDFF38B1024645210C480DF0D5
:105BB0005CFD6FF00D00E7E70A4B1D700A4B1D708E
:105BC0000A4B1C700A4B1C70DEE700BF44A70300A1
:105BD0006BA70300FCAA03005486030095A70300EB
:105BE000ABA7030000850120A04B01205C840120AD
:105BF0005D84012030B50C46054687B000286BD087
:105C000005AB019304AB009302AA3549354803ABB9
:105C100007F048F80428024604D0452132480DF028
:105C200024FD39E0029B039A002B14BF02230023BA
:105C3000002A14BF042200221343049A002A14BF2E
:105C40000822002213430E2B22D8DFE803F008219C
:105C5000132115211D21172119211B211F000023AC
:105C60002B70FCB1059A042A33D8DFE802F0192A18
:105C70002C2E30000123F3E70223F1E70323EFE7A3
:105C80000423EDE70523EBE70623E9E70723E7E72E
:105C9000452116480DF0E9FC6FF00D0007B030BD4E
:105CA00000232370124B2A781978914218BF1A707A
:105CB0002CB1104B22781978914200D01A70002034
:105CC000ECE70123EDE70223EBE70323E9E70423F5
:105CD000E7E745210848A2E76FF01500DEE700BFBF
:105CE000D5A70300F0A7030000A803002AA803001B
:105CF000008501205C8401205BA80300F8B51B4DE2
:105D0000297881BB1A4E1B4F01221B4810F058FF07
:105D100031463846FFF76EFF044630B14521024652
:105D200016480DF0A2FC2046F8BD154B1878154B0F
:105D300019783B78834202D133788B4207D0FFF742
:105D400017FF044618B1024645210F48E9E7FFF75F
:105D50002FFD044620B145210C480DF086FCE2E7FA
:105D600001232B70DFE70024DDE700BF5B84012007
:105D70005C84012000850120246F01207FA803009E
:105D8000A04B01205D840120B1A80300DBA8030023
:105D900013B50446A8B10DF106020B490B4806F0F5
:105DA00081FF0128024607D0094845210DF05DFC1E
:105DB0006FF00D0002B010BDBDF80630002023705A
:105DC000F8E76FF01500F5E7FFA803000AA9030044
:105DD00013A9030004282DE9F041044619D804282A
:105DE0001CD8DFE800F0250B251B2500012202FA54
:105DF00003F31F4A13421BD19B070FD5FFF7D8FCB3
:105E00000246A8B145211B480DF02FFC6FF00D058F
:105E10000BE0A0F11403DBB2182BE7D92246452191
:105E200015480DF022FC6FF015052846BDE8F081FD
:105E30002146124806F0A4FE05460028E6D1104E81
:105E4000104FDFF84480BE420AD941460F4840F265
:105E500029520DF0D0FB40F2295140460DF0C4FB11
:105E6000BE42E2D2D6E90031204698470836EAE73A
:105E7000010C300153A9030082A90300A3A9030068
:105E800010DA030010DA030042A203008A93030031
:105E90003E4B2DE9F3411B78054643B93C4845216B
:105EA0000DF0E3FB4FF0FF3002B0BDE8F0810126BA
:105EB000384CD4E8EF3FC4E8E26F002AF9D1002B58
:105EC00060D10DF10700FFF72FFE30B132484521B8
:105ED0000DF0CBFB6FF00D00E6E79DF8073003F007
:105EE000FB03012BE0D025B1014632462B4810F0D0
:105EF00067FE0227DFF8A8802A4E0DF10600FFF7A3
:105F000047FFB8B99DF8063013F0FB0F0BD0012006
:105F1000FFF760FF88B10023D4E8EF2FC4E8E13F2A
:105F20000029C1D0F8E798F800103078FFF720FE7C
:105F30000028ECD06FF00D00EDE7002DEBD04FF016
:105F400096720023154808F01DF910F10B0FE2D1ED
:105F5000492115480DF089FB012F10D0337804201A
:105F6000012B0CBF022301233370FFF733FF0028FE
:105F7000E0D149210D480DF078FB0127BDE76FF016
:105F80007300C8E76FF076008EE700BF5B840120E6
:105F9000AEA90300206F0120DEA90300246F0120B9
:105FA0005C840120A04B01200DAA030037AA030046
:105FB00008B530B100F044F8BDE808400020FFF714
:105FC00067BF00F035F80028F6D0452102480DF0F3
:105FD0004CFB6FF0150008BD58AA030008B5064B2E
:105FE0001A7822B100201870FFF7F4FE08B90020DB
:105FF00008BD6FF00D00FBE75B840120084B0246F3
:10600000186810B520B1002443688B4201D1146098
:1060100010BD036804461846002BF5D1F8E700BF11
:10602000446F0120014807F0F7BE00BFAC4D0120CE
:10603000024B1868B0FA80F040097047446F0120A5
:1060400037B505464FF0FF324FF0FF33124807F0E7
:1060500011FE294601A8FFF7D1FF044620B1FFF742
:10606000E1FF002003B030BD082010F014FF0190C4
:1060700020B9FFF7D7FF6FF06800F3E7074A046025
:106080004460019B5168C3E9004511B9C2E900337E
:10609000E5E70B605360E2E7AC4D0120446F01205F
:1060A00038B50D4C05462368ABB14FF0FF334FF0C8
:1060B000FF320A4807F0DEFD23681BB9BDE838400F
:1060C000FFF7B0BF1C6828465B689847002CF5D0E6
:1060D00023462468F7E738BD446F0120AC4D01200A
:1060E00070B50E461446054600B12AB94521094847
:1060F0000DF0BBFA00200CE01046F7F763FA864279
:10610000F8D332462146284610F03DFFB0FA80F021
:10611000400970BD01AB03002DE9F7434FF00008C3
:1061200007460E4614461D46CDF80480F7F74AFA96
:10613000082804D06FF0150003B0BDE8F0833046A6
:10614000F7F740FA0828F5D13288B378ADF8042083
:106150004146022201A88DF806300BF0FBFA072811
:1061600004D945212D480DF080FAE3E72C4B02229B
:1061700053F820904146F01C0BF0ECFAB9F1000FF7
:1061800018D14FF0FF332B60CCB12046F7F71AFA45
:10619000082814D12288A378ADF804200021022217
:1061A00001A88DF806300BF0D5FA072817D945213C
:1061B0001C48D8E709FB00F028600130E4D03A8899
:1061C000BB78ADF804200021022201A88DF806302A
:1061D0000BF0C0FA072811D945211348C3E7134B28
:1061E000022253F820600021E01C0BF0B3FA16B134
:1061F00046432E60E3E74FF0FF36FAE70C4B0222EE
:1062000053F820400021F81C0BF0A4FA1CB14443C1
:1062100000206C6090E74FF0FF34F9E77EAC03009C
:10622000A8860300B8AC0300E9AC0300888603002D
:10623000888603000023F0B585B007460D4602A806
:1062400004211646CDE902330FF01EF9044638B199
:106250000246452117480DF008FA204605B0F0BD6A
:10626000014602AA38460FF00CF9044640B1452118
:10627000024611480DF0F9F902A80FF018F9ECE701
:10628000314601AA02A80FF0D6F9044618B1024619
:1062900045210A48EEE7019A0AB92870ECE7012A7D
:1062A00001D12A70E8E7452105480DF0DEF96FF0CD
:1062B0001504E1E71FAB030011AD030041AD03007E
:1062C0006FAD03002DE9F0431E4600238BB003930E
:1062D000ADF810308DF8123091460923072205469B
:1062E0000F4605A80B21CDE90023DDF848800FF00B
:1062F000CBF8044640B10246452154480DF0B5F9AB
:1063000020460BB0BDE8F083014605AA28460FF0F1
:10631000B8F8044640B1452102464D480DF0A5F9B4
:1063200005A80FF0C4F8EBE701466B4603AA05A8E1
:106330000FF0B6F9044618B1024645214548EDE78D
:10634000454A009903A8FFF7CBFE0028E8D0002FAC
:1063500014BF0121022107AA05A80FF06CF9051E40
:1063600032D1079D082D12D00FDC052D0FD92A46FA
:1063700045213A480DF079F96FF015052A46452177
:1063800037480DF072F92C46CAE75A2DEFD1B9F112
:10639000000F01D089F80050002E3ED05A2D50D069
:1063A00005A80FF0A4F903284BD9002F14BF022130
:1063B000032101AB07AA05A80FF072F9054628B121
:1063C000024645212748DCE7E1DAD7E7019B0AAA24
:1063D0001344014603F80C0C102207A80BF0BAF97D
:1063E0000923002FF060019314BF0321042101ABA6
:1063F00007AA05A80FF054F9054618B10246452131
:106400001948BEE7019B0AAA1344014603F80C0C85
:10641000102207A80BF09EF9B060B8F1000F3FF40E
:106420007FAF002F14BF0421052102AA05A80FF099
:1064300002F920B99DF8083088F8003070E7002391
:10644000FAE74FF0FF33C6E90233E6E71FAB03007C
:1064500090AD0300C2AD0300A9AA0300F0AD030094
:1064600012A703001DAE03004EAE0300002373B558
:1064700006460D46CDE90033C9B3C0B304216846D2
:106480000FF002F8044638B10246452119480DF0D4
:10649000ECF8204602B070BD01466A4630460EF068
:1064A000F0FF044640B14521024613480DF0DDF8E7
:1064B00068460EF0FCFFECE72A46022168460FF022
:1064C000D7F8044618B1024645210C48EEE70C49BE
:1064D000D5E9002391424FF0080272EB0303E7D2A3
:1064E000572108480DF0C1F86FF01504E0E76FF090
:1064F0001504CEE71FAB030074AE0300A6AE030085
:1065000000E09950D8AE030010B5044628B90B48F6
:1065100045210DF0AAF8204610BD0024431E13F8B3
:10652000010F2C2801D10134F9E70028F7D10A2CFA
:1065300082BF0520093CB4FBF0F0EDE70AAF030091
:106540002DE9F0430B230D46002106468DB0CDE921
:1065500009110493CDF82B10421E12F8013F2C2B89
:1065600001D10131F9E7002BF7D185F830304FF038
:10657000FF330331AB6007A80EF086FF044640B13D
:10658000024645218F480DF070F820460DB0BDE859
:10659000F083014607AA30460EF073FF044650B15F
:1065A000C31D15D04521024687480DF05EF807A8A7
:1065B0000EF07DFFE9E70746002104AB09AA07A812
:1065C0000FF06EF8044628B1024645217F48ECE7FB
:1065D0000127F1E77E4A049909A8FFF781FD002809
:1065E000E5D0012101AA07A80FF025F804460028EC
:1065F000DDD1019B002B40F0E280022102AA07A816
:106600000FF0CBF804460028D1D1029B4FF00708C9
:10661000B3F1805FA4BF4FF0FF330293029B0321CD
:10662000AB6005AA03AB07A8CDF80C800FF038F8D3
:1066300004460028BBD1039B0CAA134403F81C0C8E
:106640000A212A1D0DF117000FF081F804460028D9
:10665000ADD18DF817002A460A2105A80FF077F86A
:1066600004460028A3D1042102AA07A80FF095F838
:10667000044600289BD1029B0521EB6002AA07A8D3
:106680000EF0D9FF0446002891D1029B0621AB826F
:1066900005F1100207A80EF0CEFF0446002886D1AF
:1066A000414605F1280207A80EF089FF044600289C
:1066B0007FF47DAF082102AA07A80EF0BCFF0446B4
:1066C00000287FF474AF029B09216B8502AA07A8FA
:1066D0000EF0B1FF044600287FF469AF029B0A2147
:1066E000AB8505F1200207A80EF0C2FF0446002882
:1066F0007FF45DAF3046FFF707FF85F83000C6B284
:1067000007A80EF0F4FF06EB86060B36864208D289
:10671000314605F1180207A80EF0AAFF28B1044679
:1067200045E700220023C5E9062395F83030002B09
:106730003FF43DAF6B6B002B3FF439AF0F264FF0AA
:10674000000895F83030984504D3002F18BF6FF03B
:1067500006042CE76A6B311F02EB081207A84FEA08
:1067600008190EF068FF0028D9D16A6BF11E4A445F
:10677000083207A80EF023FF0028D0D102AAB11ECC
:1067800007A80EF058FF0028C9D16B6B029A4B4442
:106790005A81711E02AA07A80EF04DFF0028BED133
:1067A0006A6B029B4A443146938107A804320EF07B
:1067B00042FF05360028B2D108F10108C1E70124E3
:1067C000F5E600BF1FAB030039AF0300C2AD030005
:1067D00087AA03007FB5002306460D46CDE90233A4
:1067E000002947D0002845D0042102A80EF04CFE15
:1067F000044638B10246452120480CF036FF2046B9
:1068000004B070BD014602AA30460EF03AFE0446BE
:1068100028B1452102461A480CF027FF19E0012152
:106820000DF1060202A80EF0EAFE044618B1024677
:1068300045211448F0E7BDF8063002A82B700EF091
:1068400056FF022809D84FF0FF324FF0FF33C5E959
:10685000022302A80EF02BFED1E7022105F1080267
:1068600002A80EF005FF04460028F2D0024645219A
:106870000548D1E76FF01504C1E700BF1FAB030067
:1068800070AF0300A7AF0300D5AF0300F8B50E4605
:106890000446E8B1E1B108210F4AFFF721FC30B905
:1068A0000E4845210CF0E1FE6FF00400F8BD002514
:1068B0000B4F0834214657F8040BF6F779FE08B958
:1068C0003570F3E70135052DF4D16FF03C00EDE7AD
:1068D0006FF01500EAE700BF0FB0030018B0030027
:1068E0007486030010B50446094A0846637A0021FD
:1068F000FEF7DEFC10F10B0F00D040B904480EF09B
:10690000F6FE637A984294BF00206FF00A0010BD33
:106910004C6F01201FB50446114A01AB07CA83E83A
:10692000070021461846FFF7DDFF024628B1452142
:106930000C480CF09AFE04B010BD0DF102029DF857
:106940000C1009480EF05BFE024610B145210748C5
:10695000EFE7074B9DF802001B689847EBE700BF85
:1069600050820300FDB103004C6F012039B20300D7
:10697000546F012030B50D460021A1B004467C22A1
:1069800001A8009110F02FFBD5B1104B53F8244013
:10699000A37A022B14D080216846226806F016F9EB
:1069A00088B969462046FFF79DFF38B92A46217A03
:1069B00007480EF024FE002808BF022021B030BD99
:1069C0006FF01500FAE76FF00400F7E79487030013
:1069D0004C6F01200348436813B90A210EF054BDDF
:1069E000002070474C6F01200348452108B50CF08A
:1069F0003CFE0020FBF7FCF980B2030010B5044612
:106A000030B90B4845210CF030FE6FF0150010BD79
:106A100000F096F830B9074857210CF026FE6FF0C9
:106A20003C00F4E72046BDE8104000F051B800BF3C
:106A3000A2B20300FFB30300FF281CBF034B187072
:106A4000034B1B680BB101481847704701850120B3
:106A5000586F012010B50378C3B9037A013B072BA7
:106A600014D8DFE803F0040F1313041313040EF01B
:106A7000B6FE58B9BDE810404FF400420023044868
:106A800007F08CBFBDE8104000F086BA10BD00BF13
:106A90000045012010B518B1064810F0F2F838B9D9
:106AA000BDE810404FF0E1520023024807F076BFE6
:106AB00010BD00BF00450120014807F029BB00BF01
:106AC0002C4E01200148FEF7B5BE00BF556A0200FA
:106AD00030B5044685B001206946FBF7BFFC50B1D4
:106AE0000DF02CF8572102680C480CF0BEFD6FF039
:106AF0003C0005B030BD4FF47A71009B019DA3FBB3
:106B0000013201FB05220299054D91FBF5F15B185D
:106B100042EBE172C4E90032EBE700BF31B403009D
:106B200040420F0008B508B1034B1860034807F056
:106B3000EFFA002008BD00BF586F01202C4E012045
:106B4000034BD3E90023134314BF012000207047F7
:106B50007050012010B5104CD4E90023134316D017
:106B600010F0CAF84FF47A72A0FB020302FB013165
:106B7000D4E90032C00B40EA4140C01A074B4FEA4B
:106B8000D13161EB0201984271F1000302DB6FF039
:106B90003C0010BD0020FCE77050012080EE360064
:106BA000F0B58FB006460D46174600211022684604
:106BB00010F019FA2422002105A810F014FA10F0A0
:106BC0009BF84FF47A74A0FB043004FB01041A4ACA
:106BD000DB0B43EA44430020E40BC2E90034FFF737
:106BE00059FF4FF47A72002330462946F6F7CEFA61
:106BF0004FF47A72CDE90001002330462946F6F7BA
:106C0000C5FA0E4B69465A4301200292F6F7E4FC9E
:106C1000024640B10A4845210CF027FD0320FFF74A
:106C20000BFF0FB0F0BD05A9684609F081FD05A86E
:106C300000F088F93846F2E77050012040420F001A
:106C400055B403007FB500240025164E4FF0FF32E7
:106C50004FF0FF33304607F095FAFFF77BFF30B96E
:106C60000120FFF717FFFF20FFF7E6FEEEE768467B
:106C7000CDE9004500F02CF9024620B9DDE900011C
:106C8000FFF78EFFE2E702A8CDE9024500F00CF81D
:106C900018B9DDE902010122F2E70120FFF7FAFE4F
:106CA0000320E1E72C4E01202DE9F0479AB006467B
:106CB00006A8FEF739FF054638B10246572132488B
:106CC0000CF0D3FC6FF03C044DE09DF81830082B1D
:106CD00003D003F0FB03012BF4D12C4FDFF8B0807D
:106CE000DFF8B090DFF8B0A05022002106A857F8D6
:106CF000044B10F078F94FF4806306AA07934146DD
:106D00006B4620460CF0F2FC024660B15721234846
:106D10000CF0ABFC012D04D1572121480CF0A5FC4F
:106D2000D0E70125E0E7009B01A8D3E905210CF09D
:106D3000A9FC0446D8B1572102461A480CF095FC2C
:106D400000980CF0D5FC01A80CF0CBFC002CE1D194
:106D50004FF47A710F4803684568A3FB013201FBC9
:106D60000522C6E9003220461AB0BDE8F0874A463F
:106D700041F2883101A8F9F759FF04460028DFD015
:106D8000024657215046D9E784B4030028880300FF
:106D9000C3B4030078500120FDB40300C7B403005E
:106DA00018B50300E3B4030030B504468DB00028E5
:106DB00000F082800122414B1A70FFF7CBFE0028C1
:106DC0007AD02C21204610F09EFA054638B922468A
:106DD00045213B480DB0BDE830400CF046BCF6F70D
:106DE000F1FB102803D8224645213648F2E76B789C
:106DF000222B03D0224645213348EBE701AA062384
:106E00000C21A81C0CF00BFA0528024604D82346D6
:106E100045212E480CF029FC9DF806109DF8042011
:106E200001F00F0000EB8000090901EB4001C9B23D
:106E300006919DF807109DF8053001F00F0000EB5A
:106E40008000090901EB4001C9B205919DF80810C5
:106E500001F00F0000EB8000090901EB4001C9B20D
:106E600004919DF8091001F00F0000EB8000090962
:106E700001EB4001C9B2039102F00F0101EB810166
:106E8000120902EB4102D2B26432089203F00F02FF
:106E900002EB82021B0903EB4203DBB2013B03A8B6
:106EA0000793F9F7EFF84FF47A73A0FB030400227D
:106EB00003FB0141FFF774FE0DB030BD02850120D8
:106EC0005DB503008FB50300B7B50300F3B503004C
:106ED00030B5184B04461B788FB0A3B106AB0293B4
:106EE00007AB019305AD08AB00930AAA12491348FA
:106EF000039509AB05F0D6FE0628024606D05721B9
:106F00000F480CF0B2FB6FF03C0011E00A9B2846E2
:106F100064330A93099B013B0993F9F7B3F84FF4E3
:106F20007A72A0FB023002FB0100C4E900300020AD
:106F30000FB030BD028501202AB60300B8B00300AF
:106F400044B6030030B5114B85B01B78DBB9D0E9EE
:106F50000421642491FBF4F5039303680132029346
:106F6000436804FB1511019383680093C3680848C4
:106F700005F006FE024630B14521064805B0BDE8E1
:106F800030400CF072BB05B030BD00BF028501205F
:106F9000D9B6030006B7030008B5064805F0F0FDB2
:106FA000024628B1BDE80840452103480CF05DBB0E
:106FB00008BD00BF29B7030035B7030008B5D8B92D
:106FC0000E48F6F7FFFA40B10C490D4805F0D8FD20
:106FD00018B145210B480CF048FB0B48F6F7F2FAC4
:106FE00050B10949064805F0CBFD28B1BDE808407D
:106FF000452106480CF039BB08BD00BF7DB7030032
:10700000E4C003009CB70300C4B70300DCB703006F
:107010001FB5D0F81C380446B3F5006F0AD90E49E5
:107020000E484FF4BD720CF0E6FA4FF4BD710A48F9
:107030000CF0DAFA00238DF8043004F11C030293FB
:10704000D4F81C3804F58054039301A8D4F81039FF
:10705000984704B010BD00BF11B803008A93030025
:107060002DE9F041002A05460C4686B006DC0026D4
:10707000374605F11C0824BB20461FE04FF47A7305
:1070800092FBF3F103FB11225A43CE17CDE902160E
:1070900000680492102315220093012102AB0CF02A
:1070A00033FC0028E3D00CF049FD572102680C485E
:1070B0000CF0DBFA0CF042FD0068404206B0BDE87F
:1070C000F081286800232246CDE9007708EB06010D
:1070D0000CF06EFB0028EDDB0644241ACBE700BF62
:1070E00056B8030030B5044689B018B311B34FF059
:1070F000FF33036000F58053C3F81019002200230A
:107100000025CDE906230E230090CDE9033500F5D7
:1071100011614FF48052CDE90155084B00F688000B
:1071200006F092FCC4F8800805490FF015FD2846CA
:1071300009B030BD6FF01500FAE700BF75750200A9
:1071400082B803002DE9F0470F4616460446A8B062
:10715000002800F0D281002900F0CF81002A00F041
:10716000CC81036801337FD19368B3F5006F09D9EF
:107170004521B4480CF079FA6FF00605284628B08E
:10718000BDE8F08792F80480502200210DEB020048
:107190000FF029FF01234022384604A9169300F07E
:1071A0006FFB05460028E9D1B8F1000F19D04FF464
:1071B00080530421A44A159302A843460AF0C8F854
:1071C00003AB14AA02A904A80CF090FA054660B11A
:1071D00057219E4B9E4804AA0CF047FA6FF07505A4
:1071E000CCE7014603AB14AAEDE7221D90460398B5
:1071F000836903F1180153F804CB8B4242F804CBA6
:10720000F9D10CF075FA96E80F0004F5036C8CE8E0
:107210000F003846C4F8287803AA04F5046100F08A
:10722000F9FA50B101230393D4F83038013314BF75
:107230004FF481730623C4F84038D4F8402822F470
:107240008073112B00F05381B2F5817FD4F8303870
:107250000CD1013312D157217E480CF006FA6FF0A1
:1072600015052368002B89DB002587E7013305D14D
:1072700094F83C3813B157217748EEE7D4F8280842
:1072800002A900F035FB48B1D4F84038B3F5817F4E
:1072900034D02CDC062B36D0112B36D0A088012818
:1072A00036D0022840F026811827BDF808305BBA96
:1072B000E38004F5805393F814391BB1039B43F02A
:1072C000804303930399D4F84028F9F74BFD002835
:1072D0000646206022DA0CF031FC452102685F4846
:1072E0000CF0C3F90CF02AFC05686D42B9E740F2D6
:1072F00011129342D2D141F2346301E040F2BB1348
:10730000ADF80830CAE75023FAE741F23363F7E7F4
:10731000BDF8083008275BBAE380CAE794F83498D0
:10732000B9F1000F2AD000230821CDE914334C4ACB
:107330004B4614A80AF00CF8492114AA49480CF04D
:1073400094F914A8F6F73EF919220090012130466D
:1073500014AB0CF0D9FA88B10CF0F0FB4A46036884
:10736000452141480CF081F96FF0720620680CF05D
:10737000D4F94FF0FF333546236072E7D4F8403834
:10738000B3F5817F04D040F21112934240F0948013
:10739000D4F83068731C00F08F800223D4F800907A
:1073A000149604934FF0040A05224FF48D71484659
:1073B000CDF800A004AB0CF0A7FA60B30CF0BEFB54
:1073C0004521026829480CF050F90CF0B7FB06681B
:1073D0007642002ECAD194F83C38002B6CD0D4F8F9
:1073E0002868D4F8009046B92149224886220CF03A
:1073F00002F986211E480CF0F7F83046402214A905
:1074000000F03EFA064600283CD0024645211A48C4
:107410000CF02BF9AAE73246492118480CF025F95F
:1074200001224FF48D714846CDF800A014AB0CF04A
:107430006BFA0028CFD00CF081FB45210268104880
:10744000C1E700BF92B80300EDA70300CAB803006C
:10745000CFB80300F8B8030023B903005CB90300F8
:1074600081B9030087B90300A2B90300D2B90300B0
:1074700011B803008A9303005EBA030003BA030045
:107480002BBA030014A8F6F79DF8022200904FF4DF
:107490008D71484614AB0CF037FA68B10CF04EFB16
:1074A0004521036814AA16480CF0DFF80CF046FBDF
:1074B00006680EB1764259E74921D4F828281148C8
:1074C0000CF0D3F820683A4641460CF04AF90028FF
:1074D0003FF4C7AE0CF032FB452102680A480CF0BD
:1074E000C4F80CF02BFB0668002EE3D1B9E66FF070
:1074F0007A05B6E66FF06905B3E66FF015053DE66F
:1075000080BA0300B1BA0300C7BA030010B504463D
:10751000A8B10068002812DB0CF0FFF858B10CF09D
:107520000DFB4521026807480CF09FF80CF006FBA4
:107530000068404210BD4FF0FF332360FAE76FF060
:107540001500F7E7E8BA030010B5044649210848DA
:107550000CF08BF82046FFF7D9FF40B92046D4F84D
:10756000281804F50362BDE81040FFF7EBBD10BD1D
:107570000EBB03002DE9F047054600244FF01E081E
:107580004FF00009824F86B0D5F8800807F03AFF27
:10759000DFF800A2D5F81C38B3F5006F0AD33946DE
:1075A000504640F2E7120CF026F840F2E711384658
:1075B0000CF01AF8D5F81C28B2F5006F08D1452157
:1075C00075480CF052F8072128460EF00CF9DBE75D
:1075D000D5F84038062B02D0B3F5817F37D1002390
:1075E000CDE9028928680493102314220093012115
:1075F00002AB0CF089F9034648B10CF09FFA572111
:10760000026866480CF031F84FF0FF360CE028684D
:10761000D5F81C6805F11C01C6F500623144CDE9BE
:1076200000330CF01CF90646731E03334BD9D5F812
:107630001C388BB195F8443873B12846FFF7E8FC45
:10764000044648B1492156480CF00FF89CE7452103
:1076500054480CF00AF8D7E701362ED10CF06EFA38
:107660000368742B1DD1D5F8403823F48073112B97
:1076700073D074240CF062FA452102684A480BF07A
:10768000F4FF214628460EF0AEF8044600287FF4A9
:107690007BAF2846FFF758FF044600285DD07521D0
:1076A00092E70CF04BFA03680B2BDCD00CF046FA97
:1076B00003680B2BD7D06824DCE757213B480BF03D
:1076C000D4FF6824DDE7D5F84038062B02D0B3F5A7
:1076D000817F06D13146284600F0E0F9041E3FF7CD
:1076E00059AF002C01DA4D216EE7D5F82038D5F8D6
:1076F00024282BB364215143B1FBF3F12C480091B2
:1077000049210BF0B2FF2846FFF782FC044600280F
:1077100098D1D5F82428D5F820389A4215D1492196
:1077200024480BF0A2FF0223CDE902448DF8083073
:1077300005F58053D3F81039049402A8984723E73D
:1077400049211D480BF091FFDDE795F8453823B13D
:1077500085F845082846FFF7F7FE00262846C5F8B5
:107760001C6885F844680EF050F8044600283FF481
:1077700011AF682128460EF036F8044600287FF441
:1077800003AF2846FFF7E0FE04460028E6D086E770
:1077900011B803008A93030022BB030056B803000C
:1077A00069BB030054BB030092BB0300B1BB0300E1
:1077B000CEBB03000ABC0300F1BB030038B504468E
:1077C000F8B10368002B1FDB0023C0F82C18C0F8A9
:1077D0002038C0F82428C0F81C3880F844380EF04F
:1077E00014F8054658B94921D4F82438D4F82C287F
:1077F00007480BF03AFFD4F8800807F02DFC284624
:1078000038BD6FF01505FAE76FF07F05F7E700BFA9
:1078100021BC030070B50D461446154905220646E5
:107820000FF086FD28B94FF481732B60012323608C
:1078300070BD042230460F490FF07AFD08B90623C7
:10784000F3E7052230460C490FF072FD20B940F2F3
:1078500011132B600223EAE70422304607490FF098
:1078600067FD08B91123F4E76FF01500E0E700BFEA
:107870003BBC030041BC030046BC03004CBC0300FE
:1078800073B5044601900D4601A8184916460DF03F
:10789000D1FF019803785B2B11D15D210FF033FDEF
:1078A000F0B101300199441A631CB3421BD822463F
:1078B00028460FF078FB0020285502B070BD3A2111
:1078C0000FF021FD0028EDD12F2101980FF01BFDB5
:1078D0000028E7D12046F5F775FE431CE018E1E7E4
:1078E0006FF01500E9E76FF00600E6E751BC030012
:1078F0007FB50E4601901B4901A80DF09BFF019B2F
:107900001B785B2B03D1184901A80DF093FF174991
:1079100001A80DF08FFF054608BB2F2101980FF03D
:10792000F2FC04460198C4B9F5F74CFE0446072C56
:1079300028BF07240823224601990DEB03000FF00E
:107940003FFB04AB1C44002302A804F8083C0FF0E2
:1079500008FB3080284604B070BD241AE7E76FF0BA
:107960001505F7E751BC03000EDA0300E6D3030068
:1079700037B50D461549144601900FF020FD40B96A
:107980000198F5F71FFE0130A04212D96FF00600F2
:1079900006E00F4901A80DF04DFF18B16FF015007A
:1079A00003B030BD0B4901A80DF044FF0028E7D01B
:1079B000F4E70198F5F706FE0199044602462846C9
:1079C0000FF0F1FA00202855EAE700BF52BC03008F
:1079D00051BC030053BC030070B5D0F828380546ED
:1079E000C4B043B929492A4837220BF004FE372195
:1079F00026480BF0F9FDD5F82C3843B92349244823
:107A000038220BF0F8FD382120480BF0EDFD04AED4
:107A100040223146D5F82808FFF732FF044670BBF4
:107A2000C022D5F82C0814A9FFF7A2FF044630BBEA
:107A3000D5F83838D5F8241823B30B44013BD5F8D2
:107A400020281AB1013A934228BF1346CDE9011309
:107A5000104A4FF4006114AB009605F11C0009F0C8
:107A600077FC002201462846FFF7FAFA044630B1B7
:107A70000CF064F84521026807480BF0F6FD20463B
:107A800044B070BD01F2FF73D9E700BF55BC0300DD
:107A90008A9303008FBC0300DABC0300D0F81C38C3
:107AA0002DE9F7430B44C0F81C3890F844380446DD
:107AB0008846002B40F0928000F11C07384656495A
:107AC0000FF07DFC054618B9012003B0BDE8F08336
:107AD000D4F81C383B449842F6D84F48F5F772FD6D
:107AE00005443B4628464D4EA5EB070998420AD16E
:107AF00038464B490FF063FC064670B945214948AA
:107B00000BF0B3FD2BE01A78915D01F00301012920
:107B100008BF203203F8012BE8E74148F5F752FD92
:107B200006440A22304601A909F014FE019B13B94C
:107B300045213D48E4E7CE2817D042F201420199A1
:107B40000B780D2B0ED822FA03F3DB4313F001035D
:107B500008D10B703246452134480BF086FD4FF0BA
:107B6000FF30B2E701310191E9E7D4F82038B3B929
:107B700038462F490FF023FC10B945212D48BFE7A7
:107B80002D490FF01CFC10B945212C48B8E70130F5
:107B90000FF0E7F9D4F820380344C4F82038384609
:107BA00027490FF00CFC30B1572126480BF05DFD42
:107BB000012384F845380123D4F81C2884F844387C
:107BC0004A4524D029463846A2EB09020FF0EBF9CA
:107BD000D4F81C38A3EB0903C4F81C38D4F82438B3
:107BE000D4F81C28D4F82018904594BF43449B181F
:107BF0008B42C4F824380CD0D4F83808002808BFC9
:107C00004FF40060904294BF002001205DE7002304
:107C1000E2E7002059E700BFD5BC03000ED7030000
:107C200005BD03000FBD030035BD03006BBD0300A0
:107C30008DBD03009BBD030053BC0300D0BD0300FA
:107C4000EEBD030000BE030007B500230422CDE90A
:107C500000338DF80020054A8DF804001370044BA2
:107C600068461B68984703B05DF804FB0385012054
:107C70005C6F012013B501A801F050FB034648B129
:107C80004521164A16480BF0F0FC0120FFF7DCFFF7
:107C900002B010BD134C2046D4F8281804F5036236
:107CA000FFF750FA034618B145210C4A0E48EAE79F
:107CB0002046019AD4F82C18FFF780FD034618B12E
:107CC0004521064A0948DEE7019A492108480BF098
:107CD000CCFC0122074B1A70DAE700BFA2C00300F8
:107CE0002DBE03008850012058BE030080BE030053
:107CF000B0BE03000385012073B50546002800F0DF
:107D0000D8800378012B00F0A580022B7ED0002BB9
:107D100040F0D280694E3378002B5AD068496948C8
:107D20000DF07EFD044608B101206CE03070D5E90D
:107D3000010101F0A9FA644BC0B21870634B1B78C3
:107D4000E3B198421AD00246452161480BF08DFC00
:107D500003256FF06A045B48FFF7D8FB2846FFF75E
:107D600073FF01F007FB024618B1452159480BF09B
:107D70007CFC01233370204602B070BD504A0021C4
:107D8000554B126801F09CFA041E09DA14F1100F29
:107D900006D02246452151480BF067FC0125DAE761
:107DA000684601F0BBFA10B10120FFF74DFF009BC0
:107DB0007BB14448FFF7AAFB4FF400420023484838
:107DC00006F084FD492147480BF04FFC4FF0FF348B
:107DD000D1E7D5E9010101F0ABFA04460028CAD089
:107DE0000246452140480BF040FC002001F0ACFA6F
:107DF00018B145213D480BF038FC01233148337060
:107E0000FFF784FB0220FFF71FFFB4E7012001F01A
:107E10009BFA044618B901F0C3FA044628B1224679
:107E2000452133480BF021FC7EE72648FFF76EFB27
:107E3000044600287FF478AF01252E4BCDE90000E1
:107E40001B6868468DF8005098471C4B1D702A4BE4
:107E50001C7090E7294E326892B1446804F18003A7
:107E6000182B0DD8264CDC40E44314F0010407D154
:107E7000572124480BF0F9FB3368013B33607AE764
:107E80001048FFF743FB45211F480BF0EEFB002095
:107E900001F05AFA10F10D0F04D018B145211B481A
:107EA0000BF0E3FB0120054B1870FFF7CDFE6C686B
:107EB00061E76FF015045EE700245CE7C4850120EC
:107EC000606F012088500120C5850120C6850120F2
:107ED000D3BE030029BF0300117F02000BBF0300C4
:107EE000A069012052BF03007CBF03009BBF0300B9
:107EF000C4BF03005C6F0120038501206471012071
:107F000001100001E3BF030012C003002DC00300F5
:107F100007B538B1012811D0012003B05DF804EB9A
:107F2000FFF792BE0223CDE900008DF80030064B2A
:107F300068461B68984703B05DF804FB0023CDE951
:107F400000330323F1E700BF5C6F0120F0B50D465D
:107F500000218BB001918DF80430109B04460391F1
:107F600000920293002845D0002D43D0244B1B687B
:107F7000002B3FD0234F3B78002B3ED1013212D053
:107F800001460DF1120201200BF0B7FC01280AD0C6
:107F9000022021460DF112020BF0AFFC01281CBF9C
:107FA00001238DF80C300222174B184E1A60294617
:107FB000BF2230460FF0D0F9002321466A4614480C
:107FC00086F8BF30FFF7BEF8044668B99DF8442034
:107FD000104B31461A7002460D48FFF7EFFB04467E
:107FE00028B10B48FFF792FA20460BB0F0BD0123F1
:107FF0003B70F9E76FF01504F6E76FF07704F3E7ED
:108000005C6F01200385012064710120048501203B
:1080100088500120C685012010B5F8B1114B4FF4EE
:1080200000711860104801F063FB044638B1034644
:1080300045210E4A0E480BF018FB204610BD0D4995
:108040000D4806F0B5FB0D490D48FFF74BF8044607
:108050000028F2D101220B4B1A70EEE76FF01504E5
:10806000EBE700BF5C6F0120646F0120B7C0030025
:1080700066C00300757C0200A0690120F97C020043
:1080800088500120C48501202DE9FF47DDF830909C
:108090000C4615461E460746002843D0002941D00D
:1080A0005368002B3ED0D2F80880B8F1000F39D0C9
:1080B000002E37D09DF83430DFF870A00846002B32
:1080C00018BFD046F5F77EFA194B6A68002808BF3A
:1080D00053460094CDE9013295213B463046154A7E
:1080E000CDF80C8009F034F9942804460ADD4521C6
:1080F0006A6811480BF0B9FA6FF00B04204604B01F
:10810000BDE8F087002806DA034645216A680B4877
:108110000BF0ABFAF2E701230024C9E9006089F80B
:108120000830EBE76FF01504E8E700BFB1A10300EA
:1081300053BC0300CAC00300E7C0030029C1030009
:10814000012307B5034A0093034B0DF08DFB03B0E9
:108150005DF804FB3C880300B1A1030007B50B46A2
:10816000114601220092034A0DF07EFB03B05DF838
:1081700004FB00BF3088030007B50B4611460122FF
:108180000092034A0DF070FB03B05DF804FB00BFE2
:108190004888030070B5ADF5AB6D0E46DDF86C1583
:1081A0000546A1B31B480291002B08BF0346DDF82A
:1081B000681504A8CDE90031174B40F2465153F839
:1081C0002230164A09F0C4F840F24553984204465A
:1081D00009DD452112480BF048FA6FF00B042046E8
:1081E0000DF5AB6D70BD002805DA024645210D483E
:1081F0000BF03BFAF3E7DDF870353146CDE90003CB
:10820000094A284604AB0DF059FB0446E7E76FF036
:108210001504E4E767C10300548803006CC1030040
:10822000BCC10300F3C1030048880300F7B5084F41
:108230000446384616460D46F5F7C4F93B46CDE9E7
:10824000000629462046034A0DF038FB03B0F0BD76
:1082500017C2030030880300024B1A78824218BF0D
:10826000187070475C88012010B500240120FFF7CA
:10827000F3FF054B40221C70044B054918460FF0D4
:108280006BF880F8404010BDC8850120A14B01204B
:1082900092C2030038B5044609480D46F5F792F935
:1082A000A84205D9074857210BF0DFF9002038BD57
:1082B000204603490FF083F8003818BF0120F6E785
:1082C000A14B0120A1C2030030B5412204460D4656
:1082D00085B0114911480FF02BF8D0B1104B204652
:1082E0000293104B2A4601930F4B0C491B680093D5
:1082F0000023FFF74FFF041E07DA224645210B48F3
:108300000BF0B3F9204605B030BD094B00241D70B9
:10831000F8E76FF08B04F5E792C20300A14B012050
:10832000388E0120B1A1030070710120D2C2030078
:10833000C885012037B5324D04462B6853B9314901
:10834000314840F2B9220BF056F940F2B9212D48DC
:108350000BF04AF92278042A4AD8DFE802F04303F6
:10836000222A2C0005238DF800306423274C684610
:1083700001932368984702212868FFF7A5FF60B1A1
:10838000234B1B784BB1022368468DF800302368DD
:108390009847FFF769FF03B030BD0320FFF75CFF8C
:1083A000F9E703238DF80030184B68461B6898479F
:1083B000F1E70423F6E7452116480BF056F90321AF
:1083C0002868FFF781FF02238DF800300F4B6846C5
:1083D0001B689847FFF748FF0F4A10492868FFF7C6
:1083E00025FFD8E7052263688DF800200193DBE7BD
:1083F00057210B4803B0BDE830400BF036B900BF41
:108400006C71012000C303008A930300687101208E
:10841000C785012037C30300C886012054C3030069
:108420005AC3030040F2465370B50D4C99420546BD
:1084300004EB01060DD8A64201D8002070BD2146EC
:108440002846321B0CF013FA0028F7DB04D0044452
:10845000F1E76FF07900F1E76FF00400EEE700BF9D
:10846000F28801202DE9F047DFF89CA20E469AF829
:108470000010054694B049B95721A4480BF0F5F80F
:108480006FF00104204614B0BDE8F0873378072B65
:108490000BD8DFE813F0080045004900A5010A00E9
:1084A0000A000A00AF01F3690BB10124EAE70122D7
:1084B000974B91421A700BD002399142F5D8412264
:1084C000944995480EF034FFE0B96FF08B0408E052
:1084D0009249FFF735FE044648B1452190480BF01C
:1084E000C4F8224657218F480BF0BFF8D5E0284644
:1084F0008D4A8E49FFF732FE04460028D5D045212B
:108500008B48ECE728468B4A8349FFF735FE044643
:108510000028CAD00246452187480BF0A6F8E0E7BC
:1085200000227B4B1A70C0E7D6E90147834B3A46DD
:1085300021467D48D6F814800DF0E5F9002849D190
:108540003A4621467E4B78480DF0DDF9002841D1AE
