:020000040001F9
:10C2000068CB0120911D0200D13A0300651D020098
:10C21000651D0200651D0200651D0200651D02000E
:10C220000000000000000000000000003D180200B7
:10C23000651D020000000000DD170200651D020000
:10C24000C5180200C5180200C5180200C518020072
:10C25000C5180200C5180200C5180200C518020062
:10C26000C5180200C5180200C5180200C518020052
:10C27000C5180200C5180200C5180200C518020042
:10C28000C5180200C5180200C5180200C518020032
:10C29000C5180200C5180200C5180200C518020022
:10C2A000C5180200C5180200C5180200C518020012
:10C2B00021500300C5180200C5180200C51802006D
:10C2C000C5180200C5180200C5180200C5180200F2
:10C2D000C5180200C5180200C5180200C5180200E2
:10C2E000C5180200C5180200C5180200C5180200D2
:10C2F000C5180200C5180200C5180200C5180200C2
:10C30000C5180200C5180200C5180200C5180200B1
:10C31000C5180200C5180200C5180200C5180200A1
:10C32000C5180200C5180200C5180200C518020091
:10C33000C5180200C5180200C5180200C518020081
:10C34000C51802000000000000000000000000000E
:10C3500000000000000000000000000000000000DD
:10C3600000000000000000000000000000000000CD
:10C3700000000000000000000000000000000000BD
:10C3800000000000000000000000000000000000AD
:10C39000000000000000000000000000000000009D
:10C3A000000000000000000000000000000000008D
:10C3B000000000000000000000000000000000007D
:10C3C000000000000000000000000000000000006D
:10C3D000000000000000000000000000000000005D
:10C3E000000000000000000000000000000000004D
:10C3F000000000000000000000000000000000003D
:10C40000DEE61E284CBBCE8F025B00003C00000025
:10C41000C42102000100000000C2010000C20100AE
:10C42000FFFF02910000000000000000000000007B
:10C43000000000000000000000000000FFFFFFFF00
:10C440004FF0FF0C1CEAD0521EBF1CEAD15392EAF7
:10C450000C0F93EA0C0F6FD01A4480EA010C4002D3
:10C4600018BF5FEA41211ED04FF0006343EA50102D
:10C4700043EA5111A0FB01310CF00040B1F5000F6F
:10C480003EBF490041EAD3715B0040EA010062F11E
:10C490007F02FD2A1DD8B3F1004F40EBC25008BF08
:10C4A00020F00100704790F0000F0CF0004C08BF26
:10C4B00049024CEA502040EA51207F3AC2BFD2F1F3
:10C4C000FF0340EAC250704740F400004FF0000301
:10C4D000013A5DDC12F1190FDCBF00F0004070473B
:10C4E000C2F10002410021FA02F1C2F1200200FA79
:10C4F00002FC5FEA310040F1000053EA4C0308BF40
:10C5000020EADC70704792F0000F00F0004C02BF90
:10C51000400010F4000F013AF9D040EA0C0093F00B
:10C52000000F01F0004C02BF490011F4000F013B65
:10C53000F9D041EA0C018FE70CEAD15392EA0C0FD3
:10C5400018BF93EA0C0F0AD030F0004C18BF31F03E
:10C55000004CD8D180EA010000F00040704790F014
:10C56000000F17BF90F0004F084691F0000F91F0B8
:10C57000004F14D092EA0C0F01D142020FD193EA7E
:10C580000C0F03D14B0218BF084608D180EA010006
:10C5900000F0004040F0FE4040F40000704740F0E2
:10C5A000FE4040F44000704781F0004102E000BFCF
:10C5B00083F0004330B54FEA41044FEA430594EA63
:10C5C000050F08BF90EA020F1FBF54EA000C55EA9E
:10C5D000020C7FEA645C7FEA655C00F0E2804FEA6F
:10C5E0005454D4EB5555B8BF6D420CDD2C4480EA51
:10C5F000020281EA030382EA000083EA010180EA81
:10C60000020281EA0303362D88BF30BD11F0004FCE
:10C610004FEA01314FF4801C4CEA113102D0404204
:10C6200061EB410113F0004F4FEA03334CEA13333F
:10C6300002D0524263EB430394EA050F00F0A78057
:10C64000A4F10104D5F1200E0DDB02FA0EFC22FA52
:10C6500005F2801841F1000103FA0EF2801843FA46
:10C6600005F359410EE0A5F120050EF1200E012A37
:10C6700003FA0EFC28BF4CF0020C43FA05F3C01875
:10C6800051EBE37101F0004507D54FF0000EDCF1EE
:10C69000000C7EEB00006EEB0101B1F5801F1BD397
:10C6A000B1F5001F0CD349085FEA30004FEA3C0C9B
:10C6B00004F101044FEA445212F5800F80F09A8091
:10C6C000BCF1004F08BF5FEA500C50F1000041EB95
:10C6D000045141EA050130BD5FEA4C0C404141EB99
:10C6E0000101013C28BFB1F5801FE9D291F0000F94
:10C6F00004BF01460020B1FA81F308BF2033A3F143
:10C700000B03B3F120020CDA0C3208DD02F1140C39
:10C71000C2F10C0201FA0CF021FA02F10CE002F174
:10C720001402D8BFC2F1200C01FA02F120FA0CFC6D
:10C73000DCBF41EA0C019040E41AA2BF01EB0451B6
:10C74000294330BD6FEA04041F3C1CDA0C340EDCB4
:10C7500004F11404C4F1200220FA04F001FA02F3F7
:10C7600040EA030021FA04F345EA030130BDC4F1B5
:10C770000C04C4F1200220FA02F001FA04F340EAAA
:10C780000300294630BD21FA04F0294630BD94F05B
:10C79000000F83F4801306BF81F480110134013D42
:10C7A0004EE77FEA645C18BF7FEA655C29D094EAB3
:10C7B000050F08BF90EA020F05D054EA000C04BF31
:10C7C0001946104630BD91EA030F1EBF002100201C
:10C7D00030BD5FEA545C05D14000494128BF41F0BB
:10C7E000004130BD14F580043CBF01F5801130BD1F
:10C7F00001F0004545F0FE4141F470014FF00000AA
:10C8000030BD7FEA645C1ABF194610467FEA655C5A
:10C810001CBF0B46024650EA013406BF52EA0335FC
:10C8200091EA030F41F4002130BD00BF90F0000FEA
:10C8300004BF0021704730B54FF4806404F1320426
:10C840004FF000054FF0000150E700BF90F0000FDF
:10C8500004BF0021704730B54FF4806404F1320406
:10C8600010F0004548BF40424FF000013EE700BFD6
:10C8700042004FEAE2014FEA31014FEA02701FBF66
:10C8800012F07F4393F07F4F81F06051704732F098
:10C890007F4208BF704793F07F4F04BF41F40021EF
:10C8A000704730B54FF4607401F0004521F000414D
:10C8B0001CE700BF50EA010208BF704730B54FF0D7
:10C8C00000050AE050EA010208BF704730B511F0D8
:10C8D000004502D5404261EB41014FF4806404F110
:10C8E00032045FEA915C3FF4D8AE4FF003025FEA96
:10C8F000DC0C18BF03325FEADC0C18BF033202EB1A
:10C90000DC02C2F1200300FA03FC20FA02F001FA73
:10C9100003FE40EA0E0021FA02F11444BDE600BF16
:10C9200070B54FF0FF0C4CF4E06C1CEA11541DBFC5
:10C930001CEA135594EA0C0F95EA0C0F00F0DEF890
:10C940002C4481EA030621EA4C5123EA4C5350EA75
:10C95000013518BF52EA033541F4801143F48013C6
:10C9600038D0A0FB02CE4FF00005E1FB02E506F057
:10C970000042E0FB03E54FF00006E1FB03569CF0AC
:10C98000000F18BF4EF0010EA4F1FF04B6F5007FB2
:10C9900064F5407404D25FEA4E0E6D4146EB060624
:10C9A00042EAC62141EA55514FEAC52040EA5E50AD
:10C9B0004FEACE2EB4F1FD0C88BFBCF5E06F1ED857
:10C9C000BEF1004F08BF5FEA500E50F1000041EB8E
:10C9D000045170BD06F0004646EA010140EA02003B
:10C9E00081EA0301B4EB5C04C2BFD4EB0C0541EA5D
:10C9F000045170BD41F480114FF0000E013C00F372
:10CA0000AB8014F1360FDEBF002001F0004170BD95
:10CA1000C4F10004203C35DA0C341BDC04F11404AE
:10CA2000C4F1200500FA05F320FA04F001FA05F23A
:10CA300040EA020001F0004221F0004110EBD37007
:10CA400021FA04F642EB06015EEA430E08BF20EA33
:10CA5000D37070BDC4F10C04C4F1200500FA04F3D6
:10CA600020FA05F001FA04F240EA020001F0004168
:10CA700010EBD37041F100015EEA430E08BF20EADB
:10CA8000D37070BDC4F1200500FA05F24EEA020E23
:10CA900020FA04F301FA05F243EA020321FA04F052
:10CAA00001F0004121FA04F220EA020000EBD37009
:10CAB0005EEA430E08BF20EAD37070BD94F0000F09
:10CAC0000FD101F00046400041EB010111F4801F3D
:10CAD00008BF013CF7D041EA060195F0000F18BFEE
:10CAE000704703F00046520043EB030313F4801F2A
:10CAF00008BF013DF7D043EA0603704794EA0C0FE4
:10CB00000CEA135518BF95EA0C0F0CD050EA4106F9
:10CB100018BF52EA4306D1D181EA030101F0004176
:10CB20004FF0000070BD50EA410606BF104619469E
:10CB300052EA430619D094EA0C0F02D150EA0136AA
:10CB400013D195EA0C0F05D152EA03361CBF1046EB
:10CB500019460AD181EA030101F0004141F0FE418A
:10CB600041F470014FF0000070BD41F0FE4141F40E
:10CB7000780170BD70B54FF0FF0C4CF4E06C1CEA0E
:10CB800011541DBF1CEA135594EA0C0F95EA0C0FC3
:10CB900000F0A7F8A4EB050481EA030E52EA03357E
:10CBA0004FEA013100F088804FEA03334FF080559F
:10CBB00045EA131343EA12634FEA022245EA1115CC
:10CBC00045EA10654FEA00260EF000419D4208BF7D
:10CBD000964244F1FD0404F5407402D25B084FEA2A
:10CBE0003202B61A65EB03055B084FEA32024FF4D6
:10CBF00080104FF4002CB6EB020E75EB030E22BF33
:10CC0000B61A754640EA0C005B084FEA3202B6EBF2
:10CC1000020E75EB030E22BFB61A754640EA5C00A1
:10CC20005B084FEA3202B6EB020E75EB030E22BF31
:10CC3000B61A754640EA9C005B084FEA3202B6EB32
:10CC4000020E75EB030E22BFB61A754640EADC00F1
:10CC500055EA060E18D04FEA051545EA16754FEA53
:10CC600006164FEAC30343EA52734FEAC2025FEA71
:10CC70001C1CC0D111F4801F0BD141EA00014FF000
:10CC800000004FF0004CB6E711F4801F04BF0143D1
:10CC90000020B4F1FD0C88BFBCF5E06F3FF6AFAEED
:10CCA000B5EB030C04BFB6EB020C5FEA500C50F17D
:10CCB000000041EB045170BD0EF0004E4EEA113100
:10CCC00014EB5C04C2BFD4EB0C0541EA045170BD07
:10CCD00041F480114FF0000E013C90E645EA060E4B
:10CCE0008DE60CEA135594EA0C0F08BF95EA0C0F79
:10CCF0003FF43BAF94EA0C0F0AD150EA01347FF4C1
:10CD000034AF95EA0C0F7FF425AF104619462CE797
:10CD100095EA0C0F06D152EA03353FF4FDAE1046FA
:10CD2000194622E750EA410618BF52EA43067FF44B
:10CD3000C5AE50EA41047FF40DAF52EA43057FF4DB
:10CD4000EBAE12E74FF0FF3C06E000BF4FF0010CE6
:10CD500002E000BF4FF0010C4DF804CD4FEA410C4A
:10CD60007FEA6C5C4FEA430C18BF7FEA6C5C1BD017
:10CD700001B050EA410C0CBF52EA430C91EA030F98
:10CD800002BF90EA020F0020704710F1000F91EAF5
:10CD9000030F58BF994208BF90422CBFD8176FEAC3
:10CDA000E37040F0010070474FEA410C7FEA6C5C91
:10CDB00002D150EA013C07D14FEA430C7FEA6C5C98
:10CDC000D6D152EA033CD3D05DF8040B704700BFC4
:10CDD0008446104662468C461946634600E000BF12
:10CDE00001B5FFF7B7FF002848BF10F1000F01BDE4
:10CDF0004DF808EDFFF7F4FF0CBF012000205DF8AF
:10CE000008FB00BF4DF808EDFFF7EAFF34BF012033
:10CE100000205DF808FB00BF4DF808EDFFF7E0FFCC
:10CE200094BF012000205DF808FB00BF4DF808ED1D
:10CE3000FFF7CEFF94BF012000205DF808FB00BF84
:10CE40004DF808EDFFF7C4FF34BF012000205DF866
:10CE500008FB00BF4FEA410C7FEA6C5C02D150EA4C
:10CE6000013C0AD14FEA430C7FEA6C5C02D152EAE2
:10CE7000033C02D14FF0000070474FF001007047B3
:10CE80004FEA410212F5001215D211D56FF47873F2
:10CE9000B3EB625212D94FEAC12343F0004343EA95
:10CEA000505311F0004F23FA02F018BF4042704770
:10CEB0004FF00000704750EA013005D111F00040FA
:10CEC00008BF6FF0004070474FF00000704700BF90
:10CED0004FEA4102B2F1E04324BFB3F5001CDCF19C
:10CEE000FE5C0DD901F0004C4FEAC0024CEA5070D4
:10CEF000B2F1004F40EB830008BF20F00100704703
:10CF000011F0804F21D113F13872BCBF01F0004005
:10CF1000704741F480114FEA5252C2F11802C2F137
:10CF2000200C10FA0CF320FA02F018BF40F00100B8
:10CF30004FEAC1234FEAD32303FA0CFC40EA0C006A
:10CF400023FA02F34FEA4303CCE77FEA625307D1A7
:10CF500050EA01331EBF4FF0FE4040F440007047DE
:10CF600001F0004040F0FE4040F40000704700BF78
:10CF700080F0004002E000BF81F0004142001FBF8E
:10CF80005FEA410392EA030F7FEA226C7FEA236C97
:10CF90006AD04FEA1262D2EB1363C1BFD21841408C
:10CFA00048404140B8BF5B42192B88BF704710F022
:10CFB000004F40F4000020F07F4018BF404211F0C5
:10CFC000004F41F4000121F07F4118BF494292EA2D
:10CFD000030F3FD0A2F1010241FA03FC10EB0C0059
:10CFE000C3F1200301FA03F100F0004302D54942E6
:10CFF00060EB4000B0F5000F13D3B0F1807F06D393
:10D0000040084FEA310102F10102FE2A51D2B1F18A
:10D01000004F40EBC25008BF20F0010040EA03007F
:10D020007047490040EB0000013A28BFB0F5000FFF
:10D03000EDD2B0FA80FCACF1080CB2EB0C0200FAB5
:10D040000CF0AABF00EBC25052421843BCBFD04004
:10D050001843704792F0000F81F4000106BF80F47E
:10D0600000000132013BB5E74FEA41037FEA226C41
:10D0700018BF7FEA236C21D092EA030F04D092F00C
:10D08000000F08BF0846704790EA010F1CBF002040
:10D09000704712F07F4F04D1400028BF40F000409D
:10D0A000704712F100723CBF00F50000704700F0BD
:10D0B000004343F0FE4040F4000070477FEA2262E4
:10D0C00016BF08467FEA23630146420206BF5FEAB5
:10D0D000412390EA010F40F4800070474FF00003B5
:10D0E00004E000BF10F0004348BF40425FEA000C7C
:10D0F00008BF704743F0964301464FF000001CE024
:10D1000050EA010208BF70474FF000030AE000BF79
:10D1100050EA010208BF704711F0004302D54042B7
:10D1200061EB41015FEA010C02BF84460146002029
:10D1300043F0B64308BFA3F18053A3F50003BCFA44
:10D140008CF2083AA3EBC25310DB01FA02FC6344F1
:10D1500000FA02FCC2F12002BCF1004F20FA02F2F8
:10D1600043EB020008BF20F00100704702F12002EB
:10D1700001FA02FCC2F1200250EA4C0021FA02F24C
:10D1800043EB020008BF20EADC7070477BB972B93C
:10D190000029BEBF00204FF0004106E008BF002874
:10D1A0001CBF6FF000414FF0FF3000F075B8ADF1DB
:10D1B000080C6DE904CE002909DB002B1ADB00F016
:10D1C000A6F8DDF804E0DDE9022304B07047404230
:10D1D00061EB4101002B1BDB00F099F8DDF804E066
:10D1E000DDE9022304B0404261EB4101524263EBAE
:10D1F00043037047524263EB430300F088F8DDF8C5
:10D2000004E0DDE9022304B0404261EB41017047D4
:10D21000524263EB430300F07AF8DDF804E0DDE905
:10D22000022304B0524263EB4303704753B94AB937
:10D23000002908BF00281CBF4FF0FF314FF0FF301E
:10D2400000F02AB8ADF1080C6DE904CE00F05FF8EB
:10D25000DDF804E0DDE9022304B07047D0B5002218
:10D260000B4B06460F46FFF75BFB00F017F8044632
:10D27000FFF7DCFA0022074BFFF752FB02460B4692
:10D2800030463946FFF794F900F008F82146D0BD42
:10D290000000F03D0000F041704700BF4A0011D28D
:10D2A00012F5001211D20DD56FF47873B3EB625200
:10D2B0000ED44FEAC12343F0004343EA505323FA0C
:10D2C00002F070474FF00000704750EA013002D181
:10D2D0004FF0FF3070474FF00000704738B50546FB
:10D2E0000C460022002328462146FFF78BFD28B973
:10D2F00028462146BDE83840FFF7B0BF284604F174
:10D300000041FFF7ABFF404261EB410138BD2DE921
:10D31000F04F07468C460846099E15463C4619467E
:10D32000002B40F0C5808242B2FA82F746D94FB155
:10D33000C7F1200E00FA07F3BD4024FA0EFEBC40F0
:10D340004EEA030C4FEA15481FFA85FE220CBCFB7F
:10D35000F8F908FB19C309FB0EFA42EA03439A45A0
:10D3600028D9EB1809F1FF3004D29A4502D9A9F166
:10D3700002002B44A3EB0A03A4B2B3FBF8F208FBB0
:10D38000123302FB0EFE44EA0344A64514D92C19BD
:10D3900002F1FF3303D2A64501D9931E2C44A4EB1E
:10D3A0000E0443EA00401EB1FC4000233460736069
:10D3B000BDE8F08F4846DDE71346F0E702B9FFDE2F
:10D3C00087BB831A01214FEA154EAAB2200CB3FB8A
:10D3D000FEFC0EFB1C330CFB02F840EA03439845AD
:10D3E00062D9EB180CF1FF3004D2984502D9ACF1A8
:10D3F00002002B44A3EB0803A4B2B3FBFEFC0EFB1C
:10D400001C330CFB02F244EA0344A2424ED92C190D
:10D410000CF1FF3304D2A24202D9ACF102032C4436
:10D42000A41ABEE7C7F1200CBD4000FA07F320FAAA
:10D430000CF84FEA154E24FA0CFCBC404CEA0302EF
:10D44000ABB2B8FBFEFC110C0EFB1C800CFB03F90D
:10D4500041EA0040814523D928180CF1FF3104D25C
:10D46000814502D9ACF102012844A0EB090092B237
:10D47000B0FBFEFC0EFB1C000CFB03F842EA004371
:10D4800098450FD9EB180CF1FF3204D2984502D918
:10D49000ACF102022B44A3EB080342EA014192E7FC
:10D4A0006146E2E76246F6E76046A3E76346B7E710
:10D4B000834205D90EB1C6E900700021084677E71E
:10D4C000B3FA83F181B9834201D3BA420AD8BC1AB4
:10D4D00060EB030301209C46002E67D0C6E9004C98
:10D4E000002165E70846F7E7C1F1200C8B4002FAFE
:10D4F00001F522FA0CF420FA0CFB27FA0CF28F400B
:10D500001C4300FA01F34FEA144913431FFA84FE47
:10D510001A0CBBFBF9F809FB18BB08FB0EFA42EA30
:10D520000B4292453ED9A21808F1FF3004D2924531
:10D5300002D9A8F102002244A2EB0A029BB2B2FB7C
:10D54000F9F809FB182208FB0EFE43EA0242964551
:10D550002AD9A21808F1FF3304D2964502D9A8F1BE
:10D560000203224443EA0040A2EB0E02A0FB059313
:10D570009A42CE46984602D306D14F4504D201388E
:10D58000B9EB050E63EB040886B1B7EB0E0362EB53
:10D59000080707FA0CFCCB40CF404CEA0303C6E96E
:10D5A00000379DE74046C7E74346DBE73146FFE6E5
:10D5B00010F8012B11F8013B012A28BF9A42F7D03D
:10D5C000D01A7047034613F8012B002AFBD1181A12
:10D5D00001387047000000000128F8B50E4606D05B
:10D5E00016F0ACFA162303604FF0FF30F8BD19F0C7
:10D5F00083FB334A33687468A3FB0235B66802FBC9
:10D6000004559C194FEAD03343EA414345EBE67594
:10D61000A3FB0236C90BC0F30E0002FB0161A0FBA5
:10D620000202E41A4FEAD03343EA424365EB0105B4
:10D63000E41A65F1000520461FA3D3E9002329461B
:10D64000FFF7A4FD1CA3D3E9002307460E4620469E
:10D650002946FFF79BFD14464FF02003EFF3118599
:10D6600083F31288BFF36F8F164810F0B1FA40B9F8
:10D67000154916488E2215F0BEFF8E21124815F06E
:10D68000B3FF104810F0C0FA114B0E48C3E9007602
:10D690009C6010F0ABFA40B90B490C48B92215F068
:10D6A000AAFFB921084815F09FFF85F31188BFF341
:10D6B0006F8F00209AE700BF00CA9A3B000000006D
:10D6C00000CA9A3B186D0120C49303008A9303009B
:10D6D000E04E012000000000002370B586B0CDE9C7
:10D6E000043304230D4606460193002800F09E8073
:10D6F000002900F09B80062104A817F0C5FE04460F
:10D7000038B1024645214E4815F0AFFF204606B01D
:10D7100070BD014604AA304617F0B3FE044640B17E
:10D7200045210246474815F0A0FF04A817F0BFFEA8
:10D73000ECE7032101AB02AA04A817F0B1FF0446ED
:10D7400018B1024645214048EDE7019B06AA134463
:10D75000014603F8100C022202A813F0FBFF6A46F0
:10D760000121C6B204A817F066FF044618B10246AC
:10D7700045213648D7E7009B042B16D0052B07D050
:10D7800028705721324815F070FF6FF07F04CCE706
:10D7900009230F2E2B7029D96FF0150245212D4832
:10D7A00015F063FF6FF01504BFE707230F2E2B70F2
:10D7B000F2D8294B33F81600284EE0B1FFF746F8AF
:10D7C0001DA3D3E90023FFF7ABF8FFF781FB04218A
:10D7D00068600DEB010302AA04A8019117F060FF35
:10D7E000044650B1024645211D489CE71D4B33F8C5
:10D7F00016001D4EE1E71D48E9E7019B06AA134408
:10D800000146022203F8100C02A813F0A3FFC2B2D3
:10D810000F2A02D945211648C2E7501CC0B2FFF7B3
:10D8200061FC3146FEF70CFEA8607EE76FF0150440
:10D830006CE700BFAFF300807B14AE47E17A244071
:10D840001FAB03004DAB03007EAB0300AFAB030087
:10D85000D6AB030003AC0300388C03000AD7A33F08
:10D860002CAC0300588C03000AD723400AD7A340EE
:10D870005CAC0300000000002DE9F04306460C46B6
:10D8800093B009B9002024E008680028FAD08B681A
:10D890006268191D91420BD804229549184419F069
:10D8A00047FD28B90423F360A3680433A36087E02D
:10D8B000A3686268591D91420ED8206805228D49DF
:10D8C000184419F035FD38B90120A368F06005331C
:10D8D000A36013B0BDE8F083A3686268191D91428C
:10D8E0000DD8206804228449184419F021FD30B96C
:10D8F00002230120F360A36870610433E8E7D4E9F0
:10D9000001038342BED22168CA5CCF18222A06D105
:10D910002146304613B0BDE8F0430CF003B92D2A80
:10D9200003D0A2F13005092D5FD800220192002911
:10D93000A8D002A90D464FF02E0EC31A17F8010BFE
:10D94000392810D82A281BD9A0F12B0CBCF10E0FB6
:10D9500016D8DFE80CF00D150D37150D0D0D0D0D5A
:10D960000D0D0D0D0D0000F0DF0CBCF1450F07D1C2
:10D97000087001323F2A01F1010101D09A42DDD144
:10D9800012AB1A440023284602F8403C01A913F0C8
:10D990003DFD019F8046AF4289463FF473AF52A3DD
:10D9A000D3E90023C6E90689FFF740FA68B16FF0B2
:10D9B0000043736108237D1BA768F3603D44A560A5
:10D9C000012086E781F800E0D3E70022404649467F
:10D9D0004A4BFFF721FA10B14FF00043E9E7404608
:10D9E0004946FFF74DFA7061E4E75B2A53D1E268DC
:10D9F000B2F57A7FBFF446AF0132E260CA5C5B2ABF
:10DA00007FF440AF0133A360204618F0A1F8D4E9B9
:10DA10000123934263D22268D25C5D2A0CD1002597
:10DA20002F46E368013BE36007B17D602023C6E930
:10DA30000273A368013339E700252F46013BA36039
:10DA4000206918F0FFF8A8460546002800F09D80E0
:10DA5000FFB1C8F80000C0F80480A3682046013375
:10DA6000A36018F075F821462846FFF705FF002847
:10DA700000F08E80204618F06BF8D4E90123934221
:10DA800080F086802268D35C2C2BD9D05D2B7FD18F
:10DA9000C7E70746E1E77B2A7FF4F4AEE268B2F518
:10DAA0007A7FBFF4EFAE0132E260CA5C7B2A7FF47A
:10DAB000E9AE0133A360204618F04AF8D4E9012307
:10DAC00093420CD22268D25C7D2A19D100252F46C0
:10DAD000E368013BE36007B17D604023A7E7013BBA
:10DAE000A360CFE6AFF300800000C0FFFFFFDF417F
:10DAF00067C1030071D2030077D203000000E0C1C8
:10DB000000252F46A846013BA360206918F09AF82B
:10DB1000A9460546002838D0AFB3C9F80000C0F8C0
:10DB20000490A36820460133A36018F011F8214641
:10DB300028460BF0F7FF58B3204618F009F82B6978
:10DB4000C5F810802B62D4E90123934220D22268C9
:10DB5000D25C3A2A1CD101332046A36017F0F8FFAB
:10DB600021462846FFF788FE90B1204617F0F0FFC7
:10DB7000D4E9012393420BD22268D35C2C2BC4D06E
:10DB80007D2B05D1A4E70746CBE7002F3FF47AAE03
:10DB900038460CF061FC75E6174BD0B506461868A0
:10DBA0000F4618F04FF8044670B10823C0E9066725
:10DBB000C36039460EA3D3E900233046FFF736F998
:10DBC00020B16FF0004363612046D0BD0022304693
:10DBD00039460A4BFFF720F910B14FF00043F2E746
:10DBE00030463946FFF74CF96061EDE7AFF300804E
:10DBF0000000C0FFFFFFDF41A44501200000E0C19D
:10DC00002DE9F04F9B469FB0002382460E461592A9
:10DC10001A934FF000089C4B4FF000091F683846DC
:10DC2000FFF7D0FC04461996199B1A782B2A4CD082
:10DC30003AD80D2A33D8082A33D8002A3DD00023F9
:10DC40000A93199D2B78302B40F0A9806B7803F054
:10DC5000DF03582B66D10A9B19A98C4A50460193C1
:10DC60001AABCDF808B000931BAB14F017F810F006
:10DC70000706044605D0062E29D101350023199543
:10DC80000A93159B002B40F086850A9BD3B1424630
:10DC900009F10043104619461FB0BDE8F08F202A55
:10DCA000CDD101331993BFE72D2AC8D101220A92A1
:10DCB0005A1C19925B78002BC3D1159B1996002B27
:10DCC00040F0678542464B46E4E70022EFE71A9AA8
:10DCD0003AB135211CA819F0B1FE1A99504614F03A
:10DCE000B9FA013E042E06D8DFE806F00A0314173D
:10DCF0000A00DDE91C892107C3D549F00049C0E7C6
:10DD0000DDE91C831B9A23F4801302F2334243EAB9
:10DD10000259F0E7DFF87891EDE76FF000494FF036
:10DD2000FF38E8E7199B5A1C19925B78302BF9D021
:10DD3000002BA6D0012307930A22199B08930023E6
:10DD40009B46CDE9053319980578A5F13003D9B282
:10DD5000092926D92246394619F0EAFA002832D094
:10DD600000202A465C4603460490652A01D0452AD5
:10DD700013D11CB9079A02439FD00024199E721C2C
:10DD8000199272782B2A77D02D2A7AD00027A2F107
:10DD90003001092940F28280199600259EE0002377
:10DDA000C9E7BBF1080F00F101000BF1010BD5BF72
:10DDB0000699059902FB013302FB0133D4BF069398
:10DDC00005931990BFE7199B1A1919921A5DBBF1B7
:10DDD000000F35D05C460490A2F13003092B12D914
:10DDE0000123C2E7199B01305A1C19925A78302A34
:10DDF000F8D0A2F13103082B00F2D2840490002065
:10DE0000199B04460893303A00F1010312D004999B
:10DE100005191944234604910A21AB4212D1231853
:10DE20000134082B04441BDC06990A2303FB01235D
:10DE300006930023199A1846511C19915278CBE782
:10DE40005846D4E7082B04DC069F4F43069701335E
:10DE5000E3E75F1C102FDEBF059F4F430597F6E7F2
:10DE6000102CDFBF0A23059903FB01230593E0E78C
:10DE70000023049301237DE70027B21C1992B27896
:10DE800085E70127F9E700BF208C0300988B03008A
:10DE90000000F07F199A511C19915278302AF9D05C
:10DEA000A2F1310108293FF678AFA2F1300C4FF012
:10DEB0000A0E199A0992199A511C19915278A2F1D5
:10DEC0003005092D35D9099D491B44F61F650829E0
:10DED00002DC6545A8BF654607B16D42002C4CD1F8
:10DEE000079901437FF4CDAE002B7FF4E6AE692A9B
:10DEF00026D023DC492A23D04E2A7FF4DEAE9E4969
:10DF000019A819F004FC00283FF4D7AE199B1B7820
:10DF1000282B2CD11CAA994919A819F00CFC05280A
:10DF200025D11D9BDDF8708043F0FF4949F4E009DD
:10DF3000A7E60EFB0C2CACF1300CBCE76E2ADCE73C
:10DF40008F4919A819F0E3FB00283FF4B6AE199BDE
:10DF500019A88C49013B199319F0D9FB10B9199BE9
:10DF600001331993DFF820924FF0000889E68748C3
:10DF700015F0ECF88046894683E6049BBBF1000F60
:10DF800008BFA346102C0698A5EB03032646A8BF9E
:10DF900010260793FEF74AFC092C8046894613DDBC
:10DFA0007B4B03EBC60353E91223FEF7B9FC804613
:10DFB00089460598FEF73AFC02460B46404649461C
:10DFC000FEF7F8FA804689460F2C36DC079B002BBB
:10DFD0003FF457AE22DD162B09DC6D49424601EBBA
:10DFE000C3014B46D1E90001FEF79AFCC2E7C4F138
:10DFF0002503079A934220DBC4F10F04644D424687
:10E000004B4605EBC401D1E90001FEF789FC079BF3
:10E010001C1B05EBC405D5E90023E5E7079B163378
:10E020000BDB049B404649465D1B594B03EBC50582
:10E03000D5E90023FEF79EFD9CE7A61B079B1E4427
:10E04000002E74DD16F00F030AD05149424601EB51
:10E05000C3014B46D1E90001FEF762FC80468946C8
:10E0600036F00F0652D0B6F59A7F27DD4FF0000B41
:10E07000CDF810B0CDF820B0CDF818B02223DFF8DD
:10E0800008914FF00008CAF80030089B002B3FF4BD
:10E09000F8AD1A99504614F0DDF80699504614F080
:10E0A000D9F80499504614F0D5F80899504614F060
:10E0B000D1F85946504614F0CDF8E2E5354B36110B
:10E0C00040464946059300231F46012E21DC0BB133
:10E0D000804689462F4BA9F15479424603EBC70786
:10E0E0004B46D7E90001FEF71BFC274B0A4680464A
:10E0F0000B4029498B42B9D8A1F580118B4286BFCC
:10E10000DFF898904FF0FF3802F15479002305931F
:10E1100080E0F20705D5059BD3E90023FEF700FC5C
:10E120000123059A0137761008320592CDE7EDD02C
:10E13000764216F00F020AD0154B4046494603EBD3
:10E14000C203D3E90023FEF715FD80468946361148
:10E15000DCD01F2E24DD4FF0000BCDF810B0CDF831
:10E1600020B0CDF818B022234FF000084FF000097E
:10E17000CAF8003089E700BF2CD80300AC8B03003D
:10E1800024D8030054D803000000F07FB1A103009D
:10E19000E8820300C08203000000A07CFFFFEF7F45
:10E1A00016F0100340464946B04F18BF6A23059346
:10E1B0000023F20704D5D7E90023FEF7B1FB0123C2
:10E1C000761007F10807F4D10BB180468946059B0C
:10E1D000C3B1C9F30A524946C2F16B03002B11DDEA
:10E1E0001F2B40F32381342B4FF00008DBBFC2F11B
:10E1F0004B024FF0FF334FF05C7903FA02F2D8BFC5
:10E2000002EA01090022002340464946FEF7F0FDDC
:10E210000028A0D1069B5A460899504600932346F1
:10E2200014F082F8089000283FF420AF049B4FF0D0
:10E23000000B5D1B079BCDF810B0002BB4BF2B4625
:10E2400000230E93079B23EAE3731493089B504625
:10E25000596813F0BFFF069000283FF40FAF089BEA
:10E260000C301A6903F10C010232920018F09BFE87
:10E270001CAB4246504601931BAB00934B46CDE985
:10E280000C8914F027FB1A9000283FF4F7AE012107
:10E29000504614F093F80346049000283FF4EEAE85
:10E2A0001B9D1C9A002DA9BF0E9B149BEE18149C5D
:10E2B000B8BF5C1B059BB8BF0E9EED1A6C4B154496
:10E2C000C2F13602013D9D4280F2C2805B1B0127F4
:10E2D0001F2BA2EB030200F3B08007FA03F3002523
:10E2E0000F93B718059B1444BE421C443346A8BF85
:10E2F0003B46A342A8BF2346002BC2BFFF1AE41A25
:10E30000F61A0E9B002B17DD1A460499504614F09E
:10E3100013F9049000283FF4B1AE01461A9A504612
:10E3200014F062F8099000283FF4A8AE1A995046FC
:10E3300013F090FF099B1A93002F00F38D80079B29
:10E34000002B08DD149A5046069914F0F5F8069053
:10E3500000283FF493AE002C08DD22460699504673
:10E3600014F044F9069000283FF488AE002E08DD32
:10E3700032460499504614F039F9049000283FF4CD
:10E380007DAE069A50461A9914F0A0F983460028EB
:10E390003FF474AE0024C3680499C4600B9319F071
:10E3A00004FBA0426ADA0B9B53EA080340F090801A
:10E3B000C9F31303002B40F08B8029F000431B0DA1
:10E3C0001B05B3F1D66F40F28380DBF814301BB924
:10E3D000DBF81030012B7BDD59460122504614F04A
:10E3E00005F90499834619F0E0FA002870DD0599D3
:10E3F0004B46204A002900F08B8002EA0901B1F166
:10E40000D66F00F38580B1F15C7F7FF7ACAE1A4B1D
:10E41000404649460022FEF783FA0B46804689466D
:10E42000034304BF2223CAF8003032E64FF0FF3224
:10E4300002FA03F303EA0808E4E6C5F17F450F9703
:10E4400005F57F0505F57B45E23507FA05F548E753
:10E45000012300250F9344E73A461A99504614F0D9
:10E46000C5F81A9000287FF46AAF07E69882030087
:10E4700002FCFFFF0000F07F00005039CDF824902F
:10E4800065D10B9AC9F313035AB3994A93422BD11E
:10E49000059B414603B34A46964B13404FF0FF326B
:10E4A000B3F1D46F1BD81B0DC3F16B0302FA03F356
:10E4B000994219D1904B099A9A4202D101313FF405
:10E4C000DDAD8C4B4FF00008099A1A4002F5801917
:10E4D000059B002B9BD1DCE54FF0FF33E8E71346AB
:10E4E000E6E753EA080382D0E5B1099B1D42EFD06D
:10E4F0000B9B4046059A4946C3B118F076FF024689
:10E500000B46DDE90C01FEF755F880468946DFE74A
:10E5100013404FF0FF38A3F580136FEA13596FEAE9
:10E520000959D5E70F9B13EA080FE0E718F05DFFE4
:10E5300002460B46DDE90C01FEF73AF80022002303
:10E5400080468946FEF754FC0028C1D00BE60499AA
:10E55000584619F045FA00224FF0804306460F4610
:10E56000FEF75AFC002870D00B9B002B42D00026EF
:10E57000624F624D099B23F000431B0D1B050F9357
:10E580000F9A5F4B9A4240F0C380099B4046A3F12B
:10E590005479494614F028F902460B46304639466C
:10E5A000FEF7BEF942464B46FEF704F80B465149CA
:10E5B0008046544A194091425DD90D9A4E4B9A4279
:10E5C00003D10C9B01333FF459ADDFF82C914FF090
:10E5D000FF381A99504613F03DFE0699504613F045
:10E5E00039FE0499504613F035FE5946504613F053
:10E5F00031FE2BE6B8F1000F19D1099BC3F31303C9
:10E60000E3B900223D4B30463946FEF7FBFBC8B963
:10E6100000223D4B30463946FEF782F904460D464E
:10E6200005F1004316941793DDE91667A2E7B8F1E8
:10E63000010F03D1099B002B3FF495AD0026334F0A
:10E64000002496E70B9C304DEAE72F4B0022304622
:10E650003946FEF765F90B9B04460D4633B901F1C7
:10E66000004310901193DDE9106783E702460B46E3
:10E67000CDE91023F7E703F15479059B002BA8D1CE
:10E6800029F000430F9A1B0D1B059A42A1D1204689
:10E690002946FEF723FEFEF715F902460B462046F3
:10E6A0002946FDF785FFC9F313030B9A044643EA95
:10E6B00008030D46134366D009A3D3E90023FEF7F0
:10E6C000A1FB00287FF4E5AC2046294606A3D3E948
:10E6D0000023FEF7B5FB00283FF47BAFD9E400BF71
:10E6E0009535A094FFFFDF3F35E5AF350000E03FF3
:10E6F000FFFF0F000000F07FFFFFEF7F0000F03F03
:10E700000000E07FFFFF9F7C0000E03F0000F0BFC3
:10E71000059B13B30F9BB3F1D46F1ED82046294637
:10E7200025A3D3E90023FEF777FB90B129462046C5
:10E73000FEF7B4FD012838BF0120FEF777F80B9BE8
:10E7400004460D46D3B901F1004312901393DDE95D
:10E75000126707F1D6630F9A9F1ADDE90C0114F0D6
:10E7600043F802460B4630463946FEF7D9F8DDE954
:10E770000C23FDF71FFF804689467EE702460B46C5
:10E78000CDE91223E3E70EA3D3E90023FEF73AFB1A
:10E79000A1E700230A93199B159A1360FFF775BA36
:10E7A000652A3FF465AB452A3FF462AB0123FFF7CE
:10E7B00097BB00BFAFF300800000C0FFFFFFDF4149
:10E7C0009535A094FFFFCF3F2DE9F04F164699B045
:10E7D0001F46446A0546DDF89480CDE9046774B9A4
:10E7E000102012F051F80246686220B9A84BEA21C5
:10E7F000A84811F06DFFC0E901440460C4606B6A71
:10E80000196851B15A680123284693404A608B60C9
:10E8100013F020FD6B6A00221A603B1EB7BF23F085
:10E820000043002301220593A8BFC8F80030DDF89B
:10E830001490994BB8BFC8F8002033EA090319D1E6
:10E8400042F20F73249A1360C9F31303334300F0A9
:10E850007E85269B53B9914B22E0914B039308335D
:10E86000269A1360039819B0BDE8F08F8B4B039381
:10E870000333F5E7DDE904340022CDE90C34DDE9AA
:10E880000C010023FEF7B4FA804658B10123249A04
:10E890001360269B002B00F0578582481860431EAA
:10E8A0000393DFE716ABC9F30A542846019317AB6D
:10E8B0000093DDE90C2314F00DF88346002C7CD086
:10E8C0000D9BA4F2FF34CDF84C80C3F31303DDE9B4
:10E8D0000C0143F07F5141F440110022724BFDF7CF
:10E8E00067FE65A3D3E90023FEF71AF864A3D3E912
:10E8F0000023FDF75FFE06460F462046FDF7A6FF04
:10E9000061A3D3E90023FEF70BF802460B4630461D
:10E910003946FDF74FFE06460F46FEF7B1FA0022D4
:10E920008246002330463946FEF76CFA48B150461D
:10E93000FDF78CFF32463B46FEF75AFA08B90AF15A
:10E94000FF3ABAF1160F56D8584B03EBCA03DDE96C
:10E950000C01D3E90023FEF755FA00284DD00AF147
:10E96000FF3A00230F93169B1C1B631E099349BF9C
:10E97000C4F1010300230693002354BF06930993B7
:10E98000BAF1000F3BDB099BCDF838A05344099343
:10E9900000230A93229B092B00F28C80052BC5BF14
:10E9A000043B002401242293229B023B032B00F210
:10E9B0008D80DFE803F02E504E5CDDE916431C44E9
:10E9C00004F23243202BC6BFC3F1400304F21240CD
:10E9D000C3F1200304F1FF34C5BF09FA03F326FA9B
:10E9E00000F006FA03F01843FDF720FF0123A1F120
:10E9F000F871139371E70123B4E70F90B3E7069B17
:10EA0000A3EB0A030693CAF100030A9300230E93B3
:10EA1000C0E700230B93239B002B5ADC4FF0010926
:10EA20004B46CDF82090CDF88C900022686A426069
:10EA3000042202F1140641689E4250D9284613F080
:10EA4000C9FB039000284ED1194B02464FF4D571F3
:10EA5000CEE60123DEE700230B93239B0AEB030999
:10EA600009F10103012B0893B8BF0123DDE701235E
:10EA7000F2E700BFAFF3008061436F63A787D23F27
:10EA8000B3C8608B288AC63FFB799F501344D33F9D
:10EA90005ED8030075D803000000F07F5AD8030049
:10EAA00051D80300B5AA03000000F83FE882030034
:10EAB000E9D80300012400230B9422934FF0FF397F
:10EAC00000221223CDF820902392AEE701230B936E
:10EAD000F4E7DDF88C904B46CDF82090A5E70131A6
:10EAE00052004160A5E76B6A039A1A60089B0E2BDF
:10EAF00000F2A880002C00F0A580BAF1000F34DDF0
:10EB00000AF00F03994A1AF4807F02EBC303D3E99A
:10EB10000034CDE910344FEA2A1416D0944B04F097
:10EB20000F040327D3E90823DDE90C01FEF722F8DF
:10EB3000CDE904018E4E54B9DDE91023DDE904016D
:10EB4000FEF718F8CDE9040129E00227F2E7E10712
:10EB500008D50137DDE91001D6E90023FDF7E0FE15
:10EB6000CDE9100164100836E5E700F0A580CAF190
:10EB700000047E4B7E4E022704F00F02241103EBAB
:10EB8000C203DDE90C01D3E90023FDF7C9FE002330
:10EB9000CDE90401002C40F08480002BD2D10F9BE2
:10EBA000002B00F08B800022DDE90434CDE9103425
:10EBB000DDE910016F4BFEF725F900287ED0089B98
:10EBC000002B7BD0B9F1000F38DD0AF1FF38013797
:10EBD0004C460022684BDDE91001FDF7A1FECDE9AE
:10EBE00004013846FDF732FEDDE90423FDF798FE07
:10EBF0000022624BFDF7DEFCA1F15076CDE9100159
:10EC00001196002C5DD100225D4BDDE90401FDF77A
:10EC1000CFFC02460B46CDE90423109A3346FEF79B
:10EC20000FF9002840F09B82109A06F10043DDE9BD
:10EC30000401FEF7E7F8002840F08F82DDE90C348C
:10EC4000CDE90434179B002BC0F25181BAF10E0FAD
:10EC500000F34D81454B03EBCA03D3E90034CDE902
:10EC60000634239B002B80F2DA80089B002B00F3F4
:10EC7000D68040F071820022414BDDE90601FDF7AC
:10EC80004FFEDDE90423FEF7D1F8089C2646002854
:10EC900040F04782039F31230AF1010A07F8013B44
:10ECA00043E2E20705D50137D6E90023FDF738FE38
:10ECB0000123641008366DE7022770E7D046089CF0
:10ECC0008FE70399294B214403EBC40312910B995D
:10ECD000DDE9106753E90223002955D000202949B6
:10ECE000FDF748FF3B463246FDF762FC039FCDE946
:10ECF0001001DDE90401FEF7C3F80446FDF7A6FDA7
:10ED000002460B463034DDE90401FDF751FC0246B2
:10ED10000B4607F8014BCDE90423DDE91023FEF78C
:10ED200071F8002873D100201249DDE90423FDF7B2
:10ED30003FFCDDE91023FEF765F8002840F0B680BF
:10ED4000129B9F423FF47AAF00220B4BDDE910018A
:10ED5000FDF7E6FD0022084BCDE91001DDE90401D5
:10ED6000FDF7DEFDCDE90401C3E700BFE882030043
:10ED7000C08203000000F03F0000244000001C405F
:10ED8000000014400000E03F30463946FDF7C8FD62
:10ED9000129B039C1493CDE91001DDE90401FEF7F9
:10EDA0006FF81590FDF752FD02460B46DDE90401B0
:10EDB000FDF7FEFB159B06460F463033002204F894
:10EDC000013B129B9C4224D1A44BDDE91001FDF7CD
:10EDD000F1FB02460B4630463946FEF731F8002873
:10EDE00063D100209D49DDE91023FDF7E1FB0246D8
:10EDF0000B4630463946FEF705F800283FF41EAFB3
:10EE0000149F7B1E149317F8013C302BF8D0C24698
:10EE10003BE0934BFDF784FDCDE90401BDE7DDE95F
:10EE20000489039F40464946DDE90623FDF7A2FE1B
:10EE3000FEF726F80446FDF709FD04F13006DDE98A
:10EE40000623FDF76DFD02460B4640464946FDF799
:10EE5000AFFB07F8016B039E0246DDF820C00B46AE
:10EE6000BE1BB44536D1FDF7A5FB80468946DDE9DA
:10EE70000623FDF7E5FF58BB40464946DDE906237A
:10EE8000FDF7B6FF08B1E10722D42846594613F032
:10EE9000E1F900230AF101003B70249B1860269BD6
:10EEA000002B3FF4DFAC1F60DCE427463B461F46E7
:10EEB00013F8012D392A07D1039A9A42F7D130224B
:10EEC000039908F101080A701A7801321A709EE756
:10EED000D046EBE70022624BFDF722FD0022002323
:10EEE00080468946FDF784FF00289BD0CDE70B9A2A
:10EEF000002A00F0D080229A012A00F3B380139AEE
:10EF0000002A00F0A68003F233430A9C069F069A6B
:10EF1000012128461A440692099A1A44099213F0CC
:10EF20004DFA0646002F0CDD099B002B09DDBB4284
:10EF3000069AA8BF3B46D21AFF1A0692099AD31A1C
:10EF400009930A9BF3B10B9B002B00F0A880002CC7
:10EF500010DD31462246284613F0EEFA5A460146A5
:10EF60000646284613F040FA804659462846C346CE
:10EF700013F070F90A9B1A1B04D05946284613F067
:10EF8000DBFA83460121284613F018FA0E9B04464B
:10EF9000002B40F386801A460146284613F0CCFA2F
:10EFA000229B0446012B7FDD4FF00008236904EB10
:10EFB0008303186918F0ACFCC0F12000099B1844C9
:10EFC00010F01F0000F09280C0F12003042B40F3EA
:10EFD0008A80C0F11C00069B074403440693099BEA
:10EFE00003440993069B002B05DD59461A46284623
:10EFF00013F0FCFA8346099B002B05DD21461A46D7
:10F00000284613F0F3FA04460F9B002B70D02146DC
:10F01000584618F0CAFC00286ADA002359460A222A
:10F02000284613F039F90B9B0AF1FF3A8346002B6F
:10F0300000F09481314600230A22284613F02CF96F
:10F04000B9F1000F064600F39380229B022B57DC98
:10F050008EE0169BC3F1360357E700BF0000E03F88
:10F0600000002440089B5C1E0A9BA342B7BF0A9B7A
:10F070001C1B0A94E21ABFBF0E9B00249B180E9320
:10F08000089B002BBBBF069B089A069F9F1AACBF2C
:10F09000089B00233BE70A9C069F0B9E42E70A9AC7
:10F0A0006BE7229B012B19DC049BBBB9059BC3F3C7
:10F0B00013039BB9059B23F000431B0D1B0583B174
:10F0C000069B4FF0010801330693099B0133099316
:10F0D0000E9B002B7FF46AAF01206FE74FF0000812
:10F0E000F6E79846F4E73FF47DAF18461C3072E728
:10F0F000089B002B36DC229B022B33DDDDF82090B1
:10F10000B9F1000F0DD121464B460522284613F0D8
:10F11000C3F801460446584618F047FC00283FF75C
:10F12000B9AD239B039F6FEA030A4FF00008214605
:10F13000284613F08FF8002E3FF4A7AEB8F1000F69
:10F1400005D0B04503D04146284613F083F8314638
:10F15000284613F07FF898E600242646E1E7C246E9
:10F16000264697E50B9BDDF82090002B00F0FD80F4
:10F17000002F05DD31463A46284613F037FA064699
:10F18000B8F1000F5CD07168284613F023F80746E9
:10F1900028B9804B024640F2EA21FFF729BB3269C9
:10F1A00006F10C010C300232920017F0FCFE012235
:10F1B0003946284613F01AFA039BB0460646013337
:10F1C0000893039B4B440A93049B03F001030993A8
:10F1D000089B21465846013B049318F05DF903460D
:10F1E00041460690584630330B9318F0DEFB32460A
:10F1F00081462146284613F069FAC26807460B9BF0
:10F2000002BB0146584618F0D0FB0B9B024639461C
:10F210002846CDE90B3213F01DF8229B0C9A089F6B
:10F2200043EA0201099B0B430B9B0DD1392B29D0DB
:10F23000B9F1000F01DD069B3133049A137076E7B4
:10F240003046B9E70122E2E7B9F1000F06DB229967
:10F2500041EA0909099959EA010120D1002AECDDA6
:10F26000594601222846089313F0C0F921468346E7
:10F2700018F09BFB0028089B02DCDED1DA07DCD506
:10F28000392BD8D13923049A13703B461F46013BD2
:10F2900017F8012C392A50D001321A7047E7002A9A
:10F2A00003DD392BEED00133C7E7089A0A9902F83B
:10F2B000013C8A422AD0594600230A22284612F0ED
:10F2C000EBFFB04583464FF000034FF00A02414682
:10F2D000284607D112F0E0FF80460646089B01331E
:10F2E000089375E712F0D8FF3146804600230A22C2
:10F2F000284612F0D1FF0646F0E7B9F1000F039A55
:10F300004FF00008CCBF4F46012717445946012251
:10F310002846089313F06AF92146834618F045FB06
:10F320000028B2DC02D1089BDB07AED43B461F4667
:10F3300013F8012D302AFAD0F9E6039A9A42A5D1A2
:10F340000AF1010A312379E7134BFFF7A9BA269B8B
:10F35000002B7FF482AA114BFFF7A2BAB9F1000F7C
:10F3600003DC229B022B3FF7CBAE039F214658467E
:10F3700018F092F8039A00F1300307F8013BBA1A2B
:10F380009145BADD594600230A22284612F084FF2F
:10F390008346EBE7E9D80300B4AA030051D8030081
:10F3A0000378032B0CD8DFE803F0020507090548B2
:10F3B00013F083BF0448FBE70448F9E70448F7E784
:10F3C000704700BF888C0300A28C0300BA8C030036
:10F3D000D28C03002DE9F041017804464B1E0D2B21
:10F3E00000F29280DFE803F0070C30324290906424
:10F3F0007C6671878E8B4648BDE8F04113F05DBF97
:10F40000444813F05AFF0122434B44481A700FF04E
:10F41000CBFA237913B1424813F04FFF14F098FB55
:10F4200040480FF055F94FF4F01200233E480FF01A
:10F430004DFA012006F008FA0146002866D03B4844
:10F44000BDE8F04113F039BF3948D5E7394813F02A
:10F4500034FF0022304B34481A700FF0A5FABDE893
:10F46000F041002200232D480FF030BA324813F04B
:10F4700024FFD4E90276206916F000FC054608B99D
:10F480002E48B9E716F0FEFB044638B92C4813F0B5
:10F4900014FF2846BDE8F0410AF0DEBF03463A46B5
:10F4A0003146284811F024FF204616F014FCF0E7FE
:10F4B0002548A1E7254813F000FF254813F0FDFE7D
:10F4C00016F03CF910B3234896E7234813F0F5FEF5
:10F4D000224813F0F2FE16F021F9B8B120488BE76C
:10F4E000204813F0EAFE204813F0E7FE09F092FCF2
:10F4F000002001F069FB41681C4813F0DEFE6168E2
:10F500001B489DE71B4877E71B4899E7BDE8F0815A
:10F51000EA8C0300028D0300B0730120804E0120AD
:10F52000198D0300306C0120B04E0120358D030091
:10F53000578D03006A8D0300848D03009F8D0300A7
:10F54000B38D0300CF8D03000C8E0300248E0300C7
:10F55000448E0300638E0300818E03009A8E0300A5
:10F56000B48E0300CD8E0300E48E0300018F0300F0
:10F57000268F03003D8F0300548F03000B4B10B503
:10F58000187890B909F0DEFD014610B1084813F073
:10F5900094FE08481E2113F090FEBDE810404FF481
:10F5A0007022002304480FF091B910BDB073012000
:10F5B000748F0300908F0300804E012010B50378F4
:10F5C000044694B0042B30D8DFE803F003141C3158
:10F5D0003E00037A012B0BD0052B26D11C491D4878
:10F5E00013F06BFE1C4814B0BDE810400EF090BD47
:10F5F0001A49F4E7D0E90212194814B0BDE81040E6
:10F6000013F05BBE0069FDF733F9CDE90201E06854
:10F61000FDF72EF9134ACDE900013C2105A811F0B0
:10F6200097FE114805A913F048FE14B010BD017AE9
:10F630000E4A0F4B0F4801290CBF1146194614B052
:10F64000BDE8104013F039BED0E904120A48D4E7EF
:10F65000CE8F0300F18F0300144E0120B58F0300FD
:10F6600012900300429003008BB50300E28F030069
:10F67000EC8F03006B9003007990030000220023BD
:10F680002DE9F0438DB0CDE902230023814602A885
:10F69000ADF8063007F0B2F9054640B101464E48D4
:10F6A00013F00BFE2C4620460DB0BDE8F0830B2076
:10F6B0000DF1060107F05EF90228044604D0014668
:10F6C000464813F0FAFDEEE70AF070FF07460AF02D
:10F6D0006DFF80460AF06AFF06461FB1B8F1000FC1
:10F6E00000D058B938460AF0B7FE40460AF0B4FEDA
:10F6F00030460AF0B1FE6FF00B04D4E7B9F1000F09
:10F7000008D037480AF03AFF024690B330463549F0
:10F7100016F0BEFA2C46BDF90600FDF797F8FEF785
:10F720003BFA024640B330462F4916F0B1FA0020AA
:10F730000444DDE90201FDF7C5F8FEF72DFA0246A3
:10F74000E8B13046294916F0A3FA32462849404626
:10F7500016F09EFA2C4442463846264916F098FA8E
:10F7600084B12146244813F0A8FD38460AF074FEFF
:10F7700099E76FF00B04CEE76FF00B00D8E76FF05E
:10F780000B05E2E7384616F07DFA054628B91B4816
:10F7900013F093FD6FF00B04E7E71C22214605A848
:10F7A00017F021FC022328468DF814300895FDF748
:10F7B00009FF29460990124813F07FFD05A809F0BA
:10F7C00075F9044618B101460E4813F076FD284637
:10F7D00016F081FAC9E700BFAB900300C5900300A3
:10F7E000E6900300ED900300F9900300FE90030003
:10F7F000019103000A910300109103002591030079
:10F80000489103006A910300012008B5FFF736FF15
:10F81000014620B1BDE80840014813F04EBD08BDC7
:10F82000839103000C4B10B51B789BB10020FFF7B0
:10F8300025FF014610B1094813F03FFD08483C215F
:10F8400013F03BFDBDE810404FF4F01200230548D3
:10F850000FF03CB810BD00BFB073012083910300CE
:10F860009D910300B04E012010B53D493D4886B042
:10F8700013F023FD0AF0A6FE04F0D4FA3A4B014639
:10F8800098420BDC023B984211DCA0F18863013BFB
:10F89000012B11D8354813F010FD05E0344B984288
:10F8A0000AD1344813F009FD012001F08DF93248E6
:10F8B00013F003FD3148F5E73149002009F086FCDB
:10F8C000014610B12F4813F0F8FC182200216846B9
:10F8D00017F089FB2C480190FDF774FE02902B482D
:10F8E0000490FDF76FFE02210590684609F04AFC7E
:10F8F000044638B10146264813F0DFFC214625486E
:10F9000013F0DBFC244925480EF052FF244925481A
:10F910000EF04EFF244925480EF02EFE244815F027
:10F9200000FF014610B1234813F0C7FC07F052F85E
:10F93000014610B1204813F0C0FC4FF0FF324FF0E9
:10F94000FF331E480EF01EFC1D4815F04AFF002232
:10F950000023144806B0BDE810400EF0B7BF00BF4A
:10F96000E6900300C29103000400400447920300A4
:10F9700001005005EB9103000A9203002A92030054
:10F98000D5F3010074920300F84A0120434B012093
:10F99000A9920300D592030025F80100B04E012082
:10F9A0007DF50100804E012009F80100306C012036
:10F9B000BDF501000B93030035930300144E0120A5
:10F9C000A1F30100032808B506D914F0B7F80923FC
:10F9D00003604FF0FF3008BD044B03EB40100830CC
:10F9E000D0E8AF3F002BF0D00020F4E7406C0120BE
:10F9F00070B504460D461646FFF7E4FF002809DB04
:10FA0000064B600145B11A185268AA4204D014F09E
:10FA100095F80660002000E0185870BD406C012089
:10FA200070B504460E461546FFF7CCFF00280CDBE8
:10FA3000074B610103EB4414626832601DB101F1B0
:10FA40000C021A442A60585870BD0020FCE700BF21
:10FA5000406C012010B500244FF0FF324FF0FF330F
:10FA600014480EF007F9144A6301D2E8AF1F79B1C8
:10FA70000134042C02F12002F6D114F05FF81723B0
:10FA80004FF0FF3403600B480EF0C6F9204610BD5E
:10FA9000D2E8EF0F0130C2E8EC0FBCF1000FF7D154
:10FAA0000648C218C15051600C33184417F06AF868
:10FAB000E9E700BF844D0120486C0120406C012023
:10FAC00010B404461046094B620103EB44149950EC
:10FAD000606040B1C46834B10C32134410BC40F2D1
:10FAE000051213F075BB10BC704700BF406C0120BD
:10FAF00030B50D49400100F108030B44D3E8AF2FA6
:10FB000082B1541ED3E8EF5F954204D1C3E8EC4FB5
:10FB1000BCF1000FF6D1F1D1012A01BF00230A1870
:10FB20000B50536030BD00BF406C0120436870B57E
:10FB300003F00303022B04460E46816010D0032B12
:10FB400004D0012B0FD10025284601E005680020D4
:10FB50000023636010B1314610F07CFC284670BD74
:10FB600000250068F4E745220449054813F043FDE9
:10FB70004521024813F038FD0025E8E767930300AC
:10FB80008A9303000B6801330B60014B1B68184715
:10FB900030450120014B1860704700BF30450120FF
:10FBA00007B50B46002102460191034801A900F068
:10FBB00071FC03B05DF804FB85FB01002DE9F74FF4
:10FBC000B0F81CA004461AF0080F93461CD0012977
:10FBD0000CBF4AF0100A4AF0200AA0F81CA004F159
:10FBE00014000EF003F840B992499348B92213F07B
:10FBF00002FDB9218F4813F0F7FC8BF31188BFF396
:10FC00006F8F03B0BDE8F08F8C4FDFF82C820AF0C5
:10FC1000070A022906D1204613F05CFB0028DED03B
:10FC2000012863D1D4F81890A38BB9F1000F19DA29
:10FC30000026256823F00703C4E9006643F00103AA
:10FC4000A383A38B03F007025245009203D0A2685E
:10FC5000002A40F0F58015B9002E00F02F814FF0FA
:10FC6000000AEFE003F00702511F012920D800210C
:10FC700023F00703062A25689BB2C4E900110AD1C4
:10FC80003DB12946E28B0968013292B20029FAD1CE
:10FC9000E28343F002032046A38313F01BFB0646D6
:10FCA0000028CED0A38B43F02003A3830026C8E70F
:10FCB000042A0DD123F007039AB22046A28313F041
:10FCC00009FB054680B142F020020025A283EDE742
:10FCD00040F21B123946404613F08DFC40F21B11D6
:10FCE000384613F081FC00252E46AAE7032831D1BF
:10FCF000BAF1000F0AD0394640464FF4AB7213F008
:10FD00007AFC4FF4AB71384613F06EFC236853B99C
:10FD10003946404640F2571213F06DFC40F257113D
:10FD2000384613F061FC23691E6856B939464046CF
:10FD30004FF4AD7213F05FFC4FF4AD71384613F021
:10FD400053FCA38B23F0070343F006030025A38392
:10FD5000A94676E704282ED1BAF1020F0AD0394617
:10FD6000404640F25D1213F046FC40F25D11384609
:10FD700013F03AFCE38B53B1394640464FF4AF726F
:10FD800013F039FC4FF4AF71384613F02DFC2369A2
:10FD90005E6856B93946404640F2611213F02BFCBA
:10FDA00040F26111384613F01FFCA38B23F00703C8
:10FDB00043F00403CAE705282ED1BAF1010F0AD097
:10FDC000394640464FF4B27213F015FC4FF4B2714D
:10FDD000384613F009FC236853B93946404640F2CF
:10FDE000651213F008FC40F26511384613F0FCFB75
:10FDF00023699E6856B9394640464FF4B47213F0F1
:10FE0000FAFB4FF4B471384613F0EEFBA38B23F0EA
:10FE1000070343F0050399E7002540F26B123946CA
:10FE2000404613F0E8FB40F26B11384613F0DCFB60
:10FE30002E468DE7C49303008A930300A293030028
:10FE40004FF0010A43F00803A38304F1140318469A
:10FE500001930DF0CBFE40B940463149B92213F071
:10FE6000CAFBB9212E4813F0BFFB8BF31188BFF3F7
:10FE70006F8FBAF1000F30D1002D40D116B120465E
:10FE80002849B0474FF02003EFF3118B83F312881A
:10FE9000BFF36F8F01980DF09BFE40B9404620499B
:10FEA0008E2213F0A8FB8E211D4813F09DFB0198B4
:10FEB0000DF0AAFEA38B23F00803A383A38BDA061D
:10FEC00025D5012123F01003A383B4F81CA00AF068
:10FED000070A00297FF49DAE81E6A1680029CBD0F6
:10FEE000D1F800A04B462046D1F804B0009AD8477C
:10FEF000BAF1000FC0D05146DAF800A0F2E7294667
:10FF00004B462046009A2D6813F000FAB4E713F030
:10FF100020011EBF23F020030221A383D5E700BFE9
:10FF2000C493030029FF0100F8B504460D4600F113
:10FF300014064FF02003EFF3118783F31288BFF309
:10FF40006F8F30460DF044FE40B90A490A488E22B0
:10FF500013F051FB8E21074813F046FB30460DF09D
:10FF600053FE3A462046A5610121BDE8F840FFF75F
:10FF700025BE00BFC49303008A9303002DE9F04718
:10FF800004460F4613F0D8F9051E54DB04F114099A
:10FF90004FF02003EFF3118A83F31288BFF36F8FC2
:10FFA00048460DF015FE40B9334934488E2213F00F
:10FFB00022FB8E21304813F017FB48460DF024FE3B
:10FFC0004FF6FF71E38BA28B8B4202F007064AD0FB
:10FFD000022E1FD135464FF001080133E383484616
:10FFE0000DF004FE40B924492448B92213F003FB64
:10FFF000B921214813F0F8FA8AF31188BFF36F8F03
:020000040002F8
:10000000B8F1000F17D0002332463946204613F0CE
:100010007DF910E0930701D0062E0FD100233B603D
:100020006368EBB9C4E900773546F6B95246022158
:100030002046FFF7C3FD2846BDE8F087052E17D000
:10004000012E0AD00E490D4840F2C91213F0D3FA1E
:1000500040F2C9110A4813F0C7FA6FF0040504E032
:100060001F606760E0E76FF00A054FF00008B6E731
:100070006FF08505F9E700BFC49303008A9303007E
:10008000A29303002DE9F843C36844695F1E40F260
:100090006C730569E1170135E41841F10001022D87
:1000A0008CBF00230123E41A61F10001002980467E
:1000B00055DA6FF4C7704FF4C8720023201861F14D
:1000C0000001FDF763F8284B024603FB0044D8E922
:1000D00000903C23D8F80880C617C8FB0306B44636
:1000E000A0FB0306022D8CBF6FF0020E4FF0090E2D
:1000F00003FB0C6610EB090C40F26D104FEA940301
:1001000000FB04334FF06400B4FBF0F405EB0E0089
:100110004FF0990505FB00F04FF0050500F10200D6
:10012000B0FBF5F03B44A3EB0403104C0344A2FBEB
:10013000040204FB012146EBE9761B180C480D4A2A
:1001400041F100011818A0FB020361F1000102FB5C
:10015000013110EB0C0041EB0601BDE8F8834FF4D0
:10016000C87200232046ACE770FEFFFFB13A0200E0
:100170009405F5FF8051010070B579B305680C1F37
:10018000641BE60824F007042C446388DB0708D4CA
:1001900013491448AC2213F02EFAAC21104813F086
:1001A00023FA3146284613F0F3F8304435F830305E
:1001B000C01A864208D00A490A48B42213F01BFA32
:1001C000B421074813F010FA6388314623F0010385
:1001D00028466380BDE8704013F096B970BD00BF3B
:1001E000F19303008A9303004B422DE9F04703EAA1
:1001F000010731EA0303144606681BD0042F3D466D
:1002000028BF0425B946CF1B07F1FF3A1AEA070FAA
:100210000AD0314931484FF4A07213F0ECF94FF491
:10022000A0712D4813F0E0F97CB94FF00009484661
:10023000BDE8F087042904D8BDE8F047114613F063
:1002400094B94FF000090425DEE7B368B3EBD40F8F
:10025000EBD904F10B013944491B3046C90813F0AE
:10026000EDF880460028E0D009F1040505EBC00553
:10027000354455447F422F40A7EB09094C44A9F16E
:10028000040307349B1B24F00704A41BB0EBD30F1B
:100290004FEAD3074FEAE40408D201463A46304613
:1002A00013F018F94146304613F077F839463046D6
:1002B00013F06EF83844844207D23046224613F0D9
:1002C00009F92146304613F068F806EBC706738833
:1002D00043F001037380AAE7F19303008A930300BC
:1002E000B2F5802F2DE9F04104460E4617465ED345
:1002F000364940F2E312364813F07DF940F2E3113B
:10030000324813F071F9043FF51D3E4425F007050E
:1003100026F00706761B172E4FEAD6070AD82B4978
:100320002B4840F2F31213F066F940F2F31127481C
:1003300013F05AF92560B7FA87F40023C4F12008B6
:10034000C4F12404A4000734E408EB60631CBB423E
:10035000AF600AD91D491E484FF4017213F04BF9E2
:100360004FF40171194813F03FF9002205F1100311
:1003700003EB8808984525D1630043F001036B80A7
:100380003B1B05EBC40158002A804880A91925F8B9
:1003900034404A80AB5305EBC7035A88214642F0EC
:1003A00001022846BDE8F0415A8012F0F6BF042A47
:1003B000A9D806494FF4F572054813F01CF94FF41B
:1003C000F5719DE743F8042BD4E700BFF1930300D8
:1003D0008A930300F0B5034602680A270020064E00
:1003E00011460C780132A55D6D0701D41960F0BD8E
:1003F00007FB00403038F3E70ED703002DE9F84F34
:1004000015469A46D378224A6F2B13F802B08046DD
:100410000F460BF0030B29D024D8582B14BF0A2603
:100420001026DDF828903246002340463946FCF776
:10043000FDFE092AD4B21ED83034B045E4B277F1BB
:10044000000309F8014D01D3D14511D82B789B0643
:1004500005D5082E15D1AB7843F00803AB7048469C
:10046000BDE8F88F03F0F703702BD7E70826D8E72D
:1004700080460F46D7E7BBF1010F0CBF3734573426
:10048000DBE7102EEBD1AB7843F01003E6E700BFBB
:100490000ED703002DE9F04F82468B4691461C464D
:1004A000002593B099F8000008B928463DE309F10A
:1004B00001032528029306D05946D0470028C0F2F0
:1004C00034830135F5E1182200210CA816F08BFDCC
:1004D00099F80130252B5AD009F10102164612F87D
:1004E000013B2B2B00F08B8079D8202B00F08C80E7
:1004F000232B00F08E809DF8383003F04402442A0C
:1005000003D16FF386138DF838309DF83830059697
:1005100043F080038DF8383033782A2B7ED19DF854
:10052000393043F001038DF83930731C05931A7884
:100530002E2A0CBF012100219DF8392061F34102D0
:100540008DF839200BD15A1C05925A782A2A7BD172
:100550009DF83920023342F004028DF83920194603
:1005600011F8010B6C2800F0B6807DD8682800F0E7
:1005700084806A2800F0B9804C2800F0BD809DF886
:10058000392019466FF3C6028DF8392080E009F151
:10059000020202928DF83B309DF83930D90740F1C4
:1005A0004A8154F8048BB8F1000F07DA9DF838201F
:1005B000C8F1000842F004028DF838205A0740F1D3
:1005C000438154F8047B002F80F242819DF839303A
:1005D0006FF341038DF839304FF0FF3738E12D2BA1
:1005E00006D0302B87D19DF8383043F0400303E02C
:1005F0009DF8383043F004038DF838306EE79DF8ED
:10060000383043F00803F7E79DF8383043F0100323
:10061000F2E79DF8383043F02003EDE705A8FFF737
:10062000D9FE059BB34281D09DF838100F90C1F3DD
:10063000400242EAD072520062F07F0201F07D0176
:100640000A438DF8382071E705A8FFF7C3FE9DF82F
:1006500038301090C3F3400242EAD07060F3410397
:100660008DF83830059B7AE774289DF8392040D002
:100670007A2884D11346062228E05A78682A9DF801
:10068000392021D1012161F3C6028DF83920991C4E
:100690000B4613F8012B782A02938DF83B209DF826
:1006A000393000F2C080572A33D8412A03D0453A66
:1006B000022A00F2B88004229DF83A3062F3020365
:1006C0008DF83A30012385E01346022262F3C60317
:1006D0008DF83930DCE75A786C2A9DF8392001D141
:1006E0000421D0E713460322F0E705229DF83930B4
:1006F000ECE713460722E9E7BDF8383023F4F0436E
:1007000023F0020343F4804343F00203ADF8383092
:10071000BEE7A2F15801202900F2858001A050F81F
:1007200021F000BFE90702002708020027080200A5
:1007300027080200270802002708020027080200F5
:100740002708020027080200B70602002708020057
:10075000E9070200A9070200B7060200B706020077
:10076000B706020027080200A907020027080200B6
:10077000270802002708020027080200F1070200EC
:10078000E90702000D0802002708020027080200FE
:100790000D08020027080200E907020027080200EE
:1007A00027080200E907020001209DF83A1003F033
:1007B000780360F30201402B8DF83A1002BF9DF8D8
:1007C000381041F001018DF83810632A31D1003B17
:1007D00018BF01239DF83820C2F340010B4363F397
:1007E00041028DF83820D7E602209DF83A10DEE766
:1007F00003219DF83A2003F07803A3F1400061F350
:10080000020243428DF83A204341E3E703219DF879
:100810003A2013F0780F61F3020214BF0123002382
:100820008DF83A20D6E79DF8383043F001038DF873
:1008300038300023CEE79DF93820002AACBF4FF0B6
:10084000FF38DDF83C80B9E69F077FF5C5AE109F05
:100850000023CDE90F339DF83A309DF8391003F0AD
:100860000703012BC1F3C30139D1CB1E042B23D8BD
:10087000DFE803F003090922220054F8043BDA17E9
:10088000CDE90C3206E0073424F00704F4E8022333
:10089000CDE90C239DF8383013F0030657D04A46B3
:1008A00059465046029B12F089FE0028C0F23D8155
:1008B0000544DDF80890F5E554F8043B01294FEABA
:1008C000E372CDE90C3205D19DF830300C93002352
:1008D0000D93DFE70229DDD1BDF93030CFE7022BE0
:1008E00023D1CB1E042B13D8DFE803F0030A0A122E
:1008F000120000232268201D0C920D930446C9E7C4
:10090000E01D20F00700F0E80223CDE90C23F5E715
:1009100054F8043B01290C934FF000030D93D3D0FE
:100920000229B7D1BDF83030D0E7042B09D1E31D3F
:1009300023F0070303F10804D3E90023CDE90C23D6
:10094000A8E7032B04BF54F8043B0C93A2E79DF8DF
:100950003B007828ADD8622820D825283FF4ACADDC
:100960005828A6D1DDE90C010DF12E0300930EAA43
:1009700006ABFFF743FD8146002F0DF12E000BDB88
:100980009DF83820A0EB09036FF386129F428DF883
:10099000382001D9FB1A0F9307463CE0633815282D
:1009A00087D801A252F820F0270A0200890A020023
:1009B000B3080200B3080200B3080200B308020043
:1009C000890A0200B3080200B3080200B30802005B
:1009D000B3080200E30A0200B10A0200B50A0200ED
:1009E000B3080200B3080200010A0200B3080200C3
:1009F000B10A0200B3080200B3080200B10A020003
:100A0000002FDDF830900ADB3946484616F0B7FC77
:100A1000002609EB0007B9F1000F0CD149E7484661
:100A2000FCF7D0FDF4E700260C9B0DF119078DF8BB
:100A300018300DF11809A7EB090306B101339DF831
:100A40003A20D00666D5023352060F9948BF109A55
:100A50000B4448BF9B18B8F1000F73DD9DF8382098
:100A6000A8EB0308C2F38003039353076AD450062C
:100A70005ED53EB159463046D047002855DB039B32
:100A800001351E46302354E01E070FD413F0100624
:100A900018BF2026DDE90C23002BBFF663AF5242BE
:100AA00063EB43032D26CDE90C235BE72B26F1E70F
:100AB000002657E70C9840B30DF12E030093002158
:100AC00006AB0EAAFFF79AFCBDF83A30814603F058
:100AD000EF0343F4F04343F010030026ADF83A303F
:100AE0004AE70C9B07293FF6E4AEDFE801F00C046F
:100AF000060C08080C0C1D70DBE61D80D9E6EA1711
:100B0000C3E90052D5E61D60D3E62E4F0646A7F195
:100B1000050990E7110748BF013395E71846594684
:100B20000393D0470028039B04DA13B0BDE8F08F8D
:100B3000202345444246002AA5EB080108F1FF386E
:100B4000ECDC0D462EB159463046D0470028ECDB90
:100B500001359DF83A30D90601D41A0705D5594612
:100B60003020D0470028E0DB01359DF83A30DB0625
:100B700006D559469DF83B00D0470028D5DB013506
:100B80000F9E2E44731B002B15DC3B464A465946EC
:100B9000504612F013FD0028C7DB0544A844A8EB1B
:100BA0000503002B7FF785AE59462020D04700284B
:100BB000BBDB0135F3E759463020D0470028B4DBD2
:100BC0000135DFE71794030008B54FF02002EFF37B
:100BD000118382F31288BFF36F8F01F009F9034884
:100BE00012F06BFB00F028FDFCE700BF1894030037
:100BF0004FF02002EFF3118382F31288BFF36F8F5F
:100C00000121044AC2F8401583F31188BFF36F8FA6
:100C1000002070470090034020B1034B800143F057
:100C200001031847704700BF90820300F0B50546E6
:100C30009BB00F4614460021302202A816F0D3F9CB
:100C4000002D00F08580002C00F082801B238DF8A1
:100C5000083016F051F84FF47A720026A0FB020318
:100C600002FB0131C00B4FF47A72002340EA41408D
:100C70003146FCF7DBFA384A0244130A110201F448
:100C80007F0103F47F430B4343EA026343F0830392
:100C9000E8682A610C9330223346CDE9006602A948
:100CA00012F086FD00280FDB314630220EA816F028
:100CB0009AF9A9683A46284612F001FEB04205DAD0
:100CC00012F03CFF006840421BB0F0BD37D0E8682E
:100CD00030223346CDE900660EA912F0C0FD00288F
:100CE000EEDB30282ED1149B2A691BBA9A4202D01F
:100CF0006FF01500E8E79DF8383003F00703042B88
:100D0000F6D19DF8393003B3189B199A1BBA12BA61
:100D100053EA0201ECD0002BA2600ADA0F4A934298
:100D2000E6D900200E4A9B1840F1FF32C4E9003298
:100D3000CAE700200A4A1A44C4E90020C4E76FF059
:100D40007300C1E76FF07900BEE76FF00F00BBE7FB
:100D50006FF00D00B8E700BF807EAA837F7EAA8374
:100D60008081557C2DE9F04705460E4617461C4C00
:100D7000DFF87090DFF870804C4508D941461B4879
:100D8000D62212F038FCD621404612F02DFC4C45FC
:100D900007D312F0D3FE6A2303604FF0FF30BDE8A3
:100DA000F0872368AB4200D0BBB9636843B94146C2
:100DB0000E48DC2212F01FFCDC21404612F014FC2D
:100DC0003A46314628466368984730B13A4631463C
:100DD0002846A368BDE8F04718470C34CCE700BFAD
:100DE0002481030030810300799403008A93030077
:100DF0002DE9F04F06464FF000089BB004911046D5
:100E000019461D46144615F07DFFB146C2464746B9
:100E10000BAB0893CDE90501049B0393039B03BB34
:100E2000002F60D0B5F1FF3F08BFB4F1FF3F16BF00
:100E30004FF47A704FF0FF34A4FB0040049B1CBFBA
:100E4000E40B44EA404400934FF482723346414637
:100E50005046019412F04EFC074638461BB0BDE8E0
:100E6000F08FD9F80000002837DB0AAA09A9FEF79D
:100E7000D7FD079088B34FF0FF324FF0FF330A9849
:100E800012F047FC1AAB019308AB00934FF4817248
:100E90004B460799099812F02DFC10F1780F834604
:100EA0000DD010F1120F07990CD1BAF1000F02D139
:100EB0008846DDF824A04FF0000B012702E0002453
:100EC0002546A3460A9812F026FCBBF1000F04DA6F
:100ED00012F034FECBF1000336E0039B09F1080960
:100EE000013B03939AE754EA050310D0B5F1FF3FA5
:100EF00008BFB4F1FF3F0AD00FF012F8059B1C1A8F
:100F0000069B63EB0105002DBCBF3C4625460899B6
:100F10000BAF3F4BC91B891059432B46224638461D
:100F20000FF0C2F900F10B030B2B814608D840F6F5
:100F3000810828FA03F86FEA080818F0010807D0BA
:100F400012F0FCFDC9F100034FF0FF37036084E7A6
:100F50000897B1464746DDF810A0BAF1000F1CD142
:100F6000B8F1000F3FF479AF002F7FF476AF54EA69
:100F700005033FF472AFB5F1FF3F08BFB4F1FF3F87
:100F8000C5D00EF0CDFF059B1C1A069B63EB010537
:100F9000012C75F10003BADA5FE74FF00003D9F8CE
:100FA0000000A9F80630002829DB0AAA09A9FEF7E3
:100FB00037FD834620B92023A9F8063001371EE00B
:100FC0004FF0FF324FF0FF330A9812F0A2FB08AB4C
:100FD000594640F20312009309984B4612F08AFBDF
:100FE00083460A9812F097FB1BF10B0F0CD0BBF154
:100FF000000F7FF46DAFB9F90630002BDED109F197
:1010000008090AF1FF3AA8E74FF00108F7E700BF27
:10101000CDCCCCCC38B5044640B90B490B48132293
:1010200012F0E9FA1321084812F0DEFA084D2B6895
:1010300043B105490548142212F0DDFA1421024893
:1010400012F0D2FA2C6038BDAD9403008A930300ED
:10105000C06C01202DE9F041DFF854801F46D8F81C
:10106000003004460D46164643B9124912481D2267
:1010700012F0C1FA1D210F4812F0B6FAD8F800306C
:101080001B6843B90B490C481E2212F0B4FA1E210A
:10109000084812F0A9FAD8F800303246D3F800E038
:1010A00029463B462046F446BDE8F041604700BF74
:1010B000C06C0120AD9403008A93030070B50F4DFE
:1010C00004462B6843B90E490E48252212F093FAC4
:1010D00025210B4812F088FA2B685B6843B9084950
:1010E0000848262212F087FA2621054812F07CFAD9
:1010F0002B682046BDE870405B681847C06C012033
:10110000AD9403008A9303000C4B70B51B6873B158
:101110000B4A15680022AA4202DB6FF0010070BD85
:101120001C4613F8106B864204D00132F3E76FF0CF
:101130000C00F4E700200C60F1E700BF3845012007
:101140005084030042680B6810B593420C4606D9E0
:101150000548452112F089FA0020606010BD4B68F7
:10116000012013444B60F9E7E894030030B50546CD
:1011700085B0C06801AA13F0D0FC044638B14521FF
:1011800002460C4812F071FA204605B030BD0199B4
:101190002B6A8B42F8D0E868029A83689B6898476C
:1011A000044618B1024645210348EBE7019B2B6238
:1011B000EAE700BF0D95030033950300F8B5856895
:1011C000044675B1D0E90436013D1E44A919FFF764
:1011D000CDFF051E07DA33462A4645212C4812F07A
:1011E00044FA2846F8BDE06812F01EFCA568B5FB7D
:1011F000F0F300FB13555DB1451BE0688368DB68C5
:1012000098472768A36801792A46F81815F0EBFE7D
:10121000A368E06822682B4481684D683146A8477E
:10122000054620B10246334645211A48D7E7E3690F
:10123000E3B92369A268134423610023A360D0E7C4
:10124000535CDB4353540131A36822689942F7D3BE
:10125000E06881680F683146B847074640B10246EA
:1012600045210D4812F001FA3D46BAE70146EBE789
:101270003246E369A1682068984706460028D8D01E
:1012800002464521054812F0F0F93546A9E700BFAE
:101290005495030087950300B0950300CB95030098
:1012A0002DE9F7430D46DDE90A8691461F460446BF
:1012B00020B96FF00D0003B0BDE8F0830029F8D02D
:1012C000002AF6D0009300230846019312F0ACFBED
:1012D000B7FBF0F303FB107020B14521174812F063
:1012E000C4F9E6E76A462846154913F01AFC019B43
:1012F000002BDED006EB0802934202D245211148B2
:10130000EDE7284612F090FBB8FBF0F303FB1080EA
:101310000028F3D1C4E90097E5602061A060C4F81B
:10132000148016B9019EA6EB08060C9B0020E36111
:101330004FF0FF33A6612362BDE700BFE4950300D1
:1013400045110200209603002DE9F84305464FF0B1
:101350002003EFF3118683F31288BFF36F8F1D48CC
:101360000CF036FC40B91C491C488E2212F043F99F
:101370008E21194812F038F916480CF045FC184B2C
:101380001C689CB14FF00C09164FDFF85C80D4E963
:101390000132002D08BF13462BB198F8142009FB29
:1013A00002F2B85C98472468002CF0D109480CF090
:1013B0001DFC40B908490948B92212F01CF9B921AD
:1013C000054812F011F986F31188BFF36F8FBDE85D
:1013D000F88300BFC46C0120C49303008A93030008
:1013E000C86C0120D06C0120207301200123420928
:1013F00000F01F0003FA00F0C043054B03EB82032B
:10140000D3E8EF2F0240C3E8E12F0029F8D170475D
:10141000DC6C0120012238B5174B1C7D04F01F0342
:101420009A40D043154B610903EB8103D3E8EF1FCA
:1014300001EA0005C3E8EC5FBCF1000FF6D11142F0
:1014400013D00F4B0F4D8BB10C236343EA18517827
:10145000E85C12F0EAF80020FFF776FF0C235C430B
:1014600000232A192B51C2E9013338BD83F31188B7
:10147000BFF36F8FEFE700BF20730120E06C012006
:101480002B360300D06C01202DE9F8432F4B074683
:101490001C7D4FEA54184FEA88082D4B4344D3E88B
:1014A000AF3F04F01F0943FA09F313F0010F294E6F
:1014B0000AD10146204600F063F828B107C80C2382
:1014C00003FB046383E807000C236343F55CF21815
:1014D0002DB92046FFF78AFF2846BDE8F8837B1C1C
:1014E0000FD04FF400450021D2F808C01A4800235D
:1014F000ECFB0501194AFBF799FE0121381A0EF0A1
:1015000033FC0DF037FB0120FFF71EFF012303FA28
:1015100009F9134B9844D8E8EF3F43EA0903C8E8B8
:10152000E23F002AF7D10F4B33B10C236343F2188B
:101530005178F05C12F06DF8FFF76CFF2046FFF772
:1015400055FF0DF0B7FF0120C7E700BF2073012052
:10155000DC6C0120D06C01203F420F0040420F00A4
:10156000E06C012013360300044B03EB8000D0E84D
:10157000AF0F003818BF0120704700BFE46C012096
:101580002DE9F04F85B00F4603A900F047F84FF062
:10159000000B441EDFF87880DFF878A024B2631CCB
:1015A00004D10026304605B0BDE8F08F039A04EB65
:1015B000440312F8230002EB8306FFF7D5FF05462C
:1015C00010BB4FF40049C446294670685246E0FB00
:1015D00009C15B466046FBF729FEC44629460190D7
:1015E000B0685B46E0FB09C152466046FBF71EFE51
:1015F000094B1B68591C01D0834205D97A1CD1D0F4
:10160000019B1844B842CDD9013C24B2C7E700BFC2
:101610003F420F0040420F003445012008B9024B01
:101620000B600020704700BFB08303000149102207
:101630000A60704710ED00E072B6404080F31188F8
:10164000BFF36F8FBFF34F8F30BF62B6BFF36F8FA3
:10165000704700BF72B6494081F3118820BF80F304
:10166000118862B6704700BF37B505460C46C9B150
:101670008B6810480093D1E90023452111F0F5FF54
:10168000636945210093D4E903230B4811F0EDFF72
:101690004521E269094811F0E8FF4521A26908489F
:1016A00011F0E3FF2146284603B0BDE830400BF0BF
:1016B00037BF00BF5C96030090960300C4960300FA
:1016C000D896030043B2002B08DB012200F01F0074
:1016D00002FA00F0024A5B0942F82300704700BF9B
:1016E00000E100E0054B420953F82220012300F0FD
:1016F0001F0003FA00F01040704700BF00E100E057
:1017000038B54C1C072C054608D90D490D48572201
:1017100011F071FF57210A4811F066FF6BB2002BE0
:10172000ACBF03F16043084B4FEA4414E4B2ABBFD3
:1017300003F5614305F00F0583F800435C5538BDA0
:101740000B9703008A93030014ED00E008B572B60E
:10175000044B9A691AB100229A6115F004FA62B634
:1017600008BD00BF2073012030BFFFF7FDBF00BFE1
:101770000B4A08B50B4B22F07F029A60BFF34F8FE4
:10178000BFF36F8FD3F8882022F47002C3F888204B
:101790000BF03CFF0EF064F900F0EEFA0BF076FF70
:1017A00000C2010000ED00E0094A0A499368096897
:1017B0009867D96708494B6843F080534B60002312
:1017C00083F31188BFF36F8F9368D86F704700BFA2
:1017D000207301207C8B030000ED00E015498A682E
:1017E00082F881E04FF030001044EFF3098C80E87C
:1017F000F01F202080F31288BFF36F8F0E4F4FF041
:101800000066CA698A603E6092F981E0906F0023A9
:10181000936780F3118802F1300090E8F01F8CF399
:10182000098802F1000004B512F059F9BDE804403E
:10183000704700002073012004ED00E01EF0040F4B
:101840000CBFEFF30880EFF30980816911F8021CE7
:101850000229FFD001B512F033F901BD42F8203C56
:10186000009B0D4942F81C3C019B21F0010142F80C
:10187000183C029B42F8081C42F8143C4FF080735D
:1018800042F8043C002383674FF43C43203A02654E
:10189000C0F88030704700BF7D330300084B98606C
:1018A000836E83F30B88104681F30988002163B6A9
:1018B00081F31188BFF36F8F0022002311F05EFDCA
:1018C0002073012001B572B60B4A906900281EBF33
:1018D0000021916115F047F962B6EFF30580A0F1A0
:1018E00010004FEAC0000549014409C99847BDE806
:1018F0000140034908470000207301201C7F0300BA
:1019000005190200044B9968D869884203D003493D
:101910004FF080520A6070472073012004ED00E010
:1019200038B5214C4521214811F09FFEA36A9D0145
:1019300003D545211E4811F098FEA36ADC0103D5AA
:1019400045211C4811F091FE174DAC6A14F4801427
:1019500004D04521184811F088FE0224AB6A180310
:1019600003D54521154811F080FE0F4DAB6A590390
:1019700003D54521124811F078FEAB6A9A0303D5CE
:101980004521104811F071FE074DAB6ADB0303D50A
:1019900045210D4811F069FEAB6A20466FEA03430A
:1019A0006FEA1343AB6238BD00ED00E041970300DE
:1019B0005E9703007697030095970300C497030092
:1019C000E7970300119803003098030070B5234C8B
:1019D00006460D462248452111F047FEA36AD90468
:1019E00003D545211F4811F040FEA36A1A0503D50F
:1019F00045211D4811F039FE184CA36A9B0510D5EE
:101A00001A48452111F031FEA26BA36A180408D5CB
:101A10004521174811F029FE1EB1A36A23F40043A3
:101A2000A3620E4CA36A590503D54521114811F054
:101A30001CFEA36ADA050BD545210F4811F015FEEF
:101A40000020064A936A43F47F439362287070BD76
:101A5000A36A9B04F4D545210848EFE700ED00E0B8
:101A6000609803007B98030091980300A9980300F5
:101A7000C7980300E1980300019903001E99030031
:101A800070B52E4C06460D462D48452111F0EDFD52
:101A9000A36ADB0603D545212A4811F0E6FDA36AB7
:101AA0001C0703D54521284811F0DFFD234CA36A0C
:101AB000980710D54521254811F0D7FD626BA36A20
:101AC000190608D54521224811F0CFFD1EB1A36AA1
:101AD00023F08003A362194CA36ADB0703D54521D9
:101AE0001C4811F0C2FDA36A9E0603D545211A4881
:101AF00011F0BBFD114B9A6AD40602D49A6A900782
:101B00000DD59B6AD9060AD51449154840F24F12E3
:101B100011F071FD40F24F11104811F065FD0020E9
:101B2000064B9A6A920642BF5A6A22F400525A62DF
:101B30009A6A42F0FF029A62287070BD00ED00E0E0
:101B4000529903006D99030091980300A599030031
:101B5000C2990300DD9903001E990300019A030056
:101B60008A9303002DE9F0436B4B0546D3F80480BC
:101B70008946144600278BB0C8F3080687F31188FE
:101B8000BFF36F8F02F07F43B3F17F4F11D1D007C6
:101B90000FD4510603D4220708D4012708E04521B9
:101BA0005E4811F062FD14F0040400D04D46002799
:101BB0005DB940F2FB325A495A4811F01CFD40F21F
:101BC000FB31574811F010FD00250024F31E8DF85D
:101BD0000740092B00F28D80DFE803F00580846860
:101BE0008B8B8B8B8B884C4E45214F4811F03DFDE4
:101BF0008DF80740F46A14F0020405D045214B48E3
:101C000011F033FD002406E0F36A002B23DA4521AE
:101C1000474811F02AFD9DF80730CBB902AA05F11B
:101C20002006134628686968083503C3B5421A467A
:101C3000F7D1099B002F69D0C3F3080222B96FEADC
:101C400053236FEA43230993204602A9FFF70CFDB3
:101C50000BB0BDE8F083F36A5B0036D5452135480B
:101C600011F003FDAB6933F8022C4DF602739A4272
:101C700006D145212A68304811F0F7FC2C68CAE7E4
:101C800096F8283033B101200DF10701FFF7F8FE77
:101C90000446C0E796F829302BB101200DF1070169
:101CA000FFF794FEF4E7738D9BB213B1FFF738FE94
:101CB000EEE71B4940F2CD221A4811F09CFC40F29D
:101CC000CD21174811F090FCA5E7154940F2D1222B
:101CD000144811F090FC40F2D121F2E700200DF100
:101CE0000701D3E700200DF10701D9E7452113488B
:101CF00086E7134918F4F87F124A134808BF0A46CA
:101D0000A6F11003452111F0B0FC7BE723F4FF732B
:101D100023F0010397E700BF00ED00E0699A03009C
:101D2000019A03008A930300919A0300AD9A03007D
:101D3000D39A0300E69A03000A9B03002B9B03003F
:101D40003B9A0300509A0300549B0300044B5A69CA
:101D500042F010025A615A6942F480625A61704737
:101D600000ED00E0EFF30880EFF3098101B5724662
:101D7000FFF7F8FE01BD00BF002320210348C21871
:101D80000133412B82F80013F9D1704700E100E0E4
:101D9000002080F31488BFF36F8F002080F30A883F
:101DA00080F30B8816F018F800200E490860BFF386
:101DB0004F8F0D4880F3088800F03EF8202080F314
:101DC00011880A484FF40061401880F30988EFF346
:101DD00014800221084380F31488BFF36F8FFFF74C
:101DE000C7FC000094ED00E068CB0120A8CC0120E6
:101DF000BFF34F8F0549064BCA6802F4E0621343F4
:101E0000CB60BFF34F8F00BFFDE700BF00ED00E0E8
:101E10000400FA05002318460649D1F89020C2F3C1
:101E20000722934200D17047C1F89830C1F8A00052
:101E30000133F6E700ED00E010B572B6002484F33C
:101E40001388FFF7E7FF23464FF0FF300B4A03F1FB
:101E500020010133102B42F82100F8D100234FF06C
:101E6000FF3003F160010133102B42F82100F8D15B
:101E700062B6BFF34F8FBFF36F8F10BD00E100E07C
:101E8000084B9B6883420BD1EFF3058343B1064BAC
:101E90005A6842F080525A605A6A22F400425A62EA
:101EA0000DF0F2BC2073012000ED00E01FB5094CDD
:101EB000094A23460121094800F02CF90023039325
:101EC000074B0121E41A01A80193029400F03EF9A6
:101ED00004B010BD0000042000450120548403001C
:101EE000804E012010B50B680C7A23F01F0204F01D
:101EF0001F031A43CB68640923F01F03054943EA13
:101F0000440343F00103C1F89800C1F89C20C1F8D4
:101F1000A03010BD00ED00E030B54B680C6885B016
:101F20000A894D890094013B24F01F04234402F0E8
:101F30001F0242EA451223F01F030F2804468DF8C2
:101F40000820039309D902464521064811F08DFB6C
:101F50006FF01504204605B030BD6946FFF7C2FF9B
:101F6000F8E700BF709B03002DE9F04F8946144647
:101F700006464FF00008584D85B0C84527DAD6F818
:101F800004A0BAF1000F44D0BAF11F0F18D91AF00B
:101F90001F0F15D1D6F800B01BF01F0F10D15846F7
:101FA00011F0A3FD07460AEB0B00013811F09DFD6F
:101FB000874210D06FF015073A464521474802E0A6
:101FC00042464521464811F050FB6FF0150420466B
:101FD00005B0BDE8F08F17F1160FEDD0BC42EBDD78
:101FE000C5F89870D5F89C10C5F89870D5F8A03051
:101FF00021F01F0143F01F0BD6E900321A44994229
:1020000002F1FF3A1DD1D34507D13146F8B2FFF7AF
:1020100083FF08F101080C36AFE73146C5F8987028
:10202000D5F89C3022F01F0203F01F031A43C5F8B5
:102030009C20E0B2FFF770FF10F1160FC5D0441CD2
:10204000E7E7013BD345E0B223F01F03C5F89870E2
:1020500008D1D5F8A020314602F01F021343C5F87D
:10206000A030E7E7D5F8A01001F01F010B43C5F839
:10207000A0303146FFF750FF10F1160FA5D0C5F87C
:102080009870D5F89C209DF808300BF1FF3B62F367
:1020900004038DF80830D5F8A0309DF808205B08BF
:1020A00063F34712D6E900310B44009323F01F037A
:1020B00001305B44A3EB0A03C0B223F01F030F28D7
:1020C0008DF80820039303D90246452105487AE795
:1020D0006946FFF707FFB2E700ED00E0C39B03008E
:1020E0009B9B0300709B03000522044BC3F89420C4
:1020F000BFF34F8FBFF36F8F704700BF00ED00E05D
:10210000BFF35F8F0022024BC3F89420704700BFDB
:1021100000ED00E010B50A4C2278FFF725FF207093
:1021200016300CD10749084840F2111211F063FA39
:10213000BDE8104040F21111024811F055BA10BD2F
:10214000B1730120EB9B03008A9303002DE9F74F45
:10215000304D8A4606464FF00008AB462E4FD0451C
:1021600002DB03B0BDE8F08FD6F80490B9F1000FA0
:102170004AD031680846019111F0B7FC0199044634
:1021800009EB0100013811F0B0FC84424FF0140259
:10219000224B13D06FF0150302FB08F84BF8083000
:1021A00040F221121E491F4811F025FA40F2211178
:1021B0001B4803B0BDE8F04F11F016BA14F1160F2A
:1021C0002C60EDD01978A142EADD02FB08B0C7F817
:1021D0009840C7F89840D7F89C4000F10801007B70
:1021E00064F304000871D7F8A0000C79400860F38C
:1021F00047140C71D7F89C1021F01F016960D7F8C3
:10220000A01021F01F01296108F1010814350C36D6
:10221000A5E700BF006D012000ED00E0B1730120D3
:10222000EB9B03008A93030038B51D4D2C68102CDE
:102230000DD94FF4A4721B491B4811F0DCF9194861
:102240004FF4A47111F0D0F94FF0FF3038BD0020E9
:10225000FFF756FF154B164AC3F8C020844217D12A
:10226000144B1C70FFF740FF104BD3F89030C3F3B2
:102270000723102B0AD00B490B484FF4D67211F0EC
:10228000BAF94FF4D671074811F0AEF90020DDE736
:10229000696801EB0011FFF725FE0130DEE700BFA2
:1022A00060840300EB9B03008A93030000ED00E0D1
:1022B000AAFF4400B173012008B5094BC3F10053D4
:1022C00003F58023B3F5006F08D206490648812242
:1022D00011F091F98121034811F086F9002008BD21
:1022E000A8FC0120229C03008A930300014B186084
:1022F000704700BF40450120F8B506460D46002452
:10230000064FAC4208DA3B6898470A28305504F17A
:10231000010401D00D28F4D12046F8BD3C45012030
:10232000F8B50D46094F461EC0F10104A3199D42A0
:1023300001DC2846F8BD73780A2B02D10D203B68DA
:1023400098473B6816F8010F9847EFE74045012092
:1023500008B505210148FFF7E3FFFEE7529C0300A3
:1023600010B5074C2368C2180648C0F1005101F5AA
:1023700080218A422EBF4FF0FF30C018226010BD6E
:10238000146D0120A8FC012010B5044650B9104975
:10239000104840F2771211F02EF940F277110C48F4
:1023A00011F022F914200EF06FFA206050B908499C
:1023B000084840F27F1211F01EF940F27F110448E4
:1023C00011F012F92068BDE8104014F0DBBB00BF2B
:1023D000229C03008A93030010B5044650B90A49B1
:1023E0000A484FF4D27211F006F94FF4D271064840
:1023F00011F0FAF84FF0FF322046BDE810404FF0E0
:10240000FF330BF037BC00BF229C03008A9303000C
:1024100010B5044650B9084908484FF4E07211F06D
:10242000EAF84FF4E071044811F0DEF82046BDE808
:1024300010400BF0F1BC00BF229C03008A93030004
:1024400008B51D210448FFF76BFF404080F3118859
:102450004FF0030002DF00BF589C030001282DE964
:10246000F0410F4609D004286BD011F067FB16230A
:1024700003604FF0FF30BDE8F0814FF02003EFF331
:10248000118483F31288BFF36F8F30480BF0A0FBE9
:1024900040B92F492F488E2211F0ADF88E212C48DB
:1024A00011F0A2F829480BF0AFFB2B4B27489D6891
:1024B000D3E900680BF09AFB40B925492548B922B9
:1024C00011F099F8B921224811F08EF884F311889F
:1024D000BFF36F8F14F010FC4FF47A720446A0FB28
:1024E000020302FB0131C00B4FF47A72002340EA71
:1024F0004140C90BFAF79AFE4FF0FA7C8619A0FB0F
:102500000C0E48EB01084FF47A7200230CFB01E13A
:10251000C7E90068FAF78AFE1049241AA4FB0140B3
:10252000E30B0F4A43EA40432B449342BB6006D976
:10253000013648F10002C7E900625B1ABB60002067
:1025400099E700252E46A846C4E700BF186D012074
:10255000C49303008A930300E04E012000CA9A3B13
:10256000FFC99A3B10B5044650B90B490B484FF4CC
:10257000F97211F040F84FF4F971074811F034F88E
:1025800023680C33D3E8EF2F42F00102C3E8E12FB8
:102590000029F7D110BD00BF8D9C03008A93030072
:1025A00002460B4601480BF065BB00BFC04D012041
:1025B00001480BF031BC00BFC04D012038B50546C5
:1025C0004FF0FF314FF0FF30FFF7EAFF00212846C0
:1025D00011F0D2FA044648BB2B6828469B7E2BB1EB
:1025E000FFF7C0FFFFF7E4FF204638BD11F0BFFA48
:1025F000044630B1846824B101212846A047041E56
:10260000F0DB2B681B6953B90A490B4840F6D572B9
:1026100010F0F1FF40F6D571064810F0E5FF2846AE
:10262000FFF7A0FF284611F0B0FADBE76FF0770460
:10263000D8E700BFBC9C03008A930300F8B54FF0B5
:10264000FF304FF0FF31FFF7ABFF114C114D124F30
:10265000AC4226460AD93946104841F2F00210F041
:10266000CAFF41F2F001384610F0BEFFAC4203D37E
:10267000BDE8F840FFF79CBF336804341B689B68D3
:10268000002BE5D01B68002BE2D030469847DFE7EF
:10269000604E0120644E0120BC9C03008A9303001D
:1026A00070B50E4C0E4D0F4EAC420AD931460E4855
:1026B00041F2221210F09FFF41F22211304610F039
:1026C00093FFAC4200D370BD0321204611F054FAB1
:1026D00010B92046FFF772FF0434E5E7604E012091
:1026E000644E0120BC9C03008A93030000232DE963
:1026F000F04F022889B006461546CDE90633019110
:102700003CD106A8049101461A4606E00C78013235
:1027100001340C70D4B2072C04D8019C34F8124058
:10272000002CF3D00133082B01F10101ECD14FF063
:10273000FF374FF00108002310F8012B424588BFF6
:102740005FB203F10103DBB288BF9046082BF3D1DF
:10275000B8F1010F9B464FF03A0A08BF4FF0FF3720
:10276000002128460C465C4517DBA84208D0002310
:10277000012E0CBF00F8013C037002E0012804D0D8
:102780000025284609B0BDE8F08F4FF0040B4FF04C
:102790002E0A4FF0FF378046E2E7BBF1040F3FD12E
:1027A000019B1A5D034642B9302203F8022B80F8E0
:1027B00001A001341846E4B2D5E74FF0000E4FF007
:1027C000090CCDF808E0DFF8ECE0B2FBFEF903926B
:1027D000CDF814900EFB1922DDF80890E14503DCDA
:1027E000DDF80C90F14507D3DDF81490CDF808C062
:1027F00009F1300903F8019B4FF00A090CF1FF3C85
:10280000BCF1FF3FBEFBF9FEDFD14FF000021A70B2
:102810001B1ADAB250FA83F3013300F802A0C8E7BA
:10282000A7420ED101B917B93A2300F8013B3A2269
:10283000034603F8012B08F1FF3214440021E4B2EF
:10284000B7E711B13A2300F8013B049B33F8142099
:1028500052BA12F47F4FC2F307235FFA82F918D0FD
:102860000F2BD9B20DD90023612211F09AF98446B9
:10287000012361224946604611F093F90346012184
:1028800097E7092994BF3031573100F1010C0170ED
:10289000EEE7B9F10F0F02D961224946ECE7B9F131
:1028A000090F94BF09F1300909F15709431C80F859
:1028B0000090E4E700CA9A3B2DE9F0410F6890F8D8
:1028C00084503B4B3B4A064690F88200053704286B
:1028D0000CBF104618460F600C4611F005FBC5F3FF
:1028E0004005034638B9D4E90020904296F882109A
:1028F00004D16FF00B031846BDE8F081501C206036
:102900001170D4E900829045F3D008F101022260F1
:1029100088F800302146B6F8800011F0D3FA03465B
:102920000028E8D106F1500011F0DEFA0346002835
:10293000E1D1706E6D00D8B196F8843045F0040591
:1029400003F0010345EA4315037A2146DB0003F057
:1029500018031D4311F0C8FA03460028CBD1B36E0B
:10296000214613B3184611F0BFFA03460028C2D11E
:10297000F06D38B1214611F0B7FA03460028BAD1FC
:1029800045F08005306E38B1214611F0ADFA0346AE
:102990000028B0D145F0400588F80050224639465D
:1029A000BDE8F041102011F0BABA11F08BFADCE763
:1029B0008884030090840300D0E900239B1A012B34
:1029C00081BF054B1B881380036883BF02334360BC
:1029D00000206FF00B007047E69C0300D0E9002355
:1029E0009B1A012B81BF054B1B881380036883BF93
:1029F0000233436000206FF00B007047E89C030037
:102A0000142290F824305343014AD358184700BF8A
:102A10009884030030B4142590F82440024B05FB41
:102A2000043330BC5B6818479884030010B4142446
:102A300090F82420024B04FB023310BC9B6818471B
:102A40009884030070B4142690F82450034C06FBBD
:102A50000544E468A44670BC604700BF9884030046
:102A6000142190F82420024B01FB02331B69184704
:102A70009884030008B50BF0CFF950B1054906481A
:102A80003D2210F0B8FDBDE808403D21014810F09E
:102A9000ABBD08BDF69C03008A93030008B54FF058
:102AA000FF324FF0FF330BF0E5F850B1054906480F
:102AB000332210F0A0FDBDE808403321014810F09A
:102AC00093BD08BDF69C03008A93030090F84C3038
:102AD000F7B5856D002B04463E49288808BF0121C3
:102AE0004FF48172FEF73EF90028A06205DA11F07A
:102AF00025F80068404203B0F0BD0423052200938E
:102B00004FF48D7104F12C0310F0FEFE002803DA5F
:102B1000A06A10F002FEEAE7636B002B2FD1E36B93
:102B2000002B3AD1666C002E45D1236C012B0BD1C2
:102B3000A06A04230A2200934FF48D7104F140032C
:102B400010F0E2FE0028E3DBA36C5BB1A06A042373
:102B50000A2200934FF48D7104F1480310F0D4FE63
:102B60000028D5DB2B88A06A012B0CBF0822182275
:102B7000A16D10F0F6FD0028CADB0020BBE7226B38
:102B8000002ACCD0A06A920000924FF48D710322EB
:102B900010F0BAFE0028C2DABAE7A26B002AC1D050
:102BA000A06A920000924FF48D71012210F0ACFEE9
:102BB0000028B7DAACE73046A76AFAF703FD02222D
:102BC000009033464FF48D71384610F09DFE00287A
:102BD000ABDA9DE70100004037B540230C460A49B7
:102BE0000093411A491105462346084A084811F046
:102BF000E3FE011E05DA2846234603B0BDE8304057
:102C0000184703B030BD00BF2C6D0120274A0300D8
:102C10008C7E030038B5CCB2012C054608D9084992
:102C20000848792210F0E7FC7921054810F0DCFC17
:102C30000C23296904FB0314A06C00F0070038BDC5
:102C4000279D03008A930300F8B5CCB2012C0546FA
:102C5000174606690AD91849184840F24D1210F073
:102C6000CAFC40F24D11144810F0BEFC4FF0200396
:102C7000EFF3118183F31288BFF36F8F0C2202FBF5
:102C800004639B6C13F0C00301D09F4211D1012358
:102C9000002002FB0466B36481F31188BFF36F8FD9
:102CA00030B90C23696803FB04146368984700205B
:102CB000F8BD4FF0FF30EFE7279D03008A93030034
:102CC00070B50D4606490446411A4911402205488F
:102CD000FFF7BAFF2B4601462046BDE87040184773
:102CE0002C6D01208C7E030070B50022012104466A
:102CF0000520FEF705FD0F4807F020FD0E4B98421A
:102D000015D107F03DFD26690C49304610F023FB34
:102D100000280BDB012524690849B56404F1200073
:102D200010F019FB002801DB0020656570BD6FF015
:102D30000400FBE7752D02000000AD0BF0840300DA
:102D400001460C2300224B43084870B5C418483391
:102D5000D4E910561844226411F01BFE2DB13246FE
:102D60002B46BDE870400248184770BD2C6D01200D
:102D70008C7E0300012808B506D0032808D0A0B92E
:102D80000F4B9B6C5B0719D1BDE80840FFF7D8BF1C
:102D90000C4940F25E220C4810F02DFC40F25E21FE
:102DA000BDE80840074810F01FBC064940F2622207
:102DB000054810F020FC40F26221F1E708BD00BF99
:102DC0002C6D0120279D03008A93030008B54FF066
:102DD0002003EFF3118183F31288BFF36F8F114A41
:102DE000136843F0020013F0010310600BD00E4A89
:102DF000D2F80C34D2F80C2413F0010303D00B48A2
:102E000011F0C7FD012381F31188BFF36F8F23B148
:102E1000BDE808400020FFF793BF0120BDE808404F
:102E200007F0D2BC846D012000500040746D012079
:102E30007FB500220123CDE9022304ABCDE90433A1
:102E4000094A6B46CDF800D0CDF804D011F0E4FD6E
:102E5000002805DB4FF48042002368460BF092F90E
:102E600007B05DF804FB00BF454A0300074BD3E8F9
:102E7000EF2F22F00201C3E8E01F0028F7D1D307AB
:102E800002D4012007F002BD704700BF846D01200D
:102E90002DE9F041012206464249D1E8EF3FC1E861
:102EA000E02F0028F9D19BB93F4940484B60CB60E7
:102EB0008A60FDF763F800280ADA3D493D484FF47F
:102EC000087210F098FB4FF40871394810F08CFB31
:102ED00086B3731E012B52D8012E06D1364BD3F880
:102EE0001C3403F00303022B24D013F02FFE0446FE
:102EF00018B9324B1B78002B4ED14FF02003EFF363
:102F0000118783F31288BFF36F8F01242A4DDFF8F6
:102F1000B080D5F81834D5F81824D2030CD503F0B6
:102F20000303022B01D0012E06D124B387F31188AD
:102F3000BFF36F8FBDE8F081C4B13846FEF78AFB5E
:102F4000D5F81835DBB2012BE3D1D5F80421002ADE
:102F5000DFD00022C5F80421D5F804210222C5F8EB
:102F600018252022C8F88021AB60D2E7002121205B
:102F70000CF054FCE4E70223C5F80433DAE70C490B
:102F80000C4840F2322210F036FBBDE8F04140F22E
:102F90003221074810F028BB0222074B0746C3F82E
:102FA0000823B3E7886D01201C6D01204C6D0120C2
:102FB000279D03008A9303000050004036A10120A2
:102FC00000E100E008B50848084B186013F09EFDCA
:102FD00038B10748FFF78AF90548FCF7DBFD002008
:102FE00008BD6FF01200FBE7D47E03008C6D01205A
:102FF000F52F02000A2838B50446074D04D1286889
:1030000083680D215B68984728688368E1B25B6834
:103010009847204638BD00BF8C6D012070B516461C
:103020000C46056941B91E491E48242210F0E3FAF6
:1030300024211B4810F0D8FA636843B9184919488D
:10304000252210F0D8FA2521154810F0CDFA6B682A
:103050005BB100229C4212D12368A96852B9A142F7
:103060006B6000D1AB60002323606EB9002070BD9F
:103070000B46EFE7A142136008BFAA60F3E71968A7
:103080001A460029F4D13EB16B68A86823606C60D1
:103090000028EBD1AC60EAE76FF01500E7E700BF6E
:1030A000849D03008A9303007FB5406801F01F04EC
:1030B000057BB2F5001F44EA45144FF0000504D12A
:1030C000204607F0F9FE00204BE0B2F5800FCDE975
:1030D000025548D1B3F1007F0CBF042305238DF8BE
:1030E0000830836823FA01F1C90748D4B2F1A07F00
:1030F00045D166090CBF4FF0FF33002304F01F05D4
:10310000EB40DA070AD42649264840F2292210F07B
:1031100072FA40F22921224810F066FA56B120498D
:10312000204840F22E2210F066FA40F22E211C4870
:1031300010F05AFA1C4B803553F82530DB071ED4AB
:103140000DF107052946204607F0E4FD174B98428C
:1031500014D1284607F03EFE154B98420ED06FF072
:103160000B0004B070BDB3F1C06F05D0B3F1007FA8
:103170000CBF02230123B2E70323B0E7039500232A
:103180002046194602AA07F09BFC094B984204D13D
:103190000121204607F024FE95E76FF00400E0E7E8
:1031A000B19D03008A930300002584400400AD0B09
:1031B0000000AD0B10B507F0FDFD044668B907F03F
:1031C000D1FD084B98420AD12146074807F09CFDE3
:1031D000224605213120FEF793FA002010BD6FF042
:1031E0000400FBE70000AD0BED3102002DE9F843D0
:1031F000430922D1124B5C68FCB101262568DFF837
:103200004480114FDFF844908640A3681E4210D0DE
:10321000636843B939464846452210F0ECF9452128
:10322000384610F0E1F9D4E90132214640463240F7
:10323000984715B12C462D68E7E7BDE8F88300BF35
:10324000906D0120A47E0300849D03008A930300F7
:103250002DE9F043476801F01F053B7B0E461446FD
:1032600085B045EA4315CAB902A9284607F052FDC0
:103270000446284607F04AFE494B984204D06FF0B6
:10328000040005B0BDE8F083844205D19DF8080034
:1032900007F09AFDA042F2D10020F2E74FF00009BA
:1032A0000DF103013046CDE9029907F033FD4B469D
:1032B00080464946284602AA07F002FC384B98424D
:1032C00002D06FF01500DCE7804503D19DF80300C4
:1032D00007F07AFDA3034FD540F2066340F20622C1
:1032E000234093423AD00CD8062B15D004D89BB17A
:1032F000022BE6D104230FE0B3F5007FE1D10123D7
:103300000AE040F2024293422AD0B3F5C06F29D0BE
:10331000B3F5806FD5D102238DF8043084F4803367
:10332000C3F30043E0068DF805304CBF0323C4F31C
:10333000401321038DF8063016D501217B6801FA70
:1033400006F69E600022284601A907F065FC144B92
:10335000984214BF6FF01500002092E70723DBE7C7
:103360000523D9E70323D7E7620341BF01217B6827
:1033700001FA06F6DE60E5E7E3064FF000034CBF16
:103380000324C4F340141A46284601A98DF80440CA
:1033900007F096FB024B98423FF47EAF91E700BFE7
:1033A0000000AD0B024B0B6001231360704700BFA0
:1033B0009C6D0120004870474485030070B50D46A0
:1033C0001946284616461C4611F05FFB40B90D48C9
:1033D00023462A46452110F048F96FF0150070BDCC
:1033E0006CB1B5F5E13F22462946304603DABDE827
:1033F000704010F020B913F0D6FD0020EFE7204612
:10340000EDE700BFEB9D030010B501220648114611
:1034100013F0D6FB12F0DFFC044C206012F0D8FC55
:103420006060002010BD00BFA46D01209C6D0120D4
:10343000F8B50E46144612F0CBFC21460546304640
:1034400011F023FB374648B3B6FBF5F305FB1363D6
:1034500023B9B4FBF5F005FB104040B123463246DA
:103460004521114810F001F96FF0150015E0A54253
:1034700013D84FF0FF324FF0FF330C480AF082FEB2
:1034800012F0A6FC0546384607F03AFF641B2F44AD
:10349000F9D106480AF03CFE2046F8BD23463246E4
:1034A00045210348DEE700BF0D9E0300A46D012007
:1034B000EB9D0300F8B50E461946304617461C46EC
:1034C00011F0E3FA40B9234632464521174810F07F
:1034D000CCF86FF01500F8BD44EA060515F00305B9
:1034E00004D02346324645211148F0E7DCB14FF0C5
:1034F000FF324FF0FF330F480AF044FE24F003047C
:10350000AC4205EB060009D10B4AD2F80034DB07C8
:10351000FBD508480AF0FCFD0020DCE7795907F0EC
:103520001FFF0435ECE72046D5E700BFEB9D030005
:10353000319E0300A46D012000900340F0B54B794B
:10354000012B26D0032B21D110268B79032B1DD1E3
:10355000CC790CB1012C19D10A7912B1022A15D1FA
:103560000E220B684568B3F5164F2D6865D02DD82F
:10357000B3F5165F64D016D8B3F5966F62D00AD84B
:10358000B3F5967F61D0B3F5167F61D06FF08500FB
:1035900052E00026D9E7B3F5166F5CD0B3F5965F1D
:1035A000F4D1374B3CE0B3F5E14F57D007D8B3F532
:1035B000615F55D0B3F5964FE8D1324B30E047F616
:1035C0001227BB42E2D14FF4000329E0B3F5613F7B
:1035D00048D013D8B3F5963F47D009D84DF6C02749
:1035E000BB4244D0B3F5614FD0D14FF46B0317E029
:1035F000B3F5E13FCAD14FF0EB7311E0B3F5612FA2
:1036000038D008D8204FBB4237D0B3F5E12FBDD119
:103610004FF0E86304E01D4FBB42B7D14FF0805339
:1036200000693443C5F824352243031DC5F86C25D1
:1036300003C983E803000020F0BD4FF41D03EFE74A
:10364000134BEDE74FF49E23EAE74FF4A033E7E78F
:103650004FF41C33E4E74FF41D23E1E70D4BDFE7A4
:103660000D4BDDE74FF06C73DAE70C4BD8E74FF406
:103670006503D5E74FF07063D2E74FF08063CFE783
:1036800000B0130000A04E0090D0030040420F0095
:103690000050270000C0750000F03A0000903A0189
:1036A0002DE9F7430746002201210820FEF728F8FC
:1036B0000820FEF707F80021D7F804803E69D8F803
:1036C0000040D8F80C90C4F800154846376001AAAD
:1036D00011F0D1FB051E1FDB019BD9F800201979E1
:1036E000186811F01DFC051E16DB3846311DFFF76A
:1036F00025FF054680B9D8F8043099072BD506F187
:10370000160007F013F9294B984209D045212848A3
:103710000FF0ABFF6FF00405284603B0BDE8F0835F
:10372000B77D14F10C0F47F00047C4F8A0710AD11F
:103730002049214840F24E220FF05DFF40F24E2119
:103740001C480FF051FF0123C4F88C70B27D9340E8
:103750001A4AC2F804350823C4F8003598F808302E
:103760005BB9C4F81031D4F8103106F11503C4F870
:1037700034350123C4F838352360D8F804301436C2
:103780009A075CBF4FF48072C4F80423DB0644BF81
:103790004FF48003C4F804330023C4F84465C4F82C
:1037A00048350123A360E360B6E700BF0000AD0B1E
:1037B0005E9E0300829E03008A9303000070014016
:1037C000F8B505460F46066913F0C0F910B9204B4D
:1037D0001B7883B94FF02003EFF3118483F3128831
:1037E000BFF36F8F686811F090FA28BB84F31188DB
:1037F000BFF36F8FEEE76424686811F086FA70B942
:10380000012012F06BFA013CF6D1002121200CF0CE
:1038100005F8F0E784F31188BFF36F8FF5E74FF0F9
:103820002003EFF3118483F31288BFF36F8F68686E
:1038300011F06BFA0028EDD0314601F8147F012217
:10384000686811F047FA84F31188BFF36F8FF8BDF1
:1038500036A1012038B50C46154640B90D490E4831
:1038600020220FF0C8FE20210A480FF0BDFE44B907
:103870000849094821220FF0BEFE212105480FF01A
:10388000B3FE294620460CF0C9FE002818BF1620BA
:1038900038BD00BFD19E03008A93030001238340FB
:1038A00010B5DC430C4AD2E8EF1F01EA040CC2E871
:1038B000EECFBEF1000FF6D14FF4803202FA00F0E5
:1038C000064AC2F80803BFF35F8FBFF36F8F0B4246
:1038D00014BF0120002010BDC06D01200050014028
:1038E0001949F8B5044622F07F450868C1E900236C
:1038F000A5F50013101AB3F5400F22D2134B1B6825
:103900001A0A1B065E19124B42F10007C3E9006751
:1039100001260CF067FAA30003F1804303F5A833F6
:10392000D3F84025AA420BD11EB94FF40002C3F8C8
:1039300040254FF48030074B00FA04F4C3F84443A9
:10394000F8BD0026E5E700BF084F0120C46D012047
:10395000F04E012000500140E1B101230E4A8340A6
:10396000D2E8EF1F1943C2E8EC1FBCF1000FF7D1FA
:103970004FF48033094A8340C2F80433084BD3E83C
:10398000AF3F23FA00F0C30742BF4FF40012054BCC
:10399000C3F80021704700BFC06D012000500140F6
:1039A000BC6D012000E100E00D4B1868010A000623
:1039B000BFF35F8F0B4BD3F80435181841F10001AA
:1039C000B3F5801F0AD2084BD3E90023904271EB74
:1039D000030303D210F1807041F10001704700BF72
:1039E000C46D012000500140F04E01202DE9F04F40
:1039F00085B0164698460546FFF750FF0090FFF742
:103A0000D3FFB04271EB080376D2434B301A68EB18
:103A10000101984271F100037BD2404B03EB051387
:103A2000D3E902ABD84508BF564550D04FF4803398
:103A300026F07F4214464FEA850905F1500709F147
:103A40008049BF00AB4009F5A839BFB207F18047F4
:103A50000193D9F84005324B07F5A837D3F8041580
:103A6000401A20F07F4021F07F4C0128C9F840C562
:103A700007D1CDE90221132013F040F9DDE902213D
:103A8000274B01F1020CA4EB0C0020F07F40B0F5B5
:103A9000000F88BF64460020386038680198C3F87A
:103AA000440324F07F40C9F84005D3F8040581425F
:103AB00006D0201A023820F07F40B0F5000F19D848
:103AC000A41A24F07F4414EB060A48F1000B0024EA
:103AD00012490E982B0101EB0512C850C2E902AB46
:103AE0000F9B536028460099FFF736FF204605B02C
:103AF000BDE8F08F2046B1E701230A4AAB40D2E887
:103B0000EF1F1943C2E8E01F0028F8D1B246C346B0
:103B1000DDE76FF01504E5E701000001F84E012034
:103B200000500140BC6D012073B500244FF0FF3000
:103B30004FF0FF31164D174BC5F80845C3E9020198
:103B40004FF4803302264FF40012C5F80433124BB1
:103B50000121C5F804631520C3F880212246FDF732
:103B6000CFFD1520FDF7AEFD01230C4AAB602B60A5
:103B700013600B4B0B4A0093204600230194FFF780
:103B800035FF3046FFF784F9204602B070BD00BF14
:103B900000500140F84E012000E100E0C06D01201E
:103BA000E1380200FFFF7F00354B2DE9F743D3F8E2
:103BB000042391070BD5D3F8042142B10022C3F8A6
:103BC0000421304AD3F804311368013313604FF0F5
:103BD0002003EFF3118183F31288BFF36F8F284B1B
:103BE000D3F80423D2030ED5274AD2E8EF0F20F0F2
:103BF0000104C2E8E54F002DF7D1002837D1D3F8F2
:103C00004021002A33D1002381F31188BFF36F8F45
:103C100053B3FFF7C9FE4FF02003EFF3118783F38F
:103C20001288BFF36F8F194BD3E90245A04271EBA5
:103C300005024FF0000221D3D3E900164FF0FF3800
:103C40004FF0FF391A604FF48032C3E902890C4B00
:103C5000C3F8482387F31188BFF36F8F21B1224641
:103C60002B4600200096884703B0BDE8F083002271
:103C7000C3F84021D3F840310123C5E71146E9E7F5
:103C800000500140C46D0120BC6D0120F84E0120A0
:103C9000431C13B520D0012820DDB0F5000F1FDA3A
:103CA000441EFFF781FE0F4BD3E90013401AB0F515
:103CB000000F28BF0024013002190B48824228BFA0
:103CC00002460020521809490190009143F1000377
:103CD000FFF78CFE02B010BD0348E1E70024E0E7E7
:103CE000014CDEE7084F0120FFFF7F00E1380200B2
:103CF00008B5FFF759FE024B1B68C01A08BD00BF8C
:103D0000084F0120036810B55A090CBF4FF0FF326D
:103D1000002203F01F0322FA03F3DB0704460AD450
:103D20000E490F4840F229220FF065FC40F229218C
:103D30000A480FF059FC236803F01F025B09226058
:103D40000AD00649064840F22E220FF054FC40F2F9
:103D50002E2102480FF048FC024810BDB19D03001F
:103D60008A93030000258440D0E9002345210148BF
:103D70000FF07BBC0F9F0300F8B5214D214C2B7831
:103D800033B9C4E90033204812F0FCFE01232B7044
:103D900000222A201146FDF7B3FC00211B4809F040
:103DA000F1FA1B4F38604FF0FF324FF0FF331648E7
:103DB00009F060FF2068D8B1046804300AF0A8F95F
:103DC000B4B120462468F8E7D4E900313868984750
:103DD0000834B44208D929460E489B220FF00BFC48
:103DE0009B2128460FF000FCB442EDD30020F8BD23
:103DF00005480AF011F8084C084E094DE9E700BFE4
:103E0000D2730120CC6D0120D46D0120D485030034
:103E1000C86D01208A93030010DA030020DA030042
:103E2000309F0300014B1868704700BFC86D012028
:103E3000104BF0B51A68104B01460A2500261846AB
:103E40001F4604688C4211D08CB14468141BB442E4
:103E5000C8BF034600F10800C8BF2646B84201D3D8
:103E6000013DEED11846013A19605A60F0BD034693
:103E7000F8E700BF4C6E0120746E01200020054B56
:103E8000C3E90000044BD3E8EF2FC3E8E10F00299A
:103E9000F9D170476C6E01204C6E01202DE9F0477E
:103EA00088B00C4612F02FFE814620B96FF06D00ED
:103EB00008B0BDE8F08712F01FFF23680546002B0D
:103EC0000F4604D10BF09CFB6FF00A00F0E7BCBF7B
:103ED0004FF0FF3323600122002102A812F070FE90
:103EE00001AE4FF02003EFF3118A83F31288BFF382
:103EF0006F8F0BF0C3FCFFF79BFFDFF81C8143685B
:103F0000D8F8002093424FF0000307D10193434BB0
:103F10005A68002A70D1C3E9006601E09946426000
:103F20008AF31188BFF36F8FB9F1000F62D0236855
:103F30005A1C64D04FF4004E40F2E730002123EACF
:103F4000E37C4FF47A720023CCFB0E01F9F76EF993
:103F500002460B4602A80AF015F94FF02003EFF3D2
:103F6000118983F31288BFF36F8F00212B4A1368E6
:103F70005BB1B3424CD101985668002943D19E42AF
:103F8000106000D15060002301930BF077FCFFF725
:103F90004FFFD8F80030436089F31188BFF36F8F6B
:103FA00012F0B1FD002881D02668731C22D012F0D7
:103FB000A3FE4FF47A7EA0FB0E30A5FB0E250EFB70
:103FC00001010EFB0757DB0BD20B43EA414342EAE8
:103FD00047429B1A4FEAD13161EBD7314FEAE67C79
:103FE000F31A6CEB01010029B8BF00232360002BFA
:103FF0003FF46AAF00205BE716605E6090E74FF029
:10400000FF321346A6E79E42086008BF5160BAE738
:1040100019461B68ACE700BF4C6E01206C6E012096
:1040200010B5041E08DC06490648F1220FF0E3FA39
:10403000F12103480FF0D8FA0FF080FD046010BDA5
:10404000629F03008A93030003682DE9F041044650
:104050000E461746144D2BB1AB4203D305F1600257
:1040600093421AD3DFF8448098F80030032B0AD922
:104070000F49104840F205120FF0BDFA40F2051149
:104080000B480FF0B1FA98F800305A1C03EB4303C9
:1040900005EBC30588F80020256020683A463146C4
:1040A000BDE8F04112F08CBDEC6D0120D37301200E
:1040B000629F03008A93030010B5044628B10B4B9E
:1040C000984202D3603398420AD3094909484FF411
:1040D00088720FF090FA4FF4887105480FF084FA57
:1040E0002046BDE810400AF013B800BFEC6D012077
:1040F000629F03008A93030070B50C46054628B101
:10410000174B984202D3603398420AD31549164898
:104110004FF48D720FF06FFA4FF48D7111480FF05C
:1041200063FA631C17D04FF4004640F2E7300021D9
:1041300024EAE4744FF47A720023C4FB0601F9F711
:1041400075F802460B4628460AF01CF8002818BFEE
:104150006FF00A0070BD4FF0FF321346F3E700BF67
:10416000EC6D0120629F03008A9303004FF08052A0
:10417000014BC3F80021704700E100E04FF080528E
:10418000014BC3F88021704700E100E04FF000527E
:10419000014BC3F80021704700E100E04FF00052EE
:1041A000014BC3F88021704700E100E010B5084BD7
:1041B000D3E8EF2F0132C3E8E12F0029F8D1054BF6
:1041C0001C6824B1201D09F0A3FF2468F9E710BD85
:1041D0004C6E01206C6E0120014600220023014834
:1041E00012F0AABC044D01200146014809F064BB4D
:1041F000044D0120014600220023014812F09CBC1E
:104200001C4D01200146014809F056BB1C4D012000
:10421000014600220023014812F08EBC546E01209A
:104220000146014809F048BB546E012008B510F062
:1042300008FF0023054A06491360064A0648136032
:10424000BDE808404FF4005212F06EBCE86D01204A
:10425000E8040120506E0120546E0120012821D075
:10426000B0F58D7F26D101390B2923D8DFE801F085
:10427000060A0C0E101222222214161802231360B2
:10428000002070470523FAE70623F8E70723F6E73F
:104290000423F4E70123F2E70323F0E70923EEE721
:1042A0000823ECE7372905DC132906DC022959D05D
:1042B0000429EDD04FF0FF30704714392329F9D885
:1042C00001A353F821F000BF594302005D430200EF
:1042D000B5420200B5420200B5420200614302004D
:1042E000B5420200B5420200B5420200B5420200EA
:1042F000694302006D43020071430200B5420200AF
:10430000B5420200B5420200B5420200B5420200C9
:10431000B5420200B5420200B5420200B5420200B9
:10432000B5420200B5420200B5420200B5420200A9
:10433000B5420200B5420200B5420200B542020099
:10434000794302007D43020081430200854302005D
:104350008943020075430200142390E715238EE77A
:1043600019238CE711608BE71E2388E71F2386E75C
:10437000202384E7372382E7332380E732237EE755
:1043800034237CE735237AE7362378E74FF0FF3292
:10439000054B00201A609A601A619A611A629A624B
:1043A0001A639A63704700BFC86E01202DE9F04F71
:1043B000A1F5817391B0032B78D8DFE803F0940264
:1043C00008736FF05E04204611B0BDE8F08F4FF027
:1043D000000AD2E900980021D2F808B068464022CD
:1043E00012F001FE6E464D464F46544653463F4935
:1043F000D0450ADC002CE6D15A464146684612F008
:1044000070FAA04526DC0446DDE73868B380002852
:10441000FB8005DA30600AF1010A08360837E7E761
:104420008622FBF7E5FA0023304978B10268326052
:10443000B888C20742BFB28842F00102B280420788
:1044400042BFB28842F00402B280E4E72022013485
:10445000FA80EDE759F83430002B20DB0DEBC40374
:10446000DB88DF0742BFEA8842F00102EA805E078C
:1044700042BFEA8842F00402EA80190742BFEA8894
:1044800042F00802EA809A0642BFEA8842F020021F
:10449000EA80DB0642BFEB8843F01003EB80013477
:1044A0000835AEE71368002443608CE703290068F1
:1044B0000BD0042910D1126832F480430CD192132E
:1044C00011B0BDE8F04F12F0A1BA002212F09EFA2E
:1044D000840304F4804476E70FF030FB16234FF09A
:1044E000FF3403606FE76FF011046CE7048603008C
:1044F0000122034B1860036802489A76FCF78ABDD4
:10450000C46E0120FC8503000C4B1B788BB90C4B4F
:104510001B7883B1A2F58073022B08D9A2F58870AD
:1045200001288CBF0020012080F00100704701208D
:10453000FAE7002070470120704700BF5474012043
:10454000557401202DE9F04F14460E4600218BB022
:104550000546202202A81F46019112F044FDFCB13D
:10456000626802F48063D20448BF43F4805302932C
:10457000E36804932389032B00F2D5806D4AD35658
:1045800013F16A0F00F0CF802069039310F072FDE1
:1045900005907B3000F0CA80E36903B1089302AC58
:1045A0004FF0FF324FF0FF33634810F0A8FE224671
:1045B0003146284601AB07F0F9FB0446002843D0FA
:1045C0006FF480731C44142C30D8DFE804F0A90B7E
:1045D0003A142F2F2F2F2F2F2F2F2F171A1D202355
:1045E00026292C006FF00204534810F08AFE204662
:1045F0000BB0BDE8F08F6FF00304F5E76FF0050432
:10460000F2E76FF00904EFE76FF00404ECE76FF0F6
:104610000104E9E76FF00704E6E76FF00604E3E75B
:104620006FF06304E0E76FF00A04DDE743494448B4
:1046300040F2A5120EF0DFFF40F2A5113F480EF048
:10464000D3FF4FF0FF34CFE781468046019EDFF86D
:10465000F4A038601EB9019811F069FDC4E750203C
:1046600012F019FC0546002849D0D6F804B0B3680A
:10467000BBF1050FC0F80080C0F81C80C0F80480B2
:10468000C3603FD81AF90B3013F16A0F3AD0836038
:10469000F06810F0EFFC28617B3007D1C5F8188076
:1046A000284612F0F1FB6FF0060430E0BBF1010F79
:1046B00014D1082012F0EFFBA861E8B108236B6168
:1046C00073691A89DB684280A0F800B04360B9F1D1
:1046D000000F22D13D60A946F669BBE7BBF1020F8E
:1046E000DED1182012F0D7FBA86128B11823716918
:1046F0006B6110F035FDEAE7284612F0C5FB6FF05C
:10470000090404E0284612F0BFFB6FF00804386883
:1047100010F019FD00233B609DE7C9F80050DAE76F
:104720006FF0080460E76FF0080460E76FF00604BC
:104730005DE700BFDC9F0300984D01209D9F0300B3
:104740008A930300E09F03002DE9F34780469146DA
:104750000C46F9B100231A46C868984224D1802A31
:104760006DD800254FF0FF324FF0FF33364810F080
:10477000C6FD2F46354EE3689D421CD300263546C4
:10478000DFF8C8A0B74201DD002D25DA2E4810F071
:10479000B8FD05E00FF0D2F916234FF0FF350360A6
:1047A000284602B0BDE8F087A16801EBC301496863
:1047B00001330A44D1E7A168F01901EBC5035A6837
:1047C00051F8351012F0EFFBA3684FEAC50A5344C5
:1047D0005B6801351F44CEE76368BA1B0193236809
:1047E0000AEB0601009340464B4610F0E6FC051E1E
:1047F000C8BF7619C6E7A3684FEAC60A03EBC6032B
:104800005B6833B10027A36803EB0A025268974242
:1048100004D30136E368B342EDD8C1E753F80A1078
:10482000636839440193236840460093D21B4B468A
:1048300010F0C3FC011E05DB0F440D44E3E7002626
:104840003546E7E70D46ABE7D44D0120D473012090
:1048500038B54FF0FF324FF0FF3304460B4810F0ED
:104860004EFD00230A4A52F83310013108D102EB01
:10487000C30542F83340054810F043FD284638BDD3
:104880000133082BEFD10025F5E700BF704D012063
:10489000C86E012038B5094D04464FF0FF32284656
:1048A0004FF0FF3310F02BFD00234FF0FF3228466E
:1048B000C4E90023BDE8384010F023BD704D01204D
:1048C0002DE9F0438BB007460C461546FBF7C2F8BE
:1048D0000646002E386823DB2CB33DB32B686A46AE
:1048E000082B0CBF1023242301AF0093394611F08D
:1048F00044FDB0F100093BDBFFF7AAFF8046C0B9D9
:104900000FF01CF90C230360484611F083FCB8F14A
:10491000000F02D04046FFF7BDFF3046FBF7E8F836
:104920004FF0FF3617E022462746DFE72A462F469C
:10493000DCE75CB155B17B68012B10D108222A60FD
:10494000BDF80C202380049B6280636041463046A2
:104950000A4AFBF7B5F830460BB0BDE8F083022BEE
:10496000D2D1182320462B6001A910F0F9FBEDE706
:10497000B9F1FF3FD1D04FF00008C5E7048603002E
:104980002DE9F0410E1E0546174615DA0AF0F2F839
:10499000DFF8A480012388F800303A46284626F044
:1049A0004041FCF7DFF9002388F8003004460AF0A4
:1049B00081FD2046BDE8F081730004D50AF0DAF8E5
:1049C000DFF87880E6E7FBF745F8041E0EDBADB2B2
:1049D000032D04D81A4B5D5715F16A0F09D10FF05A
:1049E000ADF86A2303602046FBF782F84FF0FF34EE
:1049F000DFE7384610F03EFB10F17B0F024603D193
:104A00000FF09CF87B23EDE72846314611F0A0FB20
:104A1000051EE8DBFFF71CFF014638B90FF08EF8E2
:104A20000C230360284611F0F5FBDCE72046054A1D
:104A3000FBF746F8BDE700BF547401205574012010
:104A4000DC9F03000486030008B5054808F092F8CF
:104A5000024618B1452103480EF007FE002008BDAC
:104A6000694A0200E69F0300F8B5044640B931499F
:104A7000314824220EF0BFFD24212E480EF0B4FD53
:104A80002E4D2F4E2B4FB54208D939462A482A229F
:104A90000EF0B1FD2A2138460EF0A6FDB54210D326
:104AA000284D294E234FB54208D939462248322293
:104AB0000EF0A1FD322138460EF096FDB5420FD31F
:104AC000F8BD2B7A23B9296821B920466B6898472D
:104AD0000C35D8E7204612F072FC0028F5D1F7E734
:104AE0002B7AC3B9296889B92046F8F76BFD0022F3
:104AF000411D0023154812F01FF8054668B92246EB
:104B0000BDE8F840572112480EF0AFBD204612F024
:104B100056FC0028E8D10C35C5E72146043012F0D8
:104B2000FFFB29460B4812F040F8BDE8F8400A4860
:104B300009F0CEBD18A003008A9303005C4C01204D
:104B40005C4C0120E44B01205C4C0120EC4C01202A
:104B500044A00300444E0120744501202DE9F84390
:104B6000DFF86090184F00220023484609F074FADD
:104B7000054610BBBDE8F883237A2BB921682E1DAA
:104B8000A9B93046636898470C34BC4208D94146FD
:104B90000E4853220EF02FFD532140460EF024FD07
:104BA000BC42E9D329460A4808F086FEDBE73046D6
:104BB00012F005FC0028E4D1E6E7064CDFF8188087
:104BC000E3E700BF444E01205C4C01208A930300C0
:104BD000EC4C0120E44B012018A0030038B5054D32
:104BE000441E14F8011F01B938BD286883685B684A
:104BF0009847F6E71C6F012008B50C4B0C4A4FF4A0
:104C00008051184607F0E2FF021E03DA45210948E9
:104C10000EF02BFD0548FFF7E1FF0022064B1A704E
:104C2000064B1868BDE8084010F00DBC5674012012
:104C3000E4C0030080A00300568401201C6F012003
:104C400001222DE9F0433A4B85B01A70394808F03B
:104C500037FC394E306080B9364A452137480EF06E
:104C600004FD6FF01502452135480EF0FEFC6FF093
:104C70000D05284605B0BDE8F0834FF47A7712F0B1
:104C80003BF8B846A0FB070407FB0144C00BDFF864
:104C9000B49040EA4444306883689B68BBB198474D
:104CA000054660B312F028F8A0FB083007FB0100AE
:104CB000DB0B43EA40431B1BB3F5FA7F2A4609D9B5
:104CC000452121480EF0D1FC6FF00402CBE76FF0D4
:104CD0005705E7E7492148460EF0C7FC306883686E
:104CE0009B6903B9FEE701220DF10F0198470028E7
:104CF000F4D100214FF4A4700AF090FDCBE73068A6
:104D0000836823B19B6C13B12A4610499847104918
:104D1000104809F031FC00234FF4806200930E49E3
:104D20000A230E4809F0DAFC306810F08CFBA0E78B
:104D300058840120BA9E03001C6F0120ABA0030021
:104D400035A10300FBA00300C0A00300614D0200D9
:104D5000F94B02000C6F012068A60120104F0120C2
:104D6000F7B5044683685B6C03B19847A3685B6B37
:104D7000C3B93A4E3A4D3378C3B9A3689B692BB196
:104D8000012220460DF10701984778B19DF80720D0
:104D9000082A01D07F2A0BD12B68002BEBD0013BD6
:104DA0002B60E8E7204698470028E2D103B0F0BD29
:104DB0002C490B7883B90A2A18D00D2A08D05AB981
:104DC000294B1B7863B3572128480EF04EFCD2E7DD
:104DD00025480078012823D02F68781CB0F5805F23
:104DE00013D3452122480EF040FCC4E71E4800784A
:104DF000022815D00328EFD12F68002FECD01D48D2
:104E0000384410F8010C0D28E5E7DFF868C0222AC5
:104E10000CF807202860AED183F001030B70AAE7DD
:104E20000022144B0A70194628682A601A5413F895
:104E3000012B202A02D8002AF9D19CE70B78002BFD
:104E400099D00D4B18688368DB6A03B1984701233A
:104E50000A490B48337009F0E7FB8CE756840120C0
:104E6000086F012057840120588401205CA10300B1
:104E70008DA10300567401201C6F01200C6F0120CE
:104E8000104F0120064BC35C03F00303022B08BF45
:104E900020384138C0B219288CBF0020012070474B
:104EA0000ED70300F8B505460024094E56F8047BDA
:104EB0003846F8F787FB39460246284612F038FA9A
:104EC00020B10134042CF1D10020F8BD0120FCE711
:104ED0004486030010B50446F8F774FB012821D975
:104EE000237812495A5C02F00302022A08BF203BD1
:104EF000412B17D16378CA5C02F00302022A08BF73
:104F0000203B542B0ED1A278252A0DD002F0F703B6
:104F1000232B09D0104610F09DFA10B9B2FA82F096
:104F2000400910BD0020FCE70120FAE70ED703007E
:104F30002DE9F0430568A3B000952B7880460F4615
:104F40001646002B00F0CA80664B1C78062C10D148
:104F50006B1C0093009A1078FFF794FF30B9531B35
:104F60002A463946304610F0DEFA1CE00132009243
:104F7000F0E7072C25D1684610F075FA5A4A009BD5
:104F80001978895C490715D12A465B1B394630469A
:104F900010F0C9FA009B1A783D2A0ED15A783F2AA0
:104FA00001D1023300930020009BC8F8003023B0E9
:104FB000BDE8F08301330093E1E73F2AF3D10133E9
:104FC000F0E7082C03D1104610F07FFAEBE7022C33
:104FD00011D1009A1178084610F03CFA18B911B1B5
:104FE00001320092F5E7531B2A463946304610F04D
:104FF0009AFA009BE3E7032C09D1009B1A78222A36
:1050000003D012B101330093F7E75B1BECE7012CEF
:105010003CD128460A2201A90CF09CFB019B334D90
:105020000290009300980378292B1FD0F3B12C3BFA
:10503000DBB20130112B009026D825FA03F3DB07F1
:1050400022D50A2201A90CF085FB22AB04F101094B
:1050500003EB840444F8800C0098F8F7B3FA044694
:105060000198F8F7AFFA844207D14C4639463046EA
:10507000A30002AA10F07DFABBE7019BB9F1200F53
:105080000093F2D04C46CDE7A146FBE7042C0DD1AE
:105090000A22284602A90CF0E1FA0B4602990246C0
:1050A00000913046394610F027FA7CE7052C0BD1E9
:1050B0000D49009B1A78525C12F0440F01D15B1B22
:1050C0004EE701330093F4E7092C7FF46CAF009BAB
:1050D0001A78002AF3D001330093F8E74FF0FF303D
:1050E00065E700BF5A8401200ED70300014002008B
:1050F00070B505460468644E002937D123782B2B00
:1051000001D0252B32D10622604B20461A7060490F
:10511000052212F00DF920B90120307000202C601A
:1051200064E0052220465B4912F002F90028F3D022
:105130000B222046584912F0FBF80028ECD00A2236
:105140002046564912F0F4F80028E5D00B222046FC
:10515000534912F0EDF80028DED0072220465149CD
:1051600012F0E6F8B0FA80F04009D6E7337813B1D0
:10517000464B022243E0002939DD2246164612F84A
:10518000010B10F067F90028F8D13046F8F71AFA49
:10519000032870D93378444A995C01F0030102294D
:1051A00008BF203B412B66D17378D15C01F003012D
:1051B000022908BF203B542B5DD1B378D15C01F0AC
:1051C0000301022908BF203B2B2B0AD0252B52D1EB
:1051D000F378D25C02F00302022A08BF203B582B6E
:1051E00049D009226FF00100284B1A7070BD08D118
:1051F0002046FFF76FFE254B0028BAD007221A7011
:105200008CE72278284BD35C590703D42D2A01D090
:105210002B2A02D104221D4BF1E7222A06D0282A8C
:1052200009D10122194B14441A7077E70322174B56
:1052300001341A7072E7104610F00CF978B1134976
:105240000B78042B08D114F8010F10F003F9002893
:10525000F9D105230B7061E7082B3FF45FAF2C3ABF
:10526000D2B2112A0CD8114B23FA02F2D30707D578
:105270000822064BC3E723782B2B01D0252BC0D166
:105280004FF0FF302C60B1E7598401205A8401208F
:10529000BAA10300C0A10300C6A10300D2A103006C
:1052A000DDA10300E9A103000ED7030001400200C5
:1052B0002DE9F04F894616461F46804685B00028E6
:1052C00000F09780002A00F094805368002B00F0D3
:1052D000908000252C46104600F0E8F83368CDF8A1
:1052E0000C809F4228BF1F46434B1D70434B1D70CF
:1052F000039B1A78002A55D0A74253D9404903A8E6
:10530000525C110748BF0133214648BF0393FFF7A2
:10531000EFFE421C46D0023008BF00243246214630
:1053200003A808BFCDF80C80FFF702FE013039D08A
:10533000039A13782C3BDBB2112B1BD8314921FA8D
:1053400003F3DB0716D5507810F084F878B10134F8
:10535000BC4246D0214603A8FFF7CAFE013021D047
:105360003246214603A8FFF7E3FD01301AD0039B24
:1053700001330393DDF80CB09BF8000010F06AF8DD
:1053800050B30BF101010191A1EB0B0A11F8012BB4
:10539000104610F05FF8019B0028F4D19AB9039BE6
:1053A00053440393039CF5B923781BB12046FFF7C0
:1053B00079FDD8B10020B9F1000F01D0C9F8004043
:1053C00005B0BDE8F08F2B2AE9D0252AE7D0184692
:1053D000FFF768FD0028E2D10134BC4208BF012577
:1053E00086E70546DEE76FF00600E4E76FF00A00A7
:1053F000E1E76FF01500E3E75A84012059840120AA
:105400000ED703000140020038B50D46044640B9EE
:10541000084909482B220EF0EEF82B2105480EF022
:10542000E3F82368AB428ABF6068002000EB0510F8
:1054300038BD00BF14A203008A93030010B50446D0
:1054400040B90A490A4839220EF0D5F839210748EF
:105450000EF0CAF82378012B04D0023B012B03D8AD
:10546000606810BD0820FCE70020FAE714A20300E2
:105470008A93030010B5044640B90A490A481D2220
:105480000EF0B9F81D2107480EF0AEF82378023B64
:10549000012B02D8A06811F0F7FC00220023C4E918
:1054A000022310BD14A203008A9303002DE9F041EA
:1054B000044640B1436833B100260F4FDFF83C800B
:1054C00023689E4201D3BDE8F081656805EB0615AF
:1054D0002846FFF7CFFF45B93946404614220EF063
:1054E0008AF8142138460EF07FF810220021284651
:1054F00011F079FD0136E3E714A203008A9303005B
:1055000010B5044690B040220021684611F06BFDB2
:1055100054B90F490F4840F20B120EF06CF840F2EC
:105520000B110B480EF060F80122204602A900F092
:1055300081FE024628B1452107480EF096F810B0CA
:1055400010BD032368468DF8003000F0A9FDF6E792
:1055500042A203008A93030070A2030010B5044620
:1055600090B040220021684611F03DFD54B90F492A
:105570000F4840F225120EF03EF840F225110B487C
:105580000EF032F8204602A9F8F7A6F8024628B134
:10559000452108480EF069F810B010BD0223684696
:1055A0008DF8003000F07CFDF6E700BF42A203005A
:1055B0008A9303009CA2030010B5044690B04022D9
:1055C0000021684611F00FFD54B91249124840F20B
:1055D00039120EF010F840F239110E480EF004F8AE
:1055E000204602A900F042FF024628B145210B489F
:1055F0000EF03BF810B010BD029B039AA3F59C532C
:10560000083B1343F6D1062368468DF8003000F0BE
:1056100047FDEFE742A203008A930300BDA2030007
:1056200030B5054691B040220021684611F0DBFC00
:1056300055B9214921484FF4AA720DF0DCFF4FF40F
:10564000AA711D480DF0D0FF284600F05DFF04460A
:1056500000F0EEFC50B95CB12046102111F01FFCA7
:10566000044628B9452116480DF0FFFF11B030BDA2
:10567000284602A90F9400F063FFC31D024606D01E
:1056800001280DD945210F480DF0EFFF0EE05721FD
:105690000D480DF0EAFF0A2257210C480DF0E5FFF6
:1056A000072368468DF8003000F0FAFC002CDDD0AE
:1056B000204611F0E9FBD9E742A203008A930300D8
:1056C000F6A2030093A3030028A3030054A303003E
:1056D00010B5044690B040220021684611F083FCCA
:1056E00054B91949194840F289120DF084FF40F26B
:1056F000891115480DF078FF204602A901F06AF8DB
:10570000024628B1452112480DF0AFFF10B010BD80
:105710009DF808305A1E012A01D9042BF6D1DDE983
:105720000412A1F59C53083B134306D10823684695
:105730008DF8003000F0B4FCE8E751EA02030CBF3A
:1057400009230A23F3E700BF42A203008A93030060
:10575000C2A3030010B5044690B040220021684661
:1057600011F041FC54B90F490F4840F2B1120DF04D
:1057700042FF40F2B1110B480DF036FF204602A95E
:1057800001F084F8024628B1452108480DF06DFF6C
:1057900010B010BD0B2368468DF8003000F080FC7F
:1057A000F6E700BF42A203008A93030003A40300AC
:1057B00010B518488EB007F0E3F9024638B1164824
:1057C00045210DF052FF6FF00D000EB010BD1348D3
:1057D00007F0D6F90028F8D00246572110480DF0FE
:1057E00044FF57210F480DF040FF32210E4A01A817
:1057F00007F0ECF9044650B90C4901A811F0DFFD9F
:1058000000B1047057210A4801AA0DF02EFF0020B4
:10581000DBE700BF38A4030043A40300E7AA0300AA
:105820007EA40300BBA40300F1A40300F9A40300B9
:10583000FEA4030018B9492102480DF016BF00F07C
:10584000FFBB00BF26A5030008B568B31748F7F7EC
:10585000B9FE082812D11648F7F7B4FE08280DD172
:10586000134A1249134807F08BF930B1024645211B
:1058700011480DF0FAFE6FF00D0008BD0B48F7F768
:10588000A1FE082804D109490C4807F079F9ECE792
:105890000748F7F797FE082802D105490848F4E7BA
:1058A000084807F06DF9E0E70748FAE7974B012051
:1058B0008E4B01209DA50300E4A50300B4A50300C1
:1058C000C6A50300D9A50300F2AA03000023F0B582
:1058D0008DB00D460646CDE90333CDE90633CDE95B
:1058E00009338DF814308DF820308DF82C300028D5
:1058F00054D0002952D02B4C2B4AA0212046237093
:1059000007F064F9021E08DA452128480DF0ADFEC3
:105910006FF00D0420460DB0F0BD20462C2111F093
:10592000F2FC0C2704467CB3601C2C2111F0EBFC2C
:10593000013F0446F7D138B3811C082203A811F0B7
:105940000BFD601C2C2111F0DEFC0446E0B1811C33
:10595000082206A811F000FD2C21601C11F0D3FCD8
:1059600020B1811C082209A811F0F6FC01AB09AA9C
:1059700006A903A800F0D0FB044650B10246452119
:105980000B480DF072FEC5E745210A480DF06DFE8B
:10599000BEE7019B3360029B2B60BBE76FF01504F1
:1059A000B8E700BF6084012018A6030025A6030005
:1059B00066A6030047A60300F0B50446A3B0402244
:1059C000002112A811F00FFB44B94E494E48922213
:1059D0000DF011FE92214B480DF006FE00253022FD
:1059E000294606A88DF80E5004AF11F0FCFA0DF10F
:1059F0000F037D600DF10E0200930121204606ABDE
:105A0000049500F05FFC024630B1234645213F4833
:105A10000DF02BFE23B0F0BD9DF80E3003F0FB031C
:105A2000012B05D1089B013353D0394808F070FB96
:105A300000F0FEFA0028EDD1364A9DF80E301178BC
:105A4000994207D08DF8480012A813708DF8503095
:105A500000F026FB3022304906A811F094FAC8B1B4
:105A600004232D4D06AC8DF848300FCC0FC50FCC5C
:105A70000FC594E80F0085E80F0014AE06AD0FCDFA
:105A80000FC60FCD0FC694E80F0086E80F0012A8CE
:105A900000F006FB214A9DF80F301178994208D09A
:105AA0001370052212A88DF848208DF8503000F0B0
:105AB000F7FA9DF80E4004F0FB04012CAAD13846F9
:105AC00005A9FFF703FF40B1452115480DF0CDFDB5
:105AD000A0E704238DF80E30AAE7124D08222946CC
:105AE000384611F050FA002894D097E8030014AB20
:105AF00085E8030083E8030012A88DF8484000F011
:105B0000CFFA87E742A203008A93030098A6030016
:105B1000246F01205F840120B84F01205E840120A2
:105B2000C9A603003C6F012037B500240546019447
:105B3000A8B10DF102020B490B4801AB07F0B2F816
:105B4000021E07DC094845210DF08FFD6FF00D00A6
:105B500003B030BDBDF8023020462B70F8E76FF07F
:105B60001500F5E7ECA6030008A7030012A7030041
:105B7000072838B505460C4607D945210246134883
:105B80000DF073FD6FF0150038BD042903D90A46E6
:105B90000F484521F4E70F4B5A5C0F4B53F8201088
:105BA0000E4806F0EDFF38B1024645210C480DF0D5
:105BB0005CFD6FF00D00E7E70A4B1D700A4B1D708E
:105BC0000A4B1C700A4B1C70DEE700BF44A70300A1
:105BD0006BA70300FCAA03005486030095A70300EB
:105BE000ABA7030000850120A04B01205C840120AD
:105BF0005D84012030B50C46054687B000286BD087
:105C000005AB019304AB009302AA3549354803ABB9
:105C100007F048F80428024604D0452132480DF028
:105C200024FD39E0029B039A002B14BF02230023BA
:105C3000002A14BF042200221343049A002A14BF2E
:105C40000822002213430E2B22D8DFE803F008219C
:105C5000132115211D21172119211B211F000023AC
:105C60002B70FCB1059A042A33D8DFE802F0192A18
:105C70002C2E30000123F3E70223F1E70323EFE7A3
:105C80000423EDE70523EBE70623E9E70723E7E72E
:105C9000452116480DF0E9FC6FF00D0007B030BD4E
:105CA00000232370124B2A781978914218BF1A707A
:105CB0002CB1104B22781978914200D01A70002034
:105CC000ECE70123EDE70223EBE70323E9E70423F5
:105CD000E7E745210848A2E76FF01500DEE700BFBF
:105CE000D5A70300F0A7030000A803002AA803001B
:105CF000008501205C8401205BA80300F8B51B4DE2
:105D0000297881BB1A4E1B4F01221B4810F058FF07
:105D100031463846FFF76EFF044630B14521024652
:105D200016480DF0A2FC2046F8BD154B1878154B0F
:105D300019783B78834202D133788B4207D0FFF742
:105D400017FF044618B1024645210F48E9E7FFF75F
:105D50002FFD044620B145210C480DF086FCE2E7FA
:105D600001232B70DFE70024DDE700BF5B84012007
:105D70005C84012000850120246F01207FA803009E
:105D8000A04B01205D840120B1A80300DBA8030023
:105D900013B50446A8B10DF106020B490B4806F0F5
:105DA00081FF0128024607D0094845210DF05DFC1E
:105DB0006FF00D0002B010BDBDF80630002023705A
:105DC000F8E76FF01500F5E7FFA803000AA9030044
:105DD00013A9030004282DE9F041044619D804282A
:105DE0001CD8DFE800F0250B251B2500012202FA54
:105DF00003F31F4A13421BD19B070FD5FFF7D8FCB3
:105E00000246A8B145211B480DF02FFC6FF00D058F
:105E10000BE0A0F11403DBB2182BE7D92246452191
:105E200015480DF022FC6FF015052846BDE8F081FD
:105E30002146124806F0A4FE05460028E6D1104E81
:105E4000104FDFF84480BE420AD941460F4840F265
:105E500029520DF0D0FB40F2295140460DF0C4FB11
:105E6000BE42E2D2D6E90031204698470836EAE73A
:105E7000010C300153A9030082A90300A3A9030068
:105E800010DA030010DA030042A203008A93030031
:105E90003E4B2DE9F3411B78054643B93C4845216B
:105EA0000DF0E3FB4FF0FF3002B0BDE8F0810126BA
:105EB000384CD4E8EF3FC4E8E26F002AF9D1002B58
:105EC00060D10DF10700FFF72FFE30B132484521B8
:105ED0000DF0CBFB6FF00D00E6E79DF8073003F007
:105EE000FB03012BE0D025B1014632462B4810F0D0
:105EF00067FE0227DFF8A8802A4E0DF10600FFF7A3
:105F000047FFB8B99DF8063013F0FB0F0BD0012006
:105F1000FFF760FF88B10023D4E8EF2FC4E8E13F2A
:105F20000029C1D0F8E798F800103078FFF720FE7C
:105F30000028ECD06FF00D00EDE7002DEBD04FF016
:105F400096720023154808F01DF910F10B0FE2D1ED
:105F5000492115480DF089FB012F10D0337804201A
:105F6000012B0CBF022301233370FFF733FF0028FE
:105F7000E0D149210D480DF078FB0127BDE76FF016
:105F80007300C8E76FF076008EE700BF5B840120E6
:105F9000AEA90300206F0120DEA90300246F0120B9
:105FA0005C840120A04B01200DAA030037AA030046
:105FB00008B530B100F044F8BDE808400020FFF714
:105FC00067BF00F035F80028F6D0452102480DF0F3
:105FD0004CFB6FF0150008BD58AA030008B5064B2E
:105FE0001A7822B100201870FFF7F4FE08B90020DB
:105FF00008BD6FF00D00FBE75B840120084B0246F3
:10600000186810B520B1002443688B4201D1146098
:1060100010BD036804461846002BF5D1F8E700BF11
:10602000446F0120014807F0F7BE00BFAC4D0120CE
:10603000024B1868B0FA80F040097047446F0120A5
:1060400037B505464FF0FF324FF0FF33124807F0E7
:1060500011FE294601A8FFF7D1FF044620B1FFF742
:10606000E1FF002003B030BD082010F014FF0190C4
:1060700020B9FFF7D7FF6FF06800F3E7074A046025
:106080004460019B5168C3E9004511B9C2E900337E
:10609000E5E70B605360E2E7AC4D0120446F01205F
:1060A00038B50D4C05462368ABB14FF0FF334FF0C8
:1060B000FF320A4807F0DEFD23681BB9BDE838400F
:1060C000FFF7B0BF1C6828465B689847002CF5D0E6
:1060D00023462468F7E738BD446F0120AC4D01200A
:1060E00070B50E461446054600B12AB94521094847
:1060F0000DF0BBFA00200CE01046F7F763FA864279
:10610000F8D332462146284610F03DFFB0FA80F021
:10611000400970BD01AB03002DE9F7434FF00008C3
:1061200007460E4614461D46CDF80480F7F74AFA96
:10613000082804D06FF0150003B0BDE8F0833046A6
:10614000F7F740FA0828F5D13288B378ADF8042083
:106150004146022201A88DF806300BF0FBFA072811
:1061600004D945212D480DF080FAE3E72C4B02229B
:1061700053F820904146F01C0BF0ECFAB9F1000FF7
:1061800018D14FF0FF332B60CCB12046F7F71AFA45
:10619000082814D12288A378ADF804200021022217
:1061A00001A88DF806300BF0D5FA072817D945213C
:1061B0001C48D8E709FB00F028600130E4D03A8899
:1061C000BB78ADF804200021022201A88DF806302A
:1061D0000BF0C0FA072811D945211348C3E7134B28
:1061E000022253F820600021E01C0BF0B3FA16B134
:1061F00046432E60E3E74FF0FF36FAE70C4B0222EE
:1062000053F820400021F81C0BF0A4FA1CB14443C1
:1062100000206C6090E74FF0FF34F9E77EAC03009C
:10622000A8860300B8AC0300E9AC0300888603002D
:10623000888603000023F0B585B007460D4602A806
:1062400004211646CDE902330FF01EF9044638B199
:106250000246452117480DF008FA204605B0F0BD6A
:10626000014602AA38460FF00CF9044640B1452118
:10627000024611480DF0F9F902A80FF018F9ECE701
:10628000314601AA02A80FF0D6F9044618B1024619
:1062900045210A48EEE7019A0AB92870ECE7012A7D
:1062A00001D12A70E8E7452105480DF0DEF96FF0CD
:1062B0001504E1E71FAB030011AD030041AD03007E
:1062C0006FAD03002DE9F0431E4600238BB003930E
:1062D000ADF810308DF8123091460923072205469B
:1062E0000F4605A80B21CDE90023DDF848800FF00B
:1062F000CBF8044640B10246452154480DF0B5F9AB
:1063000020460BB0BDE8F083014605AA28460FF0F1
:10631000B8F8044640B1452102464D480DF0A5F9B4
:1063200005A80FF0C4F8EBE701466B4603AA05A8E1
:106330000FF0B6F9044618B1024645214548EDE78D
:10634000454A009903A8FFF7CBFE0028E8D0002FAC
:1063500014BF0121022107AA05A80FF06CF9051E40
:1063600032D1079D082D12D00FDC052D0FD92A46FA
:1063700045213A480DF079F96FF015052A46452177
:1063800037480DF072F92C46CAE75A2DEFD1B9F112
:10639000000F01D089F80050002E3ED05A2D50D069
:1063A00005A80FF0A4F903284BD9002F14BF022130
:1063B000032101AB07AA05A80FF072F9054628B121
:1063C000024645212748DCE7E1DAD7E7019B0AAA24
:1063D0001344014603F80C0C102207A80BF0BAF97D
:1063E0000923002FF060019314BF0321042101ABA6
:1063F00007AA05A80FF054F9054618B10246452131
:106400001948BEE7019B0AAA1344014603F80C0C85
:10641000102207A80BF09EF9B060B8F1000F3FF40E
:106420007FAF002F14BF0421052102AA05A80FF099
:1064300002F920B99DF8083088F8003070E7002391
:10644000FAE74FF0FF33C6E90233E6E71FAB03007C
:1064500090AD0300C2AD0300A9AA0300F0AD030094
:1064600012A703001DAE03004EAE0300002373B558
:1064700006460D46CDE90033C9B3C0B304216846D2
:106480000FF002F8044638B10246452119480DF0D4
:10649000ECF8204602B070BD01466A4630460EF068
:1064A000F0FF044640B14521024613480DF0DDF8E7
:1064B00068460EF0FCFFECE72A46022168460FF022
:1064C000D7F8044618B1024645210C48EEE70C49BE
:1064D000D5E9002391424FF0080272EB0303E7D2A3
:1064E000572108480DF0C1F86FF01504E0E76FF090
:1064F0001504CEE71FAB030074AE0300A6AE030085
:1065000000E09950D8AE030010B5044628B90B48F6
:1065100045210DF0AAF8204610BD0024431E13F8B3
:10652000010F2C2801D10134F9E70028F7D10A2CFA
:1065300082BF0520093CB4FBF0F0EDE70AAF030091
:106540002DE9F0430B230D46002106468DB0CDE921
:1065500009110493CDF82B10421E12F8013F2C2B89
:1065600001D10131F9E7002BF7D185F830304FF038
:10657000FF330331AB6007A80EF086FF044640B13D
:10658000024645218F480DF070F820460DB0BDE859
:10659000F083014607AA30460EF073FF044650B15F
:1065A000C31D15D04521024687480DF05EF807A8A7
:1065B0000EF07DFFE9E70746002104AB09AA07A812
:1065C0000FF06EF8044628B1024645217F48ECE7FB
:1065D0000127F1E77E4A049909A8FFF781FD002809
:1065E000E5D0012101AA07A80FF025F804460028EC
:1065F000DDD1019B002B40F0E280022102AA07A816
:106600000FF0CBF804460028D1D1029B4FF00708C9
:10661000B3F1805FA4BF4FF0FF330293029B0321CD
:10662000AB6005AA03AB07A8CDF80C800FF038F8D3
:1066300004460028BBD1039B0CAA134403F81C0C8E
:106640000A212A1D0DF117000FF081F804460028D9
:10665000ADD18DF817002A460A2105A80FF077F86A
:1066600004460028A3D1042102AA07A80FF095F838
:10667000044600289BD1029B0521EB6002AA07A8D3
:106680000EF0D9FF0446002891D1029B0621AB826F
:1066900005F1100207A80EF0CEFF0446002886D1AF
:1066A000414605F1280207A80EF089FF044600289C
:1066B0007FF47DAF082102AA07A80EF0BCFF0446B4
:1066C00000287FF474AF029B09216B8502AA07A8FA
:1066D0000EF0B1FF044600287FF469AF029B0A2147
:1066E000AB8505F1200207A80EF0C2FF0446002882
:1066F0007FF45DAF3046FFF707FF85F83000C6B284
:1067000007A80EF0F4FF06EB86060B36864208D289
:10671000314605F1180207A80EF0AAFF28B1044679
:1067200045E700220023C5E9062395F83030002B09
:106730003FF43DAF6B6B002B3FF439AF0F264FF0AA
:10674000000895F83030984504D3002F18BF6FF03B
:1067500006042CE76A6B311F02EB081207A84FEA08
:1067600008190EF068FF0028D9D16A6BF11E4A445F
:10677000083207A80EF023FF0028D0D102AAB11ECC
:1067800007A80EF058FF0028C9D16B6B029A4B4442
:106790005A81711E02AA07A80EF04DFF0028BED133
:1067A0006A6B029B4A443146938107A804320EF07B
:1067B00042FF05360028B2D108F10108C1E70124E3
:1067C000F5E600BF1FAB030039AF0300C2AD030005
:1067D00087AA03007FB5002306460D46CDE90233A4
:1067E000002947D0002845D0042102A80EF04CFE15
:1067F000044638B10246452120480CF036FF2046B9
:1068000004B070BD014602AA30460EF03AFE0446BE
:1068100028B1452102461A480CF027FF19E0012152
:106820000DF1060202A80EF0EAFE044618B1024677
:1068300045211448F0E7BDF8063002A82B700EF091
:1068400056FF022809D84FF0FF324FF0FF33C5E959
:10685000022302A80EF02BFED1E7022105F1080267
:1068600002A80EF005FF04460028F2D0024645219A
:106870000548D1E76FF01504C1E700BF1FAB030067
:1068800070AF0300A7AF0300D5AF0300F8B50E4605
:106890000446E8B1E1B108210F4AFFF721FC30B905
:1068A0000E4845210CF0E1FE6FF00400F8BD002514
:1068B0000B4F0834214657F8040BF6F779FE08B958
:1068C0003570F3E70135052DF4D16FF03C00EDE7AD
:1068D0006FF01500EAE700BF0FB0030018B0030027
:1068E0007486030010B50446094A0846637A0021FD
:1068F000FEF7DEFC10F10B0F00D040B904480EF09B
:10690000F6FE637A984294BF00206FF00A0010BD33
:106910004C6F01201FB50446114A01AB07CA83E83A
:10692000070021461846FFF7DDFF024628B1452142
:106930000C480CF09AFE04B010BD0DF102029DF857
:106940000C1009480EF05BFE024610B145210748C5
:10695000EFE7074B9DF802001B689847EBE700BF85
:1069600050820300FDB103004C6F012039B20300D7
:10697000546F012030B50D460021A1B004467C22A1
:1069800001A8009110F02FFBD5B1104B53F8244013
:10699000A37A022B14D080216846226806F016F9EB
:1069A00088B969462046FFF79DFF38B92A46217A03
:1069B00007480EF024FE002808BF022021B030BD99
:1069C0006FF01500FAE76FF00400F7E79487030013
:1069D0004C6F01200348436813B90A210EF054BDDF
:1069E000002070474C6F01200348452108B50CF08A
:1069F0003CFE0020FBF7FCF980B2030010B5044612
:106A000030B90B4845210CF030FE6FF0150010BD79
:106A100000F096F830B9074857210CF026FE6FF0C9
:106A20003C00F4E72046BDE8104000F051B800BF3C
:106A3000A2B20300FFB30300FF281CBF034B187072
:106A4000034B1B680BB101481847704701850120B3
:106A5000586F012010B50378C3B9037A013B072BA7
:106A600014D8DFE803F0040F1313041313040EF01B
:106A7000B6FE58B9BDE810404FF400420023044868
:106A800007F08CBFBDE8104000F086BA10BD00BF13
:106A90000045012010B518B1064810F0F2F838B9D9
:106AA000BDE810404FF0E1520023024807F076BFE6
:106AB00010BD00BF00450120014807F029BB00BF01
:106AC0002C4E01200148FEF7B5BE00BF556A0200FA
:106AD00030B5044685B001206946FBF7BFFC50B1D4
:106AE0000DF02CF8572102680C480CF0BEFD6FF039
:106AF0003C0005B030BD4FF47A71009B019DA3FBB3
:106B0000013201FB05220299054D91FBF5F15B185D
:106B100042EBE172C4E90032EBE700BF31B403009D
:106B200040420F0008B508B1034B1860034807F056
:106B3000EFFA002008BD00BF586F01202C4E012045
:106B4000034BD3E90023134314BF012000207047F7
:106B50007050012010B5104CD4E90023134316D017
:106B600010F0CAF84FF47A72A0FB020302FB013165
:106B7000D4E90032C00B40EA4140C01A074B4FEA4B
:106B8000D13161EB0201984271F1000302DB6FF039
:106B90003C0010BD0020FCE77050012080EE360064
:106BA000F0B58FB006460D46174600211022684604
:106BB00010F019FA2422002105A810F014FA10F0A0
:106BC0009BF84FF47A74A0FB043004FB01041A4ACA
:106BD000DB0B43EA44430020E40BC2E90034FFF737
:106BE00059FF4FF47A72002330462946F6F7CEFA61
:106BF0004FF47A72CDE90001002330462946F6F7BA
:106C0000C5FA0E4B69465A4301200292F6F7E4FC9E
:106C1000024640B10A4845210CF027FD0320FFF74A
:106C20000BFF0FB0F0BD05A9684609F081FD05A86E
:106C300000F088F93846F2E77050012040420F001A
:106C400055B403007FB500240025164E4FF0FF32E7
:106C50004FF0FF33304607F095FAFFF77BFF30B96E
:106C60000120FFF717FFFF20FFF7E6FEEEE768467B
:106C7000CDE9004500F02CF9024620B9DDE900011C
:106C8000FFF78EFFE2E702A8CDE9024500F00CF81D
:106C900018B9DDE902010122F2E70120FFF7FAFE4F
:106CA0000320E1E72C4E01202DE9F0479AB006467B
:106CB00006A8FEF739FF054638B10246572132488B
:106CC0000CF0D3FC6FF03C044DE09DF81830082B1D
:106CD00003D003F0FB03012BF4D12C4FDFF8B0807D
:106CE000DFF8B090DFF8B0A05022002106A857F8D6
:106CF000044B10F078F94FF4806306AA07934146DD
:106D00006B4620460CF0F2FC024660B15721234846
:106D10000CF0ABFC012D04D1572121480CF0A5FC4F
:106D2000D0E70125E0E7009B01A8D3E905210CF09D
:106D3000A9FC0446D8B1572102461A480CF095FC2C
:106D400000980CF0D5FC01A80CF0CBFC002CE1D194
:106D50004FF47A710F4803684568A3FB013201FBC9
:106D60000522C6E9003220461AB0BDE8F0874A463F
:106D700041F2883101A8F9F759FF04460028DFD015
:106D8000024657215046D9E784B4030028880300FF
:106D9000C3B4030078500120FDB40300C7B403005E
:106DA00018B50300E3B4030030B504468DB00028E5
:106DB00000F082800122414B1A70FFF7CBFE0028C1
:106DC0007AD02C21204610F09EFA054638B922468A
:106DD00045213B480DB0BDE830400CF046BCF6F70D
:106DE000F1FB102803D8224645213648F2E76B789C
:106DF000222B03D0224645213348EBE701AA062384
:106E00000C21A81C0CF00BFA0528024604D82346D6
:106E100045212E480CF029FC9DF806109DF8042011
:106E200001F00F0000EB8000090901EB4001C9B23D
:106E300006919DF807109DF8053001F00F0000EB5A
:106E40008000090901EB4001C9B205919DF80810C5
:106E500001F00F0000EB8000090901EB4001C9B20D
:106E600004919DF8091001F00F0000EB8000090962
:106E700001EB4001C9B2039102F00F0101EB810166
:106E8000120902EB4102D2B26432089203F00F02FF
:106E900002EB82021B0903EB4203DBB2013B03A8B6
:106EA0000793F9F7EFF84FF47A73A0FB030400227D
:106EB00003FB0141FFF774FE0DB030BD02850120D8
:106EC0005DB503008FB50300B7B50300F3B503004C
:106ED00030B5184B04461B788FB0A3B106AB0293B4
:106EE00007AB019305AD08AB00930AAA12491348FA
:106EF000039509AB05F0D6FE0628024606D05721B9
:106F00000F480CF0B2FB6FF03C0011E00A9B2846E2
:106F100064330A93099B013B0993F9F7B3F84FF4E3
:106F20007A72A0FB023002FB0100C4E900300020AD
:106F30000FB030BD028501202AB60300B8B00300AF
:106F400044B6030030B5114B85B01B78DBB9D0E9EE
:106F50000421642491FBF4F5039303680132029346
:106F6000436804FB1511019383680093C3680848C4
:106F700005F006FE024630B14521064805B0BDE8E1
:106F800030400CF072BB05B030BD00BF028501205F
:106F9000D9B6030006B7030008B5064805F0F0FDB2
:106FA000024628B1BDE80840452103480CF05DBB0E
:106FB00008BD00BF29B7030035B7030008B5D8B92D
:106FC0000E48F6F7FFFA40B10C490D4805F0D8FD20
:106FD00018B145210B480CF048FB0B48F6F7F2FAC4
:106FE00050B10949064805F0CBFD28B1BDE808407D
:106FF000452106480CF039BB08BD00BF7DB7030032
:10700000E4C003009CB70300C4B70300DCB703006F
:107010001FB5D0F81C380446B3F5006F0AD90E49E5
:107020000E484FF4BD720CF0E6FA4FF4BD710A48F9
:107030000CF0DAFA00238DF8043004F11C030293FB
:10704000D4F81C3804F58054039301A8D4F81039FF
:10705000984704B010BD00BF11B803008A93030025
:107060002DE9F041002A05460C4686B006DC0026D4
:10707000374605F11C0824BB20461FE04FF47A7305
:1070800092FBF3F103FB11225A43CE17CDE902160E
:1070900000680492102315220093012102AB0CF02A
:1070A00033FC0028E3D00CF049FD572102680C485E
:1070B0000CF0DBFA0CF042FD0068404206B0BDE87F
:1070C000F081286800232246CDE9007708EB06010D
:1070D0000CF06EFB0028EDDB0644241ACBE700BF62
:1070E00056B8030030B5044689B018B311B34FF059
:1070F000FF33036000F58053C3F81019002200230A
:107100000025CDE906230E230090CDE9033500F5D7
:1071100011614FF48052CDE90155084B00F688000B
:1071200006F092FCC4F8800805490FF015FD2846CA
:1071300009B030BD6FF01500FAE700BF75750200A9
:1071400082B803002DE9F0470F4616460446A8B062
:10715000002800F0D281002900F0CF81002A00F041
:10716000CC81036801337FD19368B3F5006F09D9EF
:107170004521B4480CF079FA6FF00605284628B08E
:10718000BDE8F08792F80480502200210DEB020048
:107190000FF029FF01234022384604A9169300F07E
:1071A0006FFB05460028E9D1B8F1000F19D04FF464
:1071B00080530421A44A159302A843460AF0C8F854
:1071C00003AB14AA02A904A80CF090FA054660B11A
:1071D00057219E4B9E4804AA0CF047FA6FF07505A4
:1071E000CCE7014603AB14AAEDE7221D90460398B5
:1071F000836903F1180153F804CB8B4242F804CBA6
:10720000F9D10CF075FA96E80F0004F5036C8CE8E0
:107210000F003846C4F8287803AA04F5046100F08A
:10722000F9FA50B101230393D4F83038013314BF75
:107230004FF481730623C4F84038D4F8402822F470
:107240008073112B00F05381B2F5817FD4F8303870
:107250000CD1013312D157217E480CF006FA6FF0A1
:1072600015052368002B89DB002587E7013305D14D
:1072700094F83C3813B157217748EEE7D4F8280842
:1072800002A900F035FB48B1D4F84038B3F5817F4E
:1072900034D02CDC062B36D0112B36D0A088012818
:1072A00036D0022840F026811827BDF808305BBA96
:1072B000E38004F5805393F814391BB1039B43F02A
:1072C000804303930399D4F84028F9F74BFD002835
:1072D0000646206022DA0CF031FC452102685F4846
:1072E0000CF0C3F90CF02AFC05686D42B9E740F2D6
:1072F00011129342D2D141F2346301E040F2BB1348
:10730000ADF80830CAE75023FAE741F23363F7E7F4
:10731000BDF8083008275BBAE380CAE794F83498D0
:10732000B9F1000F2AD000230821CDE914334C4ACB
:107330004B4614A80AF00CF8492114AA49480CF04D
:1073400094F914A8F6F73EF919220090012130466D
:1073500014AB0CF0D9FA88B10CF0F0FB4A46036884
:10736000452141480CF081F96FF0720620680CF05D
:10737000D4F94FF0FF333546236072E7D4F8403834
:10738000B3F5817F04D040F21112934240F0948013
:10739000D4F83068731C00F08F800223D4F800907A
:1073A000149604934FF0040A05224FF48D71484659
:1073B000CDF800A004AB0CF0A7FA60B30CF0BEFB54
:1073C0004521026829480CF050F90CF0B7FB06681B
:1073D0007642002ECAD194F83C38002B6CD0D4F8F9
:1073E0002868D4F8009046B92149224886220CF03A
:1073F00002F986211E480CF0F7F83046402214A905
:1074000000F03EFA064600283CD0024645211A48C4
:107410000CF02BF9AAE73246492118480CF025F95F
:1074200001224FF48D714846CDF800A014AB0CF04A
:107430006BFA0028CFD00CF081FB45210268104880
:10744000C1E700BF92B80300EDA70300CAB803006C
:10745000CFB80300F8B8030023B903005CB90300F8
:1074600081B9030087B90300A2B90300D2B90300B0
:1074700011B803008A9303005EBA030003BA030045
:107480002BBA030014A8F6F79DF8022200904FF4DF
:107490008D71484614AB0CF037FA68B10CF04EFB16
:1074A0004521036814AA16480CF0DFF80CF046FBDF
:1074B00006680EB1764259E74921D4F828281148C8
:1074C0000CF0D3F820683A4641460CF04AF90028FF
:1074D0003FF4C7AE0CF032FB452102680A480CF0BD
:1074E000C4F80CF02BFB0668002EE3D1B9E66FF070
:1074F0007A05B6E66FF06905B3E66FF015053DE66F
:1075000080BA0300B1BA0300C7BA030010B504463D
:10751000A8B10068002812DB0CF0FFF858B10CF09D
:107520000DFB4521026807480CF09FF80CF006FBA4
:107530000068404210BD4FF0FF332360FAE76FF060
:107540001500F7E7E8BA030010B5044649210848DA
:107550000CF08BF82046FFF7D9FF40B92046D4F84D
:10756000281804F50362BDE81040FFF7EBBD10BD1D
:107570000EBB03002DE9F047054600244FF01E081E
:107580004FF00009824F86B0D5F8800807F03AFF27
:10759000DFF800A2D5F81C38B3F5006F0AD33946DE
:1075A000504640F2E7120CF026F840F2E711384658
:1075B0000CF01AF8D5F81C28B2F5006F08D1452157
:1075C00075480CF052F8072128460EF00CF9DBE75D
:1075D000D5F84038062B02D0B3F5817F37D1002390
:1075E000CDE9028928680493102314220093012115
:1075F00002AB0CF089F9034648B10CF09FFA572111
:10760000026866480CF031F84FF0FF360CE028684D
:10761000D5F81C6805F11C01C6F500623144CDE9BE
:1076200000330CF01CF90646731E03334BD9D5F812
:107630001C388BB195F8443873B12846FFF7E8FC45
:10764000044648B1492156480CF00FF89CE7452103
:1076500054480CF00AF8D7E701362ED10CF06EFA38
:107660000368742B1DD1D5F8403823F48073112B97
:1076700073D074240CF062FA452102684A480BF07A
:10768000F4FF214628460EF0AEF8044600287FF4A9
:107690007BAF2846FFF758FF044600285DD07521D0
:1076A00092E70CF04BFA03680B2BDCD00CF046FA97
:1076B00003680B2BD7D06824DCE757213B480BF03D
:1076C000D4FF6824DDE7D5F84038062B02D0B3F5A7
:1076D000817F06D13146284600F0E0F9041E3FF7CD
:1076E00059AF002C01DA4D216EE7D5F82038D5F8D6
:1076F00024282BB364215143B1FBF3F12C480091B2
:1077000049210BF0B2FF2846FFF782FC044600280F
:1077100098D1D5F82428D5F820389A4215D1492196
:1077200024480BF0A2FF0223CDE902448DF8083073
:1077300005F58053D3F81039049402A8984723E73D
:1077400049211D480BF091FFDDE795F8453823B13D
:1077500085F845082846FFF7F7FE00262846C5F8B5
:107760001C6885F844680EF050F8044600283FF481
:1077700011AF682128460EF036F8044600287FF441
:1077800003AF2846FFF7E0FE04460028E6D086E770
:1077900011B803008A93030022BB030056B803000C
:1077A00069BB030054BB030092BB0300B1BB0300E1
:1077B000CEBB03000ABC0300F1BB030038B504468E
:1077C000F8B10368002B1FDB0023C0F82C18C0F8A9
:1077D0002038C0F82428C0F81C3880F844380EF04F
:1077E00014F8054658B94921D4F82438D4F82C287F
:1077F00007480BF03AFFD4F8800807F02DFC284624
:1078000038BD6FF01505FAE76FF07F05F7E700BFA9
:1078100021BC030070B50D461446154905220646E5
:107820000FF086FD28B94FF481732B60012323608C
:1078300070BD042230460F490FF07AFD08B90623C7
:10784000F3E7052230460C490FF072FD20B940F2F3
:1078500011132B600223EAE70422304607490FF098
:1078600067FD08B91123F4E76FF01500E0E700BFEA
:107870003BBC030041BC030046BC03004CBC0300FE
:1078800073B5044601900D4601A8184916460DF03F
:10789000D1FF019803785B2B11D15D210FF033FDEF
:1078A000F0B101300199441A631CB3421BD822463F
:1078B00028460FF078FB0020285502B070BD3A2111
:1078C0000FF021FD0028EDD12F2101980FF01BFDB5
:1078D0000028E7D12046F5F775FE431CE018E1E7E4
:1078E0006FF01500E9E76FF00600E6E751BC030012
:1078F0007FB50E4601901B4901A80DF09BFF019B2F
:107900001B785B2B03D1184901A80DF093FF174991
:1079100001A80DF08FFF054608BB2F2101980FF03D
:10792000F2FC04460198C4B9F5F74CFE0446072C56
:1079300028BF07240823224601990DEB03000FF00E
:107940003FFB04AB1C44002302A804F8083C0FF0E2
:1079500008FB3080284604B070BD241AE7E76FF0BA
:107960001505F7E751BC03000EDA0300E6D3030068
:1079700037B50D461549144601900FF020FD40B96A
:107980000198F5F71FFE0130A04212D96FF00600F2
:1079900006E00F4901A80DF04DFF18B16FF015007A
:1079A00003B030BD0B4901A80DF044FF0028E7D01B
:1079B000F4E70198F5F706FE0199044602462846C9
:1079C0000FF0F1FA00202855EAE700BF52BC03008F
:1079D00051BC030053BC030070B5D0F828380546ED
:1079E000C4B043B929492A4837220BF004FE372195
:1079F00026480BF0F9FDD5F82C3843B92349244823
:107A000038220BF0F8FD382120480BF0EDFD04AED4
:107A100040223146D5F82808FFF732FF044670BBF4
:107A2000C022D5F82C0814A9FFF7A2FF044630BBEA
:107A3000D5F83838D5F8241823B30B44013BD5F8D2
:107A400020281AB1013A934228BF1346CDE9011309
:107A5000104A4FF4006114AB009605F11C0009F0C8
:107A600077FC002201462846FFF7FAFA044630B1B7
:107A70000CF064F84521026807480BF0F6FD20463B
:107A800044B070BD01F2FF73D9E700BF55BC0300DD
:107A90008A9303008FBC0300DABC0300D0F81C38C3
:107AA0002DE9F7430B44C0F81C3890F844380446DD
:107AB0008846002B40F0928000F11C07384656495A
:107AC0000FF07DFC054618B9012003B0BDE8F08336
:107AD000D4F81C383B449842F6D84F48F5F772FD6D
:107AE00005443B4628464D4EA5EB070998420AD16E
:107AF00038464B490FF063FC064670B945214948AA
:107B00000BF0B3FD2BE01A78915D01F00301012920
:107B100008BF203203F8012BE8E74148F5F752FD92
:107B200006440A22304601A909F014FE019B13B94C
:107B300045213D48E4E7CE2817D042F201420199A1
:107B40000B780D2B0ED822FA03F3DB4313F001035D
:107B500008D10B703246452134480BF086FD4FF0BA
:107B6000FF30B2E701310191E9E7D4F82038B3B929
:107B700038462F490FF023FC10B945212D48BFE7A7
:107B80002D490FF01CFC10B945212C48B8E70130F5
:107B90000FF0E7F9D4F820380344C4F82038384609
:107BA00027490FF00CFC30B1572126480BF05DFD42
:107BB000012384F845380123D4F81C2884F844387C
:107BC0004A4524D029463846A2EB09020FF0EBF9CA
:107BD000D4F81C38A3EB0903C4F81C38D4F82438B3
:107BE000D4F81C28D4F82018904594BF43449B181F
:107BF0008B42C4F824380CD0D4F83808002808BFC9
:107C00004FF40060904294BF002001205DE7002304
:107C1000E2E7002059E700BFD5BC03000ED7030000
:107C200005BD03000FBD030035BD03006BBD0300A0
:107C30008DBD03009BBD030053BC0300D0BD0300FA
:107C4000EEBD030000BE030007B500230422CDE90A
:107C500000338DF80020054A8DF804001370044BA2
:107C600068461B68984703B05DF804FB0385012054
:107C70005C6F012013B501A801F050FB034648B129
:107C80004521164A16480BF0F0FC0120FFF7DCFFF7
:107C900002B010BD134C2046D4F8281804F5036236
:107CA000FFF750FA034618B145210C4A0E48EAE79F
:107CB0002046019AD4F82C18FFF780FD034618B12E
:107CC0004521064A0948DEE7019A492108480BF098
:107CD000CCFC0122074B1A70DAE700BFA2C00300F8
:107CE0002DBE03008850012058BE030080BE030053
:107CF000B0BE03000385012073B50546002800F0DF
:107D0000D8800378012B00F0A580022B7ED0002BB9
:107D100040F0D280694E3378002B5AD068496948C8
:107D20000DF07EFD044608B101206CE03070D5E90D
:107D3000010101F0A9FA644BC0B21870634B1B78C3
:107D4000E3B198421AD00246452161480BF08DFC00
:107D500003256FF06A045B48FFF7D8FB2846FFF75E
:107D600073FF01F007FB024618B1452159480BF09B
:107D70007CFC01233370204602B070BD504A0021C4
:107D8000554B126801F09CFA041E09DA14F1100F29
:107D900006D02246452151480BF067FC0125DAE761
:107DA000684601F0BBFA10B10120FFF74DFF009BC0
:107DB0007BB14448FFF7AAFB4FF400420023484838
:107DC00006F084FD492147480BF04FFC4FF0FF348B
:107DD000D1E7D5E9010101F0ABFA04460028CAD089
:107DE0000246452140480BF040FC002001F0ACFA6F
:107DF00018B145213D480BF038FC01233148337060
:107E0000FFF784FB0220FFF71FFFB4E7012001F01A
:107E10009BFA044618B901F0C3FA044628B1224679
:107E2000452133480BF021FC7EE72648FFF76EFB27
:107E3000044600287FF478AF01252E4BCDE90000E1
:107E40001B6868468DF8005098471C4B1D702A4BE4
:107E50001C7090E7294E326892B1446804F18003A7
:107E6000182B0DD8264CDC40E44314F0010407D154
:107E7000572124480BF0F9FB3368013B33607AE764
:107E80001048FFF743FB45211F480BF0EEFB002095
:107E900001F05AFA10F10D0F04D018B145211B481A
:107EA0000BF0E3FB0120054B1870FFF7CDFE6C686B
:107EB00061E76FF015045EE700245CE7C4850120EC
:107EC000606F012088500120C5850120C6850120F2
:107ED000D3BE030029BF0300117F02000BBF0300C4
:107EE000A069012052BF03007CBF03009BBF0300B9
:107EF000C4BF03005C6F0120038501206471012071
:107F000001100001E3BF030012C003002DC00300F5
:107F100007B538B1012811D0012003B05DF804EB9A
:107F2000FFF792BE0223CDE900008DF80030064B2A
:107F300068461B68984703B05DF804FB0023CDE951
:107F400000330323F1E700BF5C6F0120F0B50D465D
:107F500000218BB001918DF80430109B04460391F1
:107F600000920293002845D0002D43D0244B1B687B
:107F7000002B3FD0234F3B78002B3ED1013212D053
:107F800001460DF1120201200BF0B7FC01280AD0C6
:107F9000022021460DF112020BF0AFFC01281CBF9C
:107FA00001238DF80C300222174B184E1A60294617
:107FB000BF2230460FF0D0F9002321466A4614480C
:107FC00086F8BF30FFF7BEF8044668B99DF8442034
:107FD000104B31461A7002460D48FFF7EFFB04467E
:107FE00028B10B48FFF792FA20460BB0F0BD0123F1
:107FF0003B70F9E76FF01504F6E76FF07704F3E7ED
:108000005C6F01200385012064710120048501203B
:1080100088500120C685012010B5F8B1114B4FF4EE
:1080200000711860104801F063FB044638B1034644
:1080300045210E4A0E480BF018FB204610BD0D4995
:108040000D4806F0B5FB0D490D48FFF74BF8044607
:108050000028F2D101220B4B1A70EEE76FF01504E5
:10806000EBE700BF5C6F0120646F0120B7C0030025
:1080700066C00300757C0200A0690120F97C020043
:1080800088500120C48501202DE9FF47DDF830909C
:108090000C4615461E460746002843D0002941D00D
:1080A0005368002B3ED0D2F80880B8F1000F39D0C9
:1080B000002E37D09DF83430DFF870A00846002B32
:1080C00018BFD046F5F77EFA194B6A68002808BF3A
:1080D00053460094CDE9013295213B463046154A7E
:1080E000CDF80C8009F034F9942804460ADD4521C6
:1080F0006A6811480BF0B9FA6FF00B04204604B01F
:10810000BDE8F087002806DA034645216A680B4877
:108110000BF0ABFAF2E701230024C9E9006089F80B
:108120000830EBE76FF01504E8E700BFB1A10300EA
:1081300053BC0300CAC00300E7C0030029C1030009
:10814000012307B5034A0093034B0DF08DFB03B0E9
:108150005DF804FB3C880300B1A1030007B50B46A2
:10816000114601220092034A0DF07EFB03B05DF838
:1081700004FB00BF3088030007B50B4611460122FF
:108180000092034A0DF070FB03B05DF804FB00BFE2
:108190004888030070B5ADF5AB6D0E46DDF86C1583
:1081A0000546A1B31B480291002B08BF0346DDF82A
:1081B000681504A8CDE90031174B40F2465153F839
:1081C0002230164A09F0C4F840F24553984204465A
:1081D00009DD452112480BF048FA6FF00B042046E8
:1081E0000DF5AB6D70BD002805DA024645210D483E
:1081F0000BF03BFAF3E7DDF870353146CDE90003CB
:10820000094A284604AB0DF059FB0446E7E76FF036
:108210001504E4E767C10300548803006CC1030040
:10822000BCC10300F3C1030048880300F7B5084F41
:108230000446384616460D46F5F7C4F93B46CDE9E7
:10824000000629462046034A0DF038FB03B0F0BD76
:1082500017C2030030880300024B1A78824218BF0D
:10826000187070475C88012010B500240120FFF7CA
:10827000F3FF054B40221C70044B054918460FF0D4
:108280006BF880F8404010BDC8850120A14B01204B
:1082900092C2030038B5044609480D46F5F792F935
:1082A000A84205D9074857210BF0DFF9002038BD57
:1082B000204603490FF083F8003818BF0120F6E785
:1082C000A14B0120A1C2030030B5412204460D4656
:1082D00085B0114911480FF02BF8D0B1104B204652
:1082E0000293104B2A4601930F4B0C491B680093D5
:1082F0000023FFF74FFF041E07DA224645210B48F3
:108300000BF0B3F9204605B030BD094B00241D70B9
:10831000F8E76FF08B04F5E792C20300A14B012050
:10832000388E0120B1A1030070710120D2C2030078
:10833000C885012037B5324D04462B6853B9314901
:10834000314840F2B9220BF056F940F2B9212D48DC
:108350000BF04AF92278042A4AD8DFE802F04303F6
:10836000222A2C0005238DF800306423274C684610
:1083700001932368984702212868FFF7A5FF60B1A1
:10838000234B1B784BB1022368468DF800302368DD
:108390009847FFF769FF03B030BD0320FFF75CFF8C
:1083A000F9E703238DF80030184B68461B6898479F
:1083B000F1E70423F6E7452116480BF056F90321AF
:1083C0002868FFF781FF02238DF800300F4B6846C5
:1083D0001B689847FFF748FF0F4A10492868FFF7C6
:1083E00025FFD8E7052263688DF800200193DBE7BD
:1083F00057210B4803B0BDE830400BF036B900BF41
:108400006C71012000C303008A930300687101208E
:10841000C785012037C30300C886012054C3030069
:108420005AC3030040F2465370B50D4C99420546BD
:1084300004EB01060DD8A64201D8002070BD2146EC
:108440002846321B0CF013FA0028F7DB04D0044452
:10845000F1E76FF07900F1E76FF00400EEE700BF9D
:10846000F28801202DE9F047DFF89CA20E469AF829
:108470000010054694B049B95721A4480BF0F5F80F
:108480006FF00104204614B0BDE8F0873378072B65
:108490000BD8DFE813F0080045004900A5010A00E9
:1084A0000A000A00AF01F3690BB10124EAE70122D7
:1084B000974B91421A700BD002399142F5D8412264
:1084C000944995480EF034FFE0B96FF08B0408E052
:1084D0009249FFF735FE044648B1452190480BF01C
:1084E000C4F8224657218F480BF0BFF8D5E0284644
:1084F0008D4A8E49FFF732FE04460028D5D045212B
:108500008B48ECE728468B4A8349FFF735FE044643
:108510000028CAD00246452187480BF0A6F8E0E7BC
:1085200000227B4B1A70C0E7D6E90147834B3A46DD
:1085300021467D48D6F814800DF0E5F9002849D190
:108540003A4621467E4B78480DF0DDF9002841D1AE
:108550003A462146794B71480DF0D5F9002839D1BA
:108560003A462146764B73480DF0CDF98146B8B9AD
:108570003A462146734B6F480DF0C5F9002894D058
:108580009AF8003003F0FD03012B1AD1394620463A
:10859000FFF780FE002840F0FE8057216A480EE079
:1085A0009AF8009009F0FD09B9F1010F09D1394697
:1085B0002046FFF76FFE002858D1572163480BF083
:1085C00054F841462846FFF72DFF0446002800F0E6
:1085D0008A800DE09AF80030012BF2D1DFF870911B
:1085E00041462846D9F800A0FFF71CFF044618B101
:1085F000224645215748E4E0574B414600935748EF
:10860000574BCDF8049003AA00F076F9041E05DA62
:108610002246452153480BF028F80CE063D03E4F2A
:108620004122394603A80EF083FE044650B9572173
:108630004D480BF01AF8C9F800A0002C2DDB012CD6
:1086400051D132E7402203A938460EF085FE0023BF
:1086500039462846374A87F84030FFF78DFD0446F3
:10866000002840D0024645213348D4E741462846F9
:10867000FFF7D8FE04460028BAD1354A1368013303
:1086800013603A4B1B78012B0AD0022B78D045217E
:1086900037480AF0EAFF6FF01504FFF7E5FDF1E651
:1086A00003464FF0FF32CDE9030000902A492C48E1
:1086B0000DF0D1F82F4C024678B145212E480AF032
:1086C000D4FF022303A88DF80C30236898470321B8
:1086D0002846FFF7F9FD0446AFE70220FFF7BCFD8F
:1086E000236803A89847337B012B40F08180338BAC
:1086F00003A9ADF80C30214B18680BF0BCFF044601
:1087000000283FF4BFAEC8E75C8801207BC30300AC
:10871000C785012092C20300A14B01205D88012082
:10872000A1C3030028C40300C886012054C303006A
:10873000CFC30300388E0120FAC30300B1A10300A8
:1087400045CB030068CB030063C50300CAC4030024
:10875000707101204EC40300C9850120F2880120F8
:108760005D87012076C403009BC40300C8850120F7
:1087700045C50300687101200EC503006C7101201E
:10878000384BCDE903001B6803A88DF80C9098477F
:10879000FFF76AFDA7E7022345213348CDE9039996
:1087A0008DF80C300AF061FF304A414613682846C4
:1087B000013B1360FFF736FE044628B1452102460F
:1087C0002B480AF052FF38E745212A4A2A480AF086
:1087D0004CFF244B03A81B6898476FF00D045CE71F
:1087E000F269002A3FF461AE452124480AF03DFFBA
:1087F000002447E6F469002C7FF444AEB388B3F557
:10880000046F15D040F6430293427FF44EAE022926
:108810003FF44BAE032919D0012918D0572118482D
:108820000AF023FF6FF08B042246572115485BE6C0
:10883000154A1649FFF7FAFC044600283FF435AE06
:108840004521024612480AF010FFEDE702212846B2
:10885000FFF73AFD044600283FF427AE02464521C3
:108860000C48F0E768710120A7C503007071012072
:10887000CDC50300F2880120F4C50300FCC5030048
:1088800048C6030087C60300C886012054C30300FE
:1088900016C603005BC6030010B5114B1B783BB135
:1088A000572110480AF0E1FE4FF0FF34204610BD7A
:1088B00098B191B10C4B18600C4B0D481960FFF743
:1088C000ABFB044628B1024645210A480AF0CDFE1A
:1088D000ECE70120FFF7C0FCE8E76FF01504E5E7DF
:1088E0005C880120A5C603006C710120687101201D
:1088F00035830200D8C603002DE9F0471646DDE9AE
:1089000008A91F46002868D0002A66D0002B64D032
:10891000BAF1000F61D0B9F1000F5ED00DF0AEF9E1
:10892000054638B96FF03C04284601F095FD204615
:10893000BDE8F0872A490DF0A8F904460028F3D0D5
:1089400028490DF0A2F980460DF0B3F90028E9D0CE
:1089500030464122D8F810100DF00AF8204622497E
:108960000DF093F906460DF0ABF90028DAD0304649
:108970001E490DF08AF906460DF0A2F90028D1D063
:1089800030461B490DF081F91A49804630460DF0FA
:108990007CF9064640460DF08CF90028C2D03046DE
:1089A0000DF087F90028BDD0FF223846D8F8101006
:1089B0000CF0DEFFFF22504631690CF0D9FF204653
:1089C0000D490DF062F904460DF065F90028A9D0B3
:1089D00063690124C9F80030A6E76FF01504A6E723
:1089E00002C703000CC7030012C703001EC7030021
:1089F000B5A1030027C703002CC70300034B1B6866
:108A000003B11847452102480AF02FBE2072012009
:108A10003AC7030010B5044688B0202200216846FA
:108A20000EF0E1FA24B32378052B1DD8DFE803F01C
:108A3000030A100C0E1608238DF800306846FFF765
:108A4000DDFF15E00923F7E70A23F5E70B23F3E73A
:108A5000452108480AF009FE0D23EDE70C238DF8A7
:108A6000003063680193E9E7452103480AF0FDFD02
:108A700008B010BD74C703008CC70300044890F908
:108A800083300BB90BF091BE6FF06700704700BFE9
:108A90009071012001480BF0B2BE00BF907101201F
:108AA00001480BF0C3BE00BF907101202DE9F043D7
:108AB000D0E90387037890F81490022BC68A057ECC
:108AC000447E87B024D0032B27D0012B2AD11E4807
:108AD000F4F778FD1C4B640004F0020405F0010576
:108AE00025439DF81640CDE9003024F003042543CA
:108AF000CDE903878DF808908DF8165006BB0CF071
:108B0000B6F9ADF81400694610480BF070FD14E09A
:108B10000F48F4F757FD0E4BDDE70E48F4F752FD12
:108B20000C4BD8E7436813B180680028D3D10A48BA
:108B300045210AF09AFD6FF03C0007B0BDE8F083D4
:108B4000ADF81460DFE700BFA68F0120907101200F
:108B5000EDA00120EC8E0120A4C7030000B589B070
:108B60001C22002101A80EF03EFA012309488DF8CD
:108B700004300490F4F726FD059001A8FFF796FF56
:108B8000024618B1452104480AF06FFD09B05DF8AE
:108B900004FB00BFB1A10300D1C70300F0B5054637
:108BA0000C4695B02022002103A80EF01CFA2146A5
:108BB0002846FFF757FC061E67D00BDA8548324679
:108BC00045210AF052FD0D2303A88DF80C300496C0
:108BD000FFF714FF2378092B57D8DFE813F00A00BA
:108BE0008C009A00C600560056005600CF00560072
:108BF000CD0062794AB1452177480AF036FD6379A4
:108C000004930E238DF80C3064E0237903A8003B15
:108C100018BF01238DF8103002238DF80C30FFF7B8
:108C2000EDFE2379002B5DD16C4801240B90F4F705
:108C3000C9FC0C906A488DF834400E90F4F7C2FCE1
:108C40000F9068488DF840401190F4F7BBFC664ED9
:108C5000664DB36912908DF84C40DBB10CF007F90A
:108C6000B36980B22880ADF80A0001A96048019676
:108C7000ADF808300BF04DFD044640B145210246E9
:108C80005C480AF0F2FC002C20DB15B0F0BD2B791B
:108C900001332B710CF0EBF8032780B268800BAB2B
:108CA000ADF80A0001A952480193ADF808700BF025
:108CB00030FD044618B1024645214F48E1E7B4694A
:108CC0002B7903340133002C2B7107DA0E23049423
:108CD0008DF80C3003A8FFF791FED6E7D5D18DF8BB
:108CE0000C70F7E7032303A88DF80C30FFF786FE1E
:108CF000FFF734FFC9E703230493404BD3E8AF3FAA
:108D00000BB10023049301213D480CF048FE0423DD
:108D100078E76269B2F5106F0AD9452139480AF03F
:108D2000A4FC6FF07902452137480AF09EFCACE7BD
:108D3000284636490BF09EFD02460028F3D1237BDE
:108D4000012B06D1238B28460BA9ADF82C300BF054
:108D500092FC05238DF80C302C4B07936369089324
:108D600063680593A3680693B4E706238DF80C3077
:108D7000A388ADF81030ADE7072343E7E2691B494C
:108D8000234892B9A4880D880368A54202D1013313
:108D9000036002E04D88A542F9D00B790468A34234
:108DA0003FF773AF002B3FF470AF002303600B60FD
:108DB0008B801AB9FFF7D2FE032323E712F10B0FC2
:108DC0003FF463AF002ABFF660AF0E2304928DF824
:108DD0000C307FE706C8030030C80300268F01204F
:108DE000668F0120ADA00120747101209C730120C9
:108DF0009071012051C803007EC803001C7201203D
:108E000084450120AAC80300E2C80300DD8F0120C9
:108E10002472012008B5044801210CF0C0FDBDE812
:108E2000084002480BF04DBC1C72012090710120DB
:108E30002DE9F043A7B0202200210AA80EF0D3F8B4
:108E400004238DF8283003230026A94FDFF8A482DD
:108E50000B934FF0FF334FF0FF32384605F092F995
:108E600001210C4640460CF09AFD0AA88DF8281006
:108E70000B96FFF7C3FDA0480BF05FFB50220021CB
:108E800012A80EF0B0F812AA00219C4803ABCDE95D
:108E900014440AF02BFC024660B1452198480AF0C0
:108EA000E4FB6FF00902452196480AF0DEFB6FF003
:108EB00009038FE0039B944D7BB15A69082A0CD1BA
:108EC0009B692C805B686B604BF222336B801023B4
:108ED000204606AA291DF9F709FC0398864C0AF0DA
:108EE00007FC8A4B8A48A565E3662065F4F76AFBB0
:108EF000042384F88230874B874A23674FF47A73C0
:108F0000C4E91E236367854B4FF001096366844BF8
:108F10006065A3660223C4E90B36824B2046E363F7
:108F2000764BC4E90D69C4E91063C4E9176684F897
:108F300024900BF01AFB054600286BD00246452111
:108F400079480AF092FBEC1D0EDA15F1160F13DAD0
:108F500015F16F0F55D015F16E0F33DA15F1770F4C
:108F600055D015F1740FA2D02A4645216F480AF05A
:108F70007CFB6FF004032DE005F116030E2BF3D8F4
:108F800001A252F823F000BFFD8F0200698F02009A
:108F9000698F0200698F0200698F0200698F0200E9
:108FA000698F0200698F0200698F0200D18F020071
:108FB00009900200698F020089900200698F020007
:108FC000F78F020015F15F0FCED16FF0070301E0BC
:108FD0004FF0FF330B9301230AA88DF82830FFF7D9
:108FE0000DFD002140460CF0DAFC0022002338463B
:108FF00005F0C8F82DE76FF00303EBE76FF0060309
:10900000E8E76FF00803E5E76FF00503E2E76FF0CC
:109010000A03DFE73C220023CDE91400CDE9122347
:10902000A06A102315220093494612AB0AF06CFC8B
:10903000013006D10AF082FD572102683C480AF04F
:1090400014FBA36A3B4804930123ADF814300423B6
:1090500000218DF8283005460CF0A1FCDFF8D890EF
:10906000FFF718FD0246012104A80AF028FC024679
:1090700068B9FFF703FD02460028F1D045212F48CB
:109080000AF0F3FA032329E06FF00203A2E7BDF828
:109090001630D8071AD5FFF703FD044670B9D5E896
:1090A000AF3F012BDCD1234BD3E8AF3F002B98D14E
:1090B0000AA8FFF7A3FCFFF7ADFE92E702464521A1
:1090C00048460AF0D2FA8034E9D1ECE7002A02DA05
:1090D00045211B48D4E7990602D502230B93E2E70A
:1090E000DA0601D50123F9E71B07B9D5CAE700BFA6
:1090F000FC4D0120187201209071012006C9030067
:1091000038C9030053C90300847301209D8B0200FA
:10911000CD8E0120DD980120C59C012090450120C5
:10912000884501209C45012076C9030093C90300AE
:10913000B5C903008445012005CA0300DBC903004B
:1091400025CA030010B50B4BD3E8AF4F44B10A4812
:109150006FF0760257210AF088FA6FF0760010BDA2
:10916000214606480CF01BFC054804F0D1FF2046C0
:10917000F5E700BF1872012047CA03001C720120E6
:10918000FC4D012010B531B945210D480AF06DFAAA
:109190006FF079000FE002290ED14268094B046993
:1091A0001A60826840695A600122186100201A72B0
:1091B000DC601A75996110BD45210348E6E700BFE0
:1091C00074CA0300747101209CCA030038B51C489E
:1091D0000D461C490EF0A4F83721194B1A4A1B48BA
:1091E00008F0B6F83A21164B194A1A4808F0B0F8B8
:1091F0003A21134B184A194808F0AAF84021104B9D
:10920000174A184808F0A4F840210D4B164A174891
:1092100008F09EF840210A4B154A164808F098F8C5
:1092200015491648FFF738FB044630B10246452180
:1092300013480AF01AFA204638BD124B1D60FAE7AF
:10924000CD8E0120CECA0300D7CA0300A68F01200D
:10925000F1CA0300EDA001200ECB0300EC8E01202B
:109260002BCB0300268F01204ECB0300668F0120FD
:1092700071CB0300ADA00120158A0200907101207E
:1092800094CB0300207201201F2910B504460DD98C
:1092900000F026FA68B9204600F03EF958B90748B0
:1092A00045210AF0E2F96FF0850010BD6FF00A0069
:1092B000FBE70120F9E70220F7E700BFFBCB030043
:1092C00070B50446012C10461A4608D0022C17D05F
:1092D0000D4845210AF0C9F96FF0850070BD0B4DAE
:1092E0000B4E3368AB420B4B04D1022C02D01C68EE
:1092F000A14207D0356019602B68BDE8704018475F
:10930000054DEDE70020E9E71ECC0300748803005B
:1093100028720120A045012088880300034B1B68A8
:109320000BB15B6818476FF00C0070472872012082
:10933000044A126812B108B1936818476FF00C0024
:10934000704700BF28720120084B10B51B684BB155
:10935000DB689847044618B1452105480AF085F9AD
:10936000204610BD6FF00C04FAE700BF2872012000
:1093700036CC030038B5084D2B6853B10020DB68AC
:109380009847044628B1452104480AF06EF9204662
:1093900038BD00242C60FAE72872012036CC030087
:1093A00010B5054C236823B11B699847002323603F
:1093B00010BD6FF00C00FBE72872012000487047D9
:1093C0003072012030B5124C85B02368D3B9E0B1BA
:1093D0000568D5B14168C1B18268B2B12560029318
:1093E0004369019303690093C3680A48F7F758FF7C
:1093F000044620B10246452107480AF036F92046C6
:1094000005B030BD6FF00D04F9E76FF01504F6E715
:109410002C7201203072012064CC030010B5044688
:1094200002480AF04BFB2060002010BD3072012082
:109430000A4610B50146002305480AF0FBFA044627
:1094400020B10246452103480AF00FF9204610BD1D
:10945000307201208BCC030010B5044660B10022AD
:109460000123114607480AF0E5FA044620B10246F6
:10947000452105480AF0F9F80022044B20461A60FD
:1094800010BD00BF307201208BCC03002C72012074
:10949000F7B549211B480AF0E8F803F0B9FD024688
:1094A00040B1452118480AF0E0F86FF00D0420465D
:1094B00003B0F0BD3C25154E154F01A803F0A4FCE8
:1094C0000446A8B1002D03DA0020336898473C25F4
:1094D000112C06D0052C04D02246452138460AF02E
:1094E000C4F84FF40040002106F098F9013DE4E78C
:1094F000064B01201B689847492106480AF0B5F839
:10950000D5E700BFC7CC030003CD03005472012090
:109510002ACD03004CCD03004068024BC31A5842C9
:10952000584170476D65447530B599B01F4B05AD16
:10953000044628461A6003F0AFFC024638B14521C4
:109540001B480AF092F86FF00D0019B030BD2423CB
:109550002521184A00950EA807F0FAFE0EAA492107
:1095600015480AF082F804A803F072FC024610B114
:1095700045211248E5E7049BA34207D21048224642
:1095800045210AF072F86FF01A00DEE703A803F035
:109590003BFC18B1024645210A48D2E7039BB3F5CC
:1095A000201FD2D1FFF774FFCFE700BF5472012014
:1095B0006ACD030099CD03009ECD0300BECD03000C
:1095C000F7CD03002BCE030008B503F01DFC30B12E
:1095D0000246452102480AF048F86FF00D0008BD28
:1095E0002BCE030070B505460E4603F07FFC024605
:1095F00048B110F1780F06D0452116480AF035F829
:109600006FF00D0070BD3146284603F09BFC041E30
:1096100003DA224645211048F0E716D022464521BC
:109620000E480AF022F80B2C08D00E2C06D0092C7C
:1096300014BF6FF00D006FF01500E3E7FFF728FF90
:1096400031462846FFF7CEFF08B90020DAE76FF071
:109650001500D7E764CE0300A6CE0300D0CE0300EA
:1096600008B503F09BFC30B102464521024809F0E1
:10967000FCFF6FF00D0008BDF2CE030010B503F043
:10968000ADFC044640B102464521064809F0EDFF15
:109690006FF00D04204610BD4921034809F0E5FF95
:1096A000F8E700BF2ACF030062CF0300002110B506
:1096B00008460AF045FA044638B10346002245211F
:1096C000054809F0D2FF204610BD02464921034853
:1096D00009F0CBFFF7E700BFADCF0300DDCF0300FC
:1096E0000068024BC31A5842584170473DB8F39680
:1096F00040B110F0030305D1044A1060044A184633
:10970000116070476FF01500704700BF587201205C
:109710006072012030B50025214B224C1D6023686A
:10972000024689B043B945211F4809F09EFF6FF0FA
:109730001204204609B030BDB0F5F02F08D94FF41F
:10974000F0234521194809F090FF6FF01A04F0E763
:10975000174803F0B5FE38B94521154A154809F0F8
:1097600084FF6FF00D04E4E7134B4FF40822CDE9BA
:109770000130236801A80393104B07951B680493DD
:109780004FF4F023CDE90523FFF71CFE041E05DA94
:10979000224645210A4809F068FFCAE72C46C8E777
:1097A0005C720120587201201CD0030055D00300C8
:1097B000499603008CD00300ABD0030060720120F7
:1097C000B4D0030010B50446FFF728FE20B9034AC1
:1097D000236812681344236010BD00BF5C7201202F
:1097E000064A30B4064C136824680B44B3FBF4F506
:1097F00004FB153330BC1360FFF71ABE5C72012006
:109800006072012038B50546FFF726FE044630B1E8
:10981000452102460C4809F028FF204638BD6DB1AD
:109820000A4B1860FFF7CAFD0949F7F79FFC044689
:109830000028F2D0024645210648ECE749210648B7
:1098400009F013FFE9E700BFDAD003005C720120E2
:10985000FFFF0F00FFD0030023D103002DE9F043E9
:109860000025214C214E54F8048CDFF8849085B0FB
:10987000A84503D8002005B0BDE8F083636A96E8E8
:1098800007001F6801AB83E807000C221946384621
:109890000DF079FB90B98FB1636A21691B681A6971
:1098A00091420BD19A69A169914207D8E16991422D
:1098B00004D962695B6932EA03030AD0276A67B197
:1098C0000C4809F0FAFC404080F311884FF0040086
:1098D00002DFE36801351C44CAE7484609F0EDFCA5
:1098E000636A1F60F5E700BF3CC401005C820300AF
:1098F00083D103005AD10300F0B585B06E4681686C
:109900000546103921F007040AF085F832460A4B63
:1099100003F1100C374618685968083303C76345CC
:109920003E46F7D11023214628460AF038F8003881
:1099300018BF012005B0F0BD788C030030B50C468F
:10994000816887B0102302AA103905460AF00BF887
:10995000002802DA012007B030BD1022284602A9F3
:109960000CF02CF890B30323237028460CF037F842
:10997000012301460DF10702284609F0F4FF0028F3
:10998000E8DB9DF80730284603F00F021B096270E0
:10999000237101220DF107010CF010F810B9637862
:1099A000042B03D90123637000232371AA6828467E
:1099B000183A22F00702083AA11C0CF01CF8002803
:1099C000C8D12846E11C0CF071F8C4E71022044904
:1099D00002A80DF0D8FA002814BF02230123C3E720
:1099E000788C03000E2A13B5044606D90C4B40F2BE
:1099F000B1110C4A0C4806F06BFE0E2901D90B4B35
:109A0000F5E741EA02118DF807100BF0E8FF01239A
:109A100001460DF1070220460CF00AF802B010BD15
:109A2000B6D1030041D20300C8D103000BD203001A
:109A30007FB50E46092001A9F7F766FB002837D14C
:109A4000019802A9FFF77AFF044638B99DF808503B
:109A5000022D1FD0032D07D0012D22D1019809F02E
:109A600081FF204604B070BD0198FFF745FF044612
:109A70000028F3D166B101980CF011F804460028D3
:109A8000ECD1002229460198FFF7ACFF0446E5E738
:109A90000225F6E701982146826809F09CFF03241D
:109AA000DCE740F24621034B034A044806F010FE6F
:109AB0000124D6E7B4AA03002AD20300C8D10300C8
:109AC0002DE9F0411F46154B044693F800800D46E2
:109AD0001646A2B0B8F1000F15D168460AF003F897
:109AE0003A4631462846289BA0470446684609F076
:109AF000FBFFB8F1000F02D0094804F08DF92046B1
:109B000022B0BDE8F0814FF0FF324FF0FF33044840
:109B100004F0B0F80028E0D01F24F0E736A10120BF
:109B2000E84D01202DE9F84F0A688B6880465D1CDE
:109B3000D018D35C8A46222B154440F0DD802F4696
:109B400000234C68B91AA14280F0D68039782229C6
:109B50000ED1C3F10103381ADAF8102018449047E7
:109B60008346002800F0C8800446DFF898910FE093
:109B70005C2905D10137B91A8C4240F2BD8001330E
:109B80000137DFE72B785C2B12D0013504F8013B5D
:109B9000BD42F7D30023237010230120C8E9033B03
:109BA000DAF80030FB1A0133CAF80830BDE8F88F44
:109BB0007A1B002A0DDD6B78752B0AD86D2B12D815
:109BC000622B2BD026D82F2B29D05C2B27D0222BF1
:109BD00025D05846DAF814309847DAF80000281AE9
:109BE000CAF808008BE06E3B072BF2D801A151F8B0
:109BF00023F000BF299C0200D39B0200D39B0200EC
:109C0000D39B02002D9C0200D39B0200319C0200DA
:109C1000359C0200662BDCD10C2300E0082304F8FD
:109C2000013B02231D44B3E70A23F8E70D23F6E7BF
:109C30000923F4E7052ACCDDA81C0BF068FFA0F58A
:109C40005C43B3F5806F0646C3D3A0F55843B3F524
:109C5000806F2DD2AB1DFB1A052BBADDAB795C2BC7
:109C6000B7D1EB79752BB4D105F108000BF04FFF9C
:109C7000A0F55C43B3F5806FABD20C2309EA8626CE
:109C8000C0F30900304300F580364FF0F00C04209B
:109C900000F1FF3E54FA8EFEA645F2B224D101280F
:109CA00014BF42EA0C0202F07F0222700444B9E7BA
:109CB0007F280AD9B0F5006F0CD3B0F5803F0ED3E2
:109CC000B0F5881F85D20623DFE706234FF0000C8E
:109CD0000120DDE706234FF0C00C0220D8E7062361
:109CE0004FF0E00C0320D3E702F03F0262F07F0167
:109CF0000EF80119B609CFE7002D7FF46EAF0020F2
:109D000054E700BF00FC0F002DE9F84316461F463C
:109D1000804689460DF01EF904460D463046394608
:109D20000DF018F902460B4620462946F3F788F84D
:109D300000B3404649460DF00DF932463B46044615
:109D40000D4640464946F2F733FC0DF003F9002278
:109D500006460F4620462946084BF2F7E1FD02462B
:109D60000B4630463946F3F757F8003818BF012044
:109D7000BDE8F88330463946DDE700BF0000B03C5F
:109D8000F8B50D4660B359B38468FAB9174E3CB3C1
:109D9000236AC3B1AB4221D005F1FF3C013B1CF863
:109DA000011F0F468A5D02F00302012A13F8012FFA
:109DB00008BF01F12007B05C00F00300012808BFD4
:109DC000203297420FD02468E1E7246844B1216A29
:109DD00021B12846F3F7ECFB0028F6D1236A03B93A
:109DE00000242046F8BD0029D9D1F7E70ED703009B
:109DF0002DE9F04F524B85B01A889B7805460F46E7
:109E0000ADF80C208DF80E3019B9002005B0BDE872
:109E1000F08F40B301464FF0000B0120494C8A46B9
:109E200011F8013B6BBBAAEB050ADA4438460AF18C
:109E300003010BF0C6FE06460028E6D022230AF1F5
:109E400001090AF10208441C0370BBF1000F2ED176
:109E50005246294620460DF0A6F8222306F809307E
:109E600006F808B00BE0032138460BF0AAFE0028E4
:109E7000CBD0D7E9012303A9D21A0DF06DFA012046
:109E8000C4E7222B0BD8072B0CD9A3F10802D2B2BE
:109E900000FA02F2224205D00BF1010BBFE75C2B66
:109EA000BDD1F9E71F2B98BF0BF1050BB7E74FF0BA
:109EB0005C0A4FF0740B6B1E234A0193019911F851
:109EC000013F01912BB9222206F8092006F808303B
:109ED000D5E71F2B07D9222B05D05C2B03D02046BA
:109EE0002370441CEAE72046019B00F801AB1B7875
:109EF0000D2B0AD8072B19D9A3F10801052915D86C
:109F0000DFE801F009110D140B0F222B01D05C2B9F
:109F10000CD16370E5E76223FBE76623F9E76E2364
:109F2000F7E77223F5E784F801B0DAE739687D686E
:109F3000411A691A07F00CFA034A601DD1E700BF05
:109F40005CD203003700000456D2030070B505460A
:109F500070B1F3F737FB074B461C30461B68984738
:109F6000044618B1324629460DF01DF8204670BD52
:109F70000446FBE7A4450120F8B50D461446074604
:109F800000B3F9B1F2B190421CD093B1D66846F457
:109F90000076E3689B0504D4206A10B10A4B5B6825
:109FA0009847214638462562E660BDE8F8400BF048
:109FB000F4BD0846FFF7CAFF054618B1E66826F467
:109FC0000076E6E70020F8BDA44501202DE9F04326
:109FD0000C4606468DB008B900256FE00029FBD07D
:109FE000057B102D00F0ED8018DC6B1E072BF3D8DD
:109FF000072BF1D801A252F823F000BF99A002006C
:10A00000C5A00200D99F020071A00200D99F0200E2
:10A01000D99F0200D99F0200C9A00200402D00F084
:10A02000FF80802D00F0BA80202DD5D186680121D7
:10A0300020460BF0C6FD0028CED05B232C274FF026
:10A0400000080370A3680133A360E3680133E36091
:10A05000002E40F0BC80022120460BF0B2FD00280B
:10A06000BAD05D2346700370E368013BE36011E002
:10A07000B24B18681B790590052120468DF81830E1
:10A080000BF09FFD0546C8B1D4E9012305A9D21AFA
:10A090000DF062F9012511E0A94B062118689B8893
:10A0A00005902046ADF818300BF08BFD002893D0BA
:10A0B000D4E9012305A9D21A0DF04EF928460DB0B6
:10A0C000BDE8F0839F4BD4E70021D0E90676162245
:10A0D00006A805910CF087FF002200233846CDE941
:10A0E000022331463A463346F2F7B4FE88B926F0E9
:10A0F00000454FF0FF3238462946934BF2F7AAFE4F
:10A10000F0B94FF0FF32384629468F4BF2F784FE04
:10A11000B0B98A4905A80DF003F904252046691C49
:10A120000BF04FFD00283FF457AF024605AB461930
:10A1300096422DD100234355A0682844A060A9E78A
:10A1400033463A461A21CDE9002305A87F4A07F095
:10A15000FFF87F49054602AA05A807F02DF9012856
:10A160000DD03A4633461A21CDE9002305A8794A95
:10A1700007F0EEF80546192D3FF72EAFCEE73A4629
:10A18000DDE902013346FFF7BFFD0028E9D0F2E721
:10A1900013F8011B013202F8011CC9E7006900280D
:10A1A0003FF41AAFF3F70EFA451C294620460BF090
:10A1B00008FD00283FF410AF2A4631690CF0F3FE89
:10A1C00068E700690DB0BDE8F043FFF711BE214616
:10A1D0003046FFF7FBFE00283FF4FEAE20460BF0B2
:10A1E000CFFC3368BBB163692046002B14BF4FF02E
:10A1F00002094FF0010909F101010BF0E2FC00280E
:10A200003FF4EAAE077063693BB9431C83F80080F2
:10A21000A3684B44A36036681AE7831C4570F5E7D2
:10A220004B698568002B14BF022701272046791C43
:10A230000BF0C7FC00283FF4CFAE7B230370E2682D
:10A2400063690132E2600BB10A234370A3680926F7
:10A250003B443A27A360636995B9002B7FD0E1683E
:10A26000013120460BF0ADFC00283FF4B5AE636928
:10A27000002B7ED103467D221A7000225A70F3E62D
:10A2800073B12046E1680BF09CFC00283FF4A4AEBB
:10A290000246E168131A8B425ED3A3680B44A360A5
:10A2A0002146286AFFF7A4FD00283FF495AE20461A
:10A2B0000BF066FC63692046002B14BF4FF00208C8
:10A2C0004FF0010841460BF07CFC00283FF484AEBF
:10A2D0000770636903B14670A3682146434428466A
:10A2E000A360FFF773FE00283FF476AE20460BF024
:10A2F00047FC2B686269B3F1000818BF4FF00108F2
:10A30000002A18BF08F10108204608F101010BF0EE
:10A3100058FC00283FF460AE2B6813B12C2300F8E2
:10A32000013B636913B10A2300F8013B002303706A
:10A33000A3682D684344A3608DE700BF67C1030095
:10A3400071D2030077D20300FFFFEF7F5FD20300DB
:10A3500066D203006AD2030002F8016B99E702217A
:10A360007FE703F8015BE268191A013A9142F8D3DA
:10A3700081E703460925F6E770B5234D8AB00E46FE
:10A3800024220021044601A80CF02DFE2B684FF476
:10A39000807098474FF48072034606960AAE01908B
:10A3A000029295E8070006E907007BB1204601A963
:10A3B000FFF70CFE50B101A80BF0E2FBAE68039969
:10A3C0005EB101980131B0470446D0B9019CC4B1D7
:10A3D00020466B689847002413E02B68481C984778
:10A3E00004460028F2D0039A029B01329A4228BF09
:10A3F0001A4601990CF0D7FD039BE6546B6801984F
:10A40000984720460AB070BDA445012030B50E4BD8
:10A410000E490F4A20B9C3E900120E4A9A6011E0B2
:10A420000568002D14BF2C460C4645681C60002DA5
:10A4300014BF2846104600258C4258609D6001D10B
:10A440009042EAD030BD00BFA44501208908030036
:10A45000990803002113030070B504460F4D04B999
:10A4600070BDE3682668D90503D4A06868B920697F
:10A4700088B9E3689B0503D4206A08B16B689847E4
:10A4800020466B6898473446E9E7FFF7E5FFE36845
:10A49000DA05ECD5EDE76B689847EAE7A4450120BB
:10A4A0002DE9F04305464FF0000989B0304F0C46C6
:10A4B000164600211C2201A898460CF094FDC7E91D
:10A4C0000099002D4AD0002C3DD02A4BCDE90154F3
:10A4D00093E8070008AB03E907000BF0B3FB044661
:10A4E000002830D0019828B1039BE3B9029B042BCC
:10A4F0000FD801A80BF02CFB01462046F3F7BCF95E
:10A50000F0B1B8F1000F10D156BB204609B0BDE83C
:10A51000F083032218490CF00BFF0028E9D1039BBC
:10A5200003330393E5E74846E4E701A80BF010FB8B
:10A53000DDE90223934203D2019AD35C002BE3D0DE
:10A540002046FFF789FFDDE902329A420DD303B1BD
:10A55000013B0EB1EA183260C7E900530024D4E78A
:10A56000019B039A13443360CFE71346F1E700BF22
:10A5700064720120A44501207CD2030038B50A4B47
:10A58000054618680BF05EFB044658B11023C36003
:10A590002846FFF7DBFC0546206118B92046FFF787
:10A5A0005BFF2C46204638BDA445012008B5044B6E
:10A5B00018680BF047FB08B14023C36008BD00BF1B
:10A5C000A44501200348044B0360044B4360FFF79C
:10A5D0001DBF00BF6C720120CF5C0300D35C030081
:10A5E000014B024A1A607047B04501200090D00329
:10A5F00070B501250268B2FA82F3C3F11F035E1C35
:10A60000DCB210D005FA03F322EA0303D0E8EF6FBF
:10A61000964204D1C0E8EC3FBCF1000FF6D1E9D17D
:10A6200002480C7070BD0248FCE700BF0000AD0B93
:10A630000200AD0B036810B5CB40DB0711D401233A
:10A6400003FA01F1036841EA0302D0E8EF4F9C42AC
:10A6500004D1C0E8EC2FBCF1000FF6D1F2D10248D2
:10A6600010BD0248FCE700BF0000AD0B0400AD0BBD
:10A67000F7B5044668B101282ED02C492C48D822C1
:10A6800008F0B9FFD821294803B0BDE8F04008F030
:10A69000ABBF0222274BC3F80823C3F80401D3F849
:10A6A00004210122DA6001239C4218BF002542F2F6
:10A6B0001077204E8DF8073008BF0DF10705ACB1BB
:10A6C000012C29D01C491A484FF44F7208F093FF0F
:10A6D0004FF44F711848D7E70022164BC3F8080310
:10A6E000C3F80021D3F800215860DCE725B1D6F883
:10A6F000183403F003032B70D6F81834DB0309D5A4
:10A700001DB19DF80730012B04D101200BF0E6FAB2
:10A71000013FD4D103B0F0BD25B1D6F80C3403F01D
:10A7200001032B70D6F80C34E8E700BF80D2030099
:10A730008A93030000500040BDD2030010B50446C8
:10A7400050B90A490A4840F2151208F054FF40F285
:10A750001511064808F048FF064B1A7922B9012264
:10A7600005481C601A7110BD0448FCE780D2030044
:10A770008A930300747201200000AD0B0C00AD0B36
:10A7800008B50D4B1B7953B90C490D484FF497721E
:10A7900008F031FF4FF49771084808F025FF0520B5
:10A7A000F6F7A0FF10B90520F6F78CFF0122054B44
:10A7B000C3F8182508BD00BF7472012080D20300C1
:10A7C0008A930300005000402C4B10B51B790446BF
:10A7D00053B92B492B484FF4B47208F00CFF4FF4D7
:10A7E000B471274808F000FF74B1012C3BD0244914
:10A7F00024484FF4D37208F0FEFEBDE810404FF439
:10A80000D3711F4808F0F0BE1F4AD2F81834D2F8AE
:10A810001814C90312D4D2F81434DB0718D4012356
:10A82000194AC2F818350023C2F80431D2F80431AD
:10A830000223C2F804330123936010BD03F0030325
:10A84000022BEDD0012BEBD00020FFF711FFE6E744
:10A85000D2F81C3403F00303013B012BF4D802238C
:10A86000C2F80433E9E70022074BC3F80021D3F80C
:10A870000021C3F804431C60DFE700BF74720120AD
:10A8800080D203008A930300005000400A4B10B5A9
:10A890001B79044653B90949094840F2AD1208F042
:10A8A000AAFE40F2AD11054808F09EFE2046BDE824
:10A8B0001040FFF7DDBE00BF7472012080D203009C
:10A8C0008A930300174B10B5D3F8002152B1002032
:10A8D000C3F80001D3F800210122C3F80823124B6A
:10A8E0001B6898470F4BD3F804218AB10022C3F8A4
:10A8F0000421D3F80421D3F81824D3F8181402F053
:10A900000302012A4FF0020103D1C3F818159A601F
:10A9100010BDC3F80813044B0120BDE810401B68AC
:10A92000184700BF005000407472012001460148E2
:10A93000FFF75EBEB4450120034B083033F810002A
:10A94000C0F34010704700BFB8450120044B0830E9
:10A9500033F8100010F01C0018BF0120704700BF32
:10A96000B8450120034B083033F81000C0F3400015
:10A97000704700BFB845012070B50D4C00F10803C9
:10A9800034F813300546DA050E4607D5C3F34323E2
:10A9900004EBC302526854F833309847A3682BB1D4
:10A9A00031462846E268BDE87040184770BD00BFD8
:10A9B000B8450120194A083032F8103010B5D905D1
:10A9C0001DD5C3F3432123F4F85322F8103000209F
:10A9D00002F1100434F8023B13F4807F03D0C3F378
:10A9E000432399420BD001302028F3D100230C4897
:10A9F00042F83130FFF71EFE0A4B984200D110BDDD
:10AA000009490A484FF4997208F0F5FDBDE8104075
:10AA10004FF49971044808F0E7BD00BFB845012024
:10AA20000C4601200000AD0BF1D203008A93030015
:10AA300038B50246FFF780FF0B4C02F1080560B104
:10AA4000002134F815305B0B9B0003F1804303F5C4
:10AA50004433C3F81015C3F810151046FFF7AAFFCA
:10AA6000002324F8153038BDB845012010B5044640
:10AA700000680BF035F950B90E490F4840F2292211
:10AA800008F0B9FD40F229210A4808F0ADFD23681D
:10AA900003F01F025B0922600AD00649064840F213
:10AAA0002E2208F0A8FD40F22E21024808F09CFD5D
:10AAB000024810BDB19D03008A9303000025844025
:10AAC000F0B5044617461D4685B0F1B10BF014F9F8
:10AAD00010B14D4805B0F0BD0B46CDE900008DF832
:10AAE0000E008DF80F000DF10F020DF10E01204642
:10AAF0000BF011F9454A04F1080132F8113023F046
:10AB0000020343F0010322F8113097B120463E784A
:10AB10007A68FFF727FF80B1002ADAD13B4A04F1B7
:10AB2000080132F8113023F01C0343EA860622F8AC
:10AB30001160002D3ED13648CCE7344804F10807B7
:10AB400030F8171021F02001C904C90C20F81710A3
:10AB5000002AE3D0032EBCD892F800C062469200CF
:10AB600002F1804202F5443226B9C2F81065C2F8FB
:10AB70001065D3E7D2F8103541EA4C3123F00303D6
:10AB8000C2F81035D2F8103541F0200123F44733D4
:10AB900023F44073C2F81035D2F810E5230203F411
:10ABA000F8534EEA064E43EA0E03C2F8103520F879
:10ABB0001710B3E72046D5E90067FFF7FBFE002E2C
:10ABC000B9D0124D2B689E4204D16B689F4201D1CF
:10ABD00000220AE00F480DF10F01FFF709FD0C4BB1
:10ABE00098427FF477AF9DF80F2005EBC20308343D
:10ABF0005F6035F8143045F8326043EA422343F48D
:10AC0000807325F8143096E70400AD0BB845012099
:10AC10000000AD0B0C460120F0B50446154685B08A
:10AC200021B3FFF79FFE20B92046FFF785FE0028DD
:10AC300061D12046FFF78AFE10B14B78012B5AD024
:10AC400001238DF80F3000234A1CCDE90013204664
:10AC50008B1C0DF10F010BF05EF8284A04F108017E
:10AC600032F8113043F0030322F8113015B92448AB
:10AC700005B0F0BD2046FFF775FE00283BD095F8E3
:10AC800000C0002361461D4E04F1080736F8170086
:10AC9000890020F0200001F18041C00401F5443119
:10ACA000C00CC1F8103526F81700C1F810356A78C5
:10ACB000002ADCD0D1F81035AD7823F4981323F4B2
:10ACC000F853C1F81035D1F810E5230203F4F85316
:10ACD000120402F4403243EA0E0313432A0502F43D
:10ACE000801240EA4C30134340F02000C1F8103588
:10ACF00026F81700BBE70348BAE700BFB8450120B4
:10AD00000000AD0B0400AD0B014BC3E9020170471D
:10AD1000B845012038B504460D4651B90C490D48D7
:10AD200040F2352208F067FC40F23521084808F06F
:10AD30005BFC2046FFF700FE38B1074B083433F8C0
:10AD4000143006485B0B2B7038BD0548FCE700BF8C
:10AD5000F1D203008A930300B84501200000AD0B37
:10AD60000400AD0B38B50F4C94F85850BDB94022D3
:10AD7000294604F110000CF036F93120F6F7A2FC58
:10AD8000094B0A48C3F87C51D3F87C214FF00042AC
:10AD9000C3F80423012384F85830636538BD0448A0
:10ADA000FCE700BFB8450120001003400000AD0BD8
:10ADB0000500AD0B034B93F85800003818BF012075
:10ADC000704700BFB845012001460148FFF732BC7B
:10ADD0000846012001460148FFF70ABC0846012049
:10ADE000F7B504460D46FFF7B1FD50B92E492F487F
:10ADF00040F2DF3208F0FFFB40F2DF312A4808F072
:10AE0000F3FB2046FFF798FD294E04F1080718B31D
:10AE10002046FFF7A7FD0246F0B936F81700410BB0
:10AE200008460AF074FF00F1804303F544331A60CA
:10AE30001B688B0003F1804303F54433D3F81025DE
:10AE400042F00102C3F8102525B10123194A8B40B5
:10AE5000C2F8043303B0F0BD55B91349134840F2AA
:10AE6000EE3208F0C8FB40F2EE310F4808F0BCFBB0
:10AE700036F81730C3F38203042B11D0052B11D001
:10AE800001A80194FFF7F2FD019B0169D94001F08F
:10AE900001010231204603B0BDE8F0400AF086BF50
:10AEA0000321F7E70221F5E7F1D203008A930300BB
:10AEB000B84501200010034008B50246FFF73CFDED
:10AEC000C8B11046FFF74EFDA8B90E4B083233F853
:10AED000123001225B0B9A400B499B0003F1804327
:10AEE000C1F8082303F54433D3F8102522F00302F8
:10AEF000C3F8102508BD0021BDE8084010460AF03F
:10AF000055BF00BFB8450120001003400D4B00F1B4
:10AF1000080233F8123013B5DB07044610D5FFF7EB
:10AF2000CBFF2046FFF784FD01A80194FFF79EFDAB
:10AF30000222019B803340F82320034802B010BD59
:10AF40000248FBE7B84501200000AD0B0400AD0B43
:10AF50002DE9F04F002601223446534B5348544903
:10AF600085B01D6835B1D0F8045315421EBF1C6072
:10AF70001D68164304338B424FEA4202F1D1DFF8D9
:10AF80002C81D8F87C3183B14A4F3B6A02933B62F3
:10AF90004FF00109029C54B9C8F87C41D8F87C31C3
:10AFA0003B6A02933B62002BF2D1012476E094FAD3
:10AFB000A4F4B4FA84F4404A04F1080332F81330DC
:10AFC000E5089A08C3F3820B04F0070102AB09FA03
:10AFD00001F0595D019221EA0001595503A803943B
:10AFE000FFF744FD0399019A803150F8215053072F
:10AFF000DA46C5F3014521D559462046FFF7BCFC8A
:10B0000003A80394FFF732FD039BEDB2803350F8A1
:10B010002330C3F301439D4207D1002120460AF0AB
:10B02000C5FE294620460AF0C1FE03A80394FFF797
:10B030001DFD039B09FA03F30362ABE7022D0CBF6E
:10B040000321022120460AF0B1FEBBF1030F04D018
:10B05000022D07D1BBF1010FE7D151462046FFF782
:10B060008BFCE2E7032DE0D1BBF1020FF4E796FA87
:10B07000A6F3B3FA83F304FA03F29B0003F18043CF
:10B0800003F54433D3F81005D3F81015C0F30420AA
:10B09000C1F3014126EA0206FFF76EFC002EE6D15D
:10B0A00005B0BDE8F08F00BF001103400010034061
:10B0B0002011034000258440B845012070B5164694
:10B0C0000D4641B90B490C48342208F094FA34215A
:10B0D000084808F089FA094C237943B92A20F6F781
:10B0E000F1FA0123064823712560A66070BD05486A
:10B0F000FCE700BF2FD303008A9303007C7201207A
:10B100000000AD0B0C00AD0B38B5044640B9194931
:10B110001948462208F06FFA4621164808F064FAEA
:10B12000164B1B79012B08D012491348472208F00F
:10B1300062FA47210F4808F057FA0023104A54F8E2
:10B14000230003F5A2710133082B42F82100F6D148
:10B1500000230B4A04F1200103F5B27051F8045B9F
:10B160000133082B42F82050F6D1236CC2F8043387
:10B1700038BD00BF2FD303008A9303007C720120E7
:10B1800000A0024010B51A4C2379012B08D01949B0
:10B190001948592208F02FFA5921164808F024FAC4
:10B1A00000234FF0FF31154AC2F81035C2F81435AC
:10B1B000C2F81835C2F81C35C2F82035C2F824355B
:10B1C000C2F82835C2F82C35C2F89035C2F894354B
:10B1D000C2F89835C2F89C35C2F8A035C2F8A4353B
:10B1E000C2F8A835C2F8AC35C2F80813237110BDF7
:10B1F0007C7201202FD303008A93030000A0024039
:10B2000010B50A4B04461B79012B08D008490948A0
:10B210006C2208F0F0F96C21054808F0E5F90123EB
:10B2200003FA04F4044BC3F8044310BD7C720120FC
:10B230002FD303008A93030000A0024010B50A4BED
:10B2400004461B79012B08D008490948722208F0EE
:10B25000D2F97221054808F0C7F9012303FA04F472
:10B26000044BC3F8084310BD7C7201202FD30300A8
:10B270008A93030000A00240164B2DE9F047D3F853
:10B280000C634FF001083546134FDFF8509035B985
:10B29000134B3046BDE8F0471A689968104795FA95
:10B2A000A5F4B4FA84F408FA04F3072C25EA03059C
:10B2B0000ADD3946484640F2E71208F09CF940F2B0
:10B2C000E711384608F090F90022064BA4001A5105
:10B2D000DDE700BF00A002406AD303008A930300A9
:10B2E0007C72012000A10240044AD2F80834DB0736
:10B2F000FBD50160BFF35F8F704700BF0090034034
:10B30000B0F5801F10B504460AD3104910484FF419
:10B31000837208F070F94FF483710C4808F064F9F7
:10B32000C4F30B037BB902220A4BC3F884254FF008
:10B33000FF322260D3F80024D207FBD50022064852
:10B34000C3F8842510BD0548FCE700BF9CD303006B
:10B350008A930300009003400000AD0B0A00AD0B80
:10B36000B0F5801F70B504460D460AD31149124846
:10B370004FF4CA7208F03FF94FF4CA710D4808F053
:10B3800033F9A3070AD00B490B4840F2951208F095
:10B3900032F940F29511074808F026F90123074ECB
:10B3A0002946C6F884352046FFF79EFF0023C6F8DD
:10B3B000843570BD9CD303008A9303000090034042
:10B3C0002DE9F04180460546042458F8087B0C4ED0
:10B3D000FFB23378BB4209D0013C06F10C06F8D12C
:10B3E000A86808B10AF03EFD204606E029684046FC
:10B3F0007368090C98470228EED0BDE8F08100BFC1
:10B400009C8803002DE9F84F03780546622B45D050
:10B41000632B48D0612B40F08380424B1988424B0C
:10B4200089B22869D5F80C80AA68A0EB0807A2EBBE
:10B430000802BFB211FA82F2B2FBF7F11B6807FBF8
:10B440001122A3EB08039BB29B1A3B4493FBF7F139
:10B4500007FB11331FFA83F912FA83F39F429044DA
:10B46000BFBFA0EB080080B2A9EB00048146ACBFCF
:10B470000024A4B2B9F1000F52D00520F8F7BAFEAB
:10B48000074600284CD09CB10520F8F7B3FE0646CD
:10B4900070B93846BDE8F84FF8F7B4BE234B1988A9
:10B4A000234B89B2BDE7234B1988234B89B2B8E7F8
:10B4B0002A78622A30D0632A30D0612A07D119490C
:10B4C0000B8809EB040010FA83F39BB20B806FF03A
:10B4D000100B6FF0410A0521384687F800B087F855
:10B4E00001A03A71A7F8029009F0B6FD494640461E
:10B4F00009F0B2FDA4B186F800B086F801A02B785F
:10B50000052130463371748009F0A6FD2146E868B4
:10B51000BDE8F84F09F0A0BD0449D1E70549CFE7E0
:10B52000BDE8F88FA673012090720120A27301205C
:10B5300088720120A47301208C7201200023044A28
:10B540001380044A1380044A1380044B1860704728
:10B55000A6730120A2730120A4730120A072012010
:10B5600008B5104B1B780BB9F8F718FE0E4B18688E
:10B57000426883689A4201D0FFF744FF0B4B18687A
:10B58000826843689A4201D0FFF73CFF084B186875
:10B59000826843689A4203D0BDE80840FFF732BF93
:10B5A00008BD00BF27A101209C72012094720120D8
:10B5B000987201202DE9F74F554B1B681969D3F894
:10B5C00014B01A7C00221A74587C5A74987C9A74AD
:10B5D000D87CDA74187D1A75587D5A75987D9A75DD
:10B5E000D87DDA75002947D00139032944D8DFE82E
:10B5F00001F0027B6269474A117809B1002111709C
:10B6000000218E468A460846DBF80820424D01920A
:10B61000424A2E6812680092414AD2F800C0414A5C
:10B620001768414AD2F80090404AD2F80080019A47
:10B63000824224D1BAF1000F05D03B4AC2F80090F3
:10B640003A4AC2F80080BEF1000F04D0344AC2F872
:10B6500000C0344A176019B1304A00992E60116059
:10B660001A7A012100221972597A5A72997A9A72B9
:10B67000DA7A6FF05F02DA7203B0BDE8F08F821CF5
:10B680000BEB820252681478622C0AD0632C0DD026
:10B69000612C04D191464FF0010AD2F804800130A8
:10B6A000C5E794464FF0010E5768F8E75168164613
:10B6B00000910121F3E70121164A11701A7A032142
:10B6C0000022D0E7197A04211972597A5A72997AAC
:10B6D0009A72D97A6FF05F01D9720E4B1A7003B06B
:10B6E000BDE8F04FFFF73CBF0F4B1B685A680F4B8C
:10B6F0001A600B4B1B685A680A4B1A60064B1B6892
:10B700005A68064B1A6003B0BDE8F04FF8F73EBD2B
:10B71000A072012027A10120987201208C720120C3
:10B7200094720120887201209C7201209072012085
:10B73000014B1878704700BF27A1012070B516464D
:10B7400000240368A34201D100231CE000EBC402E3
:10B750005568EDB2032D18D101EB84139360516845
:10B7600021F0FF0151600C490888441C0C8051688D
:10B7700089B241EA004151601846402200210BF095
:10B7800032FC03464660184670BD15B99568002D19
:10B79000E2D00134D6E700BFAA7301202DE9F041C1
:10B7A00006460F460025DFF8748033689D4201D3BA
:10B7B000BDE8F08106EBC504A368FBB16368DBB2AA
:10B7C000012B1BD16268B8F80030B3EB124F15D1D2
:10B7D000022FA06814D1FFF7F3FD02280ED0012834
:10B7E00013D1636823F0FF0343F002036360B8F8EA
:10B7F00000300133A8F80030F8F7B8FC0135D4E781
:10B800000168090C0AF0EAFAE7E70028EFD163685B
:10B8100023F0FF0343F00303E8E700BFA873012010
:10B8200038B5044620060CD5FFF7C4FEFFF780FFAD
:10B8300038B1E022374B83F82A234FF480625A60F4
:10B8400038BDE10739D50322334B1A70334B344AE4
:10B85000D3F8140690422CD00CD8023A904220D053
:10B860000132904221D0D3F81816C0F30B0001F03A
:10B87000E1FD12E02B4A90420AD8B0F1886F0AD855
:10B88000294A9042EFD16FF00402284B1A6004E07D
:10B89000274A9042E7D1254B1860BDE83840F8F7B9
:10B8A00085BC6FF01502214BF0E76FF05E021F4B75
:10B8B000ECE76FF00B021D4BE8E714F0400503D0F6
:10B8C0000222154B1A70E8E7620704D5124B1A786A
:10B8D0003AB9F8F74BFCE306B2D5BDE83840F8F7C3
:10B8E00045BC1A78012AF6D1124A134812689168A9
:10B8F00041605268026021B11AB1096809B1126849
:10B9000032B96FF00401094A116003221A70E2E7AC
:10B910001D70E0E700E100E028A1012000A0024046
:10B92000220001000400400432300100A472012012
:10B9300001005005B0720120A872012008B50B4B20
:10B940001B68C01A0A4BC0F389101B6803EBC000C8
:10B95000436823F0FF0343F001034360032009F031
:10B9600059FB0122034BDA6008BD00BFBC72012005
:10B97000C072012000A0024008B50B4B1B68C01A22
:10B980000A4BC0F389101B6803EBC000436823F027
:10B99000FF0343F001034360032009F03BFB012256
:10B9A000034B5A6008BD00BFB4720120B872012079
:10B9B00000A00240054B1B7833B9054B02221968E1
:10B9C000044B1868FFF7BABE0020704729A1012078
:10B9D000BC720120C07201200A2373B50D4D0E4EBA
:10B9E0000193012229683068FFF7A8FE044638B9A0
:10B9F00009F012FB38B901A9F8F750FA6E30F0D10E
:10BA0000204602B070BD4FF47A70019B584309F094
:10BA100001FBE6E7B4720120B8720120034B1B78EA
:10BA20000BB9F8F7F5BB0020704700BF29A1012032
:10BA300010B5084CF8F7A2FB206810B10121FFF700
:10BA4000ADFE606820B1BDE810400221FFF7A6BE40
:10BA500010BD00BFA87201200023114930B50A684B
:10BA60001468A3420BD100234A6811688B4215D099
:10BA700002EBC304A468A04208D00133F6E702EB4E
:10BA8000C305AD68A84201D00133EAE702EBC30366
:10BA90005A6822F0FF0242F003025A6030BD00BF34
:10BAA000A872012010B50B4B04461B78032B10D055
:10BAB000FFF792FF68B1012100220170022184602A
:10BAC00042708170C270FFF757FFBDE81040F8F771
:10BAD0004DBB10BD28A101202DE9F04F002295B0EB
:10BAE000054657490079FFF7E9FA3822002103A8F3
:10BAF0000BF079FA0223049308230693202308937A
:10BB000001230B9304230D9310234FF0400C0F934C
:10BB10008023CDE911C3D52303A81393FFF7F4FACB
:10BB200028684268B2F59D6F40F085804169C3681E
:10BB30000B44C16903F59D630B44B3F5003F7AD80C
:10BB4000002100680BF04FFA2A681468D36904F1E9
:10BB5000600604F1A40704F1E80A04F53A7B04F155
:10BB60002009002B5CD004F140083649C1F8009050
:10BB70003BB192694046C8F80420C8F80030FFF78E
:10BB8000DDFC28680023026901216260426923709C
:10BB9000A2602D4AE66017602C4A276116600822D1
:10BBA000637084F8A420A170E370C4F81490C4F802
:10BBB00018807B70BB70FB700A2784F86020244AD1
:10BBC0007370C2F800B0234AB370C2F800A0224AD2
:10BBD000F370224DC2F81046C2F81436204C214AA8
:10BBE00021702B600293136113691F4E0293029B15
:10BBF0002378012B00D1AEB92378012B01BF6FF060
:10BC000073032B60032323702C68B4B9174B1C708B
:10BC1000174B1C80174B1C80204615B0BDE8F08FD9
:10BC20009846A2E7002001A90197F8F737F9019B90
:10BC30000A3B1E44DCE76FF01504FFF7A3FAEBE7BD
:10BC400021B80200B0720120C0720120B872012038
:10BC5000BC720120B472012000A00240A472012035
:10BC600028A1012000560040F049020029A101202E
:10BC7000AA730120A87301204FF44072002108B577
:10BC800008480BF0B0F900210822074B074819704B
:10BC9000044B013AC3E90001996003F16003F8D154
:10BCA00008BD00BF144601202AA101201EF1AD1BD2
:10BCB0000023602030B50D4A0D4C00FB03F18D5878
:10BCC000A5420ED14FF0FF3350185350094A037F5D
:10BCD000127862F3861303770223838780F83E305D
:10BCE00030BD0133082BE8D10020F9E714460120CC
:10BCF0001EF1AD1B2AA1012030B500226024064BA5
:10BD000004FB02F1CD58854201D1581830BD0132F3
:10BD1000082AF5D10020F9E71446012038B5FFF7CD
:10BD2000EBFF0446051D28460AF0F1F9A06B08B1A7
:10BD3000F8F75AFA5C22002128460BF054F9014B1F
:10BD4000236038BD1EF1AD1B021E18BF01220A4B35
:10BD500070B51A70602500220849094E05FB02F3F0
:10BD60005C580132B4421FBF5B181C7F60F386141D
:10BD70001C77082AF2D170BD2AA1012014460120A7
:10BD80001EF1AD1B0123034A1370034A10601846CD
:10BD9000704700BF2BA10120D4720120012202486C
:10BDA0001146F8F751B900BFC47201202DE9F74FD1
:10BDB00004460E4617461D4601F052FB40B90120CD
:10BDC000F8F72EF94FF0FF34204603B0BDE8F08FAE
:10BDD00054EA060300F07C8127B33B6823F4A053A8
:10BDE00023F00203002B40F07681786838B9B868F8
:10BDF00060B10AF01BF948B940F21314E4E70AF005
:10BE00000CF90028F3D14FF48774DDE7F86848B1E6
:10BE1000B9680AF01FF928B96B20F8F701F940F268
:10BE20001514D1E7AF4B4FF47A611868F8F764F94D
:10BE30008046002840F05281002E42D01FB33B685C
:10BE400003F4A053B3F5805F1DD13B68DB043CD500
:10BE50003A2130460BF057FA814620B1A248F1F75B
:10BE6000B1FB09EB00063046A0490BF0A8FA814669
:10BE700018B39E48F1F7A6FB0A220021484405F0BA
:10BE80004DFB064623E00A220021304605F062FC05
:10BE90004FF6FE73421E9A4200F21481030243EAF7
:10BEA0001020934B1880002FCFD14FF0FF36002287
:10BEB000904B1A6097B9012314E001460A223046DC
:10BEC000DDE78B4B1880002FEFD04FF0FF367868FE
:10BED0000028ECD00AF0B4FD864B1860BB68002B3C
:10BEE00008BF0123DFF810B2CBF80030002F49D093
:10BEF000FB68002B08BF0623DFF800A2CAF8003059
:10BF00000FB1D7F800807E4F2046C7F800800CB1F3
:10BF1000F1F758FB09F0B1FF8046002800F0D5800A
:10BF2000066144B106682046F1F74CFB2146024603
:10BF300030460BF038F86F4B42461B6847F20D0154
:10BF4000C8F81830DBF800300420C8F81C30DAF8E4
:10BF500000306C4EC8F820303B68C8F8143009F047
:10BF600092FF002333704FF0FF330193002001A9AB
:10BF7000F7F794FF044638B16E20F8F751F86FF4E4
:10BF80008A7421E70623B7E73378012BEED15E4BA5
:10BF90001B685869002840F0918020201E68F8F73F
:10BFA0001BF9286000B3D6F80880B8F1010F13D050
:10BFB000B8F1020F3AD04FF48774534B1B681868DE
:10BFC00008B109F06AFF504B186809F063FF454B50
:10BFD0001868F8F771F8F7E61020F8F7FDF88146D1
:10BFE00028B92868F8F700F940F20F14E5E71022A5
:10BFF0003F4902700988C0F804800181B169C160BD
:10C0000029680A613A68D5F8008012F0020252D01D
:10C01000F08A0130F8F7E0F82A68C8F8180090694B
:10C0200038BB2846F8F7E0F84846DBE72420F8F765
:10C03000D3F881460028D4D0242221460AF0D3FF29
:10C04000242289F800202A4AC9F80480128809F1BC
:10C050001001A9F8082006F1280006F1180252F88C
:10C0600004CB824241F804CBF9D124212A68116122
:10C07000C8E7B6F814C006F11801F28A61440AF064
:10C0800092FF00202968F28A89698854B068D5F83F
:10C0900000800AF0D6FC00232A68DBF80010C8F8FC
:10C0A00004009160DAF80010C2F81490D160396889
:10C0B000D361116081E7C8F81820E7E70AF003FDB3
:10C0C00004467AE74FF4897481E740F20F147EE763
:10C0D00040F2111478E640F2031475E64FF48174CF
:10C0E00072E600BFC4720120E6D30300D8D3030078
:10C0F000AC730120C8720120D8720120D0720120D7
:10C10000CC7201202BA10120D4720120F8B548F295
:10C110000F03994205460E460BD049F2040399429B
:10C120000AD048F20D03994217D1FFF72BFEC0B297
:10C13000F8BD09F0FAFFFAE70369032B06D8DFE838
:10C1400003F0020A02070020FFF7FEFD0020EFE7E0
:10C150000122714B1A700120F6E7B1F5104F8CBF28
:10C16000C0682869FFF7C8FD044628B92868002878
:10C17000ECD009F092FEE9E748F20C039E4223D886
:10C18000B6F5004FF2D9A6F50046013E0B2EEDD8CC
:10C1900001A353F826F000BF3BC2020057C20200C1
:10C1A0003BC202003BC202003BC202003BC2020093
:10C1B0003BC202003BC2020033C202006DC102005A
:10C1C0006DC102009BC2020049F202039E4268D088
:10C1D00022D848F281039E4200F0988049F2010380
:10C1E0009E42C3D11020F7F7F7FF0646002865D01E
:10C1F000102700213A460AF0F6FE2B6873606B6840
:10C2000033816B8A042B51D0BB4264D02046314627
:10C2100009F04AFE00208AE749F203039E4210D04B
:10C2200049F282039E42A1D10146284600F036FB26
:10C230007DE7037F43F00203237728460AF05DFC85
:10C2400075E7037F43F0020303772869692809D162
:10C250006823A3617AE7037FEE686FF382030377B5
:10C26000686918B100F0A8FBA0616FE7A0612046E3
:10C2700009F04BFE18B9237F43F0080323772046CB
:10C2800009F043FE00283FF461AF002E3FF45EAF9B
:10C290000021204600F018FB58E7037F6FF3451399
:10C2A000CAE7037F43F0200303774FE73846F7F7E9
:10C2B00093FFF06020B93046F7F796FF022036E78B
:10C2C000012307706A7C43602B7C43EA02230381CD
:10C2D0006B69C3609AE72420F7F77EFFF0600028BF
:10C2E000E9D02423037002236A7C43602B7C43EA59
:10C2F0000223038105F1140200F11003243552F8E2
:10C30000041BAA4243F8041BF9D17FE701462846E3
:10C3100000F0B4FA0BE700BF2CA1012008B5FFF72D
:10C32000ABFCFFF73BFD0022044B05481A700122CD
:10C33000BDE808401146F7F787BE00BF2CA10120D9
:10C34000DC7201202DE9F34107460C469046FFF7C9
:10C35000D3FC054640B90920F7F762FE4FF0FF34E1
:10C36000204602B0BDE8F08109F0DFFD08B17F2072
:10C37000F2E7284609F0D5FD064608B17820EBE73C
:10C380000CB90E20E8E74146204609F07DFE08B9C9
:10C390001620E1E72146284609F08AFE08B96A20FE
:10C3A000DAE7284609F0C9FDA8B16B69112B0BD05B
:10C3B000284609F0AAFD30B1324B186808F02EFE6D
:10C3C00008B91020C8E70126002009F056FD0246F2
:10C3D00018B96920C0E70646F6E714210023017268
:10C3E00061680761012943728372C3720ED002290A
:10C3F00014D02B7F47F2020143F004032B77042073
:10C40000D66009F040FDCEB17720A5E72189C3753C
:10C41000818204218175E3688361EAE72189C3751C
:10C420008182102163188175203400F1180153F8BE
:10C43000040BA34241F8040BF9D1DAE7284609F0CE
:10C44000DAFD0190284609F06CFD18B9AC696CB1B1
:10C45000204681E7002001A9F7F720FD0028F1D050
:10C4600010F10B0F0CBF74206E2075E7284609F001
:10C470004CFD00283FF474AF2846019900F024FADF
:10C4800004466DE7DC7201202DE9F74F0C9D8246D2
:10C49000894617461E46FFF72FFC044628B9092097
:10C4A000F7F7BEFD4FF0FF3496E036F0400301D0C1
:10C4B0005F20F5E7002D00F0DC8009F017FDB8B92A
:10C4C0002946204609F0F4FD08B96A20E8E7284625
:10C4D0000D9909F0D9FD08B91620E1E7204609F0C9
:10C4E0000AFD28B1204609F010FD08B17F20D7E7EA
:10C4F000204609F02AFD08B1A069D1E7204609F0DD
:10C500007AFD0090204609F018FD18BBC6F380188C
:10C51000204609F0EBFC40B1204609F0F6FC20B1C2
:10C52000B7F5006F28BF4FF40067204609F018FDEB
:10C5300018B1204609F009FD78B1384609F09DFC94
:10C540008346B8B96946F7F7A9FC80B9B8F1000F7E
:10C55000F3D005E04FF00108DAE7B8F1000F01D0A1
:10C560000B209DE76946F7F799FC0028DDD00AF01B
:10C57000F4FC95E7C0F810A0B9F1000F04D03A46DA
:10C58000494600680AF00FFD226B12B116430022E3
:10C590002263002D44D0204609F0A8FC00283FD19A
:10C5A00018228BF808206A688BF80900012A8BF89A
:10C5B0000A008BF80B00CBF8146011D0022A1BD0B4
:10C5C00047F20700594601AA00F002FA0346B0BB41
:10C5D0000198846909F05EFC204603B0BDE8F08F45
:10C5E0002A898BF81B00ABF8182004228BF81A203C
:10C5F000EA68CBF81C20E3E72A890BF11C01ABF8B1
:10C60000182010228BF81B008BF81A2005F120004F
:10C61000AA1852F804CB824241F804CBF9D1CFE7F3
:10C620000022042147F206008BF808108BF809203D
:10C630008BF80A208BF80B20CBF81460C2E76E2829
:10C640003FF42EAF0C2809DC0A280ADD0F4B1878BE
:10C6500048B1B8F1000F3FF468AF81E78C283FF490
:10C660001FAF18461CE76946F7F718FC0028F0D002
:10C670007DE709F040FC00283FF43AAF204609F07E
:10C6800054FC00287FF434AF792009E72CA1012065
:10C690002DE9F04385B08046894617461D460C9C1F
:10C6A000FFF72AFB28B90920F7F7BAFC4FF0FF344F
:10C6B0006DE015B90CB11620F6E7B9F58D7F2CD1D8
:10C6C0007B1E082B29D8DFE803F0050C131A21A7DD
:10C6D00028A7A7002246294605B0BDE8F0430AF086
:10C6E00091B82246294605B0BDE8F0430AF0A1B84A
:10C6F0002246294605B0BDE8F0430AF0ADB822460F
:10C70000294605B0BDE8F0430AF0B8B822462946EC
:10C7100005B0BDE8F0430AF0C0B8372F07DC312F71
:10C7200007DC022F78D0A7F114030C2B0AD96D2057
:10C73000BAE7A7F13303042B49D8DFE803F03B3F06
:10C7400042456D000C2BF2D801A252F823F000BF35
:10C7500085C7020097C702002FC702002FC702003B
:10C760002FC70200E9C702002FC702002FC702002F
:10C770002FC702002FC7020019C8020019C8020003
:10C7800019C8020000F1200354B904625C6020461D
:10C7900005B0BDE8F08300F128030CB98462F5E729
:10C7A000082C2246294628BF082218460AF0FBFB1F
:10C7B0000024ECE74FF080730363F9E74FF08063E8
:10C7C000FAE74FF00063F7E74FF08053F4E74FF0DC
:10C7D00000730363002340461A461946CDE900332F
:10C7E000FFF752FE0446D2E7002D3FF464AF224823
:10C7F000F0F7E8FE2049024628460AF0C4FB04464A
:10C8000088B91D48F0F7DEFE0A222146284404F0CC
:10C81000A1FF0424039003AD204609F02EFB064639
:10C8200028B9692040E70A2200212846EFE70823BB
:10C83000C0F810804FF00008037280F8098080F87B
:10C840000A8080F80B8048460AF01EF9706138466D
:10C8500000F0A6F822462946B06130680AF0A3FB32
:10C8600074604246314647F2030000F0B1F80446D6
:10C8700000288CD018E700BFD8D3030010B540695A
:10C880000C4630B100F098F8034BA0611868F7F738
:10C8900013FC002010BD00BFDC72012010B5006940
:10C8A0000C4658B90B7F23F0180343F018030B779D
:10C8B000044B1868F7F700FC002010BD00F07CF86E
:10C8C000A061F5E7DC7201202DE9F341DFF8CC80AF
:10C8D0000646D8F800000191F7F70EFC074620B194
:10C8E0001023B3614FF0FF3754E0B06BA8B1F0F7FD
:10C8F00069FE451C284609F0C0FA044678B930465E
:10C9000009F01BFB08B16923B361D8F80000F7F701
:10C91000D3FB6920F7F784FBE4E73D46EAE7336899
:10C9200006F13C01036196F83F2014300132920079
:10C9300040F80C2C0AF037FBB5B1B16B20680AF057
:10C94000EFFC65600420224647F2810109F09BFA62
:10C95000304609F0F2FAE8B9304609F0EAFAB3696C
:10C96000B0B953B11846D5E725706570A570E5706C
:10C9700025716571A571E571E4E701A9F7F78EFAF4
:10C980000028E9D010F10B0F0CBF74206E20C1E716
:10C99000002BE7D1384602B0BDE8F081DC720120FF
:10C9A000023835289ABF034B53F820004FF0FF3070
:10C9B000704700BFCC8803006C289ABF024B53F825
:10C9C00020000248704700BFA4890300ADBAADBA89
:10C9D00073B51646AAB901AD00230A462B60CD6097
:10C9E00081B2042009F04FFA0C4C286858B1406914
:10C9F000FFF7E2FF044606B168B1286809F04AFA79
:10CA000009E01546E8E72146F7F748FA0028ECD098
:10CA10000AF0A3FA0446204602B070BD1449012072
:10CA200037B514466FF058020023027304220F4DED
:10CA300043738373C373027243728372C372024679
:10CA400089B203202B7009F01EFA4FF0FF330193D7
:10CA50002B78A34201D1002005E0002001A9F7F7BF
:10CA60001DFA0028F4D003B030BD00BF2DA1012075
:10CA7000F8B505460024104F57F8046B2846314698
:10CA80000AF09DFC28B90134042CF5D14FF4803014
:10CA90000EE0012CFAD0A31E012B0AD83046F0F785
:10CAA00091FD0A220021284404F038FD40EA0440A8
:10CAB000F8BD0020FCE700BF588B03002DE9F341CF
:10CAC00007460E461E48002190461D46019304F07D
:10CAD0004BFE013009F0D1F9044668B30195416875
:10CAE0002B464246006804F03FFE20460222012108
:10CAF000FFF796FF044670B9124D2C68216877B98C
:10CB00002068FFF7B5FF04462B68186809F0C5F9DF
:10CB1000286809F0BFF9204602B0BDE8F0816268DC
:10CB20003846B24228BF32460AF03DFA6368B34243
:10CB3000E6D96FF00604E7E76FF00B04EBE700BF00
:10CB400080820300F0720120012208B511460848D6
:10CB5000F7F77AFA002009F090F928B101220521AF
:10CB6000FFF75EFF002008BD6FF00B00FBE700BF82
:10CB7000E0720120014B186000207047EC72012028
:10CB80000FB437B5069C00F06BFCB8B1CCB10E4DBC
:10CB90004FF0FF312868F7F7AFFA0021224607ABC4
:10CBA00008460193FFF78AFF04462868F7F784FADE
:10CBB000204603B0BDE8304004B070474FF0FF346A
:10CBC000F6E76FF00D04F3E7E07201200CB42DE9F5
:10CBD000F3470A9F05460E4600F042FC002851D05C
:10CBE000002D52D0002F50D0002E51D0DFF8A89049
:10CBF000D9F80030FBB1DFF8A480D8F80030D3B109
:10CC00000024D9F800309C4215D2D8F800304FEA01
:10CC1000C40A53F83400F0F7D5FCD8F800300246C7
:10CC2000394653F834000AF083FBC8B9D8F800300D
:10CC300053445B68B3B9DFF868804FF0FF31D8F830
:10CC40000000F7F759FA0BAB3A46314628460193F4
:10CC5000FFF734FF0446D8F80000F7F72DFA0BE091
:10CC60000134CEE73A46314628469847041E03DB96
:10CC70002846FFF7FDFE0446204602B0BDE8F04717
:10CC800002B070474FF0FF34F6E76FF00D04F3E7A2
:10CC90006FF01504F0E700BFE8720120E472012094
:10CCA000E07201200EB4F3B5079F054600F0D8FBF3
:10CCB00000283BD0002D3CD0002F3AD01E4E4FF024
:10CCC000FF313068F7F718FA2846F0F77BFC01309F
:10CCD00009F0D3F8044630B3294600680AF020FB77
:10CCE000204602220121FFF79BFE044690B9134D16
:10CCF00008AA2B6839461868019204F067FD2B6872
:10CD0000041E186808BF6FF04C0409F0C6F82868C4
:10CD100009F0C0F83068F7F7CFF9204602B0BDE857
:10CD2000F04003B070476FF00B04F3E74FF0FF34AF
:10CD3000F3E76FF00D04F0E7E0720120F0720120DC
:10CD400070B5C3680546A72B03D0286809F0A5F87D
:10CD500008E0032908D0042919D0022902D10122B0
:10CD60000E4B1A7000200AE00D4E336843B10024C8
:10CD7000006898472868346009F08FF8E0B270BD09
:10CD80000222084B01241860044B1A70F6E7064B88
:10CD90001B68002BD9D000689847D6E72DA1012049
:10CDA000F4720120F0720120EC7201204FF0FF3389
:10CDB00013B501931A2303736FF01E0343736FF0CF
:10CDC0005403837315230329C37314BF0423082357
:10CDD000836000230A4C02460620237009F053F8B2
:10CDE0002378012B04D1074B1B681869404205E0EA
:10CDF000002001A9F7F752F80028F1D002B010BDC9
:10CE00002EA10120F872012038B5054600F028FB5C
:10CE100090B1A5B1002009F030F898B10921FFF7D1
:10CE2000C5FF0A4B044610B91A6852692A6018688F
:10CE300009F030F8204638BD4FF0FF34FAE76FF0C4
:10CE40000D04F7E76FF00B04F4E700BFF872012060
:10CE500038B5054600F004FB90B1A5B1002009F0FB
:10CE60000CF898B10221FFF7A1FF0A4B044610B954
:10CE70001A6852692A60186809F00CF8204638BD13
:10CE80004FF0FF34FAE76FF00D04F7E76FF00B0493
:10CE9000F4E700BFF872012038B5054600F0E0FA6B
:10CEA000C8B1DDB1002008F0E8FFD0B10121FFF7E3
:10CEB0007DFF0D49044648B90B6803F1140238336D
:10CEC00052F8040B9A4245F8040BF9D1086808F0AF
:10CED000E1FF204638BD4FF0FF34FAE76FF00D0454
:10CEE000F7E76FF00B04F4E7F872012037B500F0B4
:10CEF000B7FAD0B1114D2B78D3B901A8FFF784FF51
:10CF0000044678B908F0B9FFA8B1019A032102617B
:10CF1000FFF74CFF04460A4B186808F0BBFF0CB93A
:10CF200001232B70204603B030BD4FF0FF34F9E7EA
:10CF30006FF07704F6E76FF00B04F3E72FA1012001
:10CF4000F872012070B506460D4600F089FAB0B1BE
:10CF5000C6B1D5B1284608F090FF0446C0B12A46B4
:10CF6000314600680AF01FF820460421FFF71EFF33
:10CF7000094B0446186808F08DFF204670BD4FF03D
:10CF8000FF34FAE76FF00D04F7E76FF01504F4E7EC
:10CF90006FF00B04F1E700BFF872012010B500F04C
:10CFA0005FFA80B1002008F068FF78B10621FFF732
:10CFB000FDFE084B0446186808F06CFF0022064B83
:10CFC0001A70204610BD4FF0FF34FAE76FF00B04E3
:10CFD000F7E700BFF87201202FA1012010B500F083
:10CFE0003FFA68B1002008F048FF60B10521FFF763
:10CFF000DDFE064B0446186808F04CFF204610BDC5
:10D000004FF0FF34FAE76FF00B04F7E7F8720120F6
:10D0100010B500F025FA68B1002008F02EFF60B1CD
:10D020000821FFF7C3FE064B0446186808F032FFDC
:10D03000204610BD4FF0FF34FAE76FF00B04F7E71E
:10D04000F872012010B50446006808B108F025FF09
:10D05000054BE2689A4205BF0120044B002018707E
:10D0600004BF034B1C6010BD1AE1AB152EA10120BB
:10D07000F87201202DE9F041046807460D46002CA6
:10D0800000F0868001F47043B3F5005F42D1DFF811
:10D090007C8198F80030012B31D15D4B22681B88D0
:10D0A000B3EB124F2BD163686BBB5A4B1E681EB398
:10D0B00042F2090399421FD130462389802240F869
:10D0C000043B04F10A0109F06EFF802204F18A0199
:10D0D00006F1840009F067FFD4F80A31C6F804317C
:10D0E000D4F80E31C6F80831D4F81231C6F80C3134
:10D0F000D4F81631C6F81031002388F800303868AB
:10D1000008F0CBFE44E047F6FF7293420CBF0323C6
:10D110000223F2E7404E3368002BF0D044F20402C1
:10D1200091420BD8B1F5804FE9D9A1F58042023A7E
:10D13000022A0BD8DFE802F0454F590044F20113F0
:10D14000994203D044F201239942D8D1334F386831
:10D1500008B108F0A2FE44F201239D42304B1AD1DF
:10D1600002223C6094F851401A702E4D14F01807BA
:10D1700033682A781FD01AB90520984701232B70ED
:10D18000E30702D5022033689847012033689847A7
:10D190000020BDE8F08144F2011295420BBF01224C
:10D1A00000223C603C600BBF94F8414094F83D4045
:10D1B0001A701A70D9E7002AE2D0062098472F701B
:10D1C000DEE7194C206808B108F067FE3B680320D1
:10D1D00023603368DBE7154C206808B108F05DFE7A
:10D1E0003B68042023603368D1E72278032A86D87D
:10D1F000DFE802F002050709072098477FE70820CB
:10D20000FBE70920F9E70A20F7E700BF32A1012078
:10D21000AE7301200C730120FC7201200073012009
:10D2200031A1012030A101200873012004730120E5
:10D2300010B50446044B1868F6F73EFFE30742BFFB
:10D240000122024B1A7010BD1073012033A101207E
:10D2500008B5084B4FF4FA611868F6F74DFF30B97E
:10D26000054B1B78012B08BF6FF0040008BD6FF061
:10D270007300FBE71073012033A10120002200237B
:10D28000F0B52D4D2D4FC5E90223C5E904234FF418
:10D2900000522B4B00241A6000F11C033B6043F04A
:10D2A000807343601C230372202301266FF07F02EA
:10D2B0004372244B04704470C2708472C4728670CE
:10D2C00040F080702C70C3F81006C3F814461E4B53
:10D2D00093B0224620461D491C70FDF7EFFE214603
:10D2E000402201A809F07FFE0223029304230B933E
:10D2F000052301A811930996FDF706FF2146324642
:10D3000013483F68F6F7A0FE124B00941C611B699E
:10D310000093009BFFF79CFF044630B103232B7062
:10D32000FDF730FF204613B0F0BD3A680A4B9A4231
:10D33000F8D06FF00404F3E7586A01201473012059
:10D340001873012000A0024033A1012031D2020055
:10D350001073012000560040010000A537B50125DB
:10D36000074C4FF4FA70656107F054FE00236361C7
:10D370000193256123690193019B03B030BD00BF78
:10D380000056004037B504460D4600F071F80028FD
:10D390003BD0002C3CD0606A00283CD000F044F820
:10D3A000EDB9F6F743FF012000F054F8236A684610
:10D3B00000948DF80430FEF78FFB044638B9FFF770
:10D3C000C3FB044618B9FEF7A9FF0446C8B1002004
:10D3D00000F040F8FFF7C2FF204603B030BDE2681E
:10D3E0006368134462691344E269134442F21B0206
:10D3F000934213D9022000F02DF82068FFF73EFF7A
:10D40000E3E7084B00241D70E6E74FF0FF34E3E745
:10D410006FF00D04E0E76FF01504DDE76FF00B042B
:10D42000DAE700BF34A10120014B1860704700BF4C
:10D430001C73012037B50C460546032000F00AF89E
:10D44000034B6846CDE900541B68984703B030BDD4
:10D450001C730120014B1870704700BF35A10120DB
:10D46000024B1878431E58425841704735A101209D
:10D47000024B1878B0FA80F04009704735A10120BE
:10D480000E4B70B553F82040013053F82060A6428F
:10D4900000D870BDD4E900352846984765B1EB68DF
:10D4A00030B10028B8BF4042FF28A8BFFF20187045
:10D4B0005A7842F001025A700834E8E7688B03009A
:10D4C00070B5054610B90024204670BD0378002BC6
:10D4D000F9D00E4C0E4EB44208D10C4CB442F2D0EE
:10D4E000204609F013FB50B91834F7E7204609F03D
:10D4F0000DFB10B12368AB42E6D01834EBE72846A9
:10D500002168F0F755F80028EED1DDE78C7E0300A6
:10D510001C7F0300014B9868643070472073012022
:10D52000F7B504460E464FF02003EFF3118783F35F
:10D530001288BFF36F8F02F0A1F90022042C98BF6C
:10D540001D4B054694BF53F824301C4B00924521D7
:10D5500022461B4806F089F83EB1F369C3F308037D
:10D560001BB14521174806F080F835B1284609F06F
:10D57000F6FA034608B1027802B9134B2A46452150
:10D58000124806F072F831462046F9F72DFA042CBD
:10D5900008D10F490F488F2206F02DF88F210C4833
:10D5A00006F022F887F31188BFF36F8F284603B087
:10D5B000BDE8F040F4F764BC808B0300F4D30300B3
:10D5C0000AD4030037D4030002D403005DD403005F
:10D5D0007AD403008A930300012208B5094B022084
:10D5E0001A70FFF74DFF02F0F3FF0320FFF748FF2B
:10D5F00000F072FAF2F738F9034A137B23F00103C3
:10D60000137308BD36A10120F86A012008B503484C
:10D61000034A0021121A09F083FA08BD804E012046
:10D6200038A10120882370B5134E012203FB006648
:10D63000002386B0CDE904230F220193CDE9023205
:10D6400018234FF4A0720D4D0D4903FB00550446FD
:10D6500002FB00110B4B3046009500F0A1F9737BE3
:10D6600009482C75013423F0040300EBC4247373C0
:10D67000EE606C6006B070BD706A012020730120FE
:10D6800068CB012019DC0200A8CC012080B52E4B0C
:10D69000A8B003F5006282F3088883F30A880024A7
:10D6A000E0232A4D2A4E85F82230EC772C766C76D2
:10D6B000AC7685F820406B6A264F43F4E0236B621A
:10D6C00085F82340F4F742FBF3F7B0FF4FF0FF3348
:10D6D000AB62EB62F4F7A8FDF4F7E8FB40F201134C
:10D6E00006AD2846ADF82430CDE9204402F052FFC3
:10D6F000B56009F00AFA2046FFF7C2FE0120164D78
:10D70000FFF7BEFE01F070FF144BF5610593012396
:10D7100013494FF48052CDE9034328463B46CDE9F7
:10D720000144009400F03CF906466A7B284622F04A
:10D7300004026A7301F018FC2046FFF773FF3A46B3
:10D7400031462846F4F7AAF8A8CC012000ED00E005
:10D7500020730120D9D50200F86A0120E6D4030025
:10D7600068BB012070B50C4C0C4D0D4EAC4208D975
:10D7700031460C48182205F03EFF1821304605F0CE
:10D7800033FFAC4201D3002070BD2046D4E9011222
:10D7900009F0CAF91834E9E7D44C0120344D0120CE
:10D7A000EED403008A9303002DE9F04F85B0DDE944
:10D7B0000E9706468B4648463946904609F0A2FA2F
:10D7C00006F11405CDE902014FF02003EFF31184B7
:10D7D00083F31288BFF36F8F284600F0F9F940B940
:10D7E000324933488E2205F006FF8E212F4805F07E
:10D7F000FBFE284600F008FAEFF305835BB159EA17
:10D80000070308D02B492A48492205F0F4FE492194
:10D81000284805F0E9FEDFF8949006F10C0A42462C
:10D8200059463046F2F7E0FC074602F079FBA7B113
:10D83000284600F0DBF940B91C491D48B92205F023
:10D84000DAFEB921194805F0CFFE84F31188BFF341
:10D850006F8F384605B0BDE8F08F029B181A039B06
:10D8600063EB0101012871F10003E1DBCDE9000167
:10D8700052462146284601F01DFD4FF02003EFF3EC
:10D88000118483F31288BFF36F8F284600F0A0F94C
:10D8900040B9494606488E2205F0ADFE8E21484625
:10D8A00005F0A2FE284600F0AFF9B8E7C4930300E4
:10D8B0008A930300EED40300F8B504460E4600F147
:10D8C00014054FF02003EFF3118783F31288BFF3A1
:10D8D0006F8F284600F07CF940B9164916488E2211
:10D8E00005F089FE8E21134805F07EFE284600F0E3
:10D8F0008BF920463146F2F73FFC04F10C0009F0A9
:10D90000E7F928B139462846BDE8F84001F0FCB8EF
:10D91000284600F06BF940B906490748B92205F0DE
:10D920006AFEB921034805F05FFE87F31188BFF353
:10D930006F8FF8BDC49303008A930300F8B5144CAD
:10D94000144D154EAC4208D9314614483D2205F01D
:10D9500052FE3D21304605F047FEAC4201D3002087
:10D96000F8BDD4E9041242EA010313F003030BD11A
:10D97000E068A361834201D12034E3E7A769013362
:10D980001760A2610A44F5E76FF01500E8E700BFF1
:10D99000D44C0120D44C012010D503008A930300FD
:10D9A0002DE9F04385B0DDF83C900446B9F10F0F46
:10D9B0000F46154698462ED11F4B98452FD104F19E
:10D9C0005803C4E91633109B0026237304236373A2
:10D9D0000E9BE81D02930D9B20F0070001930C9B0A
:10D9E0003D18C4E91A7000932A464346394620463A
:10D9F000C4E90666A66084F80E90E6732667F3F71E
:10DA00002DFF0E4B66659B6803B15B6F284663670D
:10DA100005B0BDE8F08309F110031E2BCFD940F209
:10DA2000FF120749074805F0E6FD40F2FF110448E0
:10DA300005F0DAFDC3E700BF19DC02002073012006
:10DA400035D503008A9303002DE9F04387B00446DF
:10DA5000DDE914650F4690469946EFF3058353B10F
:10DA60001A491B4840F26E2205F0C5FD40F26E21B6
:10DA7000164805F0B9FD00230593129B4246049316
:10DA8000119B39460393109B204602930F9B0193F1
:10DA90000E9B00934B46FFF783FFB5F1FF3F08BF96
:10DAA000B6F1FF3F05D055EA060306D1204601F046
:10DAB00091FA204607B0BDE8F08332462B4605496F
:10DAC00004F1180002F030F8F3E700BF35D5030089
:10DAD0008A930300DDF002002DE9F043374C384D06
:10DAE000384F87B0AC4226460AD93946364840F20C
:10DAF000D52205F080FD40F2D521384605F074FDB1
:10DB0000AE4204F130041BD301F034F82B4C2D4EFF
:10DB1000DFF8B480DFF8B490AC420AD93146404611
:10DB20004FF43D7205F067FD4FF43D71304605F04E
:10DB30005BFDAC4220D307B0BDE8F04301F0BABCB6
:10DB400054F8043C54E90C01059354F8103C049338
:10DB500054F8143C039354F8183C029354F81C3CBA
:10DB6000019354F8203C009354E90A23FFF718FF6F
:10DB700054F8303C5E65B5E7636A5A1C0FD04FF429
:10DB8000004240F2E730002123EAE373C3FB0201C5
:10DB900051EAC333276804D1384601F01BFA303408
:10DBA000BAE74FF47A720023EFF740FB02460B46C8
:10DBB00007F11800494601F0B7FFF0E7744C012067
:10DBC000D44C012035D503008A930300DDF0020018
:10DBD000006838B1044B00F003001B7DC01A18BF69
:10DBE000012070470120704720730120054903463A
:10DBF0008A68087D196802430020914204BF1860BA
:10DC00000120704720730120024A117D93680B4365
:10DC10000360704720730120124C08B5A36893F984
:10DC20000E30002B08DA10491048272205F0E3FCDB
:10DC300027210D4805F0D8FC0D4D4FF02002EFF3E1
:10DC4000118382F31288BFF36F8F02F057F82B789D
:10DC5000A06113B9F3F7F0FCEFE7F3F715FC002828
:10DC6000EBD1F7E72073012058D503008A93030016
:10DC700036A101202DE9F341044617461E46EFF375
:10DC8000058343B15F496048652205F0B4FC652116
:10DC90005C4805F0A9FC4FF02003EFF3118883F3F3
:10DCA0001288BFF36F8F5948FFF792FF40B9584968
:10DCB00055488E2205F09FFC8E21554805F094FCB6
:10DCC0005248FFF7A1FFE368524AD3B1A0689168B8
:10DCD000884233D057EA060332D14C48FFF786FF1B
:10DCE00040B94B494848B92205F085FCB92148485C
:10DCF00005F07AFC88F31188BFF36F8F6FF00F0087
:10DD000019E0916891F90E100133E36093683F4880
:10DD10002161A360FFF76AFF40B93D493A48B92243
:10DD200005F069FCB9213A4805F05EFC88F31188DA
:10DD3000BFF36F8F002002B0BDE8F0812169E3E7F7
:10DD400091F90E1090F90E306FF07E029942A8BF43
:10DD500019469142B8BF11468B423EDD08F00AFFDA
:10DD6000054622464146CDE90076284801F0A2FA50
:10DD70000028E0D04FF02003EFF3118683F31288E0
:10DD8000BFF36F8F2148FFF723FF40B920491E489A
:10DD90008E2205F030FC8E211D4805F025FC1B4825
:10DDA000FFF732FF236821699C420AD04BB193F9F7
:10DDB0000E309942A8BF19466FF07E039942B8BF52
:10DDC0001946A06808F0D6FE00B945B131460F48A3
:10DDD00000F09AFE6FF00A00ADE70025C1E70B489E
:10DDE000FFF704FF40B90A490748B92205F003FCD0
:10DDF000B921074805F0F8FB86F31188BFF36F8F50
