
zephyr.elf:     file format elf32-littlearm


Disassembly of section rom_start:

0001c200 <_vector_table>:
   1c200:	68 cb 01 20 91 1d 02 00 d1 3a 03 00 65 1d 02 00     h.. .....:..e...
   1c210:	65 1d 02 00 65 1d 02 00 65 1d 02 00 65 1d 02 00     e...e...e...e...
	...
   1c22c:	3d 18 02 00 65 1d 02 00 00 00 00 00 dd 17 02 00     =...e...........
   1c23c:	65 1d 02 00                                         e...

0001c240 <_irq_vector_table>:
   1c240:	c5 18 02 00 c5 18 02 00 c5 18 02 00 c5 18 02 00     ................
   1c250:	c5 18 02 00 c5 18 02 00 c5 18 02 00 c5 18 02 00     ................
   1c260:	c5 18 02 00 c5 18 02 00 c5 18 02 00 c5 18 02 00     ................
   1c270:	c5 18 02 00 c5 18 02 00 c5 18 02 00 c5 18 02 00     ................
   1c280:	c5 18 02 00 c5 18 02 00 c5 18 02 00 c5 18 02 00     ................
   1c290:	c5 18 02 00 c5 18 02 00 c5 18 02 00 c5 18 02 00     ................
   1c2a0:	c5 18 02 00 c5 18 02 00 c5 18 02 00 c5 18 02 00     ................
   1c2b0:	21 50 03 00 c5 18 02 00 c5 18 02 00 c5 18 02 00     !P..............
   1c2c0:	c5 18 02 00 c5 18 02 00 c5 18 02 00 c5 18 02 00     ................
   1c2d0:	c5 18 02 00 c5 18 02 00 c5 18 02 00 c5 18 02 00     ................
   1c2e0:	c5 18 02 00 c5 18 02 00 c5 18 02 00 c5 18 02 00     ................
   1c2f0:	c5 18 02 00 c5 18 02 00 c5 18 02 00 c5 18 02 00     ................
   1c300:	c5 18 02 00 c5 18 02 00 c5 18 02 00 c5 18 02 00     ................
   1c310:	c5 18 02 00 c5 18 02 00 c5 18 02 00 c5 18 02 00     ................
   1c320:	c5 18 02 00 c5 18 02 00 c5 18 02 00 c5 18 02 00     ................
   1c330:	c5 18 02 00 c5 18 02 00 c5 18 02 00 c5 18 02 00     ................
   1c340:	c5 18 02 00                                         ....

0001c344 <_vector_end>:
	...

0001c400 <m_firmware_info>:
   1c400:	de e6 1e 28 4c bb ce 8f 02 5b 00 00 3c 00 00 00     ...(L....[..<...
   1c410:	c4 21 02 00 01 00 00 00 00 c2 01 00 00 c2 01 00     .!..............
   1c420:	ff ff 02 91 00 00 00 00 00 00 00 00 00 00 00 00     ................
	...

Disassembly of section text:

0001c440 <__aeabi_fmul>:
   1c440:	f04f 0cff 	mov.w	ip, #255	; 0xff
   1c444:	ea1c 52d0 	ands.w	r2, ip, r0, lsr #23
   1c448:	bf1e      	ittt	ne
   1c44a:	ea1c 53d1 	andsne.w	r3, ip, r1, lsr #23
   1c44e:	ea92 0f0c 	teqne	r2, ip
   1c452:	ea93 0f0c 	teqne	r3, ip
   1c456:	d06f      	beq.n	1c538 <__aeabi_fmul+0xf8>
   1c458:	441a      	add	r2, r3
   1c45a:	ea80 0c01 	eor.w	ip, r0, r1
   1c45e:	0240      	lsls	r0, r0, #9
   1c460:	bf18      	it	ne
   1c462:	ea5f 2141 	movsne.w	r1, r1, lsl #9
   1c466:	d01e      	beq.n	1c4a6 <__aeabi_fmul+0x66>
   1c468:	f04f 6300 	mov.w	r3, #134217728	; 0x8000000
   1c46c:	ea43 1050 	orr.w	r0, r3, r0, lsr #5
   1c470:	ea43 1151 	orr.w	r1, r3, r1, lsr #5
   1c474:	fba0 3101 	umull	r3, r1, r0, r1
   1c478:	f00c 4000 	and.w	r0, ip, #2147483648	; 0x80000000
   1c47c:	f5b1 0f00 	cmp.w	r1, #8388608	; 0x800000
   1c480:	bf3e      	ittt	cc
   1c482:	0049      	lslcc	r1, r1, #1
   1c484:	ea41 71d3 	orrcc.w	r1, r1, r3, lsr #31
   1c488:	005b      	lslcc	r3, r3, #1
   1c48a:	ea40 0001 	orr.w	r0, r0, r1
   1c48e:	f162 027f 	sbc.w	r2, r2, #127	; 0x7f
   1c492:	2afd      	cmp	r2, #253	; 0xfd
   1c494:	d81d      	bhi.n	1c4d2 <__aeabi_fmul+0x92>
   1c496:	f1b3 4f00 	cmp.w	r3, #2147483648	; 0x80000000
   1c49a:	eb40 50c2 	adc.w	r0, r0, r2, lsl #23
   1c49e:	bf08      	it	eq
   1c4a0:	f020 0001 	biceq.w	r0, r0, #1
   1c4a4:	4770      	bx	lr
   1c4a6:	f090 0f00 	teq	r0, #0
   1c4aa:	f00c 4c00 	and.w	ip, ip, #2147483648	; 0x80000000
   1c4ae:	bf08      	it	eq
   1c4b0:	0249      	lsleq	r1, r1, #9
   1c4b2:	ea4c 2050 	orr.w	r0, ip, r0, lsr #9
   1c4b6:	ea40 2051 	orr.w	r0, r0, r1, lsr #9
   1c4ba:	3a7f      	subs	r2, #127	; 0x7f
   1c4bc:	bfc2      	ittt	gt
   1c4be:	f1d2 03ff 	rsbsgt	r3, r2, #255	; 0xff
   1c4c2:	ea40 50c2 	orrgt.w	r0, r0, r2, lsl #23
   1c4c6:	4770      	bxgt	lr
   1c4c8:	f440 0000 	orr.w	r0, r0, #8388608	; 0x800000
   1c4cc:	f04f 0300 	mov.w	r3, #0
   1c4d0:	3a01      	subs	r2, #1
   1c4d2:	dc5d      	bgt.n	1c590 <__aeabi_fmul+0x150>
   1c4d4:	f112 0f19 	cmn.w	r2, #25
   1c4d8:	bfdc      	itt	le
   1c4da:	f000 4000 	andle.w	r0, r0, #2147483648	; 0x80000000
   1c4de:	4770      	bxle	lr
   1c4e0:	f1c2 0200 	rsb	r2, r2, #0
   1c4e4:	0041      	lsls	r1, r0, #1
   1c4e6:	fa21 f102 	lsr.w	r1, r1, r2
   1c4ea:	f1c2 0220 	rsb	r2, r2, #32
   1c4ee:	fa00 fc02 	lsl.w	ip, r0, r2
   1c4f2:	ea5f 0031 	movs.w	r0, r1, rrx
   1c4f6:	f140 0000 	adc.w	r0, r0, #0
   1c4fa:	ea53 034c 	orrs.w	r3, r3, ip, lsl #1
   1c4fe:	bf08      	it	eq
   1c500:	ea20 70dc 	biceq.w	r0, r0, ip, lsr #31
   1c504:	4770      	bx	lr
   1c506:	f092 0f00 	teq	r2, #0
   1c50a:	f000 4c00 	and.w	ip, r0, #2147483648	; 0x80000000
   1c50e:	bf02      	ittt	eq
   1c510:	0040      	lsleq	r0, r0, #1
   1c512:	f410 0f00 	tsteq.w	r0, #8388608	; 0x800000
   1c516:	3a01      	subeq	r2, #1
   1c518:	d0f9      	beq.n	1c50e <__aeabi_fmul+0xce>
   1c51a:	ea40 000c 	orr.w	r0, r0, ip
   1c51e:	f093 0f00 	teq	r3, #0
   1c522:	f001 4c00 	and.w	ip, r1, #2147483648	; 0x80000000
   1c526:	bf02      	ittt	eq
   1c528:	0049      	lsleq	r1, r1, #1
   1c52a:	f411 0f00 	tsteq.w	r1, #8388608	; 0x800000
   1c52e:	3b01      	subeq	r3, #1
   1c530:	d0f9      	beq.n	1c526 <__aeabi_fmul+0xe6>
   1c532:	ea41 010c 	orr.w	r1, r1, ip
   1c536:	e78f      	b.n	1c458 <__aeabi_fmul+0x18>
   1c538:	ea0c 53d1 	and.w	r3, ip, r1, lsr #23
   1c53c:	ea92 0f0c 	teq	r2, ip
   1c540:	bf18      	it	ne
   1c542:	ea93 0f0c 	teqne	r3, ip
   1c546:	d00a      	beq.n	1c55e <__aeabi_fmul+0x11e>
   1c548:	f030 4c00 	bics.w	ip, r0, #2147483648	; 0x80000000
   1c54c:	bf18      	it	ne
   1c54e:	f031 4c00 	bicsne.w	ip, r1, #2147483648	; 0x80000000
   1c552:	d1d8      	bne.n	1c506 <__aeabi_fmul+0xc6>
   1c554:	ea80 0001 	eor.w	r0, r0, r1
   1c558:	f000 4000 	and.w	r0, r0, #2147483648	; 0x80000000
   1c55c:	4770      	bx	lr
   1c55e:	f090 0f00 	teq	r0, #0
   1c562:	bf17      	itett	ne
   1c564:	f090 4f00 	teqne	r0, #2147483648	; 0x80000000
   1c568:	4608      	moveq	r0, r1
   1c56a:	f091 0f00 	teqne	r1, #0
   1c56e:	f091 4f00 	teqne	r1, #2147483648	; 0x80000000
   1c572:	d014      	beq.n	1c59e <__aeabi_fmul+0x15e>
   1c574:	ea92 0f0c 	teq	r2, ip
   1c578:	d101      	bne.n	1c57e <__aeabi_fmul+0x13e>
   1c57a:	0242      	lsls	r2, r0, #9
   1c57c:	d10f      	bne.n	1c59e <__aeabi_fmul+0x15e>
   1c57e:	ea93 0f0c 	teq	r3, ip
   1c582:	d103      	bne.n	1c58c <__aeabi_fmul+0x14c>
   1c584:	024b      	lsls	r3, r1, #9
   1c586:	bf18      	it	ne
   1c588:	4608      	movne	r0, r1
   1c58a:	d108      	bne.n	1c59e <__aeabi_fmul+0x15e>
   1c58c:	ea80 0001 	eor.w	r0, r0, r1
   1c590:	f000 4000 	and.w	r0, r0, #2147483648	; 0x80000000
   1c594:	f040 40fe 	orr.w	r0, r0, #2130706432	; 0x7f000000
   1c598:	f440 0000 	orr.w	r0, r0, #8388608	; 0x800000
   1c59c:	4770      	bx	lr
   1c59e:	f040 40fe 	orr.w	r0, r0, #2130706432	; 0x7f000000
   1c5a2:	f440 0040 	orr.w	r0, r0, #12582912	; 0xc00000
   1c5a6:	4770      	bx	lr

0001c5a8 <__aeabi_drsub>:
   1c5a8:	f081 4100 	eor.w	r1, r1, #2147483648	; 0x80000000
   1c5ac:	e002      	b.n	1c5b4 <__adddf3>
   1c5ae:	bf00      	nop

0001c5b0 <__aeabi_dsub>:
   1c5b0:	f083 4300 	eor.w	r3, r3, #2147483648	; 0x80000000

0001c5b4 <__adddf3>:
   1c5b4:	b530      	push	{r4, r5, lr}
   1c5b6:	ea4f 0441 	mov.w	r4, r1, lsl #1
   1c5ba:	ea4f 0543 	mov.w	r5, r3, lsl #1
   1c5be:	ea94 0f05 	teq	r4, r5
   1c5c2:	bf08      	it	eq
   1c5c4:	ea90 0f02 	teqeq	r0, r2
   1c5c8:	bf1f      	itttt	ne
   1c5ca:	ea54 0c00 	orrsne.w	ip, r4, r0
   1c5ce:	ea55 0c02 	orrsne.w	ip, r5, r2
   1c5d2:	ea7f 5c64 	mvnsne.w	ip, r4, asr #21
   1c5d6:	ea7f 5c65 	mvnsne.w	ip, r5, asr #21
   1c5da:	f000 80e2 	beq.w	1c7a2 <__adddf3+0x1ee>
   1c5de:	ea4f 5454 	mov.w	r4, r4, lsr #21
   1c5e2:	ebd4 5555 	rsbs	r5, r4, r5, lsr #21
   1c5e6:	bfb8      	it	lt
   1c5e8:	426d      	neglt	r5, r5
   1c5ea:	dd0c      	ble.n	1c606 <__adddf3+0x52>
   1c5ec:	442c      	add	r4, r5
   1c5ee:	ea80 0202 	eor.w	r2, r0, r2
   1c5f2:	ea81 0303 	eor.w	r3, r1, r3
   1c5f6:	ea82 0000 	eor.w	r0, r2, r0
   1c5fa:	ea83 0101 	eor.w	r1, r3, r1
   1c5fe:	ea80 0202 	eor.w	r2, r0, r2
   1c602:	ea81 0303 	eor.w	r3, r1, r3
   1c606:	2d36      	cmp	r5, #54	; 0x36
   1c608:	bf88      	it	hi
   1c60a:	bd30      	pophi	{r4, r5, pc}
   1c60c:	f011 4f00 	tst.w	r1, #2147483648	; 0x80000000
   1c610:	ea4f 3101 	mov.w	r1, r1, lsl #12
   1c614:	f44f 1c80 	mov.w	ip, #1048576	; 0x100000
   1c618:	ea4c 3111 	orr.w	r1, ip, r1, lsr #12
   1c61c:	d002      	beq.n	1c624 <__adddf3+0x70>
   1c61e:	4240      	negs	r0, r0
   1c620:	eb61 0141 	sbc.w	r1, r1, r1, lsl #1
   1c624:	f013 4f00 	tst.w	r3, #2147483648	; 0x80000000
   1c628:	ea4f 3303 	mov.w	r3, r3, lsl #12
   1c62c:	ea4c 3313 	orr.w	r3, ip, r3, lsr #12
   1c630:	d002      	beq.n	1c638 <__adddf3+0x84>
   1c632:	4252      	negs	r2, r2
   1c634:	eb63 0343 	sbc.w	r3, r3, r3, lsl #1
   1c638:	ea94 0f05 	teq	r4, r5
   1c63c:	f000 80a7 	beq.w	1c78e <__adddf3+0x1da>
   1c640:	f1a4 0401 	sub.w	r4, r4, #1
   1c644:	f1d5 0e20 	rsbs	lr, r5, #32
   1c648:	db0d      	blt.n	1c666 <__adddf3+0xb2>
   1c64a:	fa02 fc0e 	lsl.w	ip, r2, lr
   1c64e:	fa22 f205 	lsr.w	r2, r2, r5
   1c652:	1880      	adds	r0, r0, r2
   1c654:	f141 0100 	adc.w	r1, r1, #0
   1c658:	fa03 f20e 	lsl.w	r2, r3, lr
   1c65c:	1880      	adds	r0, r0, r2
   1c65e:	fa43 f305 	asr.w	r3, r3, r5
   1c662:	4159      	adcs	r1, r3
   1c664:	e00e      	b.n	1c684 <__adddf3+0xd0>
   1c666:	f1a5 0520 	sub.w	r5, r5, #32
   1c66a:	f10e 0e20 	add.w	lr, lr, #32
   1c66e:	2a01      	cmp	r2, #1
   1c670:	fa03 fc0e 	lsl.w	ip, r3, lr
   1c674:	bf28      	it	cs
   1c676:	f04c 0c02 	orrcs.w	ip, ip, #2
   1c67a:	fa43 f305 	asr.w	r3, r3, r5
   1c67e:	18c0      	adds	r0, r0, r3
   1c680:	eb51 71e3 	adcs.w	r1, r1, r3, asr #31
   1c684:	f001 4500 	and.w	r5, r1, #2147483648	; 0x80000000
   1c688:	d507      	bpl.n	1c69a <__adddf3+0xe6>
   1c68a:	f04f 0e00 	mov.w	lr, #0
   1c68e:	f1dc 0c00 	rsbs	ip, ip, #0
   1c692:	eb7e 0000 	sbcs.w	r0, lr, r0
   1c696:	eb6e 0101 	sbc.w	r1, lr, r1
   1c69a:	f5b1 1f80 	cmp.w	r1, #1048576	; 0x100000
   1c69e:	d31b      	bcc.n	1c6d8 <__adddf3+0x124>
   1c6a0:	f5b1 1f00 	cmp.w	r1, #2097152	; 0x200000
   1c6a4:	d30c      	bcc.n	1c6c0 <__adddf3+0x10c>
   1c6a6:	0849      	lsrs	r1, r1, #1
   1c6a8:	ea5f 0030 	movs.w	r0, r0, rrx
   1c6ac:	ea4f 0c3c 	mov.w	ip, ip, rrx
   1c6b0:	f104 0401 	add.w	r4, r4, #1
   1c6b4:	ea4f 5244 	mov.w	r2, r4, lsl #21
   1c6b8:	f512 0f80 	cmn.w	r2, #4194304	; 0x400000
   1c6bc:	f080 809a 	bcs.w	1c7f4 <__adddf3+0x240>
   1c6c0:	f1bc 4f00 	cmp.w	ip, #2147483648	; 0x80000000
   1c6c4:	bf08      	it	eq
   1c6c6:	ea5f 0c50 	movseq.w	ip, r0, lsr #1
   1c6ca:	f150 0000 	adcs.w	r0, r0, #0
   1c6ce:	eb41 5104 	adc.w	r1, r1, r4, lsl #20
   1c6d2:	ea41 0105 	orr.w	r1, r1, r5
   1c6d6:	bd30      	pop	{r4, r5, pc}
   1c6d8:	ea5f 0c4c 	movs.w	ip, ip, lsl #1
   1c6dc:	4140      	adcs	r0, r0
   1c6de:	eb41 0101 	adc.w	r1, r1, r1
   1c6e2:	3c01      	subs	r4, #1
   1c6e4:	bf28      	it	cs
   1c6e6:	f5b1 1f80 	cmpcs.w	r1, #1048576	; 0x100000
   1c6ea:	d2e9      	bcs.n	1c6c0 <__adddf3+0x10c>
   1c6ec:	f091 0f00 	teq	r1, #0
   1c6f0:	bf04      	itt	eq
   1c6f2:	4601      	moveq	r1, r0
   1c6f4:	2000      	moveq	r0, #0
   1c6f6:	fab1 f381 	clz	r3, r1
   1c6fa:	bf08      	it	eq
   1c6fc:	3320      	addeq	r3, #32
   1c6fe:	f1a3 030b 	sub.w	r3, r3, #11
   1c702:	f1b3 0220 	subs.w	r2, r3, #32
   1c706:	da0c      	bge.n	1c722 <__adddf3+0x16e>
   1c708:	320c      	adds	r2, #12
   1c70a:	dd08      	ble.n	1c71e <__adddf3+0x16a>
   1c70c:	f102 0c14 	add.w	ip, r2, #20
   1c710:	f1c2 020c 	rsb	r2, r2, #12
   1c714:	fa01 f00c 	lsl.w	r0, r1, ip
   1c718:	fa21 f102 	lsr.w	r1, r1, r2
   1c71c:	e00c      	b.n	1c738 <__adddf3+0x184>
   1c71e:	f102 0214 	add.w	r2, r2, #20
   1c722:	bfd8      	it	le
   1c724:	f1c2 0c20 	rsble	ip, r2, #32
   1c728:	fa01 f102 	lsl.w	r1, r1, r2
   1c72c:	fa20 fc0c 	lsr.w	ip, r0, ip
   1c730:	bfdc      	itt	le
   1c732:	ea41 010c 	orrle.w	r1, r1, ip
   1c736:	4090      	lslle	r0, r2
   1c738:	1ae4      	subs	r4, r4, r3
   1c73a:	bfa2      	ittt	ge
   1c73c:	eb01 5104 	addge.w	r1, r1, r4, lsl #20
   1c740:	4329      	orrge	r1, r5
   1c742:	bd30      	popge	{r4, r5, pc}
   1c744:	ea6f 0404 	mvn.w	r4, r4
   1c748:	3c1f      	subs	r4, #31
   1c74a:	da1c      	bge.n	1c786 <__adddf3+0x1d2>
   1c74c:	340c      	adds	r4, #12
   1c74e:	dc0e      	bgt.n	1c76e <__adddf3+0x1ba>
   1c750:	f104 0414 	add.w	r4, r4, #20
   1c754:	f1c4 0220 	rsb	r2, r4, #32
   1c758:	fa20 f004 	lsr.w	r0, r0, r4
   1c75c:	fa01 f302 	lsl.w	r3, r1, r2
   1c760:	ea40 0003 	orr.w	r0, r0, r3
   1c764:	fa21 f304 	lsr.w	r3, r1, r4
   1c768:	ea45 0103 	orr.w	r1, r5, r3
   1c76c:	bd30      	pop	{r4, r5, pc}
   1c76e:	f1c4 040c 	rsb	r4, r4, #12
   1c772:	f1c4 0220 	rsb	r2, r4, #32
   1c776:	fa20 f002 	lsr.w	r0, r0, r2
   1c77a:	fa01 f304 	lsl.w	r3, r1, r4
   1c77e:	ea40 0003 	orr.w	r0, r0, r3
   1c782:	4629      	mov	r1, r5
   1c784:	bd30      	pop	{r4, r5, pc}
   1c786:	fa21 f004 	lsr.w	r0, r1, r4
   1c78a:	4629      	mov	r1, r5
   1c78c:	bd30      	pop	{r4, r5, pc}
   1c78e:	f094 0f00 	teq	r4, #0
   1c792:	f483 1380 	eor.w	r3, r3, #1048576	; 0x100000
   1c796:	bf06      	itte	eq
   1c798:	f481 1180 	eoreq.w	r1, r1, #1048576	; 0x100000
   1c79c:	3401      	addeq	r4, #1
   1c79e:	3d01      	subne	r5, #1
   1c7a0:	e74e      	b.n	1c640 <__adddf3+0x8c>
   1c7a2:	ea7f 5c64 	mvns.w	ip, r4, asr #21
   1c7a6:	bf18      	it	ne
   1c7a8:	ea7f 5c65 	mvnsne.w	ip, r5, asr #21
   1c7ac:	d029      	beq.n	1c802 <__adddf3+0x24e>
   1c7ae:	ea94 0f05 	teq	r4, r5
   1c7b2:	bf08      	it	eq
   1c7b4:	ea90 0f02 	teqeq	r0, r2
   1c7b8:	d005      	beq.n	1c7c6 <__adddf3+0x212>
   1c7ba:	ea54 0c00 	orrs.w	ip, r4, r0
   1c7be:	bf04      	itt	eq
   1c7c0:	4619      	moveq	r1, r3
   1c7c2:	4610      	moveq	r0, r2
   1c7c4:	bd30      	pop	{r4, r5, pc}
   1c7c6:	ea91 0f03 	teq	r1, r3
   1c7ca:	bf1e      	ittt	ne
   1c7cc:	2100      	movne	r1, #0
   1c7ce:	2000      	movne	r0, #0
   1c7d0:	bd30      	popne	{r4, r5, pc}
   1c7d2:	ea5f 5c54 	movs.w	ip, r4, lsr #21
   1c7d6:	d105      	bne.n	1c7e4 <__adddf3+0x230>
   1c7d8:	0040      	lsls	r0, r0, #1
   1c7da:	4149      	adcs	r1, r1
   1c7dc:	bf28      	it	cs
   1c7de:	f041 4100 	orrcs.w	r1, r1, #2147483648	; 0x80000000
   1c7e2:	bd30      	pop	{r4, r5, pc}
   1c7e4:	f514 0480 	adds.w	r4, r4, #4194304	; 0x400000
   1c7e8:	bf3c      	itt	cc
   1c7ea:	f501 1180 	addcc.w	r1, r1, #1048576	; 0x100000
   1c7ee:	bd30      	popcc	{r4, r5, pc}
   1c7f0:	f001 4500 	and.w	r5, r1, #2147483648	; 0x80000000
   1c7f4:	f045 41fe 	orr.w	r1, r5, #2130706432	; 0x7f000000
   1c7f8:	f441 0170 	orr.w	r1, r1, #15728640	; 0xf00000
   1c7fc:	f04f 0000 	mov.w	r0, #0
   1c800:	bd30      	pop	{r4, r5, pc}
   1c802:	ea7f 5c64 	mvns.w	ip, r4, asr #21
   1c806:	bf1a      	itte	ne
   1c808:	4619      	movne	r1, r3
   1c80a:	4610      	movne	r0, r2
   1c80c:	ea7f 5c65 	mvnseq.w	ip, r5, asr #21
   1c810:	bf1c      	itt	ne
   1c812:	460b      	movne	r3, r1
   1c814:	4602      	movne	r2, r0
   1c816:	ea50 3401 	orrs.w	r4, r0, r1, lsl #12
   1c81a:	bf06      	itte	eq
   1c81c:	ea52 3503 	orrseq.w	r5, r2, r3, lsl #12
   1c820:	ea91 0f03 	teqeq	r1, r3
   1c824:	f441 2100 	orrne.w	r1, r1, #524288	; 0x80000
   1c828:	bd30      	pop	{r4, r5, pc}
   1c82a:	bf00      	nop

0001c82c <__aeabi_ui2d>:
   1c82c:	f090 0f00 	teq	r0, #0
   1c830:	bf04      	itt	eq
   1c832:	2100      	moveq	r1, #0
   1c834:	4770      	bxeq	lr
   1c836:	b530      	push	{r4, r5, lr}
   1c838:	f44f 6480 	mov.w	r4, #1024	; 0x400
   1c83c:	f104 0432 	add.w	r4, r4, #50	; 0x32
   1c840:	f04f 0500 	mov.w	r5, #0
   1c844:	f04f 0100 	mov.w	r1, #0
   1c848:	e750      	b.n	1c6ec <__adddf3+0x138>
   1c84a:	bf00      	nop

0001c84c <__aeabi_i2d>:
   1c84c:	f090 0f00 	teq	r0, #0
   1c850:	bf04      	itt	eq
   1c852:	2100      	moveq	r1, #0
   1c854:	4770      	bxeq	lr
   1c856:	b530      	push	{r4, r5, lr}
   1c858:	f44f 6480 	mov.w	r4, #1024	; 0x400
   1c85c:	f104 0432 	add.w	r4, r4, #50	; 0x32
   1c860:	f010 4500 	ands.w	r5, r0, #2147483648	; 0x80000000
   1c864:	bf48      	it	mi
   1c866:	4240      	negmi	r0, r0
   1c868:	f04f 0100 	mov.w	r1, #0
   1c86c:	e73e      	b.n	1c6ec <__adddf3+0x138>
   1c86e:	bf00      	nop

0001c870 <__aeabi_f2d>:
   1c870:	0042      	lsls	r2, r0, #1
   1c872:	ea4f 01e2 	mov.w	r1, r2, asr #3
   1c876:	ea4f 0131 	mov.w	r1, r1, rrx
   1c87a:	ea4f 7002 	mov.w	r0, r2, lsl #28
   1c87e:	bf1f      	itttt	ne
   1c880:	f012 437f 	andsne.w	r3, r2, #4278190080	; 0xff000000
   1c884:	f093 4f7f 	teqne	r3, #4278190080	; 0xff000000
   1c888:	f081 5160 	eorne.w	r1, r1, #939524096	; 0x38000000
   1c88c:	4770      	bxne	lr
   1c88e:	f032 427f 	bics.w	r2, r2, #4278190080	; 0xff000000
   1c892:	bf08      	it	eq
   1c894:	4770      	bxeq	lr
   1c896:	f093 4f7f 	teq	r3, #4278190080	; 0xff000000
   1c89a:	bf04      	itt	eq
   1c89c:	f441 2100 	orreq.w	r1, r1, #524288	; 0x80000
   1c8a0:	4770      	bxeq	lr
   1c8a2:	b530      	push	{r4, r5, lr}
   1c8a4:	f44f 7460 	mov.w	r4, #896	; 0x380
   1c8a8:	f001 4500 	and.w	r5, r1, #2147483648	; 0x80000000
   1c8ac:	f021 4100 	bic.w	r1, r1, #2147483648	; 0x80000000
   1c8b0:	e71c      	b.n	1c6ec <__adddf3+0x138>
   1c8b2:	bf00      	nop

0001c8b4 <__aeabi_ul2d>:
   1c8b4:	ea50 0201 	orrs.w	r2, r0, r1
   1c8b8:	bf08      	it	eq
   1c8ba:	4770      	bxeq	lr
   1c8bc:	b530      	push	{r4, r5, lr}
   1c8be:	f04f 0500 	mov.w	r5, #0
   1c8c2:	e00a      	b.n	1c8da <__aeabi_l2d+0x16>

0001c8c4 <__aeabi_l2d>:
   1c8c4:	ea50 0201 	orrs.w	r2, r0, r1
   1c8c8:	bf08      	it	eq
   1c8ca:	4770      	bxeq	lr
   1c8cc:	b530      	push	{r4, r5, lr}
   1c8ce:	f011 4500 	ands.w	r5, r1, #2147483648	; 0x80000000
   1c8d2:	d502      	bpl.n	1c8da <__aeabi_l2d+0x16>
   1c8d4:	4240      	negs	r0, r0
   1c8d6:	eb61 0141 	sbc.w	r1, r1, r1, lsl #1
   1c8da:	f44f 6480 	mov.w	r4, #1024	; 0x400
   1c8de:	f104 0432 	add.w	r4, r4, #50	; 0x32
   1c8e2:	ea5f 5c91 	movs.w	ip, r1, lsr #22
   1c8e6:	f43f aed8 	beq.w	1c69a <__adddf3+0xe6>
   1c8ea:	f04f 0203 	mov.w	r2, #3
   1c8ee:	ea5f 0cdc 	movs.w	ip, ip, lsr #3
   1c8f2:	bf18      	it	ne
   1c8f4:	3203      	addne	r2, #3
   1c8f6:	ea5f 0cdc 	movs.w	ip, ip, lsr #3
   1c8fa:	bf18      	it	ne
   1c8fc:	3203      	addne	r2, #3
   1c8fe:	eb02 02dc 	add.w	r2, r2, ip, lsr #3
   1c902:	f1c2 0320 	rsb	r3, r2, #32
   1c906:	fa00 fc03 	lsl.w	ip, r0, r3
   1c90a:	fa20 f002 	lsr.w	r0, r0, r2
   1c90e:	fa01 fe03 	lsl.w	lr, r1, r3
   1c912:	ea40 000e 	orr.w	r0, r0, lr
   1c916:	fa21 f102 	lsr.w	r1, r1, r2
   1c91a:	4414      	add	r4, r2
   1c91c:	e6bd      	b.n	1c69a <__adddf3+0xe6>
   1c91e:	bf00      	nop

0001c920 <__aeabi_dmul>:
   1c920:	b570      	push	{r4, r5, r6, lr}
   1c922:	f04f 0cff 	mov.w	ip, #255	; 0xff
   1c926:	f44c 6ce0 	orr.w	ip, ip, #1792	; 0x700
   1c92a:	ea1c 5411 	ands.w	r4, ip, r1, lsr #20
   1c92e:	bf1d      	ittte	ne
   1c930:	ea1c 5513 	andsne.w	r5, ip, r3, lsr #20
   1c934:	ea94 0f0c 	teqne	r4, ip
   1c938:	ea95 0f0c 	teqne	r5, ip
   1c93c:	f000 f8de 	bleq	1cafc <__aeabi_dmul+0x1dc>
   1c940:	442c      	add	r4, r5
   1c942:	ea81 0603 	eor.w	r6, r1, r3
   1c946:	ea21 514c 	bic.w	r1, r1, ip, lsl #21
   1c94a:	ea23 534c 	bic.w	r3, r3, ip, lsl #21
   1c94e:	ea50 3501 	orrs.w	r5, r0, r1, lsl #12
   1c952:	bf18      	it	ne
   1c954:	ea52 3503 	orrsne.w	r5, r2, r3, lsl #12
   1c958:	f441 1180 	orr.w	r1, r1, #1048576	; 0x100000
   1c95c:	f443 1380 	orr.w	r3, r3, #1048576	; 0x100000
   1c960:	d038      	beq.n	1c9d4 <__aeabi_dmul+0xb4>
   1c962:	fba0 ce02 	umull	ip, lr, r0, r2
   1c966:	f04f 0500 	mov.w	r5, #0
   1c96a:	fbe1 e502 	umlal	lr, r5, r1, r2
   1c96e:	f006 4200 	and.w	r2, r6, #2147483648	; 0x80000000
   1c972:	fbe0 e503 	umlal	lr, r5, r0, r3
   1c976:	f04f 0600 	mov.w	r6, #0
   1c97a:	fbe1 5603 	umlal	r5, r6, r1, r3
   1c97e:	f09c 0f00 	teq	ip, #0
   1c982:	bf18      	it	ne
   1c984:	f04e 0e01 	orrne.w	lr, lr, #1
   1c988:	f1a4 04ff 	sub.w	r4, r4, #255	; 0xff
   1c98c:	f5b6 7f00 	cmp.w	r6, #512	; 0x200
   1c990:	f564 7440 	sbc.w	r4, r4, #768	; 0x300
   1c994:	d204      	bcs.n	1c9a0 <__aeabi_dmul+0x80>
   1c996:	ea5f 0e4e 	movs.w	lr, lr, lsl #1
   1c99a:	416d      	adcs	r5, r5
   1c99c:	eb46 0606 	adc.w	r6, r6, r6
   1c9a0:	ea42 21c6 	orr.w	r1, r2, r6, lsl #11
   1c9a4:	ea41 5155 	orr.w	r1, r1, r5, lsr #21
   1c9a8:	ea4f 20c5 	mov.w	r0, r5, lsl #11
   1c9ac:	ea40 505e 	orr.w	r0, r0, lr, lsr #21
   1c9b0:	ea4f 2ece 	mov.w	lr, lr, lsl #11
   1c9b4:	f1b4 0cfd 	subs.w	ip, r4, #253	; 0xfd
   1c9b8:	bf88      	it	hi
   1c9ba:	f5bc 6fe0 	cmphi.w	ip, #1792	; 0x700
   1c9be:	d81e      	bhi.n	1c9fe <__aeabi_dmul+0xde>
   1c9c0:	f1be 4f00 	cmp.w	lr, #2147483648	; 0x80000000
   1c9c4:	bf08      	it	eq
   1c9c6:	ea5f 0e50 	movseq.w	lr, r0, lsr #1
   1c9ca:	f150 0000 	adcs.w	r0, r0, #0
   1c9ce:	eb41 5104 	adc.w	r1, r1, r4, lsl #20
   1c9d2:	bd70      	pop	{r4, r5, r6, pc}
   1c9d4:	f006 4600 	and.w	r6, r6, #2147483648	; 0x80000000
   1c9d8:	ea46 0101 	orr.w	r1, r6, r1
   1c9dc:	ea40 0002 	orr.w	r0, r0, r2
   1c9e0:	ea81 0103 	eor.w	r1, r1, r3
   1c9e4:	ebb4 045c 	subs.w	r4, r4, ip, lsr #1
   1c9e8:	bfc2      	ittt	gt
   1c9ea:	ebd4 050c 	rsbsgt	r5, r4, ip
   1c9ee:	ea41 5104 	orrgt.w	r1, r1, r4, lsl #20
   1c9f2:	bd70      	popgt	{r4, r5, r6, pc}
   1c9f4:	f441 1180 	orr.w	r1, r1, #1048576	; 0x100000
   1c9f8:	f04f 0e00 	mov.w	lr, #0
   1c9fc:	3c01      	subs	r4, #1
   1c9fe:	f300 80ab 	bgt.w	1cb58 <__aeabi_dmul+0x238>
   1ca02:	f114 0f36 	cmn.w	r4, #54	; 0x36
   1ca06:	bfde      	ittt	le
   1ca08:	2000      	movle	r0, #0
   1ca0a:	f001 4100 	andle.w	r1, r1, #2147483648	; 0x80000000
   1ca0e:	bd70      	pople	{r4, r5, r6, pc}
   1ca10:	f1c4 0400 	rsb	r4, r4, #0
   1ca14:	3c20      	subs	r4, #32
   1ca16:	da35      	bge.n	1ca84 <__aeabi_dmul+0x164>
   1ca18:	340c      	adds	r4, #12
   1ca1a:	dc1b      	bgt.n	1ca54 <__aeabi_dmul+0x134>
   1ca1c:	f104 0414 	add.w	r4, r4, #20
   1ca20:	f1c4 0520 	rsb	r5, r4, #32
   1ca24:	fa00 f305 	lsl.w	r3, r0, r5
   1ca28:	fa20 f004 	lsr.w	r0, r0, r4
   1ca2c:	fa01 f205 	lsl.w	r2, r1, r5
   1ca30:	ea40 0002 	orr.w	r0, r0, r2
   1ca34:	f001 4200 	and.w	r2, r1, #2147483648	; 0x80000000
   1ca38:	f021 4100 	bic.w	r1, r1, #2147483648	; 0x80000000
   1ca3c:	eb10 70d3 	adds.w	r0, r0, r3, lsr #31
   1ca40:	fa21 f604 	lsr.w	r6, r1, r4
   1ca44:	eb42 0106 	adc.w	r1, r2, r6
   1ca48:	ea5e 0e43 	orrs.w	lr, lr, r3, lsl #1
   1ca4c:	bf08      	it	eq
   1ca4e:	ea20 70d3 	biceq.w	r0, r0, r3, lsr #31
   1ca52:	bd70      	pop	{r4, r5, r6, pc}
   1ca54:	f1c4 040c 	rsb	r4, r4, #12
   1ca58:	f1c4 0520 	rsb	r5, r4, #32
   1ca5c:	fa00 f304 	lsl.w	r3, r0, r4
   1ca60:	fa20 f005 	lsr.w	r0, r0, r5
   1ca64:	fa01 f204 	lsl.w	r2, r1, r4
   1ca68:	ea40 0002 	orr.w	r0, r0, r2
   1ca6c:	f001 4100 	and.w	r1, r1, #2147483648	; 0x80000000
   1ca70:	eb10 70d3 	adds.w	r0, r0, r3, lsr #31
   1ca74:	f141 0100 	adc.w	r1, r1, #0
   1ca78:	ea5e 0e43 	orrs.w	lr, lr, r3, lsl #1
   1ca7c:	bf08      	it	eq
   1ca7e:	ea20 70d3 	biceq.w	r0, r0, r3, lsr #31
   1ca82:	bd70      	pop	{r4, r5, r6, pc}
   1ca84:	f1c4 0520 	rsb	r5, r4, #32
   1ca88:	fa00 f205 	lsl.w	r2, r0, r5
   1ca8c:	ea4e 0e02 	orr.w	lr, lr, r2
   1ca90:	fa20 f304 	lsr.w	r3, r0, r4
   1ca94:	fa01 f205 	lsl.w	r2, r1, r5
   1ca98:	ea43 0302 	orr.w	r3, r3, r2
   1ca9c:	fa21 f004 	lsr.w	r0, r1, r4
   1caa0:	f001 4100 	and.w	r1, r1, #2147483648	; 0x80000000
   1caa4:	fa21 f204 	lsr.w	r2, r1, r4
   1caa8:	ea20 0002 	bic.w	r0, r0, r2
   1caac:	eb00 70d3 	add.w	r0, r0, r3, lsr #31
   1cab0:	ea5e 0e43 	orrs.w	lr, lr, r3, lsl #1
   1cab4:	bf08      	it	eq
   1cab6:	ea20 70d3 	biceq.w	r0, r0, r3, lsr #31
   1caba:	bd70      	pop	{r4, r5, r6, pc}
   1cabc:	f094 0f00 	teq	r4, #0
   1cac0:	d10f      	bne.n	1cae2 <__aeabi_dmul+0x1c2>
   1cac2:	f001 4600 	and.w	r6, r1, #2147483648	; 0x80000000
   1cac6:	0040      	lsls	r0, r0, #1
   1cac8:	eb41 0101 	adc.w	r1, r1, r1
   1cacc:	f411 1f80 	tst.w	r1, #1048576	; 0x100000
   1cad0:	bf08      	it	eq
   1cad2:	3c01      	subeq	r4, #1
   1cad4:	d0f7      	beq.n	1cac6 <__aeabi_dmul+0x1a6>
   1cad6:	ea41 0106 	orr.w	r1, r1, r6
   1cada:	f095 0f00 	teq	r5, #0
   1cade:	bf18      	it	ne
   1cae0:	4770      	bxne	lr
   1cae2:	f003 4600 	and.w	r6, r3, #2147483648	; 0x80000000
   1cae6:	0052      	lsls	r2, r2, #1
   1cae8:	eb43 0303 	adc.w	r3, r3, r3
   1caec:	f413 1f80 	tst.w	r3, #1048576	; 0x100000
   1caf0:	bf08      	it	eq
   1caf2:	3d01      	subeq	r5, #1
   1caf4:	d0f7      	beq.n	1cae6 <__aeabi_dmul+0x1c6>
   1caf6:	ea43 0306 	orr.w	r3, r3, r6
   1cafa:	4770      	bx	lr
   1cafc:	ea94 0f0c 	teq	r4, ip
   1cb00:	ea0c 5513 	and.w	r5, ip, r3, lsr #20
   1cb04:	bf18      	it	ne
   1cb06:	ea95 0f0c 	teqne	r5, ip
   1cb0a:	d00c      	beq.n	1cb26 <__aeabi_dmul+0x206>
   1cb0c:	ea50 0641 	orrs.w	r6, r0, r1, lsl #1
   1cb10:	bf18      	it	ne
   1cb12:	ea52 0643 	orrsne.w	r6, r2, r3, lsl #1
   1cb16:	d1d1      	bne.n	1cabc <__aeabi_dmul+0x19c>
   1cb18:	ea81 0103 	eor.w	r1, r1, r3
   1cb1c:	f001 4100 	and.w	r1, r1, #2147483648	; 0x80000000
   1cb20:	f04f 0000 	mov.w	r0, #0
   1cb24:	bd70      	pop	{r4, r5, r6, pc}
   1cb26:	ea50 0641 	orrs.w	r6, r0, r1, lsl #1
   1cb2a:	bf06      	itte	eq
   1cb2c:	4610      	moveq	r0, r2
   1cb2e:	4619      	moveq	r1, r3
   1cb30:	ea52 0643 	orrsne.w	r6, r2, r3, lsl #1
   1cb34:	d019      	beq.n	1cb6a <__aeabi_dmul+0x24a>
   1cb36:	ea94 0f0c 	teq	r4, ip
   1cb3a:	d102      	bne.n	1cb42 <__aeabi_dmul+0x222>
   1cb3c:	ea50 3601 	orrs.w	r6, r0, r1, lsl #12
   1cb40:	d113      	bne.n	1cb6a <__aeabi_dmul+0x24a>
   1cb42:	ea95 0f0c 	teq	r5, ip
   1cb46:	d105      	bne.n	1cb54 <__aeabi_dmul+0x234>
   1cb48:	ea52 3603 	orrs.w	r6, r2, r3, lsl #12
   1cb4c:	bf1c      	itt	ne
   1cb4e:	4610      	movne	r0, r2
   1cb50:	4619      	movne	r1, r3
   1cb52:	d10a      	bne.n	1cb6a <__aeabi_dmul+0x24a>
   1cb54:	ea81 0103 	eor.w	r1, r1, r3
   1cb58:	f001 4100 	and.w	r1, r1, #2147483648	; 0x80000000
   1cb5c:	f041 41fe 	orr.w	r1, r1, #2130706432	; 0x7f000000
   1cb60:	f441 0170 	orr.w	r1, r1, #15728640	; 0xf00000
   1cb64:	f04f 0000 	mov.w	r0, #0
   1cb68:	bd70      	pop	{r4, r5, r6, pc}
   1cb6a:	f041 41fe 	orr.w	r1, r1, #2130706432	; 0x7f000000
   1cb6e:	f441 0178 	orr.w	r1, r1, #16252928	; 0xf80000
   1cb72:	bd70      	pop	{r4, r5, r6, pc}

0001cb74 <__aeabi_ddiv>:
   1cb74:	b570      	push	{r4, r5, r6, lr}
   1cb76:	f04f 0cff 	mov.w	ip, #255	; 0xff
   1cb7a:	f44c 6ce0 	orr.w	ip, ip, #1792	; 0x700
   1cb7e:	ea1c 5411 	ands.w	r4, ip, r1, lsr #20
   1cb82:	bf1d      	ittte	ne
   1cb84:	ea1c 5513 	andsne.w	r5, ip, r3, lsr #20
   1cb88:	ea94 0f0c 	teqne	r4, ip
   1cb8c:	ea95 0f0c 	teqne	r5, ip
   1cb90:	f000 f8a7 	bleq	1cce2 <__aeabi_ddiv+0x16e>
   1cb94:	eba4 0405 	sub.w	r4, r4, r5
   1cb98:	ea81 0e03 	eor.w	lr, r1, r3
   1cb9c:	ea52 3503 	orrs.w	r5, r2, r3, lsl #12
   1cba0:	ea4f 3101 	mov.w	r1, r1, lsl #12
   1cba4:	f000 8088 	beq.w	1ccb8 <__aeabi_ddiv+0x144>
   1cba8:	ea4f 3303 	mov.w	r3, r3, lsl #12
   1cbac:	f04f 5580 	mov.w	r5, #268435456	; 0x10000000
   1cbb0:	ea45 1313 	orr.w	r3, r5, r3, lsr #4
   1cbb4:	ea43 6312 	orr.w	r3, r3, r2, lsr #24
   1cbb8:	ea4f 2202 	mov.w	r2, r2, lsl #8
   1cbbc:	ea45 1511 	orr.w	r5, r5, r1, lsr #4
   1cbc0:	ea45 6510 	orr.w	r5, r5, r0, lsr #24
   1cbc4:	ea4f 2600 	mov.w	r6, r0, lsl #8
   1cbc8:	f00e 4100 	and.w	r1, lr, #2147483648	; 0x80000000
   1cbcc:	429d      	cmp	r5, r3
   1cbce:	bf08      	it	eq
   1cbd0:	4296      	cmpeq	r6, r2
   1cbd2:	f144 04fd 	adc.w	r4, r4, #253	; 0xfd
   1cbd6:	f504 7440 	add.w	r4, r4, #768	; 0x300
   1cbda:	d202      	bcs.n	1cbe2 <__aeabi_ddiv+0x6e>
   1cbdc:	085b      	lsrs	r3, r3, #1
   1cbde:	ea4f 0232 	mov.w	r2, r2, rrx
   1cbe2:	1ab6      	subs	r6, r6, r2
   1cbe4:	eb65 0503 	sbc.w	r5, r5, r3
   1cbe8:	085b      	lsrs	r3, r3, #1
   1cbea:	ea4f 0232 	mov.w	r2, r2, rrx
   1cbee:	f44f 1080 	mov.w	r0, #1048576	; 0x100000
   1cbf2:	f44f 2c00 	mov.w	ip, #524288	; 0x80000
   1cbf6:	ebb6 0e02 	subs.w	lr, r6, r2
   1cbfa:	eb75 0e03 	sbcs.w	lr, r5, r3
   1cbfe:	bf22      	ittt	cs
   1cc00:	1ab6      	subcs	r6, r6, r2
   1cc02:	4675      	movcs	r5, lr
   1cc04:	ea40 000c 	orrcs.w	r0, r0, ip
   1cc08:	085b      	lsrs	r3, r3, #1
   1cc0a:	ea4f 0232 	mov.w	r2, r2, rrx
   1cc0e:	ebb6 0e02 	subs.w	lr, r6, r2
   1cc12:	eb75 0e03 	sbcs.w	lr, r5, r3
   1cc16:	bf22      	ittt	cs
   1cc18:	1ab6      	subcs	r6, r6, r2
   1cc1a:	4675      	movcs	r5, lr
   1cc1c:	ea40 005c 	orrcs.w	r0, r0, ip, lsr #1
   1cc20:	085b      	lsrs	r3, r3, #1
   1cc22:	ea4f 0232 	mov.w	r2, r2, rrx
   1cc26:	ebb6 0e02 	subs.w	lr, r6, r2
   1cc2a:	eb75 0e03 	sbcs.w	lr, r5, r3
   1cc2e:	bf22      	ittt	cs
   1cc30:	1ab6      	subcs	r6, r6, r2
   1cc32:	4675      	movcs	r5, lr
   1cc34:	ea40 009c 	orrcs.w	r0, r0, ip, lsr #2
   1cc38:	085b      	lsrs	r3, r3, #1
   1cc3a:	ea4f 0232 	mov.w	r2, r2, rrx
   1cc3e:	ebb6 0e02 	subs.w	lr, r6, r2
   1cc42:	eb75 0e03 	sbcs.w	lr, r5, r3
   1cc46:	bf22      	ittt	cs
   1cc48:	1ab6      	subcs	r6, r6, r2
   1cc4a:	4675      	movcs	r5, lr
   1cc4c:	ea40 00dc 	orrcs.w	r0, r0, ip, lsr #3
   1cc50:	ea55 0e06 	orrs.w	lr, r5, r6
   1cc54:	d018      	beq.n	1cc88 <__aeabi_ddiv+0x114>
   1cc56:	ea4f 1505 	mov.w	r5, r5, lsl #4
   1cc5a:	ea45 7516 	orr.w	r5, r5, r6, lsr #28
   1cc5e:	ea4f 1606 	mov.w	r6, r6, lsl #4
   1cc62:	ea4f 03c3 	mov.w	r3, r3, lsl #3
   1cc66:	ea43 7352 	orr.w	r3, r3, r2, lsr #29
   1cc6a:	ea4f 02c2 	mov.w	r2, r2, lsl #3
   1cc6e:	ea5f 1c1c 	movs.w	ip, ip, lsr #4
   1cc72:	d1c0      	bne.n	1cbf6 <__aeabi_ddiv+0x82>
   1cc74:	f411 1f80 	tst.w	r1, #1048576	; 0x100000
   1cc78:	d10b      	bne.n	1cc92 <__aeabi_ddiv+0x11e>
   1cc7a:	ea41 0100 	orr.w	r1, r1, r0
   1cc7e:	f04f 0000 	mov.w	r0, #0
   1cc82:	f04f 4c00 	mov.w	ip, #2147483648	; 0x80000000
   1cc86:	e7b6      	b.n	1cbf6 <__aeabi_ddiv+0x82>
   1cc88:	f411 1f80 	tst.w	r1, #1048576	; 0x100000
   1cc8c:	bf04      	itt	eq
   1cc8e:	4301      	orreq	r1, r0
   1cc90:	2000      	moveq	r0, #0
   1cc92:	f1b4 0cfd 	subs.w	ip, r4, #253	; 0xfd
   1cc96:	bf88      	it	hi
   1cc98:	f5bc 6fe0 	cmphi.w	ip, #1792	; 0x700
   1cc9c:	f63f aeaf 	bhi.w	1c9fe <__aeabi_dmul+0xde>
   1cca0:	ebb5 0c03 	subs.w	ip, r5, r3
   1cca4:	bf04      	itt	eq
   1cca6:	ebb6 0c02 	subseq.w	ip, r6, r2
   1ccaa:	ea5f 0c50 	movseq.w	ip, r0, lsr #1
   1ccae:	f150 0000 	adcs.w	r0, r0, #0
   1ccb2:	eb41 5104 	adc.w	r1, r1, r4, lsl #20
   1ccb6:	bd70      	pop	{r4, r5, r6, pc}
   1ccb8:	f00e 4e00 	and.w	lr, lr, #2147483648	; 0x80000000
   1ccbc:	ea4e 3111 	orr.w	r1, lr, r1, lsr #12
   1ccc0:	eb14 045c 	adds.w	r4, r4, ip, lsr #1
   1ccc4:	bfc2      	ittt	gt
   1ccc6:	ebd4 050c 	rsbsgt	r5, r4, ip
   1ccca:	ea41 5104 	orrgt.w	r1, r1, r4, lsl #20
   1ccce:	bd70      	popgt	{r4, r5, r6, pc}
   1ccd0:	f441 1180 	orr.w	r1, r1, #1048576	; 0x100000
   1ccd4:	f04f 0e00 	mov.w	lr, #0
   1ccd8:	3c01      	subs	r4, #1
   1ccda:	e690      	b.n	1c9fe <__aeabi_dmul+0xde>
   1ccdc:	ea45 0e06 	orr.w	lr, r5, r6
   1cce0:	e68d      	b.n	1c9fe <__aeabi_dmul+0xde>
   1cce2:	ea0c 5513 	and.w	r5, ip, r3, lsr #20
   1cce6:	ea94 0f0c 	teq	r4, ip
   1ccea:	bf08      	it	eq
   1ccec:	ea95 0f0c 	teqeq	r5, ip
   1ccf0:	f43f af3b 	beq.w	1cb6a <__aeabi_dmul+0x24a>
   1ccf4:	ea94 0f0c 	teq	r4, ip
   1ccf8:	d10a      	bne.n	1cd10 <__aeabi_ddiv+0x19c>
   1ccfa:	ea50 3401 	orrs.w	r4, r0, r1, lsl #12
   1ccfe:	f47f af34 	bne.w	1cb6a <__aeabi_dmul+0x24a>
   1cd02:	ea95 0f0c 	teq	r5, ip
   1cd06:	f47f af25 	bne.w	1cb54 <__aeabi_dmul+0x234>
   1cd0a:	4610      	mov	r0, r2
   1cd0c:	4619      	mov	r1, r3
   1cd0e:	e72c      	b.n	1cb6a <__aeabi_dmul+0x24a>
   1cd10:	ea95 0f0c 	teq	r5, ip
   1cd14:	d106      	bne.n	1cd24 <__aeabi_ddiv+0x1b0>
   1cd16:	ea52 3503 	orrs.w	r5, r2, r3, lsl #12
   1cd1a:	f43f aefd 	beq.w	1cb18 <__aeabi_dmul+0x1f8>
   1cd1e:	4610      	mov	r0, r2
   1cd20:	4619      	mov	r1, r3
   1cd22:	e722      	b.n	1cb6a <__aeabi_dmul+0x24a>
   1cd24:	ea50 0641 	orrs.w	r6, r0, r1, lsl #1
   1cd28:	bf18      	it	ne
   1cd2a:	ea52 0643 	orrsne.w	r6, r2, r3, lsl #1
   1cd2e:	f47f aec5 	bne.w	1cabc <__aeabi_dmul+0x19c>
   1cd32:	ea50 0441 	orrs.w	r4, r0, r1, lsl #1
   1cd36:	f47f af0d 	bne.w	1cb54 <__aeabi_dmul+0x234>
   1cd3a:	ea52 0543 	orrs.w	r5, r2, r3, lsl #1
   1cd3e:	f47f aeeb 	bne.w	1cb18 <__aeabi_dmul+0x1f8>
   1cd42:	e712      	b.n	1cb6a <__aeabi_dmul+0x24a>

0001cd44 <__gedf2>:
   1cd44:	f04f 3cff 	mov.w	ip, #4294967295
   1cd48:	e006      	b.n	1cd58 <__cmpdf2+0x4>
   1cd4a:	bf00      	nop

0001cd4c <__ledf2>:
   1cd4c:	f04f 0c01 	mov.w	ip, #1
   1cd50:	e002      	b.n	1cd58 <__cmpdf2+0x4>
   1cd52:	bf00      	nop

0001cd54 <__cmpdf2>:
   1cd54:	f04f 0c01 	mov.w	ip, #1
   1cd58:	f84d cd04 	str.w	ip, [sp, #-4]!
   1cd5c:	ea4f 0c41 	mov.w	ip, r1, lsl #1
   1cd60:	ea7f 5c6c 	mvns.w	ip, ip, asr #21
   1cd64:	ea4f 0c43 	mov.w	ip, r3, lsl #1
   1cd68:	bf18      	it	ne
   1cd6a:	ea7f 5c6c 	mvnsne.w	ip, ip, asr #21
   1cd6e:	d01b      	beq.n	1cda8 <__cmpdf2+0x54>
   1cd70:	b001      	add	sp, #4
   1cd72:	ea50 0c41 	orrs.w	ip, r0, r1, lsl #1
   1cd76:	bf0c      	ite	eq
   1cd78:	ea52 0c43 	orrseq.w	ip, r2, r3, lsl #1
   1cd7c:	ea91 0f03 	teqne	r1, r3
   1cd80:	bf02      	ittt	eq
   1cd82:	ea90 0f02 	teqeq	r0, r2
   1cd86:	2000      	moveq	r0, #0
   1cd88:	4770      	bxeq	lr
   1cd8a:	f110 0f00 	cmn.w	r0, #0
   1cd8e:	ea91 0f03 	teq	r1, r3
   1cd92:	bf58      	it	pl
   1cd94:	4299      	cmppl	r1, r3
   1cd96:	bf08      	it	eq
   1cd98:	4290      	cmpeq	r0, r2
   1cd9a:	bf2c      	ite	cs
   1cd9c:	17d8      	asrcs	r0, r3, #31
   1cd9e:	ea6f 70e3 	mvncc.w	r0, r3, asr #31
   1cda2:	f040 0001 	orr.w	r0, r0, #1
   1cda6:	4770      	bx	lr
   1cda8:	ea4f 0c41 	mov.w	ip, r1, lsl #1
   1cdac:	ea7f 5c6c 	mvns.w	ip, ip, asr #21
   1cdb0:	d102      	bne.n	1cdb8 <__cmpdf2+0x64>
   1cdb2:	ea50 3c01 	orrs.w	ip, r0, r1, lsl #12
   1cdb6:	d107      	bne.n	1cdc8 <__cmpdf2+0x74>
   1cdb8:	ea4f 0c43 	mov.w	ip, r3, lsl #1
   1cdbc:	ea7f 5c6c 	mvns.w	ip, ip, asr #21
   1cdc0:	d1d6      	bne.n	1cd70 <__cmpdf2+0x1c>
   1cdc2:	ea52 3c03 	orrs.w	ip, r2, r3, lsl #12
   1cdc6:	d0d3      	beq.n	1cd70 <__cmpdf2+0x1c>
   1cdc8:	f85d 0b04 	ldr.w	r0, [sp], #4
   1cdcc:	4770      	bx	lr
   1cdce:	bf00      	nop

0001cdd0 <__aeabi_cdrcmple>:
   1cdd0:	4684      	mov	ip, r0
   1cdd2:	4610      	mov	r0, r2
   1cdd4:	4662      	mov	r2, ip
   1cdd6:	468c      	mov	ip, r1
   1cdd8:	4619      	mov	r1, r3
   1cdda:	4663      	mov	r3, ip
   1cddc:	e000      	b.n	1cde0 <__aeabi_cdcmpeq>
   1cdde:	bf00      	nop

0001cde0 <__aeabi_cdcmpeq>:
   1cde0:	b501      	push	{r0, lr}
   1cde2:	f7ff ffb7 	bl	1cd54 <__cmpdf2>
   1cde6:	2800      	cmp	r0, #0
   1cde8:	bf48      	it	mi
   1cdea:	f110 0f00 	cmnmi.w	r0, #0
   1cdee:	bd01      	pop	{r0, pc}

0001cdf0 <__aeabi_dcmpeq>:
   1cdf0:	f84d ed08 	str.w	lr, [sp, #-8]!
   1cdf4:	f7ff fff4 	bl	1cde0 <__aeabi_cdcmpeq>
   1cdf8:	bf0c      	ite	eq
   1cdfa:	2001      	moveq	r0, #1
   1cdfc:	2000      	movne	r0, #0
   1cdfe:	f85d fb08 	ldr.w	pc, [sp], #8
   1ce02:	bf00      	nop

0001ce04 <__aeabi_dcmplt>:
   1ce04:	f84d ed08 	str.w	lr, [sp, #-8]!
   1ce08:	f7ff ffea 	bl	1cde0 <__aeabi_cdcmpeq>
   1ce0c:	bf34      	ite	cc
   1ce0e:	2001      	movcc	r0, #1
   1ce10:	2000      	movcs	r0, #0
   1ce12:	f85d fb08 	ldr.w	pc, [sp], #8
   1ce16:	bf00      	nop

0001ce18 <__aeabi_dcmple>:
   1ce18:	f84d ed08 	str.w	lr, [sp, #-8]!
   1ce1c:	f7ff ffe0 	bl	1cde0 <__aeabi_cdcmpeq>
   1ce20:	bf94      	ite	ls
   1ce22:	2001      	movls	r0, #1
   1ce24:	2000      	movhi	r0, #0
   1ce26:	f85d fb08 	ldr.w	pc, [sp], #8
   1ce2a:	bf00      	nop

0001ce2c <__aeabi_dcmpge>:
   1ce2c:	f84d ed08 	str.w	lr, [sp, #-8]!
   1ce30:	f7ff ffce 	bl	1cdd0 <__aeabi_cdrcmple>
   1ce34:	bf94      	ite	ls
   1ce36:	2001      	movls	r0, #1
   1ce38:	2000      	movhi	r0, #0
   1ce3a:	f85d fb08 	ldr.w	pc, [sp], #8
   1ce3e:	bf00      	nop

0001ce40 <__aeabi_dcmpgt>:
   1ce40:	f84d ed08 	str.w	lr, [sp, #-8]!
   1ce44:	f7ff ffc4 	bl	1cdd0 <__aeabi_cdrcmple>
   1ce48:	bf34      	ite	cc
   1ce4a:	2001      	movcc	r0, #1
   1ce4c:	2000      	movcs	r0, #0
   1ce4e:	f85d fb08 	ldr.w	pc, [sp], #8
   1ce52:	bf00      	nop

0001ce54 <__aeabi_dcmpun>:
   1ce54:	ea4f 0c41 	mov.w	ip, r1, lsl #1
   1ce58:	ea7f 5c6c 	mvns.w	ip, ip, asr #21
   1ce5c:	d102      	bne.n	1ce64 <__aeabi_dcmpun+0x10>
   1ce5e:	ea50 3c01 	orrs.w	ip, r0, r1, lsl #12
   1ce62:	d10a      	bne.n	1ce7a <__aeabi_dcmpun+0x26>
   1ce64:	ea4f 0c43 	mov.w	ip, r3, lsl #1
   1ce68:	ea7f 5c6c 	mvns.w	ip, ip, asr #21
   1ce6c:	d102      	bne.n	1ce74 <__aeabi_dcmpun+0x20>
   1ce6e:	ea52 3c03 	orrs.w	ip, r2, r3, lsl #12
   1ce72:	d102      	bne.n	1ce7a <__aeabi_dcmpun+0x26>
   1ce74:	f04f 0000 	mov.w	r0, #0
   1ce78:	4770      	bx	lr
   1ce7a:	f04f 0001 	mov.w	r0, #1
   1ce7e:	4770      	bx	lr

0001ce80 <__aeabi_d2iz>:
   1ce80:	ea4f 0241 	mov.w	r2, r1, lsl #1
   1ce84:	f512 1200 	adds.w	r2, r2, #2097152	; 0x200000
   1ce88:	d215      	bcs.n	1ceb6 <__aeabi_d2iz+0x36>
   1ce8a:	d511      	bpl.n	1ceb0 <__aeabi_d2iz+0x30>
   1ce8c:	f46f 7378 	mvn.w	r3, #992	; 0x3e0
   1ce90:	ebb3 5262 	subs.w	r2, r3, r2, asr #21
   1ce94:	d912      	bls.n	1cebc <__aeabi_d2iz+0x3c>
   1ce96:	ea4f 23c1 	mov.w	r3, r1, lsl #11
   1ce9a:	f043 4300 	orr.w	r3, r3, #2147483648	; 0x80000000
   1ce9e:	ea43 5350 	orr.w	r3, r3, r0, lsr #21
   1cea2:	f011 4f00 	tst.w	r1, #2147483648	; 0x80000000
   1cea6:	fa23 f002 	lsr.w	r0, r3, r2
   1ceaa:	bf18      	it	ne
   1ceac:	4240      	negne	r0, r0
   1ceae:	4770      	bx	lr
   1ceb0:	f04f 0000 	mov.w	r0, #0
   1ceb4:	4770      	bx	lr
   1ceb6:	ea50 3001 	orrs.w	r0, r0, r1, lsl #12
   1ceba:	d105      	bne.n	1cec8 <__aeabi_d2iz+0x48>
   1cebc:	f011 4000 	ands.w	r0, r1, #2147483648	; 0x80000000
   1cec0:	bf08      	it	eq
   1cec2:	f06f 4000 	mvneq.w	r0, #2147483648	; 0x80000000
   1cec6:	4770      	bx	lr
   1cec8:	f04f 0000 	mov.w	r0, #0
   1cecc:	4770      	bx	lr
   1cece:	bf00      	nop

0001ced0 <__aeabi_d2f>:
   1ced0:	ea4f 0241 	mov.w	r2, r1, lsl #1
   1ced4:	f1b2 43e0 	subs.w	r3, r2, #1879048192	; 0x70000000
   1ced8:	bf24      	itt	cs
   1ceda:	f5b3 1c00 	subscs.w	ip, r3, #2097152	; 0x200000
   1cede:	f1dc 5cfe 	rsbscs	ip, ip, #532676608	; 0x1fc00000
   1cee2:	d90d      	bls.n	1cf00 <__aeabi_d2f+0x30>
   1cee4:	f001 4c00 	and.w	ip, r1, #2147483648	; 0x80000000
   1cee8:	ea4f 02c0 	mov.w	r2, r0, lsl #3
   1ceec:	ea4c 7050 	orr.w	r0, ip, r0, lsr #29
   1cef0:	f1b2 4f00 	cmp.w	r2, #2147483648	; 0x80000000
   1cef4:	eb40 0083 	adc.w	r0, r0, r3, lsl #2
   1cef8:	bf08      	it	eq
   1cefa:	f020 0001 	biceq.w	r0, r0, #1
   1cefe:	4770      	bx	lr
   1cf00:	f011 4f80 	tst.w	r1, #1073741824	; 0x40000000
   1cf04:	d121      	bne.n	1cf4a <__aeabi_d2f+0x7a>
   1cf06:	f113 7238 	adds.w	r2, r3, #48234496	; 0x2e00000
   1cf0a:	bfbc      	itt	lt
   1cf0c:	f001 4000 	andlt.w	r0, r1, #2147483648	; 0x80000000
   1cf10:	4770      	bxlt	lr
   1cf12:	f441 1180 	orr.w	r1, r1, #1048576	; 0x100000
   1cf16:	ea4f 5252 	mov.w	r2, r2, lsr #21
   1cf1a:	f1c2 0218 	rsb	r2, r2, #24
   1cf1e:	f1c2 0c20 	rsb	ip, r2, #32
   1cf22:	fa10 f30c 	lsls.w	r3, r0, ip
   1cf26:	fa20 f002 	lsr.w	r0, r0, r2
   1cf2a:	bf18      	it	ne
   1cf2c:	f040 0001 	orrne.w	r0, r0, #1
   1cf30:	ea4f 23c1 	mov.w	r3, r1, lsl #11
   1cf34:	ea4f 23d3 	mov.w	r3, r3, lsr #11
   1cf38:	fa03 fc0c 	lsl.w	ip, r3, ip
   1cf3c:	ea40 000c 	orr.w	r0, r0, ip
   1cf40:	fa23 f302 	lsr.w	r3, r3, r2
   1cf44:	ea4f 0343 	mov.w	r3, r3, lsl #1
   1cf48:	e7cc      	b.n	1cee4 <__aeabi_d2f+0x14>
   1cf4a:	ea7f 5362 	mvns.w	r3, r2, asr #21
   1cf4e:	d107      	bne.n	1cf60 <__aeabi_d2f+0x90>
   1cf50:	ea50 3301 	orrs.w	r3, r0, r1, lsl #12
   1cf54:	bf1e      	ittt	ne
   1cf56:	f04f 40fe 	movne.w	r0, #2130706432	; 0x7f000000
   1cf5a:	f440 0040 	orrne.w	r0, r0, #12582912	; 0xc00000
   1cf5e:	4770      	bxne	lr
   1cf60:	f001 4000 	and.w	r0, r1, #2147483648	; 0x80000000
   1cf64:	f040 40fe 	orr.w	r0, r0, #2130706432	; 0x7f000000
   1cf68:	f440 0000 	orr.w	r0, r0, #8388608	; 0x800000
   1cf6c:	4770      	bx	lr
   1cf6e:	bf00      	nop

0001cf70 <__aeabi_frsub>:
   1cf70:	f080 4000 	eor.w	r0, r0, #2147483648	; 0x80000000
   1cf74:	e002      	b.n	1cf7c <__addsf3>
   1cf76:	bf00      	nop

0001cf78 <__aeabi_fsub>:
   1cf78:	f081 4100 	eor.w	r1, r1, #2147483648	; 0x80000000

0001cf7c <__addsf3>:
   1cf7c:	0042      	lsls	r2, r0, #1
   1cf7e:	bf1f      	itttt	ne
   1cf80:	ea5f 0341 	movsne.w	r3, r1, lsl #1
   1cf84:	ea92 0f03 	teqne	r2, r3
   1cf88:	ea7f 6c22 	mvnsne.w	ip, r2, asr #24
   1cf8c:	ea7f 6c23 	mvnsne.w	ip, r3, asr #24
   1cf90:	d06a      	beq.n	1d068 <__addsf3+0xec>
   1cf92:	ea4f 6212 	mov.w	r2, r2, lsr #24
   1cf96:	ebd2 6313 	rsbs	r3, r2, r3, lsr #24
   1cf9a:	bfc1      	itttt	gt
   1cf9c:	18d2      	addgt	r2, r2, r3
   1cf9e:	4041      	eorgt	r1, r0
   1cfa0:	4048      	eorgt	r0, r1
   1cfa2:	4041      	eorgt	r1, r0
   1cfa4:	bfb8      	it	lt
   1cfa6:	425b      	neglt	r3, r3
   1cfa8:	2b19      	cmp	r3, #25
   1cfaa:	bf88      	it	hi
   1cfac:	4770      	bxhi	lr
   1cfae:	f010 4f00 	tst.w	r0, #2147483648	; 0x80000000
   1cfb2:	f440 0000 	orr.w	r0, r0, #8388608	; 0x800000
   1cfb6:	f020 407f 	bic.w	r0, r0, #4278190080	; 0xff000000
   1cfba:	bf18      	it	ne
   1cfbc:	4240      	negne	r0, r0
   1cfbe:	f011 4f00 	tst.w	r1, #2147483648	; 0x80000000
   1cfc2:	f441 0100 	orr.w	r1, r1, #8388608	; 0x800000
   1cfc6:	f021 417f 	bic.w	r1, r1, #4278190080	; 0xff000000
   1cfca:	bf18      	it	ne
   1cfcc:	4249      	negne	r1, r1
   1cfce:	ea92 0f03 	teq	r2, r3
   1cfd2:	d03f      	beq.n	1d054 <__addsf3+0xd8>
   1cfd4:	f1a2 0201 	sub.w	r2, r2, #1
   1cfd8:	fa41 fc03 	asr.w	ip, r1, r3
   1cfdc:	eb10 000c 	adds.w	r0, r0, ip
   1cfe0:	f1c3 0320 	rsb	r3, r3, #32
   1cfe4:	fa01 f103 	lsl.w	r1, r1, r3
   1cfe8:	f000 4300 	and.w	r3, r0, #2147483648	; 0x80000000
   1cfec:	d502      	bpl.n	1cff4 <__addsf3+0x78>
   1cfee:	4249      	negs	r1, r1
   1cff0:	eb60 0040 	sbc.w	r0, r0, r0, lsl #1
   1cff4:	f5b0 0f00 	cmp.w	r0, #8388608	; 0x800000
   1cff8:	d313      	bcc.n	1d022 <__addsf3+0xa6>
   1cffa:	f1b0 7f80 	cmp.w	r0, #16777216	; 0x1000000
   1cffe:	d306      	bcc.n	1d00e <__addsf3+0x92>
   1d000:	0840      	lsrs	r0, r0, #1
   1d002:	ea4f 0131 	mov.w	r1, r1, rrx
   1d006:	f102 0201 	add.w	r2, r2, #1
   1d00a:	2afe      	cmp	r2, #254	; 0xfe
   1d00c:	d251      	bcs.n	1d0b2 <__addsf3+0x136>
   1d00e:	f1b1 4f00 	cmp.w	r1, #2147483648	; 0x80000000
   1d012:	eb40 50c2 	adc.w	r0, r0, r2, lsl #23
   1d016:	bf08      	it	eq
   1d018:	f020 0001 	biceq.w	r0, r0, #1
   1d01c:	ea40 0003 	orr.w	r0, r0, r3
   1d020:	4770      	bx	lr
   1d022:	0049      	lsls	r1, r1, #1
   1d024:	eb40 0000 	adc.w	r0, r0, r0
   1d028:	3a01      	subs	r2, #1
   1d02a:	bf28      	it	cs
   1d02c:	f5b0 0f00 	cmpcs.w	r0, #8388608	; 0x800000
   1d030:	d2ed      	bcs.n	1d00e <__addsf3+0x92>
   1d032:	fab0 fc80 	clz	ip, r0
   1d036:	f1ac 0c08 	sub.w	ip, ip, #8
   1d03a:	ebb2 020c 	subs.w	r2, r2, ip
   1d03e:	fa00 f00c 	lsl.w	r0, r0, ip
   1d042:	bfaa      	itet	ge
   1d044:	eb00 50c2 	addge.w	r0, r0, r2, lsl #23
   1d048:	4252      	neglt	r2, r2
   1d04a:	4318      	orrge	r0, r3
   1d04c:	bfbc      	itt	lt
   1d04e:	40d0      	lsrlt	r0, r2
   1d050:	4318      	orrlt	r0, r3
   1d052:	4770      	bx	lr
   1d054:	f092 0f00 	teq	r2, #0
   1d058:	f481 0100 	eor.w	r1, r1, #8388608	; 0x800000
   1d05c:	bf06      	itte	eq
   1d05e:	f480 0000 	eoreq.w	r0, r0, #8388608	; 0x800000
   1d062:	3201      	addeq	r2, #1
   1d064:	3b01      	subne	r3, #1
   1d066:	e7b5      	b.n	1cfd4 <__addsf3+0x58>
   1d068:	ea4f 0341 	mov.w	r3, r1, lsl #1
   1d06c:	ea7f 6c22 	mvns.w	ip, r2, asr #24
   1d070:	bf18      	it	ne
   1d072:	ea7f 6c23 	mvnsne.w	ip, r3, asr #24
   1d076:	d021      	beq.n	1d0bc <__addsf3+0x140>
   1d078:	ea92 0f03 	teq	r2, r3
   1d07c:	d004      	beq.n	1d088 <__addsf3+0x10c>
   1d07e:	f092 0f00 	teq	r2, #0
   1d082:	bf08      	it	eq
   1d084:	4608      	moveq	r0, r1
   1d086:	4770      	bx	lr
   1d088:	ea90 0f01 	teq	r0, r1
   1d08c:	bf1c      	itt	ne
   1d08e:	2000      	movne	r0, #0
   1d090:	4770      	bxne	lr
   1d092:	f012 4f7f 	tst.w	r2, #4278190080	; 0xff000000
   1d096:	d104      	bne.n	1d0a2 <__addsf3+0x126>
   1d098:	0040      	lsls	r0, r0, #1
   1d09a:	bf28      	it	cs
   1d09c:	f040 4000 	orrcs.w	r0, r0, #2147483648	; 0x80000000
   1d0a0:	4770      	bx	lr
   1d0a2:	f112 7200 	adds.w	r2, r2, #33554432	; 0x2000000
   1d0a6:	bf3c      	itt	cc
   1d0a8:	f500 0000 	addcc.w	r0, r0, #8388608	; 0x800000
   1d0ac:	4770      	bxcc	lr
   1d0ae:	f000 4300 	and.w	r3, r0, #2147483648	; 0x80000000
   1d0b2:	f043 40fe 	orr.w	r0, r3, #2130706432	; 0x7f000000
   1d0b6:	f440 0000 	orr.w	r0, r0, #8388608	; 0x800000
   1d0ba:	4770      	bx	lr
   1d0bc:	ea7f 6222 	mvns.w	r2, r2, asr #24
   1d0c0:	bf16      	itet	ne
   1d0c2:	4608      	movne	r0, r1
   1d0c4:	ea7f 6323 	mvnseq.w	r3, r3, asr #24
   1d0c8:	4601      	movne	r1, r0
   1d0ca:	0242      	lsls	r2, r0, #9
   1d0cc:	bf06      	itte	eq
   1d0ce:	ea5f 2341 	movseq.w	r3, r1, lsl #9
   1d0d2:	ea90 0f01 	teqeq	r0, r1
   1d0d6:	f440 0080 	orrne.w	r0, r0, #4194304	; 0x400000
   1d0da:	4770      	bx	lr

0001d0dc <__aeabi_ui2f>:
   1d0dc:	f04f 0300 	mov.w	r3, #0
   1d0e0:	e004      	b.n	1d0ec <__aeabi_i2f+0x8>
   1d0e2:	bf00      	nop

0001d0e4 <__aeabi_i2f>:
   1d0e4:	f010 4300 	ands.w	r3, r0, #2147483648	; 0x80000000
   1d0e8:	bf48      	it	mi
   1d0ea:	4240      	negmi	r0, r0
   1d0ec:	ea5f 0c00 	movs.w	ip, r0
   1d0f0:	bf08      	it	eq
   1d0f2:	4770      	bxeq	lr
   1d0f4:	f043 4396 	orr.w	r3, r3, #1258291200	; 0x4b000000
   1d0f8:	4601      	mov	r1, r0
   1d0fa:	f04f 0000 	mov.w	r0, #0
   1d0fe:	e01c      	b.n	1d13a <__aeabi_l2f+0x2a>

0001d100 <__aeabi_ul2f>:
   1d100:	ea50 0201 	orrs.w	r2, r0, r1
   1d104:	bf08      	it	eq
   1d106:	4770      	bxeq	lr
   1d108:	f04f 0300 	mov.w	r3, #0
   1d10c:	e00a      	b.n	1d124 <__aeabi_l2f+0x14>
   1d10e:	bf00      	nop

0001d110 <__aeabi_l2f>:
   1d110:	ea50 0201 	orrs.w	r2, r0, r1
   1d114:	bf08      	it	eq
   1d116:	4770      	bxeq	lr
   1d118:	f011 4300 	ands.w	r3, r1, #2147483648	; 0x80000000
   1d11c:	d502      	bpl.n	1d124 <__aeabi_l2f+0x14>
   1d11e:	4240      	negs	r0, r0
   1d120:	eb61 0141 	sbc.w	r1, r1, r1, lsl #1
   1d124:	ea5f 0c01 	movs.w	ip, r1
   1d128:	bf02      	ittt	eq
   1d12a:	4684      	moveq	ip, r0
   1d12c:	4601      	moveq	r1, r0
   1d12e:	2000      	moveq	r0, #0
   1d130:	f043 43b6 	orr.w	r3, r3, #1526726656	; 0x5b000000
   1d134:	bf08      	it	eq
   1d136:	f1a3 5380 	subeq.w	r3, r3, #268435456	; 0x10000000
   1d13a:	f5a3 0300 	sub.w	r3, r3, #8388608	; 0x800000
   1d13e:	fabc f28c 	clz	r2, ip
   1d142:	3a08      	subs	r2, #8
   1d144:	eba3 53c2 	sub.w	r3, r3, r2, lsl #23
   1d148:	db10      	blt.n	1d16c <__aeabi_l2f+0x5c>
   1d14a:	fa01 fc02 	lsl.w	ip, r1, r2
   1d14e:	4463      	add	r3, ip
   1d150:	fa00 fc02 	lsl.w	ip, r0, r2
   1d154:	f1c2 0220 	rsb	r2, r2, #32
   1d158:	f1bc 4f00 	cmp.w	ip, #2147483648	; 0x80000000
   1d15c:	fa20 f202 	lsr.w	r2, r0, r2
   1d160:	eb43 0002 	adc.w	r0, r3, r2
   1d164:	bf08      	it	eq
   1d166:	f020 0001 	biceq.w	r0, r0, #1
   1d16a:	4770      	bx	lr
   1d16c:	f102 0220 	add.w	r2, r2, #32
   1d170:	fa01 fc02 	lsl.w	ip, r1, r2
   1d174:	f1c2 0220 	rsb	r2, r2, #32
   1d178:	ea50 004c 	orrs.w	r0, r0, ip, lsl #1
   1d17c:	fa21 f202 	lsr.w	r2, r1, r2
   1d180:	eb43 0002 	adc.w	r0, r3, r2
   1d184:	bf08      	it	eq
   1d186:	ea20 70dc 	biceq.w	r0, r0, ip, lsr #31
   1d18a:	4770      	bx	lr

0001d18c <__aeabi_ldivmod>:
   1d18c:	b97b      	cbnz	r3, 1d1ae <__aeabi_ldivmod+0x22>
   1d18e:	b972      	cbnz	r2, 1d1ae <__aeabi_ldivmod+0x22>
   1d190:	2900      	cmp	r1, #0
   1d192:	bfbe      	ittt	lt
   1d194:	2000      	movlt	r0, #0
   1d196:	f04f 4100 	movlt.w	r1, #2147483648	; 0x80000000
   1d19a:	e006      	blt.n	1d1aa <__aeabi_ldivmod+0x1e>
   1d19c:	bf08      	it	eq
   1d19e:	2800      	cmpeq	r0, #0
   1d1a0:	bf1c      	itt	ne
   1d1a2:	f06f 4100 	mvnne.w	r1, #2147483648	; 0x80000000
   1d1a6:	f04f 30ff 	movne.w	r0, #4294967295
   1d1aa:	f000 b875 	b.w	1d298 <__aeabi_idiv0>
   1d1ae:	f1ad 0c08 	sub.w	ip, sp, #8
   1d1b2:	e96d ce04 	strd	ip, lr, [sp, #-16]!
   1d1b6:	2900      	cmp	r1, #0
   1d1b8:	db09      	blt.n	1d1ce <__aeabi_ldivmod+0x42>
   1d1ba:	2b00      	cmp	r3, #0
   1d1bc:	db1a      	blt.n	1d1f4 <__aeabi_ldivmod+0x68>
   1d1be:	f000 f8a6 	bl	1d30e <__udivmoddi4>
   1d1c2:	f8dd e004 	ldr.w	lr, [sp, #4]
   1d1c6:	e9dd 2302 	ldrd	r2, r3, [sp, #8]
   1d1ca:	b004      	add	sp, #16
   1d1cc:	4770      	bx	lr
   1d1ce:	4240      	negs	r0, r0
   1d1d0:	eb61 0141 	sbc.w	r1, r1, r1, lsl #1
   1d1d4:	2b00      	cmp	r3, #0
   1d1d6:	db1b      	blt.n	1d210 <__aeabi_ldivmod+0x84>
   1d1d8:	f000 f899 	bl	1d30e <__udivmoddi4>
   1d1dc:	f8dd e004 	ldr.w	lr, [sp, #4]
   1d1e0:	e9dd 2302 	ldrd	r2, r3, [sp, #8]
   1d1e4:	b004      	add	sp, #16
   1d1e6:	4240      	negs	r0, r0
   1d1e8:	eb61 0141 	sbc.w	r1, r1, r1, lsl #1
   1d1ec:	4252      	negs	r2, r2
   1d1ee:	eb63 0343 	sbc.w	r3, r3, r3, lsl #1
   1d1f2:	4770      	bx	lr
   1d1f4:	4252      	negs	r2, r2
   1d1f6:	eb63 0343 	sbc.w	r3, r3, r3, lsl #1
   1d1fa:	f000 f888 	bl	1d30e <__udivmoddi4>
   1d1fe:	f8dd e004 	ldr.w	lr, [sp, #4]
   1d202:	e9dd 2302 	ldrd	r2, r3, [sp, #8]
   1d206:	b004      	add	sp, #16
   1d208:	4240      	negs	r0, r0
   1d20a:	eb61 0141 	sbc.w	r1, r1, r1, lsl #1
   1d20e:	4770      	bx	lr
   1d210:	4252      	negs	r2, r2
   1d212:	eb63 0343 	sbc.w	r3, r3, r3, lsl #1
   1d216:	f000 f87a 	bl	1d30e <__udivmoddi4>
   1d21a:	f8dd e004 	ldr.w	lr, [sp, #4]
   1d21e:	e9dd 2302 	ldrd	r2, r3, [sp, #8]
   1d222:	b004      	add	sp, #16
   1d224:	4252      	negs	r2, r2
   1d226:	eb63 0343 	sbc.w	r3, r3, r3, lsl #1
   1d22a:	4770      	bx	lr

0001d22c <__aeabi_uldivmod>:
   1d22c:	b953      	cbnz	r3, 1d244 <__aeabi_uldivmod+0x18>
   1d22e:	b94a      	cbnz	r2, 1d244 <__aeabi_uldivmod+0x18>
   1d230:	2900      	cmp	r1, #0
   1d232:	bf08      	it	eq
   1d234:	2800      	cmpeq	r0, #0
   1d236:	bf1c      	itt	ne
   1d238:	f04f 31ff 	movne.w	r1, #4294967295
   1d23c:	f04f 30ff 	movne.w	r0, #4294967295
   1d240:	f000 b82a 	b.w	1d298 <__aeabi_idiv0>
   1d244:	f1ad 0c08 	sub.w	ip, sp, #8
   1d248:	e96d ce04 	strd	ip, lr, [sp, #-16]!
   1d24c:	f000 f85f 	bl	1d30e <__udivmoddi4>
   1d250:	f8dd e004 	ldr.w	lr, [sp, #4]
   1d254:	e9dd 2302 	ldrd	r2, r3, [sp, #8]
   1d258:	b004      	add	sp, #16
   1d25a:	4770      	bx	lr

0001d25c <__aeabi_d2ulz>:
   1d25c:	b5d0      	push	{r4, r6, r7, lr}
   1d25e:	2200      	movs	r2, #0
   1d260:	4b0b      	ldr	r3, [pc, #44]	; (1d290 <__aeabi_d2ulz+0x34>)
   1d262:	4606      	mov	r6, r0
   1d264:	460f      	mov	r7, r1
   1d266:	f7ff fb5b 	bl	1c920 <__aeabi_dmul>
   1d26a:	f000 f817 	bl	1d29c <__aeabi_d2uiz>
   1d26e:	4604      	mov	r4, r0
   1d270:	f7ff fadc 	bl	1c82c <__aeabi_ui2d>
   1d274:	2200      	movs	r2, #0
   1d276:	4b07      	ldr	r3, [pc, #28]	; (1d294 <__aeabi_d2ulz+0x38>)
   1d278:	f7ff fb52 	bl	1c920 <__aeabi_dmul>
   1d27c:	4602      	mov	r2, r0
   1d27e:	460b      	mov	r3, r1
   1d280:	4630      	mov	r0, r6
   1d282:	4639      	mov	r1, r7
   1d284:	f7ff f994 	bl	1c5b0 <__aeabi_dsub>
   1d288:	f000 f808 	bl	1d29c <__aeabi_d2uiz>
   1d28c:	4621      	mov	r1, r4
   1d28e:	bdd0      	pop	{r4, r6, r7, pc}
   1d290:	3df00000 	.word	0x3df00000
   1d294:	41f00000 	.word	0x41f00000

0001d298 <__aeabi_idiv0>:
   1d298:	4770      	bx	lr
   1d29a:	bf00      	nop

0001d29c <__aeabi_d2uiz>:
   1d29c:	004a      	lsls	r2, r1, #1
   1d29e:	d211      	bcs.n	1d2c4 <__aeabi_d2uiz+0x28>
   1d2a0:	f512 1200 	adds.w	r2, r2, #2097152	; 0x200000
   1d2a4:	d211      	bcs.n	1d2ca <__aeabi_d2uiz+0x2e>
   1d2a6:	d50d      	bpl.n	1d2c4 <__aeabi_d2uiz+0x28>
   1d2a8:	f46f 7378 	mvn.w	r3, #992	; 0x3e0
   1d2ac:	ebb3 5262 	subs.w	r2, r3, r2, asr #21
   1d2b0:	d40e      	bmi.n	1d2d0 <__aeabi_d2uiz+0x34>
   1d2b2:	ea4f 23c1 	mov.w	r3, r1, lsl #11
   1d2b6:	f043 4300 	orr.w	r3, r3, #2147483648	; 0x80000000
   1d2ba:	ea43 5350 	orr.w	r3, r3, r0, lsr #21
   1d2be:	fa23 f002 	lsr.w	r0, r3, r2
   1d2c2:	4770      	bx	lr
   1d2c4:	f04f 0000 	mov.w	r0, #0
   1d2c8:	4770      	bx	lr
   1d2ca:	ea50 3001 	orrs.w	r0, r0, r1, lsl #12
   1d2ce:	d102      	bne.n	1d2d6 <__aeabi_d2uiz+0x3a>
   1d2d0:	f04f 30ff 	mov.w	r0, #4294967295
   1d2d4:	4770      	bx	lr
   1d2d6:	f04f 0000 	mov.w	r0, #0
   1d2da:	4770      	bx	lr

0001d2dc <__aeabi_d2lz>:
   1d2dc:	b538      	push	{r3, r4, r5, lr}
   1d2de:	4605      	mov	r5, r0
   1d2e0:	460c      	mov	r4, r1
   1d2e2:	2200      	movs	r2, #0
   1d2e4:	2300      	movs	r3, #0
   1d2e6:	4628      	mov	r0, r5
   1d2e8:	4621      	mov	r1, r4
   1d2ea:	f7ff fd8b 	bl	1ce04 <__aeabi_dcmplt>
   1d2ee:	b928      	cbnz	r0, 1d2fc <__aeabi_d2lz+0x20>
   1d2f0:	4628      	mov	r0, r5
   1d2f2:	4621      	mov	r1, r4
   1d2f4:	e8bd 4038 	ldmia.w	sp!, {r3, r4, r5, lr}
   1d2f8:	f7ff bfb0 	b.w	1d25c <__aeabi_d2ulz>
   1d2fc:	4628      	mov	r0, r5
   1d2fe:	f104 4100 	add.w	r1, r4, #2147483648	; 0x80000000
   1d302:	f7ff ffab 	bl	1d25c <__aeabi_d2ulz>
   1d306:	4240      	negs	r0, r0
   1d308:	eb61 0141 	sbc.w	r1, r1, r1, lsl #1
   1d30c:	bd38      	pop	{r3, r4, r5, pc}

0001d30e <__udivmoddi4>:
   1d30e:	e92d 4ff0 	stmdb	sp!, {r4, r5, r6, r7, r8, r9, sl, fp, lr}
   1d312:	4607      	mov	r7, r0
   1d314:	468c      	mov	ip, r1
   1d316:	4608      	mov	r0, r1
   1d318:	9e09      	ldr	r6, [sp, #36]	; 0x24
   1d31a:	4615      	mov	r5, r2
   1d31c:	463c      	mov	r4, r7
   1d31e:	4619      	mov	r1, r3
   1d320:	2b00      	cmp	r3, #0
   1d322:	f040 80c5 	bne.w	1d4b0 <__udivmoddi4+0x1a2>
   1d326:	4282      	cmp	r2, r0
   1d328:	fab2 f782 	clz	r7, r2
   1d32c:	d946      	bls.n	1d3bc <__udivmoddi4+0xae>
   1d32e:	b14f      	cbz	r7, 1d344 <__udivmoddi4+0x36>
   1d330:	f1c7 0e20 	rsb	lr, r7, #32
   1d334:	fa00 f307 	lsl.w	r3, r0, r7
   1d338:	40bd      	lsls	r5, r7
   1d33a:	fa24 fe0e 	lsr.w	lr, r4, lr
   1d33e:	40bc      	lsls	r4, r7
   1d340:	ea4e 0c03 	orr.w	ip, lr, r3
   1d344:	ea4f 4815 	mov.w	r8, r5, lsr #16
   1d348:	fa1f fe85 	uxth.w	lr, r5
   1d34c:	0c22      	lsrs	r2, r4, #16
   1d34e:	fbbc f9f8 	udiv	r9, ip, r8
   1d352:	fb08 c319 	mls	r3, r8, r9, ip
   1d356:	fb09 fa0e 	mul.w	sl, r9, lr
   1d35a:	ea42 4303 	orr.w	r3, r2, r3, lsl #16
   1d35e:	459a      	cmp	sl, r3
   1d360:	d928      	bls.n	1d3b4 <__udivmoddi4+0xa6>
   1d362:	18eb      	adds	r3, r5, r3
   1d364:	f109 30ff 	add.w	r0, r9, #4294967295
   1d368:	d204      	bcs.n	1d374 <__udivmoddi4+0x66>
   1d36a:	459a      	cmp	sl, r3
   1d36c:	d902      	bls.n	1d374 <__udivmoddi4+0x66>
   1d36e:	f1a9 0002 	sub.w	r0, r9, #2
   1d372:	442b      	add	r3, r5
   1d374:	eba3 030a 	sub.w	r3, r3, sl
   1d378:	b2a4      	uxth	r4, r4
   1d37a:	fbb3 f2f8 	udiv	r2, r3, r8
   1d37e:	fb08 3312 	mls	r3, r8, r2, r3
   1d382:	fb02 fe0e 	mul.w	lr, r2, lr
   1d386:	ea44 4403 	orr.w	r4, r4, r3, lsl #16
   1d38a:	45a6      	cmp	lr, r4
   1d38c:	d914      	bls.n	1d3b8 <__udivmoddi4+0xaa>
   1d38e:	192c      	adds	r4, r5, r4
   1d390:	f102 33ff 	add.w	r3, r2, #4294967295
   1d394:	d203      	bcs.n	1d39e <__udivmoddi4+0x90>
   1d396:	45a6      	cmp	lr, r4
   1d398:	d901      	bls.n	1d39e <__udivmoddi4+0x90>
   1d39a:	1e93      	subs	r3, r2, #2
   1d39c:	442c      	add	r4, r5
   1d39e:	eba4 040e 	sub.w	r4, r4, lr
   1d3a2:	ea43 4000 	orr.w	r0, r3, r0, lsl #16
   1d3a6:	b11e      	cbz	r6, 1d3b0 <__udivmoddi4+0xa2>
   1d3a8:	40fc      	lsrs	r4, r7
   1d3aa:	2300      	movs	r3, #0
   1d3ac:	6034      	str	r4, [r6, #0]
   1d3ae:	6073      	str	r3, [r6, #4]
   1d3b0:	e8bd 8ff0 	ldmia.w	sp!, {r4, r5, r6, r7, r8, r9, sl, fp, pc}
   1d3b4:	4648      	mov	r0, r9
   1d3b6:	e7dd      	b.n	1d374 <__udivmoddi4+0x66>
   1d3b8:	4613      	mov	r3, r2
   1d3ba:	e7f0      	b.n	1d39e <__udivmoddi4+0x90>
   1d3bc:	b902      	cbnz	r2, 1d3c0 <__udivmoddi4+0xb2>
   1d3be:	deff      	udf	#255	; 0xff
   1d3c0:	bb87      	cbnz	r7, 1d424 <__udivmoddi4+0x116>
   1d3c2:	1a83      	subs	r3, r0, r2
   1d3c4:	2101      	movs	r1, #1
   1d3c6:	ea4f 4e15 	mov.w	lr, r5, lsr #16
   1d3ca:	b2aa      	uxth	r2, r5
   1d3cc:	0c20      	lsrs	r0, r4, #16
   1d3ce:	fbb3 fcfe 	udiv	ip, r3, lr
   1d3d2:	fb0e 331c 	mls	r3, lr, ip, r3
   1d3d6:	fb0c f802 	mul.w	r8, ip, r2
   1d3da:	ea40 4303 	orr.w	r3, r0, r3, lsl #16
   1d3de:	4598      	cmp	r8, r3
   1d3e0:	d962      	bls.n	1d4a8 <__udivmoddi4+0x19a>
   1d3e2:	18eb      	adds	r3, r5, r3
   1d3e4:	f10c 30ff 	add.w	r0, ip, #4294967295
   1d3e8:	d204      	bcs.n	1d3f4 <__udivmoddi4+0xe6>
   1d3ea:	4598      	cmp	r8, r3
   1d3ec:	d902      	bls.n	1d3f4 <__udivmoddi4+0xe6>
   1d3ee:	f1ac 0002 	sub.w	r0, ip, #2
   1d3f2:	442b      	add	r3, r5
   1d3f4:	eba3 0308 	sub.w	r3, r3, r8
   1d3f8:	b2a4      	uxth	r4, r4
   1d3fa:	fbb3 fcfe 	udiv	ip, r3, lr
   1d3fe:	fb0e 331c 	mls	r3, lr, ip, r3
   1d402:	fb0c f202 	mul.w	r2, ip, r2
   1d406:	ea44 4403 	orr.w	r4, r4, r3, lsl #16
   1d40a:	42a2      	cmp	r2, r4
   1d40c:	d94e      	bls.n	1d4ac <__udivmoddi4+0x19e>
   1d40e:	192c      	adds	r4, r5, r4
   1d410:	f10c 33ff 	add.w	r3, ip, #4294967295
   1d414:	d204      	bcs.n	1d420 <__udivmoddi4+0x112>
   1d416:	42a2      	cmp	r2, r4
   1d418:	d902      	bls.n	1d420 <__udivmoddi4+0x112>
   1d41a:	f1ac 0302 	sub.w	r3, ip, #2
   1d41e:	442c      	add	r4, r5
   1d420:	1aa4      	subs	r4, r4, r2
   1d422:	e7be      	b.n	1d3a2 <__udivmoddi4+0x94>
   1d424:	f1c7 0c20 	rsb	ip, r7, #32
   1d428:	40bd      	lsls	r5, r7
   1d42a:	fa00 f307 	lsl.w	r3, r0, r7
   1d42e:	fa20 f80c 	lsr.w	r8, r0, ip
   1d432:	ea4f 4e15 	mov.w	lr, r5, lsr #16
   1d436:	fa24 fc0c 	lsr.w	ip, r4, ip
   1d43a:	40bc      	lsls	r4, r7
   1d43c:	ea4c 0203 	orr.w	r2, ip, r3
   1d440:	b2ab      	uxth	r3, r5
   1d442:	fbb8 fcfe 	udiv	ip, r8, lr
   1d446:	0c11      	lsrs	r1, r2, #16
   1d448:	fb0e 801c 	mls	r0, lr, ip, r8
   1d44c:	fb0c f903 	mul.w	r9, ip, r3
   1d450:	ea41 4000 	orr.w	r0, r1, r0, lsl #16
   1d454:	4581      	cmp	r9, r0
   1d456:	d923      	bls.n	1d4a0 <__udivmoddi4+0x192>
   1d458:	1828      	adds	r0, r5, r0
   1d45a:	f10c 31ff 	add.w	r1, ip, #4294967295
   1d45e:	d204      	bcs.n	1d46a <__udivmoddi4+0x15c>
   1d460:	4581      	cmp	r9, r0
   1d462:	d902      	bls.n	1d46a <__udivmoddi4+0x15c>
   1d464:	f1ac 0102 	sub.w	r1, ip, #2
   1d468:	4428      	add	r0, r5
   1d46a:	eba0 0009 	sub.w	r0, r0, r9
   1d46e:	b292      	uxth	r2, r2
   1d470:	fbb0 fcfe 	udiv	ip, r0, lr
   1d474:	fb0e 001c 	mls	r0, lr, ip, r0
   1d478:	fb0c f803 	mul.w	r8, ip, r3
   1d47c:	ea42 4300 	orr.w	r3, r2, r0, lsl #16
   1d480:	4598      	cmp	r8, r3
   1d482:	d90f      	bls.n	1d4a4 <__udivmoddi4+0x196>
   1d484:	18eb      	adds	r3, r5, r3
   1d486:	f10c 32ff 	add.w	r2, ip, #4294967295
   1d48a:	d204      	bcs.n	1d496 <__udivmoddi4+0x188>
   1d48c:	4598      	cmp	r8, r3
   1d48e:	d902      	bls.n	1d496 <__udivmoddi4+0x188>
   1d490:	f1ac 0202 	sub.w	r2, ip, #2
   1d494:	442b      	add	r3, r5
   1d496:	eba3 0308 	sub.w	r3, r3, r8
   1d49a:	ea42 4101 	orr.w	r1, r2, r1, lsl #16
   1d49e:	e792      	b.n	1d3c6 <__udivmoddi4+0xb8>
   1d4a0:	4661      	mov	r1, ip
   1d4a2:	e7e2      	b.n	1d46a <__udivmoddi4+0x15c>
   1d4a4:	4662      	mov	r2, ip
   1d4a6:	e7f6      	b.n	1d496 <__udivmoddi4+0x188>
   1d4a8:	4660      	mov	r0, ip
   1d4aa:	e7a3      	b.n	1d3f4 <__udivmoddi4+0xe6>
   1d4ac:	4663      	mov	r3, ip
   1d4ae:	e7b7      	b.n	1d420 <__udivmoddi4+0x112>
   1d4b0:	4283      	cmp	r3, r0
   1d4b2:	d905      	bls.n	1d4c0 <__udivmoddi4+0x1b2>
   1d4b4:	b10e      	cbz	r6, 1d4ba <__udivmoddi4+0x1ac>
   1d4b6:	e9c6 7000 	strd	r7, r0, [r6]
   1d4ba:	2100      	movs	r1, #0
   1d4bc:	4608      	mov	r0, r1
   1d4be:	e777      	b.n	1d3b0 <__udivmoddi4+0xa2>
   1d4c0:	fab3 f183 	clz	r1, r3
   1d4c4:	b981      	cbnz	r1, 1d4e8 <__udivmoddi4+0x1da>
   1d4c6:	4283      	cmp	r3, r0
   1d4c8:	d301      	bcc.n	1d4ce <__udivmoddi4+0x1c0>
   1d4ca:	42ba      	cmp	r2, r7
   1d4cc:	d80a      	bhi.n	1d4e4 <__udivmoddi4+0x1d6>
   1d4ce:	1abc      	subs	r4, r7, r2
   1d4d0:	eb60 0303 	sbc.w	r3, r0, r3
   1d4d4:	2001      	movs	r0, #1
   1d4d6:	469c      	mov	ip, r3
   1d4d8:	2e00      	cmp	r6, #0
   1d4da:	d067      	beq.n	1d5ac <__udivmoddi4+0x29e>
   1d4dc:	e9c6 4c00 	strd	r4, ip, [r6]
   1d4e0:	2100      	movs	r1, #0
   1d4e2:	e765      	b.n	1d3b0 <__udivmoddi4+0xa2>
   1d4e4:	4608      	mov	r0, r1
   1d4e6:	e7f7      	b.n	1d4d8 <__udivmoddi4+0x1ca>
   1d4e8:	f1c1 0c20 	rsb	ip, r1, #32
   1d4ec:	408b      	lsls	r3, r1
   1d4ee:	fa02 f501 	lsl.w	r5, r2, r1
   1d4f2:	fa22 f40c 	lsr.w	r4, r2, ip
   1d4f6:	fa20 fb0c 	lsr.w	fp, r0, ip
   1d4fa:	fa27 f20c 	lsr.w	r2, r7, ip
   1d4fe:	408f      	lsls	r7, r1
   1d500:	431c      	orrs	r4, r3
   1d502:	fa00 f301 	lsl.w	r3, r0, r1
   1d506:	ea4f 4914 	mov.w	r9, r4, lsr #16
   1d50a:	4313      	orrs	r3, r2
   1d50c:	fa1f fe84 	uxth.w	lr, r4
   1d510:	0c1a      	lsrs	r2, r3, #16
   1d512:	fbbb f8f9 	udiv	r8, fp, r9
   1d516:	fb09 bb18 	mls	fp, r9, r8, fp
   1d51a:	fb08 fa0e 	mul.w	sl, r8, lr
   1d51e:	ea42 420b 	orr.w	r2, r2, fp, lsl #16
   1d522:	4592      	cmp	sl, r2
   1d524:	d93e      	bls.n	1d5a4 <__udivmoddi4+0x296>
   1d526:	18a2      	adds	r2, r4, r2
   1d528:	f108 30ff 	add.w	r0, r8, #4294967295
   1d52c:	d204      	bcs.n	1d538 <__udivmoddi4+0x22a>
   1d52e:	4592      	cmp	sl, r2
   1d530:	d902      	bls.n	1d538 <__udivmoddi4+0x22a>
   1d532:	f1a8 0002 	sub.w	r0, r8, #2
   1d536:	4422      	add	r2, r4
   1d538:	eba2 020a 	sub.w	r2, r2, sl
   1d53c:	b29b      	uxth	r3, r3
   1d53e:	fbb2 f8f9 	udiv	r8, r2, r9
   1d542:	fb09 2218 	mls	r2, r9, r8, r2
   1d546:	fb08 fe0e 	mul.w	lr, r8, lr
   1d54a:	ea43 4202 	orr.w	r2, r3, r2, lsl #16
   1d54e:	4596      	cmp	lr, r2
   1d550:	d92a      	bls.n	1d5a8 <__udivmoddi4+0x29a>
   1d552:	18a2      	adds	r2, r4, r2
   1d554:	f108 33ff 	add.w	r3, r8, #4294967295
   1d558:	d204      	bcs.n	1d564 <__udivmoddi4+0x256>
   1d55a:	4596      	cmp	lr, r2
   1d55c:	d902      	bls.n	1d564 <__udivmoddi4+0x256>
   1d55e:	f1a8 0302 	sub.w	r3, r8, #2
   1d562:	4422      	add	r2, r4
   1d564:	ea43 4000 	orr.w	r0, r3, r0, lsl #16
   1d568:	eba2 020e 	sub.w	r2, r2, lr
   1d56c:	fba0 9305 	umull	r9, r3, r0, r5
   1d570:	429a      	cmp	r2, r3
   1d572:	46ce      	mov	lr, r9
   1d574:	4698      	mov	r8, r3
   1d576:	d302      	bcc.n	1d57e <__udivmoddi4+0x270>
   1d578:	d106      	bne.n	1d588 <__udivmoddi4+0x27a>
   1d57a:	454f      	cmp	r7, r9
   1d57c:	d204      	bcs.n	1d588 <__udivmoddi4+0x27a>
   1d57e:	3801      	subs	r0, #1
   1d580:	ebb9 0e05 	subs.w	lr, r9, r5
   1d584:	eb63 0804 	sbc.w	r8, r3, r4
   1d588:	b186      	cbz	r6, 1d5ac <__udivmoddi4+0x29e>
   1d58a:	ebb7 030e 	subs.w	r3, r7, lr
   1d58e:	eb62 0708 	sbc.w	r7, r2, r8
   1d592:	fa07 fc0c 	lsl.w	ip, r7, ip
   1d596:	40cb      	lsrs	r3, r1
   1d598:	40cf      	lsrs	r7, r1
   1d59a:	ea4c 0303 	orr.w	r3, ip, r3
   1d59e:	e9c6 3700 	strd	r3, r7, [r6]
   1d5a2:	e79d      	b.n	1d4e0 <__udivmoddi4+0x1d2>
   1d5a4:	4640      	mov	r0, r8
   1d5a6:	e7c7      	b.n	1d538 <__udivmoddi4+0x22a>
   1d5a8:	4643      	mov	r3, r8
   1d5aa:	e7db      	b.n	1d564 <__udivmoddi4+0x256>
   1d5ac:	4631      	mov	r1, r6
   1d5ae:	e6ff      	b.n	1d3b0 <__udivmoddi4+0xa2>

0001d5b0 <strcmp>:
   1d5b0:	f810 2b01 	ldrb.w	r2, [r0], #1
   1d5b4:	f811 3b01 	ldrb.w	r3, [r1], #1
   1d5b8:	2a01      	cmp	r2, #1
   1d5ba:	bf28      	it	cs
   1d5bc:	429a      	cmpcs	r2, r3
   1d5be:	d0f7      	beq.n	1d5b0 <strcmp>
   1d5c0:	1ad0      	subs	r0, r2, r3
   1d5c2:	4770      	bx	lr

0001d5c4 <strlen>:
   1d5c4:	4603      	mov	r3, r0
   1d5c6:	f813 2b01 	ldrb.w	r2, [r3], #1
   1d5ca:	2a00      	cmp	r2, #0
   1d5cc:	d1fb      	bne.n	1d5c6 <strlen+0x2>
   1d5ce:	1a18      	subs	r0, r3, r0
   1d5d0:	3801      	subs	r0, #1
   1d5d2:	4770      	bx	lr
   1d5d4:	0000      	movs	r0, r0
	...

0001d5d8 <clock_settime>:
int clock_settime(clockid_t clock_id, const struct timespec *tp)
{
	struct timespec base;
	k_spinlock_key_t key;

	if (clock_id != CLOCK_REALTIME) {
   1d5d8:	2801      	cmp	r0, #1
{
   1d5da:	b5f8      	push	{r3, r4, r5, r6, r7, lr}
   1d5dc:	460e      	mov	r6, r1
	if (clock_id != CLOCK_REALTIME) {
   1d5de:	d006      	beq.n	1d5ee <clock_settime+0x16>
		errno = EINVAL;
   1d5e0:	f016 faac 	bl	33b3c <__errno>
   1d5e4:	2316      	movs	r3, #22
   1d5e6:	6003      	str	r3, [r0, #0]
		return -1;
   1d5e8:	f04f 30ff 	mov.w	r0, #4294967295
	key = k_spin_lock(&rt_clock_base_lock);
	rt_clock_base = base;
	k_spin_unlock(&rt_clock_base_lock, key);

	return 0;
}
   1d5ec:	bdf8      	pop	{r3, r4, r5, r6, r7, pc}
		(void) arch_syscall_invoke1((uintptr_t)&ret64, K_SYSCALL_K_UPTIME_TICKS);
		return (int64_t) ret64;
	}
#endif
	compiler_barrier();
	return z_impl_k_uptime_ticks();
   1d5ee:	f019 fb83 	bl	36cf8 <z_impl_k_uptime_ticks>
	int64_t delta = (int64_t)NSEC_PER_SEC * tp->tv_sec + tp->tv_nsec
   1d5f2:	4a33      	ldr	r2, [pc, #204]	; (1d6c0 <clock_settime+0xe8>)
   1d5f4:	6833      	ldr	r3, [r6, #0]
   1d5f6:	6874      	ldr	r4, [r6, #4]
   1d5f8:	fba3 3502 	umull	r3, r5, r3, r2
   1d5fc:	68b6      	ldr	r6, [r6, #8]
   1d5fe:	fb02 5504 	mla	r5, r2, r4, r5
   1d602:	199c      	adds	r4, r3, r6
			return ((t * to_hz + off) / from_hz);
		} else {
			/* Slower algorithm but input is first divided before being multiplied
			 * which prevents overflow of intermediate value.
			 */
			return (t / from_hz) * to_hz + ((t % from_hz) * to_hz + off) / from_hz;
   1d604:	ea4f 33d0 	mov.w	r3, r0, lsr #15
   1d608:	ea43 4341 	orr.w	r3, r3, r1, lsl #17
   1d60c:	eb45 75e6 	adc.w	r5, r5, r6, asr #31
   1d610:	fba3 3602 	umull	r3, r6, r3, r2
   1d614:	0bc9      	lsrs	r1, r1, #15
   1d616:	f3c0 000e 	ubfx	r0, r0, #0, #15
   1d61a:	fb02 6101 	mla	r1, r2, r1, r6
   1d61e:	fba0 0202 	umull	r0, r2, r0, r2
		- elapsed_nsecs;
   1d622:	1ae4      	subs	r4, r4, r3
   1d624:	ea4f 33d0 	mov.w	r3, r0, lsr #15
   1d628:	ea43 4342 	orr.w	r3, r3, r2, lsl #17
   1d62c:	eb65 0501 	sbc.w	r5, r5, r1
   1d630:	1ae4      	subs	r4, r4, r3
   1d632:	f165 0500 	sbc.w	r5, r5, #0
	base.tv_sec = delta / NSEC_PER_SEC;
   1d636:	4620      	mov	r0, r4
   1d638:	a31f      	add	r3, pc, #124	; (adr r3, 1d6b8 <clock_settime+0xe0>)
   1d63a:	e9d3 2300 	ldrd	r2, r3, [r3]
   1d63e:	4629      	mov	r1, r5
   1d640:	f7ff fda4 	bl	1d18c <__aeabi_ldivmod>
	base.tv_nsec = delta % NSEC_PER_SEC;
   1d644:	a31c      	add	r3, pc, #112	; (adr r3, 1d6b8 <clock_settime+0xe0>)
   1d646:	e9d3 2300 	ldrd	r2, r3, [r3]
	base.tv_sec = delta / NSEC_PER_SEC;
   1d64a:	4607      	mov	r7, r0
   1d64c:	460e      	mov	r6, r1
	base.tv_nsec = delta % NSEC_PER_SEC;
   1d64e:	4620      	mov	r0, r4
   1d650:	4629      	mov	r1, r5
   1d652:	f7ff fd9b 	bl	1d18c <__aeabi_ldivmod>
   1d656:	4614      	mov	r4, r2
		:
		: "memory");
#elif defined(CONFIG_ARMV7_M_ARMV8_M_MAINLINE)
	unsigned int tmp;

	__asm__ volatile(
   1d658:	f04f 0320 	mov.w	r3, #32
   1d65c:	f3ef 8511 	mrs	r5, BASEPRI
   1d660:	f383 8812 	msr	BASEPRI_MAX, r3
   1d664:	f3bf 8f6f 	isb	sy
	 * actually a wrapper for a global spinlock!
	 */
	k.key = arch_irq_lock();

#ifdef CONFIG_SPIN_VALIDATE
	__ASSERT(z_spin_lock_valid(l), "Recursive spinlock %p", l);
   1d668:	4816      	ldr	r0, [pc, #88]	; (1d6c4 <clock_settime+0xec>)
   1d66a:	f010 fab1 	bl	2dbd0 <z_spin_lock_valid>
   1d66e:	b940      	cbnz	r0, 1d682 <clock_settime+0xaa>
   1d670:	4915      	ldr	r1, [pc, #84]	; (1d6c8 <clock_settime+0xf0>)
   1d672:	4816      	ldr	r0, [pc, #88]	; (1d6cc <clock_settime+0xf4>)
   1d674:	228e      	movs	r2, #142	; 0x8e
   1d676:	f015 ffbe 	bl	335f6 <assert_print>
   1d67a:	218e      	movs	r1, #142	; 0x8e
   1d67c:	4812      	ldr	r0, [pc, #72]	; (1d6c8 <clock_settime+0xf0>)
   1d67e:	f015 ffb3 	bl	335e8 <assert_post_action>
	while (!atomic_cas(&l->locked, 0, 1)) {
	}
#endif

#ifdef CONFIG_SPIN_VALIDATE
	z_spin_lock_set_owner(l);
   1d682:	4810      	ldr	r0, [pc, #64]	; (1d6c4 <clock_settime+0xec>)
   1d684:	f010 fac0 	bl	2dc08 <z_spin_lock_set_owner>
	rt_clock_base = base;
   1d688:	4b11      	ldr	r3, [pc, #68]	; (1d6d0 <clock_settime+0xf8>)
static ALWAYS_INLINE void k_spin_unlock(struct k_spinlock *l,
					k_spinlock_key_t key)
{
	ARG_UNUSED(l);
#ifdef CONFIG_SPIN_VALIDATE
	__ASSERT(z_spin_unlock_valid(l), "Not my spinlock %p", l);
   1d68a:	480e      	ldr	r0, [pc, #56]	; (1d6c4 <clock_settime+0xec>)
   1d68c:	e9c3 7600 	strd	r7, r6, [r3]
   1d690:	609c      	str	r4, [r3, #8]
   1d692:	f010 faab 	bl	2dbec <z_spin_unlock_valid>
   1d696:	b940      	cbnz	r0, 1d6aa <clock_settime+0xd2>
   1d698:	490b      	ldr	r1, [pc, #44]	; (1d6c8 <clock_settime+0xf0>)
   1d69a:	480c      	ldr	r0, [pc, #48]	; (1d6cc <clock_settime+0xf4>)
   1d69c:	22b9      	movs	r2, #185	; 0xb9
   1d69e:	f015 ffaa 	bl	335f6 <assert_print>
   1d6a2:	21b9      	movs	r1, #185	; 0xb9
   1d6a4:	4808      	ldr	r0, [pc, #32]	; (1d6c8 <clock_settime+0xf0>)
   1d6a6:	f015 ff9f 	bl	335e8 <assert_post_action>
	__asm__ volatile(
		"cpsie i;"
		"isb"
		: : : "memory");
#elif defined(CONFIG_ARMV7_M_ARMV8_M_MAINLINE)
	__asm__ volatile(
   1d6aa:	f385 8811 	msr	BASEPRI, r5
   1d6ae:	f3bf 8f6f 	isb	sy
	return 0;
   1d6b2:	2000      	movs	r0, #0
   1d6b4:	e79a      	b.n	1d5ec <clock_settime+0x14>
   1d6b6:	bf00      	nop
   1d6b8:	3b9aca00 	.word	0x3b9aca00
   1d6bc:	00000000 	.word	0x00000000
   1d6c0:	3b9aca00 	.word	0x3b9aca00
   1d6c4:	20016d18 	.word	0x20016d18
   1d6c8:	000393c4 	.word	0x000393c4
   1d6cc:	0003938a 	.word	0x0003938a
   1d6d0:	20014ee0 	.word	0x20014ee0
   1d6d4:	00000000 	.word	0x00000000

0001d6d8 <parse_edrx>:

int parse_edrx(const char *at_response, struct lte_lc_edrx_cfg *cfg)
{
	int err, tmp_int;
	uint8_t idx;
	struct at_param_list resp_list = {0};
   1d6d8:	2300      	movs	r3, #0
{
   1d6da:	b570      	push	{r4, r5, r6, lr}
   1d6dc:	b086      	sub	sp, #24
	struct at_param_list resp_list = {0};
   1d6de:	e9cd 3304 	strd	r3, r3, [sp, #16]
	char tmp_buf[5];
	size_t len = sizeof(tmp_buf) - 1;
   1d6e2:	2304      	movs	r3, #4
{
   1d6e4:	460d      	mov	r5, r1
	float ptw_multiplier;

	if ((at_response == NULL) || (cfg == NULL)) {
   1d6e6:	4606      	mov	r6, r0
	size_t len = sizeof(tmp_buf) - 1;
   1d6e8:	9301      	str	r3, [sp, #4]
	if ((at_response == NULL) || (cfg == NULL)) {
   1d6ea:	2800      	cmp	r0, #0
   1d6ec:	f000 809e 	beq.w	1d82c <parse_edrx+0x154>
   1d6f0:	2900      	cmp	r1, #0
   1d6f2:	f000 809b 	beq.w	1d82c <parse_edrx+0x154>
		return -EINVAL;
	}

	err = at_params_list_init(&resp_list, AT_CEDRXP_PARAMS_COUNT_MAX);
   1d6f6:	2106      	movs	r1, #6
   1d6f8:	a804      	add	r0, sp, #16
   1d6fa:	f017 fec5 	bl	35488 <at_params_list_init>
	if (err) {
   1d6fe:	4604      	mov	r4, r0
   1d700:	b138      	cbz	r0, 1d712 <parse_edrx+0x3a>
		LOG_ERR("Could not init AT params list, error: %d", err);
   1d702:	4602      	mov	r2, r0
   1d704:	2145      	movs	r1, #69	; 0x45
   1d706:	484e      	ldr	r0, [pc, #312]	; (1d840 <parse_edrx+0x168>)
   1d708:	f015 ffaf 	bl	3366a <z_log_minimal_printk>

clean_exit:
	at_params_list_free(&resp_list);

	return err;
}
   1d70c:	4620      	mov	r0, r4
   1d70e:	b006      	add	sp, #24
   1d710:	bd70      	pop	{r4, r5, r6, pc}
	err = at_parser_params_from_str(at_response,
   1d712:	4601      	mov	r1, r0
   1d714:	aa04      	add	r2, sp, #16
   1d716:	4630      	mov	r0, r6
   1d718:	f017 feb3 	bl	35482 <at_parser_params_from_str>
	if (err) {
   1d71c:	4604      	mov	r4, r0
   1d71e:	b140      	cbz	r0, 1d732 <parse_edrx+0x5a>
		LOG_ERR("Could not parse +CEDRXP response, error: %d", err);
   1d720:	2145      	movs	r1, #69	; 0x45
   1d722:	4602      	mov	r2, r0
   1d724:	4847      	ldr	r0, [pc, #284]	; (1d844 <parse_edrx+0x16c>)
		LOG_ERR("Failed to get eDRX configuration, error: %d", err);
   1d726:	f015 ffa0 	bl	3366a <z_log_minimal_printk>
	at_params_list_free(&resp_list);
   1d72a:	a804      	add	r0, sp, #16
   1d72c:	f017 febf 	bl	354ae <at_params_list_free>
	return err;
   1d730:	e7ec      	b.n	1d70c <parse_edrx+0x34>
	err = at_params_string_get(&resp_list, AT_CEDRXP_NW_EDRX_INDEX,
   1d732:	2103      	movs	r1, #3
   1d734:	ab01      	add	r3, sp, #4
   1d736:	aa02      	add	r2, sp, #8
   1d738:	a804      	add	r0, sp, #16
   1d73a:	f017 ffb1 	bl	356a0 <at_params_string_get>
	if (err) {
   1d73e:	4604      	mov	r4, r0
   1d740:	b118      	cbz	r0, 1d74a <parse_edrx+0x72>
		LOG_ERR("Failed to get eDRX configuration, error: %d", err);
   1d742:	4602      	mov	r2, r0
   1d744:	2145      	movs	r1, #69	; 0x45
   1d746:	4840      	ldr	r0, [pc, #256]	; (1d848 <parse_edrx+0x170>)
   1d748:	e7ed      	b.n	1d726 <parse_edrx+0x4e>
	tmp_buf[len] = '\0';
   1d74a:	9b01      	ldr	r3, [sp, #4]
   1d74c:	aa06      	add	r2, sp, #24
   1d74e:	4413      	add	r3, r2
	idx = strtoul(tmp_buf, NULL, 2);
   1d750:	4601      	mov	r1, r0
	tmp_buf[len] = '\0';
   1d752:	f803 0c10 	strb.w	r0, [r3, #-16]
	idx = strtoul(tmp_buf, NULL, 2);
   1d756:	2202      	movs	r2, #2
   1d758:	a802      	add	r0, sp, #8
   1d75a:	f013 fffb 	bl	31754 <strtoul>
	err = at_params_int_get(&resp_list, AT_CEDRXP_ACTT_INDEX, &tmp_int);
   1d75e:	466a      	mov	r2, sp
   1d760:	2101      	movs	r1, #1
	idx = strtoul(tmp_buf, NULL, 2);
   1d762:	b2c6      	uxtb	r6, r0
	err = at_params_int_get(&resp_list, AT_CEDRXP_ACTT_INDEX, &tmp_int);
   1d764:	a804      	add	r0, sp, #16
   1d766:	f017 ff66 	bl	35636 <at_params_int_get>
	if (err) {
   1d76a:	4604      	mov	r4, r0
   1d76c:	b118      	cbz	r0, 1d776 <parse_edrx+0x9e>
		LOG_ERR("Failed to get LTE mode, error: %d", err);
   1d76e:	4602      	mov	r2, r0
   1d770:	2145      	movs	r1, #69	; 0x45
   1d772:	4836      	ldr	r0, [pc, #216]	; (1d84c <parse_edrx+0x174>)
   1d774:	e7d7      	b.n	1d726 <parse_edrx+0x4e>
	cfg->mode = tmp_int == 4 ? LTE_LC_LTE_MODE_LTEM :
   1d776:	9b00      	ldr	r3, [sp, #0]
   1d778:	2b04      	cmp	r3, #4
   1d77a:	d016      	beq.n	1d7aa <parse_edrx+0xd2>
   1d77c:	2b05      	cmp	r3, #5
   1d77e:	d007      	beq.n	1d790 <parse_edrx+0xb8>
   1d780:	7028      	strb	r0, [r5, #0]
		LOG_WRN("Active LTE mode could not be determined");
   1d782:	2157      	movs	r1, #87	; 0x57
   1d784:	4832      	ldr	r0, [pc, #200]	; (1d850 <parse_edrx+0x178>)
   1d786:	f015 ff70 	bl	3366a <z_log_minimal_printk>
		return -ENOTCONN;
   1d78a:	f06f 047f 	mvn.w	r4, #127	; 0x7f
		goto clean_exit;
   1d78e:	e7cc      	b.n	1d72a <parse_edrx+0x52>
	cfg->mode = tmp_int == 4 ? LTE_LC_LTE_MODE_LTEM :
   1d790:	2309      	movs	r3, #9
	if ((edrx_value == NULL) || (idx > ARRAY_SIZE(edrx_lookup_ltem) - 1)) {
   1d792:	2e0f      	cmp	r6, #15
	cfg->mode = tmp_int == 4 ? LTE_LC_LTE_MODE_LTEM :
   1d794:	702b      	strb	r3, [r5, #0]
	if ((edrx_value == NULL) || (idx > ARRAY_SIZE(edrx_lookup_ltem) - 1)) {
   1d796:	d929      	bls.n	1d7ec <parse_edrx+0x114>
		LOG_ERR("Failed to get eDRX value, error; %d", err);
   1d798:	f06f 0215 	mvn.w	r2, #21
   1d79c:	2145      	movs	r1, #69	; 0x45
   1d79e:	482d      	ldr	r0, [pc, #180]	; (1d854 <parse_edrx+0x17c>)
		LOG_ERR("Invalid PTW lookup index: %d", idx);
   1d7a0:	f015 ff63 	bl	3366a <z_log_minimal_printk>
		err = -EINVAL;
   1d7a4:	f06f 0415 	mvn.w	r4, #21
		goto clean_exit;
   1d7a8:	e7bf      	b.n	1d72a <parse_edrx+0x52>
	cfg->mode = tmp_int == 4 ? LTE_LC_LTE_MODE_LTEM :
   1d7aa:	2307      	movs	r3, #7
	if ((edrx_value == NULL) || (idx > ARRAY_SIZE(edrx_lookup_ltem) - 1)) {
   1d7ac:	2e0f      	cmp	r6, #15
	cfg->mode = tmp_int == 4 ? LTE_LC_LTE_MODE_LTEM :
   1d7ae:	702b      	strb	r3, [r5, #0]
	if ((edrx_value == NULL) || (idx > ARRAY_SIZE(edrx_lookup_ltem) - 1)) {
   1d7b0:	d8f2      	bhi.n	1d798 <parse_edrx+0xc0>
		multiplier = edrx_lookup_ltem[idx];
   1d7b2:	4b29      	ldr	r3, [pc, #164]	; (1d858 <parse_edrx+0x180>)
   1d7b4:	f833 0016 	ldrh.w	r0, [r3, r6, lsl #1]
		*ptw_multiplier = 1.28;
   1d7b8:	4e28      	ldr	r6, [pc, #160]	; (1d85c <parse_edrx+0x184>)
	*edrx_value = multiplier == 0 ? 5.12 : multiplier * 10.24;
   1d7ba:	b1e0      	cbz	r0, 1d7f6 <parse_edrx+0x11e>
   1d7bc:	f7ff f846 	bl	1c84c <__aeabi_i2d>
   1d7c0:	a31d      	add	r3, pc, #116	; (adr r3, 1d838 <parse_edrx+0x160>)
   1d7c2:	e9d3 2300 	ldrd	r2, r3, [r3]
   1d7c6:	f7ff f8ab 	bl	1c920 <__aeabi_dmul>
   1d7ca:	f7ff fb81 	bl	1ced0 <__aeabi_d2f>
	len = sizeof(tmp_buf) - 1;
   1d7ce:	2104      	movs	r1, #4
	*edrx_value = multiplier == 0 ? 5.12 : multiplier * 10.24;
   1d7d0:	6068      	str	r0, [r5, #4]
	err = at_params_string_get(&resp_list, AT_CEDRXP_NW_PTW_INDEX,
   1d7d2:	eb0d 0301 	add.w	r3, sp, r1
   1d7d6:	aa02      	add	r2, sp, #8
   1d7d8:	a804      	add	r0, sp, #16
	len = sizeof(tmp_buf) - 1;
   1d7da:	9101      	str	r1, [sp, #4]
	err = at_params_string_get(&resp_list, AT_CEDRXP_NW_PTW_INDEX,
   1d7dc:	f017 ff60 	bl	356a0 <at_params_string_get>
	if (err) {
   1d7e0:	4604      	mov	r4, r0
   1d7e2:	b150      	cbz	r0, 1d7fa <parse_edrx+0x122>
		LOG_ERR("Failed to get PTW configuration, error: %d", err);
   1d7e4:	4602      	mov	r2, r0
   1d7e6:	2145      	movs	r1, #69	; 0x45
   1d7e8:	481d      	ldr	r0, [pc, #116]	; (1d860 <parse_edrx+0x188>)
   1d7ea:	e79c      	b.n	1d726 <parse_edrx+0x4e>
		multiplier = edrx_lookup_nbiot[idx];
   1d7ec:	4b1d      	ldr	r3, [pc, #116]	; (1d864 <parse_edrx+0x18c>)
   1d7ee:	f833 0016 	ldrh.w	r0, [r3, r6, lsl #1]
		*ptw_multiplier = 2.56;
   1d7f2:	4e1d      	ldr	r6, [pc, #116]	; (1d868 <parse_edrx+0x190>)
		break;
   1d7f4:	e7e1      	b.n	1d7ba <parse_edrx+0xe2>
	*edrx_value = multiplier == 0 ? 5.12 : multiplier * 10.24;
   1d7f6:	481d      	ldr	r0, [pc, #116]	; (1d86c <parse_edrx+0x194>)
   1d7f8:	e7e9      	b.n	1d7ce <parse_edrx+0xf6>
	tmp_buf[len] = '\0';
   1d7fa:	9b01      	ldr	r3, [sp, #4]
   1d7fc:	aa06      	add	r2, sp, #24
   1d7fe:	4413      	add	r3, r2
	idx = strtoul(tmp_buf, NULL, 2);
   1d800:	4601      	mov	r1, r0
   1d802:	2202      	movs	r2, #2
	tmp_buf[len] = '\0';
   1d804:	f803 0c10 	strb.w	r0, [r3, #-16]
	idx = strtoul(tmp_buf, NULL, 2);
   1d808:	a802      	add	r0, sp, #8
   1d80a:	f013 ffa3 	bl	31754 <strtoul>
   1d80e:	b2c2      	uxtb	r2, r0
	if (idx > 15) {
   1d810:	2a0f      	cmp	r2, #15
   1d812:	d902      	bls.n	1d81a <parse_edrx+0x142>
		LOG_ERR("Invalid PTW lookup index: %d", idx);
   1d814:	2145      	movs	r1, #69	; 0x45
   1d816:	4816      	ldr	r0, [pc, #88]	; (1d870 <parse_edrx+0x198>)
   1d818:	e7c2      	b.n	1d7a0 <parse_edrx+0xc8>
	idx += 1;
   1d81a:	1c50      	adds	r0, r2, #1
	cfg->ptw = idx * ptw_multiplier;
   1d81c:	b2c0      	uxtb	r0, r0
   1d81e:	f7ff fc61 	bl	1d0e4 <__aeabi_i2f>
   1d822:	4631      	mov	r1, r6
   1d824:	f7fe fe0c 	bl	1c440 <__aeabi_fmul>
   1d828:	60a8      	str	r0, [r5, #8]
	LOG_DBG("eDRX value for %s: %d.%02d, PTW: %d.%02d",
   1d82a:	e77e      	b.n	1d72a <parse_edrx+0x52>
		return -EINVAL;
   1d82c:	f06f 0415 	mvn.w	r4, #21
   1d830:	e76c      	b.n	1d70c <parse_edrx+0x34>
   1d832:	bf00      	nop
   1d834:	f3af 8000 	nop.w
   1d838:	47ae147b 	.word	0x47ae147b
   1d83c:	40247ae1 	.word	0x40247ae1
   1d840:	0003ab1f 	.word	0x0003ab1f
   1d844:	0003ab4d 	.word	0x0003ab4d
   1d848:	0003ab7e 	.word	0x0003ab7e
   1d84c:	0003abaf 	.word	0x0003abaf
   1d850:	0003abd6 	.word	0x0003abd6
   1d854:	0003ac03 	.word	0x0003ac03
   1d858:	00038c38 	.word	0x00038c38
   1d85c:	3fa3d70a 	.word	0x3fa3d70a
   1d860:	0003ac2c 	.word	0x0003ac2c
   1d864:	00038c58 	.word	0x00038c58
   1d868:	4023d70a 	.word	0x4023d70a
   1d86c:	40a3d70a 	.word	0x40a3d70a
   1d870:	0003ac5c 	.word	0x0003ac5c
   1d874:	00000000 	.word	0x00000000

0001d878 <parse_value>:
    return print_value(item, &p);
}

/* Parser core - when encountering text, process appropriately. */
static cJSON_bool parse_value(cJSON * const item, parse_buffer * const input_buffer)
{
   1d878:	e92d 43f0 	stmdb	sp!, {r4, r5, r6, r7, r8, r9, lr}
   1d87c:	4606      	mov	r6, r0
    if ((input_buffer == NULL) || (input_buffer->content == NULL))
   1d87e:	460c      	mov	r4, r1
{
   1d880:	b093      	sub	sp, #76	; 0x4c
    if ((input_buffer == NULL) || (input_buffer->content == NULL))
   1d882:	b909      	cbnz	r1, 1d888 <parse_value+0x10>
    if (head != NULL)
    {
        cJSON_Delete(head);
    }

    return false;
   1d884:	2000      	movs	r0, #0
   1d886:	e024      	b.n	1d8d2 <parse_value+0x5a>
    if ((input_buffer == NULL) || (input_buffer->content == NULL))
   1d888:	6808      	ldr	r0, [r1, #0]
   1d88a:	2800      	cmp	r0, #0
   1d88c:	d0fa      	beq.n	1d884 <parse_value+0xc>
    if (can_read(input_buffer, 4) && (strncmp((const char*)buffer_at_offset(input_buffer), "null", 4) == 0))
   1d88e:	688b      	ldr	r3, [r1, #8]
   1d890:	6862      	ldr	r2, [r4, #4]
   1d892:	1d19      	adds	r1, r3, #4
   1d894:	4291      	cmp	r1, r2
   1d896:	d80b      	bhi.n	1d8b0 <parse_value+0x38>
   1d898:	2204      	movs	r2, #4
   1d89a:	4995      	ldr	r1, [pc, #596]	; (1daf0 <parse_value+0x278>)
   1d89c:	4418      	add	r0, r3
   1d89e:	f019 fd47 	bl	37330 <strncmp>
   1d8a2:	b928      	cbnz	r0, 1d8b0 <parse_value+0x38>
        item->type = cJSON_NULL;
   1d8a4:	2304      	movs	r3, #4
   1d8a6:	60f3      	str	r3, [r6, #12]
        input_buffer->offset += 4;
   1d8a8:	68a3      	ldr	r3, [r4, #8]
   1d8aa:	3304      	adds	r3, #4
    input_buffer->offset++;
   1d8ac:	60a3      	str	r3, [r4, #8]
   1d8ae:	e087      	b.n	1d9c0 <parse_value+0x148>
    if (can_read(input_buffer, 5) && (strncmp((const char*)buffer_at_offset(input_buffer), "false", 5) == 0))
   1d8b0:	68a3      	ldr	r3, [r4, #8]
   1d8b2:	6862      	ldr	r2, [r4, #4]
   1d8b4:	1d59      	adds	r1, r3, #5
   1d8b6:	4291      	cmp	r1, r2
   1d8b8:	d80e      	bhi.n	1d8d8 <parse_value+0x60>
   1d8ba:	6820      	ldr	r0, [r4, #0]
   1d8bc:	2205      	movs	r2, #5
   1d8be:	498d      	ldr	r1, [pc, #564]	; (1daf4 <parse_value+0x27c>)
   1d8c0:	4418      	add	r0, r3
   1d8c2:	f019 fd35 	bl	37330 <strncmp>
   1d8c6:	b938      	cbnz	r0, 1d8d8 <parse_value+0x60>
        item->type = cJSON_False;
   1d8c8:	2001      	movs	r0, #1
        input_buffer->offset += 5;
   1d8ca:	68a3      	ldr	r3, [r4, #8]
        item->type = cJSON_False;
   1d8cc:	60f0      	str	r0, [r6, #12]
        input_buffer->offset += 5;
   1d8ce:	3305      	adds	r3, #5
        input_buffer->offset += 4;
   1d8d0:	60a3      	str	r3, [r4, #8]
}
   1d8d2:	b013      	add	sp, #76	; 0x4c
   1d8d4:	e8bd 83f0 	ldmia.w	sp!, {r4, r5, r6, r7, r8, r9, pc}
    if (can_read(input_buffer, 4) && (strncmp((const char*)buffer_at_offset(input_buffer), "true", 4) == 0))
   1d8d8:	68a3      	ldr	r3, [r4, #8]
   1d8da:	6862      	ldr	r2, [r4, #4]
   1d8dc:	1d19      	adds	r1, r3, #4
   1d8de:	4291      	cmp	r1, r2
   1d8e0:	d80d      	bhi.n	1d8fe <parse_value+0x86>
   1d8e2:	6820      	ldr	r0, [r4, #0]
   1d8e4:	2204      	movs	r2, #4
   1d8e6:	4984      	ldr	r1, [pc, #528]	; (1daf8 <parse_value+0x280>)
   1d8e8:	4418      	add	r0, r3
   1d8ea:	f019 fd21 	bl	37330 <strncmp>
   1d8ee:	b930      	cbnz	r0, 1d8fe <parse_value+0x86>
        item->type = cJSON_True;
   1d8f0:	2302      	movs	r3, #2
        item->valueint = 1;
   1d8f2:	2001      	movs	r0, #1
        item->type = cJSON_True;
   1d8f4:	60f3      	str	r3, [r6, #12]
        input_buffer->offset += 4;
   1d8f6:	68a3      	ldr	r3, [r4, #8]
        item->valueint = 1;
   1d8f8:	6170      	str	r0, [r6, #20]
        input_buffer->offset += 4;
   1d8fa:	3304      	adds	r3, #4
   1d8fc:	e7e8      	b.n	1d8d0 <parse_value+0x58>
    if (can_access_at_index(input_buffer, 0) && (buffer_at_offset(input_buffer)[0] == '\"'))
   1d8fe:	e9d4 0301 	ldrd	r0, r3, [r4, #4]
   1d902:	4283      	cmp	r3, r0
   1d904:	d2be      	bcs.n	1d884 <parse_value+0xc>
   1d906:	6821      	ldr	r1, [r4, #0]
   1d908:	5cca      	ldrb	r2, [r1, r3]
   1d90a:	18cf      	adds	r7, r1, r3
   1d90c:	2a22      	cmp	r2, #34	; 0x22
   1d90e:	d106      	bne.n	1d91e <parse_value+0xa6>
        return parse_string(item, input_buffer);
   1d910:	4621      	mov	r1, r4
   1d912:	4630      	mov	r0, r6
}
   1d914:	b013      	add	sp, #76	; 0x4c
   1d916:	e8bd 43f0 	ldmia.w	sp!, {r4, r5, r6, r7, r8, r9, lr}
        return parse_string(item, input_buffer);
   1d91a:	f00c b903 	b.w	29b24 <parse_string>
    if (can_access_at_index(input_buffer, 0) && ((buffer_at_offset(input_buffer)[0] == '-') || ((buffer_at_offset(input_buffer)[0] >= '0') && (buffer_at_offset(input_buffer)[0] <= '9'))))
   1d91e:	2a2d      	cmp	r2, #45	; 0x2d
   1d920:	d003      	beq.n	1d92a <parse_value+0xb2>
   1d922:	f1a2 0530 	sub.w	r5, r2, #48	; 0x30
   1d926:	2d09      	cmp	r5, #9
   1d928:	d85f      	bhi.n	1d9ea <parse_value+0x172>
    unsigned char *after_end = NULL;
   1d92a:	2200      	movs	r2, #0
   1d92c:	9201      	str	r2, [sp, #4]
    if ((input_buffer == NULL) || (input_buffer->content == NULL))
   1d92e:	2900      	cmp	r1, #0
   1d930:	d0a8      	beq.n	1d884 <parse_value+0xc>
   1d932:	a902      	add	r1, sp, #8
   1d934:	460d      	mov	r5, r1
                number_c_string[i] = decimal_point;
   1d936:	f04f 0e2e 	mov.w	lr, #46	; 0x2e
   1d93a:	1ac3      	subs	r3, r0, r3
        switch (buffer_at_offset(input_buffer)[i])
   1d93c:	f817 0b01 	ldrb.w	r0, [r7], #1
   1d940:	2839      	cmp	r0, #57	; 0x39
   1d942:	d810      	bhi.n	1d966 <parse_value+0xee>
   1d944:	282a      	cmp	r0, #42	; 0x2a
   1d946:	d91b      	bls.n	1d980 <parse_value+0x108>
   1d948:	f1a0 0c2b 	sub.w	ip, r0, #43	; 0x2b
   1d94c:	f1bc 0f0e 	cmp.w	ip, #14
   1d950:	d816      	bhi.n	1d980 <parse_value+0x108>
   1d952:	e8df f00c 	tbb	[pc, ip]
   1d956:	150d      	.short	0x150d
   1d958:	0d15370d 	.word	0x0d15370d
   1d95c:	0d0d0d0d 	.word	0x0d0d0d0d
   1d960:	0d0d0d0d 	.word	0x0d0d0d0d
   1d964:	0d          	.byte	0x0d
   1d965:	00          	.byte	0x00
   1d966:	f000 0cdf 	and.w	ip, r0, #223	; 0xdf
   1d96a:	f1bc 0f45 	cmp.w	ip, #69	; 0x45
   1d96e:	d107      	bne.n	1d980 <parse_value+0x108>
                number_c_string[i] = buffer_at_offset(input_buffer)[i];
   1d970:	7008      	strb	r0, [r1, #0]
    for (i = 0; (i < (sizeof(number_c_string) - 1)) && can_access_at_index(input_buffer, i); i++)
   1d972:	3201      	adds	r2, #1
   1d974:	2a3f      	cmp	r2, #63	; 0x3f
   1d976:	f101 0101 	add.w	r1, r1, #1
   1d97a:	d001      	beq.n	1d980 <parse_value+0x108>
   1d97c:	429a      	cmp	r2, r3
   1d97e:	d1dd      	bne.n	1d93c <parse_value+0xc4>
    number_c_string[i] = '\0';
   1d980:	ab12      	add	r3, sp, #72	; 0x48
   1d982:	441a      	add	r2, r3
   1d984:	2300      	movs	r3, #0
    number = strtod((const char*)number_c_string, (char**)&after_end);
   1d986:	4628      	mov	r0, r5
    number_c_string[i] = '\0';
   1d988:	f802 3c40 	strb.w	r3, [r2, #-64]
    number = strtod((const char*)number_c_string, (char**)&after_end);
   1d98c:	a901      	add	r1, sp, #4
   1d98e:	f013 fd3d 	bl	3140c <strtod>
    if (number_c_string == after_end)
   1d992:	9f01      	ldr	r7, [sp, #4]
    number = strtod((const char*)number_c_string, (char**)&after_end);
   1d994:	4680      	mov	r8, r0
    if (number_c_string == after_end)
   1d996:	42af      	cmp	r7, r5
    number = strtod((const char*)number_c_string, (char**)&after_end);
   1d998:	4689      	mov	r9, r1
    if (number_c_string == after_end)
   1d99a:	f43f af73 	beq.w	1d884 <parse_value+0xc>
    if (number >= INT_MAX)
   1d99e:	a352      	add	r3, pc, #328	; (adr r3, 1dae8 <parse_value+0x270>)
   1d9a0:	e9d3 2300 	ldrd	r2, r3, [r3]
    item->valuedouble = number;
   1d9a4:	e9c6 8906 	strd	r8, r9, [r6, #24]
    if (number >= INT_MAX)
   1d9a8:	f7ff fa40 	bl	1ce2c <__aeabi_dcmpge>
   1d9ac:	b168      	cbz	r0, 1d9ca <parse_value+0x152>
        item->valueint = INT_MAX;
   1d9ae:	f06f 4300 	mvn.w	r3, #2147483648	; 0x80000000
        item->valueint = INT_MIN;
   1d9b2:	6173      	str	r3, [r6, #20]
    item->type = cJSON_Number;
   1d9b4:	2308      	movs	r3, #8
    input_buffer->offset += (size_t)(after_end - number_c_string);
   1d9b6:	1b7d      	subs	r5, r7, r5
   1d9b8:	68a7      	ldr	r7, [r4, #8]
    item->type = cJSON_Number;
   1d9ba:	60f3      	str	r3, [r6, #12]
    input_buffer->offset += (size_t)(after_end - number_c_string);
   1d9bc:	443d      	add	r5, r7
   1d9be:	60a5      	str	r5, [r4, #8]
    return true;
   1d9c0:	2001      	movs	r0, #1
   1d9c2:	e786      	b.n	1d8d2 <parse_value+0x5a>
                number_c_string[i] = decimal_point;
   1d9c4:	f881 e000 	strb.w	lr, [r1]
                break;
   1d9c8:	e7d3      	b.n	1d972 <parse_value+0xfa>
    else if (number <= (double)INT_MIN)
   1d9ca:	2200      	movs	r2, #0
   1d9cc:	4640      	mov	r0, r8
   1d9ce:	4649      	mov	r1, r9
   1d9d0:	4b4a      	ldr	r3, [pc, #296]	; (1dafc <parse_value+0x284>)
   1d9d2:	f7ff fa21 	bl	1ce18 <__aeabi_dcmple>
   1d9d6:	b110      	cbz	r0, 1d9de <parse_value+0x166>
        item->valueint = INT_MIN;
   1d9d8:	f04f 4300 	mov.w	r3, #2147483648	; 0x80000000
   1d9dc:	e7e9      	b.n	1d9b2 <parse_value+0x13a>
        item->valueint = (int)number;
   1d9de:	4640      	mov	r0, r8
   1d9e0:	4649      	mov	r1, r9
   1d9e2:	f7ff fa4d 	bl	1ce80 <__aeabi_d2iz>
   1d9e6:	6170      	str	r0, [r6, #20]
   1d9e8:	e7e4      	b.n	1d9b4 <parse_value+0x13c>
    if (can_access_at_index(input_buffer, 0) && (buffer_at_offset(input_buffer)[0] == '['))
   1d9ea:	2a5b      	cmp	r2, #91	; 0x5b
   1d9ec:	d153      	bne.n	1da96 <parse_value+0x21e>
    if (input_buffer->depth >= CJSON_NESTING_LIMIT)
   1d9ee:	68e2      	ldr	r2, [r4, #12]
   1d9f0:	f5b2 7f7a 	cmp.w	r2, #1000	; 0x3e8
   1d9f4:	f4bf af46 	bcs.w	1d884 <parse_value+0xc>
    input_buffer->depth++;
   1d9f8:	3201      	adds	r2, #1
   1d9fa:	60e2      	str	r2, [r4, #12]
    if (buffer_at_offset(input_buffer)[0] != '[')
   1d9fc:	5cca      	ldrb	r2, [r1, r3]
   1d9fe:	2a5b      	cmp	r2, #91	; 0x5b
   1da00:	f47f af40 	bne.w	1d884 <parse_value+0xc>
    input_buffer->offset++;
   1da04:	3301      	adds	r3, #1
   1da06:	60a3      	str	r3, [r4, #8]
    buffer_skip_whitespace(input_buffer);
   1da08:	4620      	mov	r0, r4
   1da0a:	f018 f8a1 	bl	35b50 <buffer_skip_whitespace>
    if (can_access_at_index(input_buffer, 0) && (buffer_at_offset(input_buffer)[0] == ']'))
   1da0e:	e9d4 2301 	ldrd	r2, r3, [r4, #4]
   1da12:	4293      	cmp	r3, r2
   1da14:	d263      	bcs.n	1dade <parse_value+0x266>
   1da16:	6822      	ldr	r2, [r4, #0]
   1da18:	5cd2      	ldrb	r2, [r2, r3]
   1da1a:	2a5d      	cmp	r2, #93	; 0x5d
   1da1c:	d10c      	bne.n	1da38 <parse_value+0x1c0>
    cJSON *current_item = NULL;
   1da1e:	2500      	movs	r5, #0
    cJSON *head = NULL; /* head of the linked list */
   1da20:	462f      	mov	r7, r5
    input_buffer->depth--;
   1da22:	68e3      	ldr	r3, [r4, #12]
   1da24:	3b01      	subs	r3, #1
   1da26:	60e3      	str	r3, [r4, #12]
    if (head != NULL) {
   1da28:	b107      	cbz	r7, 1da2c <parse_value+0x1b4>
        head->prev = current_item;
   1da2a:	607d      	str	r5, [r7, #4]
    item->type = cJSON_Array;
   1da2c:	2320      	movs	r3, #32
    item->child = head;
   1da2e:	e9c6 7302 	strd	r7, r3, [r6, #8]
    input_buffer->offset++;
   1da32:	68a3      	ldr	r3, [r4, #8]
   1da34:	3301      	adds	r3, #1
   1da36:	e739      	b.n	1d8ac <parse_value+0x34>
    cJSON *current_item = NULL;
   1da38:	2500      	movs	r5, #0
    cJSON *head = NULL; /* head of the linked list */
   1da3a:	462f      	mov	r7, r5
    input_buffer->offset--;
   1da3c:	3b01      	subs	r3, #1
   1da3e:	60a3      	str	r3, [r4, #8]
        cJSON *new_item = cJSON_New_Item(&(input_buffer->hooks));
   1da40:	6920      	ldr	r0, [r4, #16]
   1da42:	f018 f8ff 	bl	35c44 <cJSON_New_Item.isra.0>
        if (new_item == NULL)
   1da46:	46a8      	mov	r8, r5
   1da48:	4605      	mov	r5, r0
   1da4a:	2800      	cmp	r0, #0
   1da4c:	f000 809d 	beq.w	1db8a <parse_value+0x312>
        if (head == NULL)
   1da50:	b1ff      	cbz	r7, 1da92 <parse_value+0x21a>
            current_item->next = new_item;
   1da52:	f8c8 0000 	str.w	r0, [r8]
            new_item->prev = current_item;
   1da56:	f8c0 8004 	str.w	r8, [r0, #4]
        input_buffer->offset++;
   1da5a:	68a3      	ldr	r3, [r4, #8]
        buffer_skip_whitespace(input_buffer);
   1da5c:	4620      	mov	r0, r4
        input_buffer->offset++;
   1da5e:	3301      	adds	r3, #1
   1da60:	60a3      	str	r3, [r4, #8]
        buffer_skip_whitespace(input_buffer);
   1da62:	f018 f875 	bl	35b50 <buffer_skip_whitespace>
        if (!parse_value(current_item, input_buffer))
   1da66:	4621      	mov	r1, r4
   1da68:	4628      	mov	r0, r5
   1da6a:	f7ff ff05 	bl	1d878 <parse_value>
   1da6e:	2800      	cmp	r0, #0
   1da70:	f000 808e 	beq.w	1db90 <parse_value+0x318>
        buffer_skip_whitespace(input_buffer);
   1da74:	4620      	mov	r0, r4
   1da76:	f018 f86b 	bl	35b50 <buffer_skip_whitespace>
    while (can_access_at_index(input_buffer, 0) && (buffer_at_offset(input_buffer)[0] == ','));
   1da7a:	e9d4 2301 	ldrd	r2, r3, [r4, #4]
   1da7e:	4293      	cmp	r3, r2
   1da80:	f080 8086 	bcs.w	1db90 <parse_value+0x318>
   1da84:	6822      	ldr	r2, [r4, #0]
   1da86:	5cd3      	ldrb	r3, [r2, r3]
   1da88:	2b2c      	cmp	r3, #44	; 0x2c
   1da8a:	d0d9      	beq.n	1da40 <parse_value+0x1c8>
    if (cannot_access_at_index(input_buffer, 0) || buffer_at_offset(input_buffer)[0] != ']')
   1da8c:	2b5d      	cmp	r3, #93	; 0x5d
   1da8e:	d17f      	bne.n	1db90 <parse_value+0x318>
   1da90:	e7c7      	b.n	1da22 <parse_value+0x1aa>
   1da92:	4607      	mov	r7, r0
   1da94:	e7e1      	b.n	1da5a <parse_value+0x1e2>
    if (can_access_at_index(input_buffer, 0) && (buffer_at_offset(input_buffer)[0] == '{'))
   1da96:	2a7b      	cmp	r2, #123	; 0x7b
   1da98:	f47f aef4 	bne.w	1d884 <parse_value+0xc>
    if (input_buffer->depth >= CJSON_NESTING_LIMIT)
   1da9c:	68e2      	ldr	r2, [r4, #12]
   1da9e:	f5b2 7f7a 	cmp.w	r2, #1000	; 0x3e8
   1daa2:	f4bf aeef 	bcs.w	1d884 <parse_value+0xc>
    input_buffer->depth++;
   1daa6:	3201      	adds	r2, #1
   1daa8:	60e2      	str	r2, [r4, #12]
    if (cannot_access_at_index(input_buffer, 0) || (buffer_at_offset(input_buffer)[0] != '{'))
   1daaa:	5cca      	ldrb	r2, [r1, r3]
   1daac:	2a7b      	cmp	r2, #123	; 0x7b
   1daae:	f47f aee9 	bne.w	1d884 <parse_value+0xc>
    input_buffer->offset++;
   1dab2:	3301      	adds	r3, #1
   1dab4:	60a3      	str	r3, [r4, #8]
    buffer_skip_whitespace(input_buffer);
   1dab6:	4620      	mov	r0, r4
   1dab8:	f018 f84a 	bl	35b50 <buffer_skip_whitespace>
    if (can_access_at_index(input_buffer, 0) && (buffer_at_offset(input_buffer)[0] == '}'))
   1dabc:	e9d4 2301 	ldrd	r2, r3, [r4, #4]
   1dac0:	4293      	cmp	r3, r2
   1dac2:	d20c      	bcs.n	1dade <parse_value+0x266>
   1dac4:	6822      	ldr	r2, [r4, #0]
   1dac6:	5cd2      	ldrb	r2, [r2, r3]
   1dac8:	2a7d      	cmp	r2, #125	; 0x7d
   1daca:	d119      	bne.n	1db00 <parse_value+0x288>
    cJSON *current_item = NULL;
   1dacc:	2500      	movs	r5, #0
    cJSON *head = NULL; /* linked list head */
   1dace:	462f      	mov	r7, r5
    input_buffer->depth--;
   1dad0:	68e3      	ldr	r3, [r4, #12]
   1dad2:	3b01      	subs	r3, #1
   1dad4:	60e3      	str	r3, [r4, #12]
    if (head != NULL) {
   1dad6:	b107      	cbz	r7, 1dada <parse_value+0x262>
        head->prev = current_item;
   1dad8:	607d      	str	r5, [r7, #4]
    item->type = cJSON_Object;
   1dada:	2340      	movs	r3, #64	; 0x40
   1dadc:	e7a7      	b.n	1da2e <parse_value+0x1b6>
        input_buffer->offset--;
   1dade:	3b01      	subs	r3, #1
   1dae0:	60a3      	str	r3, [r4, #8]
    if (head != NULL)
   1dae2:	e6cf      	b.n	1d884 <parse_value+0xc>
   1dae4:	f3af 8000 	nop.w
   1dae8:	ffc00000 	.word	0xffc00000
   1daec:	41dfffff 	.word	0x41dfffff
   1daf0:	0003c167 	.word	0x0003c167
   1daf4:	0003d271 	.word	0x0003d271
   1daf8:	0003d277 	.word	0x0003d277
   1dafc:	c1e00000 	.word	0xc1e00000
    cJSON *current_item = NULL;
   1db00:	2500      	movs	r5, #0
    cJSON *head = NULL; /* linked list head */
   1db02:	462f      	mov	r7, r5
        current_item->valuestring = NULL;
   1db04:	46a8      	mov	r8, r5
    input_buffer->offset--;
   1db06:	3b01      	subs	r3, #1
   1db08:	60a3      	str	r3, [r4, #8]
        cJSON *new_item = cJSON_New_Item(&(input_buffer->hooks));
   1db0a:	6920      	ldr	r0, [r4, #16]
   1db0c:	f018 f89a 	bl	35c44 <cJSON_New_Item.isra.0>
        if (new_item == NULL)
   1db10:	46a9      	mov	r9, r5
   1db12:	4605      	mov	r5, r0
   1db14:	2800      	cmp	r0, #0
   1db16:	d038      	beq.n	1db8a <parse_value+0x312>
        if (head == NULL)
   1db18:	b3af      	cbz	r7, 1db86 <parse_value+0x30e>
            current_item->next = new_item;
   1db1a:	f8c9 0000 	str.w	r0, [r9]
            new_item->prev = current_item;
   1db1e:	f8c0 9004 	str.w	r9, [r0, #4]
        input_buffer->offset++;
   1db22:	68a3      	ldr	r3, [r4, #8]
        buffer_skip_whitespace(input_buffer);
   1db24:	4620      	mov	r0, r4
        input_buffer->offset++;
   1db26:	3301      	adds	r3, #1
   1db28:	60a3      	str	r3, [r4, #8]
        buffer_skip_whitespace(input_buffer);
   1db2a:	f018 f811 	bl	35b50 <buffer_skip_whitespace>
        if (!parse_string(current_item, input_buffer))
   1db2e:	4621      	mov	r1, r4
   1db30:	4628      	mov	r0, r5
   1db32:	f00b fff7 	bl	29b24 <parse_string>
   1db36:	b358      	cbz	r0, 1db90 <parse_value+0x318>
        buffer_skip_whitespace(input_buffer);
   1db38:	4620      	mov	r0, r4
   1db3a:	f018 f809 	bl	35b50 <buffer_skip_whitespace>
        current_item->string = current_item->valuestring;
   1db3e:	692b      	ldr	r3, [r5, #16]
        current_item->valuestring = NULL;
   1db40:	f8c5 8010 	str.w	r8, [r5, #16]
        current_item->string = current_item->valuestring;
   1db44:	622b      	str	r3, [r5, #32]
        if (cannot_access_at_index(input_buffer, 0) || (buffer_at_offset(input_buffer)[0] != ':'))
   1db46:	e9d4 2301 	ldrd	r2, r3, [r4, #4]
   1db4a:	4293      	cmp	r3, r2
   1db4c:	d220      	bcs.n	1db90 <parse_value+0x318>
   1db4e:	6822      	ldr	r2, [r4, #0]
   1db50:	5cd2      	ldrb	r2, [r2, r3]
   1db52:	2a3a      	cmp	r2, #58	; 0x3a
   1db54:	d11c      	bne.n	1db90 <parse_value+0x318>
        input_buffer->offset++;
   1db56:	3301      	adds	r3, #1
        buffer_skip_whitespace(input_buffer);
   1db58:	4620      	mov	r0, r4
        input_buffer->offset++;
   1db5a:	60a3      	str	r3, [r4, #8]
        buffer_skip_whitespace(input_buffer);
   1db5c:	f017 fff8 	bl	35b50 <buffer_skip_whitespace>
        if (!parse_value(current_item, input_buffer))
   1db60:	4621      	mov	r1, r4
   1db62:	4628      	mov	r0, r5
   1db64:	f7ff fe88 	bl	1d878 <parse_value>
   1db68:	b190      	cbz	r0, 1db90 <parse_value+0x318>
        buffer_skip_whitespace(input_buffer);
   1db6a:	4620      	mov	r0, r4
   1db6c:	f017 fff0 	bl	35b50 <buffer_skip_whitespace>
    while (can_access_at_index(input_buffer, 0) && (buffer_at_offset(input_buffer)[0] == ','));
   1db70:	e9d4 2301 	ldrd	r2, r3, [r4, #4]
   1db74:	4293      	cmp	r3, r2
   1db76:	d20b      	bcs.n	1db90 <parse_value+0x318>
   1db78:	6822      	ldr	r2, [r4, #0]
   1db7a:	5cd3      	ldrb	r3, [r2, r3]
   1db7c:	2b2c      	cmp	r3, #44	; 0x2c
   1db7e:	d0c4      	beq.n	1db0a <parse_value+0x292>
    if (cannot_access_at_index(input_buffer, 0) || (buffer_at_offset(input_buffer)[0] != '}'))
   1db80:	2b7d      	cmp	r3, #125	; 0x7d
   1db82:	d105      	bne.n	1db90 <parse_value+0x318>
   1db84:	e7a4      	b.n	1dad0 <parse_value+0x258>
   1db86:	4607      	mov	r7, r0
   1db88:	e7cb      	b.n	1db22 <parse_value+0x2aa>
    if (head != NULL)
   1db8a:	2f00      	cmp	r7, #0
   1db8c:	f43f ae7a 	beq.w	1d884 <parse_value+0xc>
        cJSON_Delete(head);
   1db90:	4638      	mov	r0, r7
   1db92:	f00c fc61 	bl	2a458 <cJSON_Delete>
   1db96:	e675      	b.n	1d884 <parse_value+0xc>

0001db98 <cJSON_CreateNumber>:
    return item;
}

CJSON_PUBLIC(cJSON *) cJSON_CreateNumber(double num)
{
    cJSON *item = cJSON_New_Item(&global_hooks);
   1db98:	4b17      	ldr	r3, [pc, #92]	; (1dbf8 <cJSON_CreateNumber+0x60>)
{
   1db9a:	b5d0      	push	{r4, r6, r7, lr}
   1db9c:	4606      	mov	r6, r0
    cJSON *item = cJSON_New_Item(&global_hooks);
   1db9e:	6818      	ldr	r0, [r3, #0]
{
   1dba0:	460f      	mov	r7, r1
    cJSON *item = cJSON_New_Item(&global_hooks);
   1dba2:	f018 f84f 	bl	35c44 <cJSON_New_Item.isra.0>
    if(item)
   1dba6:	4604      	mov	r4, r0
   1dba8:	b170      	cbz	r0, 1dbc8 <cJSON_CreateNumber+0x30>
    {
        item->type = cJSON_Number;
   1dbaa:	2308      	movs	r3, #8
        item->valuedouble = num;
   1dbac:	e9c0 6706 	strd	r6, r7, [r0, #24]
        item->type = cJSON_Number;
   1dbb0:	60c3      	str	r3, [r0, #12]

        /* use saturation in case of overflow */
        if (num >= INT_MAX)
   1dbb2:	4639      	mov	r1, r7
   1dbb4:	a30e      	add	r3, pc, #56	; (adr r3, 1dbf0 <cJSON_CreateNumber+0x58>)
   1dbb6:	e9d3 2300 	ldrd	r2, r3, [r3]
   1dbba:	4630      	mov	r0, r6
   1dbbc:	f7ff f936 	bl	1ce2c <__aeabi_dcmpge>
   1dbc0:	b120      	cbz	r0, 1dbcc <cJSON_CreateNumber+0x34>
        {
            item->valueint = INT_MAX;
   1dbc2:	f06f 4300 	mvn.w	r3, #2147483648	; 0x80000000
        }
        else if (num <= (double)INT_MIN)
        {
            item->valueint = INT_MIN;
   1dbc6:	6163      	str	r3, [r4, #20]
            item->valueint = (int)num;
        }
    }

    return item;
}
   1dbc8:	4620      	mov	r0, r4
   1dbca:	bdd0      	pop	{r4, r6, r7, pc}
        else if (num <= (double)INT_MIN)
   1dbcc:	2200      	movs	r2, #0
   1dbce:	4630      	mov	r0, r6
   1dbd0:	4639      	mov	r1, r7
   1dbd2:	4b0a      	ldr	r3, [pc, #40]	; (1dbfc <cJSON_CreateNumber+0x64>)
   1dbd4:	f7ff f920 	bl	1ce18 <__aeabi_dcmple>
   1dbd8:	b110      	cbz	r0, 1dbe0 <cJSON_CreateNumber+0x48>
            item->valueint = INT_MIN;
   1dbda:	f04f 4300 	mov.w	r3, #2147483648	; 0x80000000
   1dbde:	e7f2      	b.n	1dbc6 <cJSON_CreateNumber+0x2e>
            item->valueint = (int)num;
   1dbe0:	4630      	mov	r0, r6
   1dbe2:	4639      	mov	r1, r7
   1dbe4:	f7ff f94c 	bl	1ce80 <__aeabi_d2iz>
   1dbe8:	6160      	str	r0, [r4, #20]
    return item;
   1dbea:	e7ed      	b.n	1dbc8 <cJSON_CreateNumber+0x30>
   1dbec:	f3af 8000 	nop.w
   1dbf0:	ffc00000 	.word	0xffc00000
   1dbf4:	41dfffff 	.word	0x41dfffff
   1dbf8:	200145a4 	.word	0x200145a4
   1dbfc:	c1e00000 	.word	0xc1e00000

0001dc00 <_strtod_l>:
   1dc00:	e92d 4ff0 	stmdb	sp!, {r4, r5, r6, r7, r8, r9, sl, fp, lr}
   1dc04:	469b      	mov	fp, r3
   1dc06:	b09f      	sub	sp, #124	; 0x7c
   1dc08:	2300      	movs	r3, #0
   1dc0a:	4682      	mov	sl, r0
   1dc0c:	460e      	mov	r6, r1
   1dc0e:	9215      	str	r2, [sp, #84]	; 0x54
   1dc10:	931a      	str	r3, [sp, #104]	; 0x68
   1dc12:	f04f 0800 	mov.w	r8, #0
   1dc16:	4b9c      	ldr	r3, [pc, #624]	; (1de88 <_strtod_l+0x288>)
   1dc18:	f04f 0900 	mov.w	r9, #0
   1dc1c:	681f      	ldr	r7, [r3, #0]
   1dc1e:	4638      	mov	r0, r7
   1dc20:	f7ff fcd0 	bl	1d5c4 <strlen>
   1dc24:	4604      	mov	r4, r0
   1dc26:	9619      	str	r6, [sp, #100]	; 0x64
   1dc28:	9b19      	ldr	r3, [sp, #100]	; 0x64
   1dc2a:	781a      	ldrb	r2, [r3, #0]
   1dc2c:	2a2b      	cmp	r2, #43	; 0x2b
   1dc2e:	d04c      	beq.n	1dcca <_strtod_l+0xca>
   1dc30:	d83a      	bhi.n	1dca8 <_strtod_l+0xa8>
   1dc32:	2a0d      	cmp	r2, #13
   1dc34:	d833      	bhi.n	1dc9e <_strtod_l+0x9e>
   1dc36:	2a08      	cmp	r2, #8
   1dc38:	d833      	bhi.n	1dca2 <_strtod_l+0xa2>
   1dc3a:	2a00      	cmp	r2, #0
   1dc3c:	d03d      	beq.n	1dcba <_strtod_l+0xba>
   1dc3e:	2300      	movs	r3, #0
   1dc40:	930a      	str	r3, [sp, #40]	; 0x28
   1dc42:	9d19      	ldr	r5, [sp, #100]	; 0x64
   1dc44:	782b      	ldrb	r3, [r5, #0]
   1dc46:	2b30      	cmp	r3, #48	; 0x30
   1dc48:	f040 80a9 	bne.w	1dd9e <_strtod_l+0x19e>
   1dc4c:	786b      	ldrb	r3, [r5, #1]
   1dc4e:	f003 03df 	and.w	r3, r3, #223	; 0xdf
   1dc52:	2b58      	cmp	r3, #88	; 0x58
   1dc54:	d166      	bne.n	1dd24 <_strtod_l+0x124>
   1dc56:	9b0a      	ldr	r3, [sp, #40]	; 0x28
   1dc58:	a919      	add	r1, sp, #100	; 0x64
   1dc5a:	4a8c      	ldr	r2, [pc, #560]	; (1de8c <_strtod_l+0x28c>)
   1dc5c:	4650      	mov	r0, sl
   1dc5e:	9301      	str	r3, [sp, #4]
   1dc60:	ab1a      	add	r3, sp, #104	; 0x68
   1dc62:	f8cd b008 	str.w	fp, [sp, #8]
   1dc66:	9300      	str	r3, [sp, #0]
   1dc68:	ab1b      	add	r3, sp, #108	; 0x6c
   1dc6a:	f014 f817 	bl	31c9c <__gethex>
   1dc6e:	f010 0607 	ands.w	r6, r0, #7
   1dc72:	4604      	mov	r4, r0
   1dc74:	d005      	beq.n	1dc82 <_strtod_l+0x82>
   1dc76:	2e06      	cmp	r6, #6
   1dc78:	d129      	bne.n	1dcce <_strtod_l+0xce>
   1dc7a:	3501      	adds	r5, #1
   1dc7c:	2300      	movs	r3, #0
   1dc7e:	9519      	str	r5, [sp, #100]	; 0x64
   1dc80:	930a      	str	r3, [sp, #40]	; 0x28
   1dc82:	9b15      	ldr	r3, [sp, #84]	; 0x54
   1dc84:	2b00      	cmp	r3, #0
   1dc86:	f040 8586 	bne.w	1e796 <CONFIG_AWS_IOT_SEC_TAG+0x556>
   1dc8a:	9b0a      	ldr	r3, [sp, #40]	; 0x28
   1dc8c:	b1d3      	cbz	r3, 1dcc4 <_strtod_l+0xc4>
   1dc8e:	4642      	mov	r2, r8
   1dc90:	f109 4300 	add.w	r3, r9, #2147483648	; 0x80000000
   1dc94:	4610      	mov	r0, r2
   1dc96:	4619      	mov	r1, r3
   1dc98:	b01f      	add	sp, #124	; 0x7c
   1dc9a:	e8bd 8ff0 	ldmia.w	sp!, {r4, r5, r6, r7, r8, r9, sl, fp, pc}
   1dc9e:	2a20      	cmp	r2, #32
   1dca0:	d1cd      	bne.n	1dc3e <_strtod_l+0x3e>
   1dca2:	3301      	adds	r3, #1
   1dca4:	9319      	str	r3, [sp, #100]	; 0x64
   1dca6:	e7bf      	b.n	1dc28 <_strtod_l+0x28>
   1dca8:	2a2d      	cmp	r2, #45	; 0x2d
   1dcaa:	d1c8      	bne.n	1dc3e <_strtod_l+0x3e>
   1dcac:	2201      	movs	r2, #1
   1dcae:	920a      	str	r2, [sp, #40]	; 0x28
   1dcb0:	1c5a      	adds	r2, r3, #1
   1dcb2:	9219      	str	r2, [sp, #100]	; 0x64
   1dcb4:	785b      	ldrb	r3, [r3, #1]
   1dcb6:	2b00      	cmp	r3, #0
   1dcb8:	d1c3      	bne.n	1dc42 <_strtod_l+0x42>
   1dcba:	9b15      	ldr	r3, [sp, #84]	; 0x54
   1dcbc:	9619      	str	r6, [sp, #100]	; 0x64
   1dcbe:	2b00      	cmp	r3, #0
   1dcc0:	f040 8567 	bne.w	1e792 <CONFIG_AWS_IOT_SEC_TAG+0x552>
   1dcc4:	4642      	mov	r2, r8
   1dcc6:	464b      	mov	r3, r9
   1dcc8:	e7e4      	b.n	1dc94 <_strtod_l+0x94>
   1dcca:	2200      	movs	r2, #0
   1dccc:	e7ef      	b.n	1dcae <_strtod_l+0xae>
   1dcce:	9a1a      	ldr	r2, [sp, #104]	; 0x68
   1dcd0:	b13a      	cbz	r2, 1dce2 <_strtod_l+0xe2>
   1dcd2:	2135      	movs	r1, #53	; 0x35
   1dcd4:	a81c      	add	r0, sp, #112	; 0x70
   1dcd6:	f019 feb1 	bl	37a3c <__copybits>
   1dcda:	991a      	ldr	r1, [sp, #104]	; 0x68
   1dcdc:	4650      	mov	r0, sl
   1dcde:	f014 fab9 	bl	32254 <_Bfree>
   1dce2:	3e01      	subs	r6, #1
   1dce4:	2e04      	cmp	r6, #4
   1dce6:	d806      	bhi.n	1dcf6 <_strtod_l+0xf6>
   1dce8:	e8df f006 	tbb	[pc, r6]
   1dcec:	1714030a 	.word	0x1714030a
   1dcf0:	0a          	.byte	0x0a
   1dcf1:	00          	.byte	0x00
   1dcf2:	e9dd 891c 	ldrd	r8, r9, [sp, #112]	; 0x70
   1dcf6:	0721      	lsls	r1, r4, #28
   1dcf8:	d5c3      	bpl.n	1dc82 <_strtod_l+0x82>
   1dcfa:	f049 4900 	orr.w	r9, r9, #2147483648	; 0x80000000
   1dcfe:	e7c0      	b.n	1dc82 <_strtod_l+0x82>
   1dd00:	e9dd 831c 	ldrd	r8, r3, [sp, #112]	; 0x70
   1dd04:	9a1b      	ldr	r2, [sp, #108]	; 0x6c
   1dd06:	f423 1380 	bic.w	r3, r3, #1048576	; 0x100000
   1dd0a:	f202 4233 	addw	r2, r2, #1075	; 0x433
   1dd0e:	ea43 5902 	orr.w	r9, r3, r2, lsl #20
   1dd12:	e7f0      	b.n	1dcf6 <_strtod_l+0xf6>
   1dd14:	f8df 9178 	ldr.w	r9, [pc, #376]	; 1de90 <_strtod_l+0x290>
   1dd18:	e7ed      	b.n	1dcf6 <_strtod_l+0xf6>
   1dd1a:	f06f 4900 	mvn.w	r9, #2147483648	; 0x80000000
   1dd1e:	f04f 38ff 	mov.w	r8, #4294967295
   1dd22:	e7e8      	b.n	1dcf6 <_strtod_l+0xf6>
   1dd24:	9b19      	ldr	r3, [sp, #100]	; 0x64
   1dd26:	1c5a      	adds	r2, r3, #1
   1dd28:	9219      	str	r2, [sp, #100]	; 0x64
   1dd2a:	785b      	ldrb	r3, [r3, #1]
   1dd2c:	2b30      	cmp	r3, #48	; 0x30
   1dd2e:	d0f9      	beq.n	1dd24 <_strtod_l+0x124>
   1dd30:	2b00      	cmp	r3, #0
   1dd32:	d0a6      	beq.n	1dc82 <_strtod_l+0x82>
   1dd34:	2301      	movs	r3, #1
   1dd36:	9307      	str	r3, [sp, #28]
   1dd38:	220a      	movs	r2, #10
   1dd3a:	9b19      	ldr	r3, [sp, #100]	; 0x64
   1dd3c:	9308      	str	r3, [sp, #32]
   1dd3e:	2300      	movs	r3, #0
   1dd40:	469b      	mov	fp, r3
   1dd42:	e9cd 3305 	strd	r3, r3, [sp, #20]
   1dd46:	9819      	ldr	r0, [sp, #100]	; 0x64
   1dd48:	7805      	ldrb	r5, [r0, #0]
   1dd4a:	f1a5 0330 	sub.w	r3, r5, #48	; 0x30
   1dd4e:	b2d9      	uxtb	r1, r3
   1dd50:	2909      	cmp	r1, #9
   1dd52:	d926      	bls.n	1dda2 <_strtod_l+0x1a2>
   1dd54:	4622      	mov	r2, r4
   1dd56:	4639      	mov	r1, r7
   1dd58:	f019 faea 	bl	37330 <strncmp>
   1dd5c:	2800      	cmp	r0, #0
   1dd5e:	d032      	beq.n	1ddc6 <_strtod_l+0x1c6>
   1dd60:	2000      	movs	r0, #0
   1dd62:	462a      	mov	r2, r5
   1dd64:	465c      	mov	r4, fp
   1dd66:	4603      	mov	r3, r0
   1dd68:	9004      	str	r0, [sp, #16]
   1dd6a:	2a65      	cmp	r2, #101	; 0x65
   1dd6c:	d001      	beq.n	1dd72 <_strtod_l+0x172>
   1dd6e:	2a45      	cmp	r2, #69	; 0x45
   1dd70:	d113      	bne.n	1dd9a <_strtod_l+0x19a>
   1dd72:	b91c      	cbnz	r4, 1dd7c <_strtod_l+0x17c>
   1dd74:	9a07      	ldr	r2, [sp, #28]
   1dd76:	4302      	orrs	r2, r0
   1dd78:	d09f      	beq.n	1dcba <_strtod_l+0xba>
   1dd7a:	2400      	movs	r4, #0
   1dd7c:	9e19      	ldr	r6, [sp, #100]	; 0x64
   1dd7e:	1c72      	adds	r2, r6, #1
   1dd80:	9219      	str	r2, [sp, #100]	; 0x64
   1dd82:	7872      	ldrb	r2, [r6, #1]
   1dd84:	2a2b      	cmp	r2, #43	; 0x2b
   1dd86:	d077      	beq.n	1de78 <_strtod_l+0x278>
   1dd88:	2a2d      	cmp	r2, #45	; 0x2d
   1dd8a:	d07a      	beq.n	1de82 <_strtod_l+0x282>
   1dd8c:	2700      	movs	r7, #0
   1dd8e:	f1a2 0130 	sub.w	r1, r2, #48	; 0x30
   1dd92:	2909      	cmp	r1, #9
   1dd94:	f240 8082 	bls.w	1de9c <_strtod_l+0x29c>
   1dd98:	9619      	str	r6, [sp, #100]	; 0x64
   1dd9a:	2500      	movs	r5, #0
   1dd9c:	e09e      	b.n	1dedc <_strtod_l+0x2dc>
   1dd9e:	2300      	movs	r3, #0
   1dda0:	e7c9      	b.n	1dd36 <_strtod_l+0x136>
   1dda2:	f1bb 0f08 	cmp.w	fp, #8
   1dda6:	f100 0001 	add.w	r0, r0, #1
   1ddaa:	f10b 0b01 	add.w	fp, fp, #1
   1ddae:	bfd5      	itete	le
   1ddb0:	9906      	ldrle	r1, [sp, #24]
   1ddb2:	9905      	ldrgt	r1, [sp, #20]
   1ddb4:	fb02 3301 	mlale	r3, r2, r1, r3
   1ddb8:	fb02 3301 	mlagt	r3, r2, r1, r3
   1ddbc:	bfd4      	ite	le
   1ddbe:	9306      	strle	r3, [sp, #24]
   1ddc0:	9305      	strgt	r3, [sp, #20]
   1ddc2:	9019      	str	r0, [sp, #100]	; 0x64
   1ddc4:	e7bf      	b.n	1dd46 <_strtod_l+0x146>
   1ddc6:	9b19      	ldr	r3, [sp, #100]	; 0x64
   1ddc8:	191a      	adds	r2, r3, r4
   1ddca:	9219      	str	r2, [sp, #100]	; 0x64
   1ddcc:	5d1a      	ldrb	r2, [r3, r4]
   1ddce:	f1bb 0f00 	cmp.w	fp, #0
   1ddd2:	d035      	beq.n	1de40 <_strtod_l+0x240>
   1ddd4:	465c      	mov	r4, fp
   1ddd6:	9004      	str	r0, [sp, #16]
   1ddd8:	f1a2 0330 	sub.w	r3, r2, #48	; 0x30
   1dddc:	2b09      	cmp	r3, #9
   1ddde:	d912      	bls.n	1de06 <_strtod_l+0x206>
   1dde0:	2301      	movs	r3, #1
   1dde2:	e7c2      	b.n	1dd6a <_strtod_l+0x16a>
   1dde4:	9b19      	ldr	r3, [sp, #100]	; 0x64
   1dde6:	3001      	adds	r0, #1
   1dde8:	1c5a      	adds	r2, r3, #1
   1ddea:	9219      	str	r2, [sp, #100]	; 0x64
   1ddec:	785a      	ldrb	r2, [r3, #1]
   1ddee:	2a30      	cmp	r2, #48	; 0x30
   1ddf0:	d0f8      	beq.n	1dde4 <_strtod_l+0x1e4>
   1ddf2:	f1a2 0331 	sub.w	r3, r2, #49	; 0x31
   1ddf6:	2b08      	cmp	r3, #8
   1ddf8:	f200 84d2 	bhi.w	1e7a0 <CONFIG_AWS_IOT_SEC_TAG+0x560>
   1ddfc:	9004      	str	r0, [sp, #16]
   1ddfe:	2000      	movs	r0, #0
   1de00:	9b19      	ldr	r3, [sp, #100]	; 0x64
   1de02:	4604      	mov	r4, r0
   1de04:	9308      	str	r3, [sp, #32]
   1de06:	3a30      	subs	r2, #48	; 0x30
   1de08:	f100 0301 	add.w	r3, r0, #1
   1de0c:	d012      	beq.n	1de34 <_strtod_l+0x234>
   1de0e:	9904      	ldr	r1, [sp, #16]
   1de10:	1905      	adds	r5, r0, r4
   1de12:	4419      	add	r1, r3
   1de14:	4623      	mov	r3, r4
   1de16:	9104      	str	r1, [sp, #16]
   1de18:	210a      	movs	r1, #10
   1de1a:	42ab      	cmp	r3, r5
   1de1c:	d112      	bne.n	1de44 <_strtod_l+0x244>
   1de1e:	1823      	adds	r3, r4, r0
   1de20:	3401      	adds	r4, #1
   1de22:	2b08      	cmp	r3, #8
   1de24:	4404      	add	r4, r0
   1de26:	dc1b      	bgt.n	1de60 <_strtod_l+0x260>
   1de28:	9906      	ldr	r1, [sp, #24]
   1de2a:	230a      	movs	r3, #10
   1de2c:	fb03 2301 	mla	r3, r3, r1, r2
   1de30:	9306      	str	r3, [sp, #24]
   1de32:	2300      	movs	r3, #0
   1de34:	9a19      	ldr	r2, [sp, #100]	; 0x64
   1de36:	4618      	mov	r0, r3
   1de38:	1c51      	adds	r1, r2, #1
   1de3a:	9119      	str	r1, [sp, #100]	; 0x64
   1de3c:	7852      	ldrb	r2, [r2, #1]
   1de3e:	e7cb      	b.n	1ddd8 <_strtod_l+0x1d8>
   1de40:	4658      	mov	r0, fp
   1de42:	e7d4      	b.n	1ddee <_strtod_l+0x1ee>
   1de44:	2b08      	cmp	r3, #8
   1de46:	dc04      	bgt.n	1de52 <_strtod_l+0x252>
   1de48:	9f06      	ldr	r7, [sp, #24]
   1de4a:	434f      	muls	r7, r1
   1de4c:	9706      	str	r7, [sp, #24]
   1de4e:	3301      	adds	r3, #1
   1de50:	e7e3      	b.n	1de1a <_strtod_l+0x21a>
   1de52:	1c5f      	adds	r7, r3, #1
   1de54:	2f10      	cmp	r7, #16
   1de56:	bfde      	ittt	le
   1de58:	9f05      	ldrle	r7, [sp, #20]
   1de5a:	434f      	mulle	r7, r1
   1de5c:	9705      	strle	r7, [sp, #20]
   1de5e:	e7f6      	b.n	1de4e <_strtod_l+0x24e>
   1de60:	2c10      	cmp	r4, #16
   1de62:	bfdf      	itttt	le
   1de64:	230a      	movle	r3, #10
   1de66:	9905      	ldrle	r1, [sp, #20]
   1de68:	fb03 2301 	mlale	r3, r3, r1, r2
   1de6c:	9305      	strle	r3, [sp, #20]
   1de6e:	e7e0      	b.n	1de32 <_strtod_l+0x232>
   1de70:	2300      	movs	r3, #0
   1de72:	9304      	str	r3, [sp, #16]
   1de74:	2301      	movs	r3, #1
   1de76:	e77d      	b.n	1dd74 <_strtod_l+0x174>
   1de78:	2700      	movs	r7, #0
   1de7a:	1cb2      	adds	r2, r6, #2
   1de7c:	9219      	str	r2, [sp, #100]	; 0x64
   1de7e:	78b2      	ldrb	r2, [r6, #2]
   1de80:	e785      	b.n	1dd8e <_strtod_l+0x18e>
   1de82:	2701      	movs	r7, #1
   1de84:	e7f9      	b.n	1de7a <_strtod_l+0x27a>
   1de86:	bf00      	nop
   1de88:	00038c20 	.word	0x00038c20
   1de8c:	00038b98 	.word	0x00038b98
   1de90:	7ff00000 	.word	0x7ff00000
   1de94:	9a19      	ldr	r2, [sp, #100]	; 0x64
   1de96:	1c51      	adds	r1, r2, #1
   1de98:	9119      	str	r1, [sp, #100]	; 0x64
   1de9a:	7852      	ldrb	r2, [r2, #1]
   1de9c:	2a30      	cmp	r2, #48	; 0x30
   1de9e:	d0f9      	beq.n	1de94 <_strtod_l+0x294>
   1dea0:	f1a2 0131 	sub.w	r1, r2, #49	; 0x31
   1dea4:	2908      	cmp	r1, #8
   1dea6:	f63f af78 	bhi.w	1dd9a <_strtod_l+0x19a>
   1deaa:	f1a2 0c30 	sub.w	ip, r2, #48	; 0x30
   1deae:	f04f 0e0a 	mov.w	lr, #10
   1deb2:	9a19      	ldr	r2, [sp, #100]	; 0x64
   1deb4:	9209      	str	r2, [sp, #36]	; 0x24
   1deb6:	9a19      	ldr	r2, [sp, #100]	; 0x64
   1deb8:	1c51      	adds	r1, r2, #1
   1deba:	9119      	str	r1, [sp, #100]	; 0x64
   1debc:	7852      	ldrb	r2, [r2, #1]
   1debe:	f1a2 0530 	sub.w	r5, r2, #48	; 0x30
   1dec2:	2d09      	cmp	r5, #9
   1dec4:	d935      	bls.n	1df32 <_strtod_l+0x332>
   1dec6:	9d09      	ldr	r5, [sp, #36]	; 0x24
   1dec8:	1b49      	subs	r1, r1, r5
   1deca:	f644 651f 	movw	r5, #19999	; 0x4e1f
   1dece:	2908      	cmp	r1, #8
   1ded0:	dc02      	bgt.n	1ded8 <_strtod_l+0x2d8>
   1ded2:	4565      	cmp	r5, ip
   1ded4:	bfa8      	it	ge
   1ded6:	4665      	movge	r5, ip
   1ded8:	b107      	cbz	r7, 1dedc <_strtod_l+0x2dc>
   1deda:	426d      	negs	r5, r5
   1dedc:	2c00      	cmp	r4, #0
   1dede:	d14c      	bne.n	1df7a <_strtod_l+0x37a>
   1dee0:	9907      	ldr	r1, [sp, #28]
   1dee2:	4301      	orrs	r1, r0
   1dee4:	f47f aecd 	bne.w	1dc82 <_strtod_l+0x82>
   1dee8:	2b00      	cmp	r3, #0
   1deea:	f47f aee6 	bne.w	1dcba <_strtod_l+0xba>
   1deee:	2a69      	cmp	r2, #105	; 0x69
   1def0:	d026      	beq.n	1df40 <_strtod_l+0x340>
   1def2:	dc23      	bgt.n	1df3c <_strtod_l+0x33c>
   1def4:	2a49      	cmp	r2, #73	; 0x49
   1def6:	d023      	beq.n	1df40 <_strtod_l+0x340>
   1def8:	2a4e      	cmp	r2, #78	; 0x4e
   1defa:	f47f aede 	bne.w	1dcba <_strtod_l+0xba>
   1defe:	499e      	ldr	r1, [pc, #632]	; (1e178 <_strtod_l+0x578>)
   1df00:	a819      	add	r0, sp, #100	; 0x64
   1df02:	f019 fc04 	bl	3770e <__match>
   1df06:	2800      	cmp	r0, #0
   1df08:	f43f aed7 	beq.w	1dcba <_strtod_l+0xba>
   1df0c:	9b19      	ldr	r3, [sp, #100]	; 0x64
   1df0e:	781b      	ldrb	r3, [r3, #0]
   1df10:	2b28      	cmp	r3, #40	; 0x28
   1df12:	d12c      	bne.n	1df6e <_strtod_l+0x36e>
   1df14:	aa1c      	add	r2, sp, #112	; 0x70
   1df16:	4999      	ldr	r1, [pc, #612]	; (1e17c <_strtod_l+0x57c>)
   1df18:	a819      	add	r0, sp, #100	; 0x64
   1df1a:	f019 fc0c 	bl	37736 <__hexnan>
   1df1e:	2805      	cmp	r0, #5
   1df20:	d125      	bne.n	1df6e <_strtod_l+0x36e>
   1df22:	9b1d      	ldr	r3, [sp, #116]	; 0x74
   1df24:	f8dd 8070 	ldr.w	r8, [sp, #112]	; 0x70
   1df28:	f043 49ff 	orr.w	r9, r3, #2139095040	; 0x7f800000
   1df2c:	f449 09e0 	orr.w	r9, r9, #7340032	; 0x700000
   1df30:	e6a7      	b.n	1dc82 <_strtod_l+0x82>
   1df32:	fb0e 2c0c 	mla	ip, lr, ip, r2
   1df36:	f1ac 0c30 	sub.w	ip, ip, #48	; 0x30
   1df3a:	e7bc      	b.n	1deb6 <_strtod_l+0x2b6>
   1df3c:	2a6e      	cmp	r2, #110	; 0x6e
   1df3e:	e7dc      	b.n	1defa <_strtod_l+0x2fa>
   1df40:	498f      	ldr	r1, [pc, #572]	; (1e180 <_strtod_l+0x580>)
   1df42:	a819      	add	r0, sp, #100	; 0x64
   1df44:	f019 fbe3 	bl	3770e <__match>
   1df48:	2800      	cmp	r0, #0
   1df4a:	f43f aeb6 	beq.w	1dcba <_strtod_l+0xba>
   1df4e:	9b19      	ldr	r3, [sp, #100]	; 0x64
   1df50:	a819      	add	r0, sp, #100	; 0x64
   1df52:	498c      	ldr	r1, [pc, #560]	; (1e184 <_strtod_l+0x584>)
   1df54:	3b01      	subs	r3, #1
   1df56:	9319      	str	r3, [sp, #100]	; 0x64
   1df58:	f019 fbd9 	bl	3770e <__match>
   1df5c:	b910      	cbnz	r0, 1df64 <_strtod_l+0x364>
   1df5e:	9b19      	ldr	r3, [sp, #100]	; 0x64
   1df60:	3301      	adds	r3, #1
   1df62:	9319      	str	r3, [sp, #100]	; 0x64
   1df64:	f8df 9220 	ldr.w	r9, [pc, #544]	; 1e188 <_strtod_l+0x588>
   1df68:	f04f 0800 	mov.w	r8, #0
   1df6c:	e689      	b.n	1dc82 <_strtod_l+0x82>
   1df6e:	4887      	ldr	r0, [pc, #540]	; (1e18c <_strtod_l+0x58c>)
   1df70:	f015 f8ec 	bl	3314c <nan>
   1df74:	4680      	mov	r8, r0
   1df76:	4689      	mov	r9, r1
   1df78:	e683      	b.n	1dc82 <_strtod_l+0x82>
   1df7a:	9b04      	ldr	r3, [sp, #16]
   1df7c:	f1bb 0f00 	cmp.w	fp, #0
   1df80:	bf08      	it	eq
   1df82:	46a3      	moveq	fp, r4
   1df84:	2c10      	cmp	r4, #16
   1df86:	9806      	ldr	r0, [sp, #24]
   1df88:	eba5 0303 	sub.w	r3, r5, r3
   1df8c:	4626      	mov	r6, r4
   1df8e:	bfa8      	it	ge
   1df90:	2610      	movge	r6, #16
   1df92:	9307      	str	r3, [sp, #28]
   1df94:	f7fe fc4a 	bl	1c82c <__aeabi_ui2d>
   1df98:	2c09      	cmp	r4, #9
   1df9a:	4680      	mov	r8, r0
   1df9c:	4689      	mov	r9, r1
   1df9e:	dd13      	ble.n	1dfc8 <_strtod_l+0x3c8>
   1dfa0:	4b7b      	ldr	r3, [pc, #492]	; (1e190 <_strtod_l+0x590>)
   1dfa2:	eb03 03c6 	add.w	r3, r3, r6, lsl #3
   1dfa6:	e953 2312 	ldrd	r2, r3, [r3, #-72]	; 0x48
   1dfaa:	f7fe fcb9 	bl	1c920 <__aeabi_dmul>
   1dfae:	4680      	mov	r8, r0
   1dfb0:	4689      	mov	r9, r1
   1dfb2:	9805      	ldr	r0, [sp, #20]
   1dfb4:	f7fe fc3a 	bl	1c82c <__aeabi_ui2d>
   1dfb8:	4602      	mov	r2, r0
   1dfba:	460b      	mov	r3, r1
   1dfbc:	4640      	mov	r0, r8
   1dfbe:	4649      	mov	r1, r9
   1dfc0:	f7fe faf8 	bl	1c5b4 <__adddf3>
   1dfc4:	4680      	mov	r8, r0
   1dfc6:	4689      	mov	r9, r1
   1dfc8:	2c0f      	cmp	r4, #15
   1dfca:	dc36      	bgt.n	1e03a <_strtod_l+0x43a>
   1dfcc:	9b07      	ldr	r3, [sp, #28]
   1dfce:	2b00      	cmp	r3, #0
   1dfd0:	f43f ae57 	beq.w	1dc82 <_strtod_l+0x82>
   1dfd4:	dd22      	ble.n	1e01c <_strtod_l+0x41c>
   1dfd6:	2b16      	cmp	r3, #22
   1dfd8:	dc09      	bgt.n	1dfee <_strtod_l+0x3ee>
   1dfda:	496d      	ldr	r1, [pc, #436]	; (1e190 <_strtod_l+0x590>)
   1dfdc:	4642      	mov	r2, r8
   1dfde:	eb01 01c3 	add.w	r1, r1, r3, lsl #3
   1dfe2:	464b      	mov	r3, r9
   1dfe4:	e9d1 0100 	ldrd	r0, r1, [r1]
   1dfe8:	f7fe fc9a 	bl	1c920 <__aeabi_dmul>
   1dfec:	e7c2      	b.n	1df74 <_strtod_l+0x374>
   1dfee:	f1c4 0325 	rsb	r3, r4, #37	; 0x25
   1dff2:	9a07      	ldr	r2, [sp, #28]
   1dff4:	4293      	cmp	r3, r2
   1dff6:	db20      	blt.n	1e03a <_strtod_l+0x43a>
   1dff8:	f1c4 040f 	rsb	r4, r4, #15
   1dffc:	4d64      	ldr	r5, [pc, #400]	; (1e190 <_strtod_l+0x590>)
   1dffe:	4642      	mov	r2, r8
   1e000:	464b      	mov	r3, r9
   1e002:	eb05 01c4 	add.w	r1, r5, r4, lsl #3
   1e006:	e9d1 0100 	ldrd	r0, r1, [r1]
   1e00a:	f7fe fc89 	bl	1c920 <__aeabi_dmul>
   1e00e:	9b07      	ldr	r3, [sp, #28]
   1e010:	1b1c      	subs	r4, r3, r4
   1e012:	eb05 05c4 	add.w	r5, r5, r4, lsl #3
   1e016:	e9d5 2300 	ldrd	r2, r3, [r5]
   1e01a:	e7e5      	b.n	1dfe8 <_strtod_l+0x3e8>
   1e01c:	9b07      	ldr	r3, [sp, #28]
   1e01e:	3316      	adds	r3, #22
   1e020:	db0b      	blt.n	1e03a <_strtod_l+0x43a>
   1e022:	9b04      	ldr	r3, [sp, #16]
   1e024:	4640      	mov	r0, r8
   1e026:	4649      	mov	r1, r9
   1e028:	1b5d      	subs	r5, r3, r5
   1e02a:	4b59      	ldr	r3, [pc, #356]	; (1e190 <_strtod_l+0x590>)
   1e02c:	eb03 05c5 	add.w	r5, r3, r5, lsl #3
   1e030:	e9d5 2300 	ldrd	r2, r3, [r5]
   1e034:	f7fe fd9e 	bl	1cb74 <__aeabi_ddiv>
   1e038:	e79c      	b.n	1df74 <_strtod_l+0x374>
   1e03a:	1ba6      	subs	r6, r4, r6
   1e03c:	9b07      	ldr	r3, [sp, #28]
   1e03e:	441e      	add	r6, r3
   1e040:	2e00      	cmp	r6, #0
   1e042:	dd74      	ble.n	1e12e <_strtod_l+0x52e>
   1e044:	f016 030f 	ands.w	r3, r6, #15
   1e048:	d00a      	beq.n	1e060 <_strtod_l+0x460>
   1e04a:	4951      	ldr	r1, [pc, #324]	; (1e190 <_strtod_l+0x590>)
   1e04c:	4642      	mov	r2, r8
   1e04e:	eb01 01c3 	add.w	r1, r1, r3, lsl #3
   1e052:	464b      	mov	r3, r9
   1e054:	e9d1 0100 	ldrd	r0, r1, [r1]
   1e058:	f7fe fc62 	bl	1c920 <__aeabi_dmul>
   1e05c:	4680      	mov	r8, r0
   1e05e:	4689      	mov	r9, r1
   1e060:	f036 060f 	bics.w	r6, r6, #15
   1e064:	d052      	beq.n	1e10c <_strtod_l+0x50c>
   1e066:	f5b6 7f9a 	cmp.w	r6, #308	; 0x134
   1e06a:	dd27      	ble.n	1e0bc <_strtod_l+0x4bc>
   1e06c:	f04f 0b00 	mov.w	fp, #0
   1e070:	f8cd b010 	str.w	fp, [sp, #16]
   1e074:	f8cd b020 	str.w	fp, [sp, #32]
   1e078:	f8cd b018 	str.w	fp, [sp, #24]
   1e07c:	2322      	movs	r3, #34	; 0x22
   1e07e:	f8df 9108 	ldr.w	r9, [pc, #264]	; 1e188 <_strtod_l+0x588>
   1e082:	f04f 0800 	mov.w	r8, #0
   1e086:	f8ca 3000 	str.w	r3, [sl]
   1e08a:	9b08      	ldr	r3, [sp, #32]
   1e08c:	2b00      	cmp	r3, #0
   1e08e:	f43f adf8 	beq.w	1dc82 <_strtod_l+0x82>
   1e092:	991a      	ldr	r1, [sp, #104]	; 0x68
   1e094:	4650      	mov	r0, sl
   1e096:	f014 f8dd 	bl	32254 <_Bfree>
   1e09a:	9906      	ldr	r1, [sp, #24]
   1e09c:	4650      	mov	r0, sl
   1e09e:	f014 f8d9 	bl	32254 <_Bfree>
   1e0a2:	9904      	ldr	r1, [sp, #16]
   1e0a4:	4650      	mov	r0, sl
   1e0a6:	f014 f8d5 	bl	32254 <_Bfree>
   1e0aa:	9908      	ldr	r1, [sp, #32]
   1e0ac:	4650      	mov	r0, sl
   1e0ae:	f014 f8d1 	bl	32254 <_Bfree>
   1e0b2:	4659      	mov	r1, fp
   1e0b4:	4650      	mov	r0, sl
   1e0b6:	f014 f8cd 	bl	32254 <_Bfree>
   1e0ba:	e5e2      	b.n	1dc82 <_strtod_l+0x82>
   1e0bc:	4b35      	ldr	r3, [pc, #212]	; (1e194 <_strtod_l+0x594>)
   1e0be:	1136      	asrs	r6, r6, #4
   1e0c0:	4640      	mov	r0, r8
   1e0c2:	4649      	mov	r1, r9
   1e0c4:	9305      	str	r3, [sp, #20]
   1e0c6:	2300      	movs	r3, #0
   1e0c8:	461f      	mov	r7, r3
   1e0ca:	2e01      	cmp	r6, #1
   1e0cc:	dc21      	bgt.n	1e112 <_strtod_l+0x512>
   1e0ce:	b10b      	cbz	r3, 1e0d4 <_strtod_l+0x4d4>
   1e0d0:	4680      	mov	r8, r0
   1e0d2:	4689      	mov	r9, r1
   1e0d4:	4b2f      	ldr	r3, [pc, #188]	; (1e194 <_strtod_l+0x594>)
   1e0d6:	f1a9 7954 	sub.w	r9, r9, #55574528	; 0x3500000
   1e0da:	4642      	mov	r2, r8
   1e0dc:	eb03 07c7 	add.w	r7, r3, r7, lsl #3
   1e0e0:	464b      	mov	r3, r9
   1e0e2:	e9d7 0100 	ldrd	r0, r1, [r7]
   1e0e6:	f7fe fc1b 	bl	1c920 <__aeabi_dmul>
   1e0ea:	4b27      	ldr	r3, [pc, #156]	; (1e188 <_strtod_l+0x588>)
   1e0ec:	460a      	mov	r2, r1
   1e0ee:	4680      	mov	r8, r0
   1e0f0:	400b      	ands	r3, r1
   1e0f2:	4929      	ldr	r1, [pc, #164]	; (1e198 <_strtod_l+0x598>)
   1e0f4:	428b      	cmp	r3, r1
   1e0f6:	d8b9      	bhi.n	1e06c <_strtod_l+0x46c>
   1e0f8:	f5a1 1180 	sub.w	r1, r1, #1048576	; 0x100000
   1e0fc:	428b      	cmp	r3, r1
   1e0fe:	bf86      	itte	hi
   1e100:	f8df 9098 	ldrhi.w	r9, [pc, #152]	; 1e19c <_strtod_l+0x59c>
   1e104:	f04f 38ff 	movhi.w	r8, #4294967295
   1e108:	f102 7954 	addls.w	r9, r2, #55574528	; 0x3500000
   1e10c:	2300      	movs	r3, #0
   1e10e:	9305      	str	r3, [sp, #20]
   1e110:	e080      	b.n	1e214 <_strtod_l+0x614>
   1e112:	07f2      	lsls	r2, r6, #31
   1e114:	d505      	bpl.n	1e122 <_strtod_l+0x522>
   1e116:	9b05      	ldr	r3, [sp, #20]
   1e118:	e9d3 2300 	ldrd	r2, r3, [r3]
   1e11c:	f7fe fc00 	bl	1c920 <__aeabi_dmul>
   1e120:	2301      	movs	r3, #1
   1e122:	9a05      	ldr	r2, [sp, #20]
   1e124:	3701      	adds	r7, #1
   1e126:	1076      	asrs	r6, r6, #1
   1e128:	3208      	adds	r2, #8
   1e12a:	9205      	str	r2, [sp, #20]
   1e12c:	e7cd      	b.n	1e0ca <_strtod_l+0x4ca>
   1e12e:	d0ed      	beq.n	1e10c <_strtod_l+0x50c>
   1e130:	4276      	negs	r6, r6
   1e132:	f016 020f 	ands.w	r2, r6, #15
   1e136:	d00a      	beq.n	1e14e <_strtod_l+0x54e>
   1e138:	4b15      	ldr	r3, [pc, #84]	; (1e190 <_strtod_l+0x590>)
   1e13a:	4640      	mov	r0, r8
   1e13c:	4649      	mov	r1, r9
   1e13e:	eb03 03c2 	add.w	r3, r3, r2, lsl #3
   1e142:	e9d3 2300 	ldrd	r2, r3, [r3]
   1e146:	f7fe fd15 	bl	1cb74 <__aeabi_ddiv>
   1e14a:	4680      	mov	r8, r0
   1e14c:	4689      	mov	r9, r1
   1e14e:	1136      	asrs	r6, r6, #4
   1e150:	d0dc      	beq.n	1e10c <_strtod_l+0x50c>
   1e152:	2e1f      	cmp	r6, #31
   1e154:	dd24      	ble.n	1e1a0 <_strtod_l+0x5a0>
   1e156:	f04f 0b00 	mov.w	fp, #0
   1e15a:	f8cd b010 	str.w	fp, [sp, #16]
   1e15e:	f8cd b020 	str.w	fp, [sp, #32]
   1e162:	f8cd b018 	str.w	fp, [sp, #24]
   1e166:	2322      	movs	r3, #34	; 0x22
   1e168:	f04f 0800 	mov.w	r8, #0
   1e16c:	f04f 0900 	mov.w	r9, #0
   1e170:	f8ca 3000 	str.w	r3, [sl]
   1e174:	e789      	b.n	1e08a <_strtod_l+0x48a>
   1e176:	bf00      	nop
   1e178:	0003d82c 	.word	0x0003d82c
   1e17c:	00038bac 	.word	0x00038bac
   1e180:	0003d824 	.word	0x0003d824
   1e184:	0003d854 	.word	0x0003d854
   1e188:	7ff00000 	.word	0x7ff00000
   1e18c:	0003a1b1 	.word	0x0003a1b1
   1e190:	000382e8 	.word	0x000382e8
   1e194:	000382c0 	.word	0x000382c0
   1e198:	7ca00000 	.word	0x7ca00000
   1e19c:	7fefffff 	.word	0x7fefffff
   1e1a0:	f016 0310 	ands.w	r3, r6, #16
   1e1a4:	4640      	mov	r0, r8
   1e1a6:	4649      	mov	r1, r9
   1e1a8:	4fb0      	ldr	r7, [pc, #704]	; (1e46c <CONFIG_AWS_IOT_SEC_TAG+0x22c>)
   1e1aa:	bf18      	it	ne
   1e1ac:	236a      	movne	r3, #106	; 0x6a
   1e1ae:	9305      	str	r3, [sp, #20]
   1e1b0:	2300      	movs	r3, #0
   1e1b2:	07f2      	lsls	r2, r6, #31
   1e1b4:	d504      	bpl.n	1e1c0 <_strtod_l+0x5c0>
   1e1b6:	e9d7 2300 	ldrd	r2, r3, [r7]
   1e1ba:	f7fe fbb1 	bl	1c920 <__aeabi_dmul>
   1e1be:	2301      	movs	r3, #1
   1e1c0:	1076      	asrs	r6, r6, #1
   1e1c2:	f107 0708 	add.w	r7, r7, #8
   1e1c6:	d1f4      	bne.n	1e1b2 <_strtod_l+0x5b2>
   1e1c8:	b10b      	cbz	r3, 1e1ce <_strtod_l+0x5ce>
   1e1ca:	4680      	mov	r8, r0
   1e1cc:	4689      	mov	r9, r1
   1e1ce:	9b05      	ldr	r3, [sp, #20]
   1e1d0:	b1c3      	cbz	r3, 1e204 <_strtod_l+0x604>
   1e1d2:	f3c9 520a 	ubfx	r2, r9, #20, #11
   1e1d6:	4649      	mov	r1, r9
   1e1d8:	f1c2 036b 	rsb	r3, r2, #107	; 0x6b
   1e1dc:	2b00      	cmp	r3, #0
   1e1de:	dd11      	ble.n	1e204 <_strtod_l+0x604>
   1e1e0:	2b1f      	cmp	r3, #31
   1e1e2:	f340 8123 	ble.w	1e42c <CONFIG_AWS_IOT_SEC_TAG+0x1ec>
   1e1e6:	2b34      	cmp	r3, #52	; 0x34
   1e1e8:	f04f 0800 	mov.w	r8, #0
   1e1ec:	bfdb      	ittet	le
   1e1ee:	f1c2 024b 	rsble	r2, r2, #75	; 0x4b
   1e1f2:	f04f 33ff 	movle.w	r3, #4294967295
   1e1f6:	f04f 795c 	movgt.w	r9, #57671680	; 0x3700000
   1e1fa:	fa03 f202 	lslle.w	r2, r3, r2
   1e1fe:	bfd8      	it	le
   1e200:	ea02 0901 	andle.w	r9, r2, r1
   1e204:	2200      	movs	r2, #0
   1e206:	2300      	movs	r3, #0
   1e208:	4640      	mov	r0, r8
   1e20a:	4649      	mov	r1, r9
   1e20c:	f7fe fdf0 	bl	1cdf0 <__aeabi_dcmpeq>
   1e210:	2800      	cmp	r0, #0
   1e212:	d1a0      	bne.n	1e156 <_strtod_l+0x556>
   1e214:	9b06      	ldr	r3, [sp, #24]
   1e216:	465a      	mov	r2, fp
   1e218:	9908      	ldr	r1, [sp, #32]
   1e21a:	4650      	mov	r0, sl
   1e21c:	9300      	str	r3, [sp, #0]
   1e21e:	4623      	mov	r3, r4
   1e220:	f014 f882 	bl	32328 <__s2b>
   1e224:	9008      	str	r0, [sp, #32]
   1e226:	2800      	cmp	r0, #0
   1e228:	f43f af20 	beq.w	1e06c <_strtod_l+0x46c>
   1e22c:	9b04      	ldr	r3, [sp, #16]
   1e22e:	f04f 0b00 	mov.w	fp, #0
   1e232:	1b5d      	subs	r5, r3, r5
   1e234:	9b07      	ldr	r3, [sp, #28]
   1e236:	f8cd b010 	str.w	fp, [sp, #16]
   1e23a:	2b00      	cmp	r3, #0
   1e23c:	bfb4      	ite	lt
   1e23e:	462b      	movlt	r3, r5
   1e240:	2300      	movge	r3, #0
   1e242:	930e      	str	r3, [sp, #56]	; 0x38
   1e244:	9b07      	ldr	r3, [sp, #28]
   1e246:	ea23 73e3 	bic.w	r3, r3, r3, asr #31
   1e24a:	9314      	str	r3, [sp, #80]	; 0x50
   1e24c:	9b08      	ldr	r3, [sp, #32]
   1e24e:	4650      	mov	r0, sl
   1e250:	6859      	ldr	r1, [r3, #4]
   1e252:	f013 ffbf 	bl	321d4 <_Balloc>
   1e256:	9006      	str	r0, [sp, #24]
   1e258:	2800      	cmp	r0, #0
   1e25a:	f43f af0f 	beq.w	1e07c <_strtod_l+0x47c>
   1e25e:	9b08      	ldr	r3, [sp, #32]
   1e260:	300c      	adds	r0, #12
   1e262:	691a      	ldr	r2, [r3, #16]
   1e264:	f103 010c 	add.w	r1, r3, #12
   1e268:	3202      	adds	r2, #2
   1e26a:	0092      	lsls	r2, r2, #2
   1e26c:	f018 fe9b 	bl	36fa6 <memcpy>
   1e270:	ab1c      	add	r3, sp, #112	; 0x70
   1e272:	4642      	mov	r2, r8
   1e274:	4650      	mov	r0, sl
   1e276:	9301      	str	r3, [sp, #4]
   1e278:	ab1b      	add	r3, sp, #108	; 0x6c
   1e27a:	9300      	str	r3, [sp, #0]
   1e27c:	464b      	mov	r3, r9
   1e27e:	e9cd 890c 	strd	r8, r9, [sp, #48]	; 0x30
   1e282:	f014 fb27 	bl	328d4 <__d2b>
   1e286:	901a      	str	r0, [sp, #104]	; 0x68
   1e288:	2800      	cmp	r0, #0
   1e28a:	f43f aef7 	beq.w	1e07c <_strtod_l+0x47c>
   1e28e:	2101      	movs	r1, #1
   1e290:	4650      	mov	r0, sl
   1e292:	f014 f893 	bl	323bc <__i2b>
   1e296:	4603      	mov	r3, r0
   1e298:	9004      	str	r0, [sp, #16]
   1e29a:	2800      	cmp	r0, #0
   1e29c:	f43f aeee 	beq.w	1e07c <_strtod_l+0x47c>
   1e2a0:	9d1b      	ldr	r5, [sp, #108]	; 0x6c
   1e2a2:	9a1c      	ldr	r2, [sp, #112]	; 0x70
   1e2a4:	2d00      	cmp	r5, #0
   1e2a6:	bfa9      	itett	ge
   1e2a8:	9b0e      	ldrge	r3, [sp, #56]	; 0x38
   1e2aa:	9b14      	ldrlt	r3, [sp, #80]	; 0x50
   1e2ac:	18ee      	addge	r6, r5, r3
   1e2ae:	9c14      	ldrge	r4, [sp, #80]	; 0x50
   1e2b0:	bfb8      	it	lt
   1e2b2:	1b5c      	sublt	r4, r3, r5
   1e2b4:	9b05      	ldr	r3, [sp, #20]
   1e2b6:	bfb8      	it	lt
   1e2b8:	9e0e      	ldrlt	r6, [sp, #56]	; 0x38
   1e2ba:	1aed      	subs	r5, r5, r3
   1e2bc:	4b6c      	ldr	r3, [pc, #432]	; (1e470 <CONFIG_AWS_IOT_SEC_TAG+0x230>)
   1e2be:	4415      	add	r5, r2
   1e2c0:	f1c2 0236 	rsb	r2, r2, #54	; 0x36
   1e2c4:	3d01      	subs	r5, #1
   1e2c6:	429d      	cmp	r5, r3
   1e2c8:	f280 80c2 	bge.w	1e450 <CONFIG_AWS_IOT_SEC_TAG+0x210>
   1e2cc:	1b5b      	subs	r3, r3, r5
   1e2ce:	2701      	movs	r7, #1
   1e2d0:	2b1f      	cmp	r3, #31
   1e2d2:	eba2 0203 	sub.w	r2, r2, r3
   1e2d6:	f300 80b0 	bgt.w	1e43a <CONFIG_AWS_IOT_SEC_TAG+0x1fa>
   1e2da:	fa07 f303 	lsl.w	r3, r7, r3
   1e2de:	2500      	movs	r5, #0
   1e2e0:	930f      	str	r3, [sp, #60]	; 0x3c
   1e2e2:	18b7      	adds	r7, r6, r2
   1e2e4:	9b05      	ldr	r3, [sp, #20]
   1e2e6:	4414      	add	r4, r2
   1e2e8:	42be      	cmp	r6, r7
   1e2ea:	441c      	add	r4, r3
   1e2ec:	4633      	mov	r3, r6
   1e2ee:	bfa8      	it	ge
   1e2f0:	463b      	movge	r3, r7
   1e2f2:	42a3      	cmp	r3, r4
   1e2f4:	bfa8      	it	ge
   1e2f6:	4623      	movge	r3, r4
   1e2f8:	2b00      	cmp	r3, #0
   1e2fa:	bfc2      	ittt	gt
   1e2fc:	1aff      	subgt	r7, r7, r3
   1e2fe:	1ae4      	subgt	r4, r4, r3
   1e300:	1af6      	subgt	r6, r6, r3
   1e302:	9b0e      	ldr	r3, [sp, #56]	; 0x38
   1e304:	2b00      	cmp	r3, #0
   1e306:	dd17      	ble.n	1e338 <CONFIG_AWS_IOT_SEC_TAG+0xf8>
   1e308:	461a      	mov	r2, r3
   1e30a:	9904      	ldr	r1, [sp, #16]
   1e30c:	4650      	mov	r0, sl
   1e30e:	f014 f913 	bl	32538 <__pow5mult>
   1e312:	9004      	str	r0, [sp, #16]
   1e314:	2800      	cmp	r0, #0
   1e316:	f43f aeb1 	beq.w	1e07c <_strtod_l+0x47c>
   1e31a:	4601      	mov	r1, r0
   1e31c:	9a1a      	ldr	r2, [sp, #104]	; 0x68
   1e31e:	4650      	mov	r0, sl
   1e320:	f014 f862 	bl	323e8 <__multiply>
   1e324:	9009      	str	r0, [sp, #36]	; 0x24
   1e326:	2800      	cmp	r0, #0
   1e328:	f43f aea8 	beq.w	1e07c <_strtod_l+0x47c>
   1e32c:	991a      	ldr	r1, [sp, #104]	; 0x68
   1e32e:	4650      	mov	r0, sl
   1e330:	f013 ff90 	bl	32254 <_Bfree>
   1e334:	9b09      	ldr	r3, [sp, #36]	; 0x24
   1e336:	931a      	str	r3, [sp, #104]	; 0x68
   1e338:	2f00      	cmp	r7, #0
   1e33a:	f300 808d 	bgt.w	1e458 <CONFIG_AWS_IOT_SEC_TAG+0x218>
   1e33e:	9b07      	ldr	r3, [sp, #28]
   1e340:	2b00      	cmp	r3, #0
   1e342:	dd08      	ble.n	1e356 <CONFIG_AWS_IOT_SEC_TAG+0x116>
   1e344:	9a14      	ldr	r2, [sp, #80]	; 0x50
   1e346:	4650      	mov	r0, sl
   1e348:	9906      	ldr	r1, [sp, #24]
   1e34a:	f014 f8f5 	bl	32538 <__pow5mult>
   1e34e:	9006      	str	r0, [sp, #24]
   1e350:	2800      	cmp	r0, #0
   1e352:	f43f ae93 	beq.w	1e07c <_strtod_l+0x47c>
   1e356:	2c00      	cmp	r4, #0
   1e358:	dd08      	ble.n	1e36c <CONFIG_AWS_IOT_SEC_TAG+0x12c>
   1e35a:	4622      	mov	r2, r4
   1e35c:	9906      	ldr	r1, [sp, #24]
   1e35e:	4650      	mov	r0, sl
   1e360:	f014 f944 	bl	325ec <__lshift>
   1e364:	9006      	str	r0, [sp, #24]
   1e366:	2800      	cmp	r0, #0
   1e368:	f43f ae88 	beq.w	1e07c <_strtod_l+0x47c>
   1e36c:	2e00      	cmp	r6, #0
   1e36e:	dd08      	ble.n	1e382 <CONFIG_AWS_IOT_SEC_TAG+0x142>
   1e370:	4632      	mov	r2, r6
   1e372:	9904      	ldr	r1, [sp, #16]
   1e374:	4650      	mov	r0, sl
   1e376:	f014 f939 	bl	325ec <__lshift>
   1e37a:	9004      	str	r0, [sp, #16]
   1e37c:	2800      	cmp	r0, #0
   1e37e:	f43f ae7d 	beq.w	1e07c <_strtod_l+0x47c>
   1e382:	9a06      	ldr	r2, [sp, #24]
   1e384:	4650      	mov	r0, sl
   1e386:	991a      	ldr	r1, [sp, #104]	; 0x68
   1e388:	f014 f9a0 	bl	326cc <__mdiff>
   1e38c:	4683      	mov	fp, r0
   1e38e:	2800      	cmp	r0, #0
   1e390:	f43f ae74 	beq.w	1e07c <_strtod_l+0x47c>
   1e394:	2400      	movs	r4, #0
   1e396:	68c3      	ldr	r3, [r0, #12]
   1e398:	9904      	ldr	r1, [sp, #16]
   1e39a:	60c4      	str	r4, [r0, #12]
   1e39c:	930b      	str	r3, [sp, #44]	; 0x2c
   1e39e:	f019 fb04 	bl	379aa <__mcmp>
   1e3a2:	42a0      	cmp	r0, r4
   1e3a4:	da6a      	bge.n	1e47c <CONFIG_AWS_IOT_SEC_TAG+0x23c>
   1e3a6:	9b0b      	ldr	r3, [sp, #44]	; 0x2c
   1e3a8:	ea53 0308 	orrs.w	r3, r3, r8
   1e3ac:	f040 8090 	bne.w	1e4d0 <CONFIG_AWS_IOT_SEC_TAG+0x290>
   1e3b0:	f3c9 0313 	ubfx	r3, r9, #0, #20
   1e3b4:	2b00      	cmp	r3, #0
   1e3b6:	f040 808b 	bne.w	1e4d0 <CONFIG_AWS_IOT_SEC_TAG+0x290>
   1e3ba:	f029 4300 	bic.w	r3, r9, #2147483648	; 0x80000000
   1e3be:	0d1b      	lsrs	r3, r3, #20
   1e3c0:	051b      	lsls	r3, r3, #20
   1e3c2:	f1b3 6fd6 	cmp.w	r3, #112197632	; 0x6b00000
   1e3c6:	f240 8083 	bls.w	1e4d0 <CONFIG_AWS_IOT_SEC_TAG+0x290>
   1e3ca:	f8db 3014 	ldr.w	r3, [fp, #20]
   1e3ce:	b91b      	cbnz	r3, 1e3d8 <CONFIG_AWS_IOT_SEC_TAG+0x198>
   1e3d0:	f8db 3010 	ldr.w	r3, [fp, #16]
   1e3d4:	2b01      	cmp	r3, #1
   1e3d6:	dd7b      	ble.n	1e4d0 <CONFIG_AWS_IOT_SEC_TAG+0x290>
   1e3d8:	4659      	mov	r1, fp
   1e3da:	2201      	movs	r2, #1
   1e3dc:	4650      	mov	r0, sl
   1e3de:	f014 f905 	bl	325ec <__lshift>
   1e3e2:	9904      	ldr	r1, [sp, #16]
   1e3e4:	4683      	mov	fp, r0
   1e3e6:	f019 fae0 	bl	379aa <__mcmp>
   1e3ea:	2800      	cmp	r0, #0
   1e3ec:	dd70      	ble.n	1e4d0 <CONFIG_AWS_IOT_SEC_TAG+0x290>
   1e3ee:	9905      	ldr	r1, [sp, #20]
   1e3f0:	464b      	mov	r3, r9
   1e3f2:	4a20      	ldr	r2, [pc, #128]	; (1e474 <CONFIG_AWS_IOT_SEC_TAG+0x234>)
   1e3f4:	2900      	cmp	r1, #0
   1e3f6:	f000 808b 	beq.w	1e510 <CONFIG_AWS_IOT_SEC_TAG+0x2d0>
   1e3fa:	ea02 0109 	and.w	r1, r2, r9
   1e3fe:	f1b1 6fd6 	cmp.w	r1, #112197632	; 0x6b00000
   1e402:	f300 8085 	bgt.w	1e510 <CONFIG_AWS_IOT_SEC_TAG+0x2d0>
   1e406:	f1b1 7f5c 	cmp.w	r1, #57671680	; 0x3700000
   1e40a:	f77f aeac 	ble.w	1e166 <_strtod_l+0x566>
   1e40e:	4b1a      	ldr	r3, [pc, #104]	; (1e478 <CONFIG_AWS_IOT_SEC_TAG+0x238>)
   1e410:	4640      	mov	r0, r8
   1e412:	4649      	mov	r1, r9
   1e414:	2200      	movs	r2, #0
   1e416:	f7fe fa83 	bl	1c920 <__aeabi_dmul>
   1e41a:	460b      	mov	r3, r1
   1e41c:	4680      	mov	r8, r0
   1e41e:	4689      	mov	r9, r1
   1e420:	4303      	orrs	r3, r0
   1e422:	bf04      	itt	eq
   1e424:	2322      	moveq	r3, #34	; 0x22
   1e426:	f8ca 3000 	streq.w	r3, [sl]
   1e42a:	e632      	b.n	1e092 <_strtod_l+0x492>
   1e42c:	f04f 32ff 	mov.w	r2, #4294967295
   1e430:	fa02 f303 	lsl.w	r3, r2, r3
   1e434:	ea03 0808 	and.w	r8, r3, r8
   1e438:	e6e4      	b.n	1e204 <_strtod_l+0x604>
   1e43a:	f1c5 457f 	rsb	r5, r5, #4278190080	; 0xff000000
   1e43e:	970f      	str	r7, [sp, #60]	; 0x3c
   1e440:	f505 057f 	add.w	r5, r5, #16711680	; 0xff0000
   1e444:	f505 457b 	add.w	r5, r5, #64256	; 0xfb00
   1e448:	35e2      	adds	r5, #226	; 0xe2
   1e44a:	fa07 f505 	lsl.w	r5, r7, r5
   1e44e:	e748      	b.n	1e2e2 <CONFIG_AWS_IOT_SEC_TAG+0xa2>
   1e450:	2301      	movs	r3, #1
   1e452:	2500      	movs	r5, #0
   1e454:	930f      	str	r3, [sp, #60]	; 0x3c
   1e456:	e744      	b.n	1e2e2 <CONFIG_AWS_IOT_SEC_TAG+0xa2>
   1e458:	463a      	mov	r2, r7
   1e45a:	991a      	ldr	r1, [sp, #104]	; 0x68
   1e45c:	4650      	mov	r0, sl
   1e45e:	f014 f8c5 	bl	325ec <__lshift>
   1e462:	901a      	str	r0, [sp, #104]	; 0x68
   1e464:	2800      	cmp	r0, #0
   1e466:	f47f af6a 	bne.w	1e33e <CONFIG_AWS_IOT_SEC_TAG+0xfe>
   1e46a:	e607      	b.n	1e07c <_strtod_l+0x47c>
   1e46c:	00038298 	.word	0x00038298
   1e470:	fffffc02 	.word	0xfffffc02
   1e474:	7ff00000 	.word	0x7ff00000
   1e478:	39500000 	.word	0x39500000
   1e47c:	f8cd 9024 	str.w	r9, [sp, #36]	; 0x24
   1e480:	d165      	bne.n	1e54e <CONFIG_AWS_IOT_SEC_TAG+0x30e>
   1e482:	9a0b      	ldr	r2, [sp, #44]	; 0x2c
   1e484:	f3c9 0313 	ubfx	r3, r9, #0, #20
   1e488:	b35a      	cbz	r2, 1e4e2 <CONFIG_AWS_IOT_SEC_TAG+0x2a2>
   1e48a:	4a99      	ldr	r2, [pc, #612]	; (1e6f0 <CONFIG_AWS_IOT_SEC_TAG+0x4b0>)
   1e48c:	4293      	cmp	r3, r2
   1e48e:	d12b      	bne.n	1e4e8 <CONFIG_AWS_IOT_SEC_TAG+0x2a8>
   1e490:	9b05      	ldr	r3, [sp, #20]
   1e492:	4641      	mov	r1, r8
   1e494:	b303      	cbz	r3, 1e4d8 <CONFIG_AWS_IOT_SEC_TAG+0x298>
   1e496:	464a      	mov	r2, r9
   1e498:	4b96      	ldr	r3, [pc, #600]	; (1e6f4 <CONFIG_AWS_IOT_SEC_TAG+0x4b4>)
   1e49a:	4013      	ands	r3, r2
   1e49c:	f04f 32ff 	mov.w	r2, #4294967295
   1e4a0:	f1b3 6fd4 	cmp.w	r3, #111149056	; 0x6a00000
   1e4a4:	d81b      	bhi.n	1e4de <CONFIG_AWS_IOT_SEC_TAG+0x29e>
   1e4a6:	0d1b      	lsrs	r3, r3, #20
   1e4a8:	f1c3 036b 	rsb	r3, r3, #107	; 0x6b
   1e4ac:	fa02 f303 	lsl.w	r3, r2, r3
   1e4b0:	4299      	cmp	r1, r3
   1e4b2:	d119      	bne.n	1e4e8 <CONFIG_AWS_IOT_SEC_TAG+0x2a8>
   1e4b4:	4b90      	ldr	r3, [pc, #576]	; (1e6f8 <CONFIG_AWS_IOT_SEC_TAG+0x4b8>)
   1e4b6:	9a09      	ldr	r2, [sp, #36]	; 0x24
   1e4b8:	429a      	cmp	r2, r3
   1e4ba:	d102      	bne.n	1e4c2 <CONFIG_AWS_IOT_SEC_TAG+0x282>
   1e4bc:	3101      	adds	r1, #1
   1e4be:	f43f addd 	beq.w	1e07c <_strtod_l+0x47c>
   1e4c2:	4b8c      	ldr	r3, [pc, #560]	; (1e6f4 <CONFIG_AWS_IOT_SEC_TAG+0x4b4>)
   1e4c4:	f04f 0800 	mov.w	r8, #0
   1e4c8:	9a09      	ldr	r2, [sp, #36]	; 0x24
   1e4ca:	401a      	ands	r2, r3
   1e4cc:	f502 1980 	add.w	r9, r2, #1048576	; 0x100000
   1e4d0:	9b05      	ldr	r3, [sp, #20]
   1e4d2:	2b00      	cmp	r3, #0
   1e4d4:	d19b      	bne.n	1e40e <CONFIG_AWS_IOT_SEC_TAG+0x1ce>
   1e4d6:	e5dc      	b.n	1e092 <_strtod_l+0x492>
   1e4d8:	f04f 33ff 	mov.w	r3, #4294967295
   1e4dc:	e7e8      	b.n	1e4b0 <CONFIG_AWS_IOT_SEC_TAG+0x270>
   1e4de:	4613      	mov	r3, r2
   1e4e0:	e7e6      	b.n	1e4b0 <CONFIG_AWS_IOT_SEC_TAG+0x270>
   1e4e2:	ea53 0308 	orrs.w	r3, r3, r8
   1e4e6:	d082      	beq.n	1e3ee <CONFIG_AWS_IOT_SEC_TAG+0x1ae>
   1e4e8:	b1e5      	cbz	r5, 1e524 <CONFIG_AWS_IOT_SEC_TAG+0x2e4>
   1e4ea:	9b09      	ldr	r3, [sp, #36]	; 0x24
   1e4ec:	421d      	tst	r5, r3
   1e4ee:	d0ef      	beq.n	1e4d0 <CONFIG_AWS_IOT_SEC_TAG+0x290>
   1e4f0:	9b0b      	ldr	r3, [sp, #44]	; 0x2c
   1e4f2:	4640      	mov	r0, r8
   1e4f4:	9a05      	ldr	r2, [sp, #20]
   1e4f6:	4649      	mov	r1, r9
   1e4f8:	b1c3      	cbz	r3, 1e52c <CONFIG_AWS_IOT_SEC_TAG+0x2ec>
   1e4fa:	f018 ff76 	bl	373ea <sulp>
   1e4fe:	4602      	mov	r2, r0
   1e500:	460b      	mov	r3, r1
   1e502:	e9dd 010c 	ldrd	r0, r1, [sp, #48]	; 0x30
   1e506:	f7fe f855 	bl	1c5b4 <__adddf3>
   1e50a:	4680      	mov	r8, r0
   1e50c:	4689      	mov	r9, r1
   1e50e:	e7df      	b.n	1e4d0 <CONFIG_AWS_IOT_SEC_TAG+0x290>
   1e510:	4013      	ands	r3, r2
   1e512:	f04f 38ff 	mov.w	r8, #4294967295
   1e516:	f5a3 1380 	sub.w	r3, r3, #1048576	; 0x100000
   1e51a:	ea6f 5913 	mvn.w	r9, r3, lsr #20
   1e51e:	ea6f 5909 	mvn.w	r9, r9, lsl #20
   1e522:	e7d5      	b.n	1e4d0 <CONFIG_AWS_IOT_SEC_TAG+0x290>
   1e524:	9b0f      	ldr	r3, [sp, #60]	; 0x3c
   1e526:	ea13 0f08 	tst.w	r3, r8
   1e52a:	e7e0      	b.n	1e4ee <CONFIG_AWS_IOT_SEC_TAG+0x2ae>
   1e52c:	f018 ff5d 	bl	373ea <sulp>
   1e530:	4602      	mov	r2, r0
   1e532:	460b      	mov	r3, r1
   1e534:	e9dd 010c 	ldrd	r0, r1, [sp, #48]	; 0x30
   1e538:	f7fe f83a 	bl	1c5b0 <__aeabi_dsub>
   1e53c:	2200      	movs	r2, #0
   1e53e:	2300      	movs	r3, #0
   1e540:	4680      	mov	r8, r0
   1e542:	4689      	mov	r9, r1
   1e544:	f7fe fc54 	bl	1cdf0 <__aeabi_dcmpeq>
   1e548:	2800      	cmp	r0, #0
   1e54a:	d0c1      	beq.n	1e4d0 <CONFIG_AWS_IOT_SEC_TAG+0x290>
   1e54c:	e60b      	b.n	1e166 <_strtod_l+0x566>
   1e54e:	9904      	ldr	r1, [sp, #16]
   1e550:	4658      	mov	r0, fp
   1e552:	f019 fa45 	bl	379e0 <__ratio>
   1e556:	2200      	movs	r2, #0
   1e558:	f04f 4380 	mov.w	r3, #1073741824	; 0x40000000
   1e55c:	4606      	mov	r6, r0
   1e55e:	460f      	mov	r7, r1
   1e560:	f7fe fc5a 	bl	1ce18 <__aeabi_dcmple>
   1e564:	2800      	cmp	r0, #0
   1e566:	d070      	beq.n	1e64a <CONFIG_AWS_IOT_SEC_TAG+0x40a>
   1e568:	9b0b      	ldr	r3, [sp, #44]	; 0x2c
   1e56a:	2b00      	cmp	r3, #0
   1e56c:	d042      	beq.n	1e5f4 <CONFIG_AWS_IOT_SEC_TAG+0x3b4>
   1e56e:	2600      	movs	r6, #0
   1e570:	4f62      	ldr	r7, [pc, #392]	; (1e6fc <CONFIG_AWS_IOT_SEC_TAG+0x4bc>)
   1e572:	4d62      	ldr	r5, [pc, #392]	; (1e6fc <CONFIG_AWS_IOT_SEC_TAG+0x4bc>)
   1e574:	9b09      	ldr	r3, [sp, #36]	; 0x24
   1e576:	f023 4300 	bic.w	r3, r3, #2147483648	; 0x80000000
   1e57a:	0d1b      	lsrs	r3, r3, #20
   1e57c:	051b      	lsls	r3, r3, #20
   1e57e:	930f      	str	r3, [sp, #60]	; 0x3c
   1e580:	9a0f      	ldr	r2, [sp, #60]	; 0x3c
   1e582:	4b5f      	ldr	r3, [pc, #380]	; (1e700 <CONFIG_AWS_IOT_SEC_TAG+0x4c0>)
   1e584:	429a      	cmp	r2, r3
   1e586:	f040 80c3 	bne.w	1e710 <CONFIG_AWS_IOT_SEC_TAG+0x4d0>
   1e58a:	9b09      	ldr	r3, [sp, #36]	; 0x24
   1e58c:	4640      	mov	r0, r8
   1e58e:	f1a3 7954 	sub.w	r9, r3, #55574528	; 0x3500000
   1e592:	4649      	mov	r1, r9
   1e594:	f014 f928 	bl	327e8 <__ulp>
   1e598:	4602      	mov	r2, r0
   1e59a:	460b      	mov	r3, r1
   1e59c:	4630      	mov	r0, r6
   1e59e:	4639      	mov	r1, r7
   1e5a0:	f7fe f9be 	bl	1c920 <__aeabi_dmul>
   1e5a4:	4642      	mov	r2, r8
   1e5a6:	464b      	mov	r3, r9
   1e5a8:	f7fe f804 	bl	1c5b4 <__adddf3>
   1e5ac:	460b      	mov	r3, r1
   1e5ae:	4951      	ldr	r1, [pc, #324]	; (1e6f4 <CONFIG_AWS_IOT_SEC_TAG+0x4b4>)
   1e5b0:	4680      	mov	r8, r0
   1e5b2:	4a54      	ldr	r2, [pc, #336]	; (1e704 <CONFIG_AWS_IOT_SEC_TAG+0x4c4>)
   1e5b4:	4019      	ands	r1, r3
   1e5b6:	4291      	cmp	r1, r2
   1e5b8:	d95d      	bls.n	1e676 <CONFIG_AWS_IOT_SEC_TAG+0x436>
   1e5ba:	9a0d      	ldr	r2, [sp, #52]	; 0x34
   1e5bc:	4b4e      	ldr	r3, [pc, #312]	; (1e6f8 <CONFIG_AWS_IOT_SEC_TAG+0x4b8>)
   1e5be:	429a      	cmp	r2, r3
   1e5c0:	d103      	bne.n	1e5ca <CONFIG_AWS_IOT_SEC_TAG+0x38a>
   1e5c2:	9b0c      	ldr	r3, [sp, #48]	; 0x30
   1e5c4:	3301      	adds	r3, #1
   1e5c6:	f43f ad59 	beq.w	1e07c <_strtod_l+0x47c>
   1e5ca:	f8df 912c 	ldr.w	r9, [pc, #300]	; 1e6f8 <CONFIG_AWS_IOT_SEC_TAG+0x4b8>
   1e5ce:	f04f 38ff 	mov.w	r8, #4294967295
   1e5d2:	991a      	ldr	r1, [sp, #104]	; 0x68
   1e5d4:	4650      	mov	r0, sl
   1e5d6:	f013 fe3d 	bl	32254 <_Bfree>
   1e5da:	9906      	ldr	r1, [sp, #24]
   1e5dc:	4650      	mov	r0, sl
   1e5de:	f013 fe39 	bl	32254 <_Bfree>
   1e5e2:	9904      	ldr	r1, [sp, #16]
   1e5e4:	4650      	mov	r0, sl
   1e5e6:	f013 fe35 	bl	32254 <_Bfree>
   1e5ea:	4659      	mov	r1, fp
   1e5ec:	4650      	mov	r0, sl
   1e5ee:	f013 fe31 	bl	32254 <_Bfree>
   1e5f2:	e62b      	b.n	1e24c <CONFIG_AWS_IOT_SEC_TAG+0xc>
   1e5f4:	f1b8 0f00 	cmp.w	r8, #0
   1e5f8:	d119      	bne.n	1e62e <CONFIG_AWS_IOT_SEC_TAG+0x3ee>
   1e5fa:	9b09      	ldr	r3, [sp, #36]	; 0x24
   1e5fc:	f3c3 0313 	ubfx	r3, r3, #0, #20
   1e600:	b9e3      	cbnz	r3, 1e63c <CONFIG_AWS_IOT_SEC_TAG+0x3fc>
   1e602:	2200      	movs	r2, #0
   1e604:	4b3d      	ldr	r3, [pc, #244]	; (1e6fc <CONFIG_AWS_IOT_SEC_TAG+0x4bc>)
   1e606:	4630      	mov	r0, r6
   1e608:	4639      	mov	r1, r7
   1e60a:	f7fe fbfb 	bl	1ce04 <__aeabi_dcmplt>
   1e60e:	b9c8      	cbnz	r0, 1e644 <CONFIG_AWS_IOT_SEC_TAG+0x404>
   1e610:	2200      	movs	r2, #0
   1e612:	4b3d      	ldr	r3, [pc, #244]	; (1e708 <CONFIG_AWS_IOT_SEC_TAG+0x4c8>)
   1e614:	4630      	mov	r0, r6
   1e616:	4639      	mov	r1, r7
   1e618:	f7fe f982 	bl	1c920 <__aeabi_dmul>
   1e61c:	4604      	mov	r4, r0
   1e61e:	460d      	mov	r5, r1
   1e620:	f105 4300 	add.w	r3, r5, #2147483648	; 0x80000000
   1e624:	9416      	str	r4, [sp, #88]	; 0x58
   1e626:	9317      	str	r3, [sp, #92]	; 0x5c
   1e628:	e9dd 6716 	ldrd	r6, r7, [sp, #88]	; 0x58
   1e62c:	e7a2      	b.n	1e574 <CONFIG_AWS_IOT_SEC_TAG+0x334>
   1e62e:	f1b8 0f01 	cmp.w	r8, #1
   1e632:	d103      	bne.n	1e63c <CONFIG_AWS_IOT_SEC_TAG+0x3fc>
   1e634:	9b09      	ldr	r3, [sp, #36]	; 0x24
   1e636:	2b00      	cmp	r3, #0
   1e638:	f43f ad95 	beq.w	1e166 <_strtod_l+0x566>
   1e63c:	2600      	movs	r6, #0
   1e63e:	4f33      	ldr	r7, [pc, #204]	; (1e70c <CONFIG_AWS_IOT_SEC_TAG+0x4cc>)
   1e640:	2400      	movs	r4, #0
   1e642:	e796      	b.n	1e572 <CONFIG_AWS_IOT_SEC_TAG+0x332>
   1e644:	9c0b      	ldr	r4, [sp, #44]	; 0x2c
   1e646:	4d30      	ldr	r5, [pc, #192]	; (1e708 <CONFIG_AWS_IOT_SEC_TAG+0x4c8>)
   1e648:	e7ea      	b.n	1e620 <CONFIG_AWS_IOT_SEC_TAG+0x3e0>
   1e64a:	4b2f      	ldr	r3, [pc, #188]	; (1e708 <CONFIG_AWS_IOT_SEC_TAG+0x4c8>)
   1e64c:	2200      	movs	r2, #0
   1e64e:	4630      	mov	r0, r6
   1e650:	4639      	mov	r1, r7
   1e652:	f7fe f965 	bl	1c920 <__aeabi_dmul>
   1e656:	9b0b      	ldr	r3, [sp, #44]	; 0x2c
   1e658:	4604      	mov	r4, r0
   1e65a:	460d      	mov	r5, r1
   1e65c:	b933      	cbnz	r3, 1e66c <CONFIG_AWS_IOT_SEC_TAG+0x42c>
   1e65e:	f101 4300 	add.w	r3, r1, #2147483648	; 0x80000000
   1e662:	9010      	str	r0, [sp, #64]	; 0x40
   1e664:	9311      	str	r3, [sp, #68]	; 0x44
   1e666:	e9dd 6710 	ldrd	r6, r7, [sp, #64]	; 0x40
   1e66a:	e783      	b.n	1e574 <CONFIG_AWS_IOT_SEC_TAG+0x334>
   1e66c:	4602      	mov	r2, r0
   1e66e:	460b      	mov	r3, r1
   1e670:	e9cd 2310 	strd	r2, r3, [sp, #64]	; 0x40
   1e674:	e7f7      	b.n	1e666 <CONFIG_AWS_IOT_SEC_TAG+0x426>
   1e676:	f103 7954 	add.w	r9, r3, #55574528	; 0x3500000
   1e67a:	9b05      	ldr	r3, [sp, #20]
   1e67c:	2b00      	cmp	r3, #0
   1e67e:	d1a8      	bne.n	1e5d2 <CONFIG_AWS_IOT_SEC_TAG+0x392>
   1e680:	f029 4300 	bic.w	r3, r9, #2147483648	; 0x80000000
   1e684:	9a0f      	ldr	r2, [sp, #60]	; 0x3c
   1e686:	0d1b      	lsrs	r3, r3, #20
   1e688:	051b      	lsls	r3, r3, #20
   1e68a:	429a      	cmp	r2, r3
   1e68c:	d1a1      	bne.n	1e5d2 <CONFIG_AWS_IOT_SEC_TAG+0x392>
   1e68e:	4620      	mov	r0, r4
   1e690:	4629      	mov	r1, r5
   1e692:	f7fe fe23 	bl	1d2dc <__aeabi_d2lz>
   1e696:	f7fe f915 	bl	1c8c4 <__aeabi_l2d>
   1e69a:	4602      	mov	r2, r0
   1e69c:	460b      	mov	r3, r1
   1e69e:	4620      	mov	r0, r4
   1e6a0:	4629      	mov	r1, r5
   1e6a2:	f7fd ff85 	bl	1c5b0 <__aeabi_dsub>
   1e6a6:	f3c9 0313 	ubfx	r3, r9, #0, #20
   1e6aa:	9a0b      	ldr	r2, [sp, #44]	; 0x2c
   1e6ac:	4604      	mov	r4, r0
   1e6ae:	ea43 0308 	orr.w	r3, r3, r8
   1e6b2:	460d      	mov	r5, r1
   1e6b4:	4313      	orrs	r3, r2
   1e6b6:	d066      	beq.n	1e786 <CONFIG_AWS_IOT_SEC_TAG+0x546>
   1e6b8:	a309      	add	r3, pc, #36	; (adr r3, 1e6e0 <CONFIG_AWS_IOT_SEC_TAG+0x4a0>)
   1e6ba:	e9d3 2300 	ldrd	r2, r3, [r3]
   1e6be:	f7fe fba1 	bl	1ce04 <__aeabi_dcmplt>
   1e6c2:	2800      	cmp	r0, #0
   1e6c4:	f47f ace5 	bne.w	1e092 <_strtod_l+0x492>
   1e6c8:	4620      	mov	r0, r4
   1e6ca:	4629      	mov	r1, r5
   1e6cc:	a306      	add	r3, pc, #24	; (adr r3, 1e6e8 <CONFIG_AWS_IOT_SEC_TAG+0x4a8>)
   1e6ce:	e9d3 2300 	ldrd	r2, r3, [r3]
   1e6d2:	f7fe fbb5 	bl	1ce40 <__aeabi_dcmpgt>
   1e6d6:	2800      	cmp	r0, #0
   1e6d8:	f43f af7b 	beq.w	1e5d2 <CONFIG_AWS_IOT_SEC_TAG+0x392>
   1e6dc:	e4d9      	b.n	1e092 <_strtod_l+0x492>
   1e6de:	bf00      	nop
   1e6e0:	94a03595 	.word	0x94a03595
   1e6e4:	3fdfffff 	.word	0x3fdfffff
   1e6e8:	35afe535 	.word	0x35afe535
   1e6ec:	3fe00000 	.word	0x3fe00000
   1e6f0:	000fffff 	.word	0x000fffff
   1e6f4:	7ff00000 	.word	0x7ff00000
   1e6f8:	7fefffff 	.word	0x7fefffff
   1e6fc:	3ff00000 	.word	0x3ff00000
   1e700:	7fe00000 	.word	0x7fe00000
   1e704:	7c9fffff 	.word	0x7c9fffff
   1e708:	3fe00000 	.word	0x3fe00000
   1e70c:	bff00000 	.word	0xbff00000
   1e710:	9b05      	ldr	r3, [sp, #20]
   1e712:	b313      	cbz	r3, 1e75a <CONFIG_AWS_IOT_SEC_TAG+0x51a>
   1e714:	9b0f      	ldr	r3, [sp, #60]	; 0x3c
   1e716:	f1b3 6fd4 	cmp.w	r3, #111149056	; 0x6a00000
   1e71a:	d81e      	bhi.n	1e75a <CONFIG_AWS_IOT_SEC_TAG+0x51a>
   1e71c:	4620      	mov	r0, r4
   1e71e:	4629      	mov	r1, r5
   1e720:	a325      	add	r3, pc, #148	; (adr r3, 1e7b8 <CONFIG_AWS_IOT_SEC_TAG+0x578>)
   1e722:	e9d3 2300 	ldrd	r2, r3, [r3]
   1e726:	f7fe fb77 	bl	1ce18 <__aeabi_dcmple>
   1e72a:	b190      	cbz	r0, 1e752 <CONFIG_AWS_IOT_SEC_TAG+0x512>
   1e72c:	4629      	mov	r1, r5
   1e72e:	4620      	mov	r0, r4
   1e730:	f7fe fdb4 	bl	1d29c <__aeabi_d2uiz>
   1e734:	2801      	cmp	r0, #1
   1e736:	bf38      	it	cc
   1e738:	2001      	movcc	r0, #1
   1e73a:	f7fe f877 	bl	1c82c <__aeabi_ui2d>
   1e73e:	9b0b      	ldr	r3, [sp, #44]	; 0x2c
   1e740:	4604      	mov	r4, r0
   1e742:	460d      	mov	r5, r1
   1e744:	b9d3      	cbnz	r3, 1e77c <CONFIG_AWS_IOT_SEC_TAG+0x53c>
   1e746:	f101 4300 	add.w	r3, r1, #2147483648	; 0x80000000
   1e74a:	9012      	str	r0, [sp, #72]	; 0x48
   1e74c:	9313      	str	r3, [sp, #76]	; 0x4c
   1e74e:	e9dd 6712 	ldrd	r6, r7, [sp, #72]	; 0x48
   1e752:	f107 63d6 	add.w	r3, r7, #112197632	; 0x6b00000
   1e756:	9a0f      	ldr	r2, [sp, #60]	; 0x3c
   1e758:	1a9f      	subs	r7, r3, r2
   1e75a:	e9dd 010c 	ldrd	r0, r1, [sp, #48]	; 0x30
   1e75e:	f014 f843 	bl	327e8 <__ulp>
   1e762:	4602      	mov	r2, r0
   1e764:	460b      	mov	r3, r1
   1e766:	4630      	mov	r0, r6
   1e768:	4639      	mov	r1, r7
   1e76a:	f7fe f8d9 	bl	1c920 <__aeabi_dmul>
   1e76e:	e9dd 230c 	ldrd	r2, r3, [sp, #48]	; 0x30
   1e772:	f7fd ff1f 	bl	1c5b4 <__adddf3>
   1e776:	4680      	mov	r8, r0
   1e778:	4689      	mov	r9, r1
   1e77a:	e77e      	b.n	1e67a <CONFIG_AWS_IOT_SEC_TAG+0x43a>
   1e77c:	4602      	mov	r2, r0
   1e77e:	460b      	mov	r3, r1
   1e780:	e9cd 2312 	strd	r2, r3, [sp, #72]	; 0x48
   1e784:	e7e3      	b.n	1e74e <CONFIG_AWS_IOT_SEC_TAG+0x50e>
   1e786:	a30e      	add	r3, pc, #56	; (adr r3, 1e7c0 <CONFIG_AWS_IOT_SEC_TAG+0x580>)
   1e788:	e9d3 2300 	ldrd	r2, r3, [r3]
   1e78c:	f7fe fb3a 	bl	1ce04 <__aeabi_dcmplt>
   1e790:	e7a1      	b.n	1e6d6 <CONFIG_AWS_IOT_SEC_TAG+0x496>
   1e792:	2300      	movs	r3, #0
   1e794:	930a      	str	r3, [sp, #40]	; 0x28
   1e796:	9b19      	ldr	r3, [sp, #100]	; 0x64
   1e798:	9a15      	ldr	r2, [sp, #84]	; 0x54
   1e79a:	6013      	str	r3, [r2, #0]
   1e79c:	f7ff ba75 	b.w	1dc8a <_strtod_l+0x8a>
   1e7a0:	2a65      	cmp	r2, #101	; 0x65
   1e7a2:	f43f ab65 	beq.w	1de70 <_strtod_l+0x270>
   1e7a6:	2a45      	cmp	r2, #69	; 0x45
   1e7a8:	f43f ab62 	beq.w	1de70 <_strtod_l+0x270>
   1e7ac:	2301      	movs	r3, #1
   1e7ae:	f7ff bb97 	b.w	1dee0 <_strtod_l+0x2e0>
   1e7b2:	bf00      	nop
   1e7b4:	f3af 8000 	nop.w
   1e7b8:	ffc00000 	.word	0xffc00000
   1e7bc:	41dfffff 	.word	0x41dfffff
   1e7c0:	94a03595 	.word	0x94a03595
   1e7c4:	3fcfffff 	.word	0x3fcfffff

0001e7c8 <_dtoa_r>:
   1e7c8:	e92d 4ff0 	stmdb	sp!, {r4, r5, r6, r7, r8, r9, sl, fp, lr}
   1e7cc:	4616      	mov	r6, r2
   1e7ce:	b099      	sub	sp, #100	; 0x64
   1e7d0:	461f      	mov	r7, r3
   1e7d2:	6a44      	ldr	r4, [r0, #36]	; 0x24
   1e7d4:	4605      	mov	r5, r0
   1e7d6:	f8dd 8094 	ldr.w	r8, [sp, #148]	; 0x94
   1e7da:	e9cd 6704 	strd	r6, r7, [sp, #16]
   1e7de:	b974      	cbnz	r4, 1e7fe <_dtoa_r+0x36>
   1e7e0:	2010      	movs	r0, #16
   1e7e2:	f012 f851 	bl	30888 <malloc>
   1e7e6:	4602      	mov	r2, r0
   1e7e8:	6268      	str	r0, [r5, #36]	; 0x24
   1e7ea:	b920      	cbnz	r0, 1e7f6 <_dtoa_r+0x2e>
   1e7ec:	4ba8      	ldr	r3, [pc, #672]	; (1ea90 <_dtoa_r+0x2c8>)
   1e7ee:	21ea      	movs	r1, #234	; 0xea
   1e7f0:	48a8      	ldr	r0, [pc, #672]	; (1ea94 <_dtoa_r+0x2cc>)
   1e7f2:	f011 ff6d 	bl	306d0 <__assert_func>
   1e7f6:	e9c0 4401 	strd	r4, r4, [r0, #4]
   1e7fa:	6004      	str	r4, [r0, #0]
   1e7fc:	60c4      	str	r4, [r0, #12]
   1e7fe:	6a6b      	ldr	r3, [r5, #36]	; 0x24
   1e800:	6819      	ldr	r1, [r3, #0]
   1e802:	b151      	cbz	r1, 1e81a <_dtoa_r+0x52>
   1e804:	685a      	ldr	r2, [r3, #4]
   1e806:	2301      	movs	r3, #1
   1e808:	4628      	mov	r0, r5
   1e80a:	4093      	lsls	r3, r2
   1e80c:	604a      	str	r2, [r1, #4]
   1e80e:	608b      	str	r3, [r1, #8]
   1e810:	f013 fd20 	bl	32254 <_Bfree>
   1e814:	6a6b      	ldr	r3, [r5, #36]	; 0x24
   1e816:	2200      	movs	r2, #0
   1e818:	601a      	str	r2, [r3, #0]
   1e81a:	1e3b      	subs	r3, r7, #0
   1e81c:	bfb7      	itett	lt
   1e81e:	f023 4300 	biclt.w	r3, r3, #2147483648	; 0x80000000
   1e822:	2300      	movge	r3, #0
   1e824:	2201      	movlt	r2, #1
   1e826:	9305      	strlt	r3, [sp, #20]
   1e828:	bfa8      	it	ge
   1e82a:	f8c8 3000 	strge.w	r3, [r8]
   1e82e:	f8dd 9014 	ldr.w	r9, [sp, #20]
   1e832:	4b99      	ldr	r3, [pc, #612]	; (1ea98 <_dtoa_r+0x2d0>)
   1e834:	bfb8      	it	lt
   1e836:	f8c8 2000 	strlt.w	r2, [r8]
   1e83a:	ea33 0309 	bics.w	r3, r3, r9
   1e83e:	d119      	bne.n	1e874 <_dtoa_r+0xac>
   1e840:	f242 730f 	movw	r3, #9999	; 0x270f
   1e844:	9a24      	ldr	r2, [sp, #144]	; 0x90
   1e846:	6013      	str	r3, [r2, #0]
   1e848:	f3c9 0313 	ubfx	r3, r9, #0, #20
   1e84c:	4333      	orrs	r3, r6
   1e84e:	f000 857e 	beq.w	1f34e <_dtoa_r+0xb86>
   1e852:	9b26      	ldr	r3, [sp, #152]	; 0x98
   1e854:	b953      	cbnz	r3, 1e86c <_dtoa_r+0xa4>
   1e856:	4b91      	ldr	r3, [pc, #580]	; (1ea9c <_dtoa_r+0x2d4>)
   1e858:	e022      	b.n	1e8a0 <_dtoa_r+0xd8>
   1e85a:	4b91      	ldr	r3, [pc, #580]	; (1eaa0 <_dtoa_r+0x2d8>)
   1e85c:	9303      	str	r3, [sp, #12]
   1e85e:	3308      	adds	r3, #8
   1e860:	9a26      	ldr	r2, [sp, #152]	; 0x98
   1e862:	6013      	str	r3, [r2, #0]
   1e864:	9803      	ldr	r0, [sp, #12]
   1e866:	b019      	add	sp, #100	; 0x64
   1e868:	e8bd 8ff0 	ldmia.w	sp!, {r4, r5, r6, r7, r8, r9, sl, fp, pc}
   1e86c:	4b8b      	ldr	r3, [pc, #556]	; (1ea9c <_dtoa_r+0x2d4>)
   1e86e:	9303      	str	r3, [sp, #12]
   1e870:	3303      	adds	r3, #3
   1e872:	e7f5      	b.n	1e860 <_dtoa_r+0x98>
   1e874:	e9dd 3404 	ldrd	r3, r4, [sp, #16]
   1e878:	2200      	movs	r2, #0
   1e87a:	e9cd 340c 	strd	r3, r4, [sp, #48]	; 0x30
   1e87e:	e9dd 010c 	ldrd	r0, r1, [sp, #48]	; 0x30
   1e882:	2300      	movs	r3, #0
   1e884:	f7fe fab4 	bl	1cdf0 <__aeabi_dcmpeq>
   1e888:	4680      	mov	r8, r0
   1e88a:	b158      	cbz	r0, 1e8a4 <_dtoa_r+0xdc>
   1e88c:	2301      	movs	r3, #1
   1e88e:	9a24      	ldr	r2, [sp, #144]	; 0x90
   1e890:	6013      	str	r3, [r2, #0]
   1e892:	9b26      	ldr	r3, [sp, #152]	; 0x98
   1e894:	2b00      	cmp	r3, #0
   1e896:	f000 8557 	beq.w	1f348 <_dtoa_r+0xb80>
   1e89a:	4882      	ldr	r0, [pc, #520]	; (1eaa4 <_dtoa_r+0x2dc>)
   1e89c:	6018      	str	r0, [r3, #0]
   1e89e:	1e43      	subs	r3, r0, #1
   1e8a0:	9303      	str	r3, [sp, #12]
   1e8a2:	e7df      	b.n	1e864 <_dtoa_r+0x9c>
   1e8a4:	ab16      	add	r3, sp, #88	; 0x58
   1e8a6:	f3c9 540a 	ubfx	r4, r9, #20, #11
   1e8aa:	4628      	mov	r0, r5
   1e8ac:	9301      	str	r3, [sp, #4]
   1e8ae:	ab17      	add	r3, sp, #92	; 0x5c
   1e8b0:	9300      	str	r3, [sp, #0]
   1e8b2:	e9dd 230c 	ldrd	r2, r3, [sp, #48]	; 0x30
   1e8b6:	f014 f80d 	bl	328d4 <__d2b>
   1e8ba:	4683      	mov	fp, r0
   1e8bc:	2c00      	cmp	r4, #0
   1e8be:	d07c      	beq.n	1e9ba <_dtoa_r+0x1f2>
   1e8c0:	9b0d      	ldr	r3, [sp, #52]	; 0x34
   1e8c2:	f2a4 34ff 	subw	r4, r4, #1023	; 0x3ff
   1e8c6:	f8cd 804c 	str.w	r8, [sp, #76]	; 0x4c
   1e8ca:	f3c3 0313 	ubfx	r3, r3, #0, #20
   1e8ce:	e9dd 010c 	ldrd	r0, r1, [sp, #48]	; 0x30
   1e8d2:	f043 517f 	orr.w	r1, r3, #1069547520	; 0x3fc00000
   1e8d6:	f441 1140 	orr.w	r1, r1, #3145728	; 0x300000
   1e8da:	2200      	movs	r2, #0
   1e8dc:	4b72      	ldr	r3, [pc, #456]	; (1eaa8 <_dtoa_r+0x2e0>)
   1e8de:	f7fd fe67 	bl	1c5b0 <__aeabi_dsub>
   1e8e2:	a365      	add	r3, pc, #404	; (adr r3, 1ea78 <_dtoa_r+0x2b0>)
   1e8e4:	e9d3 2300 	ldrd	r2, r3, [r3]
   1e8e8:	f7fe f81a 	bl	1c920 <__aeabi_dmul>
   1e8ec:	a364      	add	r3, pc, #400	; (adr r3, 1ea80 <_dtoa_r+0x2b8>)
   1e8ee:	e9d3 2300 	ldrd	r2, r3, [r3]
   1e8f2:	f7fd fe5f 	bl	1c5b4 <__adddf3>
   1e8f6:	4606      	mov	r6, r0
   1e8f8:	460f      	mov	r7, r1
   1e8fa:	4620      	mov	r0, r4
   1e8fc:	f7fd ffa6 	bl	1c84c <__aeabi_i2d>
   1e900:	a361      	add	r3, pc, #388	; (adr r3, 1ea88 <_dtoa_r+0x2c0>)
   1e902:	e9d3 2300 	ldrd	r2, r3, [r3]
   1e906:	f7fe f80b 	bl	1c920 <__aeabi_dmul>
   1e90a:	4602      	mov	r2, r0
   1e90c:	460b      	mov	r3, r1
   1e90e:	4630      	mov	r0, r6
   1e910:	4639      	mov	r1, r7
   1e912:	f7fd fe4f 	bl	1c5b4 <__adddf3>
   1e916:	4606      	mov	r6, r0
   1e918:	460f      	mov	r7, r1
   1e91a:	f7fe fab1 	bl	1ce80 <__aeabi_d2iz>
   1e91e:	2200      	movs	r2, #0
   1e920:	4682      	mov	sl, r0
   1e922:	2300      	movs	r3, #0
   1e924:	4630      	mov	r0, r6
   1e926:	4639      	mov	r1, r7
   1e928:	f7fe fa6c 	bl	1ce04 <__aeabi_dcmplt>
   1e92c:	b148      	cbz	r0, 1e942 <_dtoa_r+0x17a>
   1e92e:	4650      	mov	r0, sl
   1e930:	f7fd ff8c 	bl	1c84c <__aeabi_i2d>
   1e934:	4632      	mov	r2, r6
   1e936:	463b      	mov	r3, r7
   1e938:	f7fe fa5a 	bl	1cdf0 <__aeabi_dcmpeq>
   1e93c:	b908      	cbnz	r0, 1e942 <_dtoa_r+0x17a>
   1e93e:	f10a 3aff 	add.w	sl, sl, #4294967295
   1e942:	f1ba 0f16 	cmp.w	sl, #22
   1e946:	d856      	bhi.n	1e9f6 <_dtoa_r+0x22e>
   1e948:	4b58      	ldr	r3, [pc, #352]	; (1eaac <_dtoa_r+0x2e4>)
   1e94a:	eb03 03ca 	add.w	r3, r3, sl, lsl #3
   1e94e:	e9dd 010c 	ldrd	r0, r1, [sp, #48]	; 0x30
   1e952:	e9d3 2300 	ldrd	r2, r3, [r3]
   1e956:	f7fe fa55 	bl	1ce04 <__aeabi_dcmplt>
   1e95a:	2800      	cmp	r0, #0
   1e95c:	d04d      	beq.n	1e9fa <_dtoa_r+0x232>
   1e95e:	f10a 3aff 	add.w	sl, sl, #4294967295
   1e962:	2300      	movs	r3, #0
   1e964:	930f      	str	r3, [sp, #60]	; 0x3c
   1e966:	9b16      	ldr	r3, [sp, #88]	; 0x58
   1e968:	1b1c      	subs	r4, r3, r4
   1e96a:	1e63      	subs	r3, r4, #1
   1e96c:	9309      	str	r3, [sp, #36]	; 0x24
   1e96e:	bf49      	itett	mi
   1e970:	f1c4 0301 	rsbmi	r3, r4, #1
   1e974:	2300      	movpl	r3, #0
   1e976:	9306      	strmi	r3, [sp, #24]
   1e978:	2300      	movmi	r3, #0
   1e97a:	bf54      	ite	pl
   1e97c:	9306      	strpl	r3, [sp, #24]
   1e97e:	9309      	strmi	r3, [sp, #36]	; 0x24
   1e980:	f1ba 0f00 	cmp.w	sl, #0
   1e984:	db3b      	blt.n	1e9fe <_dtoa_r+0x236>
   1e986:	9b09      	ldr	r3, [sp, #36]	; 0x24
   1e988:	f8cd a038 	str.w	sl, [sp, #56]	; 0x38
   1e98c:	4453      	add	r3, sl
   1e98e:	9309      	str	r3, [sp, #36]	; 0x24
   1e990:	2300      	movs	r3, #0
   1e992:	930a      	str	r3, [sp, #40]	; 0x28
   1e994:	9b22      	ldr	r3, [sp, #136]	; 0x88
   1e996:	2b09      	cmp	r3, #9
   1e998:	f200 808c 	bhi.w	1eab4 <_dtoa_r+0x2ec>
   1e99c:	2b05      	cmp	r3, #5
   1e99e:	bfc5      	ittet	gt
   1e9a0:	3b04      	subgt	r3, #4
   1e9a2:	2400      	movgt	r4, #0
   1e9a4:	2401      	movle	r4, #1
   1e9a6:	9322      	strgt	r3, [sp, #136]	; 0x88
   1e9a8:	9b22      	ldr	r3, [sp, #136]	; 0x88
   1e9aa:	3b02      	subs	r3, #2
   1e9ac:	2b03      	cmp	r3, #3
   1e9ae:	f200 808d 	bhi.w	1eacc <_dtoa_r+0x304>
   1e9b2:	e8df f003 	tbb	[pc, r3]
   1e9b6:	502e      	.short	0x502e
   1e9b8:	5c4e      	.short	0x5c4e
   1e9ba:	e9dd 4316 	ldrd	r4, r3, [sp, #88]	; 0x58
   1e9be:	441c      	add	r4, r3
   1e9c0:	f204 4332 	addw	r3, r4, #1074	; 0x432
   1e9c4:	2b20      	cmp	r3, #32
   1e9c6:	bfc6      	itte	gt
   1e9c8:	f1c3 0340 	rsbgt	r3, r3, #64	; 0x40
   1e9cc:	f204 4012 	addwgt	r0, r4, #1042	; 0x412
   1e9d0:	f1c3 0320 	rsble	r3, r3, #32
   1e9d4:	f104 34ff 	add.w	r4, r4, #4294967295
   1e9d8:	bfc5      	ittet	gt
   1e9da:	fa09 f303 	lslgt.w	r3, r9, r3
   1e9de:	fa26 f000 	lsrgt.w	r0, r6, r0
   1e9e2:	fa06 f003 	lslle.w	r0, r6, r3
   1e9e6:	4318      	orrgt	r0, r3
   1e9e8:	f7fd ff20 	bl	1c82c <__aeabi_ui2d>
   1e9ec:	2301      	movs	r3, #1
   1e9ee:	f1a1 71f8 	sub.w	r1, r1, #32505856	; 0x1f00000
   1e9f2:	9313      	str	r3, [sp, #76]	; 0x4c
   1e9f4:	e771      	b.n	1e8da <_dtoa_r+0x112>
   1e9f6:	2301      	movs	r3, #1
   1e9f8:	e7b4      	b.n	1e964 <_dtoa_r+0x19c>
   1e9fa:	900f      	str	r0, [sp, #60]	; 0x3c
   1e9fc:	e7b3      	b.n	1e966 <_dtoa_r+0x19e>
   1e9fe:	9b06      	ldr	r3, [sp, #24]
   1ea00:	eba3 030a 	sub.w	r3, r3, sl
   1ea04:	9306      	str	r3, [sp, #24]
   1ea06:	f1ca 0300 	rsb	r3, sl, #0
   1ea0a:	930a      	str	r3, [sp, #40]	; 0x28
   1ea0c:	2300      	movs	r3, #0
   1ea0e:	930e      	str	r3, [sp, #56]	; 0x38
   1ea10:	e7c0      	b.n	1e994 <_dtoa_r+0x1cc>
   1ea12:	2300      	movs	r3, #0
   1ea14:	930b      	str	r3, [sp, #44]	; 0x2c
   1ea16:	9b23      	ldr	r3, [sp, #140]	; 0x8c
   1ea18:	2b00      	cmp	r3, #0
   1ea1a:	dc5a      	bgt.n	1ead2 <_dtoa_r+0x30a>
   1ea1c:	f04f 0901 	mov.w	r9, #1
   1ea20:	464b      	mov	r3, r9
   1ea22:	f8cd 9020 	str.w	r9, [sp, #32]
   1ea26:	f8cd 908c 	str.w	r9, [sp, #140]	; 0x8c
   1ea2a:	2200      	movs	r2, #0
   1ea2c:	6a68      	ldr	r0, [r5, #36]	; 0x24
   1ea2e:	6042      	str	r2, [r0, #4]
   1ea30:	2204      	movs	r2, #4
   1ea32:	f102 0614 	add.w	r6, r2, #20
   1ea36:	6841      	ldr	r1, [r0, #4]
   1ea38:	429e      	cmp	r6, r3
   1ea3a:	d950      	bls.n	1eade <_dtoa_r+0x316>
   1ea3c:	4628      	mov	r0, r5
   1ea3e:	f013 fbc9 	bl	321d4 <_Balloc>
   1ea42:	9003      	str	r0, [sp, #12]
   1ea44:	2800      	cmp	r0, #0
   1ea46:	d14e      	bne.n	1eae6 <_dtoa_r+0x31e>
   1ea48:	4b19      	ldr	r3, [pc, #100]	; (1eab0 <_dtoa_r+0x2e8>)
   1ea4a:	4602      	mov	r2, r0
   1ea4c:	f44f 71d5 	mov.w	r1, #426	; 0x1aa
   1ea50:	e6ce      	b.n	1e7f0 <_dtoa_r+0x28>
   1ea52:	2301      	movs	r3, #1
   1ea54:	e7de      	b.n	1ea14 <_dtoa_r+0x24c>
   1ea56:	2300      	movs	r3, #0
   1ea58:	930b      	str	r3, [sp, #44]	; 0x2c
   1ea5a:	9b23      	ldr	r3, [sp, #140]	; 0x8c
   1ea5c:	eb0a 0903 	add.w	r9, sl, r3
   1ea60:	f109 0301 	add.w	r3, r9, #1
   1ea64:	2b01      	cmp	r3, #1
   1ea66:	9308      	str	r3, [sp, #32]
   1ea68:	bfb8      	it	lt
   1ea6a:	2301      	movlt	r3, #1
   1ea6c:	e7dd      	b.n	1ea2a <_dtoa_r+0x262>
   1ea6e:	2301      	movs	r3, #1
   1ea70:	e7f2      	b.n	1ea58 <_dtoa_r+0x290>
   1ea72:	bf00      	nop
   1ea74:	f3af 8000 	nop.w
   1ea78:	636f4361 	.word	0x636f4361
   1ea7c:	3fd287a7 	.word	0x3fd287a7
   1ea80:	8b60c8b3 	.word	0x8b60c8b3
   1ea84:	3fc68a28 	.word	0x3fc68a28
   1ea88:	509f79fb 	.word	0x509f79fb
   1ea8c:	3fd34413 	.word	0x3fd34413
   1ea90:	0003d85e 	.word	0x0003d85e
   1ea94:	0003d875 	.word	0x0003d875
   1ea98:	7ff00000 	.word	0x7ff00000
   1ea9c:	0003d85a 	.word	0x0003d85a
   1eaa0:	0003d851 	.word	0x0003d851
   1eaa4:	0003aab5 	.word	0x0003aab5
   1eaa8:	3ff80000 	.word	0x3ff80000
   1eaac:	000382e8 	.word	0x000382e8
   1eab0:	0003d8e9 	.word	0x0003d8e9
   1eab4:	2401      	movs	r4, #1
   1eab6:	2300      	movs	r3, #0
   1eab8:	940b      	str	r4, [sp, #44]	; 0x2c
   1eaba:	9322      	str	r3, [sp, #136]	; 0x88
   1eabc:	f04f 39ff 	mov.w	r9, #4294967295
   1eac0:	2200      	movs	r2, #0
   1eac2:	2312      	movs	r3, #18
   1eac4:	f8cd 9020 	str.w	r9, [sp, #32]
   1eac8:	9223      	str	r2, [sp, #140]	; 0x8c
   1eaca:	e7ae      	b.n	1ea2a <_dtoa_r+0x262>
   1eacc:	2301      	movs	r3, #1
   1eace:	930b      	str	r3, [sp, #44]	; 0x2c
   1ead0:	e7f4      	b.n	1eabc <_dtoa_r+0x2f4>
   1ead2:	f8dd 908c 	ldr.w	r9, [sp, #140]	; 0x8c
   1ead6:	464b      	mov	r3, r9
   1ead8:	f8cd 9020 	str.w	r9, [sp, #32]
   1eadc:	e7a5      	b.n	1ea2a <_dtoa_r+0x262>
   1eade:	3101      	adds	r1, #1
   1eae0:	0052      	lsls	r2, r2, #1
   1eae2:	6041      	str	r1, [r0, #4]
   1eae4:	e7a5      	b.n	1ea32 <_dtoa_r+0x26a>
   1eae6:	6a6b      	ldr	r3, [r5, #36]	; 0x24
   1eae8:	9a03      	ldr	r2, [sp, #12]
   1eaea:	601a      	str	r2, [r3, #0]
   1eaec:	9b08      	ldr	r3, [sp, #32]
   1eaee:	2b0e      	cmp	r3, #14
   1eaf0:	f200 80a8 	bhi.w	1ec44 <_dtoa_r+0x47c>
   1eaf4:	2c00      	cmp	r4, #0
   1eaf6:	f000 80a5 	beq.w	1ec44 <_dtoa_r+0x47c>
   1eafa:	f1ba 0f00 	cmp.w	sl, #0
   1eafe:	dd34      	ble.n	1eb6a <_dtoa_r+0x3a2>
   1eb00:	f00a 030f 	and.w	r3, sl, #15
   1eb04:	4a99      	ldr	r2, [pc, #612]	; (1ed6c <_dtoa_r+0x5a4>)
   1eb06:	f41a 7f80 	tst.w	sl, #256	; 0x100
   1eb0a:	eb02 03c3 	add.w	r3, r2, r3, lsl #3
   1eb0e:	e9d3 3400 	ldrd	r3, r4, [r3]
   1eb12:	e9cd 3410 	strd	r3, r4, [sp, #64]	; 0x40
   1eb16:	ea4f 142a 	mov.w	r4, sl, asr #4
   1eb1a:	d016      	beq.n	1eb4a <_dtoa_r+0x382>
   1eb1c:	4b94      	ldr	r3, [pc, #592]	; (1ed70 <_dtoa_r+0x5a8>)
   1eb1e:	f004 040f 	and.w	r4, r4, #15
   1eb22:	2703      	movs	r7, #3
   1eb24:	e9d3 2308 	ldrd	r2, r3, [r3, #32]
   1eb28:	e9dd 010c 	ldrd	r0, r1, [sp, #48]	; 0x30
   1eb2c:	f7fe f822 	bl	1cb74 <__aeabi_ddiv>
   1eb30:	e9cd 0104 	strd	r0, r1, [sp, #16]
   1eb34:	4e8e      	ldr	r6, [pc, #568]	; (1ed70 <_dtoa_r+0x5a8>)
   1eb36:	b954      	cbnz	r4, 1eb4e <_dtoa_r+0x386>
   1eb38:	e9dd 2310 	ldrd	r2, r3, [sp, #64]	; 0x40
   1eb3c:	e9dd 0104 	ldrd	r0, r1, [sp, #16]
   1eb40:	f7fe f818 	bl	1cb74 <__aeabi_ddiv>
   1eb44:	e9cd 0104 	strd	r0, r1, [sp, #16]
   1eb48:	e029      	b.n	1eb9e <_dtoa_r+0x3d6>
   1eb4a:	2702      	movs	r7, #2
   1eb4c:	e7f2      	b.n	1eb34 <_dtoa_r+0x36c>
   1eb4e:	07e1      	lsls	r1, r4, #31
   1eb50:	d508      	bpl.n	1eb64 <_dtoa_r+0x39c>
   1eb52:	3701      	adds	r7, #1
   1eb54:	e9dd 0110 	ldrd	r0, r1, [sp, #64]	; 0x40
   1eb58:	e9d6 2300 	ldrd	r2, r3, [r6]
   1eb5c:	f7fd fee0 	bl	1c920 <__aeabi_dmul>
   1eb60:	e9cd 0110 	strd	r0, r1, [sp, #64]	; 0x40
   1eb64:	1064      	asrs	r4, r4, #1
   1eb66:	3608      	adds	r6, #8
   1eb68:	e7e5      	b.n	1eb36 <_dtoa_r+0x36e>
   1eb6a:	f000 80a5 	beq.w	1ecb8 <_dtoa_r+0x4f0>
   1eb6e:	f1ca 0400 	rsb	r4, sl, #0
   1eb72:	4b7e      	ldr	r3, [pc, #504]	; (1ed6c <_dtoa_r+0x5a4>)
   1eb74:	4e7e      	ldr	r6, [pc, #504]	; (1ed70 <_dtoa_r+0x5a8>)
   1eb76:	2702      	movs	r7, #2
   1eb78:	f004 020f 	and.w	r2, r4, #15
   1eb7c:	1124      	asrs	r4, r4, #4
   1eb7e:	eb03 03c2 	add.w	r3, r3, r2, lsl #3
   1eb82:	e9dd 010c 	ldrd	r0, r1, [sp, #48]	; 0x30
   1eb86:	e9d3 2300 	ldrd	r2, r3, [r3]
   1eb8a:	f7fd fec9 	bl	1c920 <__aeabi_dmul>
   1eb8e:	2300      	movs	r3, #0
   1eb90:	e9cd 0104 	strd	r0, r1, [sp, #16]
   1eb94:	2c00      	cmp	r4, #0
   1eb96:	f040 8084 	bne.w	1eca2 <_dtoa_r+0x4da>
   1eb9a:	2b00      	cmp	r3, #0
   1eb9c:	d1d2      	bne.n	1eb44 <_dtoa_r+0x37c>
   1eb9e:	9b0f      	ldr	r3, [sp, #60]	; 0x3c
   1eba0:	2b00      	cmp	r3, #0
   1eba2:	f000 808b 	beq.w	1ecbc <_dtoa_r+0x4f4>
   1eba6:	2200      	movs	r2, #0
   1eba8:	e9dd 3404 	ldrd	r3, r4, [sp, #16]
   1ebac:	e9cd 3410 	strd	r3, r4, [sp, #64]	; 0x40
   1ebb0:	e9dd 0110 	ldrd	r0, r1, [sp, #64]	; 0x40
   1ebb4:	4b6f      	ldr	r3, [pc, #444]	; (1ed74 <_dtoa_r+0x5ac>)
   1ebb6:	f7fe f925 	bl	1ce04 <__aeabi_dcmplt>
   1ebba:	2800      	cmp	r0, #0
   1ebbc:	d07e      	beq.n	1ecbc <_dtoa_r+0x4f4>
   1ebbe:	9b08      	ldr	r3, [sp, #32]
   1ebc0:	2b00      	cmp	r3, #0
   1ebc2:	d07b      	beq.n	1ecbc <_dtoa_r+0x4f4>
   1ebc4:	f1b9 0f00 	cmp.w	r9, #0
   1ebc8:	dd38      	ble.n	1ec3c <_dtoa_r+0x474>
   1ebca:	f10a 38ff 	add.w	r8, sl, #4294967295
   1ebce:	3701      	adds	r7, #1
   1ebd0:	464c      	mov	r4, r9
   1ebd2:	2200      	movs	r2, #0
   1ebd4:	4b68      	ldr	r3, [pc, #416]	; (1ed78 <_dtoa_r+0x5b0>)
   1ebd6:	e9dd 0110 	ldrd	r0, r1, [sp, #64]	; 0x40
   1ebda:	f7fd fea1 	bl	1c920 <__aeabi_dmul>
   1ebde:	e9cd 0104 	strd	r0, r1, [sp, #16]
   1ebe2:	4638      	mov	r0, r7
   1ebe4:	f7fd fe32 	bl	1c84c <__aeabi_i2d>
   1ebe8:	e9dd 2304 	ldrd	r2, r3, [sp, #16]
   1ebec:	f7fd fe98 	bl	1c920 <__aeabi_dmul>
   1ebf0:	2200      	movs	r2, #0
   1ebf2:	4b62      	ldr	r3, [pc, #392]	; (1ed7c <_dtoa_r+0x5b4>)
   1ebf4:	f7fd fcde 	bl	1c5b4 <__adddf3>
   1ebf8:	f1a1 7650 	sub.w	r6, r1, #54525952	; 0x3400000
   1ebfc:	e9cd 0110 	strd	r0, r1, [sp, #64]	; 0x40
   1ec00:	9611      	str	r6, [sp, #68]	; 0x44
   1ec02:	2c00      	cmp	r4, #0
   1ec04:	d15d      	bne.n	1ecc2 <_dtoa_r+0x4fa>
   1ec06:	2200      	movs	r2, #0
   1ec08:	4b5d      	ldr	r3, [pc, #372]	; (1ed80 <_dtoa_r+0x5b8>)
   1ec0a:	e9dd 0104 	ldrd	r0, r1, [sp, #16]
   1ec0e:	f7fd fccf 	bl	1c5b0 <__aeabi_dsub>
   1ec12:	4602      	mov	r2, r0
   1ec14:	460b      	mov	r3, r1
   1ec16:	e9cd 2304 	strd	r2, r3, [sp, #16]
   1ec1a:	9a10      	ldr	r2, [sp, #64]	; 0x40
   1ec1c:	4633      	mov	r3, r6
   1ec1e:	f7fe f90f 	bl	1ce40 <__aeabi_dcmpgt>
   1ec22:	2800      	cmp	r0, #0
   1ec24:	f040 829b 	bne.w	1f15e <_dtoa_r+0x996>
   1ec28:	9a10      	ldr	r2, [sp, #64]	; 0x40
   1ec2a:	f106 4300 	add.w	r3, r6, #2147483648	; 0x80000000
   1ec2e:	e9dd 0104 	ldrd	r0, r1, [sp, #16]
   1ec32:	f7fe f8e7 	bl	1ce04 <__aeabi_dcmplt>
   1ec36:	2800      	cmp	r0, #0
   1ec38:	f040 828f 	bne.w	1f15a <_dtoa_r+0x992>
   1ec3c:	e9dd 340c 	ldrd	r3, r4, [sp, #48]	; 0x30
   1ec40:	e9cd 3404 	strd	r3, r4, [sp, #16]
   1ec44:	9b17      	ldr	r3, [sp, #92]	; 0x5c
   1ec46:	2b00      	cmp	r3, #0
   1ec48:	f2c0 8151 	blt.w	1eeee <_dtoa_r+0x726>
   1ec4c:	f1ba 0f0e 	cmp.w	sl, #14
   1ec50:	f300 814d 	bgt.w	1eeee <_dtoa_r+0x726>
   1ec54:	4b45      	ldr	r3, [pc, #276]	; (1ed6c <_dtoa_r+0x5a4>)
   1ec56:	eb03 03ca 	add.w	r3, r3, sl, lsl #3
   1ec5a:	e9d3 3400 	ldrd	r3, r4, [r3]
   1ec5e:	e9cd 3406 	strd	r3, r4, [sp, #24]
   1ec62:	9b23      	ldr	r3, [sp, #140]	; 0x8c
   1ec64:	2b00      	cmp	r3, #0
   1ec66:	f280 80da 	bge.w	1ee1e <_dtoa_r+0x656>
   1ec6a:	9b08      	ldr	r3, [sp, #32]
   1ec6c:	2b00      	cmp	r3, #0
   1ec6e:	f300 80d6 	bgt.w	1ee1e <_dtoa_r+0x656>
   1ec72:	f040 8271 	bne.w	1f158 <_dtoa_r+0x990>
   1ec76:	2200      	movs	r2, #0
   1ec78:	4b41      	ldr	r3, [pc, #260]	; (1ed80 <_dtoa_r+0x5b8>)
   1ec7a:	e9dd 0106 	ldrd	r0, r1, [sp, #24]
   1ec7e:	f7fd fe4f 	bl	1c920 <__aeabi_dmul>
   1ec82:	e9dd 2304 	ldrd	r2, r3, [sp, #16]
   1ec86:	f7fe f8d1 	bl	1ce2c <__aeabi_dcmpge>
   1ec8a:	9c08      	ldr	r4, [sp, #32]
   1ec8c:	4626      	mov	r6, r4
   1ec8e:	2800      	cmp	r0, #0
   1ec90:	f040 8247 	bne.w	1f122 <_dtoa_r+0x95a>
   1ec94:	9f03      	ldr	r7, [sp, #12]
   1ec96:	2331      	movs	r3, #49	; 0x31
   1ec98:	f10a 0a01 	add.w	sl, sl, #1
   1ec9c:	f807 3b01 	strb.w	r3, [r7], #1
   1eca0:	e243      	b.n	1f12a <_dtoa_r+0x962>
   1eca2:	07e2      	lsls	r2, r4, #31
   1eca4:	d505      	bpl.n	1ecb2 <_dtoa_r+0x4ea>
   1eca6:	3701      	adds	r7, #1
   1eca8:	e9d6 2300 	ldrd	r2, r3, [r6]
   1ecac:	f7fd fe38 	bl	1c920 <__aeabi_dmul>
   1ecb0:	2301      	movs	r3, #1
   1ecb2:	1064      	asrs	r4, r4, #1
   1ecb4:	3608      	adds	r6, #8
   1ecb6:	e76d      	b.n	1eb94 <_dtoa_r+0x3cc>
   1ecb8:	2702      	movs	r7, #2
   1ecba:	e770      	b.n	1eb9e <_dtoa_r+0x3d6>
   1ecbc:	46d0      	mov	r8, sl
   1ecbe:	9c08      	ldr	r4, [sp, #32]
   1ecc0:	e78f      	b.n	1ebe2 <_dtoa_r+0x41a>
   1ecc2:	9903      	ldr	r1, [sp, #12]
   1ecc4:	4b29      	ldr	r3, [pc, #164]	; (1ed6c <_dtoa_r+0x5a4>)
   1ecc6:	4421      	add	r1, r4
   1ecc8:	eb03 03c4 	add.w	r3, r3, r4, lsl #3
   1eccc:	9112      	str	r1, [sp, #72]	; 0x48
   1ecce:	990b      	ldr	r1, [sp, #44]	; 0x2c
   1ecd0:	e9dd 6710 	ldrd	r6, r7, [sp, #64]	; 0x40
   1ecd4:	e953 2302 	ldrd	r2, r3, [r3, #-8]
   1ecd8:	2900      	cmp	r1, #0
   1ecda:	d055      	beq.n	1ed88 <_dtoa_r+0x5c0>
   1ecdc:	2000      	movs	r0, #0
   1ecde:	4929      	ldr	r1, [pc, #164]	; (1ed84 <_dtoa_r+0x5bc>)
   1ece0:	f7fd ff48 	bl	1cb74 <__aeabi_ddiv>
   1ece4:	463b      	mov	r3, r7
   1ece6:	4632      	mov	r2, r6
   1ece8:	f7fd fc62 	bl	1c5b0 <__aeabi_dsub>
   1ecec:	9f03      	ldr	r7, [sp, #12]
   1ecee:	e9cd 0110 	strd	r0, r1, [sp, #64]	; 0x40
   1ecf2:	e9dd 0104 	ldrd	r0, r1, [sp, #16]
   1ecf6:	f7fe f8c3 	bl	1ce80 <__aeabi_d2iz>
   1ecfa:	4604      	mov	r4, r0
   1ecfc:	f7fd fda6 	bl	1c84c <__aeabi_i2d>
   1ed00:	4602      	mov	r2, r0
   1ed02:	460b      	mov	r3, r1
   1ed04:	3430      	adds	r4, #48	; 0x30
   1ed06:	e9dd 0104 	ldrd	r0, r1, [sp, #16]
   1ed0a:	f7fd fc51 	bl	1c5b0 <__aeabi_dsub>
   1ed0e:	4602      	mov	r2, r0
   1ed10:	460b      	mov	r3, r1
   1ed12:	f807 4b01 	strb.w	r4, [r7], #1
   1ed16:	e9cd 2304 	strd	r2, r3, [sp, #16]
   1ed1a:	e9dd 2310 	ldrd	r2, r3, [sp, #64]	; 0x40
   1ed1e:	f7fe f871 	bl	1ce04 <__aeabi_dcmplt>
   1ed22:	2800      	cmp	r0, #0
   1ed24:	d173      	bne.n	1ee0e <_dtoa_r+0x646>
   1ed26:	2000      	movs	r0, #0
   1ed28:	4912      	ldr	r1, [pc, #72]	; (1ed74 <_dtoa_r+0x5ac>)
   1ed2a:	e9dd 2304 	ldrd	r2, r3, [sp, #16]
   1ed2e:	f7fd fc3f 	bl	1c5b0 <__aeabi_dsub>
   1ed32:	e9dd 2310 	ldrd	r2, r3, [sp, #64]	; 0x40
   1ed36:	f7fe f865 	bl	1ce04 <__aeabi_dcmplt>
   1ed3a:	2800      	cmp	r0, #0
   1ed3c:	f040 80b6 	bne.w	1eeac <_dtoa_r+0x6e4>
   1ed40:	9b12      	ldr	r3, [sp, #72]	; 0x48
   1ed42:	429f      	cmp	r7, r3
   1ed44:	f43f af7a 	beq.w	1ec3c <_dtoa_r+0x474>
   1ed48:	2200      	movs	r2, #0
   1ed4a:	4b0b      	ldr	r3, [pc, #44]	; (1ed78 <_dtoa_r+0x5b0>)
   1ed4c:	e9dd 0110 	ldrd	r0, r1, [sp, #64]	; 0x40
   1ed50:	f7fd fde6 	bl	1c920 <__aeabi_dmul>
   1ed54:	2200      	movs	r2, #0
   1ed56:	4b08      	ldr	r3, [pc, #32]	; (1ed78 <_dtoa_r+0x5b0>)
   1ed58:	e9cd 0110 	strd	r0, r1, [sp, #64]	; 0x40
   1ed5c:	e9dd 0104 	ldrd	r0, r1, [sp, #16]
   1ed60:	f7fd fdde 	bl	1c920 <__aeabi_dmul>
   1ed64:	e9cd 0104 	strd	r0, r1, [sp, #16]
   1ed68:	e7c3      	b.n	1ecf2 <_dtoa_r+0x52a>
   1ed6a:	bf00      	nop
   1ed6c:	000382e8 	.word	0x000382e8
   1ed70:	000382c0 	.word	0x000382c0
   1ed74:	3ff00000 	.word	0x3ff00000
   1ed78:	40240000 	.word	0x40240000
   1ed7c:	401c0000 	.word	0x401c0000
   1ed80:	40140000 	.word	0x40140000
   1ed84:	3fe00000 	.word	0x3fe00000
   1ed88:	4630      	mov	r0, r6
   1ed8a:	4639      	mov	r1, r7
   1ed8c:	f7fd fdc8 	bl	1c920 <__aeabi_dmul>
   1ed90:	9b12      	ldr	r3, [sp, #72]	; 0x48
   1ed92:	9c03      	ldr	r4, [sp, #12]
   1ed94:	9314      	str	r3, [sp, #80]	; 0x50
   1ed96:	e9cd 0110 	strd	r0, r1, [sp, #64]	; 0x40
   1ed9a:	e9dd 0104 	ldrd	r0, r1, [sp, #16]
   1ed9e:	f7fe f86f 	bl	1ce80 <__aeabi_d2iz>
   1eda2:	9015      	str	r0, [sp, #84]	; 0x54
   1eda4:	f7fd fd52 	bl	1c84c <__aeabi_i2d>
   1eda8:	4602      	mov	r2, r0
   1edaa:	460b      	mov	r3, r1
   1edac:	e9dd 0104 	ldrd	r0, r1, [sp, #16]
   1edb0:	f7fd fbfe 	bl	1c5b0 <__aeabi_dsub>
   1edb4:	9b15      	ldr	r3, [sp, #84]	; 0x54
   1edb6:	4606      	mov	r6, r0
   1edb8:	460f      	mov	r7, r1
   1edba:	3330      	adds	r3, #48	; 0x30
   1edbc:	2200      	movs	r2, #0
   1edbe:	f804 3b01 	strb.w	r3, [r4], #1
   1edc2:	9b12      	ldr	r3, [sp, #72]	; 0x48
   1edc4:	429c      	cmp	r4, r3
   1edc6:	d124      	bne.n	1ee12 <_dtoa_r+0x64a>
   1edc8:	4ba4      	ldr	r3, [pc, #656]	; (1f05c <_dtoa_r+0x894>)
   1edca:	e9dd 0110 	ldrd	r0, r1, [sp, #64]	; 0x40
   1edce:	f7fd fbf1 	bl	1c5b4 <__adddf3>
   1edd2:	4602      	mov	r2, r0
   1edd4:	460b      	mov	r3, r1
   1edd6:	4630      	mov	r0, r6
   1edd8:	4639      	mov	r1, r7
   1edda:	f7fe f831 	bl	1ce40 <__aeabi_dcmpgt>
   1edde:	2800      	cmp	r0, #0
   1ede0:	d163      	bne.n	1eeaa <_dtoa_r+0x6e2>
   1ede2:	2000      	movs	r0, #0
   1ede4:	499d      	ldr	r1, [pc, #628]	; (1f05c <_dtoa_r+0x894>)
   1ede6:	e9dd 2310 	ldrd	r2, r3, [sp, #64]	; 0x40
   1edea:	f7fd fbe1 	bl	1c5b0 <__aeabi_dsub>
   1edee:	4602      	mov	r2, r0
   1edf0:	460b      	mov	r3, r1
   1edf2:	4630      	mov	r0, r6
   1edf4:	4639      	mov	r1, r7
   1edf6:	f7fe f805 	bl	1ce04 <__aeabi_dcmplt>
   1edfa:	2800      	cmp	r0, #0
   1edfc:	f43f af1e 	beq.w	1ec3c <_dtoa_r+0x474>
   1ee00:	9f14      	ldr	r7, [sp, #80]	; 0x50
   1ee02:	1e7b      	subs	r3, r7, #1
   1ee04:	9314      	str	r3, [sp, #80]	; 0x50
   1ee06:	f817 3c01 	ldrb.w	r3, [r7, #-1]
   1ee0a:	2b30      	cmp	r3, #48	; 0x30
   1ee0c:	d0f8      	beq.n	1ee00 <_dtoa_r+0x638>
   1ee0e:	46c2      	mov	sl, r8
   1ee10:	e03b      	b.n	1ee8a <_dtoa_r+0x6c2>
   1ee12:	4b93      	ldr	r3, [pc, #588]	; (1f060 <_dtoa_r+0x898>)
   1ee14:	f7fd fd84 	bl	1c920 <__aeabi_dmul>
   1ee18:	e9cd 0104 	strd	r0, r1, [sp, #16]
   1ee1c:	e7bd      	b.n	1ed9a <_dtoa_r+0x5d2>
   1ee1e:	e9dd 8904 	ldrd	r8, r9, [sp, #16]
   1ee22:	9f03      	ldr	r7, [sp, #12]
   1ee24:	4640      	mov	r0, r8
   1ee26:	4649      	mov	r1, r9
   1ee28:	e9dd 2306 	ldrd	r2, r3, [sp, #24]
   1ee2c:	f7fd fea2 	bl	1cb74 <__aeabi_ddiv>
   1ee30:	f7fe f826 	bl	1ce80 <__aeabi_d2iz>
   1ee34:	4604      	mov	r4, r0
   1ee36:	f7fd fd09 	bl	1c84c <__aeabi_i2d>
   1ee3a:	f104 0630 	add.w	r6, r4, #48	; 0x30
   1ee3e:	e9dd 2306 	ldrd	r2, r3, [sp, #24]
   1ee42:	f7fd fd6d 	bl	1c920 <__aeabi_dmul>
   1ee46:	4602      	mov	r2, r0
   1ee48:	460b      	mov	r3, r1
   1ee4a:	4640      	mov	r0, r8
   1ee4c:	4649      	mov	r1, r9
   1ee4e:	f7fd fbaf 	bl	1c5b0 <__aeabi_dsub>
   1ee52:	f807 6b01 	strb.w	r6, [r7], #1
   1ee56:	9e03      	ldr	r6, [sp, #12]
   1ee58:	4602      	mov	r2, r0
   1ee5a:	f8dd c020 	ldr.w	ip, [sp, #32]
   1ee5e:	460b      	mov	r3, r1
   1ee60:	1bbe      	subs	r6, r7, r6
   1ee62:	45b4      	cmp	ip, r6
   1ee64:	d136      	bne.n	1eed4 <_dtoa_r+0x70c>
   1ee66:	f7fd fba5 	bl	1c5b4 <__adddf3>
   1ee6a:	4680      	mov	r8, r0
   1ee6c:	4689      	mov	r9, r1
   1ee6e:	e9dd 2306 	ldrd	r2, r3, [sp, #24]
   1ee72:	f7fd ffe5 	bl	1ce40 <__aeabi_dcmpgt>
   1ee76:	bb58      	cbnz	r0, 1eed0 <_dtoa_r+0x708>
   1ee78:	4640      	mov	r0, r8
   1ee7a:	4649      	mov	r1, r9
   1ee7c:	e9dd 2306 	ldrd	r2, r3, [sp, #24]
   1ee80:	f7fd ffb6 	bl	1cdf0 <__aeabi_dcmpeq>
   1ee84:	b108      	cbz	r0, 1ee8a <_dtoa_r+0x6c2>
   1ee86:	07e1      	lsls	r1, r4, #31
   1ee88:	d422      	bmi.n	1eed0 <_dtoa_r+0x708>
   1ee8a:	4628      	mov	r0, r5
   1ee8c:	4659      	mov	r1, fp
   1ee8e:	f013 f9e1 	bl	32254 <_Bfree>
   1ee92:	2300      	movs	r3, #0
   1ee94:	f10a 0001 	add.w	r0, sl, #1
   1ee98:	703b      	strb	r3, [r7, #0]
   1ee9a:	9b24      	ldr	r3, [sp, #144]	; 0x90
   1ee9c:	6018      	str	r0, [r3, #0]
   1ee9e:	9b26      	ldr	r3, [sp, #152]	; 0x98
   1eea0:	2b00      	cmp	r3, #0
   1eea2:	f43f acdf 	beq.w	1e864 <_dtoa_r+0x9c>
   1eea6:	601f      	str	r7, [r3, #0]
   1eea8:	e4dc      	b.n	1e864 <_dtoa_r+0x9c>
   1eeaa:	4627      	mov	r7, r4
   1eeac:	463b      	mov	r3, r7
   1eeae:	461f      	mov	r7, r3
   1eeb0:	f813 2d01 	ldrb.w	r2, [r3, #-1]!
   1eeb4:	2a39      	cmp	r2, #57	; 0x39
   1eeb6:	d107      	bne.n	1eec8 <_dtoa_r+0x700>
   1eeb8:	9a03      	ldr	r2, [sp, #12]
   1eeba:	429a      	cmp	r2, r3
   1eebc:	d1f7      	bne.n	1eeae <_dtoa_r+0x6e6>
   1eebe:	2230      	movs	r2, #48	; 0x30
   1eec0:	9903      	ldr	r1, [sp, #12]
   1eec2:	f108 0801 	add.w	r8, r8, #1
   1eec6:	700a      	strb	r2, [r1, #0]
   1eec8:	781a      	ldrb	r2, [r3, #0]
   1eeca:	3201      	adds	r2, #1
   1eecc:	701a      	strb	r2, [r3, #0]
   1eece:	e79e      	b.n	1ee0e <_dtoa_r+0x646>
   1eed0:	46d0      	mov	r8, sl
   1eed2:	e7eb      	b.n	1eeac <_dtoa_r+0x6e4>
   1eed4:	2200      	movs	r2, #0
   1eed6:	4b62      	ldr	r3, [pc, #392]	; (1f060 <_dtoa_r+0x898>)
   1eed8:	f7fd fd22 	bl	1c920 <__aeabi_dmul>
   1eedc:	2200      	movs	r2, #0
   1eede:	2300      	movs	r3, #0
   1eee0:	4680      	mov	r8, r0
   1eee2:	4689      	mov	r9, r1
   1eee4:	f7fd ff84 	bl	1cdf0 <__aeabi_dcmpeq>
   1eee8:	2800      	cmp	r0, #0
   1eeea:	d09b      	beq.n	1ee24 <_dtoa_r+0x65c>
   1eeec:	e7cd      	b.n	1ee8a <_dtoa_r+0x6c2>
   1eeee:	9a0b      	ldr	r2, [sp, #44]	; 0x2c
   1eef0:	2a00      	cmp	r2, #0
   1eef2:	f000 80d0 	beq.w	1f096 <_dtoa_r+0x8ce>
   1eef6:	9a22      	ldr	r2, [sp, #136]	; 0x88
   1eef8:	2a01      	cmp	r2, #1
   1eefa:	f300 80b3 	bgt.w	1f064 <_dtoa_r+0x89c>
   1eefe:	9a13      	ldr	r2, [sp, #76]	; 0x4c
   1ef00:	2a00      	cmp	r2, #0
   1ef02:	f000 80a6 	beq.w	1f052 <_dtoa_r+0x88a>
   1ef06:	f203 4333 	addw	r3, r3, #1075	; 0x433
   1ef0a:	9c0a      	ldr	r4, [sp, #40]	; 0x28
   1ef0c:	9f06      	ldr	r7, [sp, #24]
   1ef0e:	9a06      	ldr	r2, [sp, #24]
   1ef10:	2101      	movs	r1, #1
   1ef12:	4628      	mov	r0, r5
   1ef14:	441a      	add	r2, r3
   1ef16:	9206      	str	r2, [sp, #24]
   1ef18:	9a09      	ldr	r2, [sp, #36]	; 0x24
   1ef1a:	441a      	add	r2, r3
   1ef1c:	9209      	str	r2, [sp, #36]	; 0x24
   1ef1e:	f013 fa4d 	bl	323bc <__i2b>
   1ef22:	4606      	mov	r6, r0
   1ef24:	2f00      	cmp	r7, #0
   1ef26:	dd0c      	ble.n	1ef42 <_dtoa_r+0x77a>
   1ef28:	9b09      	ldr	r3, [sp, #36]	; 0x24
   1ef2a:	2b00      	cmp	r3, #0
   1ef2c:	dd09      	ble.n	1ef42 <_dtoa_r+0x77a>
   1ef2e:	42bb      	cmp	r3, r7
   1ef30:	9a06      	ldr	r2, [sp, #24]
   1ef32:	bfa8      	it	ge
   1ef34:	463b      	movge	r3, r7
   1ef36:	1ad2      	subs	r2, r2, r3
   1ef38:	1aff      	subs	r7, r7, r3
   1ef3a:	9206      	str	r2, [sp, #24]
   1ef3c:	9a09      	ldr	r2, [sp, #36]	; 0x24
   1ef3e:	1ad3      	subs	r3, r2, r3
   1ef40:	9309      	str	r3, [sp, #36]	; 0x24
   1ef42:	9b0a      	ldr	r3, [sp, #40]	; 0x28
   1ef44:	b1f3      	cbz	r3, 1ef84 <_dtoa_r+0x7bc>
   1ef46:	9b0b      	ldr	r3, [sp, #44]	; 0x2c
   1ef48:	2b00      	cmp	r3, #0
   1ef4a:	f000 80a8 	beq.w	1f09e <_dtoa_r+0x8d6>
   1ef4e:	2c00      	cmp	r4, #0
   1ef50:	dd10      	ble.n	1ef74 <_dtoa_r+0x7ac>
   1ef52:	4631      	mov	r1, r6
   1ef54:	4622      	mov	r2, r4
   1ef56:	4628      	mov	r0, r5
   1ef58:	f013 faee 	bl	32538 <__pow5mult>
   1ef5c:	465a      	mov	r2, fp
   1ef5e:	4601      	mov	r1, r0
   1ef60:	4606      	mov	r6, r0
   1ef62:	4628      	mov	r0, r5
   1ef64:	f013 fa40 	bl	323e8 <__multiply>
   1ef68:	4680      	mov	r8, r0
   1ef6a:	4659      	mov	r1, fp
   1ef6c:	4628      	mov	r0, r5
   1ef6e:	46c3      	mov	fp, r8
   1ef70:	f013 f970 	bl	32254 <_Bfree>
   1ef74:	9b0a      	ldr	r3, [sp, #40]	; 0x28
   1ef76:	1b1a      	subs	r2, r3, r4
   1ef78:	d004      	beq.n	1ef84 <_dtoa_r+0x7bc>
   1ef7a:	4659      	mov	r1, fp
   1ef7c:	4628      	mov	r0, r5
   1ef7e:	f013 fadb 	bl	32538 <__pow5mult>
   1ef82:	4683      	mov	fp, r0
   1ef84:	2101      	movs	r1, #1
   1ef86:	4628      	mov	r0, r5
   1ef88:	f013 fa18 	bl	323bc <__i2b>
   1ef8c:	9b0e      	ldr	r3, [sp, #56]	; 0x38
   1ef8e:	4604      	mov	r4, r0
   1ef90:	2b00      	cmp	r3, #0
   1ef92:	f340 8086 	ble.w	1f0a2 <_dtoa_r+0x8da>
   1ef96:	461a      	mov	r2, r3
   1ef98:	4601      	mov	r1, r0
   1ef9a:	4628      	mov	r0, r5
   1ef9c:	f013 facc 	bl	32538 <__pow5mult>
   1efa0:	9b22      	ldr	r3, [sp, #136]	; 0x88
   1efa2:	4604      	mov	r4, r0
   1efa4:	2b01      	cmp	r3, #1
   1efa6:	dd7f      	ble.n	1f0a8 <_dtoa_r+0x8e0>
   1efa8:	f04f 0800 	mov.w	r8, #0
   1efac:	6923      	ldr	r3, [r4, #16]
   1efae:	eb04 0383 	add.w	r3, r4, r3, lsl #2
   1efb2:	6918      	ldr	r0, [r3, #16]
   1efb4:	f018 fcac 	bl	37910 <__hi0bits>
   1efb8:	f1c0 0020 	rsb	r0, r0, #32
   1efbc:	9b09      	ldr	r3, [sp, #36]	; 0x24
   1efbe:	4418      	add	r0, r3
   1efc0:	f010 001f 	ands.w	r0, r0, #31
   1efc4:	f000 8092 	beq.w	1f0ec <_dtoa_r+0x924>
   1efc8:	f1c0 0320 	rsb	r3, r0, #32
   1efcc:	2b04      	cmp	r3, #4
   1efce:	f340 808a 	ble.w	1f0e6 <_dtoa_r+0x91e>
   1efd2:	f1c0 001c 	rsb	r0, r0, #28
   1efd6:	9b06      	ldr	r3, [sp, #24]
   1efd8:	4407      	add	r7, r0
   1efda:	4403      	add	r3, r0
   1efdc:	9306      	str	r3, [sp, #24]
   1efde:	9b09      	ldr	r3, [sp, #36]	; 0x24
   1efe0:	4403      	add	r3, r0
   1efe2:	9309      	str	r3, [sp, #36]	; 0x24
   1efe4:	9b06      	ldr	r3, [sp, #24]
   1efe6:	2b00      	cmp	r3, #0
   1efe8:	dd05      	ble.n	1eff6 <_dtoa_r+0x82e>
   1efea:	4659      	mov	r1, fp
   1efec:	461a      	mov	r2, r3
   1efee:	4628      	mov	r0, r5
   1eff0:	f013 fafc 	bl	325ec <__lshift>
   1eff4:	4683      	mov	fp, r0
   1eff6:	9b09      	ldr	r3, [sp, #36]	; 0x24
   1eff8:	2b00      	cmp	r3, #0
   1effa:	dd05      	ble.n	1f008 <_dtoa_r+0x840>
   1effc:	4621      	mov	r1, r4
   1effe:	461a      	mov	r2, r3
   1f000:	4628      	mov	r0, r5
   1f002:	f013 faf3 	bl	325ec <__lshift>
   1f006:	4604      	mov	r4, r0
   1f008:	9b0f      	ldr	r3, [sp, #60]	; 0x3c
   1f00a:	2b00      	cmp	r3, #0
   1f00c:	d070      	beq.n	1f0f0 <_dtoa_r+0x928>
   1f00e:	4621      	mov	r1, r4
   1f010:	4658      	mov	r0, fp
   1f012:	f018 fcca 	bl	379aa <__mcmp>
   1f016:	2800      	cmp	r0, #0
   1f018:	da6a      	bge.n	1f0f0 <_dtoa_r+0x928>
   1f01a:	2300      	movs	r3, #0
   1f01c:	4659      	mov	r1, fp
   1f01e:	220a      	movs	r2, #10
   1f020:	4628      	mov	r0, r5
   1f022:	f013 f939 	bl	32298 <__multadd>
   1f026:	9b0b      	ldr	r3, [sp, #44]	; 0x2c
   1f028:	f10a 3aff 	add.w	sl, sl, #4294967295
   1f02c:	4683      	mov	fp, r0
   1f02e:	2b00      	cmp	r3, #0
   1f030:	f000 8194 	beq.w	1f35c <_dtoa_r+0xb94>
   1f034:	4631      	mov	r1, r6
   1f036:	2300      	movs	r3, #0
   1f038:	220a      	movs	r2, #10
   1f03a:	4628      	mov	r0, r5
   1f03c:	f013 f92c 	bl	32298 <__multadd>
   1f040:	f1b9 0f00 	cmp.w	r9, #0
   1f044:	4606      	mov	r6, r0
   1f046:	f300 8093 	bgt.w	1f170 <_dtoa_r+0x9a8>
   1f04a:	9b22      	ldr	r3, [sp, #136]	; 0x88
   1f04c:	2b02      	cmp	r3, #2
   1f04e:	dc57      	bgt.n	1f100 <_dtoa_r+0x938>
   1f050:	e08e      	b.n	1f170 <_dtoa_r+0x9a8>
   1f052:	9b16      	ldr	r3, [sp, #88]	; 0x58
   1f054:	f1c3 0336 	rsb	r3, r3, #54	; 0x36
   1f058:	e757      	b.n	1ef0a <_dtoa_r+0x742>
   1f05a:	bf00      	nop
   1f05c:	3fe00000 	.word	0x3fe00000
   1f060:	40240000 	.word	0x40240000
   1f064:	9b08      	ldr	r3, [sp, #32]
   1f066:	1e5c      	subs	r4, r3, #1
   1f068:	9b0a      	ldr	r3, [sp, #40]	; 0x28
   1f06a:	42a3      	cmp	r3, r4
   1f06c:	bfb7      	itett	lt
   1f06e:	9b0a      	ldrlt	r3, [sp, #40]	; 0x28
   1f070:	1b1c      	subge	r4, r3, r4
   1f072:	940a      	strlt	r4, [sp, #40]	; 0x28
   1f074:	1ae2      	sublt	r2, r4, r3
   1f076:	bfbf      	itttt	lt
   1f078:	9b0e      	ldrlt	r3, [sp, #56]	; 0x38
   1f07a:	2400      	movlt	r4, #0
   1f07c:	189b      	addlt	r3, r3, r2
   1f07e:	930e      	strlt	r3, [sp, #56]	; 0x38
   1f080:	9b08      	ldr	r3, [sp, #32]
   1f082:	2b00      	cmp	r3, #0
   1f084:	bfbb      	ittet	lt
   1f086:	9b06      	ldrlt	r3, [sp, #24]
   1f088:	9a08      	ldrlt	r2, [sp, #32]
   1f08a:	9f06      	ldrge	r7, [sp, #24]
   1f08c:	1a9f      	sublt	r7, r3, r2
   1f08e:	bfac      	ite	ge
   1f090:	9b08      	ldrge	r3, [sp, #32]
   1f092:	2300      	movlt	r3, #0
   1f094:	e73b      	b.n	1ef0e <_dtoa_r+0x746>
   1f096:	9c0a      	ldr	r4, [sp, #40]	; 0x28
   1f098:	9f06      	ldr	r7, [sp, #24]
   1f09a:	9e0b      	ldr	r6, [sp, #44]	; 0x2c
   1f09c:	e742      	b.n	1ef24 <_dtoa_r+0x75c>
   1f09e:	9a0a      	ldr	r2, [sp, #40]	; 0x28
   1f0a0:	e76b      	b.n	1ef7a <_dtoa_r+0x7b2>
   1f0a2:	9b22      	ldr	r3, [sp, #136]	; 0x88
   1f0a4:	2b01      	cmp	r3, #1
   1f0a6:	dc19      	bgt.n	1f0dc <_dtoa_r+0x914>
   1f0a8:	9b04      	ldr	r3, [sp, #16]
   1f0aa:	b9bb      	cbnz	r3, 1f0dc <_dtoa_r+0x914>
   1f0ac:	9b05      	ldr	r3, [sp, #20]
   1f0ae:	f3c3 0313 	ubfx	r3, r3, #0, #20
   1f0b2:	b99b      	cbnz	r3, 1f0dc <_dtoa_r+0x914>
   1f0b4:	9b05      	ldr	r3, [sp, #20]
   1f0b6:	f023 4300 	bic.w	r3, r3, #2147483648	; 0x80000000
   1f0ba:	0d1b      	lsrs	r3, r3, #20
   1f0bc:	051b      	lsls	r3, r3, #20
   1f0be:	b183      	cbz	r3, 1f0e2 <_dtoa_r+0x91a>
   1f0c0:	9b06      	ldr	r3, [sp, #24]
   1f0c2:	f04f 0801 	mov.w	r8, #1
   1f0c6:	3301      	adds	r3, #1
   1f0c8:	9306      	str	r3, [sp, #24]
   1f0ca:	9b09      	ldr	r3, [sp, #36]	; 0x24
   1f0cc:	3301      	adds	r3, #1
   1f0ce:	9309      	str	r3, [sp, #36]	; 0x24
   1f0d0:	9b0e      	ldr	r3, [sp, #56]	; 0x38
   1f0d2:	2b00      	cmp	r3, #0
   1f0d4:	f47f af6a 	bne.w	1efac <_dtoa_r+0x7e4>
   1f0d8:	2001      	movs	r0, #1
   1f0da:	e76f      	b.n	1efbc <_dtoa_r+0x7f4>
   1f0dc:	f04f 0800 	mov.w	r8, #0
   1f0e0:	e7f6      	b.n	1f0d0 <_dtoa_r+0x908>
   1f0e2:	4698      	mov	r8, r3
   1f0e4:	e7f4      	b.n	1f0d0 <_dtoa_r+0x908>
   1f0e6:	f43f af7d 	beq.w	1efe4 <_dtoa_r+0x81c>
   1f0ea:	4618      	mov	r0, r3
   1f0ec:	301c      	adds	r0, #28
   1f0ee:	e772      	b.n	1efd6 <_dtoa_r+0x80e>
   1f0f0:	9b08      	ldr	r3, [sp, #32]
   1f0f2:	2b00      	cmp	r3, #0
   1f0f4:	dc36      	bgt.n	1f164 <_dtoa_r+0x99c>
   1f0f6:	9b22      	ldr	r3, [sp, #136]	; 0x88
   1f0f8:	2b02      	cmp	r3, #2
   1f0fa:	dd33      	ble.n	1f164 <_dtoa_r+0x99c>
   1f0fc:	f8dd 9020 	ldr.w	r9, [sp, #32]
   1f100:	f1b9 0f00 	cmp.w	r9, #0
   1f104:	d10d      	bne.n	1f122 <_dtoa_r+0x95a>
   1f106:	4621      	mov	r1, r4
   1f108:	464b      	mov	r3, r9
   1f10a:	2205      	movs	r2, #5
   1f10c:	4628      	mov	r0, r5
   1f10e:	f013 f8c3 	bl	32298 <__multadd>
   1f112:	4601      	mov	r1, r0
   1f114:	4604      	mov	r4, r0
   1f116:	4658      	mov	r0, fp
   1f118:	f018 fc47 	bl	379aa <__mcmp>
   1f11c:	2800      	cmp	r0, #0
   1f11e:	f73f adb9 	bgt.w	1ec94 <_dtoa_r+0x4cc>
   1f122:	9b23      	ldr	r3, [sp, #140]	; 0x8c
   1f124:	9f03      	ldr	r7, [sp, #12]
   1f126:	ea6f 0a03 	mvn.w	sl, r3
   1f12a:	f04f 0800 	mov.w	r8, #0
   1f12e:	4621      	mov	r1, r4
   1f130:	4628      	mov	r0, r5
   1f132:	f013 f88f 	bl	32254 <_Bfree>
   1f136:	2e00      	cmp	r6, #0
   1f138:	f43f aea7 	beq.w	1ee8a <_dtoa_r+0x6c2>
   1f13c:	f1b8 0f00 	cmp.w	r8, #0
   1f140:	d005      	beq.n	1f14e <_dtoa_r+0x986>
   1f142:	45b0      	cmp	r8, r6
   1f144:	d003      	beq.n	1f14e <_dtoa_r+0x986>
   1f146:	4641      	mov	r1, r8
   1f148:	4628      	mov	r0, r5
   1f14a:	f013 f883 	bl	32254 <_Bfree>
   1f14e:	4631      	mov	r1, r6
   1f150:	4628      	mov	r0, r5
   1f152:	f013 f87f 	bl	32254 <_Bfree>
   1f156:	e698      	b.n	1ee8a <_dtoa_r+0x6c2>
   1f158:	2400      	movs	r4, #0
   1f15a:	4626      	mov	r6, r4
   1f15c:	e7e1      	b.n	1f122 <_dtoa_r+0x95a>
   1f15e:	46c2      	mov	sl, r8
   1f160:	4626      	mov	r6, r4
   1f162:	e597      	b.n	1ec94 <_dtoa_r+0x4cc>
   1f164:	9b0b      	ldr	r3, [sp, #44]	; 0x2c
   1f166:	f8dd 9020 	ldr.w	r9, [sp, #32]
   1f16a:	2b00      	cmp	r3, #0
   1f16c:	f000 80fd 	beq.w	1f36a <_dtoa_r+0xba2>
   1f170:	2f00      	cmp	r7, #0
   1f172:	dd05      	ble.n	1f180 <_dtoa_r+0x9b8>
   1f174:	4631      	mov	r1, r6
   1f176:	463a      	mov	r2, r7
   1f178:	4628      	mov	r0, r5
   1f17a:	f013 fa37 	bl	325ec <__lshift>
   1f17e:	4606      	mov	r6, r0
   1f180:	f1b8 0f00 	cmp.w	r8, #0
   1f184:	d05c      	beq.n	1f240 <_dtoa_r+0xa78>
   1f186:	6871      	ldr	r1, [r6, #4]
   1f188:	4628      	mov	r0, r5
   1f18a:	f013 f823 	bl	321d4 <_Balloc>
   1f18e:	4607      	mov	r7, r0
   1f190:	b928      	cbnz	r0, 1f19e <_dtoa_r+0x9d6>
   1f192:	4b80      	ldr	r3, [pc, #512]	; (1f394 <_dtoa_r+0xbcc>)
   1f194:	4602      	mov	r2, r0
   1f196:	f240 21ea 	movw	r1, #746	; 0x2ea
   1f19a:	f7ff bb29 	b.w	1e7f0 <_dtoa_r+0x28>
   1f19e:	6932      	ldr	r2, [r6, #16]
   1f1a0:	f106 010c 	add.w	r1, r6, #12
   1f1a4:	300c      	adds	r0, #12
   1f1a6:	3202      	adds	r2, #2
   1f1a8:	0092      	lsls	r2, r2, #2
   1f1aa:	f017 fefc 	bl	36fa6 <memcpy>
   1f1ae:	2201      	movs	r2, #1
   1f1b0:	4639      	mov	r1, r7
   1f1b2:	4628      	mov	r0, r5
   1f1b4:	f013 fa1a 	bl	325ec <__lshift>
   1f1b8:	9b03      	ldr	r3, [sp, #12]
   1f1ba:	46b0      	mov	r8, r6
   1f1bc:	4606      	mov	r6, r0
   1f1be:	3301      	adds	r3, #1
   1f1c0:	9308      	str	r3, [sp, #32]
   1f1c2:	9b03      	ldr	r3, [sp, #12]
   1f1c4:	444b      	add	r3, r9
   1f1c6:	930a      	str	r3, [sp, #40]	; 0x28
   1f1c8:	9b04      	ldr	r3, [sp, #16]
   1f1ca:	f003 0301 	and.w	r3, r3, #1
   1f1ce:	9309      	str	r3, [sp, #36]	; 0x24
   1f1d0:	9b08      	ldr	r3, [sp, #32]
   1f1d2:	4621      	mov	r1, r4
   1f1d4:	4658      	mov	r0, fp
   1f1d6:	3b01      	subs	r3, #1
   1f1d8:	9304      	str	r3, [sp, #16]
   1f1da:	f018 f95d 	bl	37498 <quorem>
   1f1de:	4603      	mov	r3, r0
   1f1e0:	4641      	mov	r1, r8
   1f1e2:	9006      	str	r0, [sp, #24]
   1f1e4:	4658      	mov	r0, fp
   1f1e6:	3330      	adds	r3, #48	; 0x30
   1f1e8:	930b      	str	r3, [sp, #44]	; 0x2c
   1f1ea:	f018 fbde 	bl	379aa <__mcmp>
   1f1ee:	4632      	mov	r2, r6
   1f1f0:	4681      	mov	r9, r0
   1f1f2:	4621      	mov	r1, r4
   1f1f4:	4628      	mov	r0, r5
   1f1f6:	f013 fa69 	bl	326cc <__mdiff>
   1f1fa:	68c2      	ldr	r2, [r0, #12]
   1f1fc:	4607      	mov	r7, r0
   1f1fe:	9b0b      	ldr	r3, [sp, #44]	; 0x2c
   1f200:	bb02      	cbnz	r2, 1f244 <_dtoa_r+0xa7c>
   1f202:	4601      	mov	r1, r0
   1f204:	4658      	mov	r0, fp
   1f206:	f018 fbd0 	bl	379aa <__mcmp>
   1f20a:	9b0b      	ldr	r3, [sp, #44]	; 0x2c
   1f20c:	4602      	mov	r2, r0
   1f20e:	4639      	mov	r1, r7
   1f210:	4628      	mov	r0, r5
   1f212:	e9cd 320b 	strd	r3, r2, [sp, #44]	; 0x2c
   1f216:	f013 f81d 	bl	32254 <_Bfree>
   1f21a:	9b22      	ldr	r3, [sp, #136]	; 0x88
   1f21c:	9a0c      	ldr	r2, [sp, #48]	; 0x30
   1f21e:	9f08      	ldr	r7, [sp, #32]
   1f220:	ea43 0102 	orr.w	r1, r3, r2
   1f224:	9b09      	ldr	r3, [sp, #36]	; 0x24
   1f226:	430b      	orrs	r3, r1
   1f228:	9b0b      	ldr	r3, [sp, #44]	; 0x2c
   1f22a:	d10d      	bne.n	1f248 <_dtoa_r+0xa80>
   1f22c:	2b39      	cmp	r3, #57	; 0x39
   1f22e:	d029      	beq.n	1f284 <_dtoa_r+0xabc>
   1f230:	f1b9 0f00 	cmp.w	r9, #0
   1f234:	dd01      	ble.n	1f23a <_dtoa_r+0xa72>
   1f236:	9b06      	ldr	r3, [sp, #24]
   1f238:	3331      	adds	r3, #49	; 0x31
   1f23a:	9a04      	ldr	r2, [sp, #16]
   1f23c:	7013      	strb	r3, [r2, #0]
   1f23e:	e776      	b.n	1f12e <_dtoa_r+0x966>
   1f240:	4630      	mov	r0, r6
   1f242:	e7b9      	b.n	1f1b8 <_dtoa_r+0x9f0>
   1f244:	2201      	movs	r2, #1
   1f246:	e7e2      	b.n	1f20e <_dtoa_r+0xa46>
   1f248:	f1b9 0f00 	cmp.w	r9, #0
   1f24c:	db06      	blt.n	1f25c <_dtoa_r+0xa94>
   1f24e:	9922      	ldr	r1, [sp, #136]	; 0x88
   1f250:	ea41 0909 	orr.w	r9, r1, r9
   1f254:	9909      	ldr	r1, [sp, #36]	; 0x24
   1f256:	ea59 0101 	orrs.w	r1, r9, r1
   1f25a:	d120      	bne.n	1f29e <_dtoa_r+0xad6>
   1f25c:	2a00      	cmp	r2, #0
   1f25e:	ddec      	ble.n	1f23a <_dtoa_r+0xa72>
   1f260:	4659      	mov	r1, fp
   1f262:	2201      	movs	r2, #1
   1f264:	4628      	mov	r0, r5
   1f266:	9308      	str	r3, [sp, #32]
   1f268:	f013 f9c0 	bl	325ec <__lshift>
   1f26c:	4621      	mov	r1, r4
   1f26e:	4683      	mov	fp, r0
   1f270:	f018 fb9b 	bl	379aa <__mcmp>
   1f274:	2800      	cmp	r0, #0
   1f276:	9b08      	ldr	r3, [sp, #32]
   1f278:	dc02      	bgt.n	1f280 <_dtoa_r+0xab8>
   1f27a:	d1de      	bne.n	1f23a <_dtoa_r+0xa72>
   1f27c:	07da      	lsls	r2, r3, #31
   1f27e:	d5dc      	bpl.n	1f23a <_dtoa_r+0xa72>
   1f280:	2b39      	cmp	r3, #57	; 0x39
   1f282:	d1d8      	bne.n	1f236 <_dtoa_r+0xa6e>
   1f284:	2339      	movs	r3, #57	; 0x39
   1f286:	9a04      	ldr	r2, [sp, #16]
   1f288:	7013      	strb	r3, [r2, #0]
   1f28a:	463b      	mov	r3, r7
   1f28c:	461f      	mov	r7, r3
   1f28e:	3b01      	subs	r3, #1
   1f290:	f817 2c01 	ldrb.w	r2, [r7, #-1]
   1f294:	2a39      	cmp	r2, #57	; 0x39
   1f296:	d050      	beq.n	1f33a <_dtoa_r+0xb72>
   1f298:	3201      	adds	r2, #1
   1f29a:	701a      	strb	r2, [r3, #0]
   1f29c:	e747      	b.n	1f12e <_dtoa_r+0x966>
   1f29e:	2a00      	cmp	r2, #0
