
zephyr.elf:     file format elf32-littlearm


Disassembly of section rom_start:

00000000 <_vector_table>:
   0:	d0 7c 01 20 49 21 00 00 51 62 00 00 1d 21 00 00     .|. I!..Qb...!..
  10:	1d 21 00 00 1d 21 00 00 1d 21 00 00 1d 21 00 00     .!...!...!...!..
	...
  2c:	d9 1c 00 00 1d 21 00 00 00 00 00 00 1d 21 00 00     .....!.......!..
  3c:	1d 21 00 00                                         .!..

00000040 <_irq_vector_table>:
  40:	39 1d 00 00 39 1d 00 00 39 1d 00 00 39 1d 00 00     9...9...9...9...
  50:	39 1d 00 00 39 1d 00 00 39 1d 00 00 39 1d 00 00     9...9...9...9...
  60:	39 1d 00 00 39 1d 00 00 39 1d 00 00 39 1d 00 00     9...9...9...9...
  70:	39 1d 00 00 39 1d 00 00 39 1d 00 00 39 1d 00 00     9...9...9...9...
  80:	39 1d 00 00 39 1d 00 00 39 1d 00 00 39 1d 00 00     9...9...9...9...
  90:	39 1d 00 00 39 1d 00 00 39 1d 00 00 39 1d 00 00     9...9...9...9...
  a0:	39 1d 00 00 39 1d 00 00 39 1d 00 00 39 1d 00 00     9...9...9...9...
  b0:	39 1d 00 00 39 1d 00 00 39 1d 00 00 39 1d 00 00     9...9...9...9...
  c0:	39 1d 00 00 39 1d 00 00 39 1d 00 00 39 1d 00 00     9...9...9...9...
  d0:	39 1d 00 00 39 1d 00 00 39 1d 00 00 39 1d 00 00     9...9...9...9...
  e0:	39 1d 00 00 39 1d 00 00 39 1d 00 00 39 1d 00 00     9...9...9...9...
  f0:	39 1d 00 00 39 1d 00 00 39 1d 00 00 39 1d 00 00     9...9...9...9...
 100:	39 1d 00 00 39 1d 00 00 39 1d 00 00 39 1d 00 00     9...9...9...9...
 110:	39 1d 00 00 39 1d 00 00 39 1d 00 00 39 1d 00 00     9...9...9...9...
 120:	39 1d 00 00 39 1d 00 00 39 1d 00 00 39 1d 00 00     9...9...9...9...
 130:	39 1d 00 00 39 1d 00 00 39 1d 00 00 39 1d 00 00     9...9...9...9...
 140:	39 1d 00 00                                         9...

Disassembly of section text:

00000144 <__aeabi_uldivmod>:
     144:	b953      	cbnz	r3, 15c <__aeabi_uldivmod+0x18>
     146:	b94a      	cbnz	r2, 15c <__aeabi_uldivmod+0x18>
     148:	2900      	cmp	r1, #0
     14a:	bf08      	it	eq
     14c:	2800      	cmpeq	r0, #0
     14e:	bf1c      	itt	ne
     150:	f04f 31ff 	movne.w	r1, #4294967295
     154:	f04f 30ff 	movne.w	r0, #4294967295
     158:	f000 b80c 	b.w	174 <__aeabi_idiv0>
     15c:	f1ad 0c08 	sub.w	ip, sp, #8
     160:	e96d ce04 	strd	ip, lr, [sp, #-16]!
     164:	f000 f808 	bl	178 <__udivmoddi4>
     168:	f8dd e004 	ldr.w	lr, [sp, #4]
     16c:	e9dd 2302 	ldrd	r2, r3, [sp, #8]
     170:	b004      	add	sp, #16
     172:	4770      	bx	lr

00000174 <__aeabi_idiv0>:
     174:	4770      	bx	lr
     176:	bf00      	nop

00000178 <__udivmoddi4>:
     178:	e92d 4ff0 	stmdb	sp!, {r4, r5, r6, r7, r8, r9, sl, fp, lr}
     17c:	9e09      	ldr	r6, [sp, #36]	; 0x24
     17e:	4688      	mov	r8, r1
     180:	468e      	mov	lr, r1
     182:	4615      	mov	r5, r2
     184:	4604      	mov	r4, r0
     186:	4619      	mov	r1, r3
     188:	2b00      	cmp	r3, #0
     18a:	f040 80c6 	bne.w	31a <CONFIG_MCUBOOT_LOG_THREAD_STACK_SIZE+0x1a>
     18e:	4542      	cmp	r2, r8
     190:	fab2 f782 	clz	r7, r2
     194:	d946      	bls.n	224 <CONFIG_PM_PARTITION_SIZE_MCUBOOT_PAD+0x24>
     196:	b14f      	cbz	r7, 1ac <__udivmoddi4+0x34>
     198:	f1c7 0c20 	rsb	ip, r7, #32
     19c:	fa08 f307 	lsl.w	r3, r8, r7
     1a0:	40bd      	lsls	r5, r7
     1a2:	40bc      	lsls	r4, r7
     1a4:	fa20 fc0c 	lsr.w	ip, r0, ip
     1a8:	ea4c 0e03 	orr.w	lr, ip, r3
     1ac:	ea4f 4815 	mov.w	r8, r5, lsr #16
     1b0:	fa1f fc85 	uxth.w	ip, r5
     1b4:	0c22      	lsrs	r2, r4, #16
     1b6:	fbbe f9f8 	udiv	r9, lr, r8
     1ba:	fb08 e319 	mls	r3, r8, r9, lr
     1be:	fb09 fa0c 	mul.w	sl, r9, ip
     1c2:	ea42 4303 	orr.w	r3, r2, r3, lsl #16
     1c6:	459a      	cmp	sl, r3
     1c8:	d928      	bls.n	21c <CONFIG_PM_PARTITION_SIZE_MCUBOOT_PAD+0x1c>
     1ca:	18eb      	adds	r3, r5, r3
     1cc:	f109 30ff 	add.w	r0, r9, #4294967295
     1d0:	d204      	bcs.n	1dc <__udivmoddi4+0x64>
     1d2:	459a      	cmp	sl, r3
     1d4:	d902      	bls.n	1dc <__udivmoddi4+0x64>
     1d6:	f1a9 0002 	sub.w	r0, r9, #2
     1da:	442b      	add	r3, r5
     1dc:	eba3 030a 	sub.w	r3, r3, sl
     1e0:	b2a4      	uxth	r4, r4
     1e2:	fbb3 f2f8 	udiv	r2, r3, r8
     1e6:	fb08 3312 	mls	r3, r8, r2, r3
     1ea:	fb02 fc0c 	mul.w	ip, r2, ip
     1ee:	ea44 4403 	orr.w	r4, r4, r3, lsl #16
     1f2:	45a4      	cmp	ip, r4
     1f4:	d914      	bls.n	220 <CONFIG_PM_PARTITION_SIZE_MCUBOOT_PAD+0x20>
     1f6:	192c      	adds	r4, r5, r4
     1f8:	f102 33ff 	add.w	r3, r2, #4294967295
     1fc:	d203      	bcs.n	206 <CONFIG_PM_PARTITION_SIZE_MCUBOOT_PAD+0x6>
     1fe:	45a4      	cmp	ip, r4
     200:	d901      	bls.n	206 <CONFIG_PM_PARTITION_SIZE_MCUBOOT_PAD+0x6>
     202:	1e93      	subs	r3, r2, #2
     204:	442c      	add	r4, r5
     206:	eba4 040c 	sub.w	r4, r4, ip
     20a:	ea43 4000 	orr.w	r0, r3, r0, lsl #16
     20e:	b11e      	cbz	r6, 218 <CONFIG_PM_PARTITION_SIZE_MCUBOOT_PAD+0x18>
     210:	40fc      	lsrs	r4, r7
     212:	2300      	movs	r3, #0
     214:	6034      	str	r4, [r6, #0]
     216:	6073      	str	r3, [r6, #4]
     218:	e8bd 8ff0 	ldmia.w	sp!, {r4, r5, r6, r7, r8, r9, sl, fp, pc}
     21c:	4648      	mov	r0, r9
     21e:	e7dd      	b.n	1dc <__udivmoddi4+0x64>
     220:	4613      	mov	r3, r2
     222:	e7f0      	b.n	206 <CONFIG_PM_PARTITION_SIZE_MCUBOOT_PAD+0x6>
     224:	b902      	cbnz	r2, 228 <CONFIG_PM_PARTITION_SIZE_MCUBOOT_PAD+0x28>
     226:	deff      	udf	#255	; 0xff
     228:	bb8f      	cbnz	r7, 28e <CONFIG_PM_PARTITION_SIZE_PROVISION+0xe>
     22a:	eba8 0302 	sub.w	r3, r8, r2
     22e:	2101      	movs	r1, #1
     230:	ea4f 4e15 	mov.w	lr, r5, lsr #16
     234:	b2aa      	uxth	r2, r5
     236:	0c20      	lsrs	r0, r4, #16
     238:	fbb3 fcfe 	udiv	ip, r3, lr
     23c:	fb0e 331c 	mls	r3, lr, ip, r3
     240:	fb0c f802 	mul.w	r8, ip, r2
     244:	ea40 4303 	orr.w	r3, r0, r3, lsl #16
     248:	4598      	cmp	r8, r3
     24a:	d962      	bls.n	312 <CONFIG_MCUBOOT_LOG_THREAD_STACK_SIZE+0x12>
     24c:	18eb      	adds	r3, r5, r3
     24e:	f10c 30ff 	add.w	r0, ip, #4294967295
     252:	d204      	bcs.n	25e <CONFIG_PM_PARTITION_SIZE_MCUBOOT_PAD+0x5e>
     254:	4598      	cmp	r8, r3
     256:	d902      	bls.n	25e <CONFIG_PM_PARTITION_SIZE_MCUBOOT_PAD+0x5e>
     258:	f1ac 0002 	sub.w	r0, ip, #2
     25c:	442b      	add	r3, r5
     25e:	eba3 0308 	sub.w	r3, r3, r8
     262:	b2a4      	uxth	r4, r4
     264:	fbb3 fcfe 	udiv	ip, r3, lr
     268:	fb0e 331c 	mls	r3, lr, ip, r3
     26c:	fb0c f202 	mul.w	r2, ip, r2
     270:	ea44 4403 	orr.w	r4, r4, r3, lsl #16
     274:	42a2      	cmp	r2, r4
     276:	d94e      	bls.n	316 <CONFIG_MCUBOOT_LOG_THREAD_STACK_SIZE+0x16>
     278:	192c      	adds	r4, r5, r4
     27a:	f10c 33ff 	add.w	r3, ip, #4294967295
     27e:	d204      	bcs.n	28a <CONFIG_PM_PARTITION_SIZE_PROVISION+0xa>
     280:	42a2      	cmp	r2, r4
     282:	d902      	bls.n	28a <CONFIG_PM_PARTITION_SIZE_PROVISION+0xa>
     284:	f1ac 0302 	sub.w	r3, ip, #2
     288:	442c      	add	r4, r5
     28a:	1aa4      	subs	r4, r4, r2
     28c:	e7bd      	b.n	20a <CONFIG_PM_PARTITION_SIZE_MCUBOOT_PAD+0xa>
     28e:	f1c7 0c20 	rsb	ip, r7, #32
     292:	40bd      	lsls	r5, r7
     294:	fa08 f307 	lsl.w	r3, r8, r7
     298:	40bc      	lsls	r4, r7
     29a:	fa28 f90c 	lsr.w	r9, r8, ip
     29e:	ea4f 4e15 	mov.w	lr, r5, lsr #16
     2a2:	fa20 fc0c 	lsr.w	ip, r0, ip
     2a6:	ea4c 0203 	orr.w	r2, ip, r3
     2aa:	b2ab      	uxth	r3, r5
     2ac:	fbb9 fcfe 	udiv	ip, r9, lr
     2b0:	0c11      	lsrs	r1, r2, #16
     2b2:	fb0e 901c 	mls	r0, lr, ip, r9
     2b6:	fb0c f803 	mul.w	r8, ip, r3
     2ba:	ea41 4000 	orr.w	r0, r1, r0, lsl #16
     2be:	4580      	cmp	r8, r0
     2c0:	d923      	bls.n	30a <CONFIG_MCUBOOT_LOG_THREAD_STACK_SIZE+0xa>
     2c2:	1828      	adds	r0, r5, r0
     2c4:	f10c 31ff 	add.w	r1, ip, #4294967295
     2c8:	d204      	bcs.n	2d4 <CONFIG_PM_PARTITION_SIZE_PROVISION+0x54>
     2ca:	4580      	cmp	r8, r0
     2cc:	d902      	bls.n	2d4 <CONFIG_PM_PARTITION_SIZE_PROVISION+0x54>
     2ce:	f1ac 0102 	sub.w	r1, ip, #2
     2d2:	4428      	add	r0, r5
     2d4:	eba0 0008 	sub.w	r0, r0, r8
     2d8:	b292      	uxth	r2, r2
     2da:	fbb0 fcfe 	udiv	ip, r0, lr
     2de:	fb0e 001c 	mls	r0, lr, ip, r0
     2e2:	fb0c f803 	mul.w	r8, ip, r3
     2e6:	ea42 4300 	orr.w	r3, r2, r0, lsl #16
     2ea:	4598      	cmp	r8, r3
     2ec:	d90f      	bls.n	30e <CONFIG_MCUBOOT_LOG_THREAD_STACK_SIZE+0xe>
     2ee:	18eb      	adds	r3, r5, r3
     2f0:	f10c 32ff 	add.w	r2, ip, #4294967295
     2f4:	d204      	bcs.n	300 <CONFIG_MCUBOOT_LOG_THREAD_STACK_SIZE>
     2f6:	4598      	cmp	r8, r3
     2f8:	d902      	bls.n	300 <CONFIG_MCUBOOT_LOG_THREAD_STACK_SIZE>
     2fa:	f1ac 0202 	sub.w	r2, ip, #2
     2fe:	442b      	add	r3, r5
     300:	eba3 0308 	sub.w	r3, r3, r8
     304:	ea42 4101 	orr.w	r1, r2, r1, lsl #16
     308:	e792      	b.n	230 <CONFIG_PM_PARTITION_SIZE_MCUBOOT_PAD+0x30>
     30a:	4661      	mov	r1, ip
     30c:	e7e2      	b.n	2d4 <CONFIG_PM_PARTITION_SIZE_PROVISION+0x54>
     30e:	4662      	mov	r2, ip
     310:	e7f6      	b.n	300 <CONFIG_MCUBOOT_LOG_THREAD_STACK_SIZE>
     312:	4660      	mov	r0, ip
     314:	e7a3      	b.n	25e <CONFIG_PM_PARTITION_SIZE_MCUBOOT_PAD+0x5e>
     316:	4663      	mov	r3, ip
     318:	e7b7      	b.n	28a <CONFIG_PM_PARTITION_SIZE_PROVISION+0xa>
     31a:	4543      	cmp	r3, r8
     31c:	d905      	bls.n	32a <CONFIG_MCUBOOT_LOG_THREAD_STACK_SIZE+0x2a>
     31e:	b10e      	cbz	r6, 324 <CONFIG_MCUBOOT_LOG_THREAD_STACK_SIZE+0x24>
     320:	e9c6 0800 	strd	r0, r8, [r6]
     324:	2100      	movs	r1, #0
     326:	4608      	mov	r0, r1
     328:	e776      	b.n	218 <CONFIG_PM_PARTITION_SIZE_MCUBOOT_PAD+0x18>
     32a:	fab3 fc83 	clz	ip, r3
     32e:	f1bc 0f00 	cmp.w	ip, #0
     332:	d110      	bne.n	356 <CONFIG_MCUBOOT_LOG_THREAD_STACK_SIZE+0x56>
     334:	4543      	cmp	r3, r8
     336:	d301      	bcc.n	33c <CONFIG_MCUBOOT_LOG_THREAD_STACK_SIZE+0x3c>
     338:	4282      	cmp	r2, r0
     33a:	d80a      	bhi.n	352 <CONFIG_MCUBOOT_LOG_THREAD_STACK_SIZE+0x52>
     33c:	1a84      	subs	r4, r0, r2
     33e:	eb68 0303 	sbc.w	r3, r8, r3
     342:	2001      	movs	r0, #1
     344:	469e      	mov	lr, r3
     346:	2e00      	cmp	r6, #0
     348:	d068      	beq.n	41c <CONFIG_FLASH_SIZE+0x1c>
     34a:	e9c6 4e00 	strd	r4, lr, [r6]
     34e:	2100      	movs	r1, #0
     350:	e762      	b.n	218 <CONFIG_PM_PARTITION_SIZE_MCUBOOT_PAD+0x18>
     352:	4660      	mov	r0, ip
     354:	e7f7      	b.n	346 <CONFIG_MCUBOOT_LOG_THREAD_STACK_SIZE+0x46>
     356:	f1cc 0e20 	rsb	lr, ip, #32
     35a:	fa03 f30c 	lsl.w	r3, r3, ip
     35e:	fa02 f50c 	lsl.w	r5, r2, ip
     362:	fa00 f70c 	lsl.w	r7, r0, ip
     366:	fa22 f40e 	lsr.w	r4, r2, lr
     36a:	fa28 fb0e 	lsr.w	fp, r8, lr
     36e:	fa20 f10e 	lsr.w	r1, r0, lr
     372:	431c      	orrs	r4, r3
     374:	fa08 f30c 	lsl.w	r3, r8, ip
     378:	ea4f 4914 	mov.w	r9, r4, lsr #16
     37c:	4319      	orrs	r1, r3
     37e:	b2a3      	uxth	r3, r4
     380:	0c0a      	lsrs	r2, r1, #16
     382:	fbbb f8f9 	udiv	r8, fp, r9
     386:	fb09 bb18 	mls	fp, r9, r8, fp
     38a:	fb08 fa03 	mul.w	sl, r8, r3
     38e:	ea42 420b 	orr.w	r2, r2, fp, lsl #16
     392:	4592      	cmp	sl, r2
     394:	d93e      	bls.n	414 <CONFIG_FLASH_SIZE+0x14>
     396:	18a2      	adds	r2, r4, r2
     398:	f108 30ff 	add.w	r0, r8, #4294967295
     39c:	d204      	bcs.n	3a8 <CONFIG_MCUBOOT_LOG_THREAD_STACK_SIZE+0xa8>
     39e:	4592      	cmp	sl, r2
     3a0:	d902      	bls.n	3a8 <CONFIG_MCUBOOT_LOG_THREAD_STACK_SIZE+0xa8>
     3a2:	f1a8 0002 	sub.w	r0, r8, #2
     3a6:	4422      	add	r2, r4
     3a8:	eba2 020a 	sub.w	r2, r2, sl
     3ac:	b289      	uxth	r1, r1
     3ae:	fbb2 f8f9 	udiv	r8, r2, r9
     3b2:	fb09 2218 	mls	r2, r9, r8, r2
     3b6:	fb08 f303 	mul.w	r3, r8, r3
     3ba:	ea41 4202 	orr.w	r2, r1, r2, lsl #16
     3be:	4293      	cmp	r3, r2
     3c0:	d92a      	bls.n	418 <CONFIG_FLASH_SIZE+0x18>
     3c2:	18a2      	adds	r2, r4, r2
     3c4:	f108 31ff 	add.w	r1, r8, #4294967295
     3c8:	d204      	bcs.n	3d4 <CONFIG_MCUBOOT_LOG_THREAD_STACK_SIZE+0xd4>
     3ca:	4293      	cmp	r3, r2
     3cc:	d902      	bls.n	3d4 <CONFIG_MCUBOOT_LOG_THREAD_STACK_SIZE+0xd4>
     3ce:	f1a8 0102 	sub.w	r1, r8, #2
     3d2:	4422      	add	r2, r4
     3d4:	ea41 4000 	orr.w	r0, r1, r0, lsl #16
     3d8:	1ad2      	subs	r2, r2, r3
     3da:	fba0 9805 	umull	r9, r8, r0, r5
     3de:	4542      	cmp	r2, r8
     3e0:	464b      	mov	r3, r9
     3e2:	4641      	mov	r1, r8
     3e4:	d302      	bcc.n	3ec <CONFIG_MCUBOOT_LOG_THREAD_STACK_SIZE+0xec>
     3e6:	d106      	bne.n	3f6 <CONFIG_MCUBOOT_LOG_THREAD_STACK_SIZE+0xf6>
     3e8:	454f      	cmp	r7, r9
     3ea:	d204      	bcs.n	3f6 <CONFIG_MCUBOOT_LOG_THREAD_STACK_SIZE+0xf6>
     3ec:	3801      	subs	r0, #1
     3ee:	ebb9 0305 	subs.w	r3, r9, r5
     3f2:	eb68 0104 	sbc.w	r1, r8, r4
     3f6:	b18e      	cbz	r6, 41c <CONFIG_FLASH_SIZE+0x1c>
     3f8:	1afc      	subs	r4, r7, r3
     3fa:	eb62 0701 	sbc.w	r7, r2, r1
     3fe:	fa07 fe0e 	lsl.w	lr, r7, lr
     402:	fa24 f30c 	lsr.w	r3, r4, ip
     406:	fa27 f70c 	lsr.w	r7, r7, ip
     40a:	ea4e 0303 	orr.w	r3, lr, r3
     40e:	e9c6 3700 	strd	r3, r7, [r6]
     412:	e79c      	b.n	34e <CONFIG_MCUBOOT_LOG_THREAD_STACK_SIZE+0x4e>
     414:	4640      	mov	r0, r8
     416:	e7c7      	b.n	3a8 <CONFIG_MCUBOOT_LOG_THREAD_STACK_SIZE+0xa8>
     418:	4641      	mov	r1, r8
     41a:	e7db      	b.n	3d4 <CONFIG_MCUBOOT_LOG_THREAD_STACK_SIZE+0xd4>
     41c:	4631      	mov	r1, r6
     41e:	e6fb      	b.n	218 <CONFIG_PM_PARTITION_SIZE_MCUBOOT_PAD+0x18>

00000420 <main>:
    return detect_value == expected;
}
#endif

void main(void)
{
     420:	b5f0      	push	{r4, r5, r6, r7, lr}
}

NRF_STATIC_INLINE void nrf_wdt_reload_request_set(NRF_WDT_Type *        p_reg,
                                                  nrf_wdt_rr_register_t rr_register)
{
    p_reg->RR[rr_register] = NRF_WDT_RR_VALUE;
     422:	4b34      	ldr	r3, [pc, #208]	; (4f4 <CONFIG_NRF_MODEM_SHMEM_CTRL_SIZE+0xc>)
     424:	4a34      	ldr	r2, [pc, #208]	; (4f8 <CONFIG_NRF_MODEM_SHMEM_CTRL_SIZE+0x10>)
    fih_int fih_rc = FIH_FAILURE;

    MCUBOOT_WATCHDOG_FEED();

#if !defined(MCUBOOT_DIRECT_XIP)
    BOOT_LOG_INF("Starting bootloader");
     426:	4835      	ldr	r0, [pc, #212]	; (4fc <CONFIG_NRF_MODEM_SHMEM_CTRL_SIZE+0x14>)
     428:	f8c3 2600 	str.w	r2, [r3, #1536]	; 0x600
{
     42c:	b085      	sub	sp, #20
     42e:	f8c3 2604 	str.w	r2, [r3, #1540]	; 0x604
    BOOT_LOG_INF("Starting bootloader");
     432:	2149      	movs	r1, #73	; 0x49
     434:	f8c3 2608 	str.w	r2, [r3, #1544]	; 0x608
     438:	f8c3 260c 	str.w	r2, [r3, #1548]	; 0x60c
     43c:	f8c3 2610 	str.w	r2, [r3, #1552]	; 0x610
     440:	f8c3 2614 	str.w	r2, [r3, #1556]	; 0x614
     444:	f8c3 2618 	str.w	r2, [r3, #1560]	; 0x618
     448:	f8c3 261c 	str.w	r2, [r3, #1564]	; 0x61c
     44c:	f005 fe66 	bl	611c <z_log_minimal_printk>
#ifdef CONFIG_MCUBOOT_INDICATION_LED
    /* LED init */
    led_init();
#endif

    os_heap_init();
     450:	f005 fa1d 	bl	588e <os_heap_init>
    ZEPHYR_BOOT_LOG_START();

    (void)rc;

#if (!defined(CONFIG_XTENSA) && DT_HAS_CHOSEN(zephyr_flash_controller))
    if (!flash_device_get_binding(DT_LABEL(DT_CHOSEN(zephyr_flash_controller)))) {
     454:	482a      	ldr	r0, [pc, #168]	; (500 <CONFIG_NRF_MODEM_SHMEM_CTRL_SIZE+0x18>)
     456:	f000 f863 	bl	520 <flash_device_get_binding>
     45a:	b928      	cbnz	r0, 468 <FIH_LABEL_FIH_CALL_START_260>
        BOOT_LOG_ERR("Flash device %s not found",
     45c:	2145      	movs	r1, #69	; 0x45
     45e:	4a28      	ldr	r2, [pc, #160]	; (500 <CONFIG_NRF_MODEM_SHMEM_CTRL_SIZE+0x18>)
     460:	4828      	ldr	r0, [pc, #160]	; (504 <CONFIG_NRF_MODEM_SHMEM_CTRL_SIZE+0x1c>)
     462:	f005 fe5b 	bl	611c <z_log_minimal_printk>
		     DT_LABEL(DT_CHOSEN(zephyr_flash_controller)));
        while (1)
     466:	e7fe      	b.n	466 <main+0x46>

00000468 <FIH_LABEL_FIH_CALL_START_260>:
    rc = boot_console_init();
    int timeout_in_ms = CONFIG_BOOT_SERIAL_WAIT_FOR_DFU_TIMEOUT;
    uint32_t start = k_uptime_get_32();
#endif

    FIH_CALL(boot_go, fih_rc, &rsp);
     468:	a801      	add	r0, sp, #4
     46a:	f000 fc71 	bl	d50 <boot_go>

0000046e <FIH_LABEL_FIH_CALL_END_273>:
        timeout_in_ms = 1;
    }
   boot_serial_check_start(&boot_funcs,timeout_in_ms);
#endif

    if (fih_not_eq(fih_rc, FIH_SUCCESS)) {
     46e:	4b26      	ldr	r3, [pc, #152]	; (508 <CONFIG_NRF_MODEM_SHMEM_CTRL_SIZE+0x20>)
     470:	681b      	ldr	r3, [r3, #0]
     472:	4283      	cmp	r3, r0
     474:	d004      	beq.n	480 <FIH_LABEL_FIH_CALL_END_273+0x12>
        BOOT_LOG_ERR("Unable to find bootable image");
     476:	2145      	movs	r1, #69	; 0x45
     478:	4824      	ldr	r0, [pc, #144]	; (50c <CONFIG_NRF_MODEM_SHMEM_CTRL_SIZE+0x24>)
     47a:	f005 fe4f 	bl	611c <z_log_minimal_printk>
        FIH_PANIC;
     47e:	e7fe      	b.n	47e <FIH_LABEL_FIH_CALL_END_273+0x10>
    }

    BOOT_LOG_INF("Bootloader chainload address offset: 0x%x",
     480:	9a03      	ldr	r2, [sp, #12]
     482:	2149      	movs	r1, #73	; 0x49
     484:	4822      	ldr	r0, [pc, #136]	; (510 <CONFIG_NRF_MODEM_SHMEM_CTRL_SIZE+0x28>)
     486:	f005 fe49 	bl	611c <z_log_minimal_printk>
                 rsp.br_image_off);

#if defined(MCUBOOT_DIRECT_XIP)
    BOOT_LOG_INF("Jumping to the image slot");
#else
    BOOT_LOG_INF("Jumping to the first image slot");
     48a:	2149      	movs	r1, #73	; 0x49
     48c:	4821      	ldr	r0, [pc, #132]	; (514 <CONFIG_NRF_MODEM_SHMEM_CTRL_SIZE+0x2c>)
     48e:	f005 fe45 	bl	611c <z_log_minimal_printk>
/* There is only one instance of MCUBoot */
#define PROTECT_SIZE (PM_MCUBOOT_PRIMARY_ADDRESS - PM_MCUBOOT_ADDRESS)
#define PROTECT_ADDR PM_MCUBOOT_ADDRESS
#endif

    rc = fprotect_area(PROTECT_ADDR, PROTECT_SIZE);
     492:	f44f 3180 	mov.w	r1, #65536	; 0x10000
     496:	2000      	movs	r0, #0
     498:	f002 fea8 	bl	31ec <fprotect_area>

    if (rc != 0) {
     49c:	4604      	mov	r4, r0
     49e:	b120      	cbz	r0, 4aa <FIH_LABEL_FIH_CALL_END_273+0x3c>
        BOOT_LOG_ERR("Protect mcuboot flash failed, cancel startup.");
     4a0:	2145      	movs	r1, #69	; 0x45
     4a2:	481d      	ldr	r0, [pc, #116]	; (518 <CONFIG_NRF_MODEM_SHMEM_CTRL_SIZE+0x30>)
     4a4:	f005 fe3a 	bl	611c <z_log_minimal_printk>
        while (1)
     4a8:	e7fe      	b.n	4a8 <FIH_LABEL_FIH_CALL_END_273+0x3a>
    rc = flash_device_base(rsp->br_flash_dev_id, &flash_base);
     4aa:	4669      	mov	r1, sp
     4ac:	f89d 0008 	ldrb.w	r0, [sp, #8]
     4b0:	f000 f842 	bl	538 <flash_device_base>
    vt = (struct arm_vector_table *)(flash_base +
     4b4:	9b00      	ldr	r3, [sp, #0]
     4b6:	9d03      	ldr	r5, [sp, #12]
     4b8:	441d      	add	r5, r3
                                     rsp->br_hdr->ih_hdr_size);
     4ba:	9b01      	ldr	r3, [sp, #4]
     4bc:	891e      	ldrh	r6, [r3, #8]
    nrf_cleanup_peripheral();
     4be:	f000 ff5b 	bl	1378 <nrf_cleanup_peripheral>
                                     rsp->br_image_off +
     4c2:	19af      	adds	r7, r5, r6
    cleanup_arm_nvic(); /* cleanup NVIC registers */
     4c4:	f000 ff3c 	bl	1340 <cleanup_arm_nvic>
    z_arm_clear_arm_mpu_config();
     4c8:	f001 fe80 	bl	21cc <z_arm_clear_arm_mpu_config>
#if (!(defined (__ARM_ARCH_8M_MAIN__ ) && (__ARM_ARCH_8M_MAIN__ == 1)) && \
    (!defined (__ARM_FEATURE_CMSE) || (__ARM_FEATURE_CMSE < 3)))
  // without main extensions, the non-secure PSPLIM is RAZ/WI
  (void)ProcStackPtrLimit;
#else
  __ASM volatile ("MSR psplim, %0" : : "r" (ProcStackPtrLimit));
     4cc:	f384 880b 	msr	PSPLIM, r4
#if (!(defined (__ARM_ARCH_8M_MAIN__ ) && (__ARM_ARCH_8M_MAIN__ == 1)) && \
    (!defined (__ARM_FEATURE_CMSE) || (__ARM_FEATURE_CMSE < 3)))
  // without main extensions, the non-secure MSPLIM is RAZ/WI
  (void)MainStackPtrLimit;
#else
  __ASM volatile ("MSR msplim, %0" : : "r" (MainStackPtrLimit));
     4d0:	f384 880a 	msr	MSPLIM, r4
  __ASM volatile ("MSR msp, %0" : : "r" (topOfMainStack) : );
     4d4:	59ab      	ldr	r3, [r5, r6]
     4d6:	f383 8808 	msr	MSP, r3
  __ASM volatile ("MSR control, %0" : : "r" (control) : "memory");
     4da:	f384 8814 	msr	CONTROL, r4
  __ASM volatile ("isb 0xF":::"memory");
     4de:	f3bf 8f6f 	isb	sy
     4e2:	f3bf 8f6f 	isb	sy
    ((void (*)(void))vt->reset)();
     4e6:	687b      	ldr	r3, [r7, #4]
     4e8:	4798      	blx	r3

    ZEPHYR_BOOT_LOG_STOP();

    do_boot(&rsp);

    BOOT_LOG_ERR("Never should get here");
     4ea:	2145      	movs	r1, #69	; 0x45
     4ec:	480b      	ldr	r0, [pc, #44]	; (51c <CONFIG_NRF_MODEM_SHMEM_CTRL_SIZE+0x34>)
     4ee:	f005 fe15 	bl	611c <z_log_minimal_printk>
    while (1)
     4f2:	e7fe      	b.n	4f2 <CONFIG_NRF_MODEM_SHMEM_CTRL_SIZE+0xa>
     4f4:	50018000 	.word	0x50018000
     4f8:	6e524635 	.word	0x6e524635
     4fc:	00007088 	.word	0x00007088
     500:	000070a1 	.word	0x000070a1
     504:	000070b4 	.word	0x000070b4
     508:	200146b4 	.word	0x200146b4
     50c:	000070d3 	.word	0x000070d3
     510:	000070f6 	.word	0x000070f6
     514:	00007125 	.word	0x00007125
     518:	0000714a 	.word	0x0000714a
     51c:	0000717d 	.word	0x0000717d

00000520 <flash_device_get_binding>:
#endif

static const struct device *flash_dev;

const struct device *flash_device_get_binding(char *dev_name)
{
     520:	b510      	push	{r4, lr}
    if (!flash_dev) {
     522:	4c04      	ldr	r4, [pc, #16]	; (534 <flash_device_get_binding+0x14>)
     524:	6823      	ldr	r3, [r4, #0]
     526:	b913      	cbnz	r3, 52e <flash_device_get_binding+0xe>
		union { uintptr_t x; const char * val; } parm0 = { .val = name };
		return (const struct device *) arch_syscall_invoke1(parm0.x, K_SYSCALL_DEVICE_GET_BINDING);
	}
#endif
	compiler_barrier();
	return z_impl_device_get_binding(name);
     528:	f003 fc6c 	bl	3e04 <z_impl_device_get_binding>
        flash_dev = device_get_binding(dev_name);
     52c:	6020      	str	r0, [r4, #0]
    }
    return flash_dev;
}
     52e:	6820      	ldr	r0, [r4, #0]
     530:	bd10      	pop	{r4, pc}
     532:	bf00      	nop
     534:	200146b0 	.word	0x200146b0

00000538 <flash_device_base>:

int flash_device_base(uint8_t fd_id, uintptr_t *ret)
{
     538:	b508      	push	{r3, lr}
    if (fd_id != FLASH_DEVICE_ID) {
     53a:	b140      	cbz	r0, 54e <flash_device_base+0x16>
        BOOT_LOG_ERR("invalid flash ID %d; expected %d",
     53c:	4602      	mov	r2, r0
     53e:	2300      	movs	r3, #0
     540:	4804      	ldr	r0, [pc, #16]	; (554 <flash_device_base+0x1c>)
     542:	2145      	movs	r1, #69	; 0x45
     544:	f005 fdea 	bl	611c <z_log_minimal_printk>
                     fd_id, FLASH_DEVICE_ID);
        return -EINVAL;
     548:	f06f 0015 	mvn.w	r0, #21
    }
    *ret = FLASH_DEVICE_BASE;
    return 0;
}
     54c:	bd08      	pop	{r3, pc}
    *ret = FLASH_DEVICE_BASE;
     54e:	6008      	str	r0, [r1, #0]
    return 0;
     550:	e7fc      	b.n	54c <flash_device_base+0x14>
     552:	bf00      	nop
     554:	000071a0 	.word	0x000071a0

00000558 <bootutil_img_validate>:
fih_int
bootutil_img_validate(struct enc_key_data *enc_state, int image_index,
                      struct image_header *hdr, const struct flash_area *fap,
                      uint8_t *tmp_buf, uint32_t tmp_buf_sz, uint8_t *seed,
                      int seed_len, uint8_t *out_hash)
{
     558:	e92d 4ff0 	stmdb	sp!, {r4, r5, r6, r7, r8, r9, sl, fp, lr}
     55c:	461d      	mov	r5, r3
    uint32_t off;
    uint16_t len;
    uint16_t type;
    int sha256_valid = 0;
#ifdef EXPECTED_SIG_TLV
    fih_int valid_signature = FIH_FAILURE;
     55e:	4b83      	ldr	r3, [pc, #524]	; (76c <FIH_LABEL_FIH_CALL_END_936+0x26>)
{
     560:	b0db      	sub	sp, #364	; 0x16c
     562:	4617      	mov	r7, r2
     564:	e9dd 4866 	ldrd	r4, r8, [sp, #408]	; 0x198
    fih_int valid_signature = FIH_FAILURE;
     568:	681e      	ldr	r6, [r3, #0]
{
     56a:	f8dd b190 	ldr.w	fp, [sp, #400]	; 0x190
}

/* Enable and disable cc310 to reduce power consumption */
static inline void cc310_sha256_init(nrf_cc310_bl_hash_context_sha256_t * ctx)
{
    cc310_init();
     56e:	f000 feb5 	bl	12dc <cc310_init>
    NRF_CRYPTOCELL->ENABLE=1;
     572:	2201      	movs	r2, #1
     574:	4b7e      	ldr	r3, [pc, #504]	; (770 <FIH_LABEL_FIH_CALL_END_936+0x2a>)
    nrf_cc310_enable();
    nrf_cc310_bl_hash_sha256_init(ctx);
     576:	a83a      	add	r0, sp, #232	; 0xe8
    NRF_CRYPTOCELL->ENABLE=1;
     578:	f8c3 2500 	str.w	r2, [r3, #1280]	; 0x500
    nrf_cc310_bl_hash_sha256_init(ctx);
     57c:	f004 f8b6 	bl	46ec <nrf_cc310_bl_hash_sha256_init>
    if (seed && (seed_len > 0)) {
     580:	b13c      	cbz	r4, 592 <bootutil_img_validate+0x3a>
     582:	f1b8 0f00 	cmp.w	r8, #0
     586:	dd04      	ble.n	592 <bootutil_img_validate+0x3a>

static inline int bootutil_sha256_update(bootutil_sha256_context *ctx,
                                          const void *data,
                                          uint32_t data_len)
{
    cc310_sha256_update(ctx, data, data_len);
     588:	4642      	mov	r2, r8
     58a:	4621      	mov	r1, r4
     58c:	a83a      	add	r0, sp, #232	; 0xe8
     58e:	f005 fcd1 	bl	5f34 <cc310_sha256_update>
    for (off = 0; off < size; off += blk_sz) {
     592:	f04f 0900 	mov.w	r9, #0
    size += hdr->ih_protect_tlv_size;
     596:	897b      	ldrh	r3, [r7, #10]
    size = hdr_size = hdr->ih_hdr_size;
     598:	f8b7 8008 	ldrh.w	r8, [r7, #8]
     59c:	4498      	add	r8, r3
    size += hdr->ih_protect_tlv_size;
     59e:	68fb      	ldr	r3, [r7, #12]
     5a0:	4498      	add	r8, r3
    for (off = 0; off < size; off += blk_sz) {
     5a2:	45c8      	cmp	r8, r9
     5a4:	d84e      	bhi.n	644 <FIH_LABEL_FIH_CALL_END_388+0xe>
}

static inline void cc310_sha256_finalize(bootutil_sha256_context *ctx,
                                          uint8_t *output)
{
    nrf_cc310_bl_hash_sha256_finalize(ctx,
     5a6:	a90d      	add	r1, sp, #52	; 0x34
     5a8:	a83a      	add	r0, sp, #232	; 0xe8
     5aa:	f004 f911 	bl	47d0 <nrf_cc310_bl_hash_sha256_finalize>
    NRF_CRYPTOCELL->ENABLE=0;
     5ae:	2200      	movs	r2, #0
     5b0:	4b6f      	ldr	r3, [pc, #444]	; (770 <FIH_LABEL_FIH_CALL_END_936+0x2a>)
     5b2:	f8c3 2500 	str.w	r2, [r3, #1280]	; 0x500
     5b6:	f8c3 2500 	str.w	r2, [r3, #1280]	; 0x500
            tmp_buf_sz, hash, seed, seed_len);
    if (rc) {
        goto out;
    }

    if (out_hash) {
     5ba:	9b68      	ldr	r3, [sp, #416]	; 0x1a0
     5bc:	b123      	cbz	r3, 5c8 <bootutil_img_validate+0x70>
        memcpy(out_hash, hash, 32);
     5be:	2220      	movs	r2, #32
     5c0:	4618      	mov	r0, r3
     5c2:	a90d      	add	r1, sp, #52	; 0x34
     5c4:	f005 fe6f 	bl	62a6 <memcpy>
    }

    rc = bootutil_tlv_iter_begin(&it, hdr, fap, IMAGE_TLV_ANY, false);
     5c8:	2300      	movs	r3, #0
     5ca:	462a      	mov	r2, r5
     5cc:	9300      	str	r3, [sp, #0]
     5ce:	4639      	mov	r1, r7
     5d0:	f64f 73ff 	movw	r3, #65535	; 0xffff
     5d4:	a807      	add	r0, sp, #28
     5d6:	f005 f95b 	bl	5890 <bootutil_tlv_iter_begin>
    if (rc) {
     5da:	4604      	mov	r4, r0
     5dc:	2800      	cmp	r0, #0
     5de:	d144      	bne.n	66a <FIH_LABEL_FIH_CALL_END_388+0x34>
    int key_id = -1;
     5e0:	f04f 37ff 	mov.w	r7, #4294967295
             * can be multiple signatures, each preceded by a key.
             */
#endif /* !MCUBOOT_HW_KEY */
        } else if (type == EXPECTED_SIG_TLV) {
            /* Ignore this signature if it is out of bounds. */
            if (key_id < 0 || key_id >= bootutil_key_cnt) {
     5e4:	f8df a194 	ldr.w	sl, [pc, #404]	; 77c <FIH_LABEL_FIH_CALL_END_936+0x36>
     5e8:	f8df 8184 	ldr.w	r8, [pc, #388]	; 770 <FIH_LABEL_FIH_CALL_END_936+0x2a>
    int sha256_valid = 0;
     5ec:	9002      	str	r0, [sp, #8]
        rc = bootutil_tlv_iter_next(&it, &off, &len, &type);
     5ee:	f10d 0316 	add.w	r3, sp, #22
     5f2:	aa05      	add	r2, sp, #20
     5f4:	a906      	add	r1, sp, #24
     5f6:	a807      	add	r0, sp, #28
     5f8:	f005 f996 	bl	5928 <bootutil_tlv_iter_next>
        if (rc < 0) {
     5fc:	1e04      	subs	r4, r0, #0
     5fe:	db34      	blt.n	66a <FIH_LABEL_FIH_CALL_END_388+0x34>
        } else if (rc > 0) {
     600:	f040 80a4 	bne.w	74c <FIH_LABEL_FIH_CALL_END_936+0x6>
        if (type == IMAGE_TLV_SHA256) {
     604:	f8bd 9016 	ldrh.w	r9, [sp, #22]
     608:	f1b9 0f10 	cmp.w	r9, #16
     60c:	d138      	bne.n	680 <FIH_LABEL_FIH_CALL_END_388+0x4a>
            if (len != sizeof(hash)) {
     60e:	f8bd 9014 	ldrh.w	r9, [sp, #20]
     612:	f1b9 0f20 	cmp.w	r9, #32
     616:	f040 80a3 	bne.w	760 <FIH_LABEL_FIH_CALL_END_936+0x1a>
            rc = LOAD_IMAGE_DATA(hdr, fap, off, buf, sizeof(hash));
     61a:	464b      	mov	r3, r9
     61c:	4628      	mov	r0, r5
     61e:	9906      	ldr	r1, [sp, #24]
     620:	aa3a      	add	r2, sp, #232	; 0xe8
     622:	f005 fd89 	bl	6138 <flash_area_read>
            if (rc) {
     626:	4604      	mov	r4, r0
     628:	b9f8      	cbnz	r0, 66a <FIH_LABEL_FIH_CALL_END_388+0x34>

0000062a <FIH_LABEL_FIH_CALL_START_369>:
            FIH_CALL(boot_fih_memequal, fih_rc, hash, buf, sizeof(hash));
     62a:	464a      	mov	r2, r9
     62c:	a93a      	add	r1, sp, #232	; 0xe8
     62e:	a80d      	add	r0, sp, #52	; 0x34
     630:	f005 f9f1 	bl	5a16 <boot_fih_memequal>
     634:	4604      	mov	r4, r0

00000636 <FIH_LABEL_FIH_CALL_END_388>:
            if (fih_not_eq(fih_rc, FIH_SUCCESS)) {
     636:	4b4f      	ldr	r3, [pc, #316]	; (774 <FIH_LABEL_FIH_CALL_END_936+0x2e>)
     638:	681b      	ldr	r3, [r3, #0]
     63a:	4283      	cmp	r3, r0
     63c:	d115      	bne.n	66a <FIH_LABEL_FIH_CALL_END_388+0x34>
            sha256_valid = 1;
     63e:	2301      	movs	r3, #1
     640:	9302      	str	r3, [sp, #8]
     642:	e7d4      	b.n	5ee <bootutil_img_validate+0x96>
        blk_sz = size - off;
     644:	9a65      	ldr	r2, [sp, #404]	; 0x194
     646:	eba8 0309 	sub.w	r3, r8, r9
        if (blk_sz > tmp_buf_sz) {
     64a:	429a      	cmp	r2, r3
     64c:	bf28      	it	cs
     64e:	461a      	movcs	r2, r3
        rc = flash_area_read(fap, off, tmp_buf, blk_sz);
     650:	4649      	mov	r1, r9
     652:	4613      	mov	r3, r2
     654:	4692      	mov	sl, r2
     656:	4628      	mov	r0, r5
     658:	465a      	mov	r2, fp
     65a:	f005 fd6d 	bl	6138 <flash_area_read>
        if (rc) {
     65e:	4604      	mov	r4, r0
     660:	b138      	cbz	r0, 672 <FIH_LABEL_FIH_CALL_END_388+0x3c>
     662:	2200      	movs	r2, #0
     664:	4b42      	ldr	r3, [pc, #264]	; (770 <FIH_LABEL_FIH_CALL_END_936+0x2a>)
     666:	f8c3 2500 	str.w	r2, [r3, #1280]	; 0x500
    if (rc) {
        fih_rc = fih_int_encode(rc);
    }

    FIH_RET(fih_rc);
}
     66a:	4620      	mov	r0, r4
     66c:	b05b      	add	sp, #364	; 0x16c
     66e:	e8bd 8ff0 	ldmia.w	sp!, {r4, r5, r6, r7, r8, r9, sl, fp, pc}
     672:	4652      	mov	r2, sl
     674:	4659      	mov	r1, fp
     676:	a83a      	add	r0, sp, #232	; 0xe8
     678:	f005 fc5c 	bl	5f34 <cc310_sha256_update>
    for (off = 0; off < size; off += blk_sz) {
     67c:	44d1      	add	r9, sl
     67e:	e790      	b.n	5a2 <bootutil_img_validate+0x4a>
        } else if (type == IMAGE_TLV_KEYHASH) {
     680:	f1b9 0f01 	cmp.w	r9, #1
     684:	d13e      	bne.n	704 <FIH_LABEL_FIH_CALL_END_388+0xce>
            if (len > 32) {
     686:	f8bd 3014 	ldrh.w	r3, [sp, #20]
     68a:	2b20      	cmp	r3, #32
     68c:	d868      	bhi.n	760 <FIH_LABEL_FIH_CALL_END_936+0x1a>
            rc = LOAD_IMAGE_DATA(hdr, fap, off, buf, len);
     68e:	4628      	mov	r0, r5
     690:	9906      	ldr	r1, [sp, #24]
     692:	aa3a      	add	r2, sp, #232	; 0xe8
     694:	f005 fd50 	bl	6138 <flash_area_read>
            if (rc) {
     698:	4604      	mov	r4, r0
     69a:	2800      	cmp	r0, #0
     69c:	d1e5      	bne.n	66a <FIH_LABEL_FIH_CALL_END_388+0x34>
            key_id = bootutil_find_key(buf, len);
     69e:	f89d b014 	ldrb.w	fp, [sp, #20]
    if (keyhash_len > 32) {
     6a2:	f1bb 0f20 	cmp.w	fp, #32
     6a6:	d809      	bhi.n	6bc <FIH_LABEL_FIH_CALL_END_388+0x86>
    for (i = 0; i < bootutil_key_cnt; i++) {
     6a8:	f8da 3000 	ldr.w	r3, [sl]
     6ac:	4f32      	ldr	r7, [pc, #200]	; (778 <FIH_LABEL_FIH_CALL_END_936+0x32>)
     6ae:	9303      	str	r3, [sp, #12]
     6b0:	9b03      	ldr	r3, [sp, #12]
     6b2:	429c      	cmp	r4, r3
     6b4:	db05      	blt.n	6c2 <FIH_LABEL_FIH_CALL_END_388+0x8c>
     6b6:	2300      	movs	r3, #0
     6b8:	f8c8 3500 	str.w	r3, [r8, #1280]	; 0x500
        return -1;
     6bc:	f04f 34ff 	mov.w	r4, #4294967295
     6c0:	e01c      	b.n	6fc <FIH_LABEL_FIH_CALL_END_388+0xc6>
    cc310_init();
     6c2:	f000 fe0b 	bl	12dc <cc310_init>
    NRF_CRYPTOCELL->ENABLE=1;
     6c6:	f8c8 9500 	str.w	r9, [r8, #1280]	; 0x500
    nrf_cc310_bl_hash_sha256_init(ctx);
     6ca:	a81d      	add	r0, sp, #116	; 0x74
     6cc:	f004 f80e 	bl	46ec <nrf_cc310_bl_hash_sha256_init>
        bootutil_sha256_update(&sha256_ctx, key->key, *key->len);
     6d0:	687a      	ldr	r2, [r7, #4]
     6d2:	a81d      	add	r0, sp, #116	; 0x74
     6d4:	6812      	ldr	r2, [r2, #0]
     6d6:	f857 1b08 	ldr.w	r1, [r7], #8
     6da:	f005 fc2b 	bl	5f34 <cc310_sha256_update>
    nrf_cc310_bl_hash_sha256_finalize(ctx,
     6de:	a915      	add	r1, sp, #84	; 0x54
     6e0:	a81d      	add	r0, sp, #116	; 0x74
     6e2:	f004 f875 	bl	47d0 <nrf_cc310_bl_hash_sha256_finalize>
    NRF_CRYPTOCELL->ENABLE=0;
     6e6:	2200      	movs	r2, #0
        if (!memcmp(hash, keyhash, keyhash_len)) {
     6e8:	a93a      	add	r1, sp, #232	; 0xe8
     6ea:	f8c8 2500 	str.w	r2, [r8, #1280]	; 0x500
     6ee:	a815      	add	r0, sp, #84	; 0x54
     6f0:	465a      	mov	r2, fp
     6f2:	f005 fdc7 	bl	6284 <memcmp>
     6f6:	b918      	cbnz	r0, 700 <FIH_LABEL_FIH_CALL_END_388+0xca>
     6f8:	f8c8 0500 	str.w	r0, [r8, #1280]	; 0x500
            key_id = bootutil_find_key(buf, len);
     6fc:	4627      	mov	r7, r4
     6fe:	e776      	b.n	5ee <bootutil_img_validate+0x96>
    for (i = 0; i < bootutil_key_cnt; i++) {
     700:	3401      	adds	r4, #1
     702:	e7d5      	b.n	6b0 <FIH_LABEL_FIH_CALL_END_388+0x7a>
        } else if (type == EXPECTED_SIG_TLV) {
     704:	f1b9 0f22 	cmp.w	r9, #34	; 0x22
     708:	f47f af71 	bne.w	5ee <bootutil_img_validate+0x96>
            if (key_id < 0 || key_id >= bootutil_key_cnt) {
     70c:	1c7b      	adds	r3, r7, #1
     70e:	f43f af6e 	beq.w	5ee <bootutil_img_validate+0x96>
     712:	f8da 3000 	ldr.w	r3, [sl]
     716:	42bb      	cmp	r3, r7
     718:	dd15      	ble.n	746 <FIH_LABEL_FIH_CALL_END_936>
            if (!EXPECTED_SIG_LEN(len) || len > sizeof(buf)) {
     71a:	f8bd 3014 	ldrh.w	r3, [sp, #20]
     71e:	2b80      	cmp	r3, #128	; 0x80
     720:	d81e      	bhi.n	760 <FIH_LABEL_FIH_CALL_END_936+0x1a>
            rc = LOAD_IMAGE_DATA(hdr, fap, off, buf, len);
     722:	4628      	mov	r0, r5
     724:	9906      	ldr	r1, [sp, #24]
     726:	aa3a      	add	r2, sp, #232	; 0xe8
     728:	f005 fd06 	bl	6138 <flash_area_read>
            if (rc) {
     72c:	4604      	mov	r4, r0
     72e:	2800      	cmp	r0, #0
     730:	d19b      	bne.n	66a <FIH_LABEL_FIH_CALL_END_388+0x34>

00000732 <FIH_LABEL_FIH_CALL_START_914>:
            FIH_CALL(bootutil_verify_sig, valid_signature, hash, sizeof(hash),
     732:	b2ff      	uxtb	r7, r7
     734:	2120      	movs	r1, #32
     736:	f8bd 3014 	ldrh.w	r3, [sp, #20]
     73a:	9700      	str	r7, [sp, #0]
     73c:	aa3a      	add	r2, sp, #232	; 0xe8
     73e:	a80d      	add	r0, sp, #52	; 0x34
     740:	f000 f81e 	bl	780 <bootutil_verify_sig>
     744:	4606      	mov	r6, r0

00000746 <FIH_LABEL_FIH_CALL_END_936>:
                key_id = -1;
     746:	f04f 37ff 	mov.w	r7, #4294967295
     74a:	e750      	b.n	5ee <bootutil_img_validate+0x96>
    if (rc) {
     74c:	9b02      	ldr	r3, [sp, #8]
     74e:	b153      	cbz	r3, 766 <FIH_LABEL_FIH_CALL_END_936+0x20>
    fih_rc = fih_int_encode_zero_equality(fih_not_eq(valid_signature,
     750:	4b08      	ldr	r3, [pc, #32]	; (774 <FIH_LABEL_FIH_CALL_END_936+0x2e>)
 * value that is not FIH_SUCCESS
 */
__attribute__((always_inline)) inline
fih_int fih_int_encode_zero_equality(int x)
{
    if (x) {
     752:	681b      	ldr	r3, [r3, #0]
     754:	42b3      	cmp	r3, r6
     756:	d001      	beq.n	75c <FIH_LABEL_FIH_CALL_END_936+0x16>
        return FIH_FAILURE;
     758:	4b04      	ldr	r3, [pc, #16]	; (76c <FIH_LABEL_FIH_CALL_END_936+0x26>)
     75a:	681e      	ldr	r6, [r3, #0]
                rc = -1;
     75c:	4634      	mov	r4, r6
     75e:	e784      	b.n	66a <FIH_LABEL_FIH_CALL_END_388+0x34>
     760:	f04f 34ff 	mov.w	r4, #4294967295
     764:	e781      	b.n	66a <FIH_LABEL_FIH_CALL_END_388+0x34>
     766:	2401      	movs	r4, #1
    FIH_RET(fih_rc);
     768:	e77f      	b.n	66a <FIH_LABEL_FIH_CALL_END_388+0x34>
     76a:	bf00      	nop
     76c:	200144e8 	.word	0x200144e8
     770:	50840000 	.word	0x50840000
     774:	200146b4 	.word	0x200146b4
     778:	00006d1c 	.word	0x00006d1c
     77c:	00006d18 	.word	0x00006d18

00000780 <bootutil_verify_sig>:
#endif /* not MCUBOOT_ECDSA_NEED_ASN1_SIG */

int
bootutil_verify_sig(uint8_t *hash, uint32_t hlen, uint8_t *sig, size_t slen,
  uint8_t key_id)
{
     780:	e92d 41f0 	stmdb	sp!, {r4, r5, r6, r7, r8, lr}
     784:	b096      	sub	sp, #88	; 0x58
     786:	4617      	mov	r7, r2
     788:	461d      	mov	r5, r3
     78a:	f89d 2070 	ldrb.w	r2, [sp, #112]	; 0x70

#ifndef MCUBOOT_ECDSA_NEED_ASN1_SIG
    uint8_t signature[2 * NUM_ECC_BYTES];
#endif

    pubkey = (uint8_t *)bootutil_keys[key_id].key;
     78e:	4b35      	ldr	r3, [pc, #212]	; (864 <CONFIG_ISR_STACK_SIZE+0x64>)
{
     790:	460e      	mov	r6, r1
    pubkey = (uint8_t *)bootutil_keys[key_id].key;
     792:	f853 1032 	ldr.w	r1, [r3, r2, lsl #3]
    end = pubkey + *bootutil_keys[key_id].len;
     796:	eb03 03c2 	add.w	r3, r3, r2, lsl #3
     79a:	685b      	ldr	r3, [r3, #4]
{
     79c:	4680      	mov	r8, r0
    end = pubkey + *bootutil_keys[key_id].len;
     79e:	6818      	ldr	r0, [r3, #0]
    pubkey = (uint8_t *)bootutil_keys[key_id].key;
     7a0:	9101      	str	r1, [sp, #4]
    if (mbedtls_asn1_get_tag(cp, end, &len,
     7a2:	2330      	movs	r3, #48	; 0x30
     7a4:	4401      	add	r1, r0
     7a6:	aa02      	add	r2, sp, #8
     7a8:	a801      	add	r0, sp, #4
     7aa:	f005 fb50 	bl	5e4e <mbedtls_asn1_get_tag>
     7ae:	b110      	cbz	r0, 7b6 <bootutil_verify_sig+0x36>
    }
    rc = mbedtls_ecdsa_read_signature(&ctx, hash, hlen, sig, slen);

#else /* CY_MBEDTLS_HW_ACCELERATION */
    if (hlen != NUM_ECC_BYTES) {
        return -1;
     7b0:	f04f 30ff 	mov.w	r0, #4294967295
     7b4:	e053      	b.n	85e <CONFIG_ISR_STACK_SIZE+0x5e>
    end = *cp + len;
     7b6:	e9dd 4301 	ldrd	r4, r3, [sp, #4]
     7ba:	441c      	add	r4, r3
    if (mbedtls_asn1_get_alg(cp, end, &alg, &param)) {
     7bc:	4621      	mov	r1, r4
     7be:	ab06      	add	r3, sp, #24
     7c0:	aa03      	add	r2, sp, #12
     7c2:	a801      	add	r0, sp, #4
     7c4:	f005 fb6b 	bl	5e9e <mbedtls_asn1_get_alg>
     7c8:	2800      	cmp	r0, #0
     7ca:	d1f1      	bne.n	7b0 <bootutil_verify_sig+0x30>
    if (alg.MBEDTLS_CONTEXT_MEMBER(len) != sizeof(ec_pubkey_oid) - 1 ||
     7cc:	9a04      	ldr	r2, [sp, #16]
     7ce:	2a07      	cmp	r2, #7
     7d0:	d1ee      	bne.n	7b0 <bootutil_verify_sig+0x30>
        memcmp(alg.MBEDTLS_CONTEXT_MEMBER(p), ec_pubkey_oid, sizeof(ec_pubkey_oid) - 1)) {
     7d2:	4925      	ldr	r1, [pc, #148]	; (868 <CONFIG_ISR_STACK_SIZE+0x68>)
     7d4:	9805      	ldr	r0, [sp, #20]
     7d6:	f005 fd55 	bl	6284 <memcmp>
    if (alg.MBEDTLS_CONTEXT_MEMBER(len) != sizeof(ec_pubkey_oid) - 1 ||
     7da:	2800      	cmp	r0, #0
     7dc:	d1e8      	bne.n	7b0 <bootutil_verify_sig+0x30>
    if (param.MBEDTLS_CONTEXT_MEMBER(len) != sizeof(ec_secp256r1_oid) - 1 ||
     7de:	9a07      	ldr	r2, [sp, #28]
     7e0:	2a08      	cmp	r2, #8
     7e2:	d1e5      	bne.n	7b0 <bootutil_verify_sig+0x30>
        memcmp(param.MBEDTLS_CONTEXT_MEMBER(p), ec_secp256r1_oid, sizeof(ec_secp256r1_oid) - 1)) {
     7e4:	4921      	ldr	r1, [pc, #132]	; (86c <CONFIG_ISR_STACK_SIZE+0x6c>)
     7e6:	9808      	ldr	r0, [sp, #32]
     7e8:	f005 fd4c 	bl	6284 <memcmp>
    if (param.MBEDTLS_CONTEXT_MEMBER(len) != sizeof(ec_secp256r1_oid) - 1 ||
     7ec:	2800      	cmp	r0, #0
     7ee:	d1df      	bne.n	7b0 <bootutil_verify_sig+0x30>
    if (mbedtls_asn1_get_bitstring_null(cp, end, &len)) {
     7f0:	4621      	mov	r1, r4
     7f2:	aa02      	add	r2, sp, #8
     7f4:	a801      	add	r0, sp, #4
     7f6:	f005 fb3e 	bl	5e76 <mbedtls_asn1_get_bitstring_null>
     7fa:	2800      	cmp	r0, #0
     7fc:	d1d8      	bne.n	7b0 <bootutil_verify_sig+0x30>
    if (*cp + len != end) {
     7fe:	e9dd 3201 	ldrd	r3, r2, [sp, #4]
     802:	4413      	add	r3, r2
     804:	429c      	cmp	r4, r3
     806:	d1d3      	bne.n	7b0 <bootutil_verify_sig+0x30>
    if (len != 2 * NUM_ECC_BYTES + 1) {
     808:	2a41      	cmp	r2, #65	; 0x41
     80a:	d1d1      	bne.n	7b0 <bootutil_verify_sig+0x30>
    rc = bootutil_decode_sig(signature, sig, sig + slen);
     80c:	443d      	add	r5, r7
    rc = mbedtls_asn1_get_tag(&cp, end, &len,
     80e:	2330      	movs	r3, #48	; 0x30
     810:	4629      	mov	r1, r5
     812:	aa03      	add	r2, sp, #12
     814:	a802      	add	r0, sp, #8
     816:	9702      	str	r7, [sp, #8]
     818:	f005 fb19 	bl	5e4e <mbedtls_asn1_get_tag>
    if (rc) {
     81c:	2800      	cmp	r0, #0
     81e:	d1c7      	bne.n	7b0 <bootutil_verify_sig+0x30>
    if (cp + len > end) {
     820:	e9dd 3202 	ldrd	r3, r2, [sp, #8]
     824:	4413      	add	r3, r2
     826:	429d      	cmp	r5, r3
     828:	d3c2      	bcc.n	7b0 <bootutil_verify_sig+0x30>
    rc = bootutil_read_bigint(signature, &cp, end);
     82a:	462a      	mov	r2, r5
     82c:	a902      	add	r1, sp, #8
     82e:	a806      	add	r0, sp, #24
     830:	f005 f8c5 	bl	59be <bootutil_read_bigint>
    if (rc) {
     834:	2800      	cmp	r0, #0
     836:	d1bb      	bne.n	7b0 <bootutil_verify_sig+0x30>
    rc = bootutil_read_bigint(signature + NUM_ECC_BYTES, &cp, end);
     838:	462a      	mov	r2, r5
     83a:	a902      	add	r1, sp, #8
     83c:	a80e      	add	r0, sp, #56	; 0x38
     83e:	f005 f8be 	bl	59be <bootutil_read_bigint>
    if (rc) {
     842:	2800      	cmp	r0, #0
     844:	d1b4      	bne.n	7b0 <bootutil_verify_sig+0x30>
    if (hlen != NUM_ECC_BYTES) {
     846:	2e20      	cmp	r6, #32
     848:	d1b2      	bne.n	7b0 <bootutil_verify_sig+0x30>

    bootutil_ecdsa_p256_init(&ctx);
#ifdef MCUBOOT_ECDSA_NEED_ASN1_SIG
    rc = bootutil_ecdsa_p256_verify(&ctx, pubkey, end - pubkey, hash, sig, slen);
#else
    rc = bootutil_ecdsa_p256_verify(&ctx, pubkey, end - pubkey, hash, signature,
     84a:	9901      	ldr	r1, [sp, #4]
    (void)ctx;
    (void)pk_len;
    (void)sig_len;

    /* Only support uncompressed keys. */
    if (pk[0] != 0x04) {
     84c:	780b      	ldrb	r3, [r1, #0]
     84e:	2b04      	cmp	r3, #4
     850:	d1ae      	bne.n	7b0 <bootutil_verify_sig+0x30>
        return -1;
    }
    pk++;

    return cc310_ecdsa_verify_secp256r1(hash, pk, sig, BOOTUTIL_CRYPTO_ECDSA_P256_HASH_SIZE);
     852:	4633      	mov	r3, r6
     854:	4640      	mov	r0, r8
     856:	aa06      	add	r2, sp, #24
     858:	3101      	adds	r1, #1
     85a:	f000 fd57 	bl	130c <cc310_ecdsa_verify_secp256r1>
#endif /* CY_MBEDTLS_HW_ACCELERATION */

    bootutil_ecdsa_p256_drop(&ctx);

    return rc;
}
     85e:	b016      	add	sp, #88	; 0x58
     860:	e8bd 81f0 	ldmia.w	sp!, {r4, r5, r6, r7, r8, pc}
     864:	00006d1c 	.word	0x00006d1c
     868:	000071c6 	.word	0x000071c6
     86c:	000071ce 	.word	0x000071ce

00000870 <boot_read_swap_size>:
    return -1;
}

int
boot_read_swap_size(int image_index, uint32_t *swap_size)
{
     870:	e92d 41f0 	stmdb	sp!, {r4, r5, r6, r7, r8, lr}
    uint8_t areas[2] = {
     874:	2303      	movs	r3, #3
{
     876:	b086      	sub	sp, #24
     878:	460d      	mov	r5, r1
     87a:	466f      	mov	r7, sp
    for (i = 0; i < sizeof(areas) / sizeof(areas[0]); i++) {
     87c:	2600      	movs	r6, #0
    if (memcmp(magic, BOOT_IMG_MAGIC, BOOT_MAGIC_SZ) == 0) {
     87e:	f8df 8068 	ldr.w	r8, [pc, #104]	; 8e8 <boot_read_swap_size+0x78>
    uint8_t areas[2] = {
     882:	f8ad 3000 	strh.w	r3, [sp]
        rc = flash_area_open(areas[i], fap);
     886:	f817 0b01 	ldrb.w	r0, [r7], #1
     88a:	a901      	add	r1, sp, #4
     88c:	f001 f91a 	bl	1ac4 <flash_area_open>
        if (rc != 0) {
     890:	4604      	mov	r4, r0
     892:	b9a0      	cbnz	r0, 8be <boot_read_swap_size+0x4e>
        off = boot_magic_off(*fap);
     894:	9801      	ldr	r0, [sp, #4]
        rc = flash_area_read(*fap, off, magic, BOOT_MAGIC_SZ);
     896:	2310      	movs	r3, #16
    return flash_area_get_size(fap) - BOOT_MAGIC_SZ;
     898:	6881      	ldr	r1, [r0, #8]
        rc = flash_area_read(*fap, off, magic, BOOT_MAGIC_SZ);
     89a:	aa02      	add	r2, sp, #8
     89c:	3910      	subs	r1, #16
     89e:	f005 fc4b 	bl	6138 <flash_area_read>
     8a2:	4604      	mov	r4, r0
        flash_area_close(*fap);
     8a4:	9801      	ldr	r0, [sp, #4]
     8a6:	f005 fc46 	bl	6136 <flash_area_close>
        if (rc != 0) {
     8aa:	b944      	cbnz	r4, 8be <boot_read_swap_size+0x4e>
    if (memcmp(magic, BOOT_IMG_MAGIC, BOOT_MAGIC_SZ) == 0) {
     8ac:	2210      	movs	r2, #16
     8ae:	4641      	mov	r1, r8
     8b0:	a802      	add	r0, sp, #8
     8b2:	f005 fce7 	bl	6284 <memcmp>
     8b6:	b140      	cbz	r0, 8ca <boot_read_swap_size+0x5a>
    for (i = 0; i < sizeof(areas) / sizeof(areas[0]); i++) {
     8b8:	b12e      	cbz	r6, 8c6 <boot_read_swap_size+0x56>
    return -1;
     8ba:	f04f 34ff 	mov.w	r4, #4294967295
        rc = flash_area_read(fap, off, swap_size, sizeof *swap_size);
        flash_area_close(fap);
    }

    return rc;
}
     8be:	4620      	mov	r0, r4
     8c0:	b006      	add	sp, #24
     8c2:	e8bd 81f0 	ldmia.w	sp!, {r4, r5, r6, r7, r8, pc}
     8c6:	2601      	movs	r6, #1
     8c8:	e7dd      	b.n	886 <boot_read_swap_size+0x16>
    return boot_swap_info_off(fap) - BOOT_MAX_ALIGN;
     8ca:	9801      	ldr	r0, [sp, #4]
     8cc:	f005 fed9 	bl	6682 <boot_swap_info_off>
        rc = flash_area_read(fap, off, swap_size, sizeof *swap_size);
     8d0:	2304      	movs	r3, #4
     8d2:	f1a0 0108 	sub.w	r1, r0, #8
     8d6:	462a      	mov	r2, r5
     8d8:	9801      	ldr	r0, [sp, #4]
     8da:	f005 fc2d 	bl	6138 <flash_area_read>
     8de:	4604      	mov	r4, r0
        flash_area_close(fap);
     8e0:	9801      	ldr	r0, [sp, #4]
     8e2:	f005 fc28 	bl	6136 <flash_area_close>
     8e6:	e7ea      	b.n	8be <boot_read_swap_size+0x4e>
     8e8:	00007078 	.word	0x00007078

000008ec <boot_validate_slot.isra.0>:
 *         FIH_SUCCESS                      if image was successfully validated
 *         1 (or its fih_int encoded form)  if no bootloable image was found
 *         FIH_FAILURE                      on any errors
 */
static fih_int
boot_validate_slot(struct boot_loader_state *state, int slot,
     8ec:	e92d 41f0 	stmdb	sp!, {r4, r5, r6, r7, r8, lr}
                   struct boot_status *bs)
{
    const struct flash_area *fap;
    struct image_header *hdr;
    int area_id;
    fih_int fih_rc = FIH_FAILURE;
     8f0:	4b38      	ldr	r3, [pc, #224]	; (9d4 <FIH_LABEL_FIH_CALL_END_296+0x80>)
boot_validate_slot(struct boot_loader_state *state, int slot,
     8f2:	b088      	sub	sp, #32
     8f4:	4606      	mov	r6, r0
    int rc;

    area_id = flash_area_id_from_multi_image_slot(BOOT_CURR_IMG(state), slot);
     8f6:	2000      	movs	r0, #0
boot_validate_slot(struct boot_loader_state *state, int slot,
     8f8:	460d      	mov	r5, r1
    fih_int fih_rc = FIH_FAILURE;
     8fa:	681c      	ldr	r4, [r3, #0]
    area_id = flash_area_id_from_multi_image_slot(BOOT_CURR_IMG(state), slot);
     8fc:	f004 ffbc 	bl	5878 <flash_area_id_from_multi_image_slot>
    rc = flash_area_open(area_id, &fap);
     900:	a906      	add	r1, sp, #24
     902:	b2c0      	uxtb	r0, r0
     904:	f001 f8de 	bl	1ac4 <flash_area_open>
    if (rc != 0) {
     908:	2800      	cmp	r0, #0
     90a:	d157      	bne.n	9bc <FIH_LABEL_FIH_CALL_END_296+0x68>
    area_id = flash_area_id_from_multi_image_slot(BOOT_CURR_IMG(state), slot);
     90c:	4629      	mov	r1, r5
     90e:	f004 ffb3 	bl	5878 <flash_area_id_from_multi_image_slot>
     ((swap_type) == BOOT_SWAP_TYPE_PERM))

static inline struct image_header*
boot_img_hdr(struct boot_loader_state *state, size_t slot)
{
    return &BOOT_IMG(state, slot).hdr;
     912:	242c      	movs	r4, #44	; 0x2c
    rc = flash_area_open(area_id, &fap);
     914:	a907      	add	r1, sp, #28
     916:	b2c0      	uxtb	r0, r0
     918:	fb04 6405 	mla	r4, r4, r5, r6
     91c:	f001 f8d2 	bl	1ac4 <flash_area_open>
    if (rc != 0) {
     920:	2800      	cmp	r0, #0
     922:	d036      	beq.n	992 <FIH_LABEL_FIH_CALL_END_296+0x3e>
        FIH_RET(fih_rc);
    }

    hdr = boot_img_hdr(state, slot);
    if (boot_check_header_erased(state, slot) == 0 ||
        (hdr->ih_flags & IMAGE_F_NON_BOOTABLE)) {
     924:	f04f 082c 	mov.w	r8, #44	; 0x2c
     928:	fb08 f805 	mul.w	r8, r8, r5
     92c:	eb06 0708 	add.w	r7, r6, r8
     930:	6939      	ldr	r1, [r7, #16]
    if (boot_check_header_erased(state, slot) == 0 ||
     932:	f011 0110 	ands.w	r1, r1, #16
     936:	d137      	bne.n	9a8 <FIH_LABEL_FIH_CALL_END_296+0x54>

00000938 <FIH_LABEL_FIH_CALL_START_240>:
    FIH_CALL(bootutil_img_validate, fih_rc, BOOT_CURR_ENC(state), image_index,
     938:	f44f 7380 	mov.w	r3, #256	; 0x100
     93c:	9301      	str	r3, [sp, #4]
     93e:	4b26      	ldr	r3, [pc, #152]	; (9d8 <FIH_LABEL_FIH_CALL_END_296+0x84>)
     940:	4622      	mov	r2, r4
     942:	9300      	str	r3, [sp, #0]
     944:	4608      	mov	r0, r1
     946:	e9cd 1103 	strd	r1, r1, [sp, #12]
     94a:	9b06      	ldr	r3, [sp, #24]
     94c:	9102      	str	r1, [sp, #8]
     94e:	f7ff fe03 	bl	558 <bootutil_img_validate>
     952:	4604      	mov	r4, r0

00000954 <FIH_LABEL_FIH_CALL_END_296>:
    if (hdr->ih_magic != IMAGE_MAGIC) {
     954:	4b21      	ldr	r3, [pc, #132]	; (9dc <FIH_LABEL_FIH_CALL_END_296+0x88>)
     956:	f856 2008 	ldr.w	r2, [r6, r8]
                       fih_rc, BOOT_CURR_IMG(state), slot);
    if (fih_eq(fih_rc, fih_int_encode(BOOT_HOOK_REGULAR)))
    {
        FIH_CALL(boot_image_check, fih_rc, state, hdr, fap, bs);
    }
    if (!boot_is_header_valid(hdr, fap) || fih_not_eq(fih_rc, FIH_SUCCESS)) {
     95a:	9806      	ldr	r0, [sp, #24]
    if (hdr->ih_magic != IMAGE_MAGIC) {
     95c:	429a      	cmp	r2, r3
     95e:	d10c      	bne.n	97a <FIH_LABEL_FIH_CALL_END_296+0x26>
    if (!boot_u32_safe_add(&size, hdr->ih_img_size, hdr->ih_hdr_size)) {
     960:	893a      	ldrh	r2, [r7, #8]
     962:	68fb      	ldr	r3, [r7, #12]
    if (a > UINT32_MAX - b) {
     964:	43d1      	mvns	r1, r2
     966:	428b      	cmp	r3, r1
     968:	d807      	bhi.n	97a <FIH_LABEL_FIH_CALL_END_296+0x26>
        *dest = a + b;
     96a:	4413      	add	r3, r2
    if (size >= flash_area_get_size(fap)) {
     96c:	6882      	ldr	r2, [r0, #8]
     96e:	4293      	cmp	r3, r2
     970:	d203      	bcs.n	97a <FIH_LABEL_FIH_CALL_END_296+0x26>
    if (!boot_is_header_valid(hdr, fap) || fih_not_eq(fih_rc, FIH_SUCCESS)) {
     972:	4b1b      	ldr	r3, [pc, #108]	; (9e0 <FIH_LABEL_FIH_CALL_END_296+0x8c>)
     974:	681b      	ldr	r3, [r3, #0]
     976:	42a3      	cmp	r3, r4
     978:	d01d      	beq.n	9b6 <FIH_LABEL_FIH_CALL_END_296+0x62>
        if ((slot != BOOT_PRIMARY_SLOT) || ARE_SLOTS_EQUIVALENT()) {
     97a:	b345      	cbz	r5, 9ce <FIH_LABEL_FIH_CALL_END_296+0x7a>
            flash_area_erase(fap, 0, flash_area_get_size(fap));
     97c:	6882      	ldr	r2, [r0, #8]
     97e:	2100      	movs	r1, #0
     980:	f005 fc12 	bl	61a8 <flash_area_erase>
            /* Image is invalid, erase it to prevent further unnecessary
             * attempts to validate and boot it.
             */
        }
#if !defined(__BOOTSIM__)
        BOOT_LOG_ERR("Image in the %s slot is not valid!",
     984:	4a17      	ldr	r2, [pc, #92]	; (9e4 <FIH_LABEL_FIH_CALL_END_296+0x90>)
     986:	2145      	movs	r1, #69	; 0x45
     988:	4817      	ldr	r0, [pc, #92]	; (9e8 <FIH_LABEL_FIH_CALL_END_296+0x94>)
     98a:	f005 fbc7 	bl	611c <z_log_minimal_printk>
        fih_rc = fih_int_encode(1);
     98e:	2401      	movs	r4, #1
     990:	e011      	b.n	9b6 <FIH_LABEL_FIH_CALL_END_296+0x62>
    erased_val = flash_area_erased_val(fap);
     992:	9807      	ldr	r0, [sp, #28]
     994:	f005 fc28 	bl	61e8 <flash_area_erased_val>
     998:	4607      	mov	r7, r0
    flash_area_close(fap);
     99a:	9807      	ldr	r0, [sp, #28]
     99c:	f005 fbcb 	bl	6136 <flash_area_close>
boot_data_is_set_to(uint8_t val, void *data, size_t len)
     9a0:	1e63      	subs	r3, r4, #1
     9a2:	1ce2      	adds	r2, r4, #3
    for (i = 0; i < len; i++) {
     9a4:	4293      	cmp	r3, r2
     9a6:	d10d      	bne.n	9c4 <FIH_LABEL_FIH_CALL_END_296+0x70>
        if (slot != BOOT_PRIMARY_SLOT) {
     9a8:	2d00      	cmp	r5, #0
     9aa:	d0f0      	beq.n	98e <FIH_LABEL_FIH_CALL_END_296+0x3a>
            swap_erase_trailer_sectors(state, fap);
     9ac:	4630      	mov	r0, r6
     9ae:	9906      	ldr	r1, [sp, #24]
     9b0:	f005 f92c 	bl	5c0c <swap_erase_trailer_sectors>
        fih_rc = fih_int_encode(1);
     9b4:	462c      	mov	r4, r5
        }
    }
#endif

out:
    flash_area_close(fap);
     9b6:	9806      	ldr	r0, [sp, #24]
     9b8:	f005 fbbd 	bl	6136 <flash_area_close>

    FIH_RET(fih_rc);
}
     9bc:	4620      	mov	r0, r4
     9be:	b008      	add	sp, #32
     9c0:	e8bd 81f0 	ldmia.w	sp!, {r4, r5, r6, r7, r8, pc}
        if (val != p[i]) {
     9c4:	f813 1f01 	ldrb.w	r1, [r3, #1]!
     9c8:	42b9      	cmp	r1, r7
     9ca:	d0eb      	beq.n	9a4 <FIH_LABEL_FIH_CALL_END_296+0x50>
     9cc:	e7aa      	b.n	924 <boot_validate_slot.isra.0+0x38>
        BOOT_LOG_ERR("Image in the %s slot is not valid!",
     9ce:	4a07      	ldr	r2, [pc, #28]	; (9ec <FIH_LABEL_FIH_CALL_END_296+0x98>)
     9d0:	e7d9      	b.n	986 <FIH_LABEL_FIH_CALL_END_296+0x32>
     9d2:	bf00      	nop
     9d4:	200144e8 	.word	0x200144e8
     9d8:	200153cc 	.word	0x200153cc
     9dc:	96f3b83d 	.word	0x96f3b83d
     9e0:	200146b4 	.word	0x200146b4
     9e4:	000071d7 	.word	0x000071d7
     9e8:	000071e9 	.word	0x000071e9
     9ec:	000071e1 	.word	0x000071e1

000009f0 <boot_swap_image>:
 *
 * @return                      0 on success; nonzero on failure.
 */
static int
boot_swap_image(struct boot_loader_state *state, struct boot_status *bs)
{
     9f0:	b573      	push	{r0, r1, r4, r5, r6, lr}
     9f2:	460d      	mov	r5, r1
    uint8_t image_index;
    int rc;

    /* FIXME: just do this if asked by user? */

    size = copy_size = 0;
     9f4:	2100      	movs	r1, #0
{
     9f6:	4604      	mov	r4, r0
    image_index = BOOT_CURR_IMG(state);

    if (boot_status_is_reset(bs)) {
     9f8:	4628      	mov	r0, r5
    size = copy_size = 0;
     9fa:	e9cd 1100 	strd	r1, r1, [sp]
    if (boot_status_is_reset(bs)) {
     9fe:	f005 f8c4 	bl	5b8a <boot_status_is_reset>
     a02:	b330      	cbz	r0, a52 <boot_swap_image+0x62>
        /*
         * No swap ever happened, so need to find the largest image which
         * will be used to determine the amount of sectors to swap.
         */
        hdr = boot_img_hdr(state, BOOT_PRIMARY_SLOT);
        if (hdr->ih_magic == IMAGE_MAGIC) {
     a04:	4e16      	ldr	r6, [pc, #88]	; (a60 <boot_swap_image+0x70>)
     a06:	6823      	ldr	r3, [r4, #0]
     a08:	42b3      	cmp	r3, r6
     a0a:	d103      	bne.n	a14 <boot_swap_image+0x24>
            rc = boot_read_image_size(state, BOOT_PRIMARY_SLOT, &copy_size);
     a0c:	4620      	mov	r0, r4
     a0e:	aa01      	add	r2, sp, #4
     a10:	f005 f850 	bl	5ab4 <boot_read_image_size.isra.0>
            memset(bs->enckey[0], 0xff, BOOT_ENC_KEY_ALIGN_SIZE);
        }
#endif

        hdr = boot_img_hdr(state, BOOT_SECONDARY_SLOT);
        if (hdr->ih_magic == IMAGE_MAGIC) {
     a14:	6ae3      	ldr	r3, [r4, #44]	; 0x2c
     a16:	42b3      	cmp	r3, r6
     a18:	d104      	bne.n	a24 <boot_swap_image+0x34>
            rc = boot_read_image_size(state, BOOT_SECONDARY_SLOT, &size);
     a1a:	466a      	mov	r2, sp
     a1c:	2101      	movs	r1, #1
     a1e:	4620      	mov	r0, r4
     a20:	f005 f848 	bl	5ab4 <boot_read_image_size.isra.0>
        } else {
            memset(bs->enckey[1], 0xff, BOOT_ENC_KEY_ALIGN_SIZE);
        }
#endif

        if (size > copy_size) {
     a24:	e9dd 3200 	ldrd	r3, r2, [sp]
     a28:	4293      	cmp	r3, r2
            copy_size = size;
     a2a:	bf88      	it	hi
     a2c:	9301      	strhi	r3, [sp, #4]
        }

        bs->swap_size = copy_size;
     a2e:	9b01      	ldr	r3, [sp, #4]
     a30:	60ab      	str	r3, [r5, #8]
            }
        }
#endif
    }

    swap_run(state, bs, copy_size);
     a32:	9a01      	ldr	r2, [sp, #4]
     a34:	4629      	mov	r1, r5
     a36:	4620      	mov	r0, r4
     a38:	f000 fb34 	bl	10a4 <swap_run>

#ifdef MCUBOOT_VALIDATE_PRIMARY_SLOT
    extern int boot_status_fails;
    if (boot_status_fails > 0) {
     a3c:	4b09      	ldr	r3, [pc, #36]	; (a64 <boot_swap_image+0x74>)
     a3e:	681a      	ldr	r2, [r3, #0]
     a40:	2a00      	cmp	r2, #0
     a42:	dd03      	ble.n	a4c <boot_swap_image+0x5c>
        BOOT_LOG_WRN("%d status write fails performing the swap",
     a44:	2157      	movs	r1, #87	; 0x57
     a46:	4808      	ldr	r0, [pc, #32]	; (a68 <boot_swap_image+0x78>)
     a48:	f005 fb68 	bl	611c <z_log_minimal_printk>
                     boot_status_fails);
    }
#endif

    return 0;
}
     a4c:	2000      	movs	r0, #0
     a4e:	b002      	add	sp, #8
     a50:	bd70      	pop	{r4, r5, r6, pc}
        rc = boot_read_swap_size(image_index, &bs->swap_size);
     a52:	f105 0108 	add.w	r1, r5, #8
     a56:	f7ff ff0b 	bl	870 <boot_read_swap_size>
        copy_size = bs->swap_size;
     a5a:	68ab      	ldr	r3, [r5, #8]
     a5c:	9301      	str	r3, [sp, #4]
     a5e:	e7e8      	b.n	a32 <boot_swap_image+0x42>
     a60:	96f3b83d 	.word	0x96f3b83d
     a64:	20015318 	.word	0x20015318
     a68:	00007211 	.word	0x00007211

00000a6c <boot_copy_region>:
{
     a6c:	e92d 4ff8 	stmdb	sp!, {r3, r4, r5, r6, r7, r8, r9, sl, fp, lr}
     a70:	468a      	mov	sl, r1
     a72:	4690      	mov	r8, r2
     a74:	4699      	mov	r9, r3
    bytes_copied = 0;
     a76:	2600      	movs	r6, #0
        rc = flash_area_read(fap_src, off_src + bytes_copied, buf, chunk_sz);
     a78:	f8df b070 	ldr.w	fp, [pc, #112]	; aec <boot_copy_region+0x80>
     a7c:	4c19      	ldr	r4, [pc, #100]	; (ae4 <boot_copy_region+0x78>)
     a7e:	4d1a      	ldr	r5, [pc, #104]	; (ae8 <boot_copy_region+0x7c>)
    while (bytes_copied < sz) {
     a80:	9b0b      	ldr	r3, [sp, #44]	; 0x2c
     a82:	429e      	cmp	r6, r3
     a84:	d301      	bcc.n	a8a <boot_copy_region+0x1e>
    return 0;
     a86:	2000      	movs	r0, #0
     a88:	e00f      	b.n	aaa <boot_copy_region+0x3e>
        if (sz - bytes_copied > sizeof buf) {
     a8a:	9b0b      	ldr	r3, [sp, #44]	; 0x2c
        rc = flash_area_read(fap_src, off_src + bytes_copied, buf, chunk_sz);
     a8c:	4650      	mov	r0, sl
        if (sz - bytes_copied > sizeof buf) {
     a8e:	1b9f      	subs	r7, r3, r6
     a90:	f5b7 6f80 	cmp.w	r7, #1024	; 0x400
     a94:	bf28      	it	cs
     a96:	f44f 6780 	movcs.w	r7, #1024	; 0x400
        rc = flash_area_read(fap_src, off_src + bytes_copied, buf, chunk_sz);
     a9a:	4a14      	ldr	r2, [pc, #80]	; (aec <boot_copy_region+0x80>)
     a9c:	463b      	mov	r3, r7
     a9e:	eb06 0109 	add.w	r1, r6, r9
     aa2:	f005 fb49 	bl	6138 <flash_area_read>
        if (rc != 0) {
     aa6:	b110      	cbz	r0, aae <boot_copy_region+0x42>
            return BOOT_EFLASH;
     aa8:	2001      	movs	r0, #1
}
     aaa:	e8bd 8ff8 	ldmia.w	sp!, {r3, r4, r5, r6, r7, r8, r9, sl, fp, pc}
        rc = flash_area_write(fap_dst, off_dst + bytes_copied, buf, chunk_sz);
     aae:	990a      	ldr	r1, [sp, #40]	; 0x28
     ab0:	463b      	mov	r3, r7
     ab2:	465a      	mov	r2, fp
     ab4:	4640      	mov	r0, r8
     ab6:	1871      	adds	r1, r6, r1
     ab8:	f005 fb5a 	bl	6170 <flash_area_write>
        if (rc != 0) {
     abc:	2800      	cmp	r0, #0
     abe:	d1f3      	bne.n	aa8 <boot_copy_region+0x3c>
     ac0:	f8c4 5600 	str.w	r5, [r4, #1536]	; 0x600
        bytes_copied += chunk_sz;
     ac4:	443e      	add	r6, r7
     ac6:	f8c4 5604 	str.w	r5, [r4, #1540]	; 0x604
     aca:	f8c4 5608 	str.w	r5, [r4, #1544]	; 0x608
     ace:	f8c4 560c 	str.w	r5, [r4, #1548]	; 0x60c
     ad2:	f8c4 5610 	str.w	r5, [r4, #1552]	; 0x610
     ad6:	f8c4 5614 	str.w	r5, [r4, #1556]	; 0x614
     ada:	f8c4 5618 	str.w	r5, [r4, #1560]	; 0x618
     ade:	f8c4 561c 	str.w	r5, [r4, #1564]	; 0x61c
        MCUBOOT_WATCHDOG_FEED();
     ae2:	e7cd      	b.n	a80 <boot_copy_region+0x14>
     ae4:	50018000 	.word	0x50018000
     ae8:	6e524635 	.word	0x6e524635
     aec:	20014718 	.word	0x20014718

00000af0 <context_boot_go>:
#endif
}

fih_int
context_boot_go(struct boot_loader_state *state, struct boot_rsp *rsp)
{
     af0:	e92d 43f0 	stmdb	sp!, {r4, r5, r6, r7, r8, r9, lr}
     af4:	460f      	mov	r7, r1

        /* Open primary and secondary image areas for the duration
         * of this call.
         */
        for (slot = 0; slot < BOOT_NUM_SLOTS; slot++) {
            fa_id = flash_area_id_from_multi_image_slot(image_index, slot);
     af6:	2100      	movs	r1, #0
    fih_int fih_rc = FIH_FAILURE;
     af8:	4b8d      	ldr	r3, [pc, #564]	; (d30 <FIH_LABEL_FIH_CALL_END_2422+0x46>)
{
     afa:	b085      	sub	sp, #20
    fih_int fih_rc = FIH_FAILURE;
     afc:	681e      	ldr	r6, [r3, #0]
        BOOT_IMG(state, BOOT_PRIMARY_SLOT).sectors =
     afe:	4b8d      	ldr	r3, [pc, #564]	; (d34 <FIH_LABEL_FIH_CALL_END_2422+0x4a>)
{
     b00:	4604      	mov	r4, r0
        BOOT_IMG(state, BOOT_PRIMARY_SLOT).sectors =
     b02:	6243      	str	r3, [r0, #36]	; 0x24
        BOOT_IMG(state, BOOT_SECONDARY_SLOT).sectors =
     b04:	4b8c      	ldr	r3, [pc, #560]	; (d38 <FIH_LABEL_FIH_CALL_END_2422+0x4e>)
     b06:	6503      	str	r3, [r0, #80]	; 0x50
            fa_id = flash_area_id_from_multi_image_slot(image_index, slot);
     b08:	4608      	mov	r0, r1
     b0a:	f004 feb5 	bl	5878 <flash_area_id_from_multi_image_slot>
            rc = flash_area_open(fa_id, &BOOT_IMG_AREA(state, slot));
     b0e:	f104 0120 	add.w	r1, r4, #32
     b12:	b2c0      	uxtb	r0, r0
     b14:	f000 ffd6 	bl	1ac4 <flash_area_open>
            fa_id = flash_area_id_from_multi_image_slot(image_index, slot);
     b18:	2101      	movs	r1, #1
     b1a:	2000      	movs	r0, #0
     b1c:	f004 feac 	bl	5878 <flash_area_id_from_multi_image_slot>
            rc = flash_area_open(fa_id, &BOOT_IMG_AREA(state, slot));
     b20:	f104 014c 	add.w	r1, r4, #76	; 0x4c
     b24:	b2c0      	uxtb	r0, r0
     b26:	f000 ffcd 	bl	1ac4 <flash_area_open>
     b2a:	4605      	mov	r5, r0
    rc = boot_read_sectors(state);
     b2c:	4620      	mov	r0, r4
     b2e:	f005 f802 	bl	5b36 <boot_read_sectors>
    if (rc != 0) {
     b32:	4680      	mov	r8, r0
     b34:	b968      	cbnz	r0, b52 <context_boot_go+0x62>
    rc = boot_read_image_headers(state, false, NULL);
     b36:	2200      	movs	r2, #0
     b38:	4620      	mov	r0, r4
     b3a:	4611      	mov	r1, r2
     b3c:	f004 ffa1 	bl	5a82 <boot_read_image_headers>
    if (rc != 0) {
     b40:	4680      	mov	r8, r0
     b42:	b300      	cbz	r0, b86 <context_boot_go+0x96>
        BOOT_LOG_WRN("Failed reading image headers; Image=%u",
     b44:	2200      	movs	r2, #0
     b46:	2157      	movs	r1, #87	; 0x57
     b48:	487c      	ldr	r0, [pc, #496]	; (d3c <FIH_LABEL_FIH_CALL_END_2422+0x52>)
            BOOT_LOG_WRN("Failed reading boot status; Image=%u",
     b4a:	f005 fae7 	bl	611c <z_log_minimal_printk>
        BOOT_SWAP_TYPE(state) = BOOT_SWAP_TYPE_NONE;
     b4e:	2301      	movs	r3, #1
     b50:	e091      	b.n	c76 <FIH_LABEL_FIH_CALL_END_2209+0xe>
        BOOT_LOG_WRN("Failed reading sectors; BOOT_MAX_IMG_SECTORS=%d"
     b52:	2280      	movs	r2, #128	; 0x80
     b54:	2157      	movs	r1, #87	; 0x57
     b56:	487a      	ldr	r0, [pc, #488]	; (d40 <FIH_LABEL_FIH_CALL_END_2422+0x56>)
     b58:	f005 fae0 	bl	611c <z_log_minimal_printk>
        BOOT_SWAP_TYPE(state) = BOOT_SWAP_TYPE_NONE;
     b5c:	2301      	movs	r3, #1
        if (rc == BOOT_EFLASH)
     b5e:	4598      	cmp	r8, r3
        BOOT_SWAP_TYPE(state) = BOOT_SWAP_TYPE_NONE;
     b60:	f884 3058 	strb.w	r3, [r4, #88]	; 0x58
        if (rc == BOOT_EFLASH)
     b64:	d1e7      	bne.n	b36 <context_boot_go+0x46>
#endif

        /* Determine swap type and complete swap if it has been aborted. */
        boot_prepare_image_for_update(state, &bs);

        if (BOOT_IS_UPGRADE(BOOT_SWAP_TYPE(state))) {
     b66:	f894 3058 	ldrb.w	r3, [r4, #88]	; 0x58
#endif /* (BOOT_IMAGE_NUMBER > 1) */

        /* Set the previously determined swap type */
        bs.swap_type = BOOT_SWAP_TYPE(state);

        switch (BOOT_SWAP_TYPE(state)) {
     b6a:	2b04      	cmp	r3, #4
        bs.swap_type = BOOT_SWAP_TYPE(state);
     b6c:	f88d 3007 	strb.w	r3, [sp, #7]
        switch (BOOT_SWAP_TYPE(state)) {
     b70:	f200 8084 	bhi.w	c7c <FIH_LABEL_FIH_CALL_END_2209+0x14>
     b74:	2b01      	cmp	r3, #1
     b76:	f200 8088 	bhi.w	c8a <FIH_LABEL_FIH_CALL_END_2209+0x22>
     b7a:	f000 809f 	beq.w	cbc <FIH_LABEL_FIH_CALL_END_2209+0x54>
            }
#endif /* !MCUBOOT_OVERWRITE_ONLY */
            break;

        default:
            BOOT_SWAP_TYPE(state) = BOOT_SWAP_TYPE_PANIC;
     b7e:	23ff      	movs	r3, #255	; 0xff
     b80:	f884 3058 	strb.w	r3, [r4, #88]	; 0x58
     b84:	e09a      	b.n	cbc <FIH_LABEL_FIH_CALL_END_2209+0x54>
    if (boot_slots_compatible(state)) {
     b86:	4620      	mov	r0, r4
     b88:	f000 f9a4 	bl	ed4 <boot_slots_compatible>
     b8c:	2800      	cmp	r0, #0
     b8e:	d0de      	beq.n	b4e <context_boot_go+0x5e>
        boot_status_reset(bs);
     b90:	4668      	mov	r0, sp
     b92:	f004 fff1 	bl	5b78 <boot_status_reset>
        rc = swap_read_status(state, bs);
     b96:	4669      	mov	r1, sp
     b98:	4620      	mov	r0, r4
     b9a:	f005 f88c 	bl	5cb6 <swap_read_status>
        if (rc != 0) {
     b9e:	b118      	cbz	r0, ba8 <context_boot_go+0xb8>
            BOOT_LOG_WRN("Failed reading boot status; Image=%u",
     ba0:	4642      	mov	r2, r8
     ba2:	2157      	movs	r1, #87	; 0x57
     ba4:	4867      	ldr	r0, [pc, #412]	; (d44 <FIH_LABEL_FIH_CALL_END_2422+0x5a>)
     ba6:	e7d0      	b.n	b4a <context_boot_go+0x5a>
        rc = boot_read_image_headers(state, !boot_status_is_reset(bs), bs);
     ba8:	4668      	mov	r0, sp
     baa:	f004 ffee 	bl	5b8a <boot_status_is_reset>
     bae:	f080 0001 	eor.w	r0, r0, #1
     bb2:	466a      	mov	r2, sp
     bb4:	b2c1      	uxtb	r1, r0
     bb6:	4620      	mov	r0, r4
     bb8:	f004 ff63 	bl	5a82 <boot_read_image_headers>
        if (rc != 0) {
     bbc:	4602      	mov	r2, r0
     bbe:	2800      	cmp	r0, #0
     bc0:	d1c0      	bne.n	b44 <context_boot_go+0x54>
        if (!boot_status_is_reset(bs)) {
     bc2:	4668      	mov	r0, sp
     bc4:	f004 ffe1 	bl	5b8a <boot_status_is_reset>
     bc8:	4680      	mov	r8, r0
     bca:	bb60      	cbnz	r0, c26 <context_boot_go+0x136>
    rc = boot_swap_image(state, bs);
     bcc:	4669      	mov	r1, sp
     bce:	4620      	mov	r0, r4
     bd0:	f7ff ff0e 	bl	9f0 <boot_swap_image>
    BOOT_SWAP_TYPE(state) = bs->swap_type;
     bd4:	f89d 3007 	ldrb.w	r3, [sp, #7]
     bd8:	f884 3058 	strb.w	r3, [r4, #88]	; 0x58
    if (bs->swap_type == BOOT_SWAP_TYPE_REVERT ||
     bdc:	3b03      	subs	r3, #3
     bde:	2b01      	cmp	r3, #1
     be0:	d806      	bhi.n	bf0 <context_boot_go+0x100>
        rc = swap_set_image_ok(BOOT_CURR_IMG(state));
     be2:	4640      	mov	r0, r8
     be4:	f005 f8b6 	bl	5d54 <swap_set_image_ok>
        if (rc != 0) {
     be8:	b110      	cbz	r0, bf0 <context_boot_go+0x100>
            BOOT_SWAP_TYPE(state) = BOOT_SWAP_TYPE_PANIC;
     bea:	23ff      	movs	r3, #255	; 0xff
     bec:	f884 3058 	strb.w	r3, [r4, #88]	; 0x58
    if (BOOT_IS_UPGRADE(bs->swap_type)) {
     bf0:	f89d 3007 	ldrb.w	r3, [sp, #7]
     bf4:	3b02      	subs	r3, #2
     bf6:	2b02      	cmp	r3, #2
     bf8:	d80b      	bhi.n	c12 <context_boot_go+0x122>
        rc = swap_set_copy_done(BOOT_CURR_IMG(state));
     bfa:	2000      	movs	r0, #0
     bfc:	f005 f898 	bl	5d30 <swap_set_copy_done>
        if (rc != 0) {
     c00:	b138      	cbz	r0, c12 <context_boot_go+0x122>
            BOOT_SWAP_TYPE(state) = BOOT_SWAP_TYPE_PANIC;
     c02:	23ff      	movs	r3, #255	; 0xff
     c04:	f884 3058 	strb.w	r3, [r4, #88]	; 0x58
        BOOT_LOG_ERR("panic!");
     c08:	2145      	movs	r1, #69	; 0x45
     c0a:	484f      	ldr	r0, [pc, #316]	; (d48 <FIH_LABEL_FIH_CALL_END_2422+0x5e>)
     c0c:	f005 fa86 	bl	611c <z_log_minimal_printk>
        while (1) {}
     c10:	e7fe      	b.n	c10 <context_boot_go+0x120>
    if (BOOT_SWAP_TYPE(state) == BOOT_SWAP_TYPE_PANIC) {
     c12:	f894 3058 	ldrb.w	r3, [r4, #88]	; 0x58
     c16:	2bff      	cmp	r3, #255	; 0xff
     c18:	d0f6      	beq.n	c08 <context_boot_go+0x118>
            rc = boot_read_image_headers(state, false, bs);
     c1a:	466a      	mov	r2, sp
     c1c:	2100      	movs	r1, #0
     c1e:	4620      	mov	r0, r4
     c20:	f004 ff2f 	bl	5a82 <boot_read_image_headers>
            BOOT_SWAP_TYPE(state) = BOOT_SWAP_TYPE_NONE;
     c24:	e793      	b.n	b4e <context_boot_go+0x5e>
            if (bs->swap_type == BOOT_SWAP_TYPE_NONE) {
     c26:	f89d 9007 	ldrb.w	r9, [sp, #7]
     c2a:	f1b9 0f01 	cmp.w	r9, #1
     c2e:	d117      	bne.n	c60 <FIH_LABEL_FIH_CALL_START_2189>
    swap_type = boot_swap_type_multi(BOOT_CURR_IMG(state));
     c30:	4610      	mov	r0, r2
     c32:	f002 fb77 	bl	3324 <boot_swap_type_multi>
    if (BOOT_IS_UPGRADE(swap_type)) {
     c36:	1e83      	subs	r3, r0, #2
     c38:	2b02      	cmp	r3, #2
    swap_type = boot_swap_type_multi(BOOT_CURR_IMG(state));
     c3a:	4680      	mov	r8, r0
    if (BOOT_IS_UPGRADE(swap_type)) {
     c3c:	d80d      	bhi.n	c5a <FIH_LABEL_FIH_CALL_END_2124+0x14>

00000c3e <FIH_LABEL_FIH_CALL_START_2100>:
        FIH_CALL(boot_validate_slot, fih_rc, state, BOOT_SECONDARY_SLOT, bs);
     c3e:	4649      	mov	r1, r9
     c40:	4620      	mov	r0, r4
     c42:	f7ff fe53 	bl	8ec <boot_validate_slot.isra.0>

00000c46 <FIH_LABEL_FIH_CALL_END_2124>:
        if (fih_not_eq(fih_rc, FIH_SUCCESS)) {
     c46:	4b41      	ldr	r3, [pc, #260]	; (d4c <FIH_LABEL_FIH_CALL_END_2422+0x62>)
     c48:	681b      	ldr	r3, [r3, #0]
     c4a:	4298      	cmp	r0, r3
     c4c:	d005      	beq.n	c5a <FIH_LABEL_FIH_CALL_END_2124+0x14>
                swap_type = BOOT_SWAP_TYPE_FAIL;
     c4e:	2801      	cmp	r0, #1
     c50:	bf0c      	ite	eq
     c52:	f04f 0801 	moveq.w	r8, #1
     c56:	f04f 0805 	movne.w	r8, #5
                BOOT_SWAP_TYPE(state) = boot_validated_swap_type(state, bs);
     c5a:	f884 8058 	strb.w	r8, [r4, #88]	; 0x58
     c5e:	e782      	b.n	b66 <context_boot_go+0x76>

00000c60 <FIH_LABEL_FIH_CALL_START_2189>:
                FIH_CALL(boot_validate_slot, fih_rc,
     c60:	2101      	movs	r1, #1
     c62:	4620      	mov	r0, r4
     c64:	f7ff fe42 	bl	8ec <boot_validate_slot.isra.0>

00000c68 <FIH_LABEL_FIH_CALL_END_2209>:
                if (fih_not_eq(fih_rc, FIH_SUCCESS)) {
     c68:	4b38      	ldr	r3, [pc, #224]	; (d4c <FIH_LABEL_FIH_CALL_END_2422+0x62>)
     c6a:	681b      	ldr	r3, [r3, #0]
     c6c:	4298      	cmp	r0, r3
                    BOOT_SWAP_TYPE(state) = BOOT_SWAP_TYPE_FAIL;
     c6e:	bf14      	ite	ne
     c70:	2305      	movne	r3, #5
                    BOOT_SWAP_TYPE(state) = bs->swap_type;
     c72:	f89d 3007 	ldrbeq.w	r3, [sp, #7]
        BOOT_SWAP_TYPE(state) = BOOT_SWAP_TYPE_NONE;
     c76:	f884 3058 	strb.w	r3, [r4, #88]	; 0x58
     c7a:	e774      	b.n	b66 <context_boot_go+0x76>
        switch (BOOT_SWAP_TYPE(state)) {
     c7c:	2b05      	cmp	r3, #5
     c7e:	f47f af7e 	bne.w	b7e <context_boot_go+0x8e>
            rc = swap_set_image_ok(BOOT_CURR_IMG(state));
     c82:	2000      	movs	r0, #0
     c84:	f005 f866 	bl	5d54 <swap_set_image_ok>
     c88:	e013      	b.n	cb2 <FIH_LABEL_FIH_CALL_END_2209+0x4a>
        rc = boot_swap_image(state, bs);
     c8a:	4669      	mov	r1, sp
     c8c:	4620      	mov	r0, r4
     c8e:	f7ff feaf 	bl	9f0 <boot_swap_image>
    swap_type = BOOT_SWAP_TYPE(state);
     c92:	f894 3058 	ldrb.w	r3, [r4, #88]	; 0x58
        rc = boot_swap_image(state, bs);
     c96:	4605      	mov	r5, r0
    if (swap_type == BOOT_SWAP_TYPE_REVERT ||
     c98:	1eda      	subs	r2, r3, #3
     c9a:	2a01      	cmp	r2, #1
     c9c:	d80c      	bhi.n	cb8 <FIH_LABEL_FIH_CALL_END_2209+0x50>
        rc = swap_set_image_ok(BOOT_CURR_IMG(state));
     c9e:	2000      	movs	r0, #0
     ca0:	f005 f858 	bl	5d54 <swap_set_image_ok>
        if (rc != 0) {
     ca4:	4605      	mov	r5, r0
     ca6:	2800      	cmp	r0, #0
     ca8:	f47f af69 	bne.w	b7e <context_boot_go+0x8e>
        rc = swap_set_copy_done(BOOT_CURR_IMG(state));
     cac:	2000      	movs	r0, #0
     cae:	f005 f83f 	bl	5d30 <swap_set_copy_done>
            if (rc != 0) {
     cb2:	4605      	mov	r5, r0
     cb4:	b110      	cbz	r0, cbc <FIH_LABEL_FIH_CALL_END_2209+0x54>
     cb6:	e762      	b.n	b7e <context_boot_go+0x8e>
    if (BOOT_IS_UPGRADE(swap_type)) {
     cb8:	2b02      	cmp	r3, #2
     cba:	d0f7      	beq.n	cac <FIH_LABEL_FIH_CALL_END_2209+0x44>
        }

        if (BOOT_SWAP_TYPE(state) == BOOT_SWAP_TYPE_PANIC) {
     cbc:	f894 3058 	ldrb.w	r3, [r4, #88]	; 0x58
     cc0:	2bff      	cmp	r3, #255	; 0xff
     cc2:	d104      	bne.n	cce <FIH_LABEL_FIH_CALL_END_2209+0x66>
            BOOT_LOG_ERR("panic!");
     cc4:	2145      	movs	r1, #69	; 0x45
     cc6:	4820      	ldr	r0, [pc, #128]	; (d48 <FIH_LABEL_FIH_CALL_END_2422+0x5e>)
     cc8:	f005 fa28 	bl	611c <z_log_minimal_printk>
            assert(0);

            /* Loop forever... */
            FIH_PANIC;
     ccc:	e7fe      	b.n	ccc <FIH_LABEL_FIH_CALL_END_2209+0x64>
#if BOOT_IMAGE_NUMBER > 1
        if (state->img_mask[BOOT_CURR_IMG(state)]) {
            continue;
        }
#endif
        if (BOOT_SWAP_TYPE(state) != BOOT_SWAP_TYPE_NONE) {
     cce:	2b01      	cmp	r3, #1
     cd0:	d006      	beq.n	ce0 <FIH_LABEL_FIH_CALL_START_2406>
            /* Attempt to read an image header from each slot. Ensure that image
             * headers in slots are aligned with headers in boot_data.
             */
            rc = boot_read_image_headers(state, false, &bs);
     cd2:	466a      	mov	r2, sp
     cd4:	2100      	movs	r1, #0
     cd6:	4620      	mov	r0, r4
     cd8:	f004 fed3 	bl	5a82 <boot_read_image_headers>
            if (rc != 0) {
     cdc:	4605      	mov	r5, r0
     cde:	b9d0      	cbnz	r0, d16 <FIH_LABEL_FIH_CALL_END_2422+0x2c>

00000ce0 <FIH_LABEL_FIH_CALL_START_2406>:
	 * primary.
	 */
	if (BOOT_CURR_IMG(state) == 0)
#endif
	{
            FIH_CALL(boot_validate_slot, fih_rc, state, BOOT_PRIMARY_SLOT, NULL);
     ce0:	2100      	movs	r1, #0
     ce2:	4620      	mov	r0, r4
     ce4:	f7ff fe02 	bl	8ec <boot_validate_slot.isra.0>
     ce8:	4606      	mov	r6, r0

00000cea <FIH_LABEL_FIH_CALL_END_2422>:
            if (fih_not_eq(fih_rc, FIH_SUCCESS)) {
     cea:	f8df 8060 	ldr.w	r8, [pc, #96]	; d4c <FIH_LABEL_FIH_CALL_END_2422+0x62>
     cee:	f8d8 3000 	ldr.w	r3, [r8]
     cf2:	4298      	cmp	r0, r3
     cf4:	d10f      	bne.n	d16 <FIH_LABEL_FIH_CALL_END_2422+0x2c>
    /*
     * Since the boot_status struct stores plaintext encryption keys, reset
     * them here to avoid the possibility of jumping into an image that could
     * easily recover them.
     */
    memset(&bs, 0, sizeof(struct boot_status));
     cf6:	2210      	movs	r2, #16
     cf8:	2100      	movs	r1, #0
     cfa:	4668      	mov	r0, sp
     cfc:	f005 fade 	bl	62bc <memset>
    rsp->br_flash_dev_id = flash_area_get_device_id(BOOT_IMG_AREA(state, active_slot));
     d00:	6a20      	ldr	r0, [r4, #32]
     d02:	f004 fdc2 	bl	588a <flash_area_get_device_id>
        rc = boot_add_shared_data(state, BOOT_PRIMARY_SLOT);
     d06:	2500      	movs	r5, #0
    rsp->br_flash_dev_id = flash_area_get_device_id(BOOT_IMG_AREA(state, active_slot));
     d08:	7138      	strb	r0, [r7, #4]
 */
int flash_area_sector_from_off(off_t off, struct flash_sector *sector);

static inline uint32_t flash_area_get_off(const struct flash_area *fa)
{
	return (uint32_t)fa->fa_off;
     d0a:	6a23      	ldr	r3, [r4, #32]

    fill_rsp(state, rsp);

    fih_rc = FIH_SUCCESS;
     d0c:	f8d8 6000 	ldr.w	r6, [r8]
    rsp->br_image_off = boot_img_slot_off(state, active_slot);
     d10:	685b      	ldr	r3, [r3, #4]
    rsp->br_hdr = boot_img_hdr(state, active_slot);
     d12:	603c      	str	r4, [r7, #0]
    rsp->br_image_off = boot_img_slot_off(state, active_slot);
     d14:	60bb      	str	r3, [r7, #8]
            flash_area_close(BOOT_IMG_AREA(state, BOOT_NUM_SLOTS - 1 - slot));
     d16:	6ce0      	ldr	r0, [r4, #76]	; 0x4c
     d18:	f005 fa0d 	bl	6136 <flash_area_close>
     d1c:	6a20      	ldr	r0, [r4, #32]
     d1e:	f005 fa0a 	bl	6136 <flash_area_close>
    if (rc) {
        fih_rc = fih_int_encode(rc);
    }

    FIH_RET(fih_rc);
}
     d22:	2d00      	cmp	r5, #0
     d24:	bf14      	ite	ne
     d26:	4628      	movne	r0, r5
     d28:	4630      	moveq	r0, r6
     d2a:	b005      	add	sp, #20
     d2c:	e8bd 83f0 	ldmia.w	sp!, {r4, r5, r6, r7, r8, r9, pc}
     d30:	200144e8 	.word	0x200144e8
     d34:	20014b18 	.word	0x20014b18
     d38:	20014f18 	.word	0x20014f18
     d3c:	00007282 	.word	0x00007282
     d40:	00007240 	.word	0x00007240
     d44:	000072ae 	.word	0x000072ae
     d48:	000072d8 	.word	0x000072d8
     d4c:	200146b4 	.word	0x200146b4

00000d50 <boot_go>:
 *
 * @return                      FIH_SUCCESS on success; nonzero on failure.
 */
fih_int
boot_go(struct boot_rsp *rsp)
{
     d50:	b538      	push	{r3, r4, r5, lr}
void boot_state_clear(struct boot_loader_state *state)
{
    if (state != NULL) {
        memset(state, 0, sizeof(struct boot_loader_state));
    } else {
        memset(&boot_data, 0, sizeof(struct boot_loader_state));
     d52:	4d06      	ldr	r5, [pc, #24]	; (d6c <FIH_LABEL_FIH_CALL_END_3108+0x4>)
{
     d54:	4604      	mov	r4, r0
        memset(&boot_data, 0, sizeof(struct boot_loader_state));
     d56:	2260      	movs	r2, #96	; 0x60
     d58:	2100      	movs	r1, #0
     d5a:	4628      	mov	r0, r5
     d5c:	f005 faae 	bl	62bc <memset>

00000d60 <FIH_LABEL_FIH_CALL_START_3093>:
    FIH_CALL(context_boot_go, fih_rc, &boot_data, rsp);
     d60:	4621      	mov	r1, r4
     d62:	4628      	mov	r0, r5
     d64:	f7ff fec4 	bl	af0 <context_boot_go>

00000d68 <FIH_LABEL_FIH_CALL_END_3108>:
}
     d68:	bd38      	pop	{r3, r4, r5, pc}
     d6a:	bf00      	nop
     d6c:	200146b8 	.word	0x200146b8

00000d70 <boot_read_image_header>:
static uint32_t g_last_idx = UINT32_MAX;

int
boot_read_image_header(struct boot_loader_state *state, int slot,
                       struct image_header *out_hdr, struct boot_status *bs)
{
     d70:	b573      	push	{r0, r1, r4, r5, r6, lr}
     d72:	4616      	mov	r6, r2
#if (BOOT_IMAGE_NUMBER == 1)
    (void)state;
#endif

    off = 0;
    if (bs) {
     d74:	461c      	mov	r4, r3
     d76:	b333      	cbz	r3, dc6 <boot_read_image_header+0x56>
	return fs->fs_off;
}

static inline uint32_t flash_sector_get_size(const struct flash_sector *fs)
{
	return fs->fs_size;
     d78:	6a43      	ldr	r3, [r0, #36]	; 0x24
     d7a:	685d      	ldr	r5, [r3, #4]
        sz = boot_img_sector_size(state, BOOT_PRIMARY_SLOT, 0);
        if (bs->op == BOOT_STATUS_OP_MOVE) {
     d7c:	7963      	ldrb	r3, [r4, #5]
     d7e:	2b01      	cmp	r3, #1
     d80:	d115      	bne.n	dae <boot_read_image_header+0x3e>
            if (slot == 0 && bs->idx > g_last_idx) {
     d82:	bb01      	cbnz	r1, dc6 <boot_read_image_header+0x56>
     d84:	4b1f      	ldr	r3, [pc, #124]	; (e04 <boot_read_image_header+0x94>)
     d86:	6822      	ldr	r2, [r4, #0]
     d88:	681b      	ldr	r3, [r3, #0]
    off = 0;
     d8a:	429a      	cmp	r2, r3
     d8c:	bf98      	it	ls
     d8e:	2500      	movls	r5, #0
                }
            }
        }
    }

    area_id = flash_area_id_from_multi_image_slot(BOOT_CURR_IMG(state), slot);
     d90:	2000      	movs	r0, #0
     d92:	f004 fd71 	bl	5878 <flash_area_id_from_multi_image_slot>
    rc = flash_area_open(area_id, &fap);
     d96:	a901      	add	r1, sp, #4
     d98:	b2c0      	uxtb	r0, r0
     d9a:	f000 fe93 	bl	1ac4 <flash_area_open>
    if (rc != 0) {
     d9e:	b1f0      	cbz	r0, dde <boot_read_image_header+0x6e>
        rc = BOOT_EFLASH;
     da0:	2501      	movs	r5, #1
    }

    rc = 0;

done:
    flash_area_close(fap);
     da2:	9801      	ldr	r0, [sp, #4]
     da4:	f005 f9c7 	bl	6136 <flash_area_close>
    return rc;
}
     da8:	4628      	mov	r0, r5
     daa:	b002      	add	sp, #8
     dac:	bd70      	pop	{r4, r5, r6, pc}
        } else if (bs->op == BOOT_STATUS_OP_SWAP) {
     dae:	2b02      	cmp	r3, #2
     db0:	d109      	bne.n	dc6 <boot_read_image_header+0x56>
            if (bs->idx > 1 && bs->idx <= g_last_idx) {
     db2:	6823      	ldr	r3, [r4, #0]
     db4:	2b01      	cmp	r3, #1
     db6:	d908      	bls.n	dca <boot_read_image_header+0x5a>
     db8:	4a12      	ldr	r2, [pc, #72]	; (e04 <boot_read_image_header+0x94>)
     dba:	6812      	ldr	r2, [r2, #0]
     dbc:	4293      	cmp	r3, r2
     dbe:	d802      	bhi.n	dc6 <boot_read_image_header+0x56>
                if (slot == 0) {
     dc0:	fab1 f181 	clz	r1, r1
     dc4:	0949      	lsrs	r1, r1, #5
    off = 0;
     dc6:	2500      	movs	r5, #0
     dc8:	e7e2      	b.n	d90 <boot_read_image_header+0x20>
            } else if (bs->idx == 1) {
     dca:	d1fc      	bne.n	dc6 <boot_read_image_header+0x56>
                if (slot == 0) {
     dcc:	2900      	cmp	r1, #0
     dce:	d0df      	beq.n	d90 <boot_read_image_header+0x20>
                if (slot == 1 && bs->state == 2) {
     dd0:	2901      	cmp	r1, #1
     dd2:	d1f8      	bne.n	dc6 <boot_read_image_header+0x56>
     dd4:	7921      	ldrb	r1, [r4, #4]
     dd6:	3902      	subs	r1, #2
     dd8:	bf18      	it	ne
     dda:	2101      	movne	r1, #1
     ddc:	e7f3      	b.n	dc6 <boot_read_image_header+0x56>
    rc = flash_area_read(fap, off, out_hdr, sizeof *out_hdr);
     dde:	4629      	mov	r1, r5
     de0:	2320      	movs	r3, #32
     de2:	4632      	mov	r2, r6
     de4:	9801      	ldr	r0, [sp, #4]
     de6:	f005 f9a7 	bl	6138 <flash_area_read>
    if (rc != 0) {
     dea:	4605      	mov	r5, r0
     dec:	2800      	cmp	r0, #0
     dee:	d1d7      	bne.n	da0 <boot_read_image_header+0x30>
    if (bs != NULL && out_hdr->ih_magic != IMAGE_MAGIC) {
     df0:	2c00      	cmp	r4, #0
     df2:	d0d6      	beq.n	da2 <boot_read_image_header+0x32>
     df4:	6835      	ldr	r5, [r6, #0]
     df6:	4804      	ldr	r0, [pc, #16]	; (e08 <boot_read_image_header+0x98>)
     df8:	1a2d      	subs	r5, r5, r0
     dfa:	bf18      	it	ne
     dfc:	f04f 35ff 	movne.w	r5, #4294967295
     e00:	e7cf      	b.n	da2 <boot_read_image_header+0x32>
     e02:	bf00      	nop
     e04:	200144ec 	.word	0x200144ec
     e08:	96f3b83d 	.word	0x96f3b83d

00000e0c <swap_read_status_bytes>:

int
swap_read_status_bytes(const struct flash_area *fap,
        struct boot_loader_state *state, struct boot_status *bs)
{
     e0c:	e92d 4ff0 	stmdb	sp!, {r4, r5, r6, r7, r8, r9, sl, fp, lr}
     e10:	4607      	mov	r7, r0
     e12:	460c      	mov	r4, r1
     e14:	b085      	sub	sp, #20
    int rc;
    int last_rc;
    int erased_sections;
    int i;

    max_entries = boot_status_entries(BOOT_CURR_IMG(state), fap);
     e16:	4601      	mov	r1, r0
     e18:	2000      	movs	r0, #0
{
     e1a:	4616      	mov	r6, r2
    max_entries = boot_status_entries(BOOT_CURR_IMG(state), fap);
     e1c:	f004 fe02 	bl	5a24 <boot_status_entries>
    if (max_entries < 0) {
     e20:	1e05      	subs	r5, r0, #0
     e22:	db51      	blt.n	ec8 <swap_read_status_bytes+0xbc>
    erased_sections = 0;
    found_idx = -1;
    /* skip erased sectors at the end */
    last_rc = 1;
    write_sz = BOOT_WRITE_SZ(state);
    off = boot_status_off(fap);
     e24:	4638      	mov	r0, r7
    write_sz = BOOT_WRITE_SZ(state);
     e26:	6de4      	ldr	r4, [r4, #92]	; 0x5c
    off = boot_status_off(fap);
     e28:	f004 fe09 	bl	5a3e <boot_status_off>
    for (i = max_entries; i > 0; i--) {
     e2c:	fa5f f984 	uxtb.w	r9, r4
    erased_sections = 0;
     e30:	f04f 0a00 	mov.w	sl, #0
    last_rc = 1;
     e34:	f04f 0b01 	mov.w	fp, #1
    found_idx = -1;
     e38:	f04f 34ff 	mov.w	r4, #4294967295
     e3c:	f105 38ff 	add.w	r8, r5, #4294967295
     e40:	fb09 0808 	mla	r8, r9, r8, r0
    for (i = max_entries; i > 0; i--) {
     e44:	b99d      	cbnz	r5, e6e <swap_read_status_bytes+0x62>
            }
        }
        last_rc = rc;
    }

    if (erased_sections > 1) {
     e46:	f1ba 0f01 	cmp.w	sl, #1
     e4a:	dd03      	ble.n	e54 <swap_read_status_bytes+0x48>
        /* This means there was an error writing status on the last
         * swap. Tell user and move on to validation!
         */
#if !defined(__BOOTSIM__)
        BOOT_LOG_ERR("Detected inconsistent status!");
     e4c:	2145      	movs	r1, #69	; 0x45
     e4e:	4820      	ldr	r0, [pc, #128]	; (ed0 <swap_read_status_bytes+0xc4>)
     e50:	f005 f964 	bl	611c <z_log_minimal_printk>
        assert(0);
#endif
    }

    move_entries = BOOT_MAX_IMG_SECTORS * BOOT_STATUS_MOVE_STATE_COUNT;
    if (found_idx == -1) {
     e54:	1c63      	adds	r3, r4, #1
     e56:	d006      	beq.n	e66 <swap_read_status_bytes+0x5a>
        /* no swap status found; nothing to do */
    } else if (found_idx < move_entries) {
     e58:	2c7f      	cmp	r4, #127	; 0x7f
     e5a:	dc2a      	bgt.n	eb2 <swap_read_status_bytes+0xa6>
        bs->op = BOOT_STATUS_OP_MOVE;
        bs->idx = (found_idx  / BOOT_STATUS_MOVE_STATE_COUNT) + BOOT_STATUS_IDX_0;
        bs->state = (found_idx % BOOT_STATUS_MOVE_STATE_COUNT) + BOOT_STATUS_STATE_0;;
     e5c:	f240 1301 	movw	r3, #257	; 0x101
        bs->idx = (found_idx  / BOOT_STATUS_MOVE_STATE_COUNT) + BOOT_STATUS_IDX_0;
     e60:	3401      	adds	r4, #1
     e62:	6034      	str	r4, [r6, #0]
        bs->state = (found_idx % BOOT_STATUS_MOVE_STATE_COUNT) + BOOT_STATUS_STATE_0;;
     e64:	80b3      	strh	r3, [r6, #4]
        bs->idx = ((found_idx - move_entries) / BOOT_STATUS_SWAP_STATE_COUNT) + BOOT_STATUS_IDX_0;
        bs->state = ((found_idx - move_entries) % BOOT_STATUS_SWAP_STATE_COUNT) + BOOT_STATUS_STATE_0;
    }

    return 0;
}
     e66:	4628      	mov	r0, r5
     e68:	b005      	add	sp, #20
     e6a:	e8bd 8ff0 	ldmia.w	sp!, {r4, r5, r6, r7, r8, r9, sl, fp, pc}
        rc = flash_area_read(fap, off + (i - 1) * write_sz, &status, 1);
     e6e:	1e6b      	subs	r3, r5, #1
     e70:	9300      	str	r3, [sp, #0]
     e72:	4641      	mov	r1, r8
     e74:	2301      	movs	r3, #1
     e76:	4638      	mov	r0, r7
     e78:	f10d 020f 	add.w	r2, sp, #15
     e7c:	f005 f95c 	bl	6138 <flash_area_read>
        if (rc < 0) {
     e80:	1e03      	subs	r3, r0, #0
     e82:	9301      	str	r3, [sp, #4]
     e84:	db22      	blt.n	ecc <swap_read_status_bytes+0xc0>
        if (bootutil_buffer_is_erased(fap, &status, 1)) {
     e86:	2201      	movs	r2, #1
     e88:	4638      	mov	r0, r7
     e8a:	f10d 010f 	add.w	r1, sp, #15
     e8e:	f005 fc0c 	bl	66aa <bootutil_buffer_is_erased>
     e92:	9b01      	ldr	r3, [sp, #4]
     e94:	b140      	cbz	r0, ea8 <swap_read_status_bytes+0x9c>
            if (rc != last_rc) {
     e96:	455b      	cmp	r3, fp
     e98:	d001      	beq.n	e9e <swap_read_status_bytes+0x92>
                erased_sections++;
     e9a:	f10a 0a01 	add.w	sl, sl, #1
            if (found_idx == -1) {
     e9e:	469b      	mov	fp, r3
     ea0:	9d00      	ldr	r5, [sp, #0]
     ea2:	eba8 0809 	sub.w	r8, r8, r9
     ea6:	e7cd      	b.n	e44 <swap_read_status_bytes+0x38>
     ea8:	f1b4 3fff 	cmp.w	r4, #4294967295
     eac:	bf08      	it	eq
     eae:	462c      	moveq	r4, r5
     eb0:	e7f5      	b.n	e9e <swap_read_status_bytes+0x92>
        bs->op = BOOT_STATUS_OP_SWAP;
     eb2:	2302      	movs	r3, #2
        bs->idx = ((found_idx - move_entries) / BOOT_STATUS_SWAP_STATE_COUNT) + BOOT_STATUS_IDX_0;
     eb4:	3c80      	subs	r4, #128	; 0x80
        bs->op = BOOT_STATUS_OP_SWAP;
     eb6:	7173      	strb	r3, [r6, #5]
        bs->idx = ((found_idx - move_entries) / BOOT_STATUS_SWAP_STATE_COUNT) + BOOT_STATUS_IDX_0;
     eb8:	1063      	asrs	r3, r4, #1
        bs->state = ((found_idx - move_entries) % BOOT_STATUS_SWAP_STATE_COUNT) + BOOT_STATUS_STATE_0;
     eba:	f004 0401 	and.w	r4, r4, #1
        bs->idx = ((found_idx - move_entries) / BOOT_STATUS_SWAP_STATE_COUNT) + BOOT_STATUS_IDX_0;
     ebe:	3301      	adds	r3, #1
        bs->state = ((found_idx - move_entries) % BOOT_STATUS_SWAP_STATE_COUNT) + BOOT_STATUS_STATE_0;
     ec0:	3401      	adds	r4, #1
        bs->idx = ((found_idx - move_entries) / BOOT_STATUS_SWAP_STATE_COUNT) + BOOT_STATUS_IDX_0;
     ec2:	6033      	str	r3, [r6, #0]
        bs->state = ((found_idx - move_entries) % BOOT_STATUS_SWAP_STATE_COUNT) + BOOT_STATUS_STATE_0;
     ec4:	7134      	strb	r4, [r6, #4]
     ec6:	e7ce      	b.n	e66 <swap_read_status_bytes+0x5a>
        return BOOT_EBADARGS;
     ec8:	2507      	movs	r5, #7
     eca:	e7cc      	b.n	e66 <swap_read_status_bytes+0x5a>
            return BOOT_EFLASH;
     ecc:	2501      	movs	r5, #1
     ece:	e7ca      	b.n	e66 <swap_read_status_bytes+0x5a>
     ed0:	000072e4 	.word	0x000072e4

00000ed4 <boot_slots_compatible>:
}

static inline size_t
boot_img_num_sectors(const struct boot_loader_state *state, size_t slot)
{
    return BOOT_IMG(state, slot).num_sectors;
     ed4:	6a81      	ldr	r1, [r0, #40]	; 0x28
     ed6:	6d42      	ldr	r2, [r0, #84]	; 0x54
    return off;
}

int
boot_slots_compatible(struct boot_loader_state *state)
{
     ed8:	b538      	push	{r3, r4, r5, lr}
    size_t sector_sz_sec = 0;
    size_t i;

    num_sectors_pri = boot_img_num_sectors(state, BOOT_PRIMARY_SLOT);
    num_sectors_sec = boot_img_num_sectors(state, BOOT_SECONDARY_SLOT);
    if ((num_sectors_pri != num_sectors_sec) &&
     eda:	4291      	cmp	r1, r2
     edc:	d008      	beq.n	ef0 <boot_slots_compatible+0x1c>
            (num_sectors_pri != (num_sectors_sec + 1))) {
     ede:	1c53      	adds	r3, r2, #1
    if ((num_sectors_pri != num_sectors_sec) &&
     ee0:	428b      	cmp	r3, r1
     ee2:	d005      	beq.n	ef0 <boot_slots_compatible+0x1c>
        BOOT_LOG_WRN("Cannot upgrade: not a compatible amount of sectors");
     ee4:	2157      	movs	r1, #87	; 0x57
     ee6:	4813      	ldr	r0, [pc, #76]	; (f34 <boot_slots_compatible+0x60>)

    for (i = 0; i < num_sectors_sec; i++) {
        sector_sz_pri = boot_img_sector_size(state, BOOT_PRIMARY_SLOT, i);
        sector_sz_sec = boot_img_sector_size(state, BOOT_SECONDARY_SLOT, i);
        if (sector_sz_pri != sector_sz_sec) {
            BOOT_LOG_WRN("Cannot upgrade: not same sector layout");
     ee8:	f005 f918 	bl	611c <z_log_minimal_printk>
            return 0;
     eec:	2000      	movs	r0, #0
        }
    }

    return 1;
#endif /* PM_S1_ADDRESS */
}
     eee:	bd38      	pop	{r3, r4, r5, pc}
    if (num_sectors_pri > BOOT_MAX_IMG_SECTORS) {
     ef0:	2980      	cmp	r1, #128	; 0x80
     ef2:	d91c      	bls.n	f2e <boot_slots_compatible+0x5a>
        BOOT_LOG_WRN("Cannot upgrade: more sectors than allowed");
     ef4:	2157      	movs	r1, #87	; 0x57
     ef6:	4810      	ldr	r0, [pc, #64]	; (f38 <boot_slots_compatible+0x64>)
     ef8:	e7f6      	b.n	ee8 <boot_slots_compatible+0x14>
     efa:	6a44      	ldr	r4, [r0, #36]	; 0x24
     efc:	6d05      	ldr	r5, [r0, #80]	; 0x50
     efe:	eb04 04c3 	add.w	r4, r4, r3, lsl #3
     f02:	eb05 05c3 	add.w	r5, r5, r3, lsl #3
     f06:	6864      	ldr	r4, [r4, #4]
        if (sector_sz_pri != sector_sz_sec) {
     f08:	686d      	ldr	r5, [r5, #4]
     f0a:	42ac      	cmp	r4, r5
     f0c:	d002      	beq.n	f14 <boot_slots_compatible+0x40>
            BOOT_LOG_WRN("Cannot upgrade: not same sector layout");
     f0e:	2157      	movs	r1, #87	; 0x57
     f10:	480a      	ldr	r0, [pc, #40]	; (f3c <boot_slots_compatible+0x68>)
     f12:	e7e9      	b.n	ee8 <boot_slots_compatible+0x14>
    for (i = 0; i < num_sectors_sec; i++) {
     f14:	3301      	adds	r3, #1
     f16:	429a      	cmp	r2, r3
     f18:	d1ef      	bne.n	efa <boot_slots_compatible+0x26>
    if (num_sectors_pri > num_sectors_sec) {
     f1a:	4291      	cmp	r1, r2
     f1c:	d905      	bls.n	f2a <boot_slots_compatible+0x56>
     f1e:	6a43      	ldr	r3, [r0, #36]	; 0x24
     f20:	eb03 02c2 	add.w	r2, r3, r2, lsl #3
        if (sector_sz_pri != boot_img_sector_size(state, BOOT_PRIMARY_SLOT, i)) {
     f24:	6853      	ldr	r3, [r2, #4]
     f26:	42a3      	cmp	r3, r4
     f28:	d1f1      	bne.n	f0e <boot_slots_compatible+0x3a>
    return 1;
     f2a:	2001      	movs	r0, #1
     f2c:	e7df      	b.n	eee <boot_slots_compatible+0x1a>
    for (i = 0; i < num_sectors_sec; i++) {
     f2e:	2300      	movs	r3, #0
    size_t sector_sz_pri = 0;
     f30:	461c      	mov	r4, r3
     f32:	e7f0      	b.n	f16 <boot_slots_compatible+0x42>
     f34:	00007307 	.word	0x00007307
     f38:	0000733f 	.word	0x0000733f
     f3c:	0000736e 	.word	0x0000736e

00000f40 <swap_status_source>:
                 (state)->copy_done,                                \
                 (state)->image_ok)

int
swap_status_source(struct boot_loader_state *state)
{
     f40:	b500      	push	{lr}
     f42:	b089      	sub	sp, #36	; 0x24
    (void)state;
#endif

    image_index = BOOT_CURR_IMG(state);

    rc = boot_read_swap_state_by_id(FLASH_AREA_IMAGE_PRIMARY(image_index),
     f44:	2003      	movs	r0, #3
     f46:	a904      	add	r1, sp, #16
     f48:	f005 fc15 	bl	6776 <boot_read_swap_state_by_id>
            &state_primary_slot);
    assert(rc == 0);

    BOOT_LOG_SWAP_STATE("Primary image", &state_primary_slot);
     f4c:	f89d 2010 	ldrb.w	r2, [sp, #16]
     f50:	2a01      	cmp	r2, #1
     f52:	d041      	beq.n	fd8 <swap_status_source+0x98>
     f54:	4b25      	ldr	r3, [pc, #148]	; (fec <swap_status_source+0xac>)
     f56:	4926      	ldr	r1, [pc, #152]	; (ff0 <swap_status_source+0xb0>)
     f58:	2a03      	cmp	r2, #3
     f5a:	bf18      	it	ne
     f5c:	460b      	movne	r3, r1
     f5e:	f89d 2013 	ldrb.w	r2, [sp, #19]
     f62:	2149      	movs	r1, #73	; 0x49
     f64:	9202      	str	r2, [sp, #8]
     f66:	f89d 2012 	ldrb.w	r2, [sp, #18]
     f6a:	4822      	ldr	r0, [pc, #136]	; (ff4 <swap_status_source+0xb4>)
     f6c:	9201      	str	r2, [sp, #4]
     f6e:	f89d 2011 	ldrb.w	r2, [sp, #17]
     f72:	9200      	str	r2, [sp, #0]
     f74:	4a20      	ldr	r2, [pc, #128]	; (ff8 <swap_status_source+0xb8>)
     f76:	f005 f8d1 	bl	611c <z_log_minimal_printk>

    rc = boot_read_swap_state_by_id(FLASH_AREA_IMAGE_SECONDARY(image_index),
     f7a:	2009      	movs	r0, #9
     f7c:	a906      	add	r1, sp, #24
     f7e:	f005 fbfa 	bl	6776 <boot_read_swap_state_by_id>
            &state_secondary_slot);
    assert(rc == 0);

    BOOT_LOG_SWAP_STATE("Secondary image", &state_secondary_slot);
     f82:	f89d 2018 	ldrb.w	r2, [sp, #24]
     f86:	2a01      	cmp	r2, #1
     f88:	d028      	beq.n	fdc <swap_status_source+0x9c>
     f8a:	4b18      	ldr	r3, [pc, #96]	; (fec <swap_status_source+0xac>)
     f8c:	4918      	ldr	r1, [pc, #96]	; (ff0 <swap_status_source+0xb0>)
     f8e:	2a03      	cmp	r2, #3
     f90:	bf18      	it	ne
     f92:	460b      	movne	r3, r1
     f94:	f89d 201b 	ldrb.w	r2, [sp, #27]
     f98:	2149      	movs	r1, #73	; 0x49
     f9a:	9202      	str	r2, [sp, #8]
     f9c:	f89d 201a 	ldrb.w	r2, [sp, #26]
     fa0:	4814      	ldr	r0, [pc, #80]	; (ff4 <swap_status_source+0xb4>)
     fa2:	9201      	str	r2, [sp, #4]
     fa4:	f89d 2019 	ldrb.w	r2, [sp, #25]
     fa8:	9200      	str	r2, [sp, #0]
     faa:	4a14      	ldr	r2, [pc, #80]	; (ffc <swap_status_source+0xbc>)
     fac:	f005 f8b6 	bl	611c <z_log_minimal_printk>

    if (state_primary_slot.magic == BOOT_MAGIC_GOOD &&
     fb0:	f89d 3010 	ldrb.w	r3, [sp, #16]
     fb4:	2b01      	cmp	r3, #1
     fb6:	d113      	bne.n	fe0 <swap_status_source+0xa0>
     fb8:	f89d 3012 	ldrb.w	r3, [sp, #18]
     fbc:	2b03      	cmp	r3, #3
     fbe:	d10f      	bne.n	fe0 <swap_status_source+0xa0>
            state_primary_slot.copy_done == BOOT_FLAG_UNSET &&
     fc0:	f89d 3018 	ldrb.w	r3, [sp, #24]
     fc4:	2b01      	cmp	r3, #1
     fc6:	d00b      	beq.n	fe0 <swap_status_source+0xa0>
            state_secondary_slot.magic != BOOT_MAGIC_GOOD) {

        source = BOOT_STATUS_SOURCE_PRIMARY_SLOT;

        BOOT_LOG_INF("Boot source: primary slot");
     fc8:	480d      	ldr	r0, [pc, #52]	; (1000 <CONFIG_NORDIC_QSPI_NOR_FLASH_LAYOUT_PAGE_SIZE>)
     fca:	2149      	movs	r1, #73	; 0x49
     fcc:	f005 f8a6 	bl	611c <z_log_minimal_printk>
        return source;
     fd0:	2002      	movs	r0, #2
    }

    BOOT_LOG_INF("Boot source: none");
    return BOOT_STATUS_SOURCE_NONE;
}
     fd2:	b009      	add	sp, #36	; 0x24
     fd4:	f85d fb04 	ldr.w	pc, [sp], #4
    BOOT_LOG_SWAP_STATE("Primary image", &state_primary_slot);
     fd8:	4b0a      	ldr	r3, [pc, #40]	; (1004 <CONFIG_NORDIC_QSPI_NOR_FLASH_LAYOUT_PAGE_SIZE+0x4>)
     fda:	e7c0      	b.n	f5e <swap_status_source+0x1e>
    BOOT_LOG_SWAP_STATE("Secondary image", &state_secondary_slot);
     fdc:	4b09      	ldr	r3, [pc, #36]	; (1004 <CONFIG_NORDIC_QSPI_NOR_FLASH_LAYOUT_PAGE_SIZE+0x4>)
     fde:	e7d9      	b.n	f94 <swap_status_source+0x54>
    BOOT_LOG_INF("Boot source: none");
     fe0:	4809      	ldr	r0, [pc, #36]	; (1008 <CONFIG_NORDIC_QSPI_NOR_FLASH_LAYOUT_PAGE_SIZE+0x8>)
     fe2:	2149      	movs	r1, #73	; 0x49
     fe4:	f005 f89a 	bl	611c <z_log_minimal_printk>
    return BOOT_STATUS_SOURCE_NONE;
     fe8:	2000      	movs	r0, #0
     fea:	e7f2      	b.n	fd2 <swap_status_source+0x92>
     fec:	0000739f 	.word	0x0000739f
     ff0:	000073a5 	.word	0x000073a5
     ff4:	000073b7 	.word	0x000073b7
     ff8:	000073a9 	.word	0x000073a9
     ffc:	000073f8 	.word	0x000073f8
    1000:	00007408 	.word	0x00007408
    1004:	0000739a 	.word	0x0000739a
    1008:	00007427 	.word	0x00007427

0000100c <fixup_revert>:
 * upgrade (by initializing the secondary slot).
 */
void
fixup_revert(const struct boot_loader_state *state, struct boot_status *bs,
        const struct flash_area *fap_sec)
{
    100c:	b570      	push	{r4, r5, r6, lr}
#if (BOOT_IMAGE_NUMBER == 1)
    (void)state;
#endif

    /* No fixup required */
    if (bs->swap_type != BOOT_SWAP_TYPE_REVERT ||
    100e:	684b      	ldr	r3, [r1, #4]
{
    1010:	4614      	mov	r4, r2
    if (bs->swap_type != BOOT_SWAP_TYPE_REVERT ||
    1012:	4a1e      	ldr	r2, [pc, #120]	; (108c <fixup_revert+0x80>)
    1014:	f003 23ff 	and.w	r3, r3, #4278255360	; 0xff00ff00
    1018:	4293      	cmp	r3, r2
{
    101a:	4606      	mov	r6, r0
    101c:	460d      	mov	r5, r1
    101e:	b086      	sub	sp, #24
    if (bs->swap_type != BOOT_SWAP_TYPE_REVERT ||
    1020:	d12f      	bne.n	1082 <fixup_revert+0x76>
        bs->op != BOOT_STATUS_OP_MOVE ||
    1022:	680b      	ldr	r3, [r1, #0]
    1024:	2b01      	cmp	r3, #1
    1026:	d12c      	bne.n	1082 <fixup_revert+0x76>
        bs->idx != BOOT_STATUS_IDX_0) {
        return;
    }

    rc = boot_read_swap_state(fap_sec, &swap_state);
    1028:	4620      	mov	r0, r4
    102a:	a904      	add	r1, sp, #16
    102c:	f002 f926 	bl	327c <boot_read_swap_state>
    assert(rc == 0);

    BOOT_LOG_SWAP_STATE("Secondary image", &swap_state);
    1030:	f89d 2010 	ldrb.w	r2, [sp, #16]
    1034:	2a01      	cmp	r2, #1
    1036:	d026      	beq.n	1086 <fixup_revert+0x7a>
    1038:	4b15      	ldr	r3, [pc, #84]	; (1090 <fixup_revert+0x84>)
    103a:	4916      	ldr	r1, [pc, #88]	; (1094 <fixup_revert+0x88>)
    103c:	2a03      	cmp	r2, #3
    103e:	bf18      	it	ne
    1040:	460b      	movne	r3, r1
    1042:	f89d 2013 	ldrb.w	r2, [sp, #19]
    1046:	2149      	movs	r1, #73	; 0x49
    1048:	9202      	str	r2, [sp, #8]
    104a:	f89d 2012 	ldrb.w	r2, [sp, #18]
    104e:	4812      	ldr	r0, [pc, #72]	; (1098 <fixup_revert+0x8c>)
    1050:	9201      	str	r2, [sp, #4]
    1052:	f89d 2011 	ldrb.w	r2, [sp, #17]
    1056:	9200      	str	r2, [sp, #0]
    1058:	4a10      	ldr	r2, [pc, #64]	; (109c <fixup_revert+0x90>)
    105a:	f005 f85f 	bl	611c <z_log_minimal_printk>

    if (swap_state.magic == BOOT_MAGIC_UNSET) {
    105e:	f89d 3010 	ldrb.w	r3, [sp, #16]
    1062:	2b03      	cmp	r3, #3
    1064:	d10d      	bne.n	1082 <fixup_revert+0x76>
        rc = swap_erase_trailer_sectors(state, fap_sec);
    1066:	4621      	mov	r1, r4
    1068:	4630      	mov	r0, r6
    106a:	f004 fdcf 	bl	5c0c <swap_erase_trailer_sectors>
        assert(rc == 0);

        rc = boot_write_image_ok(fap_sec);
    106e:	4620      	mov	r0, r4
    1070:	f005 fb74 	bl	675c <boot_write_image_ok>
        assert(rc == 0);

        rc = boot_write_swap_size(fap_sec, bs->swap_size);
    1074:	4620      	mov	r0, r4
    1076:	68a9      	ldr	r1, [r5, #8]
    1078:	f004 fcf4 	bl	5a64 <boot_write_swap_size>
        assert(rc == 0);

        rc = boot_write_magic(fap_sec);
    107c:	4620      	mov	r0, r4
    107e:	f002 f8dd 	bl	323c <boot_write_magic>
        assert(rc == 0);
    }
}
    1082:	b006      	add	sp, #24
    1084:	bd70      	pop	{r4, r5, r6, pc}
    BOOT_LOG_SWAP_STATE("Secondary image", &swap_state);
    1086:	4b06      	ldr	r3, [pc, #24]	; (10a0 <fixup_revert+0x94>)
    1088:	e7db      	b.n	1042 <fixup_revert+0x36>
    108a:	bf00      	nop
    108c:	04000100 	.word	0x04000100
    1090:	0000739f 	.word	0x0000739f
    1094:	000073a5 	.word	0x000073a5
    1098:	000073b7 	.word	0x000073b7
    109c:	000073f8 	.word	0x000073f8
    10a0:	0000739a 	.word	0x0000739a

000010a4 <swap_run>:

void
swap_run(struct boot_loader_state *state, struct boot_status *bs,
         uint32_t copy_size)
{
    10a4:	e92d 4ff0 	stmdb	sp!, {r4, r5, r6, r7, r8, r9, sl, fp, lr}
    10a8:	ed2d 8b02 	vpush	{d8}
    10ac:	4605      	mov	r5, r0
    10ae:	460c      	mov	r4, r1
    uint8_t image_index;
    const struct flash_area *fap_pri;
    const struct flash_area *fap_sec;
    int rc;

    BOOT_LOG_INF("Starting swap using move algorithm.");
    10b0:	4885      	ldr	r0, [pc, #532]	; (12c8 <swap_run+0x224>)
    10b2:	2149      	movs	r1, #73	; 0x49
{
    10b4:	b089      	sub	sp, #36	; 0x24
    10b6:	4617      	mov	r7, r2
    BOOT_LOG_INF("Starting swap using move algorithm.");
    10b8:	f005 f830 	bl	611c <z_log_minimal_printk>
    10bc:	6a6b      	ldr	r3, [r5, #36]	; 0x24
    10be:	2201      	movs	r2, #1
    10c0:	685e      	ldr	r6, [r3, #4]

    sz = 0;
    10c2:	2300      	movs	r3, #0
    g_last_idx = 0;

    sector_sz = boot_img_sector_size(state, BOOT_PRIMARY_SLOT, 0);
    while (1) {
        sz += sector_sz;
    10c4:	4433      	add	r3, r6
        /* Skip to next sector because all sectors will be moved up. */
        g_last_idx++;
        if (sz >= copy_size) {
    10c6:	429f      	cmp	r7, r3
    10c8:	4611      	mov	r1, r2
    10ca:	f102 0201 	add.w	r2, r2, #1
    10ce:	d8f9      	bhi.n	10c4 <swap_run+0x20>
    10d0:	f8df b200 	ldr.w	fp, [pc, #512]	; 12d4 <swap_run+0x230>
    }

    /*
     * When starting a new swap upgrade, check that there is enough space.
     */
    if (boot_status_is_reset(bs)) {
    10d4:	4620      	mov	r0, r4
    10d6:	f8cb 1000 	str.w	r1, [fp]
    10da:	f004 fd56 	bl	5b8a <boot_status_is_reset>
    10de:	b318      	cbz	r0, 1128 <swap_run+0x84>
        sz = 0;
        trailer_sz = boot_trailer_sz(BOOT_WRITE_SZ(state));
    10e0:	6de8      	ldr	r0, [r5, #92]	; 0x5c
    10e2:	f004 fc9a 	bl	5a1a <boot_trailer_sz>
        sz = 0;
    10e6:	2300      	movs	r3, #0
        first_trailer_idx = boot_img_num_sectors(state, BOOT_PRIMARY_SLOT) - 1;
    10e8:	6aaf      	ldr	r7, [r5, #40]	; 0x28
    10ea:	3f01      	subs	r7, #1

        while (1) {
            sz += sector_sz;
    10ec:	4433      	add	r3, r6
            if  (sz >= trailer_sz) {
    10ee:	4283      	cmp	r3, r0
    10f0:	d201      	bcs.n	10f6 <swap_run+0x52>
                break;
            }
            first_trailer_idx--;
    10f2:	3f01      	subs	r7, #1
            sz += sector_sz;
    10f4:	e7fa      	b.n	10ec <swap_run+0x48>
        }

        if (g_last_idx >= first_trailer_idx) {
    10f6:	f8db 3000 	ldr.w	r3, [fp]
    10fa:	42bb      	cmp	r3, r7
    10fc:	d314      	bcc.n	1128 <swap_run+0x84>
            BOOT_LOG_WRN("Not enough free space to run swap upgrade");
    10fe:	2157      	movs	r1, #87	; 0x57
    1100:	4872      	ldr	r0, [pc, #456]	; (12cc <swap_run+0x228>)
    1102:	f005 f80b 	bl	611c <z_log_minimal_printk>
            BOOT_LOG_WRN("required %d bytes but only %d are available",
    1106:	f8db 2000 	ldr.w	r2, [fp]
    110a:	fb07 f306 	mul.w	r3, r7, r6
    110e:	2157      	movs	r1, #87	; 0x57
    1110:	fb02 6206 	mla	r2, r2, r6, r6
    1114:	486e      	ldr	r0, [pc, #440]	; (12d0 <swap_run+0x22c>)
    1116:	f005 f801 	bl	611c <z_log_minimal_printk>
                         (g_last_idx + 1) * sector_sz ,
                         first_trailer_idx * sector_sz);
            bs->swap_type = BOOT_SWAP_TYPE_NONE;
    111a:	2301      	movs	r3, #1
    111c:	71e3      	strb	r3, [r4, #7]
        idx++;
    }

    flash_area_close(fap_pri);
    flash_area_close(fap_sec);
}
    111e:	b009      	add	sp, #36	; 0x24
    1120:	ecbd 8b02 	vpop	{d8}
    1124:	e8bd 8ff0 	ldmia.w	sp!, {r4, r5, r6, r7, r8, r9, sl, fp, pc}
    rc = flash_area_open(FLASH_AREA_IMAGE_PRIMARY(image_index), &fap_pri);
    1128:	a906      	add	r1, sp, #24
    112a:	2003      	movs	r0, #3
    112c:	f000 fcca 	bl	1ac4 <flash_area_open>
    rc = flash_area_open(FLASH_AREA_IMAGE_SECONDARY(image_index), &fap_sec);
    1130:	a907      	add	r1, sp, #28
    1132:	2009      	movs	r0, #9
    1134:	f000 fcc6 	bl	1ac4 <flash_area_open>
    fixup_revert(state, bs, fap_sec);
    1138:	4621      	mov	r1, r4
    113a:	4628      	mov	r0, r5
    113c:	9a07      	ldr	r2, [sp, #28]
    113e:	f7ff ff65 	bl	100c <fixup_revert>
    if (bs->op == BOOT_STATUS_OP_MOVE) {
    1142:	7963      	ldrb	r3, [r4, #5]
    1144:	2b01      	cmp	r3, #1
    1146:	d108      	bne.n	115a <swap_run+0xb6>
        idx = g_last_idx;
    1148:	f8db 7000 	ldr.w	r7, [fp]
    BOOT_STATUS_ASSERT(rc == 0);
    114c:	f8df a188 	ldr.w	sl, [pc, #392]	; 12d8 <swap_run+0x234>
            if (idx <= (g_last_idx - bs->idx + 1)) {
    1150:	f8db 3000 	ldr.w	r3, [fp]
        while (idx > 0) {
    1154:	b9a7      	cbnz	r7, 1180 <swap_run+0xdc>
        bs->idx = BOOT_STATUS_IDX_0;
    1156:	2301      	movs	r3, #1
    1158:	6023      	str	r3, [r4, #0]
    bs->op = BOOT_STATUS_OP_SWAP;
    115a:	f04f 0302 	mov.w	r3, #2
    idx = 1;
    115e:	2701      	movs	r7, #1
        BOOT_STATUS_ASSERT(rc == 0);
    1160:	f8df 8174 	ldr.w	r8, [pc, #372]	; 12d8 <swap_run+0x234>
    bs->op = BOOT_STATUS_OP_SWAP;
    1164:	7163      	strb	r3, [r4, #5]
    while (idx <= g_last_idx) {
    1166:	f8db 3000 	ldr.w	r3, [fp]
            boot_swap_sectors(idx, sector_sz, state, bs, fap_pri, fap_sec);
    116a:	f8dd 9018 	ldr.w	r9, [sp, #24]
    while (idx <= g_last_idx) {
    116e:	429f      	cmp	r7, r3
    1170:	d94d      	bls.n	120e <swap_run+0x16a>
    flash_area_close(fap_pri);
    1172:	4648      	mov	r0, r9
    1174:	f004 ffdf 	bl	6136 <flash_area_close>
    flash_area_close(fap_sec);
    1178:	9807      	ldr	r0, [sp, #28]
    117a:	f004 ffdc 	bl	6136 <flash_area_close>
    117e:	e7ce      	b.n	111e <swap_run+0x7a>
            if (idx <= (g_last_idx - bs->idx + 1)) {
    1180:	6822      	ldr	r2, [r4, #0]
    1182:	3301      	adds	r3, #1
    1184:	1a9b      	subs	r3, r3, r2
    1186:	429f      	cmp	r7, r3
    1188:	d83f      	bhi.n	120a <swap_run+0x166>

static inline uint32_t
boot_img_sector_off(const struct boot_loader_state *state, size_t slot,
                    size_t sector)
{
    return flash_sector_get_off(&BOOT_IMG(state, slot).sectors[sector]) -
    118a:	6a6b      	ldr	r3, [r5, #36]	; 0x24
    if (bs->idx == BOOT_STATUS_IDX_0) {
    118c:	2a01      	cmp	r2, #1
	return fs->fs_off;
    118e:	6819      	ldr	r1, [r3, #0]
    1190:	f853 0037 	ldr.w	r0, [r3, r7, lsl #3]
    1194:	eb03 03c7 	add.w	r3, r3, r7, lsl #3
    1198:	f853 3c08 	ldr.w	r3, [r3, #-8]
                boot_move_sector_up(idx, sector_sz, state, bs, fap_pri, fap_sec);
    119c:	f8dd 8018 	ldr.w	r8, [sp, #24]
    11a0:	eba3 0301 	sub.w	r3, r3, r1
    11a4:	ee08 3a10 	vmov	s16, r3
    11a8:	eba0 0901 	sub.w	r9, r0, r1
    if (bs->idx == BOOT_STATUS_IDX_0) {
    11ac:	d112      	bne.n	11d4 <swap_run+0x130>
        if (bs->source != BOOT_STATUS_SOURCE_PRIMARY_SLOT) {
    11ae:	68e2      	ldr	r2, [r4, #12]
                boot_move_sector_up(idx, sector_sz, state, bs, fap_pri, fap_sec);
    11b0:	9b07      	ldr	r3, [sp, #28]
        if (bs->source != BOOT_STATUS_SOURCE_PRIMARY_SLOT) {
    11b2:	2a02      	cmp	r2, #2
    11b4:	d00a      	beq.n	11cc <swap_run+0x128>
            rc = swap_erase_trailer_sectors(state, fap_pri);
    11b6:	4641      	mov	r1, r8
    11b8:	4628      	mov	r0, r5
    11ba:	9302      	str	r3, [sp, #8]
    11bc:	f004 fd26 	bl	5c0c <swap_erase_trailer_sectors>
            rc = swap_status_init(state, fap_pri, bs);
    11c0:	4622      	mov	r2, r4
    11c2:	4641      	mov	r1, r8
    11c4:	4628      	mov	r0, r5
    11c6:	f004 fd57 	bl	5c78 <swap_status_init>
    11ca:	9b02      	ldr	r3, [sp, #8]
        rc = swap_erase_trailer_sectors(state, fap_sec);
    11cc:	4619      	mov	r1, r3
    11ce:	4628      	mov	r0, r5
    11d0:	f004 fd1c 	bl	5c0c <swap_erase_trailer_sectors>
    rc = boot_erase_region(fap_pri, new_off, sz);
    11d4:	4632      	mov	r2, r6
    11d6:	4649      	mov	r1, r9
    11d8:	4640      	mov	r0, r8
    11da:	f004 fd15 	bl	5c08 <boot_erase_region>
    rc = boot_copy_region(state, fap_pri, fap_pri, old_off, new_off, sz);
    11de:	ee18 3a10 	vmov	r3, s16
    11e2:	4642      	mov	r2, r8
    11e4:	4641      	mov	r1, r8
    11e6:	4628      	mov	r0, r5
    11e8:	e9cd 9600 	strd	r9, r6, [sp]
    11ec:	f7ff fc3e 	bl	a6c <boot_copy_region>
    rc = boot_write_status(state, bs);
    11f0:	4621      	mov	r1, r4
    11f2:	4628      	mov	r0, r5
    11f4:	f004 fcd6 	bl	5ba4 <boot_write_status>
    bs->idx++;
    11f8:	6823      	ldr	r3, [r4, #0]
    11fa:	3301      	adds	r3, #1
    11fc:	6023      	str	r3, [r4, #0]
    BOOT_STATUS_ASSERT(rc == 0);
    11fe:	b120      	cbz	r0, 120a <swap_run+0x166>
    1200:	f8da 3000 	ldr.w	r3, [sl]
    1204:	3301      	adds	r3, #1
    1206:	f8ca 3000 	str.w	r3, [sl]
            idx--;
    120a:	3f01      	subs	r7, #1
    120c:	e7a0      	b.n	1150 <swap_run+0xac>
        if (idx >= bs->idx) {
    120e:	6823      	ldr	r3, [r4, #0]
    1210:	429f      	cmp	r7, r3
    1212:	d357      	bcc.n	12c4 <swap_run+0x220>
    1214:	6a69      	ldr	r1, [r5, #36]	; 0x24
    1216:	6d28      	ldr	r0, [r5, #80]	; 0x50
    1218:	f851 3037 	ldr.w	r3, [r1, r7, lsl #3]
    121c:	00fa      	lsls	r2, r7, #3
    121e:	9303      	str	r3, [sp, #12]
    1220:	680b      	ldr	r3, [r1, #0]
    1222:	3a08      	subs	r2, #8
    1224:	f850 c002 	ldr.w	ip, [r0, r2]
    1228:	9302      	str	r3, [sp, #8]
    122a:	6803      	ldr	r3, [r0, #0]
    if (bs->state == BOOT_STATUS_STATE_0) {
    122c:	7920      	ldrb	r0, [r4, #4]
            boot_swap_sectors(idx, sector_sz, state, bs, fap_pri, fap_sec);
    122e:	f8dd a01c 	ldr.w	sl, [sp, #28]
    if (bs->state == BOOT_STATUS_STATE_0) {
    1232:	2801      	cmp	r0, #1
    1234:	ebac 0303 	sub.w	r3, ip, r3
    1238:	d142      	bne.n	12c0 <swap_run+0x21c>
    123a:	5889      	ldr	r1, [r1, r2]
    123c:	9305      	str	r3, [sp, #20]
    123e:	9b02      	ldr	r3, [sp, #8]
        rc = boot_erase_region(fap_pri, pri_off, sz);
    1240:	4632      	mov	r2, r6
    1242:	1ac9      	subs	r1, r1, r3
    1244:	4648      	mov	r0, r9
    1246:	9104      	str	r1, [sp, #16]
    1248:	f004 fcde 	bl	5c08 <boot_erase_region>
        rc = boot_copy_region(state, fap_sec, fap_pri, sec_off, pri_off, sz);
    124c:	9904      	ldr	r1, [sp, #16]
    124e:	9b05      	ldr	r3, [sp, #20]
    1250:	464a      	mov	r2, r9
    1252:	9100      	str	r1, [sp, #0]
    1254:	4628      	mov	r0, r5
    1256:	4651      	mov	r1, sl
    1258:	9601      	str	r6, [sp, #4]
    125a:	9304      	str	r3, [sp, #16]
    125c:	f7ff fc06 	bl	a6c <boot_copy_region>
        rc = boot_write_status(state, bs);
    1260:	4621      	mov	r1, r4
    1262:	4628      	mov	r0, r5
    1264:	f004 fc9e 	bl	5ba4 <boot_write_status>
        bs->state = BOOT_STATUS_STATE_1;
    1268:	f04f 0302 	mov.w	r3, #2
    126c:	7123      	strb	r3, [r4, #4]
        BOOT_STATUS_ASSERT(rc == 0);
    126e:	9b04      	ldr	r3, [sp, #16]
    1270:	b120      	cbz	r0, 127c <swap_run+0x1d8>
    1272:	f8d8 2000 	ldr.w	r2, [r8]
    1276:	3201      	adds	r2, #1
    1278:	f8c8 2000 	str.w	r2, [r8]
        rc = boot_erase_region(fap_sec, sec_off, sz);
    127c:	4619      	mov	r1, r3
    127e:	4632      	mov	r2, r6
    1280:	4650      	mov	r0, sl
    1282:	9304      	str	r3, [sp, #16]
    1284:	f004 fcc0 	bl	5c08 <boot_erase_region>
        rc = boot_copy_region(state, fap_pri, fap_sec, pri_up_off, sec_off, sz);
    1288:	9b04      	ldr	r3, [sp, #16]
    128a:	4649      	mov	r1, r9
    128c:	9300      	str	r3, [sp, #0]
    128e:	4628      	mov	r0, r5
    1290:	e9dd 2302 	ldrd	r2, r3, [sp, #8]
    1294:	9601      	str	r6, [sp, #4]
    1296:	1a9b      	subs	r3, r3, r2
    1298:	4652      	mov	r2, sl
    129a:	f7ff fbe7 	bl	a6c <boot_copy_region>
        rc = boot_write_status(state, bs);
    129e:	4621      	mov	r1, r4
    12a0:	4628      	mov	r0, r5
    12a2:	f004 fc7f 	bl	5ba4 <boot_write_status>
        bs->idx++;
    12a6:	6823      	ldr	r3, [r4, #0]
    12a8:	3301      	adds	r3, #1
    12aa:	6023      	str	r3, [r4, #0]
        bs->state = BOOT_STATUS_STATE_0;
    12ac:	f04f 0301 	mov.w	r3, #1
    12b0:	7123      	strb	r3, [r4, #4]
        BOOT_STATUS_ASSERT(rc == 0);
    12b2:	b138      	cbz	r0, 12c4 <swap_run+0x220>
    12b4:	f8d8 3000 	ldr.w	r3, [r8]
    12b8:	3301      	adds	r3, #1
    12ba:	f8c8 3000 	str.w	r3, [r8]
    12be:	e001      	b.n	12c4 <swap_run+0x220>
    if (bs->state == BOOT_STATUS_STATE_1) {
    12c0:	2802      	cmp	r0, #2
    12c2:	d0db      	beq.n	127c <swap_run+0x1d8>
        idx++;
    12c4:	3701      	adds	r7, #1
    12c6:	e74e      	b.n	1166 <swap_run+0xc2>
    12c8:	0000743e 	.word	0x0000743e
    12cc:	00007467 	.word	0x00007467
    12d0:	00007496 	.word	0x00007496
    12d4:	200144ec 	.word	0x200144ec
    12d8:	20015318 	.word	0x20015318

000012dc <cc310_init>:
 */

#include "cc310_glue.h"

int cc310_init(void)
{
    12dc:	b570      	push	{r4, r5, r6, lr}
    /* Only initialize once */
    static bool initialized;

    if (!initialized) {
    12de:	4d09      	ldr	r5, [pc, #36]	; (1304 <cc310_init+0x28>)
    12e0:	782b      	ldrb	r3, [r5, #0]
    12e2:	b953      	cbnz	r3, 12fa <cc310_init+0x1e>
    NRF_CRYPTOCELL->ENABLE=1;
    12e4:	2601      	movs	r6, #1
    12e6:	4c08      	ldr	r4, [pc, #32]	; (1308 <cc310_init+0x2c>)
    12e8:	f8c4 6500 	str.w	r6, [r4, #1280]	; 0x500
        nrf_cc310_enable();
        if (nrf_cc310_bl_init() != 0) {
    12ec:	f003 faa0 	bl	4830 <nrf_cc310_bl_init>
    12f0:	b928      	cbnz	r0, 12fe <cc310_init+0x22>
            return -1;
        }
        initialized = true;
    12f2:	702e      	strb	r6, [r5, #0]
    NRF_CRYPTOCELL->ENABLE=0;
    12f4:	f8c4 0500 	str.w	r0, [r4, #1280]	; 0x500
        nrf_cc310_disable();
    }

    return 0;
}
    12f8:	bd70      	pop	{r4, r5, r6, pc}
    return 0;
    12fa:	2000      	movs	r0, #0
    12fc:	e7fc      	b.n	12f8 <cc310_init+0x1c>
            return -1;
    12fe:	f04f 30ff 	mov.w	r0, #4294967295
    1302:	e7f9      	b.n	12f8 <cc310_init+0x1c>
    1304:	200154cc 	.word	0x200154cc
    1308:	50840000 	.word	0x50840000

0000130c <cc310_ecdsa_verify_secp256r1>:

int cc310_ecdsa_verify_secp256r1(uint8_t *hash,
                                 uint8_t *public_key,
                                 uint8_t *signature,
                                 size_t hash_len)
{
    130c:	b570      	push	{r4, r5, r6, lr}
    130e:	b0ae      	sub	sp, #184	; 0xb8
    1310:	461d      	mov	r5, r3
    1312:	4604      	mov	r4, r0
    1314:	e9cd 2102 	strd	r2, r1, [sp, #8]
        int rc;
        nrf_cc310_bl_ecdsa_verify_context_secp256r1_t ctx;
        cc310_init();
    1318:	f7ff ffe0 	bl	12dc <cc310_init>
        nrf_cc310_enable();
        rc = nrf_cc310_bl_ecdsa_verify_secp256r1(&ctx,
    131c:	e9dd 2102 	ldrd	r2, r1, [sp, #8]
    NRF_CRYPTOCELL->ENABLE=1;
    1320:	2301      	movs	r3, #1
    1322:	4e06      	ldr	r6, [pc, #24]	; (133c <cc310_ecdsa_verify_secp256r1+0x30>)
    1324:	a805      	add	r0, sp, #20
    1326:	f8c6 3500 	str.w	r3, [r6, #1280]	; 0x500
    132a:	4623      	mov	r3, r4
    132c:	9500      	str	r5, [sp, #0]
    132e:	f005 fb1a 	bl	6966 <nrf_cc310_bl_ecdsa_verify_secp256r1>
    NRF_CRYPTOCELL->ENABLE=0;
    1332:	2300      	movs	r3, #0
    1334:	f8c6 3500 	str.w	r3, [r6, #1280]	; 0x500
                                                 (nrf_cc310_bl_ecc_signature_secp256r1_t  *) signature,
                                                 hash,
                                                 hash_len);
        nrf_cc310_disable();
        return rc;
}
    1338:	b02e      	add	sp, #184	; 0xb8
    133a:	bd70      	pop	{r4, r5, r6, pc}
    133c:	50840000 	.word	0x50840000

00001340 <cleanup_arm_nvic>:
    1340:	f3bf 8f6f 	isb	sy
  __ASM volatile ("cpsid i" : : : "memory");
    1344:	b672      	cpsid	i
    1346:	2300      	movs	r3, #0
	__ISB();
	__disable_irq();

	/* Disable NVIC interrupts */
	for (uint8_t i = 0; i < ARRAY_SIZE(NVIC->ICER); i++) {
		NVIC->ICER[i] = 0xFFFFFFFF;
    1348:	f04f 30ff 	mov.w	r0, #4294967295
    134c:	4a09      	ldr	r2, [pc, #36]	; (1374 <cleanup_arm_nvic+0x34>)
    134e:	f103 0120 	add.w	r1, r3, #32
	for (uint8_t i = 0; i < ARRAY_SIZE(NVIC->ICER); i++) {
    1352:	3301      	adds	r3, #1
    1354:	2b10      	cmp	r3, #16
		NVIC->ICER[i] = 0xFFFFFFFF;
    1356:	f842 0021 	str.w	r0, [r2, r1, lsl #2]
	for (uint8_t i = 0; i < ARRAY_SIZE(NVIC->ICER); i++) {
    135a:	d1f8      	bne.n	134e <cleanup_arm_nvic+0xe>
    135c:	2300      	movs	r3, #0
	}
	/* Clear pending NVIC interrupts */
	for (uint8_t i = 0; i < ARRAY_SIZE(NVIC->ICPR); i++) {
		NVIC->ICPR[i] = 0xFFFFFFFF;
    135e:	f04f 30ff 	mov.w	r0, #4294967295
    1362:	f103 0160 	add.w	r1, r3, #96	; 0x60
	for (uint8_t i = 0; i < ARRAY_SIZE(NVIC->ICPR); i++) {
    1366:	3301      	adds	r3, #1
    1368:	2b10      	cmp	r3, #16
		NVIC->ICPR[i] = 0xFFFFFFFF;
    136a:	f842 0021 	str.w	r0, [r2, r1, lsl #2]
	for (uint8_t i = 0; i < ARRAY_SIZE(NVIC->ICPR); i++) {
    136e:	d1f8      	bne.n	1362 <cleanup_arm_nvic+0x22>
	}
}
    1370:	4770      	bx	lr
    1372:	bf00      	nop
    1374:	e000e100 	.word	0xe000e100

00001378 <nrf_cleanup_peripheral>:
{
    nrf_clock_int_disable(NRF_CLOCK, 0xFFFFFFFF);
}

void nrf_cleanup_peripheral(void)
{
    1378:	b510      	push	{r4, lr}
    return (uint32_t)p_reg + task;
}

NRF_STATIC_INLINE void nrf_rtc_task_trigger(NRF_RTC_Type * p_reg, nrf_rtc_task_t task)
{
    *(__IO uint32_t *)((uint32_t)p_reg + task) = 1;
    137a:	2201      	movs	r2, #1
    p_reg->EVTENSET = mask;
}

NRF_STATIC_INLINE void nrf_rtc_event_disable(NRF_RTC_Type * p_reg, uint32_t mask)
{
    p_reg->EVTENCLR = mask;
    137c:	f04f 34ff 	mov.w	r4, #4294967295
    p_reg->ENABLE = UARTE_ENABLE_ENABLE_Enabled;
}

NRF_STATIC_INLINE void nrf_uarte_disable(NRF_UARTE_Type * p_reg)
{
    p_reg->ENABLE = UARTE_ENABLE_ENABLE_Disabled;
    1380:	2100      	movs	r1, #0
    *(__IO uint32_t *)((uint32_t)p_reg + task) = 1;
    1382:	4b19      	ldr	r3, [pc, #100]	; (13e8 <nrf_cleanup_peripheral+0x70>)
#if defined(NRF_UARTE0)
    nrf_uarte_disable(NRF_UARTE0);
    nrf_uarte_int_disable(NRF_UARTE0, 0xFFFFFFFF);
#if defined(NRF_DPPIC)
    /* Clear all SUBSCRIBE configurations. */
    memset((uint8_t *)NRF_UARTE0 + NRF_UARTE_SUBSCRIBE_CONF_OFFS, 0, NRF_UARTE_SUBSCRIBE_CONF_SIZE);
    1384:	4819      	ldr	r0, [pc, #100]	; (13ec <nrf_cleanup_peripheral+0x74>)
    1386:	605a      	str	r2, [r3, #4]
    p_reg->EVTENCLR = mask;
    1388:	f8c3 4348 	str.w	r4, [r3, #840]	; 0x348
    p_reg->INTENCLR = mask;
    138c:	f8c3 4308 	str.w	r4, [r3, #776]	; 0x308
    *(__IO uint32_t *)((uint32_t)p_reg + task) = 1;
    1390:	f503 5380 	add.w	r3, r3, #4096	; 0x1000
    1394:	605a      	str	r2, [r3, #4]
    p_reg->EVTENCLR = mask;
    1396:	f8c3 4348 	str.w	r4, [r3, #840]	; 0x348
    p_reg->INTENCLR = mask;
    139a:	f8c3 4308 	str.w	r4, [r3, #776]	; 0x308
    139e:	f5a3 4350 	sub.w	r3, r3, #53248	; 0xd000
    13a2:	f8c3 1500 	str.w	r1, [r3, #1280]	; 0x500
    13a6:	2280      	movs	r2, #128	; 0x80
    p_reg->INTENCLR = mask;
    13a8:	f8c3 4308 	str.w	r4, [r3, #776]	; 0x308
    13ac:	f004 ff86 	bl	62bc <memset>
    /* Clear all PUBLISH configurations. */
    memset((uint8_t *)NRF_UARTE0 + NRF_UARTE_PUBLISH_CONF_OFFS, 0, NRF_UARTE_PUBLISH_CONF_SIZE);
    13b0:	2280      	movs	r2, #128	; 0x80
    13b2:	2100      	movs	r1, #0
    13b4:	480e      	ldr	r0, [pc, #56]	; (13f0 <nrf_cleanup_peripheral+0x78>)
    13b6:	f004 ff81 	bl	62bc <memset>
    p_reg->ENABLE = UARTE_ENABLE_ENABLE_Disabled;
    13ba:	2100      	movs	r1, #0
    13bc:	4b0d      	ldr	r3, [pc, #52]	; (13f4 <nrf_cleanup_peripheral+0x7c>)
#if defined(NRF_UARTE1)
    nrf_uarte_disable(NRF_UARTE1);
    nrf_uarte_int_disable(NRF_UARTE1, 0xFFFFFFFF);
#if defined(NRF_DPPIC)
    /* Clear all SUBSCRIBE configurations. */
    memset((uint8_t *)NRF_UARTE1 + NRF_UARTE_SUBSCRIBE_CONF_OFFS, 0, NRF_UARTE_SUBSCRIBE_CONF_SIZE);
    13be:	2280      	movs	r2, #128	; 0x80
    13c0:	f8c3 1500 	str.w	r1, [r3, #1280]	; 0x500
    13c4:	480c      	ldr	r0, [pc, #48]	; (13f8 <nrf_cleanup_peripheral+0x80>)
    p_reg->INTENCLR = mask;
    13c6:	f8c3 4308 	str.w	r4, [r3, #776]	; 0x308
    13ca:	f004 ff77 	bl	62bc <memset>
    /* Clear all PUBLISH configurations. */
    memset((uint8_t *)NRF_UARTE1 + NRF_UARTE_PUBLISH_CONF_OFFS, 0, NRF_UARTE_PUBLISH_CONF_SIZE);
    13ce:	2280      	movs	r2, #128	; 0x80
    13d0:	2100      	movs	r1, #0
    13d2:	480a      	ldr	r0, [pc, #40]	; (13fc <nrf_cleanup_peripheral+0x84>)
    13d4:	f004 ff72 	bl	62bc <memset>
    return ((p_reg->CHEN & (DPPIC_CHEN_CH0_Enabled << (DPPIC_CHEN_CH0_Pos + channel))) != 0);
}

NRF_STATIC_INLINE void nrf_dppi_channels_disable_all(NRF_DPPIC_Type * p_reg)
{
    p_reg->CHENCLR = 0xFFFFFFFFuL;
    13d8:	4b09      	ldr	r3, [pc, #36]	; (1400 <nrf_cleanup_peripheral+0x88>)
    13da:	f8c3 4508 	str.w	r4, [r3, #1288]	; 0x508
    p_reg->INTENSET = mask;
}

NRF_STATIC_INLINE void nrf_clock_int_disable(NRF_CLOCK_Type * p_reg, uint32_t mask)
{
    p_reg->INTENCLR = mask;
    13de:	f04f 2350 	mov.w	r3, #1342197760	; 0x50005000
    13e2:	f8c3 4308 	str.w	r4, [r3, #776]	; 0x308
#endif
#if defined(NRF_DPPIC)
    nrf_dppi_channels_disable_all(NRF_DPPIC);
#endif
    nrf_cleanup_clock();
}
    13e6:	bd10      	pop	{r4, pc}
    13e8:	50014000 	.word	0x50014000
    13ec:	50008080 	.word	0x50008080
    13f0:	50008180 	.word	0x50008180
    13f4:	50009000 	.word	0x50009000
    13f8:	50009080 	.word	0x50009080
    13fc:	50009180 	.word	0x50009180
    1400:	50017000 	.word	0x50017000

00001404 <char_out>:

static int char_out(int c, void *ctx_p)
{
	struct out_context *ctx = ctx_p;

	ctx->count++;
    1404:	680b      	ldr	r3, [r1, #0]
    1406:	3301      	adds	r3, #1
    1408:	600b      	str	r3, [r1, #0]
	return _char_out(c);
    140a:	4b01      	ldr	r3, [pc, #4]	; (1410 <char_out+0xc>)
    140c:	681b      	ldr	r3, [r3, #0]
    140e:	4718      	bx	r3
    1410:	200144f0 	.word	0x200144f0

00001414 <__printk_hook_install>:
	_char_out = fn;
    1414:	4b01      	ldr	r3, [pc, #4]	; (141c <__printk_hook_install+0x8>)
    1416:	6018      	str	r0, [r3, #0]
}
    1418:	4770      	bx	lr
    141a:	bf00      	nop
    141c:	200144f0 	.word	0x200144f0

00001420 <vprintk>:
}

void vprintk(const char *fmt, va_list ap)
{
    1420:	b507      	push	{r0, r1, r2, lr}
    1422:	460b      	mov	r3, r1

		if (ctx.buf_count) {
			buf_flush(&ctx);
		}
	} else {
		struct out_context ctx = { 0 };
    1424:	2100      	movs	r1, #0
{
    1426:	4602      	mov	r2, r0
		struct out_context ctx = { 0 };
    1428:	9101      	str	r1, [sp, #4]
#ifdef CONFIG_PRINTK_SYNC
		k_spinlock_key_t key = k_spin_lock(&lock);
#endif

		cbvprintf(char_out, &ctx, fmt, ap);
    142a:	4803      	ldr	r0, [pc, #12]	; (1438 <vprintk+0x18>)
    142c:	a901      	add	r1, sp, #4
    142e:	f000 f8e9 	bl	1604 <cbvprintf>

#ifdef CONFIG_PRINTK_SYNC
		k_spin_unlock(&lock, key);
#endif
	}
}
    1432:	b003      	add	sp, #12
    1434:	f85d fb04 	ldr.w	pc, [sp], #4
    1438:	00001405 	.word	0x00001405

0000143c <process_event>:
 * regions.
 */
static void process_event(struct onoff_manager *mgr,
			  int evt,
			  k_spinlock_key_t key)
{
    143c:	e92d 4ff7 	stmdb	sp!, {r0, r1, r2, r4, r5, r6, r7, r8, r9, sl, fp, lr}
	sys_slist_t clients;
	uint32_t state = mgr->flags & ONOFF_STATE_MASK;
    1440:	f8b0 9018 	ldrh.w	r9, [r0, #24]
{
    1444:	4604      	mov	r4, r0
	__ASSERT_NO_MSG(evt != EVT_NOP);

	/* If this is a nested call record the event for processing in
	 * the top invocation.
	 */
	if (processing) {
    1446:	f019 0808 	ands.w	r8, r9, #8
{
    144a:	4693      	mov	fp, r2
	if (processing) {
    144c:	d00e      	beq.n	146c <process_event+0x30>
		if (evt == EVT_COMPLETE) {
    144e:	2901      	cmp	r1, #1
			mgr->flags |= ONOFF_FLAG_COMPLETE;
    1450:	bf0c      	ite	eq
    1452:	f049 0910 	orreq.w	r9, r9, #16
		} else {
			__ASSERT_NO_MSG(evt == EVT_RECHECK);

			mgr->flags |= ONOFF_FLAG_RECHECK;
    1456:	f049 0920 	orrne.w	r9, r9, #32
    145a:	f8a0 9018 	strh.w	r9, [r0, #24]
	__asm__ volatile(
		"cpsie i;"
		"isb"
		: : : "memory");
#elif defined(CONFIG_ARMV7_M_ARMV8_M_MAINLINE)
	__asm__ volatile(
    145e:	f38b 8811 	msr	BASEPRI, fp
    1462:	f3bf 8f6f 	isb	sy
		state = mgr->flags & ONOFF_STATE_MASK;
	} while (evt != EVT_NOP);

out:
	k_spin_unlock(&mgr->lock, key);
}
    1466:	b003      	add	sp, #12
    1468:	e8bd 8ff0 	ldmia.w	sp!, {r4, r5, r6, r7, r8, r9, sl, fp, pc}
				transit(mgr, transition_complete);
    146c:	f8df a190 	ldr.w	sl, [pc, #400]	; 1600 <process_event+0x1c4>
	uint32_t state = mgr->flags & ONOFF_STATE_MASK;
    1470:	f009 0907 	and.w	r9, r9, #7
		if (evt == EVT_RECHECK) {
    1474:	2902      	cmp	r1, #2
    1476:	d107      	bne.n	1488 <process_event+0x4c>
			evt = process_recheck(mgr);
    1478:	4620      	mov	r0, r4
    147a:	f004 fda2 	bl	5fc2 <process_recheck>
		if (evt == EVT_NOP) {
    147e:	2800      	cmp	r0, #0
    1480:	d0ed      	beq.n	145e <process_event+0x22>
		if (evt == EVT_COMPLETE) {
    1482:	2801      	cmp	r0, #1
		     | (mgr->flags & ~ONOFF_STATE_MASK);
    1484:	8b23      	ldrh	r3, [r4, #24]
		if (evt == EVT_COMPLETE) {
    1486:	d14b      	bne.n	1520 <process_event+0xe4>
			res = mgr->last_res;
    1488:	6967      	ldr	r7, [r4, #20]
	uint32_t state = mgr->flags & ONOFF_STATE_MASK;
    148a:	8b21      	ldrh	r1, [r4, #24]
	if (res < 0) {
    148c:	2f00      	cmp	r7, #0
    148e:	da15      	bge.n	14bc <process_event+0x80>
		*clients = mgr->clients;
    1490:	6825      	ldr	r5, [r4, #0]
		     | (mgr->flags & ~ONOFF_STATE_MASK);
    1492:	f021 0107 	bic.w	r1, r1, #7
 * @param list A pointer on the list to initialize
 */
static inline void sys_slist_init(sys_slist_t *list)
{
	list->head = NULL;
	list->tail = NULL;
    1496:	e9c4 8800 	strd	r8, r8, [r4]
    149a:	f041 0101 	orr.w	r1, r1, #1
	mgr->flags = (state & ONOFF_STATE_MASK)
    149e:	8321      	strh	r1, [r4, #24]
		onoff_transition_fn transit = NULL;
    14a0:	2600      	movs	r6, #0
		bool do_monitors = (state != (mgr->flags & ONOFF_STATE_MASK))
    14a2:	8b21      	ldrh	r1, [r4, #24]
    14a4:	f001 0207 	and.w	r2, r1, #7
				   && !sys_slist_is_empty(&mgr->monitors);
    14a8:	454a      	cmp	r2, r9
    14aa:	d002      	beq.n	14b2 <process_event+0x76>
		if (do_monitors
    14ac:	68a3      	ldr	r3, [r4, #8]
    14ae:	2b00      	cmp	r3, #0
    14b0:	d157      	bne.n	1562 <process_event+0x126>
		    || !sys_slist_is_empty(&clients)
    14b2:	b90d      	cbnz	r5, 14b8 <process_event+0x7c>
		    || (transit != NULL)) {
    14b4:	2e00      	cmp	r6, #0
    14b6:	d06f      	beq.n	1598 <process_event+0x15c>
    14b8:	2300      	movs	r3, #0
    14ba:	e053      	b.n	1564 <process_event+0x128>
	uint32_t state = mgr->flags & ONOFF_STATE_MASK;
    14bc:	f001 0307 	and.w	r3, r1, #7
		   || (state == ONOFF_STATE_RESETTING)) {
    14c0:	1f5a      	subs	r2, r3, #5
	} else if ((state == ONOFF_STATE_TO_ON)
    14c2:	2a01      	cmp	r2, #1
    14c4:	d81d      	bhi.n	1502 <process_event+0xc6>
		     | (mgr->flags & ~ONOFF_STATE_MASK);
    14c6:	f021 0107 	bic.w	r1, r1, #7
		if (state == ONOFF_STATE_TO_ON) {
    14ca:	2b06      	cmp	r3, #6
		*clients = mgr->clients;
    14cc:	6825      	ldr	r5, [r4, #0]
		     | (mgr->flags & ~ONOFF_STATE_MASK);
    14ce:	b289      	uxth	r1, r1
    14d0:	e9c4 8800 	strd	r8, r8, [r4]
		if (state == ONOFF_STATE_TO_ON) {
    14d4:	d10a      	bne.n	14ec <process_event+0xb0>
			SYS_SLIST_FOR_EACH_CONTAINER(clients, cp, node) {
    14d6:	b13d      	cbz	r5, 14e8 <process_event+0xac>
    14d8:	462a      	mov	r2, r5
    14da:	8b63      	ldrh	r3, [r4, #26]

#define SYS_SLIST_STATIC_INIT(ptr_to_list) {NULL, NULL}

static inline sys_snode_t *z_snode_next_peek(sys_snode_t *node)
{
	return node->next;
    14dc:	6812      	ldr	r2, [r2, #0]
				mgr->refs += 1U;
    14de:	3301      	adds	r3, #1
    14e0:	b29b      	uxth	r3, r3
			SYS_SLIST_FOR_EACH_CONTAINER(clients, cp, node) {
    14e2:	2a00      	cmp	r2, #0
    14e4:	d1fa      	bne.n	14dc <process_event+0xa0>
    14e6:	8363      	strh	r3, [r4, #26]
		     | (mgr->flags & ~ONOFF_STATE_MASK);
    14e8:	f041 0102 	orr.w	r1, r1, #2
		if (process_recheck(mgr) != EVT_NOP) {
    14ec:	4620      	mov	r0, r4
	mgr->flags = (state & ONOFF_STATE_MASK)
    14ee:	8321      	strh	r1, [r4, #24]
		if (process_recheck(mgr) != EVT_NOP) {
    14f0:	f004 fd67 	bl	5fc2 <process_recheck>
    14f4:	2800      	cmp	r0, #0
    14f6:	d0d3      	beq.n	14a0 <process_event+0x64>
			mgr->flags |= ONOFF_FLAG_RECHECK;
    14f8:	8b23      	ldrh	r3, [r4, #24]
    14fa:	f043 0320 	orr.w	r3, r3, #32
    14fe:	8323      	strh	r3, [r4, #24]
    1500:	e7ce      	b.n	14a0 <process_event+0x64>
	} else if (state == ONOFF_STATE_TO_OFF) {
    1502:	2b04      	cmp	r3, #4
    1504:	d10a      	bne.n	151c <process_event+0xe0>
		     | (mgr->flags & ~ONOFF_STATE_MASK);
    1506:	f021 0107 	bic.w	r1, r1, #7
    150a:	b289      	uxth	r1, r1
		if (process_recheck(mgr) != EVT_NOP) {
    150c:	4620      	mov	r0, r4
	mgr->flags = (state & ONOFF_STATE_MASK)
    150e:	8321      	strh	r1, [r4, #24]
		if (process_recheck(mgr) != EVT_NOP) {
    1510:	f004 fd57 	bl	5fc2 <process_recheck>
    1514:	b110      	cbz	r0, 151c <process_event+0xe0>
			mgr->flags |= ONOFF_FLAG_RECHECK;
    1516:	f041 0120 	orr.w	r1, r1, #32
    151a:	8321      	strh	r1, [r4, #24]
    151c:	2500      	movs	r5, #0
    151e:	e7bf      	b.n	14a0 <process_event+0x64>
		} else if (evt == EVT_START) {
    1520:	2803      	cmp	r0, #3
    1522:	d109      	bne.n	1538 <process_event+0xfc>
			transit = mgr->transitions->start;
    1524:	6922      	ldr	r2, [r4, #16]
		     | (mgr->flags & ~ONOFF_STATE_MASK);
    1526:	f023 0307 	bic.w	r3, r3, #7
			transit = mgr->transitions->start;
    152a:	6816      	ldr	r6, [r2, #0]
		     | (mgr->flags & ~ONOFF_STATE_MASK);
    152c:	f043 0306 	orr.w	r3, r3, #6
}
    1530:	2500      	movs	r5, #0
	mgr->flags = (state & ONOFF_STATE_MASK)
    1532:	8323      	strh	r3, [r4, #24]
		res = 0;
    1534:	462f      	mov	r7, r5
    1536:	e7b4      	b.n	14a2 <process_event+0x66>
		} else if (evt == EVT_STOP) {
    1538:	2804      	cmp	r0, #4
    153a:	d106      	bne.n	154a <process_event+0x10e>
			transit = mgr->transitions->stop;
    153c:	6922      	ldr	r2, [r4, #16]
		     | (mgr->flags & ~ONOFF_STATE_MASK);
    153e:	f023 0307 	bic.w	r3, r3, #7
			transit = mgr->transitions->stop;
    1542:	6856      	ldr	r6, [r2, #4]
		     | (mgr->flags & ~ONOFF_STATE_MASK);
    1544:	f043 0304 	orr.w	r3, r3, #4
    1548:	e7f2      	b.n	1530 <process_event+0xf4>
		} else if (evt == EVT_RESET) {
    154a:	2805      	cmp	r0, #5
    154c:	d106      	bne.n	155c <process_event+0x120>
			transit = mgr->transitions->reset;
    154e:	6922      	ldr	r2, [r4, #16]
		     | (mgr->flags & ~ONOFF_STATE_MASK);
    1550:	f023 0307 	bic.w	r3, r3, #7
			transit = mgr->transitions->reset;
    1554:	6896      	ldr	r6, [r2, #8]
		     | (mgr->flags & ~ONOFF_STATE_MASK);
    1556:	f043 0305 	orr.w	r3, r3, #5
    155a:	e7e9      	b.n	1530 <process_event+0xf4>
    155c:	2500      	movs	r5, #0
		onoff_transition_fn transit = NULL;
    155e:	462e      	mov	r6, r5
    1560:	e7e8      	b.n	1534 <process_event+0xf8>
				   && !sys_slist_is_empty(&mgr->monitors);
    1562:	2301      	movs	r3, #1
			uint32_t flags = mgr->flags | ONOFF_FLAG_PROCESSING;
    1564:	f041 0108 	orr.w	r1, r1, #8
			mgr->flags = flags;
    1568:	8321      	strh	r1, [r4, #24]
    156a:	f38b 8811 	msr	BASEPRI, fp
    156e:	f3bf 8f6f 	isb	sy
			if (do_monitors) {
    1572:	bb03      	cbnz	r3, 15b6 <process_event+0x17a>
	while (!sys_slist_is_empty(list)) {
    1574:	2d00      	cmp	r5, #0
    1576:	d131      	bne.n	15dc <process_event+0x1a0>
			if (transit != NULL) {
    1578:	b116      	cbz	r6, 1580 <process_event+0x144>
				transit(mgr, transition_complete);
    157a:	4651      	mov	r1, sl
    157c:	4620      	mov	r0, r4
    157e:	47b0      	blx	r6
	__asm__ volatile(
    1580:	f04f 0320 	mov.w	r3, #32
    1584:	f3ef 8b11 	mrs	fp, BASEPRI
    1588:	f383 8812 	msr	BASEPRI_MAX, r3
    158c:	f3bf 8f6f 	isb	sy
			mgr->flags &= ~ONOFF_FLAG_PROCESSING;
    1590:	8b23      	ldrh	r3, [r4, #24]
    1592:	f023 0308 	bic.w	r3, r3, #8
    1596:	8323      	strh	r3, [r4, #24]
		if ((mgr->flags & ONOFF_FLAG_COMPLETE) != 0) {
    1598:	8b23      	ldrh	r3, [r4, #24]
    159a:	06da      	lsls	r2, r3, #27
    159c:	d527      	bpl.n	15ee <process_event+0x1b2>
			evt = EVT_COMPLETE;
    159e:	2101      	movs	r1, #1
			mgr->flags &= ~ONOFF_FLAG_COMPLETE;
    15a0:	f023 0310 	bic.w	r3, r3, #16
    15a4:	8323      	strh	r3, [r4, #24]
		state = mgr->flags & ONOFF_STATE_MASK;
    15a6:	f8b4 9018 	ldrh.w	r9, [r4, #24]
    15aa:	f009 0907 	and.w	r9, r9, #7
	} while (evt != EVT_NOP);
    15ae:	2900      	cmp	r1, #0
    15b0:	f47f af60 	bne.w	1474 <process_event+0x38>
out:
    15b4:	e753      	b.n	145e <process_event+0x22>
 *
 * @return A pointer on the first node of the list (or NULL if none)
 */
static inline sys_snode_t *sys_slist_peek_head(sys_slist_t *list)
{
	return list->head;
    15b6:	68a1      	ldr	r1, [r4, #8]
	SYS_SLIST_FOR_EACH_CONTAINER_SAFE(mlist, mon, tmp, node) {
    15b8:	2900      	cmp	r1, #0
    15ba:	d0db      	beq.n	1574 <process_event+0x138>
	return node->next;
    15bc:	f8d1 9000 	ldr.w	r9, [r1]
		mon->callback(mgr, mon, state, res);
    15c0:	463b      	mov	r3, r7
    15c2:	4620      	mov	r0, r4
    15c4:	f8d1 b004 	ldr.w	fp, [r1, #4]
    15c8:	9201      	str	r2, [sp, #4]
    15ca:	47d8      	blx	fp
	SYS_SLIST_FOR_EACH_CONTAINER_SAFE(mlist, mon, tmp, node) {
    15cc:	9a01      	ldr	r2, [sp, #4]
    15ce:	f1b9 0f00 	cmp.w	r9, #0
    15d2:	d0cf      	beq.n	1574 <process_event+0x138>
    15d4:	4649      	mov	r1, r9
    15d6:	f8d9 9000 	ldr.w	r9, [r9]
    15da:	e7f1      	b.n	15c0 <process_event+0x184>
    15dc:	4629      	mov	r1, r5
		notify_one(mgr, cli, state, res);
    15de:	463b      	mov	r3, r7
    15e0:	4620      	mov	r0, r4
    15e2:	9201      	str	r2, [sp, #4]
    15e4:	682d      	ldr	r5, [r5, #0]
    15e6:	f004 fd08 	bl	5ffa <notify_one>
	while (!sys_slist_is_empty(list)) {
    15ea:	9a01      	ldr	r2, [sp, #4]
    15ec:	e7c2      	b.n	1574 <process_event+0x138>
		} else if ((mgr->flags & ONOFF_FLAG_RECHECK) != 0) {
    15ee:	f013 0120 	ands.w	r1, r3, #32
			mgr->flags &= ~ONOFF_FLAG_RECHECK;
    15f2:	bf1e      	ittt	ne
    15f4:	f023 0320 	bicne.w	r3, r3, #32
			evt = EVT_RECHECK;
    15f8:	2102      	movne	r1, #2
			mgr->flags &= ~ONOFF_FLAG_RECHECK;
    15fa:	8323      	strhne	r3, [r4, #24]
			evt = EVT_RECHECK;
    15fc:	e7d3      	b.n	15a6 <process_event+0x16a>
    15fe:	bf00      	nop
    1600:	00006027 	.word	0x00006027

00001604 <cbvprintf>:
 * @param ap Variable parameters
 *
 * @return printed byte count if CONFIG_CBPRINTF_LIBC_SUBSTS is set
 */
int cbvprintf(cbprintf_cb out, void *ctx, const char *fmt, va_list ap)
{
    1604:	e92d 4ff0 	stmdb	sp!, {r4, r5, r6, r7, r8, r9, sl, fp, lr}
    1608:	468a      	mov	sl, r1
	size_t count = 0;
    160a:	f04f 0900 	mov.w	r9, #0
{
    160e:	b08f      	sub	sp, #60	; 0x3c
    1610:	461d      	mov	r5, r3
	char *prefix, *data;
	int min_width, precision, data_len;
	char padding_mode, length_mod, special;

	/* we pre-increment in the loop  afterwards */
	fmt--;
    1612:	1e53      	subs	r3, r2, #1
{
    1614:	9001      	str	r0, [sp, #4]
	fmt--;
    1616:	9302      	str	r3, [sp, #8]

start:
	while (*++fmt != '%') {
    1618:	9b02      	ldr	r3, [sp, #8]
    161a:	7858      	ldrb	r0, [r3, #1]
    161c:	1c5c      	adds	r4, r3, #1
    161e:	2825      	cmp	r0, #37	; 0x25
    1620:	d121      	bne.n	1666 <cbvprintf+0x62>
	min_width = -1;
	precision = -1;
	prefix = "";
	padding_mode = 0;
	length_mod = 0;
	special = 0;
    1622:	f04f 0c00 	mov.w	ip, #0
	precision = -1;
    1626:	f04f 37ff 	mov.w	r7, #4294967295

	for (fmt++ ; ; fmt++) {
    162a:	4618      	mov	r0, r3
	length_mod = 0;
    162c:	4661      	mov	r1, ip
	min_width = -1;
    162e:	463c      	mov	r4, r7
				precision = 10 * precision + *fmt - '0';
			} else {
				if (min_width < 0) {
					min_width = 0;
				}
				min_width = 10 * min_width + *fmt - '0';
    1630:	260a      	movs	r6, #10
	for (fmt++ ; ; fmt++) {
    1632:	3002      	adds	r0, #2
	padding_mode = 0;
    1634:	f8cd c00c 	str.w	ip, [sp, #12]
		switch (*fmt) {
    1638:	7802      	ldrb	r2, [r0, #0]
    163a:	9002      	str	r0, [sp, #8]
    163c:	2a39      	cmp	r2, #57	; 0x39
    163e:	f100 0001 	add.w	r0, r0, #1
    1642:	d859      	bhi.n	16f8 <cbvprintf+0xf4>
    1644:	2a1f      	cmp	r2, #31
    1646:	d818      	bhi.n	167a <cbvprintf+0x76>
    1648:	2a00      	cmp	r2, #0
    164a:	f000 81f7 	beq.w	1a3c <cbvprintf+0x438>
			precision = 0;
			break;
		}

		default:
			OUTC('%');
    164e:	4651      	mov	r1, sl
    1650:	9b01      	ldr	r3, [sp, #4]
    1652:	2025      	movs	r0, #37	; 0x25
    1654:	4798      	blx	r3
			OUTC(*fmt);
    1656:	9b02      	ldr	r3, [sp, #8]
    1658:	4651      	mov	r1, sl
    165a:	7818      	ldrb	r0, [r3, #0]
    165c:	9b01      	ldr	r3, [sp, #4]
    165e:	4798      	blx	r3
    1660:	f109 0902 	add.w	r9, r9, #2
			goto start;
    1664:	e7d8      	b.n	1618 <cbvprintf+0x14>
		if (*fmt == '\0') {
    1666:	2800      	cmp	r0, #0
    1668:	f000 81e8 	beq.w	1a3c <cbvprintf+0x438>
		OUTC(*fmt);
    166c:	4651      	mov	r1, sl
    166e:	9b01      	ldr	r3, [sp, #4]
    1670:	4798      	blx	r3
    1672:	f109 0901 	add.w	r9, r9, #1
	while (*++fmt != '%') {
    1676:	9402      	str	r4, [sp, #8]
    1678:	e7ce      	b.n	1618 <cbvprintf+0x14>
		switch (*fmt) {
    167a:	f1a2 0320 	sub.w	r3, r2, #32
    167e:	2b19      	cmp	r3, #25
    1680:	d8e5      	bhi.n	164e <cbvprintf+0x4a>
    1682:	f20f 0e08 	addw	lr, pc, #8
    1686:	f85e f023 	ldr.w	pc, [lr, r3, lsl #2]
    168a:	bf00      	nop
    168c:	000016f5 	.word	0x000016f5
    1690:	0000164f 	.word	0x0000164f
    1694:	0000164f 	.word	0x0000164f
    1698:	000016f5 	.word	0x000016f5
    169c:	0000164f 	.word	0x0000164f
    16a0:	00001779 	.word	0x00001779
    16a4:	0000164f 	.word	0x0000164f
    16a8:	0000164f 	.word	0x0000164f
    16ac:	0000164f 	.word	0x0000164f
    16b0:	0000164f 	.word	0x0000164f
    16b4:	000017bb 	.word	0x000017bb
    16b8:	000016f5 	.word	0x000016f5
    16bc:	0000164f 	.word	0x0000164f
    16c0:	000017cf 	.word	0x000017cf
    16c4:	00001787 	.word	0x00001787
    16c8:	0000164f 	.word	0x0000164f
    16cc:	00001793 	.word	0x00001793
    16d0:	000017af 	.word	0x000017af
    16d4:	000017af 	.word	0x000017af
    16d8:	000017af 	.word	0x000017af
    16dc:	000017af 	.word	0x000017af
    16e0:	000017af 	.word	0x000017af
    16e4:	000017af 	.word	0x000017af
    16e8:	000017af 	.word	0x000017af
    16ec:	000017af 	.word	0x000017af
    16f0:	000017af 	.word	0x000017af
    16f4:	4694      	mov	ip, r2
    16f6:	e79f      	b.n	1638 <cbvprintf+0x34>
    16f8:	2a58      	cmp	r2, #88	; 0x58
    16fa:	f000 811b 	beq.w	1934 <cbvprintf+0x330>
    16fe:	f1a2 0363 	sub.w	r3, r2, #99	; 0x63
    1702:	fa5f fe83 	uxtb.w	lr, r3
    1706:	f1be 0f17 	cmp.w	lr, #23
    170a:	d8a0      	bhi.n	164e <cbvprintf+0x4a>
    170c:	2b17      	cmp	r3, #23
    170e:	d89e      	bhi.n	164e <cbvprintf+0x4a>
    1710:	f20f 0e04 	addw	lr, pc, #4
    1714:	f85e f023 	ldr.w	pc, [lr, r3, lsl #2]
    1718:	00001997 	.word	0x00001997
    171c:	000017f5 	.word	0x000017f5
    1720:	0000164f 	.word	0x0000164f
    1724:	0000164f 	.word	0x0000164f
    1728:	0000164f 	.word	0x0000164f
    172c:	000017d5 	.word	0x000017d5
    1730:	000017f5 	.word	0x000017f5
    1734:	0000164f 	.word	0x0000164f
    1738:	0000164f 	.word	0x0000164f
    173c:	000017d5 	.word	0x000017d5
    1740:	0000164f 	.word	0x0000164f
    1744:	0000164f 	.word	0x0000164f
    1748:	0000164f 	.word	0x0000164f
    174c:	000018df 	.word	0x000018df
    1750:	0000164f 	.word	0x0000164f
    1754:	0000164f 	.word	0x0000164f
    1758:	00001977 	.word	0x00001977
    175c:	0000164f 	.word	0x0000164f
    1760:	000017f5 	.word	0x000017f5
    1764:	0000164f 	.word	0x0000164f
    1768:	0000164f 	.word	0x0000164f
    176c:	000018df 	.word	0x000018df
    1770:	0000164f 	.word	0x0000164f
    1774:	000017d5 	.word	0x000017d5
			OUTC('%');
    1778:	4651      	mov	r1, sl
    177a:	2025      	movs	r0, #37	; 0x25
    177c:	9b01      	ldr	r3, [sp, #4]
    177e:	4798      	blx	r3
    1780:	f109 0901 	add.w	r9, r9, #1
			goto start;
    1784:	e748      	b.n	1618 <cbvprintf+0x14>
			padding_mode &= (char)~PAD_ZERO;
    1786:	9b03      	ldr	r3, [sp, #12]
			precision = 0;
    1788:	2700      	movs	r7, #0
			padding_mode &= (char)~PAD_ZERO;
    178a:	f003 03fe 	and.w	r3, r3, #254	; 0xfe
    178e:	9303      	str	r3, [sp, #12]
			continue;
    1790:	e752      	b.n	1638 <cbvprintf+0x34>
			if (min_width < 0 && precision < 0 && !padding_mode) {
    1792:	2c00      	cmp	r4, #0
    1794:	da0b      	bge.n	17ae <cbvprintf+0x1aa>
    1796:	2f00      	cmp	r7, #0
    1798:	da0b      	bge.n	17b2 <cbvprintf+0x1ae>
    179a:	9b03      	ldr	r3, [sp, #12]
    179c:	2b00      	cmp	r3, #0
    179e:	f000 8149 	beq.w	1a34 <cbvprintf+0x430>
				min_width = 10 * min_width + *fmt - '0';
    17a2:	ea24 74e4 	bic.w	r4, r4, r4, asr #31
    17a6:	fb06 2404 	mla	r4, r6, r4, r2
    17aa:	3c30      	subs	r4, #48	; 0x30
    17ac:	e744      	b.n	1638 <cbvprintf+0x34>
			if (precision >= 0) {
    17ae:	2f00      	cmp	r7, #0
    17b0:	dbf7      	blt.n	17a2 <cbvprintf+0x19e>
				precision = 10 * precision + *fmt - '0';
    17b2:	fb06 2707 	mla	r7, r6, r7, r2
    17b6:	3f30      	subs	r7, #48	; 0x30
    17b8:	e73e      	b.n	1638 <cbvprintf+0x34>
			if (precision >= 0) {
    17ba:	2f00      	cmp	r7, #0
    17bc:	f855 3b04 	ldr.w	r3, [r5], #4
    17c0:	db01      	blt.n	17c6 <cbvprintf+0x1c2>
				precision = va_arg(ap, int);
    17c2:	461f      	mov	r7, r3
    17c4:	e738      	b.n	1638 <cbvprintf+0x34>
				if (min_width < 0) {
    17c6:	1e1c      	subs	r4, r3, #0
    17c8:	f6bf af36 	bge.w	1638 <cbvprintf+0x34>
					min_width = -min_width;
    17cc:	4264      	negs	r4, r4
		switch (*fmt) {
    17ce:	2302      	movs	r3, #2
				padding_mode = PAD_ZERO;
    17d0:	9303      	str	r3, [sp, #12]
    17d2:	e731      	b.n	1638 <cbvprintf+0x34>
			if (*fmt == 'h' && length_mod == 'h') {
    17d4:	2a68      	cmp	r2, #104	; 0x68
    17d6:	d103      	bne.n	17e0 <cbvprintf+0x1dc>
    17d8:	2968      	cmp	r1, #104	; 0x68
    17da:	d106      	bne.n	17ea <cbvprintf+0x1e6>
				length_mod = 'H';
    17dc:	2148      	movs	r1, #72	; 0x48
    17de:	e72b      	b.n	1638 <cbvprintf+0x34>
			} else if (*fmt == 'l' && length_mod == 'l') {
    17e0:	2a6c      	cmp	r2, #108	; 0x6c
    17e2:	d102      	bne.n	17ea <cbvprintf+0x1e6>
    17e4:	296c      	cmp	r1, #108	; 0x6c
    17e6:	f000 8127 	beq.w	1a38 <cbvprintf+0x434>
			} else if (length_mod == '\0') {
    17ea:	2900      	cmp	r1, #0
    17ec:	f47f af2f 	bne.w	164e <cbvprintf+0x4a>
    17f0:	4611      	mov	r1, r2
		switch (*fmt) {
    17f2:	e721      	b.n	1638 <cbvprintf+0x34>
			if (length_mod == 'z') {
    17f4:	297a      	cmp	r1, #122	; 0x7a
    17f6:	d107      	bne.n	1808 <cbvprintf+0x204>
			} else if (*fmt == 'u') {
    17f8:	2a75      	cmp	r2, #117	; 0x75
				precision = va_arg(ap, int);
    17fa:	f105 0604 	add.w	r6, r5, #4
				d = va_arg(ap, unsigned int);
    17fe:	682d      	ldr	r5, [r5, #0]
			} else if (*fmt == 'u') {
    1800:	d162      	bne.n	18c8 <cbvprintf+0x2c4>
				d = va_arg(ap, unsigned int);
    1802:	f04f 0800 	mov.w	r8, #0
    1806:	e00d      	b.n	1824 <cbvprintf+0x220>
			} else if (length_mod == 'l') {
    1808:	296c      	cmp	r1, #108	; 0x6c
    180a:	d0f5      	beq.n	17f8 <cbvprintf+0x1f4>
			} else if (length_mod == 'L') {
    180c:	294c      	cmp	r1, #76	; 0x4c
    180e:	d1f3      	bne.n	17f8 <cbvprintf+0x1f4>
					unsigned long long llu =
    1810:	1deb      	adds	r3, r5, #7
    1812:	f023 0307 	bic.w	r3, r3, #7
    1816:	461e      	mov	r6, r3
				if (*fmt == 'u') {
    1818:	2a75      	cmp	r2, #117	; 0x75
					unsigned long long llu =
    181a:	e8f6 0102 	ldrd	r0, r1, [r6], #8
				if (*fmt == 'u') {
    181e:	d107      	bne.n	1830 <cbvprintf+0x22c>
					unsigned long long llu =
    1820:	e9d3 5800 	ldrd	r5, r8, [r3]
			} else if (special == ' ') {
    1824:	f1bc 0f20 	cmp.w	ip, #32
    1828:	d151      	bne.n	18ce <cbvprintf+0x2ca>
				prefix = " ";
    182a:	4b86      	ldr	r3, [pc, #536]	; (1a44 <cbvprintf+0x440>)
				min_width--;
    182c:	3c01      	subs	r4, #1
    182e:	e009      	b.n	1844 <cbvprintf+0x240>
					d = (int_value_type) lld;
    1830:	4605      	mov	r5, r0
    1832:	4688      	mov	r8, r1
			if (*fmt != 'u' && (int_value_type)d < 0) {
    1834:	f1b8 0f00 	cmp.w	r8, #0
    1838:	daf4      	bge.n	1824 <cbvprintf+0x220>
				d = -d;
    183a:	426d      	negs	r5, r5
				prefix = "-";
    183c:	4b82      	ldr	r3, [pc, #520]	; (1a48 <cbvprintf+0x444>)
				d = -d;
    183e:	eb68 0848 	sbc.w	r8, r8, r8, lsl #1
				min_width--;
    1842:	3c01      	subs	r4, #1
	int i = 0;
    1844:	f04f 0b00 	mov.w	fp, #0
	prefix = "";
    1848:	9300      	str	r3, [sp, #0]
	int i = 0;
    184a:	ab0d      	add	r3, sp, #52	; 0x34
    184c:	9305      	str	r3, [sp, #20]
		unsigned int c = num % base;
    184e:	4628      	mov	r0, r5
    1850:	4641      	mov	r1, r8
    1852:	220a      	movs	r2, #10
    1854:	2300      	movs	r3, #0
    1856:	f8cd b010 	str.w	fp, [sp, #16]
    185a:	f7fe fc73 	bl	144 <__aeabi_uldivmod>
		buftop[--i] = c + '0';
    185e:	9b05      	ldr	r3, [sp, #20]
    1860:	3230      	adds	r2, #48	; 0x30
    1862:	f803 2901 	strb.w	r2, [r3], #-1
    1866:	e9cd 3505 	strd	r3, r5, [sp, #20]
		num /= base;
    186a:	4628      	mov	r0, r5
    186c:	2300      	movs	r3, #0
    186e:	4641      	mov	r1, r8
    1870:	220a      	movs	r2, #10
    1872:	f8cd 801c 	str.w	r8, [sp, #28]
    1876:	f7fe fc65 	bl	144 <__aeabi_uldivmod>
	} while (num);
    187a:	9b06      	ldr	r3, [sp, #24]
		num /= base;
    187c:	4605      	mov	r5, r0
	} while (num);
    187e:	2b0a      	cmp	r3, #10
    1880:	9b07      	ldr	r3, [sp, #28]
		num /= base;
    1882:	4688      	mov	r8, r1
	} while (num);
    1884:	f173 0300 	sbcs.w	r3, r3, #0
		buftop[--i] = c + '0';
    1888:	f10b 3bff 	add.w	fp, fp, #4294967295
	} while (num);
    188c:	d2df      	bcs.n	184e <cbvprintf+0x24a>
	return -i;
    188e:	9b04      	ldr	r3, [sp, #16]
			data = buf + sizeof(buf) - data_len;
    1890:	9a04      	ldr	r2, [sp, #16]
	return -i;
    1892:	f1c3 0b01 	rsb	fp, r3, #1
			data = buf + sizeof(buf) - data_len;
    1896:	ab0e      	add	r3, sp, #56	; 0x38
    1898:	189d      	adds	r5, r3, r2
		}

		if (precision < 0 && (padding_mode & PAD_ZERO)) {
    189a:	2f00      	cmp	r7, #0
			data = buf + sizeof(buf) - data_len;
    189c:	f1a5 0504 	sub.w	r5, r5, #4
		if (precision < 0 && (padding_mode & PAD_ZERO)) {
    18a0:	da04      	bge.n	18ac <cbvprintf+0x2a8>
    18a2:	9b03      	ldr	r3, [sp, #12]
    18a4:	f013 0f01 	tst.w	r3, #1
    18a8:	bf18      	it	ne
    18aa:	4627      	movne	r7, r4
		precision -= data_len;
		if (precision > 0) {
			min_width -= precision;
		}

		if (!(padding_mode & PAD_TAIL)) {
    18ac:	9b03      	ldr	r3, [sp, #12]
		precision -= data_len;
    18ae:	eba7 080b 	sub.w	r8, r7, fp
		if (precision > 0) {
    18b2:	f1b8 0f00 	cmp.w	r8, #0
		min_width -= data_len;
    18b6:	bfd4      	ite	le
    18b8:	eba4 040b 	suble.w	r4, r4, fp
			min_width -= precision;
    18bc:	1be4      	subgt	r4, r4, r7
		if (!(padding_mode & PAD_TAIL)) {
    18be:	079b      	lsls	r3, r3, #30
    18c0:	f100 8081 	bmi.w	19c6 <cbvprintf+0x3c2>
    18c4:	4627      	mov	r7, r4
    18c6:	e077      	b.n	19b8 <cbvprintf+0x3b4>
				d = va_arg(ap, int);
    18c8:	ea4f 78e5 	mov.w	r8, r5, asr #31
    18cc:	e7b2      	b.n	1834 <cbvprintf+0x230>
			} else if (special == '+') {
    18ce:	f1bc 0f2b 	cmp.w	ip, #43	; 0x2b
				prefix = "+";
    18d2:	bf0a      	itet	eq
    18d4:	4b5d      	ldreq	r3, [pc, #372]	; (1a4c <cbvprintf+0x448>)
	prefix = "";
    18d6:	4b5e      	ldrne	r3, [pc, #376]	; (1a50 <cbvprintf+0x44c>)
				min_width--;
    18d8:	f104 34ff 	addeq.w	r4, r4, #4294967295
    18dc:	e7b2      	b.n	1844 <cbvprintf+0x240>
			if (*fmt == 'p') {
    18de:	2a70      	cmp	r2, #112	; 0x70
    18e0:	d128      	bne.n	1934 <cbvprintf+0x330>
				x = (uintptr_t)va_arg(ap, void *);
    18e2:	462e      	mov	r6, r5
    18e4:	f856 1b04 	ldr.w	r1, [r6], #4
    18e8:	2300      	movs	r3, #0
				if (x == (uint_value_type)0) {
    18ea:	2900      	cmp	r1, #0
    18ec:	d05c      	beq.n	19a8 <cbvprintf+0x3a4>
				prefix = (*fmt & 0x20) ? "0x" : "0X";
    18ee:	4859      	ldr	r0, [pc, #356]	; (1a54 <cbvprintf+0x450>)
    18f0:	9000      	str	r0, [sp, #0]
				min_width -= 2;
    18f2:	3c02      	subs	r4, #2
	int i = 0;
    18f4:	2500      	movs	r5, #0
			data_len = convert_value(x, 16, ALPHA(*fmt),
    18f6:	f002 0260 	and.w	r2, r2, #96	; 0x60
    18fa:	f1a2 0839 	sub.w	r8, r2, #57	; 0x39
	int i = 0;
    18fe:	f10d 0e34 	add.w	lr, sp, #52	; 0x34
		unsigned int c = num % base;
    1902:	f001 020f 	and.w	r2, r1, #15
		if (c >= 10) {
    1906:	2a09      	cmp	r2, #9
			c += alpha;
    1908:	bf88      	it	hi
    190a:	4442      	addhi	r2, r8
		buftop[--i] = c + '0';
    190c:	3230      	adds	r2, #48	; 0x30
    190e:	f80e 2901 	strb.w	r2, [lr], #-1
	} while (num);
    1912:	2910      	cmp	r1, #16
		num /= base;
    1914:	ea4f 1211 	mov.w	r2, r1, lsr #4
    1918:	ea42 7203 	orr.w	r2, r2, r3, lsl #28
    191c:	ea4f 1013 	mov.w	r0, r3, lsr #4
	} while (num);
    1920:	f173 0300 	sbcs.w	r3, r3, #0
		buftop[--i] = c + '0';
    1924:	f105 3cff 	add.w	ip, r5, #4294967295
	} while (num);
    1928:	d221      	bcs.n	196e <cbvprintf+0x36a>
			data = buf + sizeof(buf) - data_len;
    192a:	ab0e      	add	r3, sp, #56	; 0x38
	return -i;
    192c:	f1c5 0b01 	rsb	fp, r5, #1
			data = buf + sizeof(buf) - data_len;
    1930:	441d      	add	r5, r3
    1932:	e7b2      	b.n	189a <cbvprintf+0x296>
			} else if (length_mod == 'l') {
    1934:	296c      	cmp	r1, #108	; 0x6c
    1936:	d104      	bne.n	1942 <cbvprintf+0x33e>
				x = va_arg(ap, unsigned int);
    1938:	462e      	mov	r6, r5
    193a:	2300      	movs	r3, #0
    193c:	f856 1b04 	ldr.w	r1, [r6], #4
    1940:	e008      	b.n	1954 <cbvprintf+0x350>
			} else if (length_mod == 'L') {
    1942:	294c      	cmp	r1, #76	; 0x4c
    1944:	d1f8      	bne.n	1938 <cbvprintf+0x334>
				unsigned long long llx =
    1946:	3507      	adds	r5, #7
    1948:	f025 0507 	bic.w	r5, r5, #7
    194c:	462e      	mov	r6, r5
    194e:	686b      	ldr	r3, [r5, #4]
    1950:	f856 1b08 	ldr.w	r1, [r6], #8
			if (special == '#') {
    1954:	f1bc 0f23 	cmp.w	ip, #35	; 0x23
    1958:	d106      	bne.n	1968 <cbvprintf+0x364>
				prefix = (*fmt & 0x20) ? "0x" : "0X";
    195a:	4d3f      	ldr	r5, [pc, #252]	; (1a58 <cbvprintf+0x454>)
    195c:	f012 0f20 	tst.w	r2, #32
    1960:	483c      	ldr	r0, [pc, #240]	; (1a54 <cbvprintf+0x450>)
    1962:	bf08      	it	eq
    1964:	4628      	moveq	r0, r5
    1966:	e7c3      	b.n	18f0 <cbvprintf+0x2ec>
	prefix = "";
    1968:	4839      	ldr	r0, [pc, #228]	; (1a50 <cbvprintf+0x44c>)
    196a:	9000      	str	r0, [sp, #0]
    196c:	e7c2      	b.n	18f4 <cbvprintf+0x2f0>
		buftop[--i] = c + '0';
    196e:	4665      	mov	r5, ip
		num /= base;
    1970:	4611      	mov	r1, r2
    1972:	4603      	mov	r3, r0
    1974:	e7c5      	b.n	1902 <cbvprintf+0x2fe>
			data = va_arg(ap, char *);
    1976:	462e      	mov	r6, r5
    1978:	f856 5b04 	ldr.w	r5, [r6], #4
			data_len = strlen(data);
    197c:	4628      	mov	r0, r5
    197e:	f004 fc6e 	bl	625e <strlen>
			if (precision >= 0 && data_len > precision) {
    1982:	2f00      	cmp	r7, #0
			data_len = strlen(data);
    1984:	4683      	mov	fp, r0
			if (precision >= 0 && data_len > precision) {
    1986:	db02      	blt.n	198e <cbvprintf+0x38a>
    1988:	42b8      	cmp	r0, r7
    198a:	bfa8      	it	ge
    198c:	46bb      	movge	fp, r7
    198e:	4b30      	ldr	r3, [pc, #192]	; (1a50 <cbvprintf+0x44c>)
    1990:	2700      	movs	r7, #0
    1992:	9300      	str	r3, [sp, #0]
    1994:	e78a      	b.n	18ac <cbvprintf+0x2a8>
			int c = va_arg(ap, int);
    1996:	462e      	mov	r6, r5
			buf[0] = c;
    1998:	f856 3b04 	ldr.w	r3, [r6], #4
			data_len = 1;
    199c:	f04f 0b01 	mov.w	fp, #1
			buf[0] = c;
    19a0:	f88d 3020 	strb.w	r3, [sp, #32]
			data = buf;
    19a4:	ad08      	add	r5, sp, #32
    19a6:	e7f2      	b.n	198e <cbvprintf+0x38a>
					data_len = 5;
    19a8:	f04f 0b05 	mov.w	fp, #5
					data = "(nil)";
    19ac:	4d2b      	ldr	r5, [pc, #172]	; (1a5c <cbvprintf+0x458>)
    19ae:	e7ee      	b.n	198e <cbvprintf+0x38a>
			while (--min_width >= 0) {
				OUTC(' ');
    19b0:	4651      	mov	r1, sl
    19b2:	2020      	movs	r0, #32
    19b4:	9b01      	ldr	r3, [sp, #4]
    19b6:	4798      	blx	r3
			while (--min_width >= 0) {
    19b8:	3f01      	subs	r7, #1
    19ba:	d5f9      	bpl.n	19b0 <cbvprintf+0x3ac>
    19bc:	ea24 73e4 	bic.w	r3, r4, r4, asr #31
    19c0:	3c01      	subs	r4, #1
    19c2:	4499      	add	r9, r3
    19c4:	1ae4      	subs	r4, r4, r3
    19c6:	9b00      	ldr	r3, [sp, #0]
    19c8:	eba9 0903 	sub.w	r9, r9, r3
    19cc:	e004      	b.n	19d8 <cbvprintf+0x3d4>
    19ce:	9300      	str	r3, [sp, #0]
			}
		}
		while (*prefix) {
			OUTC(*prefix++);
    19d0:	4651      	mov	r1, sl
    19d2:	9b01      	ldr	r3, [sp, #4]
    19d4:	4798      	blx	r3
    19d6:	9b00      	ldr	r3, [sp, #0]
    19d8:	eb09 0703 	add.w	r7, r9, r3
		while (*prefix) {
    19dc:	f813 0b01 	ldrb.w	r0, [r3], #1
    19e0:	2800      	cmp	r0, #0
    19e2:	d1f4      	bne.n	19ce <cbvprintf+0x3ca>
		precision -= data_len;
    19e4:	46c1      	mov	r9, r8
		}
		while (--precision >= 0) {
    19e6:	f1b9 0901 	subs.w	r9, r9, #1
    19ea:	d513      	bpl.n	1a14 <cbvprintf+0x410>
    19ec:	46d9      	mov	r9, fp
    19ee:	ea28 78e8 	bic.w	r8, r8, r8, asr #31
			OUTC('0');
		}
		while (--data_len >= 0) {
    19f2:	f1b9 0901 	subs.w	r9, r9, #1
    19f6:	d512      	bpl.n	1a1e <cbvprintf+0x41a>
    19f8:	f1bb 0f00 	cmp.w	fp, #0
    19fc:	bfa8      	it	ge
    19fe:	44d8      	addge	r8, fp
    1a00:	4625      	mov	r5, r4
			OUTC(*data++);
		}
		while (--min_width >= 0) {
    1a02:	3d01      	subs	r5, #1
    1a04:	d511      	bpl.n	1a2a <cbvprintf+0x426>
    1a06:	2c00      	cmp	r4, #0
    1a08:	bfa8      	it	ge
    1a0a:	44a0      	addge	r8, r4
    1a0c:	4635      	mov	r5, r6
    1a0e:	eb08 0907 	add.w	r9, r8, r7
    1a12:	e601      	b.n	1618 <cbvprintf+0x14>
			OUTC('0');
    1a14:	4651      	mov	r1, sl
    1a16:	9b01      	ldr	r3, [sp, #4]
    1a18:	2030      	movs	r0, #48	; 0x30
    1a1a:	4798      	blx	r3
    1a1c:	e7e3      	b.n	19e6 <cbvprintf+0x3e2>
			OUTC(*data++);
    1a1e:	4651      	mov	r1, sl
    1a20:	f815 0b01 	ldrb.w	r0, [r5], #1
    1a24:	9b01      	ldr	r3, [sp, #4]
    1a26:	4798      	blx	r3
    1a28:	e7e3      	b.n	19f2 <cbvprintf+0x3ee>
			OUTC(' ');
    1a2a:	4651      	mov	r1, sl
    1a2c:	9b01      	ldr	r3, [sp, #4]
    1a2e:	2020      	movs	r0, #32
    1a30:	4798      	blx	r3
    1a32:	e7e6      	b.n	1a02 <cbvprintf+0x3fe>
				padding_mode = PAD_ZERO;
    1a34:	2301      	movs	r3, #1
    1a36:	e6cb      	b.n	17d0 <cbvprintf+0x1cc>
				length_mod = 'L';
    1a38:	214c      	movs	r1, #76	; 0x4c
    1a3a:	e5fd      	b.n	1638 <cbvprintf+0x34>
		}

		goto start;
	}
}
    1a3c:	4648      	mov	r0, r9
    1a3e:	b00f      	add	sp, #60	; 0x3c
    1a40:	e8bd 8ff0 	ldmia.w	sp!, {r4, r5, r6, r7, r8, r9, sl, fp, pc}
    1a44:	000078fa 	.word	0x000078fa
    1a48:	00007522 	.word	0x00007522
    1a4c:	00007524 	.word	0x00007524
    1a50:	00007c0d 	.word	0x00007c0d
    1a54:	00007529 	.word	0x00007529
    1a58:	00007526 	.word	0x00007526
    1a5c:	0000752c 	.word	0x0000752c

00001a60 <sys_reboot>:
#include <sys/printk.h>

extern void sys_arch_reboot(int type);

FUNC_NORETURN void sys_reboot(int type)
{
    1a60:	b508      	push	{r3, lr}
    1a62:	f04f 0220 	mov.w	r2, #32
    1a66:	f3ef 8311 	mrs	r3, BASEPRI
    1a6a:	f382 8812 	msr	BASEPRI_MAX, r2
    1a6e:	f3bf 8f6f 	isb	sy
	(void)irq_lock();
	sys_clock_disable();

	sys_arch_reboot(type);
    1a72:	f000 fb99 	bl	21a8 <sys_arch_reboot>

	/* should never get here */
	printk("Failed to reboot: spinning endlessly...\n");
    1a76:	4803      	ldr	r0, [pc, #12]	; (1a84 <sys_reboot+0x24>)
    1a78:	f004 fa96 	bl	5fa8 <printk>
 * @note In some architectures, before returning, the function unmasks interrupts
 * unconditionally.
 */
static inline void k_cpu_idle(void)
{
	arch_cpu_idle();
    1a7c:	f000 f880 	bl	1b80 <arch_cpu_idle>
    1a80:	e7fc      	b.n	1a7c <sys_reboot+0x1c>
    1a82:	bf00      	nop
    1a84:	00007532 	.word	0x00007532

00001a88 <nordicsemi_nrf91_init>:
    1a88:	f04f 0220 	mov.w	r2, #32
    1a8c:	f3ef 8311 	mrs	r3, BASEPRI
    1a90:	f382 8812 	msr	BASEPRI_MAX, r2
    1a94:	f3bf 8f6f 	isb	sy

	key = irq_lock();

#ifdef CONFIG_NRF_ENABLE_ICACHE
	/* Enable the instruction cache */
	NRF_NVMC->ICACHECNF = NVMC_ICACHECNF_CACHEEN_Msk;
    1a98:	2101      	movs	r1, #1
    1a9a:	4a04      	ldr	r2, [pc, #16]	; (1aac <nordicsemi_nrf91_init+0x24>)
    1a9c:	f8c2 1540 	str.w	r1, [r2, #1344]	; 0x540
	__asm__ volatile(
    1aa0:	f383 8811 	msr	BASEPRI, r3
    1aa4:	f3bf 8f6f 	isb	sy
	NMI_INIT();

	irq_unlock(key);

	return 0;
}
    1aa8:	2000      	movs	r0, #0
    1aaa:	4770      	bx	lr
    1aac:	50039000 	.word	0x50039000

00001ab0 <arch_busy_wait>:

#else // NRFX_CHECK(NRFX_DELAY_DWT_BASED)

NRF_STATIC_INLINE void nrfx_coredep_delay_us(uint32_t time_us)
{
    if (time_us == 0)
    1ab0:	b120      	cbz	r0, 1abc <arch_busy_wait+0xc>
    };

    typedef void (* delay_func_t)(uint32_t);
    const delay_func_t delay_cycles =
        // Set LSB to 1 to execute the code in the Thumb mode.
        (delay_func_t)((((uint32_t)delay_machine_code) | 1));
    1ab2:	4b03      	ldr	r3, [pc, #12]	; (1ac0 <arch_busy_wait+0x10>)
    uint32_t cycles = time_us * NRFX_DELAY_CPU_FREQ_MHZ;
    delay_cycles(cycles);
    1ab4:	0180      	lsls	r0, r0, #6
    1ab6:	f043 0301 	orr.w	r3, r3, #1
    1aba:	4718      	bx	r3

void arch_busy_wait(uint32_t time_us)
{
	nrfx_coredep_delay_us(time_us);
}
    1abc:	4770      	bx	lr
    1abe:	bf00      	nop
    1ac0:	00006d10 	.word	0x00006d10

00001ac4 <flash_area_open>:

int flash_area_open(uint8_t id, const struct flash_area **fap)
{
	const struct flash_area *area;

	if (flash_map == NULL) {
    1ac4:	4b0c      	ldr	r3, [pc, #48]	; (1af8 <flash_area_open+0x34>)
{
    1ac6:	b570      	push	{r4, r5, r6, lr}
	if (flash_map == NULL) {
    1ac8:	681b      	ldr	r3, [r3, #0]
    1aca:	b173      	cbz	r3, 1aea <flash_area_open+0x26>
extern const struct flash_area *flash_map;
extern const int flash_map_entries;

static inline struct flash_area const *get_flash_area_from_id(int idx)
{
	for (int i = 0; i < flash_map_entries; i++) {
    1acc:	4a0b      	ldr	r2, [pc, #44]	; (1afc <flash_area_open+0x38>)
    1ace:	6815      	ldr	r5, [r2, #0]
    1ad0:	2200      	movs	r2, #0
    1ad2:	42aa      	cmp	r2, r5
    1ad4:	db02      	blt.n	1adc <flash_area_open+0x18>
		return -EACCES;
	}

	area = get_flash_area_from_id(id);
	if (area == NULL) {
		return -ENOENT;
    1ad6:	f06f 0001 	mvn.w	r0, #1
	}

	*fap = area;
	return 0;
}
    1ada:	bd70      	pop	{r4, r5, r6, pc}
		if (flash_map[i].fa_id == idx) {
    1adc:	461c      	mov	r4, r3
    1ade:	f813 6b10 	ldrb.w	r6, [r3], #16
    1ae2:	4286      	cmp	r6, r0
    1ae4:	d004      	beq.n	1af0 <flash_area_open+0x2c>
	for (int i = 0; i < flash_map_entries; i++) {
    1ae6:	3201      	adds	r2, #1
    1ae8:	e7f3      	b.n	1ad2 <flash_area_open+0xe>
		return -EACCES;
    1aea:	f06f 000c 	mvn.w	r0, #12
    1aee:	e7f4      	b.n	1ada <flash_area_open+0x16>
	return 0;
    1af0:	2000      	movs	r0, #0
	*fap = area;
    1af2:	600c      	str	r4, [r1, #0]
	return 0;
    1af4:	e7f1      	b.n	1ada <flash_area_open+0x16>
    1af6:	bf00      	nop
    1af8:	200144f4 	.word	0x200144f4
    1afc:	00006dc8 	.word	0x00006dc8

00001b00 <flash_area_get_sectors>:

	return true;
}

int flash_area_get_sectors(int idx, uint32_t *cnt, struct flash_sector *ret)
{
    1b00:	b570      	push	{r4, r5, r6, lr}
    1b02:	b088      	sub	sp, #32
    1b04:	4605      	mov	r5, r0
    1b06:	460c      	mov	r4, r1
	int rc = flash_area_open(idx, &fa);
    1b08:	b2c0      	uxtb	r0, r0
    1b0a:	4669      	mov	r1, sp
{
    1b0c:	4616      	mov	r6, r2
	int rc = flash_area_open(idx, &fa);
    1b0e:	f7ff ffd9 	bl	1ac4 <flash_area_open>
	if (rc < 0 || fa == NULL) {
    1b12:	2800      	cmp	r0, #0
    1b14:	db1f      	blt.n	1b56 <flash_area_get_sectors+0x56>
    1b16:	9b00      	ldr	r3, [sp, #0]
    1b18:	b1eb      	cbz	r3, 1b56 <flash_area_get_sectors+0x56>
	cb_data->area_off = fa->fa_off;
    1b1a:	685a      	ldr	r2, [r3, #4]
	cb_data->ret_len = *cnt;
    1b1c:	6821      	ldr	r1, [r4, #0]
	cb_data->area_off = fa->fa_off;
    1b1e:	9202      	str	r2, [sp, #8]
	cb_data->area_len = fa->fa_size;
    1b20:	689a      	ldr	r2, [r3, #8]
	flash_dev = device_get_binding(fa->fa_dev_name);
    1b22:	68d8      	ldr	r0, [r3, #12]
	cb_data->ret = ret;
    1b24:	e9cd 2603 	strd	r2, r6, [sp, #12]
	cb_data->ret_idx = 0U;
    1b28:	2200      	movs	r2, #0
	cb_data->area_idx = idx;
    1b2a:	9501      	str	r5, [sp, #4]
	cb_data->status = 0;
    1b2c:	e9cd 1206 	strd	r1, r2, [sp, #24]
	cb_data->ret_idx = 0U;
    1b30:	9205      	str	r2, [sp, #20]
    1b32:	f002 f967 	bl	3e04 <z_impl_device_get_binding>
    1b36:	4605      	mov	r5, r0
	flash_area_close(fa);
    1b38:	9800      	ldr	r0, [sp, #0]
    1b3a:	f004 fafc 	bl	6136 <flash_area_close>
	if (flash_dev == NULL) {
    1b3e:	b16d      	cbz	r5, 1b5c <flash_area_get_sectors+0x5c>
	flash_page_foreach(flash_dev, cb, cb_data);
    1b40:	4628      	mov	r0, r5
    1b42:	4908      	ldr	r1, [pc, #32]	; (1b64 <flash_area_get_sectors+0x64>)
    1b44:	aa01      	add	r2, sp, #4
    1b46:	f004 fcb2 	bl	64ae <flash_page_foreach>
	if (cb_data->status == 0) {
    1b4a:	9807      	ldr	r0, [sp, #28]
    1b4c:	b908      	cbnz	r0, 1b52 <flash_area_get_sectors+0x52>
		*cnt = cb_data->ret_idx;
    1b4e:	9b05      	ldr	r3, [sp, #20]
    1b50:	6023      	str	r3, [r4, #0]
	struct layout_data data;

	return flash_area_layout(idx, cnt, ret, get_sectors_cb, &data);
}
    1b52:	b008      	add	sp, #32
    1b54:	bd70      	pop	{r4, r5, r6, pc}
		return -EINVAL;
    1b56:	f06f 0015 	mvn.w	r0, #21
    1b5a:	e7fa      	b.n	1b52 <flash_area_get_sectors+0x52>
		return -ENODEV;
    1b5c:	f06f 0012 	mvn.w	r0, #18
	return flash_area_layout(idx, cnt, ret, get_sectors_cb, &data);
    1b60:	e7f7      	b.n	1b52 <flash_area_get_sectors+0x52>
    1b62:	bf00      	nop
    1b64:	000061fb 	.word	0x000061fb

00001b68 <nrf_cc3xx_platform_abort_init>:

/** @brief Function to initialize the nrf_cc3xx_platform abort APIs.
 */
void nrf_cc3xx_platform_abort_init(void)
{
	nrf_cc3xx_platform_set_abort(&apis);
    1b68:	4801      	ldr	r0, [pc, #4]	; (1b70 <nrf_cc3xx_platform_abort_init+0x8>)
    1b6a:	f002 bb15 	b.w	4198 <nrf_cc3xx_platform_set_abort>
    1b6e:	bf00      	nop
    1b70:	00006dcc 	.word	0x00006dcc

00001b74 <z_arm_cpu_idle_init>:
 * void z_arm_cpu_idle_init(void);
 */

SECTION_FUNC(TEXT, z_arm_cpu_idle_init)
#if defined(CONFIG_CPU_CORTEX_M)
	ldr	r1, =_SCB_SCR
    1b74:	4901      	ldr	r1, [pc, #4]	; (1b7c <z_arm_cpu_idle_init+0x8>)
	movs.n	r2, #_SCR_INIT_BITS
    1b76:	2210      	movs	r2, #16
	str	r2, [r1]
    1b78:	600a      	str	r2, [r1, #0]
#endif
	bx	lr
    1b7a:	4770      	bx	lr
	ldr	r1, =_SCB_SCR
    1b7c:	e000ed10 	.word	0xe000ed10

00001b80 <arch_cpu_idle>:
	 * before entering low power state.
	 *
	 * Set PRIMASK before configuring BASEPRI to prevent interruption
	 * before wake-up.
	 */
	cpsid	i
    1b80:	b672      	cpsid	i

	/*
	 * Set wake-up interrupt priority to the lowest and synchronise to
	 * ensure that this is visible to the WFI instruction.
	 */
	eors.n	r0, r0
    1b82:	4040      	eors	r0, r0
	msr	BASEPRI, r0
    1b84:	f380 8811 	msr	BASEPRI, r0
	isb
    1b88:	f3bf 8f6f 	isb	sy

	/*
	 * Wait for all memory transactions to complete before entering low
	 * power state.
	 */
	dsb
    1b8c:	f3bf 8f4f 	dsb	sy

	/* Enter low power state */
	wfi
    1b90:	bf30      	wfi

	/*
	 * Clear PRIMASK and flush instruction buffer to immediately service
	 * the wake-up interrupt.
	 */
	cpsie	i
    1b92:	b662      	cpsie	i
	isb
    1b94:	f3bf 8f6f 	isb	sy

	bx	lr
    1b98:	4770      	bx	lr
    1b9a:	bf00      	nop

00001b9c <arch_cpu_atomic_idle>:

	/*
	 * Lock PRIMASK while sleeping: wfe will still get interrupted by
	 * incoming interrupts but the CPU will not service them right away.
	 */
	cpsid	i
    1b9c:	b672      	cpsid	i
	cpsie	i
_irq_disabled:

#elif defined(CONFIG_ARMV7_M_ARMV8_M_MAINLINE)
	/* r1: zero, for setting BASEPRI (needs a register) */
	eors.n	r1, r1
    1b9e:	4049      	eors	r1, r1

	/* unlock BASEPRI so wfe gets interrupted by incoming interrupts */
	msr	BASEPRI, r1
    1ba0:	f381 8811 	msr	BASEPRI, r1

	wfe
    1ba4:	bf20      	wfe

	msr	BASEPRI, r0
    1ba6:	f380 8811 	msr	BASEPRI, r0
	cpsie	i
    1baa:	b662      	cpsie	i
#else
#error Unknown ARM architecture
#endif /* CONFIG_ARMV6_M_ARMV8_M_BASELINE */
	bx	lr
    1bac:	4770      	bx	lr
    1bae:	bf00      	nop

00001bb0 <z_arm_fatal_error>:
	LOG_ERR("Faulting instruction address (r15/pc): 0x%08x",
		esf->basic.pc);
}

void z_arm_fatal_error(unsigned int reason, const z_arch_esf_t *esf)
{
    1bb0:	b537      	push	{r0, r1, r2, r4, r5, lr}
    1bb2:	4605      	mov	r5, r0

	if (esf != NULL) {
    1bb4:	460c      	mov	r4, r1
    1bb6:	b1c9      	cbz	r1, 1bec <z_arm_fatal_error+0x3c>
	LOG_ERR("r0/a1:  0x%08x  r1/a2:  0x%08x  r2/a3:  0x%08x",
    1bb8:	688b      	ldr	r3, [r1, #8]
    1bba:	4810      	ldr	r0, [pc, #64]	; (1bfc <z_arm_fatal_error+0x4c>)
    1bbc:	9300      	str	r3, [sp, #0]
    1bbe:	e9d1 2300 	ldrd	r2, r3, [r1]
    1bc2:	2145      	movs	r1, #69	; 0x45
    1bc4:	f004 faaa 	bl	611c <z_log_minimal_printk>
	LOG_ERR("r3/a4:  0x%08x r12/ip:  0x%08x r14/lr:  0x%08x",
    1bc8:	6963      	ldr	r3, [r4, #20]
    1bca:	2145      	movs	r1, #69	; 0x45
    1bcc:	9300      	str	r3, [sp, #0]
    1bce:	e9d4 2303 	ldrd	r2, r3, [r4, #12]
    1bd2:	480b      	ldr	r0, [pc, #44]	; (1c00 <z_arm_fatal_error+0x50>)
    1bd4:	f004 faa2 	bl	611c <z_log_minimal_printk>
	LOG_ERR(" xpsr:  0x%08x", esf->basic.xpsr);
    1bd8:	2145      	movs	r1, #69	; 0x45
    1bda:	69e2      	ldr	r2, [r4, #28]
    1bdc:	4809      	ldr	r0, [pc, #36]	; (1c04 <z_arm_fatal_error+0x54>)
    1bde:	f004 fa9d 	bl	611c <z_log_minimal_printk>
	LOG_ERR("Faulting instruction address (r15/pc): 0x%08x",
    1be2:	2145      	movs	r1, #69	; 0x45
    1be4:	69a2      	ldr	r2, [r4, #24]
    1be6:	4808      	ldr	r0, [pc, #32]	; (1c08 <z_arm_fatal_error+0x58>)
    1be8:	f004 fa98 	bl	611c <z_log_minimal_printk>
		esf_dump(esf);
	}
	z_fatal_error(reason, esf);
    1bec:	4621      	mov	r1, r4
    1bee:	4628      	mov	r0, r5
}
    1bf0:	b003      	add	sp, #12
    1bf2:	e8bd 4030 	ldmia.w	sp!, {r4, r5, lr}
	z_fatal_error(reason, esf);
    1bf6:	f002 b92f 	b.w	3e58 <z_fatal_error>
    1bfa:	bf00      	nop
    1bfc:	0000755f 	.word	0x0000755f
    1c00:	00007593 	.word	0x00007593
    1c04:	000075c7 	.word	0x000075c7
    1c08:	000075db 	.word	0x000075db

00001c0c <arch_irq_enable>:
#define REG_FROM_IRQ(irq) (irq / NUM_IRQS_PER_REG)
#define BIT_FROM_IRQ(irq) (irq % NUM_IRQS_PER_REG)

void arch_irq_enable(unsigned int irq)
{
	NVIC_EnableIRQ((IRQn_Type)irq);
    1c0c:	b243      	sxtb	r3, r0
  \param [in]      IRQn  Device specific interrupt number.
  \note    IRQn must not be negative.
 */
__STATIC_INLINE void __NVIC_EnableIRQ(IRQn_Type IRQn)
{
  if ((int32_t)(IRQn) >= 0)
    1c0e:	2b00      	cmp	r3, #0
    1c10:	db08      	blt.n	1c24 <arch_irq_enable+0x18>
  {
    __COMPILER_BARRIER();
    NVIC->ISER[(((uint32_t)IRQn) >> 5UL)] = (uint32_t)(1UL << (((uint32_t)IRQn) & 0x1FUL));
    1c12:	2201      	movs	r2, #1
    1c14:	f000 001f 	and.w	r0, r0, #31
    1c18:	fa02 f000 	lsl.w	r0, r2, r0
    1c1c:	4a02      	ldr	r2, [pc, #8]	; (1c28 <arch_irq_enable+0x1c>)
    1c1e:	095b      	lsrs	r3, r3, #5
    1c20:	f842 0023 	str.w	r0, [r2, r3, lsl #2]
}
    1c24:	4770      	bx	lr
    1c26:	bf00      	nop
    1c28:	e000e100 	.word	0xe000e100

00001c2c <arch_irq_is_enabled>:
	NVIC_DisableIRQ((IRQn_Type)irq);
}

int arch_irq_is_enabled(unsigned int irq)
{
	return NVIC->ISER[REG_FROM_IRQ(irq)] & BIT(BIT_FROM_IRQ(irq));
    1c2c:	4b05      	ldr	r3, [pc, #20]	; (1c44 <arch_irq_is_enabled+0x18>)
    1c2e:	0942      	lsrs	r2, r0, #5
    1c30:	f853 2022 	ldr.w	r2, [r3, r2, lsl #2]
    1c34:	2301      	movs	r3, #1
    1c36:	f000 001f 	and.w	r0, r0, #31
    1c3a:	fa03 f000 	lsl.w	r0, r3, r0
}
    1c3e:	4010      	ands	r0, r2
    1c40:	4770      	bx	lr
    1c42:	bf00      	nop
    1c44:	e000e100 	.word	0xe000e100

00001c48 <z_arm_irq_priority_set>:
	 */
	__ASSERT(prio <= (BIT(NUM_IRQ_PRIO_BITS) - 1),
		 "invalid priority %d for %d irq! values must be less than %lu\n",
		 prio - _IRQ_PRIO_OFFSET, irq,
		 BIT(NUM_IRQ_PRIO_BITS) - (_IRQ_PRIO_OFFSET));
	NVIC_SetPriority((IRQn_Type)irq, prio);
    1c48:	b243      	sxtb	r3, r0
  \param [in]  priority  Priority to set.
  \note    The priority cannot be set for every processor exception.
 */
__STATIC_INLINE void __NVIC_SetPriority(IRQn_Type IRQn, uint32_t priority)
{
  if ((int32_t)(IRQn) >= 0)
    1c4a:	2b00      	cmp	r3, #0
		prio += _IRQ_PRIO_OFFSET;
    1c4c:	f101 0101 	add.w	r1, r1, #1
  {
    NVIC->IPR[((uint32_t)IRQn)]               = (uint8_t)((priority << (8U - __NVIC_PRIO_BITS)) & (uint32_t)0xFFUL);
    1c50:	bfac      	ite	ge
    1c52:	f103 4360 	addge.w	r3, r3, #3758096384	; 0xe0000000
  }
  else
  {
    SCB->SHPR[(((uint32_t)IRQn) & 0xFUL)-4UL] = (uint8_t)((priority << (8U - __NVIC_PRIO_BITS)) & (uint32_t)0xFFUL);
    1c56:	4b06      	ldrlt	r3, [pc, #24]	; (1c70 <z_arm_irq_priority_set+0x28>)
    NVIC->IPR[((uint32_t)IRQn)]               = (uint8_t)((priority << (8U - __NVIC_PRIO_BITS)) & (uint32_t)0xFFUL);
    1c58:	ea4f 1141 	mov.w	r1, r1, lsl #5
    1c5c:	b2c9      	uxtb	r1, r1
    1c5e:	bfab      	itete	ge
    1c60:	f503 4361 	addge.w	r3, r3, #57600	; 0xe100
    SCB->SHPR[(((uint32_t)IRQn) & 0xFUL)-4UL] = (uint8_t)((priority << (8U - __NVIC_PRIO_BITS)) & (uint32_t)0xFFUL);
    1c64:	f000 000f 	andlt.w	r0, r0, #15
    NVIC->IPR[((uint32_t)IRQn)]               = (uint8_t)((priority << (8U - __NVIC_PRIO_BITS)) & (uint32_t)0xFFUL);
    1c68:	f883 1300 	strbge.w	r1, [r3, #768]	; 0x300
    SCB->SHPR[(((uint32_t)IRQn) & 0xFUL)-4UL] = (uint8_t)((priority << (8U - __NVIC_PRIO_BITS)) & (uint32_t)0xFFUL);
    1c6c:	5419      	strblt	r1, [r3, r0]
}
    1c6e:	4770      	bx	lr
    1c70:	e000ed14 	.word	0xe000ed14

00001c74 <z_SysNmiOnReset>:
_ASM_FILE_PROLOGUE

GTEXT(z_SysNmiOnReset)

SECTION_FUNC(TEXT, z_SysNmiOnReset)
    wfi
    1c74:	bf30      	wfi
    b z_SysNmiOnReset
    1c76:	f7ff bffd 	b.w	1c74 <z_SysNmiOnReset>
    1c7a:	bf00      	nop

00001c7c <z_arm_prep_c>:

#define VECTOR_ADDRESS ((uintptr_t)_vector_start)

static inline void relocate_vector_table(void)
{
	SCB->VTOR = VECTOR_ADDRESS & SCB_VTOR_TBLOFF_Msk;
    1c7c:	4a14      	ldr	r2, [pc, #80]	; (1cd0 <z_arm_prep_c+0x54>)
 *
 * This routine prepares for the execution of and runs C code.
 *
 */
void z_arm_prep_c(void)
{
    1c7e:	b508      	push	{r3, lr}
	SCB->VTOR = VECTOR_ADDRESS & SCB_VTOR_TBLOFF_Msk;
    1c80:	4b14      	ldr	r3, [pc, #80]	; (1cd4 <z_arm_prep_c+0x58>)
    1c82:	f022 027f 	bic.w	r2, r2, #127	; 0x7f
    1c86:	609a      	str	r2, [r3, #8]
  __ASM volatile ("dsb 0xF":::"memory");
    1c88:	f3bf 8f4f 	dsb	sy
  __ASM volatile ("isb 0xF":::"memory");
    1c8c:	f3bf 8f6f 	isb	sy
	SCB->CPACR &= (~(CPACR_CP10_Msk | CPACR_CP11_Msk));
    1c90:	f8d3 2088 	ldr.w	r2, [r3, #136]	; 0x88
    1c94:	f422 0270 	bic.w	r2, r2, #15728640	; 0xf00000
    1c98:	f8c3 2088 	str.w	r2, [r3, #136]	; 0x88
	SCB->CPACR |= CPACR_CP10_PRIV_ACCESS | CPACR_CP11_PRIV_ACCESS;
    1c9c:	f8d3 2088 	ldr.w	r2, [r3, #136]	; 0x88
    1ca0:	f442 02a0 	orr.w	r2, r2, #5242880	; 0x500000
    1ca4:	f8c3 2088 	str.w	r2, [r3, #136]	; 0x88
	FPU->FPCCR = FPU_FPCCR_ASPEN_Msk | FPU_FPCCR_LSPEN_Msk;
    1ca8:	f04f 4240 	mov.w	r2, #3221225472	; 0xc0000000
    1cac:	f8c3 2234 	str.w	r2, [r3, #564]	; 0x234
  __ASM volatile ("dsb 0xF":::"memory");
    1cb0:	f3bf 8f4f 	dsb	sy
  __ASM volatile ("isb 0xF":::"memory");
    1cb4:	f3bf 8f6f 	isb	sy
     (defined (__FPU_USED   ) && (__FPU_USED    == 1U))     )
#if __has_builtin(__builtin_arm_set_fpscr)
// Re-enable using built-in when GCC has been fixed
// || (__GNUC__ > 7) || (__GNUC__ == 7 && __GNUC_MINOR__ >= 2)
  /* see https://gcc.gnu.org/ml/gcc-patches/2017-04/msg00443.html */
  __builtin_arm_set_fpscr(fpscr);
    1cb8:	2300      	movs	r3, #0
    1cba:	eee1 3a10 	vmsr	fpscr, r3
	relocate_vector_table();
#if defined(CONFIG_CPU_HAS_FPU)
	z_arm_floating_point_init();
#endif
	z_bss_zero();
    1cbe:	f002 f921 	bl	3f04 <z_bss_zero>
	z_data_copy();
    1cc2:	f002 f961 	bl	3f88 <z_data_copy>
#if ((defined(CONFIG_ARMV7_R) || defined(CONFIG_ARMV7_A)) && defined(CONFIG_INIT_STACKS))
	z_arm_init_stacks();
#endif
	z_arm_interrupt_init();
    1cc6:	f000 fa33 	bl	2130 <z_arm_interrupt_init>
	z_cstart();
    1cca:	f002 f927 	bl	3f1c <z_cstart>
    1cce:	bf00      	nop
    1cd0:	00000000 	.word	0x00000000
    1cd4:	e000ed00 	.word	0xe000ed00

00001cd8 <z_arm_svc>:
  bne _stack_frame_endif
_stack_frame_msp:
  mrs r0, MSP
_stack_frame_endif:
#elif defined(CONFIG_ARMV7_M_ARMV8_M_MAINLINE)
    tst lr, #_EXC_RETURN_SPSEL_Msk /* did we come from thread mode ? */
    1cd8:	f01e 0f04 	tst.w	lr, #4
    ite eq  /* if zero (equal), came from handler mode */
    1cdc:	bf0c      	ite	eq
        mrseq r0, MSP   /* handler mode, stack frame is on MSP */
    1cde:	f3ef 8008 	mrseq	r0, MSP
        mrsne r0, PSP   /* thread mode, stack frame is on PSP */
    1ce2:	f3ef 8009 	mrsne	r0, PSP
#endif


    /* Figure out what SVC call number was invoked */

    ldr r1, [r0, #24]   /* grab address of PC from stack frame */
    1ce6:	6981      	ldr	r1, [r0, #24]
     */
#if defined(CONFIG_ARMV6_M_ARMV8_M_BASELINE)
    subs r1, r1, #2
    ldrb r1, [r1]
#elif defined(CONFIG_ARMV7_M_ARMV8_M_MAINLINE)
    ldrb r1, [r1, #-2]
    1ce8:	f811 1c02 	ldrb.w	r1, [r1, #-2]
#endif
    bne _oops

#endif /* CONFIG_USERSPACE */

    cmp r1, #2
    1cec:	2902      	cmp	r1, #2
    beq _oops
    1cee:	d0ff      	beq.n	1cf0 <_oops>

00001cf0 <_oops>:
    /* exception return is done in z_arm_int_exit() */
    b z_arm_int_exit
#endif

_oops:
    push {r0, lr}
    1cf0:	b501      	push	{r0, lr}
    bl z_do_kernel_oops
    1cf2:	f004 faa5 	bl	6240 <z_do_kernel_oops>
    /* return from SVC exception is done here */
    pop {r0, pc}
    1cf6:	bd01      	pop	{r0, pc}

00001cf8 <z_arm_switch_to_main_no_multithreading>:

#if !defined(CONFIG_MULTITHREADING) && defined(CONFIG_CPU_CORTEX_M)

FUNC_NORETURN void z_arm_switch_to_main_no_multithreading(
	k_thread_entry_t main_entry, void *p1, void *p2, void *p3)
{
    1cf8:	4604      	mov	r4, r0
    1cfa:	4608      	mov	r0, r1
    1cfc:	4611      	mov	r1, r2
    1cfe:	461a      	mov	r2, r3
    1d00:	2300      	movs	r3, #0
    1d02:	eee1 3a10 	vmsr	fpscr, r3
  __ASM volatile ("MSR psplim, %0" : : "r" (ProcStackPtrLimit));
    1d06:	f383 880b 	msr	PSPLIM, r3
	 */
	register void *p1_inreg __asm__("r0") = p1;
	register void *p2_inreg __asm__("r1") = p2;
	register void *p3_inreg __asm__("r2") = p3;

	__asm__ volatile (
    1d0a:	4b0a      	ldr	r3, [pc, #40]	; (1d34 <loop+0x2>)
    1d0c:	2520      	movs	r5, #32
    1d0e:	f5a3 5620 	sub.w	r6, r3, #10240	; 0x2800
    1d12:	f386 880b 	msr	PSPLIM, r6
    1d16:	f383 8809 	msr	PSP, r3
    1d1a:	b663      	cpsie	if
    1d1c:	f04f 0300 	mov.w	r3, #0
    1d20:	f383 8811 	msr	BASEPRI, r3
    1d24:	f3bf 8f6f 	isb	sy
    1d28:	47a0      	blx	r4
    1d2a:	f385 8811 	msr	BASEPRI, r5
    1d2e:	f3bf 8f6f 	isb	sy

00001d32 <loop>:
    1d32:	e7fe      	b.n	1d32 <loop>
	, [_psplim]"r" (psplim)
#endif
	:
	);

	CODE_UNREACHABLE; /* LCOV_EXCL_LINE */
    1d34:	20017cd0 	.word	0x20017cd0

00001d38 <_isr_wrapper>:
 *
 */
SECTION_FUNC(TEXT, _isr_wrapper)

#if defined(CONFIG_CPU_CORTEX_M)
	push {r0,lr}		/* r0, lr are now the first items on the stack */
    1d38:	b501      	push	{r0, lr}
#endif

#endif /* CONFIG_PM */

#if defined(CONFIG_CPU_CORTEX_M)
	mrs r0, IPSR	/* get exception number */
    1d3a:	f3ef 8005 	mrs	r0, IPSR
#if defined(CONFIG_ARMV6_M_ARMV8_M_BASELINE)
	ldr r1, =16
	subs r0, r1	/* get IRQ number */
	lsls r0, #3	/* table is 8-byte wide */
#elif defined(CONFIG_ARMV7_M_ARMV8_M_MAINLINE)
	sub r0, r0, #16	/* get IRQ number */
    1d3e:	f1a0 0010 	sub.w	r0, r0, #16
	lsl r0, r0, #3	/* table is 8-byte wide */
    1d42:	ea4f 00c0 	mov.w	r0, r0, lsl #3
	lsl r1, r1, #3
	cmp r0, r1
	bge spurious_continue
#endif /* !CONFIG_CPU_CORTEX_M */

	ldr r1, =_sw_isr_table
    1d46:	4904      	ldr	r1, [pc, #16]	; (1d58 <_isr_wrapper+0x20>)
	add r1, r1, r0	/* table entry: ISRs must have their MSB set to stay
    1d48:	4401      	add	r1, r0
			 * in thumb mode */

	ldm r1!,{r0,r3}	/* arg in r0, ISR in r3 */
    1d4a:	c909      	ldmia	r1!, {r0, r3}
	blx r3		/* call ISR */
    1d4c:	4798      	blx	r3

#if defined(CONFIG_ARMV6_M_ARMV8_M_BASELINE)
	pop {r0, r3}
	mov lr, r3
#elif defined(CONFIG_ARMV7_M_ARMV8_M_MAINLINE)
	pop {r0, lr}
    1d4e:	e8bd 4001 	ldmia.w	sp!, {r0, lr}
#endif /* CONFIG_ARMV6_M_ARMV8_M_BASELINE */

	/* Use 'bx' instead of 'b' because 'bx' can jump further, and use
	 * 'bx' instead of 'blx' because exception return is done in
	 * z_arm_int_exit() */
	ldr r1, =z_arm_int_exit
    1d52:	4902      	ldr	r1, [pc, #8]	; (1d5c <_isr_wrapper+0x24>)
	bx r1
    1d54:	4708      	bx	r1
    1d56:	0000      	.short	0x0000
	ldr r1, =_sw_isr_table
    1d58:	00006a94 	.word	0x00006a94
	ldr r1, =z_arm_int_exit
    1d5c:	00001d61 	.word	0x00001d61

00001d60 <z_arm_exc_exit>:
#else
	pop {r0, lr}
#endif /* CONFIG_ARMV6_M_ARMV8_M_BASELINE */
#endif /* CONFIG_STACK_SENTINEL */

	bx lr
    1d60:	4770      	bx	lr
    1d62:	bf00      	nop

00001d64 <usage_fault.constprop.0>:
 *
 * See z_arm_fault_dump() for example.
 *
 * @return error code to identify the fatal error reason
 */
static uint32_t usage_fault(const z_arch_esf_t *esf)
    1d64:	b538      	push	{r3, r4, r5, lr}
	uint32_t reason = K_ERR_CPU_EXCEPTION;

	PR_FAULT_INFO("***** USAGE FAULT *****");

	/* bits are sticky: they stack and must be reset */
	if ((SCB->CFSR & SCB_CFSR_DIVBYZERO_Msk) != 0) {
    1d66:	4c21      	ldr	r4, [pc, #132]	; (1dec <usage_fault.constprop.0+0x88>)
	PR_FAULT_INFO("***** USAGE FAULT *****");
    1d68:	2145      	movs	r1, #69	; 0x45
    1d6a:	4821      	ldr	r0, [pc, #132]	; (1df0 <usage_fault.constprop.0+0x8c>)
    1d6c:	f004 f9d6 	bl	611c <z_log_minimal_printk>
	if ((SCB->CFSR & SCB_CFSR_DIVBYZERO_Msk) != 0) {
    1d70:	6aa3      	ldr	r3, [r4, #40]	; 0x28
    1d72:	019d      	lsls	r5, r3, #6
    1d74:	d503      	bpl.n	1d7e <usage_fault.constprop.0+0x1a>
		PR_FAULT_INFO("  Division by zero");
    1d76:	2145      	movs	r1, #69	; 0x45
    1d78:	481e      	ldr	r0, [pc, #120]	; (1df4 <usage_fault.constprop.0+0x90>)
    1d7a:	f004 f9cf 	bl	611c <z_log_minimal_printk>
	}
	if ((SCB->CFSR & SCB_CFSR_UNALIGNED_Msk) != 0) {
    1d7e:	6aa3      	ldr	r3, [r4, #40]	; 0x28
    1d80:	01dc      	lsls	r4, r3, #7
    1d82:	d503      	bpl.n	1d8c <usage_fault.constprop.0+0x28>
		PR_FAULT_INFO("  Unaligned memory access");
    1d84:	2145      	movs	r1, #69	; 0x45
    1d86:	481c      	ldr	r0, [pc, #112]	; (1df8 <usage_fault.constprop.0+0x94>)
    1d88:	f004 f9c8 	bl	611c <z_log_minimal_printk>
	}
#if defined(CONFIG_ARMV8_M_MAINLINE)
	if ((SCB->CFSR & SCB_CFSR_STKOF_Msk) != 0) {
    1d8c:	4d17      	ldr	r5, [pc, #92]	; (1dec <usage_fault.constprop.0+0x88>)
    1d8e:	6aac      	ldr	r4, [r5, #40]	; 0x28
    1d90:	f414 1480 	ands.w	r4, r4, #1048576	; 0x100000
    1d94:	d004      	beq.n	1da0 <usage_fault.constprop.0+0x3c>
		PR_FAULT_INFO("  Stack overflow (context area not valid)");
    1d96:	2145      	movs	r1, #69	; 0x45
    1d98:	4818      	ldr	r0, [pc, #96]	; (1dfc <usage_fault.constprop.0+0x98>)
    1d9a:	f004 f9bf 	bl	611c <z_log_minimal_printk>
		 * prevents the context area to be loaded on the stack upon
		 * UsageFault exception entry. As a result, we cannot rely
		 * on the reported faulty instruction address, to determine
		 * the instruction that triggered the stack overflow.
		 */
		reason = K_ERR_STACK_CHK_FAIL;
    1d9e:	2402      	movs	r4, #2
#endif /* CONFIG_BUILTIN_STACK_GUARD */
	}
#endif /* CONFIG_ARMV8_M_MAINLINE */
	if ((SCB->CFSR & SCB_CFSR_NOCP_Msk) != 0) {
    1da0:	6aab      	ldr	r3, [r5, #40]	; 0x28
    1da2:	0318      	lsls	r0, r3, #12
    1da4:	d503      	bpl.n	1dae <usage_fault.constprop.0+0x4a>
		PR_FAULT_INFO("  No coprocessor instructions");
    1da6:	2145      	movs	r1, #69	; 0x45
    1da8:	4815      	ldr	r0, [pc, #84]	; (1e00 <usage_fault.constprop.0+0x9c>)
    1daa:	f004 f9b7 	bl	611c <z_log_minimal_printk>
	}
	if ((SCB->CFSR & SCB_CFSR_INVPC_Msk) != 0) {
    1dae:	4d0f      	ldr	r5, [pc, #60]	; (1dec <usage_fault.constprop.0+0x88>)
    1db0:	6aab      	ldr	r3, [r5, #40]	; 0x28
    1db2:	0359      	lsls	r1, r3, #13
    1db4:	d503      	bpl.n	1dbe <usage_fault.constprop.0+0x5a>
		PR_FAULT_INFO("  Illegal load of EXC_RETURN into PC");
    1db6:	2145      	movs	r1, #69	; 0x45
    1db8:	4812      	ldr	r0, [pc, #72]	; (1e04 <usage_fault.constprop.0+0xa0>)
    1dba:	f004 f9af 	bl	611c <z_log_minimal_printk>
	}
	if ((SCB->CFSR & SCB_CFSR_INVSTATE_Msk) != 0) {
    1dbe:	6aab      	ldr	r3, [r5, #40]	; 0x28
    1dc0:	039a      	lsls	r2, r3, #14
    1dc2:	d503      	bpl.n	1dcc <usage_fault.constprop.0+0x68>
		PR_FAULT_INFO("  Illegal use of the EPSR");
    1dc4:	2145      	movs	r1, #69	; 0x45
    1dc6:	4810      	ldr	r0, [pc, #64]	; (1e08 <usage_fault.constprop.0+0xa4>)
    1dc8:	f004 f9a8 	bl	611c <z_log_minimal_printk>
	}
	if ((SCB->CFSR & SCB_CFSR_UNDEFINSTR_Msk) != 0) {
    1dcc:	4d07      	ldr	r5, [pc, #28]	; (1dec <usage_fault.constprop.0+0x88>)
    1dce:	6aab      	ldr	r3, [r5, #40]	; 0x28
    1dd0:	03db      	lsls	r3, r3, #15
    1dd2:	d503      	bpl.n	1ddc <usage_fault.constprop.0+0x78>
		PR_FAULT_INFO("  Attempt to execute undefined instruction");
    1dd4:	2145      	movs	r1, #69	; 0x45
    1dd6:	480d      	ldr	r0, [pc, #52]	; (1e0c <usage_fault.constprop.0+0xa8>)
    1dd8:	f004 f9a0 	bl	611c <z_log_minimal_printk>
	}

	/* clear UFSR sticky bits */
	SCB->CFSR |= SCB_CFSR_USGFAULTSR_Msk;
    1ddc:	6aab      	ldr	r3, [r5, #40]	; 0x28

	return reason;
}
    1dde:	4620      	mov	r0, r4
	SCB->CFSR |= SCB_CFSR_USGFAULTSR_Msk;
    1de0:	ea6f 4303 	mvn.w	r3, r3, lsl #16
    1de4:	ea6f 4313 	mvn.w	r3, r3, lsr #16
    1de8:	62ab      	str	r3, [r5, #40]	; 0x28
}
    1dea:	bd38      	pop	{r3, r4, r5, pc}
    1dec:	e000ed00 	.word	0xe000ed00
    1df0:	0000760e 	.word	0x0000760e
    1df4:	0000762b 	.word	0x0000762b
    1df8:	00007643 	.word	0x00007643
    1dfc:	00007662 	.word	0x00007662
    1e00:	00007691 	.word	0x00007691
    1e04:	000076b4 	.word	0x000076b4
    1e08:	000076de 	.word	0x000076de
    1e0c:	000076fd 	.word	0x000076fd

00001e10 <bus_fault.constprop.0>:
static int bus_fault(z_arch_esf_t *esf, int from_hard_fault, bool *recoverable)
    1e10:	b570      	push	{r4, r5, r6, lr}
	if (SCB->CFSR & SCB_CFSR_STKERR_Msk) {
    1e12:	4c23      	ldr	r4, [pc, #140]	; (1ea0 <bus_fault.constprop.0+0x90>)
static int bus_fault(z_arch_esf_t *esf, int from_hard_fault, bool *recoverable)
    1e14:	4606      	mov	r6, r0
    1e16:	460d      	mov	r5, r1
	PR_FAULT_INFO("***** BUS FAULT *****");
    1e18:	4822      	ldr	r0, [pc, #136]	; (1ea4 <bus_fault.constprop.0+0x94>)
    1e1a:	2145      	movs	r1, #69	; 0x45
    1e1c:	f004 f97e 	bl	611c <z_log_minimal_printk>
	if (SCB->CFSR & SCB_CFSR_STKERR_Msk) {
    1e20:	6aa3      	ldr	r3, [r4, #40]	; 0x28
    1e22:	04d9      	lsls	r1, r3, #19
    1e24:	d503      	bpl.n	1e2e <bus_fault.constprop.0+0x1e>
		PR_FAULT_INFO("  Stacking error");
    1e26:	2145      	movs	r1, #69	; 0x45
    1e28:	481f      	ldr	r0, [pc, #124]	; (1ea8 <bus_fault.constprop.0+0x98>)
    1e2a:	f004 f977 	bl	611c <z_log_minimal_printk>
	if (SCB->CFSR & SCB_CFSR_UNSTKERR_Msk) {
    1e2e:	6aa3      	ldr	r3, [r4, #40]	; 0x28
    1e30:	051a      	lsls	r2, r3, #20
    1e32:	d503      	bpl.n	1e3c <bus_fault.constprop.0+0x2c>
		PR_FAULT_INFO("  Unstacking error");
    1e34:	2145      	movs	r1, #69	; 0x45
    1e36:	481d      	ldr	r0, [pc, #116]	; (1eac <bus_fault.constprop.0+0x9c>)
    1e38:	f004 f970 	bl	611c <z_log_minimal_printk>
	if (SCB->CFSR & SCB_CFSR_PRECISERR_Msk) {
    1e3c:	4c18      	ldr	r4, [pc, #96]	; (1ea0 <bus_fault.constprop.0+0x90>)
    1e3e:	6aa3      	ldr	r3, [r4, #40]	; 0x28
    1e40:	059b      	lsls	r3, r3, #22
    1e42:	d510      	bpl.n	1e66 <bus_fault.constprop.0+0x56>
		PR_FAULT_INFO("  Precise data bus error");
    1e44:	481a      	ldr	r0, [pc, #104]	; (1eb0 <bus_fault.constprop.0+0xa0>)
    1e46:	2145      	movs	r1, #69	; 0x45
    1e48:	f004 f968 	bl	611c <z_log_minimal_printk>
		STORE_xFAR(bfar, SCB->BFAR);
    1e4c:	6ba2      	ldr	r2, [r4, #56]	; 0x38
		if ((SCB->CFSR & SCB_CFSR_BFARVALID_Msk) != 0) {
    1e4e:	6aa3      	ldr	r3, [r4, #40]	; 0x28
    1e50:	0418      	lsls	r0, r3, #16
    1e52:	d508      	bpl.n	1e66 <bus_fault.constprop.0+0x56>
			PR_EXC("  BFAR Address: 0x%x", bfar);
    1e54:	2145      	movs	r1, #69	; 0x45
    1e56:	4817      	ldr	r0, [pc, #92]	; (1eb4 <bus_fault.constprop.0+0xa4>)
    1e58:	f004 f960 	bl	611c <z_log_minimal_printk>
			if (from_hard_fault != 0) {
    1e5c:	b11e      	cbz	r6, 1e66 <bus_fault.constprop.0+0x56>
				SCB->CFSR &= ~SCB_CFSR_BFARVALID_Msk;
    1e5e:	6aa3      	ldr	r3, [r4, #40]	; 0x28
    1e60:	f423 4300 	bic.w	r3, r3, #32768	; 0x8000
    1e64:	62a3      	str	r3, [r4, #40]	; 0x28
	if (SCB->CFSR & SCB_CFSR_IMPRECISERR_Msk) {
    1e66:	4c0e      	ldr	r4, [pc, #56]	; (1ea0 <bus_fault.constprop.0+0x90>)
    1e68:	6aa3      	ldr	r3, [r4, #40]	; 0x28
    1e6a:	0559      	lsls	r1, r3, #21
    1e6c:	d503      	bpl.n	1e76 <bus_fault.constprop.0+0x66>
		PR_FAULT_INFO("  Imprecise data bus error");
    1e6e:	2145      	movs	r1, #69	; 0x45
    1e70:	4811      	ldr	r0, [pc, #68]	; (1eb8 <bus_fault.constprop.0+0xa8>)
    1e72:	f004 f953 	bl	611c <z_log_minimal_printk>
	if ((SCB->CFSR & SCB_CFSR_IBUSERR_Msk) != 0) {
    1e76:	6aa3      	ldr	r3, [r4, #40]	; 0x28
    1e78:	05da      	lsls	r2, r3, #23
    1e7a:	d50b      	bpl.n	1e94 <bus_fault.constprop.0+0x84>
		PR_FAULT_INFO("  Instruction bus error");
    1e7c:	2145      	movs	r1, #69	; 0x45
    1e7e:	480f      	ldr	r0, [pc, #60]	; (1ebc <bus_fault.constprop.0+0xac>)
		PR_FAULT_INFO("  Floating-point lazy state preservation error");
    1e80:	f004 f94c 	bl	611c <z_log_minimal_printk>
	*recoverable = memory_fault_recoverable(esf, true);
    1e84:	2000      	movs	r0, #0
	SCB->CFSR |= SCB_CFSR_BUSFAULTSR_Msk;
    1e86:	4a06      	ldr	r2, [pc, #24]	; (1ea0 <bus_fault.constprop.0+0x90>)
    1e88:	6a93      	ldr	r3, [r2, #40]	; 0x28
    1e8a:	f443 437f 	orr.w	r3, r3, #65280	; 0xff00
    1e8e:	6293      	str	r3, [r2, #40]	; 0x28
	*recoverable = memory_fault_recoverable(esf, true);
    1e90:	7028      	strb	r0, [r5, #0]
}
    1e92:	bd70      	pop	{r4, r5, r6, pc}
	} else if (SCB->CFSR & SCB_CFSR_LSPERR_Msk) {
    1e94:	6aa3      	ldr	r3, [r4, #40]	; 0x28
    1e96:	049b      	lsls	r3, r3, #18
    1e98:	d5f4      	bpl.n	1e84 <bus_fault.constprop.0+0x74>
		PR_FAULT_INFO("  Floating-point lazy state preservation error");
    1e9a:	2145      	movs	r1, #69	; 0x45
    1e9c:	4808      	ldr	r0, [pc, #32]	; (1ec0 <bus_fault.constprop.0+0xb0>)
    1e9e:	e7ef      	b.n	1e80 <bus_fault.constprop.0+0x70>
    1ea0:	e000ed00 	.word	0xe000ed00
    1ea4:	0000772d 	.word	0x0000772d
    1ea8:	00007748 	.word	0x00007748
    1eac:	0000775e 	.word	0x0000775e
    1eb0:	00007776 	.word	0x00007776
    1eb4:	00007794 	.word	0x00007794
    1eb8:	000077ae 	.word	0x000077ae
    1ebc:	000077ce 	.word	0x000077ce
    1ec0:	000077eb 	.word	0x000077eb

00001ec4 <mem_manage_fault.constprop.0>:
static uint32_t mem_manage_fault(z_arch_esf_t *esf, int from_hard_fault,
    1ec4:	b570      	push	{r4, r5, r6, lr}
	if ((SCB->CFSR & SCB_CFSR_MSTKERR_Msk) != 0) {
    1ec6:	4c26      	ldr	r4, [pc, #152]	; (1f60 <mem_manage_fault.constprop.0+0x9c>)
static uint32_t mem_manage_fault(z_arch_esf_t *esf, int from_hard_fault,
    1ec8:	4606      	mov	r6, r0
    1eca:	460d      	mov	r5, r1
	PR_FAULT_INFO("***** MPU FAULT *****");
    1ecc:	4825      	ldr	r0, [pc, #148]	; (1f64 <mem_manage_fault.constprop.0+0xa0>)
    1ece:	2145      	movs	r1, #69	; 0x45
    1ed0:	f004 f924 	bl	611c <z_log_minimal_printk>
	if ((SCB->CFSR & SCB_CFSR_MSTKERR_Msk) != 0) {
    1ed4:	6aa3      	ldr	r3, [r4, #40]	; 0x28
    1ed6:	06d8      	lsls	r0, r3, #27
    1ed8:	d503      	bpl.n	1ee2 <mem_manage_fault.constprop.0+0x1e>
		PR_FAULT_INFO("  Stacking error (context area might be"
    1eda:	2145      	movs	r1, #69	; 0x45
    1edc:	4822      	ldr	r0, [pc, #136]	; (1f68 <mem_manage_fault.constprop.0+0xa4>)
    1ede:	f004 f91d 	bl	611c <z_log_minimal_printk>
	if ((SCB->CFSR & SCB_CFSR_MUNSTKERR_Msk) != 0) {
    1ee2:	6aa3      	ldr	r3, [r4, #40]	; 0x28
    1ee4:	0719      	lsls	r1, r3, #28
    1ee6:	d503      	bpl.n	1ef0 <mem_manage_fault.constprop.0+0x2c>
		PR_FAULT_INFO("  Unstacking error");
    1ee8:	2145      	movs	r1, #69	; 0x45
    1eea:	4820      	ldr	r0, [pc, #128]	; (1f6c <mem_manage_fault.constprop.0+0xa8>)
    1eec:	f004 f916 	bl	611c <z_log_minimal_printk>
	if ((SCB->CFSR & SCB_CFSR_DACCVIOL_Msk) != 0) {
    1ef0:	4c1b      	ldr	r4, [pc, #108]	; (1f60 <mem_manage_fault.constprop.0+0x9c>)
    1ef2:	6aa3      	ldr	r3, [r4, #40]	; 0x28
    1ef4:	079a      	lsls	r2, r3, #30
    1ef6:	d510      	bpl.n	1f1a <mem_manage_fault.constprop.0+0x56>
		PR_FAULT_INFO("  Data Access Violation");
    1ef8:	2145      	movs	r1, #69	; 0x45
    1efa:	481d      	ldr	r0, [pc, #116]	; (1f70 <mem_manage_fault.constprop.0+0xac>)
    1efc:	f004 f90e 	bl	611c <z_log_minimal_printk>
		uint32_t temp = SCB->MMFAR;
    1f00:	6b62      	ldr	r2, [r4, #52]	; 0x34
		if ((SCB->CFSR & SCB_CFSR_MMARVALID_Msk) != 0) {
    1f02:	6aa3      	ldr	r3, [r4, #40]	; 0x28
    1f04:	061b      	lsls	r3, r3, #24
    1f06:	d508      	bpl.n	1f1a <mem_manage_fault.constprop.0+0x56>
			PR_EXC("  MMFAR Address: 0x%x", mmfar);
    1f08:	2145      	movs	r1, #69	; 0x45
    1f0a:	481a      	ldr	r0, [pc, #104]	; (1f74 <mem_manage_fault.constprop.0+0xb0>)
    1f0c:	f004 f906 	bl	611c <z_log_minimal_printk>
			if (from_hard_fault != 0) {
    1f10:	b11e      	cbz	r6, 1f1a <mem_manage_fault.constprop.0+0x56>
				SCB->CFSR &= ~SCB_CFSR_MMARVALID_Msk;
    1f12:	6aa3      	ldr	r3, [r4, #40]	; 0x28
    1f14:	f023 0380 	bic.w	r3, r3, #128	; 0x80
    1f18:	62a3      	str	r3, [r4, #40]	; 0x28
	if ((SCB->CFSR & SCB_CFSR_IACCVIOL_Msk) != 0) {
    1f1a:	4c11      	ldr	r4, [pc, #68]	; (1f60 <mem_manage_fault.constprop.0+0x9c>)
    1f1c:	6aa3      	ldr	r3, [r4, #40]	; 0x28
    1f1e:	07de      	lsls	r6, r3, #31
    1f20:	d503      	bpl.n	1f2a <mem_manage_fault.constprop.0+0x66>
		PR_FAULT_INFO("  Instruction Access Violation");
    1f22:	2145      	movs	r1, #69	; 0x45
    1f24:	4814      	ldr	r0, [pc, #80]	; (1f78 <mem_manage_fault.constprop.0+0xb4>)
    1f26:	f004 f8f9 	bl	611c <z_log_minimal_printk>
	if ((SCB->CFSR & SCB_CFSR_MLSPERR_Msk) != 0) {
    1f2a:	6aa3      	ldr	r3, [r4, #40]	; 0x28
    1f2c:	0698      	lsls	r0, r3, #26
    1f2e:	d503      	bpl.n	1f38 <mem_manage_fault.constprop.0+0x74>
		PR_FAULT_INFO(
    1f30:	2145      	movs	r1, #69	; 0x45
    1f32:	4812      	ldr	r0, [pc, #72]	; (1f7c <mem_manage_fault.constprop.0+0xb8>)
    1f34:	f004 f8f2 	bl	611c <z_log_minimal_printk>
	*recoverable = memory_fault_recoverable(esf, true);
    1f38:	2000      	movs	r0, #0
	if ((SCB->CFSR & SCB_CFSR_MSTKERR_Msk) ||
    1f3a:	4b09      	ldr	r3, [pc, #36]	; (1f60 <mem_manage_fault.constprop.0+0x9c>)
    1f3c:	6a9a      	ldr	r2, [r3, #40]	; 0x28
    1f3e:	06d1      	lsls	r1, r2, #27
		(SCB->CFSR & SCB_CFSR_DACCVIOL_Msk)) {
    1f40:	bf58      	it	pl
    1f42:	6a9a      	ldrpl	r2, [r3, #40]	; 0x28
	if ((SCB->CFSR & SCB_CFSR_MLSPERR_Msk) != 0) {
    1f44:	6a9a      	ldr	r2, [r3, #40]	; 0x28
    1f46:	0692      	lsls	r2, r2, #26
		SCB->SHCSR &= ~SCB_SHCSR_MEMFAULTPENDED_Msk;
    1f48:	bf42      	ittt	mi
    1f4a:	6a5a      	ldrmi	r2, [r3, #36]	; 0x24
    1f4c:	f422 5200 	bicmi.w	r2, r2, #8192	; 0x2000
    1f50:	625a      	strmi	r2, [r3, #36]	; 0x24
	SCB->CFSR |= SCB_CFSR_MEMFAULTSR_Msk;
    1f52:	4a03      	ldr	r2, [pc, #12]	; (1f60 <mem_manage_fault.constprop.0+0x9c>)
    1f54:	6a93      	ldr	r3, [r2, #40]	; 0x28
    1f56:	f043 03ff 	orr.w	r3, r3, #255	; 0xff
    1f5a:	6293      	str	r3, [r2, #40]	; 0x28
	*recoverable = memory_fault_recoverable(esf, true);
    1f5c:	7028      	strb	r0, [r5, #0]
}
    1f5e:	bd70      	pop	{r4, r5, r6, pc}
    1f60:	e000ed00 	.word	0xe000ed00
    1f64:	0000781f 	.word	0x0000781f
    1f68:	0000783a 	.word	0x0000783a
    1f6c:	0000775e 	.word	0x0000775e
    1f70:	00007872 	.word	0x00007872
    1f74:	0000788f 	.word	0x0000788f
    1f78:	000078aa 	.word	0x000078aa
    1f7c:	000077eb 	.word	0x000077eb

00001f80 <z_arm_fault>:
 * @param callee_regs Callee-saved registers (R4-R11, PSP)
 *
 */
void z_arm_fault(uint32_t msp, uint32_t psp, uint32_t exc_return,
	_callee_saved_t *callee_regs)
{
    1f80:	e92d 41f0 	stmdb	sp!, {r4, r5, r6, r7, r8, lr}
	uint32_t reason = K_ERR_CPU_EXCEPTION;
	int fault = SCB->ICSR & SCB_ICSR_VECTACTIVE_Msk;
    1f84:	4b54      	ldr	r3, [pc, #336]	; (20d8 <CONFIG_NRF_SPU_RAM_REGION_SIZE+0xd8>)
    1f86:	2500      	movs	r5, #0
    1f88:	685e      	ldr	r6, [r3, #4]
{
    1f8a:	b08a      	sub	sp, #40	; 0x28
	int fault = SCB->ICSR & SCB_ICSR_VECTACTIVE_Msk;
    1f8c:	f3c6 0408 	ubfx	r4, r6, #0, #9
    1f90:	f385 8811 	msr	BASEPRI, r5
    1f94:	f3bf 8f6f 	isb	sy
	if ((exc_return & EXC_RETURN_INDICATOR_PREFIX) !=
    1f98:	f002 437f 	and.w	r3, r2, #4278190080	; 0xff000000
    1f9c:	f1b3 4f7f 	cmp.w	r3, #4278190080	; 0xff000000
    1fa0:	d107      	bne.n	1fb2 <z_arm_fault+0x32>
	if ((exc_return & EXC_RETURN_MODE_THREAD) &&
    1fa2:	f002 030c 	and.w	r3, r2, #12
    1fa6:	2b08      	cmp	r3, #8
    1fa8:	d105      	bne.n	1fb6 <z_arm_fault+0x36>
		PR_EXC("SPSEL in thread mode does not indicate PSP");
    1faa:	2145      	movs	r1, #69	; 0x45
    1fac:	484b      	ldr	r0, [pc, #300]	; (20dc <CONFIG_NRF_SPU_RAM_REGION_SIZE+0xdc>)
    1fae:	f004 f8b5 	bl	611c <z_log_minimal_printk>
		return NULL;
    1fb2:	462f      	mov	r7, r5
    1fb4:	e004      	b.n	1fc0 <z_arm_fault+0x40>
		if (exc_return & EXC_RETURN_MODE_THREAD) {
