:10000000D07C012049210000516200001D21000028
:100010001D2100001D2100001D2100001D210000E8
:10002000000000000000000000000000D91C0000DB
:100030001D210000000000001D2100001D21000006
:10004000391D0000391D0000391D0000391D000058
:10005000391D0000391D0000391D0000391D000048
:10006000391D0000391D0000391D0000391D000038
:10007000391D0000391D0000391D0000391D000028
:10008000391D0000391D0000391D0000391D000018
:10009000391D0000391D0000391D0000391D000008
:1000A000391D0000391D0000391D0000391D0000F8
:1000B000391D0000391D0000391D0000391D0000E8
:1000C000391D0000391D0000391D0000391D0000D8
:1000D000391D0000391D0000391D0000391D0000C8
:1000E000391D0000391D0000391D0000391D0000B8
:1000F000391D0000391D0000391D0000391D0000A8
:10010000391D0000391D0000391D0000391D000097
:10011000391D0000391D0000391D0000391D000087
:10012000391D0000391D0000391D0000391D000077
:10013000391D0000391D0000391D0000391D000067
:04014000391D000065
:1001440053B94AB9002908BF00281CBF4FF0FF313A
:100154004FF0FF3000F00CB8ADF1080C6DE904CE9F
:1001640000F008F8DDF804E0DDE9022304B070478C
:10017400704700BF2DE9F04F099E88468E4615460C
:1001840004461946002B40F0C6804245B2FA82F775
:1001940046D94FB1C7F1200C08FA07F3BD40BC4063
:1001A40020FA0CFC4CEA030E4FEA15481FFA85FCB2
:1001B400220CBEFBF8F908FB19E309FB0CFA42EA2E
:1001C40003439A4528D9EB1809F1FF3004D29A4524
:1001D40002D9A9F102002B44A3EB0A03A4B2B3FB96
:1001E400F8F208FB123302FB0CFC44EA0344A44576
:1001F40014D92C1902F1FF3303D2A44501D9931E5B
:100204002C44A4EB0C0443EA00401EB1FC40002340
:1002140034607360BDE8F08F4846DDE71346F0E7CD
:1002240002B9FFDE8FBBA8EB020301214FEA154E92
:10023400AAB2200CB3FBFEFC0EFB1C330CFB02F831
:1002440040EA0343984562D9EB180CF1FF3004D21D
:10025400984502D9ACF102002B44A3EB0803A4B2E5
:10026400B3FBFEFC0EFB1C330CFB02F244EA03441A
:10027400A2424ED92C190CF1FF3304D2A24202D966
:10028400ACF102032C44A41ABDE7C7F1200CBD4015
:1002940008FA07F3BC4028FA0CF94FEA154E20FA85
:1002A4000CFC4CEA0302ABB2B9FBFEFC110C0EFBD6
:1002B4001C900CFB03F841EA0040804523D9281820
:1002C4000CF1FF3104D2804502D9ACF1020128447B
:1002D400A0EB080092B2B0FBFEFC0EFB1C000CFB72
:1002E40003F842EA004398450FD9EB180CF1FF32AA
:1002F40004D2984502D9ACF102022B44A3EB0803C3
:1003040042EA014192E76146E2E76246F6E7604667
:10031400A3E76346B7E7434505D90EB1C6E900082C
:100324000021084676E7B3FA83FCBCF1000F10D134
:10033400434501D382420AD8841A68EB030301209F
:100344009E46002E68D0C6E9004E002162E7604652
:10035400F7E7CCF1200E03FA0CF302FA0CF500FADD
:100364000CF722FA0EF428FA0EFB20FA0EF11C43C5
:1003740008FA0CF34FEA14491943A3B20A0CBBFB65
:10038400F9F809FB18BB08FB03FA42EA0B42924551
:100394003ED9A21808F1FF3004D2924502D9A8F13F
:1003A40002002244A2EB0A0289B2B2FBF9F809FB6B
:1003B400182208FB03F341EA024293422AD9A21805
:1003C40008F1FF3104D2934202D9A8F10201224478
:1003D40041EA0040D21AA0FB059842454B464146EB
:1003E40002D306D14F4504D20138B9EB050368EBBB
:1003F40004018EB1FC1A62EB010707FA0EFE24FA1F
:100404000CF327FA0CF74EEA0303C6E900379CE71E
:100414004046C7E74146DBE73146FBE6F0B5344BDF
:10042400344A3548C3F8002685B0C3F80426492168
:10043400C3F80826C3F80C26C3F81026C3F81426FC
:10044400C3F81826C3F81C2605F066FE05F01DFA4D
:100454002A4800F063F828B94521284A284805F0BD
:100464005BFEFEE701A800F071FC264B1B6883428B
:1004740004D04521244805F04FFEFEE7039A4921A4
:10048400224805F049FE4921214805F045FE4FF474
:100494008031002002F0A8FE044620B145211D4809
:1004A40005F03AFEFEE769469DF8080000F042F8C0
:1004B400009B039D1D44019B1E8900F05BFFAF1947
:1004C40000F03CFF01F080FE84F30B8884F30A887B
:1004D400AB5983F3088884F31488BFF36F8FBFF399
:1004E4006F8F7B68984745210B4805F015FEFEE7A2
:1004F400008001503546526E88700000A1700000E3
:10050400B4700000B4460120D3700000F6700000FF
:10051400257100004A7100007D71000010B5044C83
:10052400236813B903F06CFC2060206810BD00BF81
:10053400B046012008B540B10246002304484521D5
:1005440005F0EAFD6FF0150008BD0860FCE700BF88
:10055400A07100002DE9F04F1D46834BDBB0174618
:10056400DDE966481E68DDF890B100F0B5FE0122B1
:100574007E4B3AA8C3F8002504F0B6F83CB1B8F1B4
:10058400000F04DD424621463AA805F0D1FC4FF0A5
:1005940000097B89B7F808809844FB689844C845EB
:1005A4004ED80DA93AA804F011F900226F4BC3F8F4
:1005B4000025C3F80025689B23B1202218460DA905
:1005C40005F06FFE00232A46009339464FF6FF7369
:1005D40007A805F05BF90446002844D14FF0FF3723
:1005E400DFF894A1DFF8848102900DF1160305AAC7
:1005F40006A907A805F096F9041E34DB40F0A48090
:10060400BDF81690B9F1100F38D1BDF81490B9F1B6
:10061400200F40F0A3804B46284606993AAA05F0DD
:1006240089FD0446F8B94A463AA90DA805F0F1F93E
:1006340004464F4B1B68834215D101230293D4E730
:10064400659AA8EB09039A4228BF1A4649461346FD
:10065400924628465A4605F06DFD044638B10022FC
:10066400424BC3F8002520465BB0BDE8F08F5246EC
:1006740059463AA805F05CFCD14490E7B9F1010F62
:100684003ED1BDF81430202B68D8284606993AAAE2
:1006940005F050FD04460028E5D19DF814B0BBF1E7
:1006A400200F09D8DAF80030324F0393039B9C42A1
:1006B40005DB0023C8F800354FF0FF341CE000F0E0
:1006C4000BFEC8F800951DA804F00EF87A681DA862
:1006D400126857F8081B05F02BFC15A91DA804F097
:1006E40075F800223AA9C8F8002515A85A4605F05D
:1006F400C7FD18B9C8F80005274676E70134D5E7E1
:10070400B9F1220F7FF471AF7B1C3FF46EAFDAF8BE
:100714000030BB4215DDBDF81430802B1ED82846AE
:1007240006993AAA05F006FD044600289BD1FFB2BB
:100734002021BDF8143000973AAA0DA800F01EF845
:1007440006464FF0FF3750E7029B53B1084B1B6836
:10075400B34201D0044B1E68344684E74FF0FF34A3
:1007640081E701247FE700BFE844012000008450B2
:10077400B44601201C6D0000186D00002DE9F04105
:1007840096B017461D469DF87020354B0E4653F81B
:10079400321003EBC2035B68804618680191302372
:1007A400014402AA01A805F050FB10B14FF0FF303C
:1007B40053E0DDE901431C44214606AB03AA01A82A
:1007C40005F06BFB0028F1D1049A072AEED12549E4
:1007D400059805F055FD0028E8D1079A082AE5D1C7
:1007E4002149089805F04CFD0028DFD1214602AAD2
:1007F40001A805F03EFB0028D8D1DDE901321344FD
:100804009C42D3D1412AD1D13D443023294603AA65
:1008140002A8029705F019FB0028C7D1DDE90232CE
:1008240013449D42C2D32A4602A906A805F0C5F87E
:100834000028BBD12A4602A90EA805F0BEF800285C
:10084400B4D1202EB2D101990B78042BAED133460A
:10085400404606AA013100F057FD16B0BDE8F0810C
:100864001C6D0000C6710000CE7100002DE9F0413E
:10087400032386B00D466F460026DFF86880ADF886
:10088400003017F8010B01A901F01AF90446A0B9C8
:1008940001981023816802AA103905F04BFC044624
:1008A400019805F046FC44B91022414602A805F01F
:1008B400E7FC40B12EB14FF0FF34204606B0BDE84E
:1008C400F0810126DDE7019805F0D9FE0423A0F1AB
:1008D40008012A46019805F02DFC0446019805F00C
:1008E40028FCEAE7787000002DE9F041384B88B025
:1008F400064600200D461C6804F0BCFF06A9C0B2E1
:1009040001F0DEF8002857D1294604F0B3FF2C2467
:1009140007A9C0B204FB056401F0D2F8002836D060
:100924004FF02C0808FB05F806EB0807396911F0AD
:10093400100137D14FF480730193264B2246009364
:100944000846CDE90311069B0291FFF703FE044616
:10095400214B56F8082006989A420CD13A89FB6834
:10096400D1438B4207D813448268934203D21B4B72
:100974001B68A3421DD045B38268002105F012FC18
:10098400174A4521174805F0C7FB012411E00798D1
:1009940005F028FC0746079805F0CBFB631EE21C14
:1009A40093420DD1002DF0D03046069905F02CF974
:1009B4002C46069805F0BDFB204608B0BDE8F08142
:1009C40013F8011FB942EBD0AAE7074AD9E700BFE1
:1009D400E8440120CC5301203DB8F396B4460120ED
:1009E400D7710000E9710000E171000073B50D4694
:1009F400002104462846CDE9001105F0C4F830B3BF
:100A0400164E2368B34203D1204601AA05F050F8DC
:100A1400E36AB34204D16A460121204605F048F84E
:100A2400DDE90032934288BF0193019BAB60019AD8
:100A34002946204600F034FB094B1A68002A03DDDE
:100A44005721084805F068FB002002B070BD05F18D
:100A54000801FFF70BFFAB680193E8E73DB8F39695
:100A640018530120117200002DE9F84F8A46904670
:100A740099460026DFF870B0194C1A4D0B9B9E4224
:100A840001D300200FE00B9B50469F1BB7F5806FEE
:100A940028BF4FF48067144A3B4606EB090105F072
:100AA40049FB10B10120BDE8F88F0A993B465A462C
:100AB4004046711805F05AFB0028F3D1C4F80056DB
:100AC4003E44C4F80456C4F80856C4F80C56C4F896
:100AD4001056C4F81456C4F81856C4F81C56CDE77A
:100AE400008001503546526E184701202DE9F0432D
:100AF4000F4600218D4B85B01E688D4B0446436222
:100B04008C4B0365084604F0B5FE04F12001C0B225
:100B140000F0D6FF0121002004F0ACFE04F14C01EA
:100B2400C0B200F0CDFF0546204605F002F880462D
:100B340068B900222046114604F0A1FF804600B3A4
:100B4400002257217C4805F0E7FA012391E0802236
:100B540057217A4805F0E0FA0123984584F8583083
:100B6400E7D194F85830042B8DF8073000F28480D4
:100B7400012B00F2888000F09F80FF2384F8583016
:100B84009AE0204600F0A4F90028DED0684604F07C
:100B9400F1FF6946204605F08CF818B1424657210A
:100BA4006748D0E7684604F0EEFF80F001006A462B
:100BB400C1B2204604F063FF02460028C0D1684653
:100BC40004F0E1FF804660BB69462046FFF70EFF54
:100BD4009DF8073084F85830033B012B06D8404673
:100BE40005F0B6F810B1FF2384F858309DF80730AB
:100BF400023B022B0BD8002005F098F838B1FF23F4
:100C040084F8583045214F4805F086FAFEE794F8F9
:100C14005830FF2BF6D06A460021204604F02FFFFF
:100C240093E79DF80790B9F1010F17D1104602F030
:100C340077FB831E022B80460DD849462046FFF7DA
:100C440053FE414B1B68984205D001280CBF4FF05E
:100C540001084FF0050884F8588082E701212046F6
:100C6400FFF742FE384B1B68984214BF05239DF8DA
:100C7400073084F8583074E7052B7FF47EAF0020EA
:100C840005F066F813E069462046FFF7AFFE94F8D6
:100C940058300546DA1E012A0CD8002005F058F811
:100CA400054600287FF469AF002005F03FF80546AB
:100CB40010B162E7022BF7D094F85830FF2B04D11F
:100CC4004521204805F028FAFEE7012B06D06A46A4
:100CD4000021204604F0D3FE0546D0B90021204669
:100CE400FFF702FE0646DFF86080D8F8003098422D
:100CF4000FD110220021684605F0DEFA206A04F0C4
:100D0400C2FD00253871236AD8F800605B683C6036
:100D1400BB60E06C05F00DFA206A05F00AFA002DBC
:100D240014BF2846304605B0BDE8F083E8440120EE
:100D3400184B0120184F01208272000040720000FD
:100D4400AE720000D8720000B446012038B5064DDA
:100D5400044660220021284605F0AEFA21462846C2
:100D6400FFF7C4FE38BD00BFB846012073B5164670
:100D74001C4633B3436A5D686379012B15D101BB0B
:100D84001F4B22681B689A4298BF0025002004F07C
:100D940071FD01A9C0B200F093FEF0B101250198E4
:100DA40005F0C7F9284602B070BD022B09D12368AB
:100DB400012B08D9124A1268934202D8B1FA81F180
:100DC40049090025E2E7FCD10029DFD00129F8D147
:100DD4002179023918BF0121F3E72946202332463D
:100DE400019805F0A7F905460028D7D1002CD6D0E4
:100DF400356804482D1A18BF4FF0FF35CFE700BF00
:100E0400EC4401203DB8F3962DE9F04F07460C461B
:100E140085B001460020164604F002FE051E51DB93
:100E24003846E46D04F009FE5FFA84F94FF0000AD5
:100E34004FF0010B4FF0FF3405F1FF3809FB0808B0
:100E44009DB9BAF1010F03DD4521204805F064F98D
:100E5400631C06D07F2C2ADC40F201130134346079
:100E6400B380284605B0BDE8F08F6B1E0093414661
:100E7400012338460DF10F0205F05CF9031E0193BE
:100E840022DB012238460DF10F0105F00CFC019B19
:100E940040B15B4501D00AF1010A9B46009DA8EBD5
:100EA4000908CDE7B4F1FF3F08BF2C46F5E702235C
:100EB400803C7371631004F0010401330134336026
:100EC4003471CEE70725CCE70125CAE7E4720000B8
:100ED400816A426D38B5914208D0531C8B4205D0CB
:100EE4005721134805F018F9002038BD80291CD972
:100EF40057211048F6E7446A056D04EBC30405EB7B
:100F0400C30564686D68AC4202D057210A48E9E71A
:100F140001339A42EFD1914205D9436A03EBC202ED
:100F24005368A342F1D10120DFE700231C46F0E718
:100F3400077300003F7300006E73000000B589B0B2
:100F4400032004A905F015FC9DF81020012A41D0C6
:100F5400254B2649032A18BF0B469DF81320492127
:100F640002929DF81220224801929DF811200092CD
:100F7400204A05F0D1F8092006A905F0FAFB9DF8EE
:100F84001820012A28D0184B1849032A18BF0B46E9
:100F94009DF81B20492102929DF81A2014480192C1
:100FA4009DF819200092144A05F0B6F89DF8103007
:100FB400012B13D19DF81230032B0FD19DF818305B
:100FC400012B0BD00D48492105F0A6F8022009B0E9
:100FD4005DF804FB0A4BC0E7094BD9E709484921EE
:100FE40005F09AF80020F2E79F730000A573000053
:100FF400B7730000A9730000F873000008740000C0
:101004009A7300002774000070B54B6814461E4A9A
:1010140003F0FF23934206460D4686B02FD10B689A
:10102400012B2CD1204604A902F026F99DF81020AA
:10103400012A26D0154B1649032A18BF0B469DF8E2
:101044001320492102929DF81220124801929DF822
:1010540011200092104A05F05FF89DF81030032B20
:101064000DD12146304604F0CFFD204605F074FB37
:101074002046A96804F0F4FC204602F0DDF806B02E
:1010840070BD064BDBE700BF000100049F73000046
:10109400A5730000B7730000F87300009A73000092
:1010A4002DE9F04F2DED028B05460C46854849216C
:1010B40089B0174605F030F86B6A01225E68002398
:1010C40033449F42114602F10102F9D8DFF800B21D
:1010D4002046CBF8001004F056FD18B3E86D04F078
:1010E4009AFC0023AF6A013F3344834201D2013F9B
:1010F400FAE7DBF80030BB4214D35721724805F0FD
:101104000BF8DBF8002007FB06F3572102FB06620D
:101114006E4805F001F80123E37109B0BDEC028BC0
:10112400BDE8F08F06A9032000F0CAFC07A9092036
:1011340000F0C6FC21462846079AFFF765FF63794D
:10114400012B08D1DBF80070DFF888A1DBF8003050
:10115400A7B9012323604FF002030127DFF874814C
:101164006371DBF80030DDF818909F424DD9484692
:1011740004F0DFFF079804F0DCFFCEE722680133B8
:101184009B1A9F423FD86B6A012A196853F83700AB
:1011940003EBC70353F8083CDDF81880A3EB010305
:1011A40008EE103AA0EB010912D1E268079B022A6B
:1011B4000AD041462846029304F026FD22464146C1
:1011C400284604F057FD029B1946284604F01CFDEE
:1011D40032464946404604F015FD18EE103A4246A0
:1011E40041462846CDE90096FFF73EFC21462846B5
:1011F40004F0D6FC23680133236020B1DAF8003010
:101204000133CAF80030013FA0E723689F4257D357
:10121400696A286D51F83730FA0003930B68083A6D
:1012240050F802C0029303682079DDF81CA001285D
:10123400ACEB030342D189580593029B3246C91A89
:101244004846049104F0DEFC0499059B4A4600914B
:101254002846514601960493FFF706FC214628468A
:1012640004F09EFC4FF002032371049B20B1D8F8D4
:1012740000200132C8F80020194632465046049333
:1012840004F0C0FC049B494600932846DDE9022390
:1012940001969B1A5246FFF7E7FB2146284604F0C5
:1012A4007FFC2368013323604FF00103237138B1BD
:1012B400D8F800300133C8F8003001E00228DBD050
:1012C40001374EE73E740000677400009674000016
:1012D400EC4401201853012070B5094D2B7853B903
:1012E4000126084CC4F8006503F0A0FA28B92E7052
:1012F400C4F8000570BD0020FCE74FF0FF30F9E7AB
:10130400CC5401200000845070B5AEB01D46044694
:10131400CDE90221FFF7E0FFDDE902210123064EBA
:1013240005A8C6F800352346009505F01AFB0023EE
:10133400C6F800352EB070BD00008450BFF36F8F27
:1013440072B600234FF0FF30094A03F12001013344
:10135400102B42F82100F8D100234FF0FF3003F1A5
:1013640060010133102B42F82100F8D1704700BF0F
:1013740000E100E010B501224FF0FF340021194BC9
:1013840019485A60C3F84843C3F8084303F5805327
:101394005A60C3F84843C3F80843A3F55043C3F85D
:1013A40000158022C3F8084304F086FF8022002140
:1013B4000E4804F081FF00210D4B8022C3F8001574
:1013C4000C48C3F8084304F077FF802200210A4840
:1013D40004F072FF094BC3F808454FF05023C3F8DB
:1013E400084310BD004001508080005080810050AF
:1013F4000090005080900050809100500070015087
:101404000B6801330B60014B1B681847F044012043
:10141400014B1860704700BFF044012007B50B462C
:10142400002102460191034801A900F0E9F803B044
:101434005DF804FB051400002DE9F74FB0F818908F
:10144400044619F0080893460ED001290CBF49F050
:10145400100949F02009A0F818908BF31188BFF304
:101464006F8F03B0BDE8F08FDFF890A109F0070992
:10147400022907D1204604F0A2FD0028EDD001285E
:10148400238B4BD16769218B002F15DA256821F056
:101494000701C4E9008841F0010121830026218B62
:1014A40001F007024A4502D0A368002B57D10DB9B9
:1014B400002E6FD0002353E001F007035A1F012AC6
:1014C4001DD821F00701062B256889B2C4E90088DC
:1014D4000AD13DB12A46638B126801339BB2002ABC
:1014E400FAD1638341F002012046218304F067FDB1
:1014F4000028D3D0238B43F020032383CEE7042B8F
:101504000AD121F0070189B22046218304F057FD56
:1015140010B141F0200121830025BFE7032809D140
:10152400226923F00703166843F00603002523838A
:101534002F46B4E7042806D1226923F0070356682E
:1015440043F00403F2E7052806D1226923F00703D8
:10155400966843F00503E9E700252E46E8E70123F2
:1015640041F0080121838BF31188BFF36F8F03BB14
:10157400002D31D116B151462046B0474FF020031B
:10158400EFF3118B83F31288BFF36F8F238B23F058
:1015940008032383238BDA0627D5012123F01003C4
:1015A4002383B4F8189009F0070900297FF460AF89
:1015B40053E7A1680029DBD0D1F800903B462046D0
:1015C400D1F804B00192D847019AB9F1000FCFD0F5
:1015D4004946D9F80090F1E729463B462046019256
:1015E4002D6804F008FD019AC2E713F020011EBF24
:1015F40023F0200302212383D3E700BF27600000E8
:101604002DE9F04F8A464FF000098FB01D46531E56
:1016140001900293029B58785C1C252821D14FF03D
:10162400000C4FF0FF37184661463C460A2602304C
:10163400CDF80CC002780290392A00F1010059D883
:101644001F2A18D8002A00F0F7815146019B252053
:101654009847029B51461878019B984709F1020963
:10166400D8E7002800F0E8815146019B984709F12A
:1016740001090294CEE7A2F12003192BE5D80FF259
:10168400080E5EF823F000BFF51600004F160000A8
:101694004F160000F51600004F16000079170000E1
:1016A4004F1600004F1600004F1600004F160000A2
:1016B400BB170000F51600004F160000CF170000FE
:1016C400871700004F16000093170000AF170000A3
:1016D400AF170000AF170000AF170000AF170000EE
:1016E400AF170000AF170000AF170000AF170000DE
:1016F40094469FE7582A00F01B81A2F163035FFA26
:1017040083FEBEF1170FA0D8172B9ED80FF2040E3C
:101714005EF823F097190000F51700004F1600003B
:101724004F1600004F160000D5170000F5170000F3
:101734004F1600004F160000D51700004F1600008A
:101744004F1600004F160000DF1800004F1600006F
:101754004F160000771900004F160000F51700001F
:101764004F1600004F160000DF1800004F1600004F
:10177400D517000051462520019B984709F101091E
:1017840048E7039B002703F0FE03039352E7002C72
:101794000BDA002F0BDA039B002B00F0498124EABB
:1017A400E47406FB0424303C44E7002FF7DB06FB1B
:1017B4000727303F3EE7002F55F8043B01DB1F4667
:1017C40038E71C1EBFF636AF64420223039331E7A9
:1017D400682A03D1682906D148212BE76C2A02D153
:1017E4006C2900F0278100297FF42FAF114621E7EF
:1017F4007A2907D1752A05F104062D6862D14FF0C4
:1018040000080DE06C29F5D04C29F3D1EB1D23F031
:1018140007031E46752AF6E8020107D1D3E90058EA
:10182400BCF1200F51D1864B013C09E005468846A6
:10183400B8F1000FF4DA6D42824B68EB4808013CC2
:101844004FF0000B00930DAB0593284641460A2246
:101854000023CDF810B0FEF773FC059B303203F87B
:101864000129CDE905352846002341460A22CDF851
:101874001C80FEF765FC069B05460A2B079B8846E1
:1018840073F100030BF1FF3BDFD2049B049AC3F115
:10189400010B0EAB9D18002FA5F1040504DA039B80
:1018A40013F0010F18BF2746039BA7EB0B08B8F1F1
:1018B400000FD4BFA4EB0B04E41B9B0700F1818051
:1018C400274677E04FEAE578B2E7BCF12B0F0ABF71
:1018D4005D4B5E4B04F1FF34B2E7702A28D12E46EB
:1018E40056F8041B002300295CD059480090023CA0
:1018F400002502F06002A2F139080DF1340E01F066
:101904000F02092A88BF424430320EF801291029F7
:101914004FEA111242EA03724FEA131073F1000303
:1019240005F1FF3C21D20EABC5F1010B1D44B2E71A
:101934006C2904D12E46002356F8041B08E04C29D8
:10194400F8D1073525F007052E466B6856F8081BB5
:10195400BCF1230F06D13F4D12F0200F3C4808BFC5
:101964002846C3E739480090C2E765461146034656
:10197400C5E72E4656F8045B284604F06EFC002F9B
:10198400834602DBB842A8BFBB46304B0027009316
:101994008AE72E4656F8043B4FF0010B8DF82030B1
:1019A40008ADF2E74FF0050B2B4DEEE75146202032
:1019B400019B9847013FF9D524EAE473013C99441B
:1019C400E41A009BA9EB030904E000935146019B30
:1019D4009847009B09EB030713F8010B0028F4D187
:1019E400C146B9F1010913D5D94628EAE878B9F115
:1019F400010912D5BBF1000FA8BFD8442546013D0B
:101A040011D5002CA8BFA044354608EB070901E610
:101A14005146019B30209847E3E7514615F8010BE6
:101A2400019B9847E3E75146019B20209847E6E74E
:101A34000123CBE64C21FDE548460FB0BDE8F08F0D
:101A4400FA78000022750000247500000D7C000067
:101A540029750000267500002C75000008B54FF0AC
:101A64002002EFF3118382F31288BFF36F8F00F02B
:101A740099FB034804F096FA00F080F8FCE700BFF5
:101A8400327500004FF02002EFF3118382F31288C5
:101A9400BFF36F8F0121044AC2F8401583F3118804
:101AA400BFF36F8F002070470090035020B1034BA9
:101AB400800143F001031847704700BF106D000018
:101AC4000C4B70B51B6873B10B4A15680022AA420F
:101AD40002DB6FF0010070BD1C4613F8106B8642E8
:101AE40004D00132F3E76FF00C00F4E700200C603F
:101AF400F1E700BFF4440120C86D000070B588B060
:101B040005460C46C0B269461646FFF7D9FF0028C1
:101B14001FDB009BEBB15A68216802929A68D8686F
:101B2400CDE9032600220195CDE90612059202F0C3
:101B340067F90546009804F0FCFA6DB12846084997
:101B440001AA04F0B2FC079808B9059B236008B009
:101B540070BD6FF01500FAE76FF01200F7E700BFF1
:101B6400FB610000014802F015BB00BFCC6D000012
:101B7400014910220A60704710ED00E072B640403F
:101B840080F31188BFF36F8FBFF34F8F30BF62B6FE
:101B9400BFF36F8F704700BF72B6494081F311885D
:101BA40020BF80F3118862B6704700BF37B5054681
:101BB4000C46C9B18B6810480093D1E90023452134
:101BC40004F0AAFA636945210093D4E903230B487E
:101BD40004F0A2FA4521E269094804F09DFA45217E
:101BE400A269084804F098FA2146284603B0BDE8E3
:101BF400304002F02FB900BF5F75000093750000FC
:101C0400C7750000DB75000043B2002B08DB01221E
:101C140000F01F0002FA00F0024A5B0942F82300B8
:101C2400704700BF00E100E0054B420953F8222051
:101C3400012300F01F0003FA00F01040704700BFBA
:101C440000E100E043B2002B01F10101ACBF03F15C
:101C54006043064B4FEA4111C9B2ABBF03F5614380
:101C640000F00F0083F800131954704714ED00E0DE
:101C740030BFFFF7FDBF00BF144A08B5144B22F074
:101C84007F029A60BFF34F8FBFF36F8FD3F8882022
:101C940022F47002C3F88820D3F8882042F4A0020A
:101CA400C3F888204FF04042C3F83422BFF34F8F6B
:101CB400BFF36F8F0023E1EE103A02F021F902F036
:101CC40061F900F033FA02F027F900BF00000000C8
:101CD40000ED00E01EF0040F0CBFEFF30880EFF3FB
:101CE4000980816911F8021C0229FFD001B504F0B2
:101CF400A5FA01BD0446084611461A460023E1EE42
:101D0400103A83F30B880A4B2025A3F5205686F35B
:101D14000B8883F3098863B64FF0000383F31188BB
:101D2400BFF36F8FA04785F31188BFF36F8FFEE772
:101D3400D07C012001B5EFF30580A0F110004FEA3B
:101D4400C0000449014409C99847BDE8014002495B
:101D540008470000946A0000611D0000704700BF3E
:101D640038B5214C4521214804F0D6F9A36A9D01D8
:101D740003D545211E4804F0CFF9A36ADC0103D53D
:101D840045211C4804F0C8F9174DAC6A14F48014BA
:101D940004D04521184804F0BFF90224AB6A1803A3
:101DA40003D54521154804F0B7F90F4DAB6A590323
:101DB40003D54521124804F0AFF9AB6A9A0303D561
:101DC4004521104804F0A8F9074DAB6ADB0303D59D
:101DD40045210D4804F0A0F9AB6A20466FEA03439D
:101DE4006FEA1343AB6238BD00ED00E00E760000ED
:101DF4002B760000437600006276000091760000A6
:101E0400B4760000DE760000FD76000070B5234C49
:101E140006460D462248452104F07EF9A36AD904FA
:101E240003D545211F4804F077F9A36A1A0503D5A1
:101E340045211D4804F070F9184CA36A9B0510D580
:101E44001A48452104F068F9A26BA36A180408D55E
:101E54004521174804F060F91EB1A36A23F4004336
:101E6400A3620E4CA36A590503D54521114804F019
:101E740053F9A36ADA050BD545210F4804F04CF950
:101E84000020064A936A43F47F439362287070BD2E
:101E9400A36A9B04F4D545210848EFE700ED00E070
:101EA4002D770000487700005E7700007677000009
:101EB40094770000AE770000CE770000EB77000047
:101EC40070B5264C06460D462548452104F024F9F4
:101ED400A36AD80603D54521224804F01DF9A36A54
:101EE400190703D54521204804F016F91B4CA36AB1
:101EF4009A0710D545211D4804F00EF9626BA36AB8
:101F04001B0608D545211A4804F006F91EB1A36A38
:101F140023F08003A362114CA36ADE0703D5452195
:101F2400144804F0F9F8A36A980603D54521124829
:101F340004F0F2F80020094B9A6AD10658BF9A6A55
:101F44009A6A920642BF5A6A22F400525A62034ABB
:101F5400936A43F0FF039362287070BD00ED00E0C4
:101F64001F7800003A7800005E7700007278000065
:101F74008F780000AA780000EB7700002DE9F0418B
:101F8400544B00255E688AB0C6F3080485F31188B3
:101F9400BFF36F8F02F07F43B3F17F4F07D102F09D
:101FA4000C03082B05D145214B4804F0B5F82F4606
:101FB40004E012074EBF0F46074601254FF0000804
:101FC400E31E8DF80780092B72D8DFE803F005665D
:101FD4006A6371717171716E3E4E45213F4804F020
:101FE4009BF8F46A8DF8078014F0020405D04521AB
:101FF4003B4804F091F8002406E0F36A002B1DDA54
:102004004521384804F088F89DF807309BB9202210
:10201400394602A804F045F9099B002D55D0C3F3B5
:10202400080222B96FEA53236FEA43230993204637
:1020340002A9FFF7BBFD0AB0BDE8F081F36A5B00BB
:10204400E2D54521284804F067F8BB6933F8022C2F
:102054004DF602739A4209D096F828306BB10120EC
:102064000DF10701FFF72CFF0446CDE745213A683F
:102074001E4804F051F83C68C6E796F829302BB1A5
:1020840001200DF10701FFF7C1FEEDE7738D9BB24F
:10209400002BB9D0FFF764FEE6E700200DF107013D
:1020A400E0E700200DF10701EDE745211048A0E726
:1020B400104916F4F87F104A104808BF0A46A4F1E4
:1020C4001003452104F028F895E723F4FF7323F067
:1020D4000103ABE700ED00E0FC7800002C79000080
:1020E400487900006E79000081790000A57900002C
:1020F400C6790000CE780000E3780000EF79000094
:10210400044B5A6942F010025A615A6942F48062DF
:102114005A61704700ED00E0EFF30880EFF30981A6
:1021240001B57246FFF72AFF01BD00BF002320213D
:102134000348C2180133412B82F80013F9D17047C8
:1021440000E100E0002080F31488BFF36F8F0020CB
:1021540080F30A8880F30B8804F030FC00200E49D9
:102164000860BFF34F8F0D4880F3088800F03EF8F5
:10217400202080F311880A484FF40061401880F34E
:102184000988EFF314800221084380F31488BFF315
:102194006F8FFFF771FD000094ED00E0D07C01200B
:1021A400D07C0120BFF34F8F0549064BCA6802F467
:1021B400E0621343CB60BFF34F8F00BFFDE700BF66
:1021C40000ED00E00400FA05002318460649D1F8A2
:1021D4009020C2F30722934200D17047C1F898308F
:1021E400C1F8A0000133F6E700ED00E010B572B6C7
:1021F400002484F31388FFF7E7FF23464FF0FF30F2
:102204000B4A03F120010133102B42F82100F8D1CD
:1022140000234FF0FF3003F160010133102B42F82B
:102224002100F8D162B6BFF34F8FBFF36F8F10BD9B
:1022340000E100E0014B1860704700BFF844012042
:10224400084B70B5C31A0D4607499B100446594301
:102254004022064804F058F82B4601462046BDE8C3
:10226400704018472C530120B76DDBB61C6A000080
:10227400402373B50B4C0093041B0B460D460A49CF
:10228400A41061430646094A094804F06AF8011E8D
:1022940005DA30462B4602B0BDE87040184702B05C
:1022A40070BD00BF2C530120B76DDBB6D9630000AD
:1022B4001C6A000070B50022012104460520FFF7C6
:1022C400C1FC0F4801F0B6F90E4B984215D104F049
:1022D400D4FA26690C49304603F0C1FE00280BDB12
:1022E400012524690849356404F11C0003F0B7FE94
:1022F400002801DB0020E56470BD6FF00400FBE7FB
:102304004D2300000000AD0B046E000073B50C23D8
:10231400014600264B430A48C4184033D4E90E5200
:102324001844A663019203F0DCFF35B12B46019AF1
:10233400044802B0BDE87040184702B070BD00BF49
:102344002C5301201C6A000010B1012804D07047EE
:10235400034B1B6C5B0701D1FFF7D8BF704700BF6D
:102364002C53012008B54FF02003EFF3118183F3C0
:102374001288BFF36F8F124A136843F0020013F000
:10238400010310600CD04FF05022D2F80C34D2F874
:102394000C2413F0010303D00A4803F0A2FF012325
:1023A40081F31188BFF36F8F23B1BDE8084000208B
:1023B400FFF7ACBF0120BDE8084004F06CBA00BFD1
:1023C4007C5301206C530120074BD3E8EF2F22F0FC
:1023D4000201C3E8E01F0028F7D1D30702D401208B
:1023E40004F09ABA704700BF7C5301202DE9F843EA
:1023F400012207463549D1E8EF3FC1E8E02F002824
:10240400F9D133B9324933484B60CB608A6003F069
:1024140039FE7B1E012B31D8012F07D14FF05023F9
:10242400D3F81C3403F00303022B27D004F08EFAF4
:10243400044618B9284B1B78002B3FD14FF02003DA
:10244400EFF3118683F31288BFF36F8F01244FF0EB
:1024540050254FF00008DFF88490D5F81834D5F8EB
:102464001824D2030CD503F00303022B01D0012F4F
:1024740006D1ECB186F31188BFF36F8FBDE8F88302
:102484003046FFF789FBD5F81835DBB2012BE4D1D0
:10249400D5F80421002AE0D0C5F80481D5F8042138
:1024A4000222C5F818252022C9F88021AB60D4E7A0
:1024B4004FF050230222C3F80423DFE74FF05023E8
:1024C40002220646C3F80823C1E700BF8053012057
:1024D4001C53012048530120CD54012000E100E0A9
:1024E40008B50848084B186004F022FA38B10748C8
:1024F400FFF7A0FE0548FEF78BFF002008BD6FF034
:102504001200FBE7646A00008453012015250000D3
:102514000A2838B50446074D04D1286883680D217C
:102524005B68984728688368E1B25B6898472046EF
:1025340038BD00BF8453012030B5406801F01F0549
:10254400047BB2F5001F45EA441585B04FF0000442
:1025540004D1284601F0FCFA00202CE0B2F5800FEB
:10256400CDE9024429D1B3F1007F0CBF0423052334
:102574008DF80830836823FA01F1C90729D4B2F130
:10258400A07F26D11B4A05F01F03803352F8233065
:10259400DB071ED40DF107042146284601F040FA5A
:1025A400154B984214D1204601F088FA134B9842F7
:1025B4000ED06FF00B0005B030BDB3F1C06F05D085
:1025C400B3F1007F0CBF02230123D1E70323CFE73C
:1025D400039400232846194602AA01F0F7F8074B92
:1025E400984204D10121284601F06EFAB4E76FF055
:1025F4000400E0E7002584500400AD0B0000AD0B9F
:1026040010B501F04BFA044668B901F01FFA084B03
:1026140098420AD12146074801F0FCF922460521D7
:102624000D20FFF70FFB002010BD6FF00400FBE747
:102634000000AD0B3D260000430970B511D1094BD4
:10264400596871B101230C68074E03FA00F58A68D2
:102654002A4002D030464B68984714B1214624687A
:10266400F5E770BD88530120346A00002DE9F0437A
:10267400476801F01F053B7B0E46144685B045EACA
:102684004315CAB902A9284601F0CAF904462846E6
:1026940001F086FA494B984204D06FF0040005B06B
:1026A400BDE8F083844205D19DF8080001F000FAEA
:1026B400A042F2D10020F2E74FF000090DF103012E
:1026C4003046CDE9029901F0ABF94B4680464946C4
:1026D400284602AA01F07AF8384B984202D06FF0EB
:1026E4001500DCE7804503D19DF8030001F0E0F913
:1026F400A3034FD540F2066340F2062223409342DF
:102704003AD00CD8062B15D004D89BB1022BE6D1B5
:1027140004230FE0B3F5007FE1D101230AE040F286
:10272400024293422AD0B3F5C06F29D0B3F5806F2B
:10273400D5D102238DF8043084F48033C3F30043ED
:10274400E0068DF805304CBF0323C4F34013210386
:102754008DF8063016D501217B6801FA06F69E60D5
:102764000022284601A901F0DBF8144B984214BF5B
:102774006FF01500002092E70723DBE70523D9E774
:102784000323D7E7620341BF01217B6801FA06F600
:10279400DE60E5E7E3064FF000034CBF0324C4F317
:1027A40040141A46284601A98DF8044001F00EF899
:1027B400024B98423FF47EAF91E700BF0000AD0B9F
:1027C400024B0B6001231360704700BF9453012038
:1027D40000487047586E000010B504F0A5F8034C8B
:1027E400206004F09EF86060002010BD9453012026
:1027F400F8B50E46144604F094F8214605463046D2
:1028040003F042FE3746F8B1B6FBF5F305FB13635C
:1028140023B9B4FBF5F305FB134040B1234632461C
:1028240045210C4803F078FC6FF015000BE0A5423D
:1028340009D804F076F80546384601F093FA641B8B
:102844002F44F9D12046F8BD23463246452102489B
:10285400E8E700BF2E7A0000527A0000F8B50E4671
:102864001946304617461C4603F00EFE40B923466F
:1028740032464521124803F04FFC6FF01500F8BDB5
:1028840044EA060515F0030504D0234632464521E3
:102894000C48F0E78CB124F00304AC4205EB0600CD
:1028A40006D1094AD2F80034DB07FBD50020E6E75D
:1028B400795901F075FA0435EFE72046DFE700BFE8
:1028C400527A0000747A00000090035037B50C4629
:1028D400194620460193154603F0D6FD019B40B9E5
:1028E40009482246452103F017FC6FF0150003B098
:1028F40030BD33B11A462146284603F0D2FC0020ED
:10290400F5E71846F3E700BF527A0000F8B505462C
:102914000F46066904F01AF810B9294B1B78A3B9BD
:102924004FF02003EFF3118483F31288BFF36F8F0A
:10293400686803F008FE00BB84F31188BFF36F8F4F
:10294400EEE784F31188BFF36F8F6424686803F0A3
:10295400FAFD28B9012003F042FF013CF6D1F4E767
:102964004FF02003EFF3118483F31288BFF36F8FCA
:10297400686803F0E8FD0028E3D0012206F8107F20
:1029840069680B68C3F84465C3F848250022C3F896
:102994002021D3F82001C3F85821D3F858214A68DC
:1029A400D20641BF0822C3F800254FF48002C3F8C1
:1029B400042301229A6084F31188BFF36F8FF8BD5A
:1029C400CD540120F0B54B79012B26D0032B21D116
:1029D40010268B79032B1DD1CC790CB1012C19D184
:1029E4000A7912B1022A15D10E220B684568B3F593
:1029F400164F2D6865D02DD8B3F5165F64D016D860
:102A0400B3F5966F62D00AD8B3F5967F61D0B3F56B
:102A1400167F61D06FF0850052E00026D9E7B3F548
:102A2400166F5CD0B3F5965FF4D1374B3CE0B3F549
:102A3400E14F57D007D8B3F5615F55D0B3F5964F42
:102A4400E8D1324B30E047F61227BB42E2D14FF4D3
:102A5400000329E0B3F5613F48D013D8B3F5963F9E
:102A640047D009D84DF6C027BB4244D0B3F5614FD7
:102A7400D0D14FF46B0317E0B3F5E13FCAD14FF067
:102A8400EB7311E0B3F5612F38D008D8204FBB4267
:102A940037D0B3F5E12FBDD14FF0E86304E01D4F0B
:102AA400BB42B7D14FF0805300693443C5F8243595
:102AB4002243031DC5F86C2503C983E803000020E5
:102AC400F0BD4FF41D03EFE7134BEDE74FF49E23E6
:102AD400EAE74FF4A033E7E74FF41C33E4E74FF49D
:102AE4001D23E1E70D4BDFE70D4BDDE74FF06C7382
:102AF400DAE70C4BD8E74FF46503D5E74FF0706382
:102B0400D2E74FF08063CFE700B0130000A04E007F
:102B140090D0030040420F000050270000C0750011
:102B240000F03A0000903A012DE9F7430021D0F873
:102B340004800669D8F80040D8F80C90C4F8001551
:102B44000746306001AA484603F065FD051E1FDBF9
:102B5400019BD9F800201979186800F0BBFA051E0A
:102B640016DB3846311DFFF72DFF054680B9D8F82E
:102B7400043099071CD506F1120000F09FFD214B8B
:102B8400984209D04521204803F0C6FA6FF00405A5
:102B9400284603B0BDE8F083B27C42F00043C4F899
:102BA400A031C4F88C3001239340184AC2F804358C
:102BB4000823C4F8003598F808305BB9C4F810311C
:102BC400D4F8103106F11103C4F834350123C4F8E4
:102BD40038352360D8F8043010369A075CBF4FF4B8
:102BE4008072C4F80423DB0644BF4FF48003C4F8A6
:102BF40004330023C4F84465C4F848350123A360B2
:102C0400E360C5E70000AD0BA17A0000007001503D
:102C14000123834010B5DC430D4AD2E8EF1F01EADB
:102C2400040CC2E8EECFBEF1000FF6D14FF48032AF
:102C340002FA00F002F15022C2F80803BFF35F8FDA
:102C4400BFF36F8F0B4214BF0120002010BD00BFE3
:102C5400A05301201949F8B5044622F07F450868BD
:102C6400C1E90023A5F50013101AB3F5400F22D2D1
:102C7400134B1B681A0A1B065E19124B42F100071C
:102C8400C3E90067012601F0D9F9A30003F1502339
:102C940003F58033D3F84025AA420BD11EB94FF473
:102CA4000002C3F840254FF48030074B00FA04F4C7
:102CB400C3F84443F8BD0026E5E700BF20460120E1
:102CC400A45301200846012000500150E1B1012322
:102CD4000E4A8340D2E8EF1F1943C2E8EC1FBCF14F
:102CE400000FF7D14FF48033094A8340C2F804330C
:102CF400084BD3E8AF3F23FA00F0C30742BF4FF4B9
:102D04000012054BC3F80021704700BFA0530120F7
:102D1400005001509C53012000E100E00D4B186865
:102D2400010A0006BFF35F8F0B4BD3F80435181864
:102D340041F10001B3F5801F0AD2084BD3E9002307
:102D4400904271EB030303D210F1807041F1000152
:102D5400704700BFA45301200050015008460120D1
:102D64002DE9F04F2DED028B85B0164698460546A9
:102D7400FFF74EFF08EE100AFFF7D0FFB04271EBE9
:102D8400080379D2444B301A68EB0101984271F17F
:102D940000037ED2414B03EB0513D3E902ABD845C4
:102DA40008BF564550D04FF4803326F07F42144676
:102DB4004FEA850905F1500709F15029BF00AB40DE
:102DC40009F58039BFB207F150270193D9F84005BE
:102DD400334B07F58037D3F80415401A20F07F40B1
:102DE40021F07F4C0128C9F840C507D1CDE9022163
:102DF400132003F0B1FDDDE90221294B01F1020C9E
:102E0400A4EB0C0020F07F40B0F5000F88BF6446AF
:102E14000020386038680198C3F8440324F07F40E8
:102E2400C9F84005D3F80405814206D0201A0238B7
:102E340020F07F40B0F5000F1CD8A41A24F07F4482
:102E440014EB060A48F1000B0024144910982B01D6
:102E540001EB0512C850C2E902AB119B536028462E
:102E640018EE101AFFF732FF204605B0BDEC028BB6
:102E7400BDE8F08F2046AEE701230A4AAB40D2E812
:102E8400EF1F1943C2E8E01F0028F8D1B246C34639
:102E9400DAE76FF01504E2E70100000110460120B3
:102EA400005001509C53012073B500244FF0FF30B3
:102EB4004FF0FF31164D174BC5F80845C3E9020121
:102EC4004FF4803302264FF40012C5F80433124B3A
:102ED4000121C5F804631520C3F880212246FEF7BA
:102EE400B1FE1520FEF790FE01230C4AAB602B6067
:102EF40013600B4B0B4A0093204600230194FFF709
:102F04002FFF3046FFF772FA204602B070BD00BFB3
:102F1400005001501046012000E100E0A0530120C0
:102F2400592C0000FFFF7F00354B2DE9F743D3F800
:102F3400042391070BD5D3F8042142B10022C3F82E
:102F44000421304AD3F804311368013313604FF07D
:102F54002003EFF3118183F31288BFF36F8F284BA3
:102F6400D3F80423D2030DD5274AD2E8EF0F20F07B
:102F74000104C2E8E54F002DF7D1002836D1D3F87B
:102F840040219ABB002381F31188BFF36F8F53B3A1
:102F9400FFF7C4FE4FF02003EFF3118783F3128889
:102FA400BFF36F8F194BD3E90245A04271EB0502C1
:102FB4004FF0000221D3D3E900164FF0FF384FF051
:102FC400FF391A604FF48032C3E902890C4BC3F80D
:102FD400482387F31188BFF36F8F21B122462B4614
:102FE40000200096884703B0BDE8F0830022C3F8B0
:102FF4004021D3F840310123C5E71146E9E700BF7A
:1030040000500150A45301209C530120104601207C
:10301400431C13B520D0012820DDB0F5000F1FDAC2
:10302400441EFFF77BFE0F4BD3E90013401AB0F5A3
:10303400000F28BF0024013002190B48824228BF28
:1030440002460020521809490190009143F10003FF
:10305400FFF786FE02B010BD0348E1E70024E0E775
:10306400014CDEE720460120FFFF7F00592C0000C1
:1030740008B5FFF753FE024B1B68C01A08BD00BF1A
:1030840020460120012300F01F0003FA00F0034B47
:1030940009B9D86070479860704700BF0025845014
:1030A40000F48053002B1CBF0021012210B500F056
:1030B4001F03C0F3811400F4706040EA84000843E5
:1030C400034940EA4202803341F8232010BD00BF87
:1030D400002584502DE9F041144680460125414ED7
:1030E40000EB8107B84502D10020BDE8F081D8F893
:1030F40000301A0C192A72D8DFE802F00D1A2146A2
:10310400263A46717171714B50717171717171719F
:1031140071715562676C03F03F03C4F80C35D8F83D
:10312400003003F01F0305FA03F3B360012204E047
:1031340003F03F03C4F814350022114611E003F0F4
:103144003F03C4F80835EAE70022012103F03F03F6
:10315400C4F80835D8F8003003F01F0305FA03F368
:10316400F360D8F80000FFF79BFF08F10408B9E703
:1031740003F03F03C4F80C35D8F8003003F01F0304
:1031840005FA03F3F360D1E703F03F03C4F8103505
:10319400D2E703F03F03C4F80835CDE703F03F035B
:1031A400C4F80C35C8E703F03F03C4F86035D8F819
:1031B4000000C0F3403100F03F00FFF763FFB5E7C4
:1031C40003F03F03C4F86435F1E703F03F03C4F8A8
:1031D4006835ECE703F03F03C4F86C35E7E76FF0BC
:1031E400850082E70025845040EA0103C3F30E03FF
:1031F40030B58BB940F21515094CC90BC0F3C73073
:10320400994201D1002030BDC218D2B202F5C07279
:1032140044F822500133F3E76FF01500F3E700BFE1
:10322400003000500348452108B502F075FF002026
:10323400FEF7B8FFE37A000030B5816885B0103935
:1032440021F00704054602F0CDFF1022014668462E
:1032540003F032F810226846064903F022F81023DE
:103264006A462146284602F081FF003818BF012033
:1032740005B030BD7870000030B50C46816887B069
:10328400102302AA1039054602F054FF002802DA7E
:10329400012007B030BD1022284602A903F0DEF950
:1032A40090B303232370284603F0E9F90123014670
:1032B4000DF10702284602F03DFF0028E8DB9DF8E7
:1032C4000730284603F00F021B09627023710122A4
:1032D4000DF1070103F0C2F910B96378042B03D987
:1032E4000123637000232371AA682846183A22F048
:1032F4000702083AA11C03F0DCF90028C8D12846CB
:10330400E11C03F030FAC4E71022044902A802F0D9
:10331400B7FF002814BF02230123C3E7787000001D
:103324002DE9F04385B006466946032003F021FAEF
:10333400054618B1FF2005B0BDE8F083092002A9B5
:1033440003F017FA012804463FD1324649212C489C
:1033540002F0E2FE03238DF809408DF808308DF861
:103364000A308DF80B308DF80C5000229DF8005077
:103374009DF808609DF803709DF80B809DF80290FD
:10338400204C2946207803F080F918B33146607840
:1033940003F07BF9F0B1A378042B01D0BB4219D11F
:1033A400E378042B01D0434514D12379042B0FD1A6
:1033B4006379022B19D1144A1448492102F0ACFE56
:1033C4006079831E022BB6D9B4E70028CDD0B1E7CB
:1033D4004B45EDD00132032A04F10604D1D10C4847
:1033E400492102F099FE0120A5E7032B05D0094AE3
:1033F4000949042B18BF0A46DEE7084ADCE700BF88
:10340400287B00009B7B00000C7B0000737B00008A
:10341400867B0000057B0000167B0000117B00000A
:1034240008B54FF47F03D3F83021D3F83431BFF318
:103434004F8F092A01BF4FF050230022C3F81421F3
:10344400C3F8182103F0BAF928B10122514BC3F88B
:10345400382AC3F878254FF47F03D3F83021D3F802
:103464003431BFF34F8F092A05D1012B1EBF01222E
:10347400484BC3F8782503F0A1F918B10E22464B46
:10348400C3F8E42E4FF47F03D3F83021D3F834315A
:10349400BFF34F8F092A06D100223E4BC3F80C27F5
:1034A4000122C3F810270022D30003F57F03D3F8C9
:1034B4000013BFF34F8F013108D0D3F8001301324A
:1034C400D3F80433B2F5807F0B60EDD1334BDA6966
:1034D400BFF34F8FD10743D5314BD3F80024012AD2
:1034E400FBD1C3F80425D3F80024012AFBD12B4BCC
:1034F400DA69BFF34F8FD2070AD5DA6922F00102E5
:10350400DA61BFF34F8F264AD2F80034012BFBD186
:10351400224A136ABFF34F8F01330CD1136A23F08D
:10352400FF0343F020031362BFF34F8F1C4AD2F80A
:103534000034012BFBD10022194BC3F80425D3F826
:103544000024012AFBD1BFF34F8F1649164BCA68DA
:1035540002F4E0621343CB60BFF34F8F00BFFDE77B
:103564001B6ABFF34F8F0133B6D00E4BD3F88C20B8
:1035740042F44062C3F88C20D3F8882042F47002ED
:10358400C3F88820BFF34F8FBFF36F8F074B084AF0
:103594001A6008BD0040005000A003500080FF00E6
:1035A4000090035000ED00E00400FA0524450120DA
:1035B4000090D00370B501250268B2FA82F3C3F11A
:1035C4001F035E1CDCB210D005FA03F322EA0303E6
:1035D400D0E8EF6F964204D1C0E8EC3FBCF1000F95
:1035E400F6D1E9D102480C7070BD0248FCE700BF77
:1035F4000000AD0B0200AD0B036810B5CB40DB0738
:1036040011D4012303FA01F1036841EA0302D0E86B
:10361400EF4F9C4204D1C0E8EC2FBCF1000FF6D16F
:10362400F2D1024810BD0248FCE700BF0000AD0B18
:103634000400AD0B044B1A7922B9012218601A71E7
:103644000248704702487047A85301200000AD0BA0
:103654000C00AD0B4FF05023D3F8002110B552B13C
:103664000020C3F80001D3F800210122C3F8082385
:10367400114B1B6898474FF05023D3F804218AB1AB
:103684000022C3F80421D3F80421D3F81824D3F872
:10369400181402F00302012A4FF0020103D1C3F807
:1036A40018159A6010BDC3F80813034B0120BDE838
:1036B40010401B68184700BFA85301200146014869
:1036C400FFF778BF28450120064A00F01F0002EBEF
:1036D4008000D0F8003223F4403343EA0141C0F8BB
:1036E4000012704700258450034B083033F8100053
:1036F400C0F34010704700BF2C45012070B50D4C3D
:1037040000F1080334F813300546DA050E4607D5F0
:10371400C3F3432304EBC302526854F8333098478D
:10372400A3682BB131462846E268BDE870401847CB
:1037340070BD00BF2C450120134A083032F8103008
:1037440010B4D9051CD5C3F3432123F4F85322F84C
:103754001030002002F1100434F8023B13F4807F8F
:1037640003D0C3F3432399420AD001302028F3D174
:10377400002306485DF8044B42F83130FFF73CBFA4
:103784005DF8044B704700BF2C45012080450120A3
:1037940038B50246FFF7A8FF0B4C02F1080560B1EB
:1037A400002134F815305B0B9B0003F1A04303F5B3
:1037B4005043C3F81015C3F810151046FFF7BCFFAB
:1037C400002324F8153038BD2C4501202DE9F341A0
:1037D40004461D4609B34D4F00F1080837F8186038
:1037E400B30706D5FFF780FF18B1494802B0BDE81A
:1037F400F081484B04F01F0003EB8000D0F8003246
:10380400097823F00F0326F0020643EA810346F009
:103814000106C0F8003227F8186092B13B4B04F15E
:10382400080633F8161010788F0752680CD5002A52
:10383400DBD133F8162022F01C0242EA800023F880
:103844001600CDBB3448D1E721F02001C904C90CCE
:1038540023F81610002AECD00328C6D892F800C02A
:103864006246920002F1A04202F5504220B9C2F829
:103874001005C2F81005DCE7D2F8107541EA4C31A6
:1038840027F00307C2F81075D2F8107541F0200133
:1038940027F4473727F44077C2F81075D2F810E5BB
:1038A400270207F4F8574EEA004E47EA0E07C2F81B
:1038B400107523F81610BCE72046D5E90067FFF71A
:1038C4003BFF002EBED0114D2B689E4204D16B6885
:1038D4009F4201D1002209E010480DF10701FFF7D2
:1038E40069FE0D4B984281D19DF8072005EBC20378
:1038F40008345F6035F8143045F8326043EA4223F7
:1039040043F4807325F814309CE700BF2C45012054
:103914000400AD0B002584500000AD0B8045012050
:10392400F8B5044669B3374E00F1080736F8175066
:10393400AB0704D4FFF7D8FE08B13348F8BD15F03F
:103944001C0F4B7801D0012BF7D0304804F01F0C2A
:1039540000EB8C0CDCF8000291F800E05B0020F432
:10396400E160897843EA0E2320F00700034343EA29
:10397400810343F0010345F00305CCF8003226F837
:1039840017500AB92248D9E71E4E04F1080736F841
:1039940017008307D1D592F800C00023614620F0B8
:1039A4002000890001F1A041C00401F55041C00C80
:1039B400C1F8103526F81700C1F810355578002DD8
:1039C400E0D0D1F81035927823F4981323F4F85307
:1039D400C1F81035D1F810E5230203F4F8532D048F
:1039E40043EA0E0305F4403512052B4302F480121A
:1039F40040EA4C30134340F02000C1F8103526F85B
:103A04001700BFE72C4501200400AD0B00258450AE
:103A14000000AD0B014BC3E9020170472C450120A6
:103A240008B50246FFF760FE38B1054B083233F89B
:103A3400123004485B0B0B7008BD0348FCE700BF61
:103A44002C4501200000AD0B0400AD0B38B50F4C24
:103A540094F85850BDB94022294604F1100002F0F0
:103A64002BFC0D20FEF7D0F8094B0A48C3F87C5113
:103A7400D3F87C214FF00042C3F80423012384F8D7
:103A84005830636538BD0448FCE700BF2C4501206D
:103A940000D000500000AD0B0500AD0B034B93F8B4
:103AA4005800003818BF0120704700BF2C45012082
:103AB40001460148FFF7A0BD7C45012001460148AD
:103AC400FFF778BD7C450120024610B5FFF70CFED8
:103AD4001C4B02F1080433F81430E0B113F0020473
:103AE40019D15B0B9A0002F1A04000F5514002F19C
:103AF400A042046002F550420068D2F8100540F07C
:103B04000100C2F8100529B1012202FA03F30E4A9A
:103B1400C2F8043310BDC3F38203042B0ED0052B6B
:103B24000ED00A4B196902F01F03D94001F00101BC
:103B340002311046BDE81040FFF7C6BD0321F8E787
:103B44000221F6E72C45012000D0005000258450C6
:103B540008B50246FFF7C8FDC0B10F4B02F10801DA
:103B640033F81130990711D401225B0B9A400B49A9
:103B74009B0003F1A043C1F8082303F55043D3F895
:103B8400102522F00302C3F8102508BD0021BDE86A
:103B940008401046FFF798BD2C45012000D0005086
:103BA4000C4B00F1080233F8123010B5DB07044661
:103BB4000DD5FFF7CDFF2046FFF7EAFD0222064BA5
:103BC40004F01F048034054843F8242010BD044841
:103BD400FCE700BF2C450120002584500000AD0BFC
:103BE4000400AD0B2DE9F04F002501222C464D4B6E
:103BF4004D484E4985B01E6836B1D0F8046316426C
:103C04001EBF1C601E68154304338B424FEA4202F8
:103C1400F1D1454FD7F87C3193B1454E336A0393C4
:103C240033624FF001090DF10C08039850B9C7F83D
:103C34007C01D7F87C31336A03933362002BF0D1D3
:103C4400012469E090FAA0FABAFA8AFA394A0AF128
:103C5400080332F813104FEADA0C0AF0070309FAE2
:103C640003F418F80C30C1F3820223EA040308F8C1
:103C74000C3006EB8A03D3F80042C8069346C4F31B
:103C8400014418D5114650460193FFF737FD019BB7
:103C9400E4B2D3F80032C3F301439C4207D10021BC
:103CA4005046FFF711FD21465046FFF70DFD09FA76
:103CB4000AF03062B9E7022C0CBF032102215046FE
:103CC4000192FFF701FD019A032A04D0022C07D1C7
:103CD400BBF1010FEBD159465046FFF70FFDE6E764
:103CE400032CE4D1BBF1020FF4E795FAA5F3B3FA80
:103CF40083F304FA03F29B0003F1A04303F550435A
:103D0400D3F81005D3F81015C0F30420C1F3014112
:103D140025EA0205FFF7F2FC002DE6D105B0BDE867
:103D2400F08F00BF00D1005000D0005020D10050CF
:103D3400002584502C4501200022034BC3F8842520
:103D4400C3F80425704700BF00900350044AD2F81A
:103D54000834DB07FBD50160BFF35F8F704700BFFA
:103D64000090035008B5C0F30B0383B90222094B3A
:103D7400C3F88425C3F804254FF0FF320260D3F85A
:103D84000024D207FBD5FFF7D7FF034808BD03483B
:103D9400FCE700BF009003500000AD0B0A00AD0B20
:103DA400012208B5054BC3F88425C3F80425FFF7A1
:103DB400CDFFBDE80840FFF7BFBF00BF0090035030
:103DC4000E4B70B553F82040013053F82060A642E2
:103DD40000D870BDD4E900352846984765B1EB6832
:103DE40030B10028B8BF4042FF28A8BFFF20187098
:103DF4005A7842F001025A700834E8E7DC6E000099
:103E040070B5054610B90024204670BD0378002B18
:103E1400F9D00E4C0E4EB44208D10C4CB442F2D040
:103E2400204602F085FD50B91834F7E7204602F029
:103E34007FFD10B12368AB42E6D01834EBE7284687
:103E4400216802F011FA0028EED1DDE71C6A0000B7
:103E5400946A000073B504460D464FF02003EFF357
:103E6400118683F31288BFF36F8F0022042896BF54
:103E7400114B124B53F82030009245210246104852
:103E840002F04AF93DB1EB69C3F308031BB14521C4
:103E94000C4802F041F900220B4B45210B4802F07B
:103EA4003BF929462046FFF7BDF986F31188BFF395
:103EB4006F8F02B070BD00BFF06E0000AD7B0000DC
:103EC400BB7B0000E87B00000E7C0000167C000039
:103ED400012208B5084B02201A70FFF771FF00F0A9
:103EE40005F90320FFF76CFFFCF798FA034A137BEC
:103EF40023F00103137308BDCD540120284601208B
:103F040008B50348034A0021121A02F01BFD08BD3C
:103F140008460120D054012008B5174B03F5006270
:103F240082F3088883F30A880025E023134C84F87D
:103F34002230E57725766576A57684F82050636A85
:103F440043F4E023636284F82350FEF7D9F8FDF7C5
:103F54000FFE4FF0FF33A362E36202F0E8FC284651
:103F6400FFF72EFF0120FFF72BFF2B462A46294699
:103F74000348FDF7BFFE00BFD07C012000ED00E048
:103F8400D53E000008B50648064A0749121A02F051
:103F9400DBFCBDE80840054A0549064802F0D4BCEC
:103FA400E844012004460120B87C00000000000021
:103FB400B87C0000E8440120034B1B680BB9FFF7F1
:103FC40057B80020704700BFB05301200D4B10B507
:103FD4001C689C4208BF0024FFF7EEFF74B1D4E9CB
:103FE40004321B1A62EBE070B3F1004F70F100026F
:103FF40004DA0028ACBF1846002010BD6FF0004062
:10400400FBE700BF8845012030B5036868B10A4A60
:104014005268904209D043B1D3E90421D0E9044560
:10402400121941EB0501C3E90421426813605A6087
:104034000023C0E9003330BD884501202DE9F84351
:104044004FF02003EFF3118483F31288BFF36F8FD3
:10405400234EDFF89480234D3060D8F80000326896
:1040640040454FEAE277D5E9001E0BD050B1D0E9C4
:10407400043C9A4277EB0C0916DA9B1A6CEB070C9A
:10408400C0E9043C52184EEB0707C5E90027002598
:104094003560FFF79BFF2946FEF7BAFF84F31188CA
:1040A400BFF36F8FBDE8F88359184EEBE377D31A4B
:1040B400336000220023C0E90423C5E90017FFF799
:1040C400A3FF84F31188BFF36F8F836898474FF081
:1040D4002003EFF3118483F31288BFF36F8FBCE7DF
:1040E400B0530120A846012088450120024A034913
:1040F400034801F057BF00BF0D7C0000807C000026
:104104008F7C000010B50A4C23681BB101230020EA
:10411400236010BD00F050F80028F7D001380628BD
:1041240003D8044B53F8200010BD034810BD00BF52
:10413400B4530120046F0000FE8FFFFFBFF34F8FC5
:104144000549064BCA6802F4E0621343CB60BFF32F
:104154004F8F00BFFDE700BF00ED00E00400FA054B
:1041640030B44FF0FE320025074B084C084949682B
:10417400C3F80024C3F80424C3F80824C3F80C24A7
:10418400C4F8005530BC0847001084500000845027
:1041940090450120024BD0E90012C3E90012704798
:1041A4009045012038B131B1002201440346013069
:1041B40088421A70FAD1704738B500F02FF820B150
:1041C400032400F063F8204638BD00F031F898B9B4
:1041D40000F0ACF898B90F4DD5F828391B0EF02B28
:1041E40008D1D5F8242A0C4B9A420AD0072400F0AF
:1041F40017F8E6E70624FAE70424204638BD00242D
:10420400F5E7012000F092F804460028F7D1C5F83C
:104214000C0AD8E7001084500000E020002070470A
:1042240000207047014BC3F8040A70470010845003
:1042340010B5114800F048F800B110BD0F4800F067
:1042440043F80028F9D10E4C204600F03DF8002830
:10425400F3D10C4B0C481C6000F036F801460028E2
:10426400EBD100F02DF8044608B1204610BD00F053
:104274003FF82046FAE700BFA445012098450120F5
:10428400A0450120A84501209C45012008B5084807
:1042940000F024F8074800F021F8074800F01EF861
:1042A400064800F01BF8BDE8084000F00BB800BF5A
:1042B400A445012098450120A04501209C450120EA
:1042C40000207047704700BF08B5034B02681B68A5
:1042D40010689847002008BDB445012008B5034B79
:1042E40002685B6810689847002008BDB445012047
:1042F40070B5094C094D2069AB68984718B1084B53
:1043040008485B6898470021074AEB6811602069F8
:10431400BDE87040184700BFC4450120B4450120E2
:1043240090450120206F0000B853012070B51B4D4B
:104334001B4E0446B26828699047F8B95CB1194C21
:104344002368B3B1012B1BD0013B23602869F368B8
:104354009847002070BD134C216841B90122124BCB
:10436400C3F80025114AD2F81039002BFBD10131D2
:104374002160F36828699847002070BD0C4870BD1F
:104384000A4AD2F81039002BFBD1074A6FF07E405D
:10439400C2F80035FFF746FF2368D5E7C44501207E
:1043A400B4450120B853012000008450001084500B
:1043B400E98FFFFF10B5044630B16368DB0602D510
:1043C40000232360636010BD024B03485B68984779
:1043D400F3E700BF90450120406F0000B0B143688F
:1043E40093B1DB060ED5012350E8002F194640E8AF
:1043F400001C9CF0000FF7D1012AF5D0BFF35F8FAA
:104404000020704703487047034870476FF4E0404A
:10441400704700BFE98FFFFFEA8FFFFF034668B1D3
:1044240042683AB1D20607D5BFF35F8F0022104627
:104434001A60704703487047034870476FF4E040C0
:10444400704700BFEA8FFFFFE98FFFFF10B50446F6
:1044540020B1002211232260636010BD0148FFF7E0
:104464007FFEF6E7686F000030B10268034B044832
:104474009A4208BF0020704702487047DD55AABB26
:104484008208F0007108F00038B50D460446B0B15A
:10449400A0220021043002F07DFA95B108222946B9
:1044A40004F1640002F07CFA082205F1200104F111
:1044B400840002F075FA0020034B236038BD0348E2
:1044C400FCE70348FAE700BFDD55AABB7108F0001A
:1044D4008308F0002DE9F74305460E469946114638
:1044E400FFF7C2FF0446002840F08480002E00F04D
:1044F4008580002900F08480B9F1200F40F082808B
:1045040005F14404082205F10408204602F048FAA3
:1045140005F1240708223146404602F041FA06F12B
:1045240020010822384602F03BFA02A941F8049D12
:104534004FF4807002F028FA002865D14FF480739C
:10454400324A0121136093600823314A00F034FB9E
:104554000121052308462F4A00F02EFB082342467A
:1045640001211C2000F028FB08233A4601210320E6
:1045740000F022FB224608230121022000F01CFB4C
:104584000823254A01211A2000F016FB0523234A9B
:1045940001211B2000F010FB0823214A01211420D3
:1045A40000F00AFB08231F4A0121152000F004FB38
:1045B400082305F164020121162000F0FDFA082306
:1045C40005F184020121172000F0F6FA0823164AA7
:1045D40001210B2000F0F0FA00F04AFB0446019898
:1045E40000F0D8FA114B002C18BF1C46A421284611
:1045F40002F0D2F9204603B0BDE8F0830C4CF9E791
:104604000C4CF7E70C4CF5E7084CEFE7901084509E
:10461400CC6F0000447000008C6F0000307000000C
:10462400F06F000010700000AC6F00008408F00010
:104634007608F0008008F0008108F000C2690C4B95
:104644001A60826943F8042C426943F8082C026911
:1046540043F80C2CC26843F8102C826843F8142CDD
:10466400426843F8182C026843F81C2C704700BFBA
:104674005C1684500C4B1B68C3610C4B1B68836134
:104684000B4B1B6843610B4B1B6803610A4B1B6894
:10469400C3600A4B1B688360094B1B684360094B6A
:1046A4001B680360704700BF5C1684505816845022
:1046B40054168450501684504C1684504816845016
:1046C400441684504016845030B10268034B0448A9
:1046D4009A4208BF0020704702487047DD55AABBC4
:1046E4000202F0000002F00038B5044668B1051D6E
:1046F4007021284602F050F928462022044902F08D
:1047040047F90020034B236038BD0348FCE700BF92
:1047140058700000DD55AABB0002F0002DE9F043FB
:1047240085B015466F46274B04460E460FCB87E8E7
:104734000F002DB94FF00009484605B0BDE8F083DD
:104744002046FFF7C1FF81460028F5D1231D0193C0
:10475400636AA3BB236F8BB1C3F14008A84528BF8C
:10476400A84604F1300031461844424602F010F9DC
:10477400236F464443442367A5EB0805226F402A70
:1047840006D104F13001384600F0B4FB002323675E
:1047940005F03F0835F03F0505D031462A46384636
:1047A40000F0A8FB2E44B8F1000FC3D042463146B6
:1047B40004F1300002F0ECF8C4F87080BCE7DFF8D4
:1047C4000890B9E7006D00000C02F0002DE9FF41EC
:1047D40004466F46134B0E460FCB87E80F00204666
:1047E400FFF772FF8046B0B9CEB1636A251D01950B
:1047F4003BB90123226F636204F13001384600F0B3
:1048040079FB2B46043E243453F8042B12BAA342FA
:1048140046F8042FF8D1404604B0BDE8F081DFF833
:104824000880F8E7006D00000502F000084B1B68E3
:104834001B0EF02B08D1074B1A68074B9A4205D17F
:104844000020064B1860704705207047062070470B
:1048540028198450241A84500000E0200C1A845033
:10486400002230B5134640F6FC754900023802F1C7
:10487400A15404F5823490424FEA840402F1010207
:10488400CABF236025605B181E2AF0D1034A136057
:104894000B445360024B034A1A6030BD78108450B5
:1048A4008410845020F80F001E4B30B51A4685B092
:1048B400196800910099CC07FAD500F1A15000F5D0
:1048C40082308000016813680193019BD807FAD5F0
:1048D400154B164C186820231F3090FBF3F0144D31
:1048E4000138002810DA00230130400153B14FF0A1
:1048F4000042A0F12001134204D1013888424FEA5A
:104904005202F8D105B030BD13680393039BDB0753
:10491400FAD5431823602B680293029B002BE3D142
:104924000138DEE7B4108450AC108450E410845095
:10493400DC108450F0B51D6885B001F01F040DB97A
:104944001F2C28D1174D2E462F680197019FFF0772
:10495400FAD500F1A15000F5823080000068356876
:104964000395039DED07FAD51F2C00EB611018BFCA
:10497400C9430D4D18BF01F01F0128600B480068A2
:10498400029002981CBF00FA01F111604FF000017F
:1049940008BF1060196010684300C00F136005B0B1
:1049A400F0BD00BFB4108450E4108450DC10845077
:1049B4000C4B890118603F3020F03F0040305860B4
:1049C40099600948D9601961596199611C3382B0B1
:1049D400196002680192019AD207FAD5196002B0EF
:1049E400704700BF90108450B410845038B5A0F1C3
:1049F4002003B3F5426F05462CD88F2826D800F142
:104A0400470300F16604DB064FEA541400D0013476
:104A140064013F34A409013411B1A1421AD30C46F4
:104A24004FF48050E300B0FBF3F0202828BF20208F
:104A340002B110600122084B21461A60FFF710FFF3
:104A440028462146FFF7B4FF002038BD00F11F04BB
:104A54006409DDE70148F8E71C1884502221F000BE
:104A6400464BF0B51D4689B01C680194019CE407CF
:104A7400FAD5434B002413449B001A680B181E2BD1
:104A840088BFC0F11E011F320B1852095343B3F5FE
:104A9400806F84BF4FF48061B1FBF2F1274688BF79
:104AA400091ADFF8E4E000F1A150DFF8E0C000F5F6
:104AB4008230A14233DC2B680493049BDB07FAD5D4
:104AC400304B1B68296805910599CF07FAD52E4C00
:104AD4002E49236000231E46934203F1010040D176
:104AE4001946002620F0010228488A423CD8296849
:104AF40006910699CE07FAD52549096828680790D2
:104B04000798C007FAD5216000210C461F488B4244
:104B14002DD100201D499A422CD809B0F0BD2B6834
:104B24000293029BDB07FAD503199B001B682E68CE
:104B34000396039EF607FAD5CEF80030002393427D
:104B440003F1010306D1164623F00103B34204D84E
:104B54000134AEE7CCF80070F1E7CCF80070013610
:104B6400F4E70E600346B7E706600131BDE7046071
:104B74000131CCE708600133CDE700BFB4108450A5
:104B8400240421147C108450D4108450D8108450F0
:104B94007810845008B540B1202801464FF0070230
:104BA40028BF20210020FFF75BFF0022014B1A6081
:104BB40008BD00BF1C188450F0B5294D85B02C46A3
:104BC4002E680096009EF607FAD500F1A15000F574
:104BD400823080000568206801900198C707FAD5E3
:104BE4002048214F056002EB8306B24229D10027F9
:104BF4005A1C1D4E22F001029A4227D823680293C0
:104C0400029BDE07FAD5194B0B449B001B681F332C
:104C14005B099A4213D2216803910399C907FAD513
:104C240000211544056008469B1A0F4A8B4210D890
:104C340000205A1C0C4922F001029A420CD805B0FB
:104C4400F0BD52F804CBC7F800C0CEE7376001339B
:104C5400D2E710600131E9E708600133EDE700BFF6
:104C6400B4108450D4108450D810845024042114D7
:104C74002DE9F041814BA0B01D68986820331E4691
:104C84001A680192019AD707FAD57D4B7D4A1A60BA
:104C940032680292029AD407FAD57B4A1A607B4A98
:104CA4001446116803910399C907FAD5784A116823
:104CB400C1F3402137680497049FFF07FAD5754F65
:104CC4001F6027680597059FFF07FAD51768002915
:104CD40000F0CF80B90540F1CC8031680691069987
:104CE400CF07FAD56C491960216807910799C9075C
:104CF400FAD51168C1F3402137680897089FFF0768
:104D0400FAD5664F1F6027680997099FFF07FAD5F0
:104D14001268002900F0AF80910540F1AC80326840
:104D24000A920A9AD207FAD5564A1A6032680B9246
:104D34000B9AD707FAD55A4A1A6031680C910C9924
:104D4400CC07FAD55749196031680D910D99C907F7
:104D5400FAD55549196031680E910E99CF07FAD5E5
:104D64005249196031680F910F99CC07FAD550490F
:104D74001960504B1E46196810911099C907FAD54D
:104D84003F4C4D4B236033681193119BDB07FAD5DD
:104D94004A4B236033681293129BDF07FAD5484BC2
:104DA40023603A4B9846196813911399C907FAD5A9
:104DB400324F386033681493149BDB07FAD52260B2
:104DC40033681593159BD807FAD53E4B2360336897
:104DD4001693169BD907FAD53B4B23603368179378
:104DE400179BDA07FAD5394B236033681893189B5D
:104DF400DB07FAD5364B236033681993199BD80720
:104E0400FAD5344B236033681A931A9BD907FAD521
:104E1400314B236033681B931B9BDA07FAD52F4B66
:104E2400236000F01DFC08BBD8F800301C931C9BC9
:104E3400DB07F9D53D6033681D931D9BD907FAD56F
:104E4400274B236033681E931E9BDA07FAD5254B44
:104E54002360D8F800301F931F9BDB07F9D50C4B58
:104E64001B6813F4805F204B08BF184620B0BDE8D0
:104E7400F0811E48FAE71E48F8E700BF90108450FE
:104E84008010845000100251C01F7229B410845045
:104E940088108450C0CF0129C01F0E29C03F0029AB
:104EA40040010249003184A800001649400108A1CC
:104EB40080440888B0108450C044708880077A41C8
:104EC400C0077E4100006A498006164940006E49C9
:104ED400000200210082202140822021808224219E
:104EE40040A161A100C861510308F1000108F1006B
:104EF4000208F100324B2DE9F74F8046924699465D
:104F040044681A68002AFCD12E4B9B461A68002A72
:104F1400FCD14FF0FF30019100F094FC802000F0B0
:104F240097FC01230720284A284DA2F59E722B6086
:104F3400C2F83C011360636A254F264E3B60A36AA6
:104F440020463360D8F8003042F8043CD8F80830E2
:104F540098470199D9F80030002BFBD1BAF1000F22
:104F640020D104221C4B1A60D9F80030002BFBD14D
:104F7400DBF800A0BAF1000FFAD1D8F80C302046C3
:104F840098473B6863623368A362144BC3F800A07C
:104F9400C3F844A1D9F80030002BFBD12B6003B037
:104FA400BDE8F08F236A4020012B04BF0B4A136035
:104FB4000B4B1960C3F804A000F050FCD4E700BF09
:104FC40010198450201C84500019845018188450DF
:104FD400CC178450D0178450C8178450841684503A
:104FE400281C8450544B10B5194698B01A68019285
:104FF400019AD207FAD5514B514A1A600A680292B3
:10500400029AD407FAD54F4A1A600A680392039A9F
:10501400D007FAD54C4818600A680492049AD2075B
:10502400FAD54A4A1A600A680592059AD407FAD54D
:10503400474A1A600A680692069AD207FAD5454A80
:105044001A600A680792079AD407FAD5424A1A6086
:105054000A680892089AD207FAD5404A1A600A6880
:105064000992099AD407FAD53D4A1A600A680A9245
:105074000A9AD207FAD53B4A1A600A680B920B9A2D
:10508400D407FAD5384A1A600A680C920C9AD207E7
:10509400FAD5364A1A600A680D920D9AD407FAD5E1
:1050A400334A1A600A680E920E9AD207FAD5314A28
:1050B4001A600A680F920F9AD407FAD52E4A1A601A
:1050C4000A681092109AD207FAD52C4A1A601A4B21
:1050D40019461C681194119CE407FAD5174B186003
:1050E400086812901298C407FAD51A600A681392D5
:1050F400139AD007FAD5124A1A600A681492149ABD
:10510400D207FAD51E4A1A600A681592159AD4076E
:10511400FAD51C4A1A600A681692169AD007FAD56C
:10512400194A1A600A681792179AD207FAD5174AC9
:105134001A6018B010BD00BFB010845080108450A5
:1051440000936521000431904096659000836121AD
:1051540000C3302100C36490008161900046102197
:10516400008111210041442100C320290C4610C8AC
:105174000086312100C3602140C128294096652161
:105184000013319040962529594614C840043249E9
:10519400494B10B5194694B01A680092009AD20788
:1051A400FAD5464B464A1A600A680192019AD40716
:1051B400FAD5444A1A600A680292029AD007FAD5CC
:1051C400414818600A680392039AD207FAD53F4A05
:1051D4001A600A680492049AD407FAD53C4A1A6001
:1051E4000A680592059AD207FAD53A4A1A600A68FB
:1051F4000692069AD407FAD5374A1A600A680792C3
:10520400079AD207FAD5354A1A600A680892089AAA
:10521400D407FAD5324A1A600A680992099AD20761
:10522400FAD5304A1A600A680A920A9AD407FAD55B
:105234002D4A1A600A680B920B9AD207FAD52B4AA8
:105244001A600A680C920C9AD407FAD5284A1A6094
:105254000A680D920D9AD207FAD5264A1A600A688E
:105264000E920E9AD407FAD5234A1A600A680F924E
:105274000F9AD207FAD5214A1A600F4B19461C68B7
:105284001094109CE407FAD50C4B18600868119030
:105294001198C407FAD51A600A681292129AD007B4
:1052A400FAD5174A1A600A681392139AD207FAD5E4
:1052B400144A1A6014B010BDB01084508010845089
:1052C400809065210004099040966590808061215A
:1052D4008020082180206490008161900046102184
:1052E400008111210041442180202029024610C858
:1052F40000860921802060214021282940966521CB
:1053040040962529594614C8504B10B51C4696B0F2
:105314001A680192019AD207FAD54D4B4D4A1A6088
:1053240022680292029AD207FAD54B4A1A604B4A73
:1053340042EA804022680392039AD207FAD51860A1
:1053440022680492049AD007FAD5454A1A60A2F555
:10535400800242EA814122680592059AD207FAD571
:10536400196022680692069AD007FAD53D4A1A6057
:1053740022680792079AD107FAD53B4A1A60226835
:105384000892089AD207FAD5384A1A602268099214
:10539400099AD007FAD5364A1A6022680A920A9AFC
:1053A400D107FAD5334A1A6022680B920B9AD207B6
:1053B400FAD5314A1A6022680C920C9AD007FAD5B1
:1053C4002E4A1A6022680D920D9AD107FAD52C4AFA
:1053D4001A6022680E920E9AD207FAD5294A1A60E8
:1053E40022680F920F9AD007FAD5274A1A602168CB
:1053F40010911099C907FAD51A60144B1A46196806
:1054040011911199C807FAD5114B204919601168F7
:1054140012911299C907FAD51D491960116813919F
:105424001399CC07FAD50B49196011681491149992
:10543400C807FAD517491960116815911599C90754
:10544400FAD5154A1A6016B010BD00BFB0108450CA
:10545400801084504004419000862929D81001C846
:105464004014419040142129401465210034409097
:1054740000310C90C0400C90C030202940960D9013
:1054840000416090031645C8008611210041602147
:10549400594644C84014459040142D90264870B590
:1054A400054688B004680094009CE607FAD5234CAE
:1054B40023480460234C44EA83432C680194019CF0
:1054C400E407FAD50360930143EA824242F01044B0
:1054D40044F4C0442B680293029BDE07FAD50460AF
:1054E4002B680393039BDB07FAD5174B03608B01EF
:1054F40043EA814141F0104343F4C0432E680496CB
:10550400049EF607FAD503602B680593059BDE0716
:10551400FAD5046041F058412B680693069BDC07DA
:10552400FAD5016042F058422B680793079BDB07CA
:10553400FAD5026008B070BDB0108450C0210229B1
:10554400801084508071009880611890354B8EB023
:1055540019461A680092009AD207FAD5324B334A98
:105564001A600A680192019AD007FAD5304A1A6083
:105574000A680292029AD207FAD52E4A1A600A6879
:105584000392039AD007FAD52B4A1A600A68049248
:10559400049AD207FAD5294A1A600A680592059A2C
:1055A400D007FAD5264A1A600A680692069AD207E4
:1055B400FAD5244A1A600A680792079AD007FAD5DE
:1055C400214A1A600A680892089AD207FAD51F4A33
:1055D4001A600A680992099AD007FAD51C4A1A6017
:1055E4000A680A920A9AD207FAD51A4A1A6008680F
:1055F4000B900B98C007FAD51A600A680C920C9AA3
:10560400D007FAD5144A1A600A680D920D9AD20787
:10561400FAD5124A0E211A6000200D230F220EB073
:10562400FFF73CBFB01084508010845080430129A0
:1056340040633921807001298020542100D13490A5
:10564400C0403490C0302029C0530D9000413890A0
:10565400832308C880E3102100413821CF4308C8C0
:1056640001232DE9F04192B0CDE90333624B1D468D
:105674001A680592059AD207FAD5604B604C2360EC
:10568400604B19461A680692069AD707FAD55E4BFC
:105694001A68D60400F1A8802A680792079AD007EE
:1056A400FAD55A4A22600A680892089AD207FAD5AB
:1056B4001E68C6F30036002E40F098801220FFF7D3
:1056C400F3F807461320FFF7EFF887428CBF122048
:1056D4001320FFF7E9F8471EFFF738FF03AB01AAD1
:1056E40039461220FFF726F904AB804602AA394650
:1056F4001320FFF71FF900EB4800022832D00328DB
:105704003ED0012874D12B680993099BDB07FAD595
:105714003F4B23602B680A930A9BD807FAD53D4B6D
:1057240023602B680F930F9BD907FAD53A4B23605C
:105734002B681093109BDA07FAD5384B23602B683B
:105744001193119BDB07FAD5354B2360013F25D517
:105754001023192218210020FFF7A0FE304612B0B2
:10576400BDE8F0812B680B930B9BD907FAD52D4B21
:1057740023602B680C930C9BDA07FAD52A4BCFE7EE
:105784002B680D930D9BDB07FAD5284B23602B6800
:105794000E930E9BD807FAD5254BC1E703AB01AA9C
:1057A40039461220FFF7C6F804AB044602AA39466C
:1057B4001320FFF7BFF810EB440402D1FFF712FCEB
:1057C400C4E7FFF7E5FC022C08D0032C09D0012C18
:1057D40010D117211620FFF797FDB7E715211420E4
:1057E400F9E70F210E20F6E7124EB7E7124EB5E7A0
:1057F400124EB3E7124EB1E7B010845000084A517C
:1058040080108450B41084508810845000084E5185
:1058140000065A4940065E490004424100144249C8
:1058240040042E49000652494006564900063A49AA
:1058340040063E490608F1000708F1000408F1009B
:105844000508F100014B1860704700BF081A845026
:10585400014B1860704700BF041A8450034A136850
:105864001842FCD0024A106018467047001A84504F
:10587400081A845029B1012914BF6FF015000920BA
:105884007047032070470020704770472DE9F743A5
:105894000E4617469946044628B94FF0FF3840464D
:1058A40003B0BDE8F0830029F7D0002AF5D0CB6817
:1058B4000D8938461D44042329460DEB030200F0EC
:1058C40039FC80460028E8D146F60812BDF80410D9
:1058D4007389914223D1BDF806109942DDD1042386
:1058E40038460DEB0302294400F024FC0028D4D1EF
:1058F40046F60713BDF804209A42CED19DF828300D
:10590400BDF80620A3727389C4E900672B44E360E1
:1059140004351344A4F8089063612561BFE7002BA4
:10592400E6D0BAE72DE9F7430F4690461E460446F3
:1059340020B94FF0FF3003B0BDE8F0830368002BBB
:10594400F7D04368002BF4D04FF6FF79D4E9042351
:105954009A4216D223685B8923B1E368934204BF59
:10596400043323610423216960680DEB030200F012
:10597400E1FB0028DDD1A37A256923B1E368AB42BA
:1059840001D80120D7E72189BDF80620494502F155
:10599400040303D0BDF804C08C450BD116B1BDF887
:1059A4000410318004353D60A8F8002022691344B6
:1059B4002361C0E72B442361C8E773B50C46064650
:1059C40011460223204601AA00F03FFA0546E8B931
:1059D400019A1F2A0ED9A2F1200130462022236801
:1059E400194400F05EFC2368019A1344236028469E
:1059F40002B070BD0146C2F12002304600F05CFCEA
:105A0400019A2168C2F120003044EAE76FF00205F0
:105A1400EDE700F035BC4FF4C073584330307047A5
:105A24000B78032B06D0092B0CBF4FF4C0704FF03A
:105A3400FF3070474FF4C070704710B5044600F053
:105A4400C8FB4FF4C072A368303B02FB103010BD9A
:105A540081680122183921F00701083900F072BE6B
:105A640013B50446019100F00AFE0423A0F10801D5
:105A74000DEB0302204600F039FE02B010BD73B5F1
:105A8400134601920E46024600210546FBF76EF9C5
:105A9400044650B901212846019B05F12C02FBF76D
:105AA40065F910B1002E18BF0446204602B070BD3F
:105AB40073B5054600200C461646FFF7DBFE694623
:105AC400C0B2FBF7FDFF30BB2C2101FB045421893C
:105AD400E3680098CD18042329460DEB030200F077
:105AE40029FBC0B946F60813BDF8042064899A421C
:105AF40016D1BDF806309C420DD1042300980DEB5D
:105B04000302611900F016FB28B946F60713BDF825
:105B140004209A4207D0009800F00BFB02B070BD3D
:105B2400002CF2D0F7E7BDF8061021442944316077
:105B3400F1E737B580250446426A01A9032001959F
:105B4400FBF7DCFF58B9019B0920226DA36201A970
:105B54000195FBF7D3FF054628B1092500E001258F
:105B6400284603B030BD019B206A636500F031FB19
:105B7400E065F5E70123036003F10123436000239B
:105B8400C0E9023370474379012B07D10368012B25
:105B940004D10079431E5842584170470020704791
:105BA40070B586B006460D46032003A9FBF788FFAF
:105BB40030BB0398FFF741FFF16D0446284600F01F
:105BC400E5F80444039800F004FB0190039800F006
:105BD40009FB0822014604A800F06EFB2A7921463D
:105BE4008DF81020019B039804AA00F0BFFA041E4C
:105BF400039818BF012400F09CFA204606B070BD3B
:105C04000124FAE700F0CEBA2DE9F8430E4600214C
:105C140007460846FFF72EFE044601210020FFF741
:105C240029FE33789C4221D0984221D101252C238E
:105C340003FB0575F86DAC6AFFF7EDFE4FF0000845
:105C44000746013C6B6A304603EBC40253F8341038
:105C5400D2F804901B684A46C91AC844FFF7D2FF19
:105C6400B84504F1FF34EDD3BDE8F8830025DEE741
:105C74000120F9E737B515460C460920694600F0BE
:105C840078FDE979012903D00022204600F085FD42
:105C94009DF80330012B02D1204600F05DFDA96878
:105CA4002046FFF7DDFE2046FDF7C6FA002003B0CC
:105CB40030BD73B50D460646FBF740F90446E8606F
:105CC40058B302282ED1032001A9FBF7F9FE58BBD3
:105CD4002A4631460198FBF797F80446D0B9019853
:105CE40000F0CDFC012301460DF10302019800F000
:105CF40021FA0446A0B9012201980DF1030100F034
:105D0400D2FC10B101238DF803309DF8033003F069
:105D14000F03EB71019800F00CFA204602B070BD3D
:105D24000124F7E70724F8E70124F6E713B5032075
:105D340001A9FBF7C5FE48B90198FFF789FE04469F
:105D4400019800F0F6F9204602B010BD0124FAE7EC
:105D54001FB5032001A9FBF7B3FEA8B9019802A956
:105D6400FDF78AFA044668B99DF80B30032B03D17A
:105D7400019800F0F1FC0446019800F0DAF920469D
:105D840004B010BD0124F7E70124F8E730B54379E6
:105D94000279012B0ABF01230223002501FB03F42E
:105DA400036802F1FF3203F1FF3304FB03F318BF6E
:105DB400CD0101FB0231481930BD036870B5CD1A1D
:105DC400002D0DDD93F900601C78002E0BDB5C1CAC
:105DD40004601B7813600368C91A13688B4232D9B4
:105DE4006FF05F0070BD04F07F04013C032C27D8E2
:105DF400DFE804F00209121E012DF1D05C780233B1
:105E040014600360E7E7022DEADDB3F801400333D1
:105E140064BAA4B21460F4E7032DE1DD9C785D78E4
:105E2400240244EA0544DD7804332C431460E8E793
:105E3400042DD5DDD3F80140053324BA1460E0E71E
:105E44006FF06300CEE70020CCE770B404680E1B4B
:105E5400002E07DD26789E4208D10134046070BC10
:105E6400FFF7ABBF6FF05F0070BC70476FF061006D
:105E7400FAE738B503230446FFF7E7FF18B91368B8
:105E840013B96FF0670038BD013B136023681A78BB
:105E9400002AF6D101332360F5E72DE9F743904654
:105EA4001F4601AA302305468946FFF7CEFF044664
:105EB400F8B92E68A9EB0609B9F1000F35DD4246A1
:105EC400019933780E4442F8043B314606232846B0
:105ED400FFF7BBFF044660B92A68D8F80410C8F875
:105EE40008205318B3422B6007D10C213846FEF723
:105EF40059F9204603B0BDE8F083515C3A460133BA
:105F040042F8041B284631462B60FFF756FF04462F
:105F14000028EED12B687A68BB601344B3420CBFEF
:105F240004466FF065042B60E3E76FF05F04E0E77D
:105F3400F8B5B1F1005F0546144600AF10D26E46C5
:105F4400D31D23F00703ADEB030D684600F0A9F958
:105F5400694622462846FEF7E1FBB546BD46F8BD34
:105F6400FEF7DCFBFAE760B1436803F00303012B9F
:105F740003D0032B05D103681BB1002383601846AB
:105F840070476FF01500704700224368816003F08A
:105F94000303032B14BF134603684260184670477B
:105FA400002070470FB407B504A951F8040B019100
:105FB400FBF734FA03B05DF804EB04B07047038BCD
:105FC40013F0070305D10368002B0CBF0020032046
:105FD4007047022B05D1438B002B14BF00200420F3
:105FE4007047012B05D10368002B0CBF002005204E
:105FF40070470020704773B50D4606461946281DA4
:1060040001920093FFF7C0FF044640B1DDE900327E
:1060140029463046A44602B0BDE87040604702B04D
:1060240070BD10B44FF02004EFF3118284F3128892
:10603400BFF36F8F41615DF8044B0121FBF7FCB99D
:1060440010B50C4640B139B1081DFFF78CFF28B9D3
:10605400A36833F0030301D06FF0150010BD38B509
:106064000C46054658B151B10B6843B14B6833B186
:106074001C22002100F020F900202C6138BD6FF0B3
:106084001500FBE770B504460E46FFF7D9FF051E61
:1060940031DB4FF02003EFF3118183F31288BFF358
:1060A4006F8F4FF6FF75638B208BAB4200F00702B6
:1060B4002ED0022A0ED1013363831546012381F3C6
:1060C4001188BFF36F8FB3B1002331462046FFF729
:1060D40092FF10E0830701D0062A0ED1002333601B
:1060E400636893B9C4E90066154662B90A46204656
:1060F4000221FBF7A1F9284670BD052A0CBF6FF0F9
:1061040085056FF004050023D9E71E606660EBE7A0
:106114006FF00A05F7E770470FB407B504A951F803
:10612400040B0191FBF77AF903B05DF804EB04B0BA
:106134007047704773B50C1E05461E46019211DB6D
:106144008168E3188B420DD8C068FDF759FE696871
:1061540021448368019A1C683346A44602B0BDE812
:10616400704060476FF0150002B070BD73B50C1E2F
:1061740005461E46019211DB8168E3188B420DD857
:10618400C068FDF73DFE696821448368019A5C6834
:106194003346A44602B0BDE8704060476FF0150076
:1061A40002B070BD70B50C1E054616460EDBA31872
:1061B400826893420AD8C068FDF722FE69682144C8
:1061C40083683246BDE870409B6818476FF015003D
:1061D40070BD08B5C068FDF713FE8368DB68984797
:1061E400006808BD08B5C068FDF70AFE8368DB686F
:1061F4009847007908BD70B502684C68A24216D36E
:106204008B6823449A4206D2D1E90435AB4204D3C5
:106214006FF00B038B6100200AE0CD68121B45F878
:106224003320426805EBC306013372600B61012021
:1062340070BD002008B5FBF711FC704701460068EB
:10624400FBF7B4BC00210120FBF7B0BC08B5FBF799
:106254000FFDBDE80840FBF781BD034600201A5C32
:1062640002B970470130FAE70138013910F8013FEB
:1062740011F8012F934201D1002BF7D1981A7047DE
:1062840010B562B103460139841813F8010B11F8F3
:10629400012FA34201D09042F7D0801A10BD1046BE
:1062A400FCE710B5431E0A44914200D110BD11F819
:1062B400014B03F8014FF7E70346C9B20244934286
:1062C40000D1704703F8011BF9E74FF0FF30704726
:1062D4000C220369C9B201FB0233186C00F00700F9
:1062E40070474FF02003EFF3118283F31288BFF35A
:1062F4006F8F036803F0C00343F00203036082F36B
:106304001188BFF36F8F7047034670B50069C9B237
:106314004FF02004EFF3118684F31288BFF36F8FDC
:106324000C2505FB0104246C14F0C00401D0A24226
:1063340011D1012205FB01000264002086F31188BB
:10634400BFF36F8F30B90C225B6802FB01314B68DD
:106354009847002070BD4FF0FF30EFE78022FFF731
:10636400D3BFF8B5069F0469C9B24FF02005EFF317
:10637400118C85F31288BFF36F8F0C2606FB014640
:10638400356C05F0070EBEF1010F10D100253764FE
:106394008CF31188BFF36F8F3DB90C2671430C4405
:1063A400C4E90E2343685B5898472846F8BD05F0B6
:1063B400C005AF4214BF4FF0FF356FF07705E7E734
:1063C40013B580240094FFF7CCFF02B010BD6FF02A
:1063D4008500704710B41C240069CBB203FB040091
:1063E40000215DF8044B1047002000F054BA00204F
:1063F40000F092BA436800205B681B690B60704729
:1064040043685B68586842400A4042405A60002032
:106414007047436800205B689960704743680020B8
:106424005B68D9607047436800205A6853685940D4
:1064340051607047036930B5586858B100248142EF
:1064440012D108689D6854B98D42586000D1986093
:10645400002008606AB9002030BD2846EFE78D426D
:10646400206008BF9C60F3E705680446002DF4D162
:106474003AB15A6898680A6059600028EBD199606B
:10648400EAE76FF01500E7E738B505460C4600F07B
:1064940045FA002D07DBA84205D9401B84428CBF76
:1064A4000020012038BD0020FCE72DE9F04700243E
:1064B400836886B0884691461B6902AA01A9984759
:1064C400A2462546029BAB4202D806B0BDE8F0873F
:1064D4000026019F07EBC5077B6804933A680AEB23
:1064E4000603B24202D89A460135EBE7494603A8AF
:1064F40003940593C0470028E7D0049B01361C444D
:10650400ECE70B460269D2E9010183E803000020AD
:10651400704743681B68D3F88004C3F8800470474D
:10652400436802691B68D3F8100148B10020527C0B
:106534000A70C3F81001D3F8102101221A607047C1
:106544004FF0FF3070470268D2F8583143B94168C0
:10655400890707D4D2F82001003818BF01207047FA
:10656400012070471846704742681368D3F8041333
:10657400C90518D5D3F82011A9B14FF02000EFF3C5
:10658400118180F31288BFF36F8FD3F8200130B1EB
:106594000020C3F82001D3F820010120D86081F342
:1065A4001188BFF36F8F5268D20615D54FF02001C2
:1065B400EFF3118281F31288BFF36F8FD3F8581170
:1065C40011B10021C3F800154FF48001C3F808137A
:1065D40082F31188BFF36F8F704710B50446002211
:1065E40001210920FBF72EFB0920FBF70DFB2046B8
:1065F400BDE81040FCF798BA10B50446002201210A
:106604000820FBF71FFB0820FBF7FEFA2046BDE835
:106614001040FCF789BA30B543681360037A03F17C
:106624000053013BDB00456814681D44AC4202D9A9
:106634006FF0010030BD65798D4202D008341460DA
:10664400F1E70020F6E7FDF75DBD08B5FBF78AFA30
:10665400FFF7F3FDBDE80840FDF754BD38B50C461F
:106664001546FFF7BFFD21462544A94201D101206B
:1066740038BD11F8013B9842F7D00020F8E7806854
:10668400183820F0070010387047042809D005286E
:1066940003D1481E18BF01207047431A584258417D
:1066A40070470120704711B10AB1FFF7D7BF00202E
:1066B400704738B50C460123114622460546FFF7BC
:1066C40039FD002810DB012221462846FFF7EBFFA5
:1066D40018B103230020237038BD2378012B0CBF8D
:1066E400012302232370F7E70120F5E72DE9F7439F
:1066F4001D4606460F469046FFF76BFD6C1E04448C
:1067040043421C40082C1AD83046FFF76BFD8146E3
:106714002A4641466846FFF7C4FD4946621B0DEB15
:106724000500FFF7C9FD23466A4639463046FFF7A0
:106734001DFD003818BF012003B0BDE8F0834FF001
:10674400FF30F9E707B501238DF8042001AAFFF70C
:10675400CDFF03B05DF804FB81680122183921F0F4
:106764000701FFF7EFBF8268183A22F00702FFF72C
:10677400A0BF13B50C46C0B201A9FBF7A1F950B9EB
:1067840021460198FCF778FD04460198FFF7D1FCF7
:10679400204602B010BD0124FAE713B541EA021203
:1067A40004468DF80720FFF76AFF012301460DF127
:1067B40007022046FFF79AFF02B010BD4FF47F0393
:1067C400D3F83021D3F83401BFF34F8F092A03D112
:1067D400431E58425841704700207047004700F05C
:1067E400BBB8F7B5044618B1012825D003B0F0BDF5
:1067F4004FF050230222C3F80823C3F80401D3F84E
:1068040004210122DA6001239C4218BF002542F2D0
:1068140010774FF050268DF8073008BF0DF10705AB
:10682400ACB1012CE2D125B1D6F80C3403F001034C
:106834002B70D6F80C3412E04FF050230022C3F82A
:106844000803C3F80021D3F800215860DBE725B121
:10685400D6F8183403F003032B70D6F81834DB038E
:10686400C4D52DB90120FFF7BAFF013FD8D1BDE748
:106874009DF80730012BF5D0B8E708B50520FBF7E4
:10688400D3F910B90520FBF7BFF94FF050230122CB
:10689400C3F8182508BD08B510B1012831D008BDCA
:1068A4004FF05022D2F81834D2F81814C90313D474
:1068B400D2F81434DB0719D401234FF05022C2F864
:1068C40018350023C2F80431D2F804310223C2F887
:1068D400043301239360E2E703F00303022BECD0BB
:1068E400012BEAD00020FFF77CFFE5E7D2F81C3447
:1068F40003F00303013B012BF4D80223C2F8043351
:10690400CDE74FF050230022C3F80021D3F8002133
:10691400C3F804031860C2E7FFF763BF4FF48010A5
:1069240070474FF4805070474FF480707047704741
:1069340038B1C3681888C0F30800A0F580735842C2
:1069440058417047FFF7B8BCFFF7ABBCEFF30580C5
:10695400003818BF0120704708B1FBF7A7B870478B
:1069640070472DE9F041069F044615461E46FDF783
:106974008BFD38B93B46324629462046BDE8F041F6
:10698400FDF7A8BDBDE8F0810A460021FEF72EB848
:10699400FFF787BCFFF790BC0A460021FFF78CBCC9
:1069A40001EB820204388A4201D10020704752F878
:1069B400043D1BBA40F8043FF5E70000FCF730BD86
:0869C400B497FF7F0100000001
:1069CC00891A000000000000B92200001C6A0000B7
:1069DC0005260000346A00004B6600000000000031
:1069EC00DF6500004C6A0000FD650000646A000071
:1069FC00E524000000000000AD2E000000000000A7
:106A0C004F66000000000000DD2700007C6A0000DB
:106A1C00077A0000EC6D0000D46D0000F0450120F9
:106A2C002C530120EC6C0000277A0000346E00001F
:106A3C00106E0000F445012088530120E66C000024
:106A4C00C57A0000CC6E0000A86E0000FC45012049
:106A5C0010450120E06C0000CC7A0000BC6E0000F8
:106A6C00A86E000000460120FC440120DA6C0000F6
:106A7C00A170000000000000446E0000F8450120E9
:086A8C0000000000D46C0000C2
:106A9400000000004962000000000000496200009C
:106AA400000000004962000000000000496200008C
:106AB400000000004962000059360000E167000050
:106AC400000000004962000000000000496200006C
:106AD400646A00006D6500004C6A00006D6500008A
:106AE400000000004962000000000000496200004C
:106AF4000000000049620000E93B0000E16700007B
:106B0400000000004962000000000000496200002B
:106B1400000000004962000000000000496200001B
:106B2400000000004962000000000000496200000B
:106B34000000000049620000000000002D2F00004A
:106B440000000000496200000000000049620000EB
:106B540000000000496200000000000049620000DB
:106B640000000000496200000000000049620000CB
:106B740000000000496200000000000049620000BB
:106B840000000000496200000000000049620000AB
:106B9400000000004962000000000000496200009B
:106BA400000000004962000000000000496200008B
:106BB400000000004962000000000000496200007B
:106BC400000000004962000000000000496200006B
:106BD400000000004962000000000000496200005B
:106BE400000000004962000000000000496200004B
:106BF400000000004962000000000000496200003B
:106C0400000000004962000000000000496200002A
:106C1400000000004962000000000000496200001A
:106C2400000000004962000000000000496200000A
:106C340000000000496200000000000049620000FA
:106C440000000000496200000000000049620000EA
:106C540000000000496200000000000049620000DA
:106C640000000000496200000000000049620000CA
:106C740000000000496200000000000049620000BA
:106C840000000000496200000000000049620000AA
:086C940000000000496200004D
:106C9C00197A000003000000F97A000003000000DC
:106CAC00977A0000030000009871000003000000B8
:106CBC007D7C0000030000005B75000003000000F9
:086CCC00D37A00000300000070
:106CD40000800080FF7F00800080FF7F00800080B4
:0E6CE400FF7F00800080FF7F00800080FF7F28
:0E6CF200FFFFFFFFFFFFFFFFFFFFFFFFFFFFA2
:106D0000020000000000000041460000794600003B
:106D10000338FDD87047000001000000C774000070
:106D2000246D00005B000000000000000000000077
:106D300000C00000A17000000100000000C00000C1
:106D400000400000A17000000200000000000100EF
:106D500000020000A170000003000000000001001C
:106D600000800700A1700000040000000000010086
:106D700000C20000A1700000050000000002010038
:106D8000007E0700A1700000060000000002010064
:106D900000C00000A17000000700000000C2010058
:106DA00000BE0600A17000000800000000C2010043
:106DB00000BE0600A170000009000000008008006D
:106DC00000800700A17000000A0000000000000021
:106DD00037620000D363000061630000C5630000F8
:106DE00000000000D56200000000000069230000E0
:106DF000CD2300000D7A0000ED630000F363000076
:106E0000137A0000752200004522000000000000F7
:106E100071260000F963000005640000176400009B
:106E2000216400002B6400003D250000396400004F
:106E300000000000FFFFFFFF00258450000000005D
:106E400000000000D128000061280000F5270000A4
:106E5000D5270000C527000004000000FF00000047
:106E600000900050986E000001000000008000506B
:106E7000A06E000001000000010000000E000200F2
:106E8000C0000100CF0003001D0000001B00020035
:106E9000DC000100DA000300786E0000040000004E
:106EA000886E000004000000256500001129000024
:106EB00017650000C9290000076500000080005028
:106EC00002000000000000006C6E00000090005006
:106ED0000200000000000000606E0000CC690000AD
:106EE000046A00000C6A00001C6A00001C6A0000B2
:106EF000337C0000417C0000557C0000647C000075
:106F0000707C0000FF8FFFFFFF8FFFFFFE8FFFFFF2
:106F1000FE8FFFFFFD8FFFFFFC8FFFFFFC8FFFFF4A
:106F2000436F756C64206E6F74206C6F636B2070A0
:106F30006F7765722073617665206D757465780072
:106F40006D757465785F667265652063616C6C65EC
:106F5000642077697468204E554C4C2070617261D2
:106F60006D6574657200000043616E277420696E60
:106F7000697469616C697A65206D757465782C2017
:106F8000776173204E554C4C0D0A0000FFFFFFFF48
:106F9000FFFFFFFFFFFFFFFF0000000000000000F9
:106FA0000000000001000000FFFFFFFFFCFFFFFFEB
:106FB000FFFFFFFFFFFFFFFF0000000000000000D9
:106FC0000000000001000000FFFFFFFF512563FCEF
:106FD000C2CAB9F3849E17A7ADFAE6BCFFFFFFFF54
:106FE000FFFFFFFF00000000FFFFFFFF00000000A9
:106FF00096C298D84539A1F4A033EB2D817D037753
:10700000F240A463E5E6BCF847422CE1F2D1176BED
:10701000F551BF376840B6CBCE5E316B5733CE2BC0
:10702000169E0F7C4AEBE78E9B7F1AFEE242E34FEF
:10703000FFFFFFFF7F000000800000000000000055
:1070400000000000FFFFFFFF7F0000008000000045
:10705000000000000000000067E6096A85AE67BB1B
:1070600072F36E3C3AF54FA57F520E518C68059B2A
:10707000ABD9831F19CDE05B77C295F360D2EF7F68
:107080003552500F2CB6798025633A2053746172C3
:1070900074696E6720626F6F746C6F616465720AE9
:1070A000004E52465F464C4153485F4452565F4E35
:1070B000414D450025633A20466C61736820646544
:1070C00076696365202573206E6F7420666F756E18
:1070D000640A0025633A20556E61626C6520746F06
:1070E0002066696E6420626F6F7461626C652069EE
:1070F0006D6167650A0025633A20426F6F746C6F9B
:107100006164657220636861696E6C6F616420619F
:10711000646472657373206F66667365743A2030B9
:107120007825780A0025633A204A756D70696E6784
:1071300020746F2074686520666972737420696DAD
:1071400061676520736C6F740A0025633A20507282
:107150006F74656374206D6375626F6F7420666C05
:10716000617368206661696C65642C2063616E637D
:10717000656C20737461727475702E0A0025633A11
:10718000204E657665722073686F756C6420676544
:107190007420686572650A006D6375626F6F7400B4
:1071A00025633A20696E76616C696420666C617350
:1071B000682049442025643B2065787065637465C8
:1071C000642025640A002A8648CE3D0201002A86F2
:1071D00048CE3D030107007365636F6E6461727989
:1071E000007072696D6172790025633A20496D61A2
:1071F000676520696E2074686520257320736C6F45
:1072000074206973206E6F742076616C6964210A42
:107210000025633A202564207374617475732077A8
:1072200072697465206661696C7320706572666F3F
:10723000726D696E672074686520737761700A00EB
:1072400025633A204661696C6564207265616469F2
:107250006E6720736563746F72733B20424F4F54A7
:107260005F4D41585F494D475F534543544F52531B
:107270003D2564202D20746F6F20736D616C6C3F11
:107280000A0025633A204661696C65642072656175
:1072900064696E6720696D61676520686561646512
:1072A00072733B20496D6167653D25750A00256352
:1072B0003A204661696C65642072656164696E6735
:1072C00020626F6F74207374617475733B20496D15
:1072D0006167653D25750A0025633A2070616E6916
:1072E00063210A0025633A2044657465637465640C
:1072F00020696E636F6E73697374656E7420737446
:1073000061747573210A0025633A2043616E6E6FC4
:107310007420757067726164653A206E6F742061C5
:1073200020636F6D70617469626C6520616D6F754B
:107330006E74206F6620736563746F72730A002524
:10734000633A2043616E6E6F74207570677261647A
:10735000653A206D6F726520736563746F72732078
:107360007468616E20616C6C6F7765640A002563D8
:107370003A2043616E6E6F74207570677261646548
:107380003A206E6F742073616D6520736563746F4E
:1073900072206C61796F75740A00676F6F64007595
:1073A0006E73657400626164005072696D61727918
:1073B00020696D6167650025633A2025733A206D69
:1073C000616769633D25732C20737761705F747901
:1073D00070653D307825782C20636F70795F646F1D
:1073E0006E653D307825782C20696D6167655F6F2B
:1073F0006B3D307825780A005365636F6E64617267
:107400007920696D6167650025633A20426F6F746A
:1074100020736F757263653A207072696D6172795D
:1074200020736C6F740A0025633A20426F6F7420DA
:10743000736F757263653A206E6F6E650A0025631F
:107440003A205374617274696E672073776170209B
:107450007573696E67206D6F766520616C676F72FA
:107460006974686D2E0A0025633A204E6F7420659A
:107470006E6F7567682066726565207370616365FD
:1074800020746F2072756E2073776170207570673D
:10749000726164650A0025633A20726571756972CC
:1074A0006564202564206279746573206275742098
:1074B0006F6E6C7920256420617265206176616948
:1074C0006C61626C650A003059301306072A8648E1
:1074D000CE3D020106082A8648CE3D03010703423D
:1074E00000042ACB403CE8FEED5BA44995A1A91D10
:1074F000AEE8DBBE1937CD14FB2F245737E595399D
:1075000088D994B9D65AEBD7CDD5308AD6FE48B2B1
:107510004A6A810EE5F07D8B6834CC3A6AFC538E62
:10752000FAC12D002B00305800307800286E696CAD
:1075300029004661696C656420746F207265626F12
:107540006F743A207370696E6E696E6720656E6441
:107550006C6573736C792E2E2E0A00736F63002591
:10756000633A2072302F61313A202030782530384C
:1075700078202072312F61323A202030782530383F
:1075800078202072322F61333A202030782530382D
:10759000780A0025633A2072332F61343A20203074
:1075A0007825303878207231322F69703A202030B7
:1075B0007825303878207231342F6C723A202030A0
:1075C00078253038780A0025633A20207870737265
:1075D0003A20203078253038780A0025633A204652
:1075E00061756C74696E6720696E7374727563740B
:1075F000696F6E206164647265737320287231351F
:107600002F7063293A203078253038780A002563B6
:107610003A202A2A2A2A2A20555341474520464102
:10762000554C54202A2A2A2A2A0A0025633A202067
:10763000204469766973696F6E206279207A657279
:107640006F0A0025633A202020556E616C69676ED1
:107650006564206D656D6F72792061636365737316
:107660000A0025633A202020537461636B206F76F3
:107670006572666C6F772028636F6E74657874200E
:1076800061726561206E6F742076616C6964290A8D
:107690000025633A2020204E6F20636F70726F6365
:1076A0006573736F7220696E737472756374696F3A
:1076B0006E730A0025633A202020496C6C6567616F
:1076C0006C206C6F6164206F66204558435F5245A3
:1076D0005455524E20696E746F2050430A00256342
:1076E0003A202020496C6C6567616C2075736520B9
:1076F0006F662074686520455053520A0025633A2E
:10770000202020417474656D707420746F2065783A
:10771000656375746520756E646566696E65642061
:10772000696E737472756374696F6E0A0025633ACB
:10773000202A2A2A2A2A20425553204641554C54B1
:10774000202A2A2A2A2A0A0025633A202020537454
:1077500061636B696E67206572726F720A002563E0
:107760003A202020556E737461636B696E672065E3
:1077700072726F720A0025633A202020507265638E
:10778000697365206461746120627573206572722B
:107790006F720A0025633A20202042464152204160
:1077A0006464726573733A20307825780A00256323
:1077B0003A202020496D70726563697365206461A9
:1077C000746120627573206572726F720A0025639E
:1077D0003A202020496E737472756374696F6E204D
:1077E000627573206572726F720A0025633A2020F9
:1077F00020466C6F6174696E672D706F696E7420BE
:107800006C617A7920737461746520707265736538
:1078100072766174696F6E206572726F720A0025EC
:10782000633A202A2A2A2A2A204D505520464155BB
:107830004C54202A2A2A2A2A0A0025633A2020208A
:10784000537461636B696E67206572726F72202872
:10785000636F6E746578742061726561206D69670D
:107860006874206265206E6F742076616C6964298B
:107870000A0025633A20202044617461204163633B
:107880006573732056696F6C6174696F6E0A0025A9
:10789000633A2020204D4D46415220416464726578
:1078A00073733A20307825780A0025633A20202027
:1078B000496E737472756374696F6E20416363659A
:1078C00073732056696F6C6174696F6E0A0052653C
:1078D00073657276656420457863657074696F6E50
:1078E00020280053707572696F757320696E746516
:1078F00072727570742028495251200025633A2015
:10790000535053454C20696E207468726561642041
:107910006D6F646520646F6573206E6F7420696E8F
:10792000646963617465205053500A0025633A20EE
:107930002A2A2A2A2A2048415244204641554C549A
:10794000202A2A2A2A2A0A0025633A202020427562
:1079500073206661756C74206F6E20766563746F3A
:1079600072207461626C6520726561640A0025632F
:107970003A2020204465627567206576656E740A3A
:107980000025633A2020204661756C74206573637E
:10799000616C6174696F6E20287365652062656C27
:1079A0006F77290A0025633A20415243485F4558C2
:1079B00043455054207769746820726561736F6E17
:1079C0002025780A0A0025633A202A2A2A2A2A2012
:1079D0004465627567206D6F6E69746F722065789B
:1079E00063657074696F6E202A2A2A2A2A0A002584
:1079F000633A202A2A2A2A2A20257320256429204E
:107A00002A2A2A2A2A0A00434C4F434B00686663FD
:107A10006C6B006C66636C6B00636C6F636B5F63B5
:107A20006F6E74726F6C004750494F5F3000256372
:107A30003A20756E616C69676E656420616464727A
:107A40006573733A2030782530386C783A257A752A
:107A50000A0025633A20696E76616C69642061646E
:107A600064726573733A2030782530386C783A2523
:107A70007A750A0025633A206E6F7420776F7264FE
:107A80002D616C69676E65643A2030782530386CFA
:107A9000783A257A750A00666C6173685F6E726663
:107AA0000025633A204661696C656420746F20612B
:107AB0006C6C6F6361746520505049204368616E3F
:107AC0006E656C0A00554152545F31005541525465
:107AD0005F3000756172745F6E7266785F75617297
:107AE00074650025633A20526573657474696E6726
:107AF0002073797374656D0A00666174616C5F65EB
:107B000072726F7200726576657274007465737458
:107B1000007065726D004255473B2063616E2774AB
:107B20002068617070656E0025633A205365636F4D
:107B30006E6461727920696D616765206F66206986
:107B40006D6167652070616972202825642E292087
:107B5000697320756E726561636861626C652E2061
:107B6000547265617420697420617320656D70744E
:107B7000790A0025633A2053776170207479706523
:107B80003A2025730A0025633A20537761702074E8
:107B90007970653A206E6F6E650A00040104030473
:107BA00002040104010403010303040104556E6B84
:107BB0006E6F776E206572726F720025633A203E99
:107BC0003E3E205A455048595220464154414C208F
:107BD0004552524F522025643A202573206F6E2063
:107BE0004350552025640A0025633A204661756C90
:107BF0007420647572696E6720696E74657272753F
:107C000070742068616E646C696E670A0A00756E34
:107C10006B6E6F776E0025633A2043757272656EE6
:107C200074207468726561643A2025702028257379
:107C3000290A0043505520657863657074696F6E3A
:107C400000556E68616E646C656420696E7465725F
:107C50007275707400537461636B206F7665726621
:107C60006C6F77004B65726E656C206F6F70730080
:107C70004B65726E656C2070616E6963006F730096
:107C800076332E302E39392D6E6373312D31002A23
:107C90002A2A20426F6F74696E67205A657068796E
:107CA00072204F53206275696C6420257320257300
:087CB000202A2A2A0A00000024
:107CB800FFFFFFFFFFFFFFFFA55F0000286D00002B
:107CC800CF6200000000000000C2010000010300B4
:107CD80000000000000000000000000000C20100D9
:107CE8000001030000000000000000000090D00325
:107CF800FFFF00000000000000000000000000007E
:107D0800000000000000000000000000000000006B
:107D1800000000000000000000000000000000005B
:107D2800000000000000000000000000000000004B
:107D3800000000000000000000000000000000003B
:107D480000000000FF00000000000000000000002C
:107D580088450120884501200000000041410000BD
:107D6800C8450120D4450120CC450120C445012047
:107D7800A0450120BC53012011000000514400001F
:107D8800B9430000E143000021440000E845012018
:107D9800AC450120E045012000000000D845012045
:107DA800C053012011000000C4530120110000003D
:087DB800C85301201100000076
:107DC00000000000000000000000000000000000B3
:047DD00000000000AF
:04000003000021498F
:00000001FF
