Archive member included to satisfy reference by file (symbol)

platform/libplatform_s.a(hw_init.o)
                              secure_fw/CMakeFiles/tfm_s.dir/__/platform/ext/target/nordic_nrf/common/nrf9160/gcc/startup_nrf9160_s.o (hw_init_reset_on_boot)
platform/libplatform_s.a(system_nrf9160.o)
                              secure_fw/CMakeFiles/tfm_s.dir/__/platform/ext/target/nordic_nrf/common/nrf9160/gcc/startup_nrf9160_s.o (SystemInit)
secure_fw/partitions/lib/sprt/libtfm_sprt.a(crt_memset.o)
                              d:/ncs/toolchains/v2.0.2/opt/zephyr-sdk/arm-zephyr-eabi/bin/../lib/gcc/arm-zephyr-eabi/10.3.0/../../../../arm-zephyr-eabi/lib/thumb/v8-m.main/nofp/crt0.o (memset)
secure_fw/spm/libtfm_spm.a(main.o)
                              d:/ncs/toolchains/v2.0.2/opt/zephyr-sdk/arm-zephyr-eabi/bin/../lib/gcc/arm-zephyr-eabi/10.3.0/../../../../arm-zephyr-eabi/lib/thumb/v8-m.main/nofp/crt0.o (main)
secure_fw/spm/libtfm_spm.a(spm_thread_call.o)
                              secure_fw/CMakeFiles/tfm_s.dir/partitions/ns_agent/tfm_psa_api_veneers.o (spm_interface_thread_dispatcher)
secure_fw/spm/libtfm_spm.a(psa_api.o)
                              secure_fw/CMakeFiles/tfm_s.dir/spm/cmsis_psa/psa_interface_thread.o (tfm_spm_get_lifecycle_state)
secure_fw/spm/libtfm_spm.a(backend.o)
                              secure_fw/spm/libtfm_spm.a(psa_api.o) (backend_instance)
secure_fw/spm/libtfm_spm.a(tfm_core_svcalls_ipc.o)
                              secure_fw/spm/libtfm_spm.a(main.o) (tfm_core_handler_mode)
secure_fw/spm/libtfm_spm.a(tfm_nspm_ipc.o)
                              secure_fw/spm/libtfm_spm.a(main.o) (configure_ns_code)
secure_fw/spm/libtfm_spm.a(thread.o)
                              secure_fw/spm/libtfm_spm.a(spm_thread_call.o) (thrd_next)
secure_fw/spm/libtfm_spm.a(tfm_arch_v8m_main.o)
                              secure_fw/spm/libtfm_spm.a(spm_thread_call.o) (arch_non_preempt_call)
secure_fw/spm/libtfm_spm.a(ns_agent.o)
                              secure_fw/CMakeFiles/tfm_s.dir/partitions/ns_agent/load_info_ns_agent.o (tfm_nspm_thread_entry)
secure_fw/spm/libtfm_spm.a(idle_partition.o)
                              secure_fw/CMakeFiles/tfm_s.dir/partitions/idle_partition/load_info_idle_sp.o (tfm_idle_thread)
secure_fw/spm/libtfm_spm.a(tfm_boot_data.o)
                              secure_fw/spm/libtfm_spm.a(main.o) (tfm_core_validate_boot_data)
secure_fw/spm/libtfm_spm.a(tfm_core_utils.o)
                              secure_fw/spm/libtfm_spm.a(psa_api.o) (spm_memcpy)
secure_fw/spm/libtfm_spm.a(utilities.o)
                              secure_fw/spm/libtfm_spm.a(main.o) (tfm_core_panic)
secure_fw/spm/libtfm_spm.a(tfm_arch.o)
                              secure_fw/spm/libtfm_spm.a(tfm_core_svcalls_ipc.o) (tfm_arch_free_msp_and_exc_ret)
secure_fw/spm/libtfm_spm.a(spm_ipc.o)
                              secure_fw/spm/libtfm_spm.a(psa_api.o) (tfm_spm_to_user_handle)
secure_fw/spm/libtfm_spm.a(static_load.o)
                              secure_fw/spm/libtfm_spm.a(spm_ipc.o) (load_a_partition_assuredly)
secure_fw/spm/libtfm_spm.a(tfm_pools.o)
                              secure_fw/spm/libtfm_spm.a(spm_ipc.o) (tfm_pool_init)
secure_fw/spm/libtfm_spm.a(tfm_spm_ns_ctx.o)
                              secure_fw/spm/libtfm_spm.a(spm_ipc.o) (tfm_nspm_get_current_client_id)
secure_fw/partitions/crypto/libtfm_psa_rot_partition_crypto.a(crypto_init.o)
                              secure_fw/CMakeFiles/tfm_s.dir/__/generated/secure_fw/partitions/crypto/auto_generated/load_info_tfm_crypto.o (tfm_crypto_init)
secure_fw/partitions/crypto/libtfm_psa_rot_partition_crypto.a(crypto_alloc.o)
                              secure_fw/partitions/crypto/libtfm_psa_rot_partition_crypto.a(crypto_init.o) (tfm_crypto_init_alloc)
secure_fw/partitions/crypto/libtfm_psa_rot_partition_crypto.a(crypto_cipher.o)
                              secure_fw/partitions/crypto/libtfm_psa_rot_partition_crypto.a(crypto_init.o) (tfm_crypto_cipher_generate_iv)
secure_fw/partitions/crypto/libtfm_psa_rot_partition_crypto.a(crypto_hash.o)
                              secure_fw/partitions/crypto/libtfm_psa_rot_partition_crypto.a(crypto_init.o) (tfm_crypto_hash_setup)
secure_fw/partitions/crypto/libtfm_psa_rot_partition_crypto.a(crypto_mac.o)
                              secure_fw/partitions/crypto/libtfm_psa_rot_partition_crypto.a(crypto_init.o) (tfm_crypto_mac_sign_setup)
secure_fw/partitions/crypto/libtfm_psa_rot_partition_crypto.a(crypto_aead.o)
                              secure_fw/partitions/crypto/libtfm_psa_rot_partition_crypto.a(crypto_init.o) (tfm_crypto_aead_encrypt)
secure_fw/partitions/crypto/libtfm_psa_rot_partition_crypto.a(crypto_asymmetric.o)
                              secure_fw/partitions/crypto/libtfm_psa_rot_partition_crypto.a(crypto_init.o) (tfm_crypto_sign_message)
secure_fw/partitions/crypto/libtfm_psa_rot_partition_crypto.a(crypto_key_derivation.o)
                              secure_fw/partitions/crypto/libtfm_psa_rot_partition_crypto.a(crypto_init.o) (tfm_crypto_key_derivation_setup)
secure_fw/partitions/crypto/libtfm_psa_rot_partition_crypto.a(crypto_key_management.o)
                              secure_fw/partitions/crypto/libtfm_psa_rot_partition_crypto.a(crypto_init.o) (tfm_crypto_import_key)
secure_fw/partitions/crypto/libtfm_psa_rot_partition_crypto.a(crypto_rng.o)
                              secure_fw/partitions/crypto/libtfm_psa_rot_partition_crypto.a(crypto_init.o) (tfm_crypto_generate_random)
secure_fw/partitions/crypto/libtfm_psa_rot_partition_crypto.a(intermedia_tfm_crypto.o)
                              secure_fw/CMakeFiles/tfm_s.dir/__/generated/secure_fw/partitions/crypto/auto_generated/load_info_tfm_crypto.o (tfm_sp_crypto_stack)
secure_fw/partitions/platform/libtfm_psa_rot_partition_platform.a(platform_sp.o)
                              secure_fw/CMakeFiles/tfm_s.dir/__/generated/secure_fw/partitions/platform/auto_generated/load_info_tfm_platform.o (platform_sp_init)
secure_fw/partitions/platform/libtfm_psa_rot_partition_platform.a(intermedia_tfm_platform.o)
                              secure_fw/CMakeFiles/tfm_s.dir/__/generated/secure_fw/partitions/platform/auto_generated/load_info_tfm_platform.o (tfm_sp_platform_stack)
platform/libplatform_s.a(spm_hal.o)
                              secure_fw/spm/libtfm_spm.a(tfm_nspm_ipc.o) (tfm_spm_hal_get_ns_VTOR)
platform/libplatform_s.a(tfm_hal_isolation.o)
                              secure_fw/spm/libtfm_spm.a(spm_ipc.o) (tfm_hal_bind_boundaries)
platform/libplatform_s.a(tfm_hal_nvic.o)
                              secure_fw/spm/libtfm_spm.a(psa_api.o) (tfm_hal_irq_enable)
platform/libplatform_s.a(target_cfg.o)
                              platform/libplatform_s.a(tfm_hal_isolation.o) (sau_and_idau_cfg)
platform/libplatform_s.a(tfm_hal_platform.o)
                              secure_fw/spm/libtfm_spm.a(main.o) (tfm_hal_platform_init)
platform/libplatform_s.a(dummy_otp.o)
                              secure_fw/spm/libtfm_spm.a(main.o) (tfm_plat_otp_init)
platform/libplatform_s.a(dummy_provisioning.o)
                              secure_fw/spm/libtfm_spm.a(main.o) (tfm_plat_provisioning_is_required)
platform/libplatform_s.a(tfm_platform_system.o)
                              secure_fw/partitions/platform/libtfm_psa_rot_partition_platform.a(platform_sp.o) (tfm_platform_hal_system_reset)
platform/libplatform_s.a(tfm_platform.o)
                              secure_fw/spm/libtfm_spm.a(psa_api.o) (tfm_hal_system_reset)
platform/libplatform_s.a(mpu_armv8m_drv.o)
                              platform/libplatform_s.a(tfm_hal_isolation.o) (mpu_armv8m_enable)
platform/libplatform_s.a(spu.o)
                              platform/libplatform_s.a(target_cfg.o) (spu_enable_interrupts)
platform/libplatform_s.a(tfm_hal_platform_common.o)
                              platform/libplatform_s.a(tfm_hal_platform.o) (tfm_hal_platform_common_init)
platform/libplatform_s.a(tfm_platform_hal_ioctl.o)
                              platform/libplatform_s.a(tfm_platform_system.o) (tfm_platform_hal_read_service)
secure_fw/partitions/lib/sprt/libtfm_sprt.a(crt_memcmp.o)
                              platform/libplatform_s.a(tfm_platform_system.o) (memcmp)
secure_fw/partitions/lib/sprt/libtfm_sprt.a(crt_memcpy.o)
                              platform/libplatform_s.a(tfm_platform_system.o) (memcpy)
secure_fw/partitions/lib/sprt/libtfm_sprt.a(service_api.o)
                              secure_fw/spm/libtfm_spm.a(tfm_core_svcalls_ipc.o) (tfm_flih_func_return)
secure_fw/partitions/crypto/mbedcrypto/nrf_security_src/libcrypto_service_mbedcrypto.a(memory_buffer_alloc.o)
                              secure_fw/partitions/crypto/libtfm_psa_rot_partition_crypto.a(crypto_init.o) (mbedtls_memory_buffer_alloc_init)
secure_fw/partitions/crypto/mbedcrypto/nrf_security_src/libcrypto_service_mbedcrypto.a(psa_crypto.o)
                              secure_fw/partitions/crypto/libtfm_psa_rot_partition_crypto.a(crypto_rng.o) (mbedcrypto__psa_generate_random)
secure_fw/partitions/crypto/mbedcrypto/nrf_security_src/libcrypto_service_mbedcrypto.a(psa_crypto_client.o)
                              secure_fw/partitions/crypto/mbedcrypto/nrf_security_src/libcrypto_service_mbedcrypto.a(psa_crypto.o) (mbedcrypto__psa_reset_key_attributes)
secure_fw/partitions/crypto/mbedcrypto/nrf_security_src/libcrypto_service_mbedcrypto.a(psa_crypto_slot_management.o)
                              secure_fw/partitions/crypto/mbedcrypto/nrf_security_src/libcrypto_service_mbedcrypto.a(psa_crypto.o) (psa_is_valid_key_id)
secure_fw/partitions/crypto/mbedcrypto/nrf_security_src/libcrypto_service_mbedcrypto.a(psa_crypto_driver_wrappers.o)
                              secure_fw/partitions/crypto/mbedcrypto/nrf_security_src/libcrypto_service_mbedcrypto.a(psa_crypto.o) (psa_driver_wrapper_sign_message)
secure_fw/partitions/crypto/mbedcrypto/nrf_security_src/libcrypto_service_mbedcrypto.a(random_ext.o)
                              secure_fw/partitions/crypto/mbedcrypto/nrf_security_src/libcrypto_service_mbedcrypto.a(psa_crypto.o) (mbedtls_psa_external_get_random)
secure_fw/partitions/crypto/mbedcrypto/nrf_security_src/libcrypto_service_mbedcrypto.a(psa_crypto_aead.o)
                              secure_fw/partitions/crypto/mbedcrypto/nrf_security_src/libcrypto_service_mbedcrypto.a(psa_crypto_driver_wrappers.o) (mbedtls_psa_aead_encrypt)
secure_fw/partitions/crypto/mbedcrypto/nrf_security_src/libcrypto_service_mbedcrypto.a(psa_crypto_cipher.o)
                              secure_fw/partitions/crypto/mbedcrypto/nrf_security_src/libcrypto_service_mbedcrypto.a(psa_crypto_aead.o) (mbedtls_cipher_info_from_psa)
secure_fw/partitions/crypto/mbedcrypto/nrf_security_src/libcrypto_service_mbedcrypto.a(cipher.o)
                              secure_fw/partitions/crypto/mbedcrypto/nrf_security_src/libcrypto_service_mbedcrypto.a(psa_crypto_cipher.o) (mbedtls_cipher_info_from_values)
secure_fw/partitions/crypto/mbedcrypto/nrf_security_src/libcrypto_service_mbedcrypto.a(cipher_wrap.o)
                              secure_fw/partitions/crypto/mbedcrypto/nrf_security_src/libcrypto_service_mbedcrypto.a(cipher.o) (mbedtls_cipher_supported)
D:/ncs/v2.0.2/nrfxlib/crypto/nrf_cc310_platform/lib/cortex-m33/soft-float/no-interrupts/libnrf_cc310_platform_0.9.14.a(nrf_cc3xx_platform.c.obj)
                              platform/libplatform_s.a(tfm_hal_platform.o) (nrf_cc3xx_platform_init_hmac_drbg)
D:/ncs/v2.0.2/nrfxlib/crypto/nrf_cc310_platform/lib/cortex-m33/soft-float/no-interrupts/libnrf_cc310_platform_0.9.14.a(nrf_cc3xx_platform_hmac_drbg.c.obj)
                              secure_fw/partitions/crypto/mbedcrypto/nrf_security_src/libcrypto_service_mbedcrypto.a(random_ext.o) (nrf_cc3xx_platform_hmac_drbg_get)
D:/ncs/v2.0.2/nrfxlib/crypto/nrf_cc310_platform/lib/cortex-m33/soft-float/no-interrupts/libnrf_cc310_platform_0.9.14.a(mbedtls_common.c.obj)
                              secure_fw/partitions/crypto/mbedcrypto/nrf_security_src/libcrypto_service_mbedcrypto.a(memory_buffer_alloc.o) (mbedtls_platform_zeroize)
D:/ncs/v2.0.2/nrfxlib/crypto/nrf_cc310_platform/lib/cortex-m33/soft-float/no-interrupts/libnrf_cc310_platform_0.9.14.a(hmac_drbg_alt.c.obj)
                              D:/ncs/v2.0.2/nrfxlib/crypto/nrf_cc310_platform/lib/cortex-m33/soft-float/no-interrupts/libnrf_cc310_platform_0.9.14.a(nrf_cc3xx_platform_hmac_drbg.c.obj) (cc_mbedtls_hmac_drbg_init)
D:/ncs/v2.0.2/nrfxlib/crypto/nrf_cc310_platform/lib/cortex-m33/soft-float/no-interrupts/libnrf_cc310_platform_0.9.14.a(entropy.c.obj)
                              D:/ncs/v2.0.2/nrfxlib/crypto/nrf_cc310_platform/lib/cortex-m33/soft-float/no-interrupts/libnrf_cc310_platform_0.9.14.a(nrf_cc3xx_platform_hmac_drbg.c.obj) (cc_mbedtls_entropy_init)
D:/ncs/v2.0.2/nrfxlib/crypto/nrf_cc310_platform/lib/cortex-m33/soft-float/no-interrupts/libnrf_cc310_platform_0.9.14.a(cc_lib.c.obj)
                              D:/ncs/v2.0.2/nrfxlib/crypto/nrf_cc310_platform/lib/cortex-m33/soft-float/no-interrupts/libnrf_cc310_platform_0.9.14.a(nrf_cc3xx_platform.c.obj) (CC_LibInitNoRng)
D:/ncs/v2.0.2/nrfxlib/crypto/nrf_cc310_platform/lib/cortex-m33/soft-float/no-interrupts/libnrf_cc310_platform_0.9.14.a(cc_hal.c.obj)
                              D:/ncs/v2.0.2/nrfxlib/crypto/nrf_cc310_platform/lib/cortex-m33/soft-float/no-interrupts/libnrf_cc310_platform_0.9.14.a(cc_lib.c.obj) (CC_HalInit)
D:/ncs/v2.0.2/nrfxlib/crypto/nrf_cc310_platform/lib/cortex-m33/soft-float/no-interrupts/libnrf_cc310_platform_0.9.14.a(cc_pal.c.obj)
                              D:/ncs/v2.0.2/nrfxlib/crypto/nrf_cc310_platform/lib/cortex-m33/soft-float/no-interrupts/libnrf_cc310_platform_0.9.14.a(cc_lib.c.obj) (CC_PalInit)
D:/ncs/v2.0.2/nrfxlib/crypto/nrf_cc310_platform/lib/cortex-m33/soft-float/no-interrupts/libnrf_cc310_platform_0.9.14.a(cc_pal_dma.c.obj)
                              D:/ncs/v2.0.2/nrfxlib/crypto/nrf_cc310_platform/lib/cortex-m33/soft-float/no-interrupts/libnrf_cc310_platform_0.9.14.a(cc_pal.c.obj) (CC_PalDmaInit)
D:/ncs/v2.0.2/nrfxlib/crypto/nrf_cc310_platform/lib/cortex-m33/soft-float/no-interrupts/libnrf_cc310_platform_0.9.14.a(cc_pal_interrupt_ctrl.c.obj)
                              D:/ncs/v2.0.2/nrfxlib/crypto/nrf_cc310_platform/lib/cortex-m33/soft-float/no-interrupts/libnrf_cc310_platform_0.9.14.a(cc_hal.c.obj) (CC_PalWaitInterruptRND)
D:/ncs/v2.0.2/nrfxlib/crypto/nrf_cc310_platform/lib/cortex-m33/soft-float/no-interrupts/libnrf_cc310_platform_0.9.14.a(cc_pal_mem.c.obj)
                              D:/ncs/v2.0.2/nrfxlib/crypto/nrf_cc310_platform/lib/cortex-m33/soft-float/no-interrupts/libnrf_cc310_platform_0.9.14.a(nrf_cc3xx_platform.c.obj) (CC_PalMemCopyPlat)
D:/ncs/v2.0.2/nrfxlib/crypto/nrf_cc310_platform/lib/cortex-m33/soft-float/no-interrupts/libnrf_cc310_platform_0.9.14.a(cc_pal_mutex.c.obj)
                              D:/ncs/v2.0.2/nrfxlib/crypto/nrf_cc310_platform/lib/cortex-m33/soft-float/no-interrupts/libnrf_cc310_platform_0.9.14.a(cc_pal.c.obj) (CC_PalMutexCreate)
D:/ncs/v2.0.2/nrfxlib/crypto/nrf_cc310_platform/lib/cortex-m33/soft-float/no-interrupts/libnrf_cc310_platform_0.9.14.a(cc_pal_pm.c.obj)
                              D:/ncs/v2.0.2/nrfxlib/crypto/nrf_cc310_platform/lib/cortex-m33/soft-float/no-interrupts/libnrf_cc310_platform_0.9.14.a(cc_pal.c.obj) (CC_PalPowerSaveModeInit)
D:/ncs/v2.0.2/nrfxlib/crypto/nrf_cc310_platform/lib/cortex-m33/soft-float/no-interrupts/libnrf_cc310_platform_0.9.14.a(threading_alt.c.obj)
                              D:/ncs/v2.0.2/nrfxlib/crypto/nrf_cc310_platform/lib/cortex-m33/soft-float/no-interrupts/libnrf_cc310_platform_0.9.14.a(hmac_drbg_alt.c.obj) (mbedtls_mutex_unlock)
D:/ncs/v2.0.2/nrfxlib/crypto/nrf_cc310_platform/lib/cortex-m33/soft-float/no-interrupts/libnrf_cc310_platform_0.9.14.a(nrf_cc3xx_platform_abort.c.obj)
                              D:/ncs/v2.0.2/nrfxlib/crypto/nrf_cc310_platform/lib/cortex-m33/soft-float/no-interrupts/libnrf_cc310_platform_0.9.14.a(cc_lib.c.obj) (CC_PalAbort)
D:/ncs/v2.0.2/nrfxlib/crypto/nrf_cc310_platform/lib/cortex-m33/soft-float/no-interrupts/libnrf_cc310_platform_0.9.14.a(nrf_cc3xx_platform_ctr_drbg.c.obj)
                              D:/ncs/v2.0.2/nrfxlib/crypto/nrf_cc310_platform/lib/cortex-m33/soft-float/no-interrupts/libnrf_cc310_platform_0.9.14.a(cc_lib.c.obj) (nrf_cc3xx_platform_ctr_drbg_init)
D:/ncs/v2.0.2/nrfxlib/crypto/nrf_cc310_platform/lib/cortex-m33/soft-float/no-interrupts/libnrf_cc310_platform_0.9.14.a(nrf_cc3xx_platform_mutex.c.obj)
                              D:/ncs/v2.0.2/nrfxlib/crypto/nrf_cc310_platform/lib/cortex-m33/soft-float/no-interrupts/libnrf_cc310_platform_0.9.14.a(cc_pal.c.obj) (platform_mutexes)
D:/ncs/v2.0.2/nrfxlib/crypto/nrf_cc310_platform/lib/cortex-m33/soft-float/no-interrupts/libnrf_cc310_platform_0.9.14.a(llf_rnd_trng90b.c.obj)
                              D:/ncs/v2.0.2/nrfxlib/crypto/nrf_cc310_platform/lib/cortex-m33/soft-float/no-interrupts/libnrf_cc310_platform_0.9.14.a(cc_lib.c.obj) (LLF_RND_RunTrngStartupTest)
D:/ncs/v2.0.2/nrfxlib/crypto/nrf_cc310_platform/lib/cortex-m33/soft-float/no-interrupts/libnrf_cc310_platform_0.9.14.a(trng_api.c.obj)
                              D:/ncs/v2.0.2/nrfxlib/crypto/nrf_cc310_platform/lib/cortex-m33/soft-float/no-interrupts/libnrf_cc310_platform_0.9.14.a(entropy.c.obj) (mbedtls_hardware_poll)
D:/ncs/v2.0.2/nrfxlib/crypto/nrf_cc310_platform/lib/cortex-m33/soft-float/no-interrupts/libnrf_cc310_platform_0.9.14.a(sha256_alt.c.obj)
                              D:/ncs/v2.0.2/nrfxlib/crypto/nrf_cc310_platform/lib/cortex-m33/soft-float/no-interrupts/libnrf_cc310_platform_0.9.14.a(hmac_drbg_alt.c.obj) (cc_mbedtls_sha256_init)
D:/ncs/v2.0.2/nrfxlib/crypto/nrf_cc310_platform/lib/cortex-m33/soft-float/no-interrupts/libnrf_cc310_platform_0.9.14.a(mbedtls_hash_common.c.obj)
                              D:/ncs/v2.0.2/nrfxlib/crypto/nrf_cc310_platform/lib/cortex-m33/soft-float/no-interrupts/libnrf_cc310_platform_0.9.14.a(sha256_alt.c.obj) (mbedtls_sha_process_internal)
D:/ncs/v2.0.2/nrfxlib/crypto/nrf_cc310_platform/lib/cortex-m33/soft-float/no-interrupts/libnrf_cc310_platform_0.9.14.a(ctr_drbg.c.obj)
                              D:/ncs/v2.0.2/nrfxlib/crypto/nrf_cc310_platform/lib/cortex-m33/soft-float/no-interrupts/libnrf_cc310_platform_0.9.14.a(nrf_cc3xx_platform_ctr_drbg.c.obj) (cc_mbedtls_ctr_drbg_init)
D:/ncs/v2.0.2/nrfxlib/crypto/nrf_cc310_platform/lib/cortex-m33/soft-float/no-interrupts/libnrf_cc310_platform_0.9.14.a(sha256.c.obj)
                              D:/ncs/v2.0.2/nrfxlib/crypto/nrf_cc310_platform/lib/cortex-m33/soft-float/no-interrupts/libnrf_cc310_platform_0.9.14.a(entropy.c.obj) (cc_mbedtls_sha256)
D:/ncs/v2.0.2/nrfxlib/crypto/nrf_cc310_platform/lib/cortex-m33/soft-float/no-interrupts/libnrf_cc310_platform_0.9.14.a(cc_rng_plat.c.obj)
                              D:/ncs/v2.0.2/nrfxlib/crypto/nrf_cc310_platform/lib/cortex-m33/soft-float/no-interrupts/libnrf_cc310_platform_0.9.14.a(cc_lib.c.obj) (RNG_PLAT_SetUserRngParameters)
D:/ncs/v2.0.2/nrfxlib/crypto/nrf_cc310_platform/lib/cortex-m33/soft-float/no-interrupts/libnrf_cc310_platform_0.9.14.a(cc_pal_trng.c.obj)
                              D:/ncs/v2.0.2/nrfxlib/crypto/nrf_cc310_platform/lib/cortex-m33/soft-float/no-interrupts/libnrf_cc310_platform_0.9.14.a(cc_rng_plat.c.obj) (CC_PalTrngParamGet)
D:/ncs/v2.0.2/nrfxlib/crypto/nrf_cc310_platform/lib/cortex-m33/soft-float/no-interrupts/libnrf_cc310_platform_0.9.14.a(llf_rnd.c.obj)
                              D:/ncs/v2.0.2/nrfxlib/crypto/nrf_cc310_platform/lib/cortex-m33/soft-float/no-interrupts/libnrf_cc310_platform_0.9.14.a(llf_rnd_trng90b.c.obj) (LLF_RND_WaitRngInterrupt)
D:/ncs/v2.0.2/nrfxlib/crypto/nrf_cc310_platform/lib/cortex-m33/soft-float/no-interrupts/libnrf_cc310_platform_0.9.14.a(driver_common.c.obj)
                              D:/ncs/v2.0.2/nrfxlib/crypto/nrf_cc310_platform/lib/cortex-m33/soft-float/no-interrupts/libnrf_cc310_platform_0.9.14.a(mbedtls_hash_common.c.obj) (SetDataBuffersInfo)
D:/ncs/v2.0.2/nrfxlib/crypto/nrf_cc310_platform/lib/cortex-m33/soft-float/no-interrupts/libnrf_cc310_platform_0.9.14.a(hash_driver.c.obj)
                              D:/ncs/v2.0.2/nrfxlib/crypto/nrf_cc310_platform/lib/cortex-m33/soft-float/no-interrupts/libnrf_cc310_platform_0.9.14.a(mbedtls_hash_common.c.obj) (InitHashDrv)
D:/ncs/v2.0.2/nrfxlib/crypto/nrf_cc310_platform/lib/cortex-m33/soft-float/no-interrupts/libnrf_cc310_platform_0.9.14.a(aes_alt.c.obj)
                              D:/ncs/v2.0.2/nrfxlib/crypto/nrf_cc310_platform/lib/cortex-m33/soft-float/no-interrupts/libnrf_cc310_platform_0.9.14.a(ctr_drbg.c.obj) (cc_mbedtls_aes_init)
D:/ncs/v2.0.2/nrfxlib/crypto/nrf_cc310_platform/lib/cortex-m33/soft-float/no-interrupts/libnrf_cc310_platform_0.9.14.a(cc_pal_buff_attr.c.obj)
                              D:/ncs/v2.0.2/nrfxlib/crypto/nrf_cc310_platform/lib/cortex-m33/soft-float/no-interrupts/libnrf_cc310_platform_0.9.14.a(driver_common.c.obj) (CC_PalDataBufferAttrGet)
D:/ncs/v2.0.2/nrfxlib/crypto/nrf_cc310_platform/lib/cortex-m33/soft-float/no-interrupts/libnrf_cc310_platform_0.9.14.a(aes_driver.c.obj)
                              D:/ncs/v2.0.2/nrfxlib/crypto/nrf_cc310_platform/lib/cortex-m33/soft-float/no-interrupts/libnrf_cc310_platform_0.9.14.a(aes_alt.c.obj) (ProcessAesDrv)
D:/ncs/v2.0.2/nrfxlib/crypto/nrf_cc310_platform/lib/cortex-m33/soft-float/no-interrupts/libnrf_cc310_platform_0.9.14.a(kmu_shared.c.obj)
                              D:/ncs/v2.0.2/nrfxlib/crypto/nrf_cc310_platform/lib/cortex-m33/soft-float/no-interrupts/libnrf_cc310_platform_0.9.14.a(aes_driver.c.obj) (kmu_validate_slot_and_size)
D:/ncs/v2.0.2/nrfxlib/crypto/nrf_cc310_platform/lib/cortex-m33/soft-float/no-interrupts/libnrf_cc310_platform_0.9.14.a(cc_util_cmac.c.obj)
                              D:/ncs/v2.0.2/nrfxlib/crypto/nrf_cc310_platform/lib/cortex-m33/soft-float/no-interrupts/libnrf_cc310_platform_0.9.14.a(kmu_shared.c.obj) (UtilCmacBuildDataForDerivation)
secure_fw/partitions/crypto/mbedcrypto/nrf_security_crypto/liboberon_mbedcrypto__psa_3.0.11.a(oberon_aead.c.obj)
                              secure_fw/partitions/crypto/mbedcrypto/nrf_security_src/libcrypto_service_mbedcrypto.a(psa_crypto_driver_wrappers.o) (oberon_aead_encrypt_setup)
secure_fw/partitions/crypto/mbedcrypto/nrf_security_crypto/liboberon_mbedcrypto__psa_3.0.11.a(oberon_cipher.c.obj)
                              secure_fw/partitions/crypto/mbedcrypto/nrf_security_src/libcrypto_service_mbedcrypto.a(psa_crypto_driver_wrappers.o) (oberon_cipher_encrypt_setup)
secure_fw/partitions/crypto/mbedcrypto/nrf_security_crypto/liboberon_mbedcrypto__psa_3.0.11.a(oberon_ecdh.c.obj)
                              secure_fw/partitions/crypto/mbedcrypto/nrf_security_src/libcrypto_service_mbedcrypto.a(psa_crypto_driver_wrappers.o) (oberon_key_agreement)
secure_fw/partitions/crypto/mbedcrypto/nrf_security_crypto/liboberon_mbedcrypto__psa_3.0.11.a(oberon_ecdsa.c.obj)
                              secure_fw/partitions/crypto/mbedcrypto/nrf_security_src/libcrypto_service_mbedcrypto.a(psa_crypto_driver_wrappers.o) (oberon_sign_hash)
secure_fw/partitions/crypto/mbedcrypto/nrf_security_crypto/liboberon_mbedcrypto__psa_3.0.11.a(oberon_hash.c.obj)
                              secure_fw/partitions/crypto/mbedcrypto/nrf_security_src/libcrypto_service_mbedcrypto.a(psa_crypto_driver_wrappers.o) (oberon_hash_setup)
secure_fw/partitions/crypto/mbedcrypto/nrf_security_crypto/liboberon_mbedcrypto__psa_3.0.11.a(oberon_key_pair.c.obj)
                              secure_fw/partitions/crypto/mbedcrypto/nrf_security_src/libcrypto_service_mbedcrypto.a(psa_crypto_driver_wrappers.o) (oberon_export_public_key)
secure_fw/partitions/crypto/mbedcrypto/nrf_security_src/libmbedcrypto_base.a(platform.o)
                              secure_fw/partitions/crypto/mbedcrypto/nrf_security_src/libcrypto_service_mbedcrypto.a(psa_crypto.o) (mbedtls_calloc)
D:/ncs/v2.0.2/nrfxlib/crypto/nrf_oberon/lib/cortex-m33/soft-float/liboberon_3.0.11.a(ocrypto_aes_ecb.c.obj)
                              secure_fw/partitions/crypto/mbedcrypto/nrf_security_crypto/liboberon_mbedcrypto__psa_3.0.11.a(oberon_cipher.c.obj) (ocrypto_aes_ecb_encrypt)
D:/ncs/v2.0.2/nrfxlib/crypto/nrf_oberon/lib/cortex-m33/soft-float/liboberon_3.0.11.a(ocrypto_aes_cbc.c.obj)
                              secure_fw/partitions/crypto/mbedcrypto/nrf_security_crypto/liboberon_mbedcrypto__psa_3.0.11.a(oberon_cipher.c.obj) (ocrypto_aes_cbc_encrypt)
D:/ncs/v2.0.2/nrfxlib/crypto/nrf_oberon/lib/cortex-m33/soft-float/liboberon_3.0.11.a(ocrypto_aes_cbc_pkcs.c.obj)
                              secure_fw/partitions/crypto/mbedcrypto/nrf_security_crypto/liboberon_mbedcrypto__psa_3.0.11.a(oberon_cipher.c.obj) (ocrypto_aes_cbc_pkcs_init)
D:/ncs/v2.0.2/nrfxlib/crypto/nrf_oberon/lib/cortex-m33/soft-float/liboberon_3.0.11.a(ocrypto_aes_ccm.c.obj)
                              secure_fw/partitions/crypto/mbedcrypto/nrf_security_crypto/liboberon_mbedcrypto__psa_3.0.11.a(oberon_aead.c.obj) (ocrypto_aes_ccm_init)
D:/ncs/v2.0.2/nrfxlib/crypto/nrf_oberon/lib/cortex-m33/soft-float/liboberon_3.0.11.a(ocrypto_aes_ctr.c.obj)
                              secure_fw/partitions/crypto/mbedcrypto/nrf_security_crypto/liboberon_mbedcrypto__psa_3.0.11.a(oberon_cipher.c.obj) (ocrypto_aes_ctr_init)
D:/ncs/v2.0.2/nrfxlib/crypto/nrf_oberon/lib/cortex-m33/soft-float/liboberon_3.0.11.a(ocrypto_aes_gcm.c.obj)
                              secure_fw/partitions/crypto/mbedcrypto/nrf_security_crypto/liboberon_mbedcrypto__psa_3.0.11.a(oberon_aead.c.obj) (ocrypto_aes_gcm_init)
D:/ncs/v2.0.2/nrfxlib/crypto/nrf_oberon/lib/cortex-m33/soft-float/liboberon_3.0.11.a(ocrypto_chacha20_poly1305.c.obj)
                              secure_fw/partitions/crypto/mbedcrypto/nrf_security_crypto/liboberon_mbedcrypto__psa_3.0.11.a(oberon_aead.c.obj) (ocrypto_chacha20_poly1305_init)
D:/ncs/v2.0.2/nrfxlib/crypto/nrf_oberon/lib/cortex-m33/soft-float/liboberon_3.0.11.a(ocrypto_chacha20.c.obj)
                              D:/ncs/v2.0.2/nrfxlib/crypto/nrf_oberon/lib/cortex-m33/soft-float/liboberon_3.0.11.a(ocrypto_chacha20_poly1305.c.obj) (ocrypto_chacha20_init)
D:/ncs/v2.0.2/nrfxlib/crypto/nrf_oberon/lib/cortex-m33/soft-float/liboberon_3.0.11.a(ocrypto_curve_p224.c.obj)
                              secure_fw/partitions/crypto/mbedcrypto/nrf_security_crypto/liboberon_mbedcrypto__psa_3.0.11.a(oberon_key_pair.c.obj) (ocrypto_curve_p224_from56bytes)
D:/ncs/v2.0.2/nrfxlib/crypto/nrf_oberon/lib/cortex-m33/soft-float/liboberon_3.0.11.a(ocrypto_curve_p256.c.obj)
                              secure_fw/partitions/crypto/mbedcrypto/nrf_security_crypto/liboberon_mbedcrypto__psa_3.0.11.a(oberon_key_pair.c.obj) (ocrypto_curve_p256_from64bytes)
D:/ncs/v2.0.2/nrfxlib/crypto/nrf_oberon/lib/cortex-m33/soft-float/liboberon_3.0.11.a(ocrypto_curve25519.c.obj)
                              secure_fw/partitions/crypto/mbedcrypto/nrf_security_crypto/liboberon_mbedcrypto__psa_3.0.11.a(oberon_key_pair.c.obj) (ocrypto_curve25519_scalarmult_base)
D:/ncs/v2.0.2/nrfxlib/crypto/nrf_oberon/lib/cortex-m33/soft-float/liboberon_3.0.11.a(ocrypto_ecdh_p224.c.obj)
                              secure_fw/partitions/crypto/mbedcrypto/nrf_security_crypto/liboberon_mbedcrypto__psa_3.0.11.a(oberon_key_pair.c.obj) (ocrypto_ecdh_p224_public_key)
D:/ncs/v2.0.2/nrfxlib/crypto/nrf_oberon/lib/cortex-m33/soft-float/liboberon_3.0.11.a(ocrypto_ecdsa_p224.c.obj)
                              secure_fw/partitions/crypto/mbedcrypto/nrf_security_crypto/liboberon_mbedcrypto__psa_3.0.11.a(oberon_ecdsa.c.obj) (ocrypto_ecdsa_p224_public_key)
D:/ncs/v2.0.2/nrfxlib/crypto/nrf_oberon/lib/cortex-m33/soft-float/liboberon_3.0.11.a(ocrypto_ecdh_p256.c.obj)
                              secure_fw/partitions/crypto/mbedcrypto/nrf_security_crypto/liboberon_mbedcrypto__psa_3.0.11.a(oberon_key_pair.c.obj) (ocrypto_ecdh_p256_public_key)
D:/ncs/v2.0.2/nrfxlib/crypto/nrf_oberon/lib/cortex-m33/soft-float/liboberon_3.0.11.a(ocrypto_ecdsa_p256.c.obj)
                              secure_fw/partitions/crypto/mbedcrypto/nrf_security_crypto/liboberon_mbedcrypto__psa_3.0.11.a(oberon_ecdsa.c.obj) (ocrypto_ecdsa_p256_public_key)
D:/ncs/v2.0.2/nrfxlib/crypto/nrf_oberon/lib/cortex-m33/soft-float/liboberon_3.0.11.a(ocrypto_ed25519.c.obj)
                              secure_fw/partitions/crypto/mbedcrypto/nrf_security_crypto/liboberon_mbedcrypto__psa_3.0.11.a(oberon_ecdsa.c.obj) (ocrypto_ed25519_public_key)
D:/ncs/v2.0.2/nrfxlib/crypto/nrf_oberon/lib/cortex-m33/soft-float/liboberon_3.0.11.a(ocrypto_ge25519.c.obj)
                              D:/ncs/v2.0.2/nrfxlib/crypto/nrf_oberon/lib/cortex-m33/soft-float/liboberon_3.0.11.a(ocrypto_ed25519.c.obj) (ocrypto_ge25519_unpack_neg)
D:/ncs/v2.0.2/nrfxlib/crypto/nrf_oberon/lib/cortex-m33/soft-float/liboberon_3.0.11.a(ocrypto_hkdf_sha256.c.obj)
                              D:/ncs/v2.0.2/nrfxlib/crypto/nrf_oberon/lib/cortex-m33/soft-float/liboberon_3.0.11.a(ocrypto_ecdsa_p256.c.obj) (ocrypto_hmac_sha256)
D:/ncs/v2.0.2/nrfxlib/crypto/nrf_oberon/lib/cortex-m33/soft-float/liboberon_3.0.11.a(ocrypto_mod_p224.c.obj)
                              D:/ncs/v2.0.2/nrfxlib/crypto/nrf_oberon/lib/cortex-m33/soft-float/liboberon_3.0.11.a(ocrypto_curve_p224.c.obj) (ocrypto_mod_p224_cneg)
D:/ncs/v2.0.2/nrfxlib/crypto/nrf_oberon/lib/cortex-m33/soft-float/liboberon_3.0.11.a(ocrypto_mod_p256.c.obj)
                              D:/ncs/v2.0.2/nrfxlib/crypto/nrf_oberon/lib/cortex-m33/soft-float/liboberon_3.0.11.a(ocrypto_curve_p256.c.obj) (ocrypto_mod_p256_cneg)
D:/ncs/v2.0.2/nrfxlib/crypto/nrf_oberon/lib/cortex-m33/soft-float/liboberon_3.0.11.a(ocrypto_mod25519.c.obj)
                              D:/ncs/v2.0.2/nrfxlib/crypto/nrf_oberon/lib/cortex-m33/soft-float/liboberon_3.0.11.a(ocrypto_curve25519.c.obj) (ocrypto_mod25519_init)
D:/ncs/v2.0.2/nrfxlib/crypto/nrf_oberon/lib/cortex-m33/soft-float/liboberon_3.0.11.a(ocrypto_poly1305.c.obj)
                              D:/ncs/v2.0.2/nrfxlib/crypto/nrf_oberon/lib/cortex-m33/soft-float/liboberon_3.0.11.a(ocrypto_chacha20_poly1305.c.obj) (ocrypto_poly1305_init)
D:/ncs/v2.0.2/nrfxlib/crypto/nrf_oberon/lib/cortex-m33/soft-float/liboberon_3.0.11.a(ocrypto_sc_p224.c.obj)
                              secure_fw/partitions/crypto/mbedcrypto/nrf_security_crypto/liboberon_mbedcrypto__psa_3.0.11.a(oberon_key_pair.c.obj) (ocrypto_sc_p224_from28bytes)
D:/ncs/v2.0.2/nrfxlib/crypto/nrf_oberon/lib/cortex-m33/soft-float/liboberon_3.0.11.a(ocrypto_sc_p256.c.obj)
                              secure_fw/partitions/crypto/mbedcrypto/nrf_security_crypto/liboberon_mbedcrypto__psa_3.0.11.a(oberon_key_pair.c.obj) (ocrypto_sc_p256_from32bytes)
D:/ncs/v2.0.2/nrfxlib/crypto/nrf_oberon/lib/cortex-m33/soft-float/liboberon_3.0.11.a(ocrypto_sc25519.c.obj)
                              D:/ncs/v2.0.2/nrfxlib/crypto/nrf_oberon/lib/cortex-m33/soft-float/liboberon_3.0.11.a(ocrypto_ed25519.c.obj) (ocrypto_sc25519_from32bytes)
D:/ncs/v2.0.2/nrfxlib/crypto/nrf_oberon/lib/cortex-m33/soft-float/liboberon_3.0.11.a(ocrypto_sha1.c.obj)
                              secure_fw/partitions/crypto/mbedcrypto/nrf_security_crypto/liboberon_mbedcrypto__psa_3.0.11.a(oberon_hash.c.obj) (ocrypto_sha1_init)
D:/ncs/v2.0.2/nrfxlib/crypto/nrf_oberon/lib/cortex-m33/soft-float/liboberon_3.0.11.a(ocrypto_sha256.c.obj)
                              secure_fw/partitions/crypto/mbedcrypto/nrf_security_crypto/liboberon_mbedcrypto__psa_3.0.11.a(oberon_hash.c.obj) (ocrypto_sha256_init)
D:/ncs/v2.0.2/nrfxlib/crypto/nrf_oberon/lib/cortex-m33/soft-float/liboberon_3.0.11.a(ocrypto_sha512.c.obj)
                              secure_fw/partitions/crypto/mbedcrypto/nrf_security_crypto/liboberon_mbedcrypto__psa_3.0.11.a(oberon_hash.c.obj) (ocrypto_sha512_init)
D:/ncs/v2.0.2/nrfxlib/crypto/nrf_oberon/lib/cortex-m33/soft-float/liboberon_3.0.11.a(ocrypto_aes_dec.s.obj)
                              D:/ncs/v2.0.2/nrfxlib/crypto/nrf_oberon/lib/cortex-m33/soft-float/liboberon_3.0.11.a(ocrypto_aes_ecb.c.obj) (ocrypto_aes_decrypt_block)
D:/ncs/v2.0.2/nrfxlib/crypto/nrf_oberon/lib/cortex-m33/soft-float/liboberon_3.0.11.a(ocrypto_aes.s.obj)
                              D:/ncs/v2.0.2/nrfxlib/crypto/nrf_oberon/lib/cortex-m33/soft-float/liboberon_3.0.11.a(ocrypto_aes_ecb.c.obj) (ocrypto_aes_encrypt_block)
D:/ncs/v2.0.2/nrfxlib/crypto/nrf_oberon/lib/cortex-m33/soft-float/liboberon_3.0.11.a(ocrypto_bigint128.s.obj)
                              D:/ncs/v2.0.2/nrfxlib/crypto/nrf_oberon/lib/cortex-m33/soft-float/liboberon_3.0.11.a(ocrypto_poly1305.c.obj) (ocrypto_bigint_add128)
D:/ncs/v2.0.2/nrfxlib/crypto/nrf_oberon/lib/cortex-m33/soft-float/liboberon_3.0.11.a(ocrypto_bigint224.s.obj)
                              D:/ncs/v2.0.2/nrfxlib/crypto/nrf_oberon/lib/cortex-m33/soft-float/liboberon_3.0.11.a(ocrypto_sc_p224.c.obj) (ocrypto_bigint_add224)
D:/ncs/v2.0.2/nrfxlib/crypto/nrf_oberon/lib/cortex-m33/soft-float/liboberon_3.0.11.a(ocrypto_bigint256.s.obj)
                              D:/ncs/v2.0.2/nrfxlib/crypto/nrf_oberon/lib/cortex-m33/soft-float/liboberon_3.0.11.a(ocrypto_sc_p256.c.obj) (ocrypto_bigint_add256)
D:/ncs/v2.0.2/nrfxlib/crypto/nrf_oberon/lib/cortex-m33/soft-float/liboberon_3.0.11.a(ocrypto_chacha20_loop.s.obj)
                              D:/ncs/v2.0.2/nrfxlib/crypto/nrf_oberon/lib/cortex-m33/soft-float/liboberon_3.0.11.a(ocrypto_chacha20.c.obj) (ocrypto_chacha20loop)
D:/ncs/v2.0.2/nrfxlib/crypto/nrf_oberon/lib/cortex-m33/soft-float/liboberon_3.0.11.a(ocrypto_constant_time.s.obj)
                              D:/ncs/v2.0.2/nrfxlib/crypto/nrf_oberon/lib/cortex-m33/soft-float/liboberon_3.0.11.a(ocrypto_aes_ccm.c.obj) (ocrypto_constant_time_equal)
D:/ncs/v2.0.2/nrfxlib/crypto/nrf_oberon/lib/cortex-m33/soft-float/liboberon_3.0.11.a(ocrypto_gf128_mul.s.obj)
                              D:/ncs/v2.0.2/nrfxlib/crypto/nrf_oberon/lib/cortex-m33/soft-float/liboberon_3.0.11.a(ocrypto_aes_gcm.c.obj) (ocrypto_gf128_multiply)
D:/ncs/v2.0.2/nrfxlib/crypto/nrf_oberon/lib/cortex-m33/soft-float/liboberon_3.0.11.a(ocrypto_mod_p224_base.s.obj)
                              D:/ncs/v2.0.2/nrfxlib/crypto/nrf_oberon/lib/cortex-m33/soft-float/liboberon_3.0.11.a(ocrypto_curve_p224.c.obj) (ocrypto_mod_p224_add)
D:/ncs/v2.0.2/nrfxlib/crypto/nrf_oberon/lib/cortex-m33/soft-float/liboberon_3.0.11.a(ocrypto_mod_p256_base.s.obj)
                              D:/ncs/v2.0.2/nrfxlib/crypto/nrf_oberon/lib/cortex-m33/soft-float/liboberon_3.0.11.a(ocrypto_curve_p256.c.obj) (ocrypto_mod_p256_add)
D:/ncs/v2.0.2/nrfxlib/crypto/nrf_oberon/lib/cortex-m33/soft-float/liboberon_3.0.11.a(ocrypto_mod25519_base.s.obj)
                              D:/ncs/v2.0.2/nrfxlib/crypto/nrf_oberon/lib/cortex-m33/soft-float/liboberon_3.0.11.a(ocrypto_curve25519.c.obj) (ocrypto_mod25519_add)
D:/ncs/v2.0.2/nrfxlib/crypto/nrf_oberon/lib/cortex-m33/soft-float/liboberon_3.0.11.a(ocrypto_poly1305_mul.s.obj)
                              D:/ncs/v2.0.2/nrfxlib/crypto/nrf_oberon/lib/cortex-m33/soft-float/liboberon_3.0.11.a(ocrypto_poly1305.c.obj) (ocrypto_addmulmod1305)
D:/ncs/v2.0.2/nrfxlib/crypto/nrf_oberon/lib/cortex-m33/soft-float/liboberon_3.0.11.a(ocrypto_sha256_loop.s.obj)
                              D:/ncs/v2.0.2/nrfxlib/crypto/nrf_oberon/lib/cortex-m33/soft-float/liboberon_3.0.11.a(ocrypto_sha256.c.obj) (ocrypto_sha256_loop)
D:/ncs/v2.0.2/nrfxlib/crypto/nrf_oberon/lib/cortex-m33/soft-float/liboberon_3.0.11.a(ocrypto_sha512_loop.s.obj)
                              D:/ncs/v2.0.2/nrfxlib/crypto/nrf_oberon/lib/cortex-m33/soft-float/liboberon_3.0.11.a(ocrypto_sha512.c.obj) (ocrypto_sha512_loop)
d:/ncs/toolchains/v2.0.2/opt/zephyr-sdk/arm-zephyr-eabi/bin/../lib/gcc/arm-zephyr-eabi/10.3.0/../../../../arm-zephyr-eabi/lib/thumb/v8-m.main/nofp\libc_nano.a(lib_a-calloc.o)
                              secure_fw/partitions/crypto/mbedcrypto/nrf_security_src/libmbedcrypto_base.a(platform.o) (calloc)
d:/ncs/toolchains/v2.0.2/opt/zephyr-sdk/arm-zephyr-eabi/bin/../lib/gcc/arm-zephyr-eabi/10.3.0/../../../../arm-zephyr-eabi/lib/thumb/v8-m.main/nofp\libc_nano.a(lib_a-exit.o)
                              d:/ncs/toolchains/v2.0.2/opt/zephyr-sdk/arm-zephyr-eabi/bin/../lib/gcc/arm-zephyr-eabi/10.3.0/../../../../arm-zephyr-eabi/lib/thumb/v8-m.main/nofp/crt0.o (exit)
d:/ncs/toolchains/v2.0.2/opt/zephyr-sdk/arm-zephyr-eabi/bin/../lib/gcc/arm-zephyr-eabi/10.3.0/../../../../arm-zephyr-eabi/lib/thumb/v8-m.main/nofp\libc_nano.a(lib_a-impure.o)
                              d:/ncs/toolchains/v2.0.2/opt/zephyr-sdk/arm-zephyr-eabi/bin/../lib/gcc/arm-zephyr-eabi/10.3.0/../../../../arm-zephyr-eabi/lib/thumb/v8-m.main/nofp\libc_nano.a(lib_a-exit.o) (_global_impure_ptr)
d:/ncs/toolchains/v2.0.2/opt/zephyr-sdk/arm-zephyr-eabi/bin/../lib/gcc/arm-zephyr-eabi/10.3.0/../../../../arm-zephyr-eabi/lib/thumb/v8-m.main/nofp\libc_nano.a(lib_a-init.o)
                              d:/ncs/toolchains/v2.0.2/opt/zephyr-sdk/arm-zephyr-eabi/bin/../lib/gcc/arm-zephyr-eabi/10.3.0/../../../../arm-zephyr-eabi/lib/thumb/v8-m.main/nofp/crt0.o (__libc_init_array)
d:/ncs/toolchains/v2.0.2/opt/zephyr-sdk/arm-zephyr-eabi/bin/../lib/gcc/arm-zephyr-eabi/10.3.0/../../../../arm-zephyr-eabi/lib/thumb/v8-m.main/nofp\libc_nano.a(lib_a-malloc.o)
                              D:/ncs/v2.0.2/nrfxlib/crypto/nrf_cc310_platform/lib/cortex-m33/soft-float/no-interrupts/libnrf_cc310_platform_0.9.14.a(cc_pal_mem.c.obj) (malloc)
d:/ncs/toolchains/v2.0.2/opt/zephyr-sdk/arm-zephyr-eabi/bin/../lib/gcc/arm-zephyr-eabi/10.3.0/../../../../arm-zephyr-eabi/lib/thumb/v8-m.main/nofp\libc_nano.a(lib_a-memmove.o)
                              D:/ncs/v2.0.2/nrfxlib/crypto/nrf_cc310_platform/lib/cortex-m33/soft-float/no-interrupts/libnrf_cc310_platform_0.9.14.a(cc_pal_mem.c.obj) (memmove)
d:/ncs/toolchains/v2.0.2/opt/zephyr-sdk/arm-zephyr-eabi/bin/../lib/gcc/arm-zephyr-eabi/10.3.0/../../../../arm-zephyr-eabi/lib/thumb/v8-m.main/nofp\libc_nano.a(lib_a-nano-callocr.o)
                              d:/ncs/toolchains/v2.0.2/opt/zephyr-sdk/arm-zephyr-eabi/bin/../lib/gcc/arm-zephyr-eabi/10.3.0/../../../../arm-zephyr-eabi/lib/thumb/v8-m.main/nofp\libc_nano.a(lib_a-calloc.o) (_calloc_r)
d:/ncs/toolchains/v2.0.2/opt/zephyr-sdk/arm-zephyr-eabi/bin/../lib/gcc/arm-zephyr-eabi/10.3.0/../../../../arm-zephyr-eabi/lib/thumb/v8-m.main/nofp\libc_nano.a(lib_a-nano-freer.o)
                              d:/ncs/toolchains/v2.0.2/opt/zephyr-sdk/arm-zephyr-eabi/bin/../lib/gcc/arm-zephyr-eabi/10.3.0/../../../../arm-zephyr-eabi/lib/thumb/v8-m.main/nofp\libc_nano.a(lib_a-malloc.o) (_free_r)
d:/ncs/toolchains/v2.0.2/opt/zephyr-sdk/arm-zephyr-eabi/bin/../lib/gcc/arm-zephyr-eabi/10.3.0/../../../../arm-zephyr-eabi/lib/thumb/v8-m.main/nofp\libc_nano.a(lib_a-nano-mallocr.o)
                              d:/ncs/toolchains/v2.0.2/opt/zephyr-sdk/arm-zephyr-eabi/bin/../lib/gcc/arm-zephyr-eabi/10.3.0/../../../../arm-zephyr-eabi/lib/thumb/v8-m.main/nofp\libc_nano.a(lib_a-malloc.o) (_malloc_r)
d:/ncs/toolchains/v2.0.2/opt/zephyr-sdk/arm-zephyr-eabi/bin/../lib/gcc/arm-zephyr-eabi/10.3.0/../../../../arm-zephyr-eabi/lib/thumb/v8-m.main/nofp\libc_nano.a(lib_a-realloc.o)
                              D:/ncs/v2.0.2/nrfxlib/crypto/nrf_cc310_platform/lib/cortex-m33/soft-float/no-interrupts/libnrf_cc310_platform_0.9.14.a(cc_pal_mem.c.obj) (realloc)
d:/ncs/toolchains/v2.0.2/opt/zephyr-sdk/arm-zephyr-eabi/bin/../lib/gcc/arm-zephyr-eabi/10.3.0/../../../../arm-zephyr-eabi/lib/thumb/v8-m.main/nofp\libc_nano.a(lib_a-sbrkr.o)
                              d:/ncs/toolchains/v2.0.2/opt/zephyr-sdk/arm-zephyr-eabi/bin/../lib/gcc/arm-zephyr-eabi/10.3.0/../../../../arm-zephyr-eabi/lib/thumb/v8-m.main/nofp\libc_nano.a(lib_a-nano-mallocr.o) (_sbrk_r)
d:/ncs/toolchains/v2.0.2/opt/zephyr-sdk/arm-zephyr-eabi/bin/../lib/gcc/arm-zephyr-eabi/10.3.0/../../../../arm-zephyr-eabi/lib/thumb/v8-m.main/nofp\libc_nano.a(lib_a-strcmp.o)
                              secure_fw/partitions/crypto/mbedcrypto/nrf_security_src/libcrypto_service_mbedcrypto.a(cipher.o) (strcmp)
d:/ncs/toolchains/v2.0.2/opt/zephyr-sdk/arm-zephyr-eabi/bin/../lib/gcc/arm-zephyr-eabi/10.3.0/../../../../arm-zephyr-eabi/lib/thumb/v8-m.main/nofp\libc_nano.a(lib_a-mlock.o)
                              d:/ncs/toolchains/v2.0.2/opt/zephyr-sdk/arm-zephyr-eabi/bin/../lib/gcc/arm-zephyr-eabi/10.3.0/../../../../arm-zephyr-eabi/lib/thumb/v8-m.main/nofp\libc_nano.a(lib_a-nano-freer.o) (__malloc_lock)
d:/ncs/toolchains/v2.0.2/opt/zephyr-sdk/arm-zephyr-eabi/bin/../lib/gcc/arm-zephyr-eabi/10.3.0/../../../../arm-zephyr-eabi/lib/thumb/v8-m.main/nofp\libc_nano.a(lib_a-nano-reallocr.o)
                              d:/ncs/toolchains/v2.0.2/opt/zephyr-sdk/arm-zephyr-eabi/bin/../lib/gcc/arm-zephyr-eabi/10.3.0/../../../../arm-zephyr-eabi/lib/thumb/v8-m.main/nofp\libc_nano.a(lib_a-realloc.o) (_realloc_r)
d:/ncs/toolchains/v2.0.2/opt/zephyr-sdk/arm-zephyr-eabi/bin/../lib/gcc/arm-zephyr-eabi/10.3.0/../../../../arm-zephyr-eabi/lib/thumb/v8-m.main/nofp\libc_nano.a(lib_a-reent.o)
                              d:/ncs/toolchains/v2.0.2/opt/zephyr-sdk/arm-zephyr-eabi/bin/../lib/gcc/arm-zephyr-eabi/10.3.0/../../../../arm-zephyr-eabi/lib/thumb/v8-m.main/nofp\libc_nano.a(lib_a-sbrkr.o) (errno)
d:/ncs/toolchains/v2.0.2/opt/zephyr-sdk/arm-zephyr-eabi/bin/../lib/gcc/arm-zephyr-eabi/10.3.0/../../../../arm-zephyr-eabi/lib/thumb/v8-m.main/nofp\libc_nano.a(lib_a-lock.o)
                              d:/ncs/toolchains/v2.0.2/opt/zephyr-sdk/arm-zephyr-eabi/bin/../lib/gcc/arm-zephyr-eabi/10.3.0/../../../../arm-zephyr-eabi/lib/thumb/v8-m.main/nofp\libc_nano.a(lib_a-mlock.o) (__retarget_lock_acquire_recursive)
d:/ncs/toolchains/v2.0.2/opt/zephyr-sdk/arm-zephyr-eabi/bin/../lib/gcc/arm-zephyr-eabi/10.3.0/../../../../arm-zephyr-eabi/lib/thumb/v8-m.main/nofp\libc_nano.a(lib_a-nano-msizer.o)
                              d:/ncs/toolchains/v2.0.2/opt/zephyr-sdk/arm-zephyr-eabi/bin/../lib/gcc/arm-zephyr-eabi/10.3.0/../../../../arm-zephyr-eabi/lib/thumb/v8-m.main/nofp\libc_nano.a(lib_a-nano-reallocr.o) (_malloc_usable_size_r)
d:/ncs/toolchains/v2.0.2/opt/zephyr-sdk/arm-zephyr-eabi/bin/../lib/gcc/arm-zephyr-eabi/10.3.0/thumb/v8-m.main/nofp\libgcc.a(cmse.o)
                              platform/libplatform_s.a(spm_hal.o) (cmse_check_address_range)
d:/ncs/toolchains/v2.0.2/opt/zephyr-sdk/arm-zephyr-eabi/bin/../lib/gcc/arm-zephyr-eabi/10.3.0/../../../../arm-zephyr-eabi/lib/thumb/v8-m.main/nofp\libnosys.a(sbrk.o)
                              d:/ncs/toolchains/v2.0.2/opt/zephyr-sdk/arm-zephyr-eabi/bin/../lib/gcc/arm-zephyr-eabi/10.3.0/../../../../arm-zephyr-eabi/lib/thumb/v8-m.main/nofp\libc_nano.a(lib_a-sbrkr.o) (_sbrk)
d:/ncs/toolchains/v2.0.2/opt/zephyr-sdk/arm-zephyr-eabi/bin/../lib/gcc/arm-zephyr-eabi/10.3.0/../../../../arm-zephyr-eabi/lib/thumb/v8-m.main/nofp\libnosys.a(_exit.o)
                              d:/ncs/toolchains/v2.0.2/opt/zephyr-sdk/arm-zephyr-eabi/bin/../lib/gcc/arm-zephyr-eabi/10.3.0/../../../../arm-zephyr-eabi/lib/thumb/v8-m.main/nofp\libc_nano.a(lib_a-exit.o) (_exit)

Discarded input sections

 .text          0x0000000000000000        0x0 d:/ncs/toolchains/v2.0.2/opt/zephyr-sdk/arm-zephyr-eabi/bin/../lib/gcc/arm-zephyr-eabi/10.3.0/thumb/v8-m.main/nofp/crti.o
 .data          0x0000000000000000        0x0 d:/ncs/toolchains/v2.0.2/opt/zephyr-sdk/arm-zephyr-eabi/bin/../lib/gcc/arm-zephyr-eabi/10.3.0/thumb/v8-m.main/nofp/crti.o
 .bss           0x0000000000000000        0x0 d:/ncs/toolchains/v2.0.2/opt/zephyr-sdk/arm-zephyr-eabi/bin/../lib/gcc/arm-zephyr-eabi/10.3.0/thumb/v8-m.main/nofp/crti.o
 .data          0x0000000000000000        0x4 d:/ncs/toolchains/v2.0.2/opt/zephyr-sdk/arm-zephyr-eabi/bin/../lib/gcc/arm-zephyr-eabi/10.3.0/thumb/v8-m.main/nofp/crtbegin.o
 .rodata        0x0000000000000000       0x24 d:/ncs/toolchains/v2.0.2/opt/zephyr-sdk/arm-zephyr-eabi/bin/../lib/gcc/arm-zephyr-eabi/10.3.0/thumb/v8-m.main/nofp/crtbegin.o
 .data          0x0000000000000000        0x0 d:/ncs/toolchains/v2.0.2/opt/zephyr-sdk/arm-zephyr-eabi/bin/../lib/gcc/arm-zephyr-eabi/10.3.0/../../../../arm-zephyr-eabi/lib/thumb/v8-m.main/nofp/crt0.o
 .bss           0x0000000000000000        0x0 d:/ncs/toolchains/v2.0.2/opt/zephyr-sdk/arm-zephyr-eabi/bin/../lib/gcc/arm-zephyr-eabi/10.3.0/../../../../arm-zephyr-eabi/lib/thumb/v8-m.main/nofp/crt0.o
 .ARM.extab     0x0000000000000000        0x0 d:/ncs/toolchains/v2.0.2/opt/zephyr-sdk/arm-zephyr-eabi/bin/../lib/gcc/arm-zephyr-eabi/10.3.0/../../../../arm-zephyr-eabi/lib/thumb/v8-m.main/nofp/crt0.o
 .text          0x0000000000000000        0x0 secure_fw/CMakeFiles/tfm_s.dir/partitions/ns_agent/tfm_psa_api_veneers.o
 .data          0x0000000000000000        0x0 secure_fw/CMakeFiles/tfm_s.dir/partitions/ns_agent/tfm_psa_api_veneers.o
 .bss           0x0000000000000000        0x0 secure_fw/CMakeFiles/tfm_s.dir/partitions/ns_agent/tfm_psa_api_veneers.o
 .comment       0x0000000000000000       0x21 secure_fw/CMakeFiles/tfm_s.dir/partitions/ns_agent/tfm_psa_api_veneers.o
 .ARM.attributes
                0x0000000000000000       0x32 secure_fw/CMakeFiles/tfm_s.dir/partitions/ns_agent/tfm_psa_api_veneers.o
 .data          0x0000000000000000        0x0 secure_fw/CMakeFiles/tfm_s.dir/__/platform/ext/target/nordic_nrf/common/nrf9160/gcc/startup_nrf9160_s.o
 .bss           0x0000000000000000        0x0 secure_fw/CMakeFiles/tfm_s.dir/__/platform/ext/target/nordic_nrf/common/nrf9160/gcc/startup_nrf9160_s.o
 .text          0x0000000000000000        0x0 secure_fw/CMakeFiles/tfm_s.dir/__/platform/ext/common/faults.o
 .data          0x0000000000000000        0x0 secure_fw/CMakeFiles/tfm_s.dir/__/platform/ext/common/faults.o
Memory Configuration

Name             Origin             Length             Attributes
FLASH            0x0000000000010200 0x000000000000c000 xr
RAM              0x0000000020000000 0x0000000000010000 xrw
*default*        0x0000000000000000 0xffffffffffffffff

Linker script and memory map

LOAD d:/ncs/toolchains/v2.0.2/opt/zephyr-sdk/arm-zephyr-eabi/bin/../lib/gcc/arm-zephyr-eabi/10.3.0/thumb/v8-m.main/nofp/crti.o
LOAD d:/ncs/toolchains/v2.0.2/opt/zephyr-sdk/arm-zephyr-eabi/bin/../lib/gcc/arm-zephyr-eabi/10.3.0/thumb/v8-m.main/nofp/crtbegin.o
LOAD d:/ncs/toolchains/v2.0.2/opt/zephyr-sdk/arm-zephyr-eabi/bin/../lib/gcc/arm-zephyr-eabi/10.3.0/../../../../arm-zephyr-eabi/lib/thumb/v8-m.main/nofp/crt0.o
LOAD secure_fw/CMakeFiles/tfm_s.dir/partitions/ns_agent/tfm_psa_api_veneers.o
LOAD secure_fw/CMakeFiles/tfm_s.dir/__/platform/ext/target/nordic_nrf/common/nrf9160/gcc/startup_nrf9160_s.o
LOAD secure_fw/CMakeFiles/tfm_s.dir/__/platform/ext/common/faults.o
LOAD secure_fw/CMakeFiles/tfm_s.dir/__/generated/secure_fw/partitions/crypto/auto_generated/load_info_tfm_crypto.o
LOAD secure_fw/CMakeFiles/tfm_s.dir/__/generated/secure_fw/partitions/platform/auto_generated/load_info_tfm_platform.o
LOAD secure_fw/CMakeFiles/tfm_s.dir/partitions/ns_agent/load_info_ns_agent.o
LOAD secure_fw/CMakeFiles/tfm_s.dir/partitions/idle_partition/load_info_idle_sp.o
LOAD secure_fw/CMakeFiles/tfm_s.dir/__/platform/ext/target/nordic_nrf/common/core/plat_test.o
LOAD secure_fw/CMakeFiles/tfm_s.dir/spm/cmsis_psa/psa_interface_svc.o
LOAD secure_fw/CMakeFiles/tfm_s.dir/spm/cmsis_psa/psa_interface_thread.o
LOAD secure_fw/CMakeFiles/tfm_s.dir/spm/cmsis_psa/psa_interface_sfn.o
LOAD secure_fw/CMakeFiles/tfm_s.dir/__/interface/src/tfm_psa_call_pack.o
LOAD platform/libplatform_s.a
LOAD secure_fw/partitions/lib/sprt/libtfm_sprt.a
LOAD secure_fw/spm/libtfm_spm.a
LOAD lib/fih/libtfm_fih.a
LOAD secure_fw/partitions/crypto/mbedcrypto/nrf_security_src/libcrypto_service_mbedcrypto.a
LOAD secure_fw/partitions/crypto/libtfm_psa_rot_partition_crypto.a
LOAD secure_fw/partitions/platform/libtfm_psa_rot_partition_platform.a
LOAD platform/libplatform_s.a
LOAD secure_fw/partitions/lib/sprt/libtfm_sprt.a
LOAD secure_fw/spm/libtfm_spm.a
LOAD lib/fih/libtfm_fih.a
LOAD secure_fw/partitions/crypto/mbedcrypto/nrf_security_src/libcrypto_service_mbedcrypto.a
LOAD secure_fw/partitions/crypto/libtfm_psa_rot_partition_crypto.a
LOAD secure_fw/partitions/platform/libtfm_psa_rot_partition_platform.a
LOAD platform/libplatform_s.a
LOAD secure_fw/partitions/lib/sprt/libtfm_sprt.a
LOAD secure_fw/spm/libtfm_spm.a
LOAD lib/fih/libtfm_fih.a
LOAD secure_fw/partitions/crypto/mbedcrypto/nrf_security_src/libcrypto_service_mbedcrypto.a
LOAD secure_fw/partitions/crypto/libtfm_psa_rot_partition_crypto.a
LOAD secure_fw/partitions/platform/libtfm_psa_rot_partition_platform.a
LOAD D:/ncs/v2.0.2/nrfxlib/crypto/nrf_cc310_platform/lib/cortex-m33/soft-float/no-interrupts/libnrf_cc310_platform_0.9.14.a
LOAD secure_fw/partitions/crypto/mbedcrypto/nrf_security_crypto/liboberon_mbedcrypto__psa_3.0.11.a
LOAD D:/ncs/v2.0.2/nrfxlib/crypto/nrf_oberon/lib/cortex-m33/soft-float/liboberon_mbedtls_3.0.11.a
LOAD secure_fw/partitions/crypto/mbedcrypto/nrf_security_src/libmbedcrypto_base.a
LOAD D:/ncs/v2.0.2/nrfxlib/crypto/nrf_oberon/lib/cortex-m33/soft-float/liboberon_3.0.11.a
LOAD d:/ncs/toolchains/v2.0.2/opt/zephyr-sdk/arm-zephyr-eabi/bin/../lib/gcc/arm-zephyr-eabi/10.3.0/../../../../arm-zephyr-eabi/lib/thumb/v8-m.main/nofp\libc_nano.a
START GROUP
LOAD d:/ncs/toolchains/v2.0.2/opt/zephyr-sdk/arm-zephyr-eabi/bin/../lib/gcc/arm-zephyr-eabi/10.3.0/thumb/v8-m.main/nofp\libgcc.a
LOAD d:/ncs/toolchains/v2.0.2/opt/zephyr-sdk/arm-zephyr-eabi/bin/../lib/gcc/arm-zephyr-eabi/10.3.0/../../../../arm-zephyr-eabi/lib/thumb/v8-m.main/nofp\libc_nano.a
END GROUP
START GROUP
LOAD d:/ncs/toolchains/v2.0.2/opt/zephyr-sdk/arm-zephyr-eabi/bin/../lib/gcc/arm-zephyr-eabi/10.3.0/thumb/v8-m.main/nofp\libgcc.a
LOAD d:/ncs/toolchains/v2.0.2/opt/zephyr-sdk/arm-zephyr-eabi/bin/../lib/gcc/arm-zephyr-eabi/10.3.0/../../../../arm-zephyr-eabi/lib/thumb/v8-m.main/nofp\libc_nano.a
END GROUP
LOAD d:/ncs/toolchains/v2.0.2/opt/zephyr-sdk/arm-zephyr-eabi/bin/../lib/gcc/arm-zephyr-eabi/10.3.0/thumb/v8-m.main/nofp/crtend.o
LOAD d:/ncs/toolchains/v2.0.2/opt/zephyr-sdk/arm-zephyr-eabi/bin/../lib/gcc/arm-zephyr-eabi/10.3.0/thumb/v8-m.main/nofp/crtn.o
                0x0000000000001000                __heap_size__ = 0x1000
                0x0000000000000800                __psp_stack_size__ = 0x800
                0x0000000000000400                __msp_init_stack_size__ = 0x400
START GROUP
LOAD d:/ncs/toolchains/v2.0.2/opt/zephyr-sdk/arm-zephyr-eabi/bin/../lib/gcc/arm-zephyr-eabi/10.3.0/thumb/v8-m.main/nofp\libgcc.a
LOAD d:/ncs/toolchains/v2.0.2/opt/zephyr-sdk/arm-zephyr-eabi/bin/../lib/gcc/arm-zephyr-eabi/10.3.0/../../../../arm-zephyr-eabi/lib/thumb/v8-m.main/nofp\libc.a
LOAD d:/ncs/toolchains/v2.0.2/opt/zephyr-sdk/arm-zephyr-eabi/bin/../lib/gcc/arm-zephyr-eabi/10.3.0/../../../../arm-zephyr-eabi/lib/thumb/v8-m.main/nofp\libm.a
LOAD d:/ncs/toolchains/v2.0.2/opt/zephyr-sdk/arm-zephyr-eabi/bin/../lib/gcc/arm-zephyr-eabi/10.3.0/../../../../arm-zephyr-eabi/lib/thumb/v8-m.main/nofp\libnosys.a
LOAD d:/ncs/toolchains/v2.0.2/opt/zephyr-sdk/arm-zephyr-eabi/bin/../lib/gcc/arm-zephyr-eabi/10.3.0/../../../../arm-zephyr-eabi/lib/thumb/v8-m.main/nofp\libc_nano.a
END GROUP

.TFM_VECTORS    0x0000000000010200      0x26c
                0x0000000000010200                __vectors_start__ = .
 *(.vectors)
 .vectors       0x0000000000010200      0x144 secure_fw/CMakeFiles/tfm_s.dir/__/platform/ext/target/nordic_nrf/common/nrf9160/gcc/startup_nrf9160_s.o
                0x0000000000010200                __Vectors
                0x0000000000010344                __vectors_end__ = .
 *startup*(.text*)
 .text          0x0000000000010344      0x128 secure_fw/CMakeFiles/tfm_s.dir/__/platform/ext/target/nordic_nrf/common/nrf9160/gcc/startup_nrf9160_s.o
                0x0000000000010344                Reset_Handler
                0x00000000000103c4                Default_Handler
                0x00000000000103c6                NMI_Handler
                0x00000000000103e2                DebugMon_Handler
                0x00000000000103ea                SysTick_Handler
                0x00000000000103f2                CLOCK_POWER_IRQHandler
                0x00000000000103f6                UARTE0_SPIM0_SPIS0_TWIM0_TWIS0_IRQHandler
                0x00000000000103fa                UARTE1_SPIM1_SPIS1_TWIM1_TWIS1_IRQHandler
                0x00000000000103fe                UARTE2_SPIM2_SPIS2_TWIM2_TWIS2_IRQHandler
                0x0000000000010402                UARTE3_SPIM3_SPIS3_TWIM3_TWIS3_IRQHandler
                0x0000000000010406                GPIOTE0_IRQHandler
                0x000000000001040a                SAADC_IRQHandler
                0x000000000001040e                TIMER0_IRQ_Handler
                0x0000000000010412                TIMER1_IRQHandler
                0x0000000000010416                TIMER2_IRQHandler
                0x000000000001041a                RTC0_IRQHandler
                0x000000000001041e                RTC1_IRQHandler
                0x0000000000010422                WDT_IRQHandler
                0x0000000000010426                EGU0_IRQHandler
                0x000000000001042a                EGU1_IRQHandler
                0x000000000001042e                EGU2_IRQHandler
                0x0000000000010432                EGU3_IRQHandler
                0x0000000000010436                EGU4_IRQHandler
                0x000000000001043a                EGU5_IRQHandler
                0x000000000001043e                PWM0_IRQHandler
                0x0000000000010442                PWM1_IRQHandler
                0x0000000000010446                PWM2_IRQHandler
                0x000000000001044a                PWM3_IRQHandler
                0x000000000001044e                PDM_IRQHandler
                0x0000000000010452                I2S_IRQHandler
                0x0000000000010456                IPC_IRQHandler
                0x000000000001045a                FPU_IRQHandler
                0x000000000001045e                GPIOTE1_IRQHandler
                0x0000000000010462                KMU_IRQHandler
                0x0000000000010466                CRYPTOCELL_IRQHandler
                0x000000000001046c                . = ALIGN (0x4)

.copy.table     0x000000000001046c       0x24
                0x000000000001046c                __copy_table_start__ = .
                0x000000000001046c        0x4 LONG 0x15998 LOADADDR (.TFM_DATA)
                0x0000000000010470        0x4 LONG 0x20006740 ADDR (.TFM_DATA)
                0x0000000000010474        0x4 LONG 0xf4 SIZEOF (.TFM_DATA)
                0x0000000000010478        0x4 LONG 0x159a0 LOADADDR (.TFM_PSA_ROT_LINKER_DATA)
                0x000000000001047c        0x4 LONG 0x20002020 ADDR (.TFM_PSA_ROT_LINKER_DATA)
                0x0000000000010480        0x4 LONG 0x0 SIZEOF (.TFM_PSA_ROT_LINKER_DATA)
                0x0000000000010484        0x4 LONG 0x159a0 LOADADDR (.TFM_APP_ROT_LINKER_DATA)
                0x0000000000010488        0x4 LONG 0x20002000 ADDR (.TFM_APP_ROT_LINKER_DATA)
                0x000000000001048c        0x4 LONG 0x0 SIZEOF (.TFM_APP_ROT_LINKER_DATA)
                0x0000000000010490                __copy_table_end__ = .

.zero.table     0x0000000000010490       0x18
                0x0000000000010490                __zero_table_start__ = .
                0x0000000000010490        0x4 LONG 0x20006840 ADDR (.TFM_BSS)
                0x0000000000010494        0x4 LONG 0x204c SIZEOF (.TFM_BSS)
                0x0000000000010498        0x4 LONG 0x20002020 ADDR (.TFM_PSA_ROT_LINKER_BSS)
                0x000000000001049c        0x4 LONG 0x4720 SIZEOF (.TFM_PSA_ROT_LINKER_BSS)
                0x00000000000104a0        0x4 LONG 0x20002000 ADDR (.TFM_APP_ROT_LINKER_BSS)
                0x00000000000104a4        0x4 LONG 0x20 SIZEOF (.TFM_APP_ROT_LINKER_BSS)
                0x00000000000104a8                __zero_table_end__ = .

.igot.plt       0x00000000000104a8        0x0
 .igot.plt      0x00000000000104a8        0x0 d:/ncs/toolchains/v2.0.2/opt/zephyr-sdk/arm-zephyr-eabi/bin/../lib/gcc/arm-zephyr-eabi/10.3.0/thumb/v8-m.main/nofp/crtbegin.o

.TFM_UNPRIV_CODE
                0x00000000000104c0      0x4e0
 *libc_nano*:*(.text*)
 .text.calloc   0x00000000000104c0       0x10 d:/ncs/toolchains/v2.0.2/opt/zephyr-sdk/arm-zephyr-eabi/bin/../lib/gcc/arm-zephyr-eabi/10.3.0/../../../../arm-zephyr-eabi/lib/thumb/v8-m.main/nofp\libc_nano.a(lib_a-calloc.o)
                0x00000000000104c0                calloc
 .text.exit     0x00000000000104d0       0x28 d:/ncs/toolchains/v2.0.2/opt/zephyr-sdk/arm-zephyr-eabi/bin/../lib/gcc/arm-zephyr-eabi/10.3.0/../../../../arm-zephyr-eabi/lib/thumb/v8-m.main/nofp\libc_nano.a(lib_a-exit.o)
                0x00000000000104d0                exit
 .text.__libc_init_array
                0x00000000000104f8       0x48 d:/ncs/toolchains/v2.0.2/opt/zephyr-sdk/arm-zephyr-eabi/bin/../lib/gcc/arm-zephyr-eabi/10.3.0/../../../../arm-zephyr-eabi/lib/thumb/v8-m.main/nofp\libc_nano.a(lib_a-init.o)
                0x00000000000104f8                __libc_init_array
 .text.free     0x0000000000010540       0x10 d:/ncs/toolchains/v2.0.2/opt/zephyr-sdk/arm-zephyr-eabi/bin/../lib/gcc/arm-zephyr-eabi/10.3.0/../../../../arm-zephyr-eabi/lib/thumb/v8-m.main/nofp\libc_nano.a(lib_a-malloc.o)
                0x0000000000010540                free
 .text.memmove  0x0000000000010550       0x34 d:/ncs/toolchains/v2.0.2/opt/zephyr-sdk/arm-zephyr-eabi/bin/../lib/gcc/arm-zephyr-eabi/10.3.0/../../../../arm-zephyr-eabi/lib/thumb/v8-m.main/nofp\libc_nano.a(lib_a-memmove.o)
                0x0000000000010550                memmove
 .text._calloc_r
                0x0000000000010584       0x1c d:/ncs/toolchains/v2.0.2/opt/zephyr-sdk/arm-zephyr-eabi/bin/../lib/gcc/arm-zephyr-eabi/10.3.0/../../../../arm-zephyr-eabi/lib/thumb/v8-m.main/nofp\libc_nano.a(lib_a-nano-callocr.o)
                0x0000000000010584                _calloc_r
 .text._free_r  0x00000000000105a0       0x94 d:/ncs/toolchains/v2.0.2/opt/zephyr-sdk/arm-zephyr-eabi/bin/../lib/gcc/arm-zephyr-eabi/10.3.0/../../../../arm-zephyr-eabi/lib/thumb/v8-m.main/nofp\libc_nano.a(lib_a-nano-freer.o)
                0x00000000000105a0                _free_r
 .text._malloc_r
                0x0000000000010634       0xb4 d:/ncs/toolchains/v2.0.2/opt/zephyr-sdk/arm-zephyr-eabi/bin/../lib/gcc/arm-zephyr-eabi/10.3.0/../../../../arm-zephyr-eabi/lib/thumb/v8-m.main/nofp\libc_nano.a(lib_a-nano-mallocr.o)
                0x0000000000010634                _malloc_r
 .text._sbrk_r  0x00000000000106e8       0x20 d:/ncs/toolchains/v2.0.2/opt/zephyr-sdk/arm-zephyr-eabi/bin/../lib/gcc/arm-zephyr-eabi/10.3.0/../../../../arm-zephyr-eabi/lib/thumb/v8-m.main/nofp\libc_nano.a(lib_a-sbrkr.o)
                0x00000000000106e8                _sbrk_r
 .text.__malloc_lock
                0x0000000000010708        0xc d:/ncs/toolchains/v2.0.2/opt/zephyr-sdk/arm-zephyr-eabi/bin/../lib/gcc/arm-zephyr-eabi/10.3.0/../../../../arm-zephyr-eabi/lib/thumb/v8-m.main/nofp\libc_nano.a(lib_a-mlock.o)
                0x0000000000010708                __malloc_lock
 .text.__malloc_unlock
                0x0000000000010714        0xc d:/ncs/toolchains/v2.0.2/opt/zephyr-sdk/arm-zephyr-eabi/bin/../lib/gcc/arm-zephyr-eabi/10.3.0/../../../../arm-zephyr-eabi/lib/thumb/v8-m.main/nofp\libc_nano.a(lib_a-mlock.o)
                0x0000000000010714                __malloc_unlock
 .text.__retarget_lock_acquire_recursive
                0x0000000000010720        0x2 d:/ncs/toolchains/v2.0.2/opt/zephyr-sdk/arm-zephyr-eabi/bin/../lib/gcc/arm-zephyr-eabi/10.3.0/../../../../arm-zephyr-eabi/lib/thumb/v8-m.main/nofp\libc_nano.a(lib_a-lock.o)
                0x0000000000010720                __retarget_lock_acquire_recursive
 .text.__retarget_lock_release_recursive
                0x0000000000010722        0x2 d:/ncs/toolchains/v2.0.2/opt/zephyr-sdk/arm-zephyr-eabi/bin/../lib/gcc/arm-zephyr-eabi/10.3.0/../../../../arm-zephyr-eabi/lib/thumb/v8-m.main/nofp\libc_nano.a(lib_a-lock.o)
                0x0000000000010722                __retarget_lock_release_recursive
 *libc_nano*:*(.rodata*)
 .rodata._global_impure_ptr
                0x0000000000010724        0x4 d:/ncs/toolchains/v2.0.2/opt/zephyr-sdk/arm-zephyr-eabi/bin/../lib/gcc/arm-zephyr-eabi/10.3.0/../../../../arm-zephyr-eabi/lib/thumb/v8-m.main/nofp\libc_nano.a(lib_a-impure.o)
                0x0000000000010724                _global_impure_ptr
 *(SFN)
 SFN            0x0000000000010728       0xbc secure_fw/CMakeFiles/tfm_s.dir/partitions/ns_agent/tfm_psa_api_veneers.o
                0x0000000000010728                __acle_se_tfm_psa_framework_version_veneer
                0x0000000000010748                __acle_se_tfm_psa_version_veneer
                0x0000000000010768                __acle_se_tfm_psa_connect_veneer
                0x0000000000010788                __acle_se_tfm_psa_call_veneer
                0x00000000000107ac                __acle_se_tfm_psa_close_veneer
 *libgcc*:*(.text*)
 .text          0x00000000000107e4       0xc8 d:/ncs/toolchains/v2.0.2/opt/zephyr-sdk/arm-zephyr-eabi/bin/../lib/gcc/arm-zephyr-eabi/10.3.0/thumb/v8-m.main/nofp\libgcc.a(cmse.o)
                0x00000000000107e4                cmse_check_address_range
 *libgcc*:*(.rodata*)
 *libtfm_sprt*:*(.text*)
 .text.memset   0x00000000000108ac       0x4e secure_fw/partitions/lib/sprt/libtfm_sprt.a(crt_memset.o)
                0x00000000000108ac                memset
 .text.memcmp   0x00000000000108fa       0x20 secure_fw/partitions/lib/sprt/libtfm_sprt.a(crt_memcmp.o)
                0x00000000000108fa                memcmp
 .text.memcpy   0x000000000001091a       0x6c secure_fw/partitions/lib/sprt/libtfm_sprt.a(crt_memcpy.o)
                0x000000000001091a                memcpy
 .text.tfm_flih_func_return
                0x0000000000010986        0x4 secure_fw/partitions/lib/sprt/libtfm_sprt.a(service_api.o)
                0x0000000000010986                tfm_flih_func_return
 *libtfm_sprt*:*(.rodata*)
 *psa_client.*(.text*)
 *psa_client.*(.rodata*)
 *psa_service.*(.text*)
 *psa_service.*(.rodata*)
 *psa_lifecycle.*(.text*)
 *psa_lifecycle.*(.rodata*)
 *tfm_log_raw.*(.text*)
 *tfm_log_raw.*(.rodata*)
                0x00000000000109a0                . = ALIGN (0x20)
 *fill*         0x000000000001098a       0x16 
                0x00000000000104c0                Image$$TFM_UNPRIV_CODE$$RO$$Base = ADDR (.TFM_UNPRIV_CODE)
                0x00000000000109a0                Image$$TFM_UNPRIV_CODE$$RO$$Limit = (ADDR (.TFM_UNPRIV_CODE) + SIZEOF (.TFM_UNPRIV_CODE))

.TFM_SP_LOAD_LIST
                0x00000000000109a0      0x114
 *(.part_load)
 .part_load     0x00000000000109a0       0x48 secure_fw/CMakeFiles/tfm_s.dir/__/generated/secure_fw/partitions/crypto/auto_generated/load_info_tfm_crypto.o
                0x00000000000109a0                tfm_sp_crypto_load
 .part_load     0x00000000000109e8       0x6c secure_fw/CMakeFiles/tfm_s.dir/__/generated/secure_fw/partitions/platform/auto_generated/load_info_tfm_platform.o
                0x00000000000109e8                tfm_sp_platform_load
 .part_load     0x0000000000010a54       0x30 secure_fw/CMakeFiles/tfm_s.dir/partitions/ns_agent/load_info_ns_agent.o
                0x0000000000010a54                tfm_sp_ns_agent_load
 .part_load     0x0000000000010a84       0x30 secure_fw/CMakeFiles/tfm_s.dir/partitions/idle_partition/load_info_idle_sp.o
                0x0000000000010a84                tfm_sp_idle_load
                0x00000000000109a0                Image$$TFM_SP_LOAD_LIST$$RO$$Base = ADDR (.TFM_SP_LOAD_LIST)
                0x0000000000010ab4                Image$$TFM_SP_LOAD_LIST$$RO$$Limit = (ADDR (.TFM_SP_LOAD_LIST) + SIZEOF (.TFM_SP_LOAD_LIST))
                0x0000000000010ac0                . = ALIGN (0x20)
                0x0000000000010ac0                Image$$TFM_PSA_CODE_START$$Base = .

.TFM_PSA_ROT_LINKER
                0x0000000000010ac0      0x620
 *tfm_psa_rot_partition*:*(.text*)
 .text.tfm_crypto_clear_scratch
                0x0000000000010ac0       0x24 secure_fw/partitions/crypto/libtfm_psa_rot_partition_crypto.a(crypto_init.o)
                0x0000000000010ac0                tfm_crypto_clear_scratch
 .text.tfm_crypto_init
                0x0000000000010ae4      0x1dc secure_fw/partitions/crypto/libtfm_psa_rot_partition_crypto.a(crypto_init.o)
                0x0000000000010ae4                tfm_crypto_init
 .text.tfm_crypto_init_alloc
                0x0000000000010cc0       0x18 secure_fw/partitions/crypto/libtfm_psa_rot_partition_crypto.a(crypto_alloc.o)
                0x0000000000010cc0                tfm_crypto_init_alloc
 .text.tfm_crypto_cipher_generate_iv
                0x0000000000010cd8        0x6 secure_fw/partitions/crypto/libtfm_psa_rot_partition_crypto.a(crypto_cipher.o)
                0x0000000000010cd8                tfm_crypto_cipher_generate_iv
 .text.tfm_crypto_cipher_set_iv
                0x0000000000010cde        0x6 secure_fw/partitions/crypto/libtfm_psa_rot_partition_crypto.a(crypto_cipher.o)
                0x0000000000010cde                tfm_crypto_cipher_set_iv
 .text.tfm_crypto_cipher_encrypt_setup
                0x0000000000010ce4        0x6 secure_fw/partitions/crypto/libtfm_psa_rot_partition_crypto.a(crypto_cipher.o)
                0x0000000000010ce4                tfm_crypto_cipher_encrypt_setup
 .text.tfm_crypto_cipher_decrypt_setup
                0x0000000000010cea        0x6 secure_fw/partitions/crypto/libtfm_psa_rot_partition_crypto.a(crypto_cipher.o)
                0x0000000000010cea                tfm_crypto_cipher_decrypt_setup
 .text.tfm_crypto_cipher_update
                0x0000000000010cf0        0x6 secure_fw/partitions/crypto/libtfm_psa_rot_partition_crypto.a(crypto_cipher.o)
                0x0000000000010cf0                tfm_crypto_cipher_update
 .text.tfm_crypto_cipher_finish
                0x0000000000010cf6        0x6 secure_fw/partitions/crypto/libtfm_psa_rot_partition_crypto.a(crypto_cipher.o)
                0x0000000000010cf6                tfm_crypto_cipher_finish
 .text.tfm_crypto_cipher_abort
                0x0000000000010cfc        0x6 secure_fw/partitions/crypto/libtfm_psa_rot_partition_crypto.a(crypto_cipher.o)
                0x0000000000010cfc                tfm_crypto_cipher_abort
 .text.tfm_crypto_cipher_encrypt
                0x0000000000010d02        0x6 secure_fw/partitions/crypto/libtfm_psa_rot_partition_crypto.a(crypto_cipher.o)
                0x0000000000010d02                tfm_crypto_cipher_encrypt
 .text.tfm_crypto_cipher_decrypt
                0x0000000000010d08        0x6 secure_fw/partitions/crypto/libtfm_psa_rot_partition_crypto.a(crypto_cipher.o)
                0x0000000000010d08                tfm_crypto_cipher_decrypt
 .text.tfm_crypto_hash_setup
                0x0000000000010d0e        0x6 secure_fw/partitions/crypto/libtfm_psa_rot_partition_crypto.a(crypto_hash.o)
                0x0000000000010d0e                tfm_crypto_hash_setup
 .text.tfm_crypto_hash_update
                0x0000000000010d14        0x6 secure_fw/partitions/crypto/libtfm_psa_rot_partition_crypto.a(crypto_hash.o)
                0x0000000000010d14                tfm_crypto_hash_update
 .text.tfm_crypto_hash_finish
                0x0000000000010d1a        0x6 secure_fw/partitions/crypto/libtfm_psa_rot_partition_crypto.a(crypto_hash.o)
                0x0000000000010d1a                tfm_crypto_hash_finish
 .text.tfm_crypto_hash_verify
                0x0000000000010d20        0x6 secure_fw/partitions/crypto/libtfm_psa_rot_partition_crypto.a(crypto_hash.o)
                0x0000000000010d20                tfm_crypto_hash_verify
 .text.tfm_crypto_hash_abort
                0x0000000000010d26        0x6 secure_fw/partitions/crypto/libtfm_psa_rot_partition_crypto.a(crypto_hash.o)
                0x0000000000010d26                tfm_crypto_hash_abort
 .text.tfm_crypto_hash_clone
                0x0000000000010d2c        0x6 secure_fw/partitions/crypto/libtfm_psa_rot_partition_crypto.a(crypto_hash.o)
                0x0000000000010d2c                tfm_crypto_hash_clone
 .text.tfm_crypto_hash_compute
                0x0000000000010d32        0x6 secure_fw/partitions/crypto/libtfm_psa_rot_partition_crypto.a(crypto_hash.o)
                0x0000000000010d32                tfm_crypto_hash_compute
 .text.tfm_crypto_hash_compare
                0x0000000000010d38        0x6 secure_fw/partitions/crypto/libtfm_psa_rot_partition_crypto.a(crypto_hash.o)
                0x0000000000010d38                tfm_crypto_hash_compare
 .text.tfm_crypto_mac_sign_setup
                0x0000000000010d3e        0x6 secure_fw/partitions/crypto/libtfm_psa_rot_partition_crypto.a(crypto_mac.o)
                0x0000000000010d3e                tfm_crypto_mac_sign_setup
 .text.tfm_crypto_mac_verify_setup
                0x0000000000010d44        0x6 secure_fw/partitions/crypto/libtfm_psa_rot_partition_crypto.a(crypto_mac.o)
                0x0000000000010d44                tfm_crypto_mac_verify_setup
 .text.tfm_crypto_mac_update
                0x0000000000010d4a        0x6 secure_fw/partitions/crypto/libtfm_psa_rot_partition_crypto.a(crypto_mac.o)
                0x0000000000010d4a                tfm_crypto_mac_update
 .text.tfm_crypto_mac_sign_finish
                0x0000000000010d50        0x6 secure_fw/partitions/crypto/libtfm_psa_rot_partition_crypto.a(crypto_mac.o)
                0x0000000000010d50                tfm_crypto_mac_sign_finish
 .text.tfm_crypto_mac_verify_finish
                0x0000000000010d56        0x6 secure_fw/partitions/crypto/libtfm_psa_rot_partition_crypto.a(crypto_mac.o)
                0x0000000000010d56                tfm_crypto_mac_verify_finish
 .text.tfm_crypto_mac_abort
                0x0000000000010d5c        0x6 secure_fw/partitions/crypto/libtfm_psa_rot_partition_crypto.a(crypto_mac.o)
                0x0000000000010d5c                tfm_crypto_mac_abort
 .text.tfm_crypto_mac_compute
                0x0000000000010d62        0x6 secure_fw/partitions/crypto/libtfm_psa_rot_partition_crypto.a(crypto_mac.o)
                0x0000000000010d62                tfm_crypto_mac_compute
 .text.tfm_crypto_mac_verify
                0x0000000000010d68        0x6 secure_fw/partitions/crypto/libtfm_psa_rot_partition_crypto.a(crypto_mac.o)
                0x0000000000010d68                tfm_crypto_mac_verify
 .text.tfm_crypto_aead_encrypt
                0x0000000000010d6e        0x6 secure_fw/partitions/crypto/libtfm_psa_rot_partition_crypto.a(crypto_aead.o)
                0x0000000000010d6e                tfm_crypto_aead_encrypt
 .text.tfm_crypto_aead_decrypt
                0x0000000000010d74        0x6 secure_fw/partitions/crypto/libtfm_psa_rot_partition_crypto.a(crypto_aead.o)
                0x0000000000010d74                tfm_crypto_aead_decrypt
 .text.tfm_crypto_aead_encrypt_setup
                0x0000000000010d7a        0x6 secure_fw/partitions/crypto/libtfm_psa_rot_partition_crypto.a(crypto_aead.o)
                0x0000000000010d7a                tfm_crypto_aead_encrypt_setup
 .text.tfm_crypto_aead_decrypt_setup
                0x0000000000010d80        0x6 secure_fw/partitions/crypto/libtfm_psa_rot_partition_crypto.a(crypto_aead.o)
                0x0000000000010d80                tfm_crypto_aead_decrypt_setup
 .text.tfm_crypto_aead_abort
                0x0000000000010d86        0x6 secure_fw/partitions/crypto/libtfm_psa_rot_partition_crypto.a(crypto_aead.o)
                0x0000000000010d86                tfm_crypto_aead_abort
 .text.tfm_crypto_aead_finish
                0x0000000000010d8c        0x6 secure_fw/partitions/crypto/libtfm_psa_rot_partition_crypto.a(crypto_aead.o)
                0x0000000000010d8c                tfm_crypto_aead_finish
 .text.tfm_crypto_aead_generate_nonce
                0x0000000000010d92        0x6 secure_fw/partitions/crypto/libtfm_psa_rot_partition_crypto.a(crypto_aead.o)
                0x0000000000010d92                tfm_crypto_aead_generate_nonce
 .text.tfm_crypto_aead_set_nonce
                0x0000000000010d98        0x6 secure_fw/partitions/crypto/libtfm_psa_rot_partition_crypto.a(crypto_aead.o)
                0x0000000000010d98                tfm_crypto_aead_set_nonce
 .text.tfm_crypto_aead_set_lengths
                0x0000000000010d9e        0x6 secure_fw/partitions/crypto/libtfm_psa_rot_partition_crypto.a(crypto_aead.o)
                0x0000000000010d9e                tfm_crypto_aead_set_lengths
 .text.tfm_crypto_aead_update
                0x0000000000010da4        0x6 secure_fw/partitions/crypto/libtfm_psa_rot_partition_crypto.a(crypto_aead.o)
                0x0000000000010da4                tfm_crypto_aead_update
 .text.tfm_crypto_aead_update_ad
                0x0000000000010daa        0x6 secure_fw/partitions/crypto/libtfm_psa_rot_partition_crypto.a(crypto_aead.o)
                0x0000000000010daa                tfm_crypto_aead_update_ad
 .text.tfm_crypto_aead_verify
                0x0000000000010db0        0x6 secure_fw/partitions/crypto/libtfm_psa_rot_partition_crypto.a(crypto_aead.o)
                0x0000000000010db0                tfm_crypto_aead_verify
 .text.tfm_crypto_sign_message
                0x0000000000010db6        0x6 secure_fw/partitions/crypto/libtfm_psa_rot_partition_crypto.a(crypto_asymmetric.o)
                0x0000000000010db6                tfm_crypto_sign_message
 .text.tfm_crypto_verify_message
                0x0000000000010dbc        0x6 secure_fw/partitions/crypto/libtfm_psa_rot_partition_crypto.a(crypto_asymmetric.o)
                0x0000000000010dbc                tfm_crypto_verify_message
 .text.tfm_crypto_sign_hash
                0x0000000000010dc2        0x6 secure_fw/partitions/crypto/libtfm_psa_rot_partition_crypto.a(crypto_asymmetric.o)
                0x0000000000010dc2                tfm_crypto_sign_hash
 .text.tfm_crypto_verify_hash
                0x0000000000010dc8        0x6 secure_fw/partitions/crypto/libtfm_psa_rot_partition_crypto.a(crypto_asymmetric.o)
                0x0000000000010dc8                tfm_crypto_verify_hash
 .text.tfm_crypto_asymmetric_encrypt
                0x0000000000010dce        0x6 secure_fw/partitions/crypto/libtfm_psa_rot_partition_crypto.a(crypto_asymmetric.o)
                0x0000000000010dce                tfm_crypto_asymmetric_encrypt
 .text.tfm_crypto_asymmetric_decrypt
                0x0000000000010dd4        0x6 secure_fw/partitions/crypto/libtfm_psa_rot_partition_crypto.a(crypto_asymmetric.o)
                0x0000000000010dd4                tfm_crypto_asymmetric_decrypt
 .text.tfm_crypto_key_derivation_setup
                0x0000000000010dda        0x6 secure_fw/partitions/crypto/libtfm_psa_rot_partition_crypto.a(crypto_key_derivation.o)
                0x0000000000010dda                tfm_crypto_key_derivation_setup
 .text.tfm_crypto_key_derivation_get_capacity
                0x0000000000010de0        0x6 secure_fw/partitions/crypto/libtfm_psa_rot_partition_crypto.a(crypto_key_derivation.o)
                0x0000000000010de0                tfm_crypto_key_derivation_get_capacity
 .text.tfm_crypto_key_derivation_set_capacity
                0x0000000000010de6        0x6 secure_fw/partitions/crypto/libtfm_psa_rot_partition_crypto.a(crypto_key_derivation.o)
                0x0000000000010de6                tfm_crypto_key_derivation_set_capacity
 .text.tfm_crypto_key_derivation_input_bytes
                0x0000000000010dec        0x6 secure_fw/partitions/crypto/libtfm_psa_rot_partition_crypto.a(crypto_key_derivation.o)
                0x0000000000010dec                tfm_crypto_key_derivation_input_bytes
 .text.tfm_crypto_key_derivation_output_bytes
                0x0000000000010df2        0x6 secure_fw/partitions/crypto/libtfm_psa_rot_partition_crypto.a(crypto_key_derivation.o)
                0x0000000000010df2                tfm_crypto_key_derivation_output_bytes
 .text.tfm_crypto_key_derivation_input_key
                0x0000000000010df8        0x6 secure_fw/partitions/crypto/libtfm_psa_rot_partition_crypto.a(crypto_key_derivation.o)
                0x0000000000010df8                tfm_crypto_key_derivation_input_key
 .text.tfm_crypto_key_derivation_output_key
                0x0000000000010dfe        0x6 secure_fw/partitions/crypto/libtfm_psa_rot_partition_crypto.a(crypto_key_derivation.o)
                0x0000000000010dfe                tfm_crypto_key_derivation_output_key
 .text.tfm_crypto_key_derivation_abort
                0x0000000000010e04        0x6 secure_fw/partitions/crypto/libtfm_psa_rot_partition_crypto.a(crypto_key_derivation.o)
                0x0000000000010e04                tfm_crypto_key_derivation_abort
 .text.tfm_crypto_key_derivation_key_agreement
                0x0000000000010e0a        0x6 secure_fw/partitions/crypto/libtfm_psa_rot_partition_crypto.a(crypto_key_derivation.o)
                0x0000000000010e0a                tfm_crypto_key_derivation_key_agreement
 .text.tfm_crypto_raw_key_agreement
                0x0000000000010e10        0x6 secure_fw/partitions/crypto/libtfm_psa_rot_partition_crypto.a(crypto_key_derivation.o)
                0x0000000000010e10                tfm_crypto_raw_key_agreement
 .text.tfm_crypto_import_key
                0x0000000000010e16        0x6 secure_fw/partitions/crypto/libtfm_psa_rot_partition_crypto.a(crypto_key_management.o)
                0x0000000000010e16                tfm_crypto_import_key
 .text.tfm_crypto_open_key
                0x0000000000010e1c        0x6 secure_fw/partitions/crypto/libtfm_psa_rot_partition_crypto.a(crypto_key_management.o)
                0x0000000000010e1c                tfm_crypto_open_key
 .text.tfm_crypto_close_key
                0x0000000000010e22        0x6 secure_fw/partitions/crypto/libtfm_psa_rot_partition_crypto.a(crypto_key_management.o)
                0x0000000000010e22                tfm_crypto_close_key
 .text.tfm_crypto_destroy_key
                0x0000000000010e28        0x6 secure_fw/partitions/crypto/libtfm_psa_rot_partition_crypto.a(crypto_key_management.o)
                0x0000000000010e28                tfm_crypto_destroy_key
 .text.tfm_crypto_get_key_attributes
                0x0000000000010e2e        0x6 secure_fw/partitions/crypto/libtfm_psa_rot_partition_crypto.a(crypto_key_management.o)
                0x0000000000010e2e                tfm_crypto_get_key_attributes
 .text.tfm_crypto_reset_key_attributes
                0x0000000000010e34        0x6 secure_fw/partitions/crypto/libtfm_psa_rot_partition_crypto.a(crypto_key_management.o)
                0x0000000000010e34                tfm_crypto_reset_key_attributes
 .text.tfm_crypto_export_key
                0x0000000000010e3a        0x6 secure_fw/partitions/crypto/libtfm_psa_rot_partition_crypto.a(crypto_key_management.o)
                0x0000000000010e3a                tfm_crypto_export_key
 .text.tfm_crypto_export_public_key
                0x0000000000010e40        0x6 secure_fw/partitions/crypto/libtfm_psa_rot_partition_crypto.a(crypto_key_management.o)
                0x0000000000010e40                tfm_crypto_export_public_key
 .text.tfm_crypto_purge_key
                0x0000000000010e46        0x6 secure_fw/partitions/crypto/libtfm_psa_rot_partition_crypto.a(crypto_key_management.o)
                0x0000000000010e46                tfm_crypto_purge_key
 .text.tfm_crypto_copy_key
                0x0000000000010e4c        0x6 secure_fw/partitions/crypto/libtfm_psa_rot_partition_crypto.a(crypto_key_management.o)
                0x0000000000010e4c                tfm_crypto_copy_key
 .text.tfm_crypto_generate_key
                0x0000000000010e52        0x6 secure_fw/partitions/crypto/libtfm_psa_rot_partition_crypto.a(crypto_key_management.o)
                0x0000000000010e52                tfm_crypto_generate_key
 .text.tfm_crypto_generate_random
                0x0000000000010e58       0x1c secure_fw/partitions/crypto/libtfm_psa_rot_partition_crypto.a(crypto_rng.o)
                0x0000000000010e58                tfm_crypto_generate_random
 .text.platform_sp_nv_counter_ipc
                0x0000000000010e74        0x6 secure_fw/partitions/platform/libtfm_psa_rot_partition_platform.a(platform_sp.o)
 .text.platform_sp_system_reset_ipc
                0x0000000000010e7a        0xa secure_fw/partitions/platform/libtfm_psa_rot_partition_platform.a(platform_sp.o)
 .text.platform_sp_ioctl_ipc
                0x0000000000010e84       0xd6 secure_fw/partitions/platform/libtfm_psa_rot_partition_platform.a(platform_sp.o)
 .text.platform_signal_handle
                0x0000000000010f5a       0x3a secure_fw/partitions/platform/libtfm_psa_rot_partition_platform.a(platform_sp.o)
 .text.platform_sp_init
                0x0000000000010f94       0x48 secure_fw/partitions/platform/libtfm_psa_rot_partition_platform.a(platform_sp.o)
                0x0000000000010f94                platform_sp_init
 *tfm_psa_rot_partition*:*(.rodata*)
 .rodata.sfid_func_table
                0x0000000000010fdc      0x104 secure_fw/partitions/crypto/libtfm_psa_rot_partition_crypto.a(crypto_init.o)
 *(TFM_*_PSA-ROT_ATTR_FN)
                0x00000000000110e0                . = ALIGN (0x20)
                0x0000000000010ac0                Image$$TFM_PSA_ROT_LINKER$$RO$$Base = ADDR (.TFM_PSA_ROT_LINKER)
                0x00000000000110e0                Image$$TFM_PSA_ROT_LINKER$$RO$$Limit = (ADDR (.TFM_PSA_ROT_LINKER) + SIZEOF (.TFM_PSA_ROT_LINKER))
                0x0000000000010ac0                Image$$TFM_PSA_ROT_LINKER$$Base = ADDR (.TFM_PSA_ROT_LINKER)
                0x00000000000110e0                Image$$TFM_PSA_ROT_LINKER$$Limit = (ADDR (.TFM_PSA_ROT_LINKER) + SIZEOF (.TFM_PSA_ROT_LINKER))
                0x00000000000110e0                Image$$TFM_PSA_CODE_END$$Base = .
                0x00000000000110e0                Image$$TFM_APP_CODE_START$$Base = .

.TFM_APP_ROT_LINKER
                0x00000000000110e0        0x0
 *tfm_app_rot_partition*:*(.text*)
 *tfm_app_rot_partition*:*(.rodata*)
 *(TFM_*_APP-ROT_ATTR_FN)
                0x00000000000110e0                . = ALIGN (0x20)
                0x00000000000110e0                Image$$TFM_APP_ROT_LINKER$$RO$$Base = ADDR (.TFM_APP_ROT_LINKER)
                0x00000000000110e0                Image$$TFM_APP_ROT_LINKER$$RO$$Limit = (ADDR (.TFM_APP_ROT_LINKER) + SIZEOF (.TFM_APP_ROT_LINKER))
                0x00000000000110e0                Image$$TFM_APP_ROT_LINKER$$Base = ADDR (.TFM_APP_ROT_LINKER)
                0x00000000000110e0                Image$$TFM_APP_ROT_LINKER$$Limit = (ADDR (.TFM_APP_ROT_LINKER) + SIZEOF (.TFM_APP_ROT_LINKER))
                0x00000000000110e0                Image$$TFM_APP_CODE_END$$Base = .

.ER_TFM_CODE    0x00000000000110e0     0x458c
 *(.text*)
 .text          0x00000000000110e0       0x40 d:/ncs/toolchains/v2.0.2/opt/zephyr-sdk/arm-zephyr-eabi/bin/../lib/gcc/arm-zephyr-eabi/10.3.0/thumb/v8-m.main/nofp/crtbegin.o
 .text          0x0000000000011120       0x7c d:/ncs/toolchains/v2.0.2/opt/zephyr-sdk/arm-zephyr-eabi/bin/../lib/gcc/arm-zephyr-eabi/10.3.0/../../../../arm-zephyr-eabi/lib/thumb/v8-m.main/nofp/crt0.o
                0x0000000000011120                _stack_init
                0x0000000000011128                _start
                0x0000000000011128                _mainCRTStartup
 .text.C_HardFault_Handler
                0x000000000001119c        0x4 secure_fw/CMakeFiles/tfm_s.dir/__/platform/ext/common/faults.o
                0x000000000001119c                C_HardFault_Handler
 .text.HardFault_Handler
                0x00000000000111a0        0x6 secure_fw/CMakeFiles/tfm_s.dir/__/platform/ext/common/faults.o
                0x00000000000111a0                HardFault_Handler
 .text.C_MemManage_Handler
                0x00000000000111a6        0x4 secure_fw/CMakeFiles/tfm_s.dir/__/platform/ext/common/faults.o
                0x00000000000111a6                C_MemManage_Handler
 .text.MemManage_Handler
                0x00000000000111aa        0x6 secure_fw/CMakeFiles/tfm_s.dir/__/platform/ext/common/faults.o
                0x00000000000111aa                MemManage_Handler
 .text.C_BusFault_Handler
                0x00000000000111b0        0x4 secure_fw/CMakeFiles/tfm_s.dir/__/platform/ext/common/faults.o
                0x00000000000111b0                C_BusFault_Handler
 .text.BusFault_Handler
                0x00000000000111b4        0x6 secure_fw/CMakeFiles/tfm_s.dir/__/platform/ext/common/faults.o
                0x00000000000111b4                BusFault_Handler
 .text.C_SecureFault_Handler
                0x00000000000111ba        0x4 secure_fw/CMakeFiles/tfm_s.dir/__/platform/ext/common/faults.o
                0x00000000000111ba                C_SecureFault_Handler
 .text.SecureFault_Handler
                0x00000000000111be        0x6 secure_fw/CMakeFiles/tfm_s.dir/__/platform/ext/common/faults.o
                0x00000000000111be                SecureFault_Handler
 .text.C_UsageFault_Handler
                0x00000000000111c4        0x4 secure_fw/CMakeFiles/tfm_s.dir/__/platform/ext/common/faults.o
                0x00000000000111c4                C_UsageFault_Handler
 .text.UsageFault_Handler
                0x00000000000111c8        0x6 secure_fw/CMakeFiles/tfm_s.dir/__/platform/ext/common/faults.o
                0x00000000000111c8                UsageFault_Handler
 *fill*         0x00000000000111ce        0x2 
 .text.hw_init_reset_on_boot
                0x00000000000111d0       0x68 platform/libplatform_s.a(hw_init.o)
                0x00000000000111d0                hw_init_reset_on_boot
 .text.nrf91_errata_14
                0x0000000000011238       0x20 platform/libplatform_s.a(system_nrf9160.o)
 .text.SystemInit
                0x0000000000011258      0x190 platform/libplatform_s.a(system_nrf9160.o)
                0x0000000000011258                SystemInit
 .text.startup.main
                0x00000000000113e8       0x10 secure_fw/spm/libtfm_spm.a(main.o)
                0x00000000000113e8                main
 .text.c_main   0x00000000000113f8       0x50 secure_fw/spm/libtfm_spm.a(main.o)
                0x00000000000113f8                c_main
 .text.spcall_execute_c
                0x0000000000011448       0x14 secure_fw/spm/libtfm_spm.a(spm_thread_call.o)
                0x0000000000011448                spcall_execute_c
 .text.spm_interface_thread_dispatcher
                0x000000000001145c       0x34 secure_fw/spm/libtfm_spm.a(spm_thread_call.o)
                0x000000000001145c                spm_interface_thread_dispatcher
 .text.tfm_spm_get_lifecycle_state
                0x0000000000011490        0x4 secure_fw/spm/libtfm_spm.a(psa_api.o)
                0x0000000000011490                tfm_spm_get_lifecycle_state
 .text.tfm_spm_client_psa_framework_version
                0x0000000000011494        0x6 secure_fw/spm/libtfm_spm.a(psa_api.o)
                0x0000000000011494                tfm_spm_client_psa_framework_version
 .text.tfm_spm_client_psa_version
                0x000000000001149a       0x2c secure_fw/spm/libtfm_spm.a(psa_api.o)
                0x000000000001149a                tfm_spm_client_psa_version
 *fill*         0x00000000000114c6        0x2 
 .text.tfm_spm_client_psa_connect
                0x00000000000114c8       0xc8 secure_fw/spm/libtfm_spm.a(psa_api.o)
                0x00000000000114c8                tfm_spm_client_psa_connect
 .text.tfm_spm_client_psa_call
                0x0000000000011590      0x288 secure_fw/spm/libtfm_spm.a(psa_api.o)
                0x0000000000011590                tfm_spm_client_psa_call
 .text.tfm_spm_client_psa_close
                0x0000000000011818       0x9c secure_fw/spm/libtfm_spm.a(psa_api.o)
                0x0000000000011818                tfm_spm_client_psa_close
 .text.tfm_spm_partition_psa_wait
                0x00000000000118b4       0x40 secure_fw/spm/libtfm_spm.a(psa_api.o)
                0x00000000000118b4                tfm_spm_partition_psa_wait
 .text.tfm_spm_partition_psa_get
                0x00000000000118f4       0x74 secure_fw/spm/libtfm_spm.a(psa_api.o)
                0x00000000000118f4                tfm_spm_partition_psa_get
 .text.tfm_spm_partition_psa_set_rhandle
                0x0000000000011968       0x36 secure_fw/spm/libtfm_spm.a(psa_api.o)
                0x0000000000011968                tfm_spm_partition_psa_set_rhandle
 .text.tfm_spm_partition_psa_read
                0x000000000001199e       0x7e secure_fw/spm/libtfm_spm.a(psa_api.o)
                0x000000000001199e                tfm_spm_partition_psa_read
 .text.tfm_spm_partition_psa_skip
                0x0000000000011a1c       0x46 secure_fw/spm/libtfm_spm.a(psa_api.o)
                0x0000000000011a1c                tfm_spm_partition_psa_skip
 .text.tfm_spm_partition_psa_write
                0x0000000000011a62       0x7c secure_fw/spm/libtfm_spm.a(psa_api.o)
                0x0000000000011a62                tfm_spm_partition_psa_write
 *fill*         0x0000000000011ade        0x2 
 .text.tfm_spm_partition_psa_reply
                0x0000000000011ae0       0xac secure_fw/spm/libtfm_spm.a(psa_api.o)
                0x0000000000011ae0                tfm_spm_partition_psa_reply
 .text.tfm_spm_partition_psa_notify
                0x0000000000011b8c       0x10 secure_fw/spm/libtfm_spm.a(psa_api.o)
                0x0000000000011b8c                tfm_spm_partition_psa_notify
 .text.tfm_spm_partition_psa_clear
                0x0000000000011b9c       0x2c secure_fw/spm/libtfm_spm.a(psa_api.o)
                0x0000000000011b9c                tfm_spm_partition_psa_clear
 .text.tfm_spm_partition_psa_eoi
                0x0000000000011bc8       0x54 secure_fw/spm/libtfm_spm.a(psa_api.o)
                0x0000000000011bc8                tfm_spm_partition_psa_eoi
 .text.tfm_spm_partition_psa_panic
                0x0000000000011c1c        0x4 secure_fw/spm/libtfm_spm.a(psa_api.o)
                0x0000000000011c1c                tfm_spm_partition_psa_panic
 .text.tfm_spm_partition_irq_enable
                0x0000000000011c20       0x2a secure_fw/spm/libtfm_spm.a(psa_api.o)
                0x0000000000011c20                tfm_spm_partition_irq_enable
 .text.tfm_spm_partition_irq_disable
                0x0000000000011c4a       0x2a secure_fw/spm/libtfm_spm.a(psa_api.o)
                0x0000000000011c4a                tfm_spm_partition_irq_disable
 .text.tfm_spm_partition_psa_reset_signal
                0x0000000000011c74       0x46 secure_fw/spm/libtfm_spm.a(psa_api.o)
                0x0000000000011c74                tfm_spm_partition_psa_reset_signal
 .text.ipc_replying
                0x0000000000011cba        0xc secure_fw/spm/libtfm_spm.a(backend.o)
 *fill*         0x0000000000011cc6        0x2 
 .text.ipc_messaging
                0x0000000000011cc8       0x74 secure_fw/spm/libtfm_spm.a(backend.o)
 .text.ipc_system_run
                0x0000000000011d3c       0x28 secure_fw/spm/libtfm_spm.a(backend.o)
 .text.ipc_comp_init_assuredly
                0x0000000000011d64       0x54 secure_fw/spm/libtfm_spm.a(backend.o)
 .text.tfm_flih_prepare_depriv_flih
                0x0000000000011db8       0x68 secure_fw/spm/libtfm_spm.a(tfm_core_svcalls_ipc.o)
                0x0000000000011db8                tfm_flih_prepare_depriv_flih
 .text.tfm_flih_return_to_isr
                0x0000000000011e20       0x40 secure_fw/spm/libtfm_spm.a(tfm_core_svcalls_ipc.o)
                0x0000000000011e20                tfm_flih_return_to_isr
 .text.tfm_core_svc_handler
                0x0000000000011e60      0x17c secure_fw/spm/libtfm_spm.a(tfm_core_svcalls_ipc.o)
                0x0000000000011e60                tfm_core_svc_handler
 .text.tfm_core_handler_mode
                0x0000000000011fdc        0x4 secure_fw/spm/libtfm_spm.a(tfm_core_svcalls_ipc.o)
                0x0000000000011fdc                tfm_core_handler_mode
 .text.tfm_access_violation_handler
                0x0000000000011fe0        0x4 secure_fw/spm/libtfm_spm.a(tfm_core_svcalls_ipc.o)
                0x0000000000011fe0                tfm_access_violation_handler
 .text.configure_ns_code
                0x0000000000011fe4       0x18 secure_fw/spm/libtfm_spm.a(tfm_nspm_ipc.o)
                0x0000000000011fe4                configure_ns_code
 .text.thrd_next
                0x0000000000011ffc       0x18 secure_fw/spm/libtfm_spm.a(thread.o)
                0x0000000000011ffc                thrd_next
 .text.thrd_set_state
                0x0000000000012014       0x28 secure_fw/spm/libtfm_spm.a(thread.o)
                0x0000000000012014                thrd_set_state
 .text.thrd_start
                0x000000000001203c       0x54 secure_fw/spm/libtfm_spm.a(thread.o)
                0x000000000001203c                thrd_start
 .text.thrd_start_scheduler
                0x0000000000012090       0x1c secure_fw/spm/libtfm_spm.a(thread.o)
                0x0000000000012090                thrd_start_scheduler
 .text.thrd_wait_on
                0x00000000000120ac       0x18 secure_fw/spm/libtfm_spm.a(thread.o)
                0x00000000000120ac                thrd_wait_on
 .text.thrd_wake_up
                0x00000000000120c4       0x26 secure_fw/spm/libtfm_spm.a(thread.o)
                0x00000000000120c4                thrd_wake_up
 *fill*         0x00000000000120ea        0x2 
 .text.arch_non_preempt_call
                0x00000000000120ec       0x4c secure_fw/spm/libtfm_spm.a(tfm_arch_v8m_main.o)
                0x00000000000120ec                arch_non_preempt_call
 .text.PendSV_Handler
                0x0000000000012138       0x38 secure_fw/spm/libtfm_spm.a(tfm_arch_v8m_main.o)
                0x0000000000012138                PendSV_Handler
 .text.SVC_Handler
                0x0000000000012170       0x4c secure_fw/spm/libtfm_spm.a(tfm_arch_v8m_main.o)
                0x0000000000012170                SVC_Handler
 .text.tfm_arch_set_secure_exception_priorities
                0x00000000000121bc       0x28 secure_fw/spm/libtfm_spm.a(tfm_arch_v8m_main.o)
                0x00000000000121bc                tfm_arch_set_secure_exception_priorities
 .text.tfm_arch_config_extensions
                0x00000000000121e4        0x2 secure_fw/spm/libtfm_spm.a(tfm_arch_v8m_main.o)
                0x00000000000121e4                tfm_arch_config_extensions
 .text.tfm_arch_clear_fp_status
                0x00000000000121e6       0x12 secure_fw/spm/libtfm_spm.a(tfm_arch_v8m_main.o)
                0x00000000000121e6                tfm_arch_clear_fp_status
 .text.tfm_nspm_thread_entry
                0x00000000000121f8       0x20 secure_fw/spm/libtfm_spm.a(ns_agent.o)
                0x00000000000121f8                tfm_nspm_thread_entry
 .text.tfm_idle_thread
                0x0000000000012218       0x14 secure_fw/spm/libtfm_spm.a(idle_partition.o)
                0x0000000000012218                tfm_idle_thread
 .text.tfm_core_validate_boot_data
                0x000000000001222c        0xc secure_fw/spm/libtfm_spm.a(tfm_boot_data.o)
                0x000000000001222c                tfm_core_validate_boot_data
 .text.tfm_core_get_boot_data_handler
                0x0000000000012238       0x48 secure_fw/spm/libtfm_spm.a(tfm_boot_data.o)
                0x0000000000012238                tfm_core_get_boot_data_handler
 .text.spm_memcpy
                0x0000000000012280       0x6c secure_fw/spm/libtfm_spm.a(tfm_core_utils.o)
                0x0000000000012280                spm_memcpy
 .text.spm_memset
                0x00000000000122ec       0x4e secure_fw/spm/libtfm_spm.a(tfm_core_utils.o)
                0x00000000000122ec                spm_memset
 .text.tfm_core_panic
                0x000000000001233a        0x4 secure_fw/spm/libtfm_spm.a(utilities.o)
                0x000000000001233a                tfm_core_panic
 .text.tfm_arch_free_msp_and_exc_ret
                0x000000000001233e        0x8 secure_fw/spm/libtfm_spm.a(tfm_arch.o)
                0x000000000001233e                tfm_arch_free_msp_and_exc_ret
 .text.tfm_arch_set_context_ret_code
                0x0000000000012346        0x6 secure_fw/spm/libtfm_spm.a(tfm_arch.o)
                0x0000000000012346                tfm_arch_set_context_ret_code
 .text.tfm_arch_trigger_pendsv
                0x000000000001234c       0x18 secure_fw/spm/libtfm_spm.a(tfm_arch.o)
                0x000000000001234c                tfm_arch_trigger_pendsv
 .text.tfm_arch_init_context
                0x0000000000012364       0x48 secure_fw/spm/libtfm_spm.a(tfm_arch.o)
                0x0000000000012364                tfm_arch_init_context
 .text.tfm_arch_refresh_hardware_context
                0x00000000000123ac       0x12 secure_fw/spm/libtfm_spm.a(tfm_arch.o)
                0x00000000000123ac                tfm_arch_refresh_hardware_context
 *fill*         0x00000000000123be        0x2 
 .text.tfm_spm_to_user_handle
                0x00000000000123c0       0x20 secure_fw/spm/libtfm_spm.a(spm_ipc.o)
                0x00000000000123c0                tfm_spm_to_user_handle
 .text.tfm_spm_to_handle_instance
                0x00000000000123e0       0x10 secure_fw/spm/libtfm_spm.a(spm_ipc.o)
                0x00000000000123e0                tfm_spm_to_handle_instance
 .text.tfm_spm_create_conn_handle
                0x00000000000123f0       0x3c secure_fw/spm/libtfm_spm.a(spm_ipc.o)
                0x00000000000123f0                tfm_spm_create_conn_handle
 .text.tfm_spm_validate_conn_handle
                0x000000000001242c       0x28 secure_fw/spm/libtfm_spm.a(spm_ipc.o)
                0x000000000001242c                tfm_spm_validate_conn_handle
 .text.tfm_spm_free_conn_handle
                0x0000000000012454       0x28 secure_fw/spm/libtfm_spm.a(spm_ipc.o)
                0x0000000000012454                tfm_spm_free_conn_handle
 .text.tfm_spm_set_rhandle
                0x000000000001247c        0x6 secure_fw/spm/libtfm_spm.a(spm_ipc.o)
                0x000000000001247c                tfm_spm_set_rhandle
 .text.tfm_spm_get_msg_by_signal
                0x0000000000012482       0x50 secure_fw/spm/libtfm_spm.a(spm_ipc.o)
                0x0000000000012482                tfm_spm_get_msg_by_signal
 .text.tfm_spm_partition_get_privileged_mode
                0x00000000000124d2        0x4 secure_fw/spm/libtfm_spm.a(spm_ipc.o)
                0x00000000000124d2                tfm_spm_partition_get_privileged_mode
 *fill*         0x00000000000124d6        0x2 
 .text.tfm_spm_get_service_by_sid
                0x00000000000124d8       0x2c secure_fw/spm/libtfm_spm.a(spm_ipc.o)
                0x00000000000124d8                tfm_spm_get_service_by_sid
 .text.tfm_spm_get_partition_by_id
                0x0000000000012504       0x1c secure_fw/spm/libtfm_spm.a(spm_ipc.o)
                0x0000000000012504                tfm_spm_get_partition_by_id
 .text.tfm_spm_get_running_partition
                0x0000000000012520       0x10 secure_fw/spm/libtfm_spm.a(spm_ipc.o)
                0x0000000000012520                tfm_spm_get_running_partition
 .text.tfm_spm_check_client_version
                0x0000000000012530       0x24 secure_fw/spm/libtfm_spm.a(spm_ipc.o)
                0x0000000000012530                tfm_spm_check_client_version
 .text.tfm_spm_check_authorization
                0x0000000000012554       0x40 secure_fw/spm/libtfm_spm.a(spm_ipc.o)
                0x0000000000012554                tfm_spm_check_authorization
 .text.tfm_spm_get_msg_buffer_from_conn_handle
                0x0000000000012594        0x4 secure_fw/spm/libtfm_spm.a(spm_ipc.o)
                0x0000000000012594                tfm_spm_get_msg_buffer_from_conn_handle
 .text.tfm_spm_fill_msg
                0x0000000000012598       0xa8 secure_fw/spm/libtfm_spm.a(spm_ipc.o)
                0x0000000000012598                tfm_spm_fill_msg
 .text.tfm_spm_partition_get_running_partition_id
                0x0000000000012640       0x16 secure_fw/spm/libtfm_spm.a(spm_ipc.o)
                0x0000000000012640                tfm_spm_partition_get_running_partition_id
 *fill*         0x0000000000012656        0x2 
 .text.tfm_spm_get_msg_from_handle
                0x0000000000012658       0x3c secure_fw/spm/libtfm_spm.a(spm_ipc.o)
                0x0000000000012658                tfm_spm_get_msg_from_handle
 .text.tfm_memory_check
                0x0000000000012694       0x40 secure_fw/spm/libtfm_spm.a(spm_ipc.o)
                0x0000000000012694                tfm_memory_check
 .text.tfm_spm_is_ns_caller
                0x00000000000126d4       0x1a secure_fw/spm/libtfm_spm.a(spm_ipc.o)
                0x00000000000126d4                tfm_spm_is_ns_caller
 .text.tfm_spm_get_caller_privilege_mode
                0x00000000000126ee       0x10 secure_fw/spm/libtfm_spm.a(spm_ipc.o)
                0x00000000000126ee                tfm_spm_get_caller_privilege_mode
 .text.tfm_spm_get_client_id
                0x00000000000126fe       0x20 secure_fw/spm/libtfm_spm.a(spm_ipc.o)
                0x00000000000126fe                tfm_spm_get_client_id
 *fill*         0x000000000001271e        0x2 
 .text.tfm_spm_init
                0x0000000000012720       0x8c secure_fw/spm/libtfm_spm.a(spm_ipc.o)
                0x0000000000012720                tfm_spm_init
 .text.do_schedule
                0x00000000000127ac       0x60 secure_fw/spm/libtfm_spm.a(spm_ipc.o)
                0x00000000000127ac                do_schedule
 .text.update_caller_outvec_len
                0x000000000001280c       0x28 secure_fw/spm/libtfm_spm.a(spm_ipc.o)
                0x000000000001280c                update_caller_outvec_len
 .text.spm_assert_signal
                0x0000000000012834       0x36 secure_fw/spm/libtfm_spm.a(spm_ipc.o)
                0x0000000000012834                spm_assert_signal
 .text.get_irq_info_for_signal
                0x000000000001286a       0x3c secure_fw/spm/libtfm_spm.a(spm_ipc.o)
                0x000000000001286a                get_irq_info_for_signal
 *fill*         0x00000000000128a6        0x2 
 .text.load_a_partition_assuredly
                0x00000000000128a8       0xd0 secure_fw/spm/libtfm_spm.a(static_load.o)
                0x00000000000128a8                load_a_partition_assuredly
 .text.load_services_assuredly
                0x0000000000012978       0xcc secure_fw/spm/libtfm_spm.a(static_load.o)
                0x0000000000012978                load_services_assuredly
 .text.load_irqs_assuredly
                0x0000000000012a44       0x7c secure_fw/spm/libtfm_spm.a(static_load.o)
                0x0000000000012a44                load_irqs_assuredly
 .text.tfm_pool_init
                0x0000000000012ac0       0x68 secure_fw/spm/libtfm_spm.a(tfm_pools.o)
                0x0000000000012ac0                tfm_pool_init
 .text.tfm_pool_alloc
                0x0000000000012b28       0x1c secure_fw/spm/libtfm_spm.a(tfm_pools.o)
                0x0000000000012b28                tfm_pool_alloc
 .text.tfm_pool_free
                0x0000000000012b44       0x16 secure_fw/spm/libtfm_spm.a(tfm_pools.o)
                0x0000000000012b44                tfm_pool_free
 .text.is_valid_chunk_data_in_pool
                0x0000000000012b5a       0x30 secure_fw/spm/libtfm_spm.a(tfm_pools.o)
                0x0000000000012b5a                is_valid_chunk_data_in_pool
 .text.tfm_nspm_get_current_client_id
                0x0000000000012b8a        0x6 secure_fw/spm/libtfm_spm.a(tfm_spm_ns_ctx.o)
                0x0000000000012b8a                tfm_nspm_get_current_client_id
 .text.tfm_nspm_ctx_init
                0x0000000000012b90        0x2 secure_fw/spm/libtfm_spm.a(tfm_spm_ns_ctx.o)
                0x0000000000012b90                tfm_nspm_ctx_init
 *fill*         0x0000000000012b92        0x2 
 .text.SPU_IRQHandler
                0x0000000000012b94       0x1c platform/libplatform_s.a(spm_hal.o)
                0x0000000000012b94                SPU_IRQHandler
 .text.tfm_spm_hal_get_ns_VTOR
                0x0000000000012bb0        0xc platform/libplatform_s.a(spm_hal.o)
                0x0000000000012bb0                tfm_spm_hal_get_ns_VTOR
 .text.tfm_spm_hal_get_ns_MSP
                0x0000000000012bbc        0xc platform/libplatform_s.a(spm_hal.o)
                0x0000000000012bbc                tfm_spm_hal_get_ns_MSP
 .text.tfm_spm_hal_get_ns_entry_point
                0x0000000000012bc8        0xc platform/libplatform_s.a(spm_hal.o)
                0x0000000000012bc8                tfm_spm_hal_get_ns_entry_point
 .text.tfm_hal_bind_boundaries
                0x0000000000012bd4       0x3e platform/libplatform_s.a(tfm_hal_isolation.o)
                0x0000000000012bd4                tfm_hal_bind_boundaries
 .text.tfm_hal_update_boundaries
                0x0000000000012c12       0x1e platform/libplatform_s.a(tfm_hal_isolation.o)
                0x0000000000012c12                tfm_hal_update_boundaries
 .text.tfm_hal_memory_has_access
                0x0000000000012c30      0x136 platform/libplatform_s.a(tfm_hal_isolation.o)
                0x0000000000012c30                tfm_hal_memory_has_access
 *fill*         0x0000000000012d66        0x2 
 .text.mpu_init_cfg
                0x0000000000012d68      0x120 platform/libplatform_s.a(tfm_hal_isolation.o)
                0x0000000000012d68                mpu_init_cfg
 .text.tfm_hal_set_up_static_boundaries
                0x0000000000012e88       0x1e platform/libplatform_s.a(tfm_hal_isolation.o)
                0x0000000000012e88                tfm_hal_set_up_static_boundaries
 *fill*         0x0000000000012ea6        0x2 
 .text.tfm_hal_irq_enable
                0x0000000000012ea8       0x20 platform/libplatform_s.a(tfm_hal_nvic.o)
                0x0000000000012ea8                tfm_hal_irq_enable
 .text.tfm_hal_irq_disable
                0x0000000000012ec8       0x2c platform/libplatform_s.a(tfm_hal_nvic.o)
                0x0000000000012ec8                tfm_hal_irq_disable
 .text.tfm_hal_irq_clear_pending
                0x0000000000012ef4       0x24 platform/libplatform_s.a(tfm_hal_nvic.o)
                0x0000000000012ef4                tfm_hal_irq_clear_pending
 .text.enable_fault_handlers
                0x0000000000012f18       0x14 platform/libplatform_s.a(target_cfg.o)
                0x0000000000012f18                enable_fault_handlers
 .text.system_reset_cfg
                0x0000000000012f2c       0x18 platform/libplatform_s.a(target_cfg.o)
                0x0000000000012f2c                system_reset_cfg
 .text.init_debug
                0x0000000000012f44        0x4 platform/libplatform_s.a(target_cfg.o)
                0x0000000000012f44                init_debug
 .text.nvic_interrupt_target_state_cfg
                0x0000000000012f48       0x30 platform/libplatform_s.a(target_cfg.o)
                0x0000000000012f48                nvic_interrupt_target_state_cfg
 .text.nvic_interrupt_enable
                0x0000000000012f78       0x18 platform/libplatform_s.a(target_cfg.o)
                0x0000000000012f78                nvic_interrupt_enable
 .text.sau_and_idau_cfg
                0x0000000000012f90       0x20 platform/libplatform_s.a(target_cfg.o)
                0x0000000000012f90                sau_and_idau_cfg
 .text.spu_init_cfg
                0x0000000000012fb0       0x3c platform/libplatform_s.a(target_cfg.o)
                0x0000000000012fb0                spu_init_cfg
 .text.spu_periph_init_cfg
                0x0000000000012fec      0x188 platform/libplatform_s.a(target_cfg.o)
                0x0000000000012fec                spu_periph_init_cfg
 .text.tfm_hal_platform_init
                0x0000000000013174       0x30 platform/libplatform_s.a(tfm_hal_platform.o)
                0x0000000000013174                tfm_hal_platform_init
 .text.tfm_plat_otp_init
                0x00000000000131a4        0x4 platform/libplatform_s.a(dummy_otp.o)
                0x00000000000131a4                tfm_plat_otp_init
 .text.tfm_plat_provisioning_is_required
                0x00000000000131a8        0x4 platform/libplatform_s.a(dummy_provisioning.o)
                0x00000000000131a8                tfm_plat_provisioning_is_required
 .text.tfm_plat_provisioning_perform
                0x00000000000131ac        0x4 platform/libplatform_s.a(dummy_provisioning.o)
                0x00000000000131ac                tfm_plat_provisioning_perform
 .text.tfm_plat_provisioning_check_for_dummy_keys
                0x00000000000131b0        0x2 platform/libplatform_s.a(dummy_provisioning.o)
                0x00000000000131b0                tfm_plat_provisioning_check_for_dummy_keys
 *fill*         0x00000000000131b2        0x2 
 .text.tfm_platform_hal_system_reset
                0x00000000000131b4       0x24 platform/libplatform_s.a(tfm_platform_system.o)
                0x00000000000131b4                tfm_platform_hal_system_reset
 .text.tfm_platform_hal_fw_info_service
                0x00000000000131d8       0x90 platform/libplatform_s.a(tfm_platform_system.o)
                0x00000000000131d8                tfm_platform_hal_fw_info_service
 .text.tfm_platform_hal_ioctl
                0x0000000000013268       0x18 platform/libplatform_s.a(tfm_platform_system.o)
                0x0000000000013268                tfm_platform_hal_ioctl
 .text.tfm_hal_system_reset
                0x0000000000013280       0x24 platform/libplatform_s.a(tfm_platform.o)
                0x0000000000013280                tfm_hal_system_reset
 .text.mpu_armv8m_enable
                0x00000000000132a4       0x30 platform/libplatform_s.a(mpu_armv8m_drv.o)
                0x00000000000132a4                mpu_armv8m_enable
 .text.mpu_armv8m_region_enable
                0x00000000000132d4       0x64 platform/libplatform_s.a(mpu_armv8m_drv.o)
                0x00000000000132d4                mpu_armv8m_region_enable
 .text.mpu_armv8m_region_disable
                0x0000000000013338       0x14 platform/libplatform_s.a(mpu_armv8m_drv.o)
                0x0000000000013338                mpu_armv8m_region_disable
 .text.mpu_armv8m_clean
                0x000000000001334c       0x1e platform/libplatform_s.a(mpu_armv8m_drv.o)
                0x000000000001334c                mpu_armv8m_clean
 *fill*         0x000000000001336a        0x2 
 .text.spu_enable_interrupts
                0x000000000001336c       0x10 platform/libplatform_s.a(spu.o)
                0x000000000001336c                spu_enable_interrupts
 .text.spu_clear_events
                0x000000000001337c       0x24 platform/libplatform_s.a(spu.o)
                0x000000000001337c                spu_clear_events
 .text.spu_regions_reset_all_secure
                0x00000000000133a0       0x2c platform/libplatform_s.a(spu.o)
                0x00000000000133a0                spu_regions_reset_all_secure
 .text.spu_regions_flash_config_non_secure
                0x00000000000133cc       0x24 platform/libplatform_s.a(spu.o)
                0x00000000000133cc                spu_regions_flash_config_non_secure
 .text.spu_regions_sram_config_non_secure
                0x00000000000133f0       0x2c platform/libplatform_s.a(spu.o)
                0x00000000000133f0                spu_regions_sram_config_non_secure
 .text.spu_regions_flash_config_non_secure_callable
                0x000000000001341c       0x30 platform/libplatform_s.a(spu.o)
                0x000000000001341c                spu_regions_flash_config_non_secure_callable
 .text.spu_regions_flash_get_base_address_in_region
                0x000000000001344c        0x4 platform/libplatform_s.a(spu.o)
                0x000000000001344c                spu_regions_flash_get_base_address_in_region
 .text.spu_regions_flash_get_last_address_in_region
                0x0000000000013450        0xa platform/libplatform_s.a(spu.o)
                0x0000000000013450                spu_regions_flash_get_last_address_in_region
 .text.spu_regions_flash_get_start_id
                0x000000000001345a        0x4 platform/libplatform_s.a(spu.o)
                0x000000000001345a                spu_regions_flash_get_start_id
 .text.spu_regions_flash_get_last_id
                0x000000000001345e        0x4 platform/libplatform_s.a(spu.o)
                0x000000000001345e                spu_regions_flash_get_last_id
 .text.spu_regions_flash_get_region_size
                0x0000000000013462        0x6 platform/libplatform_s.a(spu.o)
                0x0000000000013462                spu_regions_flash_get_region_size
 .text.spu_regions_sram_get_base_address_in_region
                0x0000000000013468        0xa platform/libplatform_s.a(spu.o)
                0x0000000000013468                spu_regions_sram_get_base_address_in_region
 *fill*         0x0000000000013472        0x2 
 .text.spu_regions_sram_get_last_address_in_region
                0x0000000000013474        0xc platform/libplatform_s.a(spu.o)
                0x0000000000013474                spu_regions_sram_get_last_address_in_region
 .text.spu_regions_sram_get_start_id
                0x0000000000013480        0x4 platform/libplatform_s.a(spu.o)
                0x0000000000013480                spu_regions_sram_get_start_id
 .text.spu_regions_sram_get_last_id
                0x0000000000013484        0x4 platform/libplatform_s.a(spu.o)
                0x0000000000013484                spu_regions_sram_get_last_id
 .text.spu_regions_sram_get_region_size
                0x0000000000013488        0x6 platform/libplatform_s.a(spu.o)
                0x0000000000013488                spu_regions_sram_get_region_size
 *fill*         0x000000000001348e        0x2 
 .text.spu_peripheral_config_non_secure
                0x0000000000013490       0x20 platform/libplatform_s.a(spu.o)
                0x0000000000013490                spu_peripheral_config_non_secure
 .text.tfm_hal_platform_common_init
                0x00000000000134b0       0x28 platform/libplatform_s.a(tfm_hal_platform_common.o)
                0x00000000000134b0                tfm_hal_platform_common_init
 .text.tfm_platform_hal_read_service
                0x00000000000134d8       0x74 platform/libplatform_s.a(tfm_platform_hal_ioctl.o)
                0x00000000000134d8                tfm_platform_hal_read_service
 .text.verify_header
                0x000000000001354c       0x40 secure_fw/partitions/crypto/mbedcrypto/nrf_security_src/libcrypto_service_mbedcrypto.a(memory_buffer_alloc.o)
 .text.verify_chain
                0x000000000001358c       0x3c secure_fw/partitions/crypto/mbedcrypto/nrf_security_src/libcrypto_service_mbedcrypto.a(memory_buffer_alloc.o)
 .text.buffer_alloc_calloc
                0x00000000000135c8       0xf4 secure_fw/partitions/crypto/mbedcrypto/nrf_security_src/libcrypto_service_mbedcrypto.a(memory_buffer_alloc.o)
 .text.buffer_alloc_free
                0x00000000000136bc       0xf4 secure_fw/partitions/crypto/mbedcrypto/nrf_security_src/libcrypto_service_mbedcrypto.a(memory_buffer_alloc.o)
 .text.mbedtls_memory_buffer_alloc_init
                0x00000000000137b0       0x64 secure_fw/partitions/crypto/mbedcrypto/nrf_security_src/libcrypto_service_mbedcrypto.a(memory_buffer_alloc.o)
                0x00000000000137b0                mbedtls_memory_buffer_alloc_init
 .text.psa_remove_key_data_from_memory
                0x0000000000013814       0x1c secure_fw/partitions/crypto/mbedcrypto/nrf_security_src/libcrypto_service_mbedcrypto.a(psa_crypto.o)
                0x0000000000013814                psa_remove_key_data_from_memory
 .text.psa_wipe_key_slot
                0x0000000000013830       0x22 secure_fw/partitions/crypto/mbedcrypto/nrf_security_src/libcrypto_service_mbedcrypto.a(psa_crypto.o)
                0x0000000000013830                psa_wipe_key_slot
 *fill*         0x0000000000013852        0x2 
 .text.mbedcrypto__psa_generate_random
                0x0000000000013854       0x38 secure_fw/partitions/crypto/mbedcrypto/nrf_security_src/libcrypto_service_mbedcrypto.a(psa_crypto.o)
                0x0000000000013854                mbedcrypto__psa_generate_random
 .text.mbedtls_psa_crypto_free
                0x000000000001388c       0x28 secure_fw/partitions/crypto/mbedcrypto/nrf_security_src/libcrypto_service_mbedcrypto.a(psa_crypto.o)
                0x000000000001388c                mbedtls_psa_crypto_free
 .text.mbedcrypto__psa_crypto_init
                0x00000000000138b4       0x40 secure_fw/partitions/crypto/mbedcrypto/nrf_security_src/libcrypto_service_mbedcrypto.a(psa_crypto.o)
                0x00000000000138b4                mbedcrypto__psa_crypto_init
 .text.psa_initialize_key_slots
                0x00000000000138f4       0x18 secure_fw/partitions/crypto/mbedcrypto/nrf_security_src/libcrypto_service_mbedcrypto.a(psa_crypto_slot_management.o)
                0x00000000000138f4                psa_initialize_key_slots
 .text.psa_wipe_all_key_slots
                0x000000000001390c       0x2c secure_fw/partitions/crypto/mbedcrypto/nrf_security_src/libcrypto_service_mbedcrypto.a(psa_crypto_slot_management.o)
                0x000000000001390c                psa_wipe_all_key_slots
 .text.mbedtls_psa_external_get_random
                0x0000000000013938       0x20 secure_fw/partitions/crypto/mbedcrypto/nrf_security_src/libcrypto_service_mbedcrypto.a(random_ext.o)
                0x0000000000013938                mbedtls_psa_external_get_random
 .text.nrf_cc3xx_platform_init_hmac_drbg
                0x0000000000013958       0x44 D:/ncs/v2.0.2/nrfxlib/crypto/nrf_cc310_platform/lib/cortex-m33/soft-float/no-interrupts/libnrf_cc310_platform_0.9.14.a(nrf_cc3xx_platform.c.obj)
                0x0000000000013958                nrf_cc3xx_platform_init_hmac_drbg
 .text.nrf_cc3xx_platform_hmac_drbg_init
                0x000000000001399c       0x64 D:/ncs/v2.0.2/nrfxlib/crypto/nrf_cc310_platform/lib/cortex-m33/soft-float/no-interrupts/libnrf_cc310_platform_0.9.14.a(nrf_cc3xx_platform_hmac_drbg.c.obj)
                0x000000000001399c                nrf_cc3xx_platform_hmac_drbg_init
 .text.nrf_cc3xx_platform_hmac_drbg_get
                0x0000000000013a00       0x48 D:/ncs/v2.0.2/nrfxlib/crypto/nrf_cc310_platform/lib/cortex-m33/soft-float/no-interrupts/libnrf_cc310_platform_0.9.14.a(nrf_cc3xx_platform_hmac_drbg.c.obj)
                0x0000000000013a00                nrf_cc3xx_platform_hmac_drbg_get
 .text.mbedtls_zeroize_internal
                0x0000000000013a48       0x14 D:/ncs/v2.0.2/nrfxlib/crypto/nrf_cc310_platform/lib/cortex-m33/soft-float/no-interrupts/libnrf_cc310_platform_0.9.14.a(mbedtls_common.c.obj)
                0x0000000000013a48                mbedtls_zeroize_internal
 .text.mbedtls_platform_zeroize
                0x0000000000013a5c       0x14 D:/ncs/v2.0.2/nrfxlib/crypto/nrf_cc310_platform/lib/cortex-m33/soft-float/no-interrupts/libnrf_cc310_platform_0.9.14.a(mbedtls_common.c.obj)
                0x0000000000013a5c                mbedtls_platform_zeroize
 .text.cc_hmac_sha256_starts.constprop.0
                0x0000000000013a70      0x108 D:/ncs/v2.0.2/nrfxlib/crypto/nrf_cc310_platform/lib/cortex-m33/soft-float/no-interrupts/libnrf_cc310_platform_0.9.14.a(hmac_drbg_alt.c.obj)
 .text.cc_mbedtls_hmac_drbg_init
                0x0000000000013b78       0x28 D:/ncs/v2.0.2/nrfxlib/crypto/nrf_cc310_platform/lib/cortex-m33/soft-float/no-interrupts/libnrf_cc310_platform_0.9.14.a(hmac_drbg_alt.c.obj)
                0x0000000000013b78                cc_mbedtls_hmac_drbg_init
 .text.cc_mbedtls_hmac_drbg_update
                0x0000000000013ba0      0x170 D:/ncs/v2.0.2/nrfxlib/crypto/nrf_cc310_platform/lib/cortex-m33/soft-float/no-interrupts/libnrf_cc310_platform_0.9.14.a(hmac_drbg_alt.c.obj)
                0x0000000000013ba0                cc_mbedtls_hmac_drbg_update
 .text.cc_hmac_drbg_reseed_core
                0x0000000000013d10       0xac D:/ncs/v2.0.2/nrfxlib/crypto/nrf_cc310_platform/lib/cortex-m33/soft-float/no-interrupts/libnrf_cc310_platform_0.9.14.a(hmac_drbg_alt.c.obj)
 .text.cc_mbedtls_hmac_drbg_seed
                0x0000000000013dbc       0x54 D:/ncs/v2.0.2/nrfxlib/crypto/nrf_cc310_platform/lib/cortex-m33/soft-float/no-interrupts/libnrf_cc310_platform_0.9.14.a(hmac_drbg_alt.c.obj)
                0x0000000000013dbc                cc_mbedtls_hmac_drbg_seed
 .text.cc_mbedtls_hmac_drbg_random_with_add
                0x0000000000013e10      0x144 D:/ncs/v2.0.2/nrfxlib/crypto/nrf_cc310_platform/lib/cortex-m33/soft-float/no-interrupts/libnrf_cc310_platform_0.9.14.a(hmac_drbg_alt.c.obj)
                0x0000000000013e10                cc_mbedtls_hmac_drbg_random_with_add
 .text.entropy_update
                0x0000000000013f54       0x7c D:/ncs/v2.0.2/nrfxlib/crypto/nrf_cc310_platform/lib/cortex-m33/soft-float/no-interrupts/libnrf_cc310_platform_0.9.14.a(entropy.c.obj)
 .text.entropy_gather_internal.part.0
                0x0000000000013fd0       0x88 D:/ncs/v2.0.2/nrfxlib/crypto/nrf_cc310_platform/lib/cortex-m33/soft-float/no-interrupts/libnrf_cc310_platform_0.9.14.a(entropy.c.obj)
 .text.cc_mbedtls_entropy_init
                0x0000000000014058       0x7c D:/ncs/v2.0.2/nrfxlib/crypto/nrf_cc310_platform/lib/cortex-m33/soft-float/no-interrupts/libnrf_cc310_platform_0.9.14.a(entropy.c.obj)
                0x0000000000014058                cc_mbedtls_entropy_init
 .text.cc_mbedtls_entropy_func
                0x00000000000140d4      0x10c D:/ncs/v2.0.2/nrfxlib/crypto/nrf_cc310_platform/lib/cortex-m33/soft-float/no-interrupts/libnrf_cc310_platform_0.9.14.a(entropy.c.obj)
                0x00000000000140d4                cc_mbedtls_entropy_func
 .text.RndStartupTest.constprop.0
                0x00000000000141e0       0x9c D:/ncs/v2.0.2/nrfxlib/crypto/nrf_cc310_platform/lib/cortex-m33/soft-float/no-interrupts/libnrf_cc310_platform_0.9.14.a(cc_lib.c.obj)
 .text.CC_LibInit_HMAC_DRBG
                0x000000000001427c       0xa8 D:/ncs/v2.0.2/nrfxlib/crypto/nrf_cc310_platform/lib/cortex-m33/soft-float/no-interrupts/libnrf_cc310_platform_0.9.14.a(cc_lib.c.obj)
                0x000000000001427c                CC_LibInit_HMAC_DRBG
 .text.CC_HalInit
                0x0000000000014324        0x4 D:/ncs/v2.0.2/nrfxlib/crypto/nrf_cc310_platform/lib/cortex-m33/soft-float/no-interrupts/libnrf_cc310_platform_0.9.14.a(cc_hal.c.obj)
                0x0000000000014324                CC_HalInit
 .text.CC_HalTerminate
                0x0000000000014328        0x4 D:/ncs/v2.0.2/nrfxlib/crypto/nrf_cc310_platform/lib/cortex-m33/soft-float/no-interrupts/libnrf_cc310_platform_0.9.14.a(cc_hal.c.obj)
                0x0000000000014328                CC_HalTerminate
 .text.CC_HalClearInterruptBit
                0x000000000001432c       0x1c D:/ncs/v2.0.2/nrfxlib/crypto/nrf_cc310_platform/lib/cortex-m33/soft-float/no-interrupts/libnrf_cc310_platform_0.9.14.a(cc_hal.c.obj)
                0x000000000001432c                CC_HalClearInterruptBit
 .text.CC_HalMaskInterrupt
                0x0000000000014348        0xc D:/ncs/v2.0.2/nrfxlib/crypto/nrf_cc310_platform/lib/cortex-m33/soft-float/no-interrupts/libnrf_cc310_platform_0.9.14.a(cc_hal.c.obj)
                0x0000000000014348                CC_HalMaskInterrupt
 .text.CC_HalWaitInterrupt
                0x0000000000014354        0xc D:/ncs/v2.0.2/nrfxlib/crypto/nrf_cc310_platform/lib/cortex-m33/soft-float/no-interrupts/libnrf_cc310_platform_0.9.14.a(cc_hal.c.obj)
                0x0000000000014354                CC_HalWaitInterrupt
 .text.CC_HalWaitInterruptRND
                0x0000000000014360        0xc D:/ncs/v2.0.2/nrfxlib/crypto/nrf_cc310_platform/lib/cortex-m33/soft-float/no-interrupts/libnrf_cc310_platform_0.9.14.a(cc_hal.c.obj)
                0x0000000000014360                CC_HalWaitInterruptRND
 .text.CC_PalInit
                0x000000000001436c       0x5c D:/ncs/v2.0.2/nrfxlib/crypto/nrf_cc310_platform/lib/cortex-m33/soft-float/no-interrupts/libnrf_cc310_platform_0.9.14.a(cc_pal.c.obj)
                0x000000000001436c                CC_PalInit
 .text.CC_PalTerminate
                0x00000000000143c8       0x34 D:/ncs/v2.0.2/nrfxlib/crypto/nrf_cc310_platform/lib/cortex-m33/soft-float/no-interrupts/libnrf_cc310_platform_0.9.14.a(cc_pal.c.obj)
                0x00000000000143c8                CC_PalTerminate
 .text.CC_PalDmaInit
                0x00000000000143fc        0x4 D:/ncs/v2.0.2/nrfxlib/crypto/nrf_cc310_platform/lib/cortex-m33/soft-float/no-interrupts/libnrf_cc310_platform_0.9.14.a(cc_pal_dma.c.obj)
                0x00000000000143fc                CC_PalDmaInit
 .text.CC_PalDmaTerminate
                0x0000000000014400        0x4 D:/ncs/v2.0.2/nrfxlib/crypto/nrf_cc310_platform/lib/cortex-m33/soft-float/no-interrupts/libnrf_cc310_platform_0.9.14.a(cc_pal_dma.c.obj)
                0x0000000000014400                CC_PalDmaTerminate
 .text.CC_PalWaitInterruptRND
                0x0000000000014404       0x2c D:/ncs/v2.0.2/nrfxlib/crypto/nrf_cc310_platform/lib/cortex-m33/soft-float/no-interrupts/libnrf_cc310_platform_0.9.14.a(cc_pal_interrupt_ctrl.c.obj)
                0x0000000000014404                CC_PalWaitInterruptRND
 .text.CC_PalWaitInterrupt
                0x0000000000014430       0x18 D:/ncs/v2.0.2/nrfxlib/crypto/nrf_cc310_platform/lib/cortex-m33/soft-float/no-interrupts/libnrf_cc310_platform_0.9.14.a(cc_pal_interrupt_ctrl.c.obj)
                0x0000000000014430                CC_PalWaitInterrupt
 .text.CC_PalMemCopyPlat
                0x0000000000014448        0x4 D:/ncs/v2.0.2/nrfxlib/crypto/nrf_cc310_platform/lib/cortex-m33/soft-float/no-interrupts/libnrf_cc310_platform_0.9.14.a(cc_pal_mem.c.obj)
                0x0000000000014448                CC_PalMemCopyPlat
 .text.CC_PalMemSetZeroPlat
                0x000000000001444c        0x8 D:/ncs/v2.0.2/nrfxlib/crypto/nrf_cc310_platform/lib/cortex-m33/soft-float/no-interrupts/libnrf_cc310_platform_0.9.14.a(cc_pal_mem.c.obj)
                0x000000000001444c                CC_PalMemSetZeroPlat
 .text.CC_PalMutexCreate
                0x0000000000014454       0x14 D:/ncs/v2.0.2/nrfxlib/crypto/nrf_cc310_platform/lib/cortex-m33/soft-float/no-interrupts/libnrf_cc310_platform_0.9.14.a(cc_pal_mutex.c.obj)
                0x0000000000014454                CC_PalMutexCreate
 .text.CC_PalMutexDestroy
                0x0000000000014468       0x14 D:/ncs/v2.0.2/nrfxlib/crypto/nrf_cc310_platform/lib/cortex-m33/soft-float/no-interrupts/libnrf_cc310_platform_0.9.14.a(cc_pal_mutex.c.obj)
                0x0000000000014468                CC_PalMutexDestroy
 .text.CC_PalMutexLock
                0x000000000001447c       0x10 D:/ncs/v2.0.2/nrfxlib/crypto/nrf_cc310_platform/lib/cortex-m33/soft-float/no-interrupts/libnrf_cc310_platform_0.9.14.a(cc_pal_mutex.c.obj)
                0x000000000001447c                CC_PalMutexLock
 .text.CC_PalMutexUnlock
                0x000000000001448c       0x14 D:/ncs/v2.0.2/nrfxlib/crypto/nrf_cc310_platform/lib/cortex-m33/soft-float/no-interrupts/libnrf_cc310_platform_0.9.14.a(cc_pal_mutex.c.obj)
                0x000000000001448c                CC_PalMutexUnlock
 .text.CC_PalPowerSaveModeInit
                0x00000000000144a0       0x3c D:/ncs/v2.0.2/nrfxlib/crypto/nrf_cc310_platform/lib/cortex-m33/soft-float/no-interrupts/libnrf_cc310_platform_0.9.14.a(cc_pal_pm.c.obj)
                0x00000000000144a0                CC_PalPowerSaveModeInit
 .text.CC_PalPowerSaveModeSelect
                0x00000000000144dc       0x88 D:/ncs/v2.0.2/nrfxlib/crypto/nrf_cc310_platform/lib/cortex-m33/soft-float/no-interrupts/libnrf_cc310_platform_0.9.14.a(cc_pal_pm.c.obj)
                0x00000000000144dc                CC_PalPowerSaveModeSelect
 .text.mutex_init
                0x0000000000014564        0xc D:/ncs/v2.0.2/nrfxlib/crypto/nrf_cc310_platform/lib/cortex-m33/soft-float/no-interrupts/libnrf_cc310_platform_0.9.14.a(threading_alt.c.obj)
                0x0000000000014564                mutex_init
 .text.mutex_lock
                0x0000000000014570        0xc D:/ncs/v2.0.2/nrfxlib/crypto/nrf_cc310_platform/lib/cortex-m33/soft-float/no-interrupts/libnrf_cc310_platform_0.9.14.a(threading_alt.c.obj)
                0x0000000000014570                mutex_lock
 .text.mutex_unlock
                0x000000000001457c        0xc D:/ncs/v2.0.2/nrfxlib/crypto/nrf_cc310_platform/lib/cortex-m33/soft-float/no-interrupts/libnrf_cc310_platform_0.9.14.a(threading_alt.c.obj)
                0x000000000001457c                mutex_unlock
 .text.nrf_cc3xx_platform_abort
                0x0000000000014588       0x24 D:/ncs/v2.0.2/nrfxlib/crypto/nrf_cc310_platform/lib/cortex-m33/soft-float/no-interrupts/libnrf_cc310_platform_0.9.14.a(nrf_cc3xx_platform_abort.c.obj)
 .text.CC_PalAbort
                0x00000000000145ac       0x34 D:/ncs/v2.0.2/nrfxlib/crypto/nrf_cc310_platform/lib/cortex-m33/soft-float/no-interrupts/libnrf_cc310_platform_0.9.14.a(nrf_cc3xx_platform_abort.c.obj)
                0x00000000000145ac                CC_PalAbort
 .text.mutex_free
                0x00000000000145e0       0x28 D:/ncs/v2.0.2/nrfxlib/crypto/nrf_cc310_platform/lib/cortex-m33/soft-float/no-interrupts/libnrf_cc310_platform_0.9.14.a(nrf_cc3xx_platform_mutex.c.obj)
 .text.mutex_lock
                0x0000000000014608       0x40 D:/ncs/v2.0.2/nrfxlib/crypto/nrf_cc310_platform/lib/cortex-m33/soft-float/no-interrupts/libnrf_cc310_platform_0.9.14.a(nrf_cc3xx_platform_mutex.c.obj)
 .text.mutex_unlock
                0x0000000000014648       0x30 D:/ncs/v2.0.2/nrfxlib/crypto/nrf_cc310_platform/lib/cortex-m33/soft-float/no-interrupts/libnrf_cc310_platform_0.9.14.a(nrf_cc3xx_platform_mutex.c.obj)
 .text.mutex_init
                0x0000000000014678       0x1c D:/ncs/v2.0.2/nrfxlib/crypto/nrf_cc310_platform/lib/cortex-m33/soft-float/no-interrupts/libnrf_cc310_platform_0.9.14.a(nrf_cc3xx_platform_mutex.c.obj)
 .text.startTrngHW
                0x0000000000014694      0x150 D:/ncs/v2.0.2/nrfxlib/crypto/nrf_cc310_platform/lib/cortex-m33/soft-float/no-interrupts/libnrf_cc310_platform_0.9.14.a(llf_rnd_trng90b.c.obj)
 .text.LLF_RND_RepetitionCounterTest.part.0
                0x00000000000147e4       0x54 D:/ncs/v2.0.2/nrfxlib/crypto/nrf_cc310_platform/lib/cortex-m33/soft-float/no-interrupts/libnrf_cc310_platform_0.9.14.a(llf_rnd_trng90b.c.obj)
 .text.LLF_RND_AdaptiveProportionTest
                0x0000000000014838       0x8c D:/ncs/v2.0.2/nrfxlib/crypto/nrf_cc310_platform/lib/cortex-m33/soft-float/no-interrupts/libnrf_cc310_platform_0.9.14.a(llf_rnd_trng90b.c.obj)
                0x0000000000014838                LLF_RND_AdaptiveProportionTest
 .text.getTrngSource
                0x00000000000148c4      0x2bc D:/ncs/v2.0.2/nrfxlib/crypto/nrf_cc310_platform/lib/cortex-m33/soft-float/no-interrupts/libnrf_cc310_platform_0.9.14.a(llf_rnd_trng90b.c.obj)
 .text.LLF_RND_GetTrngSource
                0x0000000000014b80       0x18 D:/ncs/v2.0.2/nrfxlib/crypto/nrf_cc310_platform/lib/cortex-m33/soft-float/no-interrupts/libnrf_cc310_platform_0.9.14.a(llf_rnd_trng90b.c.obj)
                0x0000000000014b80                LLF_RND_GetTrngSource
 .text.LLF_RND_RunTrngStartupTest
                0x0000000000014b98       0x1c D:/ncs/v2.0.2/nrfxlib/crypto/nrf_cc310_platform/lib/cortex-m33/soft-float/no-interrupts/libnrf_cc310_platform_0.9.14.a(llf_rnd_trng90b.c.obj)
                0x0000000000014b98                LLF_RND_RunTrngStartupTest
 .text.mbedtls_hardware_poll
                0x0000000000014bb4      0x104 D:/ncs/v2.0.2/nrfxlib/crypto/nrf_cc310_platform/lib/cortex-m33/soft-float/no-interrupts/libnrf_cc310_platform_0.9.14.a(trng_api.c.obj)
                0x0000000000014bb4                mbedtls_hardware_poll
 .text.cc_mbedtls_sha256_init
                0x0000000000014cb8       0x28 D:/ncs/v2.0.2/nrfxlib/crypto/nrf_cc310_platform/lib/cortex-m33/soft-float/no-interrupts/libnrf_cc310_platform_0.9.14.a(sha256_alt.c.obj)
                0x0000000000014cb8                cc_mbedtls_sha256_init
 .text.cc_mbedtls_sha256_free
                0x0000000000014ce0        0xc D:/ncs/v2.0.2/nrfxlib/crypto/nrf_cc310_platform/lib/cortex-m33/soft-float/no-interrupts/libnrf_cc310_platform_0.9.14.a(sha256_alt.c.obj)
                0x0000000000014ce0                cc_mbedtls_sha256_free
 .text.cc_mbedtls_sha256_starts
                0x0000000000014cec       0x28 D:/ncs/v2.0.2/nrfxlib/crypto/nrf_cc310_platform/lib/cortex-m33/soft-float/no-interrupts/libnrf_cc310_platform_0.9.14.a(sha256_alt.c.obj)
                0x0000000000014cec                cc_mbedtls_sha256_starts
 .text.cc_mbedtls_sha256_update
                0x0000000000014d14       0x54 D:/ncs/v2.0.2/nrfxlib/crypto/nrf_cc310_platform/lib/cortex-m33/soft-float/no-interrupts/libnrf_cc310_platform_0.9.14.a(sha256_alt.c.obj)
                0x0000000000014d14                cc_mbedtls_sha256_update
 .text.cc_mbedtls_sha256_finish
                0x0000000000014d68       0x48 D:/ncs/v2.0.2/nrfxlib/crypto/nrf_cc310_platform/lib/cortex-m33/soft-float/no-interrupts/libnrf_cc310_platform_0.9.14.a(sha256_alt.c.obj)
                0x0000000000014d68                cc_mbedtls_sha256_finish
 .text.mbedtls_sha_starts_internal
                0x0000000000014db0       0x28 D:/ncs/v2.0.2/nrfxlib/crypto/nrf_cc310_platform/lib/cortex-m33/soft-float/no-interrupts/libnrf_cc310_platform_0.9.14.a(mbedtls_hash_common.c.obj)
                0x0000000000014db0                mbedtls_sha_starts_internal
 .text.mbedtls_sha_finish_internal
                0x0000000000014dd8       0x5c D:/ncs/v2.0.2/nrfxlib/crypto/nrf_cc310_platform/lib/cortex-m33/soft-float/no-interrupts/libnrf_cc310_platform_0.9.14.a(mbedtls_hash_common.c.obj)
                0x0000000000014dd8                mbedtls_sha_finish_internal
 .text.mbedtls_sha_update_internal
                0x0000000000014e34      0x204 D:/ncs/v2.0.2/nrfxlib/crypto/nrf_cc310_platform/lib/cortex-m33/soft-float/no-interrupts/libnrf_cc310_platform_0.9.14.a(mbedtls_hash_common.c.obj)
                0x0000000000014e34                mbedtls_sha_update_internal
 .text.cc_mbedtls_sha256
                0x0000000000015038       0x50 D:/ncs/v2.0.2/nrfxlib/crypto/nrf_cc310_platform/lib/cortex-m33/soft-float/no-interrupts/libnrf_cc310_platform_0.9.14.a(sha256.c.obj)
                0x0000000000015038                cc_mbedtls_sha256
 .text.RNG_PLAT_SetUserRngParameters
                0x0000000000015088       0x7c D:/ncs/v2.0.2/nrfxlib/crypto/nrf_cc310_platform/lib/cortex-m33/soft-float/no-interrupts/libnrf_cc310_platform_0.9.14.a(cc_rng_plat.c.obj)
                0x0000000000015088                RNG_PLAT_SetUserRngParameters
 .text.CC_PalTrngParamGet
                0x0000000000015104      0x114 D:/ncs/v2.0.2/nrfxlib/crypto/nrf_cc310_platform/lib/cortex-m33/soft-float/no-interrupts/libnrf_cc310_platform_0.9.14.a(cc_pal_trng.c.obj)
                0x0000000000015104                CC_PalTrngParamGet
 .text.LLF_RND_WaitRngInterrupt
                0x0000000000015218       0x20 D:/ncs/v2.0.2/nrfxlib/crypto/nrf_cc310_platform/lib/cortex-m33/soft-float/no-interrupts/libnrf_cc310_platform_0.9.14.a(llf_rnd.c.obj)
                0x0000000000015218                LLF_RND_WaitRngInterrupt
 .text.LLF_RND_GetRoscSampleCnt
                0x0000000000015238       0x3c D:/ncs/v2.0.2/nrfxlib/crypto/nrf_cc310_platform/lib/cortex-m33/soft-float/no-interrupts/libnrf_cc310_platform_0.9.14.a(llf_rnd.c.obj)
                0x0000000000015238                LLF_RND_GetRoscSampleCnt
 .text.LLF_RND_GetFastestRosc
                0x0000000000015274       0x20 D:/ncs/v2.0.2/nrfxlib/crypto/nrf_cc310_platform/lib/cortex-m33/soft-float/no-interrupts/libnrf_cc310_platform_0.9.14.a(llf_rnd.c.obj)
                0x0000000000015274                LLF_RND_GetFastestRosc
 .text.LLF_RND_TurnOffTrng
                0x0000000000015294       0x18 D:/ncs/v2.0.2/nrfxlib/crypto/nrf_cc310_platform/lib/cortex-m33/soft-float/no-interrupts/libnrf_cc310_platform_0.9.14.a(llf_rnd.c.obj)
                0x0000000000015294                LLF_RND_TurnOffTrng
 .text.SetDataBuffersInfo
                0x00000000000152ac       0x68 D:/ncs/v2.0.2/nrfxlib/crypto/nrf_cc310_platform/lib/cortex-m33/soft-float/no-interrupts/libnrf_cc310_platform_0.9.14.a(driver_common.c.obj)
                0x00000000000152ac                SetDataBuffersInfo
 .text.InitHashDrv
                0x0000000000015314       0x54 D:/ncs/v2.0.2/nrfxlib/crypto/nrf_cc310_platform/lib/cortex-m33/soft-float/no-interrupts/libnrf_cc310_platform_0.9.14.a(hash_driver.c.obj)
                0x0000000000015314                InitHashDrv
 .text.ProcessHashDrv
                0x0000000000015368      0x22c D:/ncs/v2.0.2/nrfxlib/crypto/nrf_cc310_platform/lib/cortex-m33/soft-float/no-interrupts/libnrf_cc310_platform_0.9.14.a(hash_driver.c.obj)
                0x0000000000015368                ProcessHashDrv
 .text.FinishHashDrv
                0x0000000000015594       0x74 D:/ncs/v2.0.2/nrfxlib/crypto/nrf_cc310_platform/lib/cortex-m33/soft-float/no-interrupts/libnrf_cc310_platform_0.9.14.a(hash_driver.c.obj)
                0x0000000000015594                FinishHashDrv
 .text.CC_PalDataBufferAttrGet
                0x0000000000015608        0x8 D:/ncs/v2.0.2/nrfxlib/crypto/nrf_cc310_platform/lib/cortex-m33/soft-float/no-interrupts/libnrf_cc310_platform_0.9.14.a(cc_pal_buff_attr.c.obj)
                0x0000000000015608                CC_PalDataBufferAttrGet
 .text.mbedtls_free
                0x0000000000015610        0xc secure_fw/partitions/crypto/mbedcrypto/nrf_security_src/libmbedcrypto_base.a(platform.o)
                0x0000000000015610                mbedtls_free
 .text.mbedtls_platform_set_calloc_free
                0x000000000001561c       0x14 secure_fw/partitions/crypto/mbedcrypto/nrf_security_src/libmbedcrypto_base.a(platform.o)
                0x000000000001561c                mbedtls_platform_set_calloc_free
 .text._sbrk    0x0000000000015630       0x20 d:/ncs/toolchains/v2.0.2/opt/zephyr-sdk/arm-zephyr-eabi/bin/../lib/gcc/arm-zephyr-eabi/10.3.0/../../../../arm-zephyr-eabi/lib/thumb/v8-m.main/nofp\libnosys.a(sbrk.o)
                0x0000000000015630                _sbrk
 .text._exit    0x0000000000015650        0x4 d:/ncs/toolchains/v2.0.2/opt/zephyr-sdk/arm-zephyr-eabi/bin/../lib/gcc/arm-zephyr-eabi/10.3.0/../../../../arm-zephyr-eabi/lib/thumb/v8-m.main/nofp\libnosys.a(_exit.o)
                0x0000000000015650                _exit
 *(.init)
 .init          0x0000000000015654        0x4 d:/ncs/toolchains/v2.0.2/opt/zephyr-sdk/arm-zephyr-eabi/bin/../lib/gcc/arm-zephyr-eabi/10.3.0/thumb/v8-m.main/nofp/crti.o
                0x0000000000015654                _init
 .init          0x0000000000015658        0x8 d:/ncs/toolchains/v2.0.2/opt/zephyr-sdk/arm-zephyr-eabi/bin/../lib/gcc/arm-zephyr-eabi/10.3.0/thumb/v8-m.main/nofp/crtn.o
 *(.fini)
 .fini          0x0000000000015660        0x4 d:/ncs/toolchains/v2.0.2/opt/zephyr-sdk/arm-zephyr-eabi/bin/../lib/gcc/arm-zephyr-eabi/10.3.0/thumb/v8-m.main/nofp/crti.o
                0x0000000000015660                _fini
 .fini          0x0000000000015664        0x8 d:/ncs/toolchains/v2.0.2/opt/zephyr-sdk/arm-zephyr-eabi/bin/../lib/gcc/arm-zephyr-eabi/10.3.0/thumb/v8-m.main/nofp/crtn.o
 *crtbegin.o(.ctors)
 *crtbegin?.o(.ctors)
 *(EXCLUDE_FILE(*crtend.o *crtend?.o) .ctors)
 *(SORT_BY_NAME(.ctors.*))
 *(.ctors)
 *crtbegin.o(.dtors)
 *crtbegin?.o(.dtors)
 *(EXCLUDE_FILE(*crtend.o *crtend?.o) .dtors)
 *(SORT_BY_NAME(.dtors.*))
 *(.dtors)

.glue_7         0x000000000001566c        0x0
 .glue_7        0x000000000001566c        0x0 linker stubs

.glue_7t        0x000000000001566c        0x0
 .glue_7t       0x000000000001566c        0x0 linker stubs

.vfp11_veneer   0x000000000001566c        0x0
 .vfp11_veneer  0x000000000001566c        0x0 linker stubs

.v4_bx          0x000000000001566c        0x0
 .v4_bx         0x000000000001566c        0x0 linker stubs

.iplt           0x000000000001566c        0x0
 .iplt          0x000000000001566c        0x0 d:/ncs/toolchains/v2.0.2/opt/zephyr-sdk/arm-zephyr-eabi/bin/../lib/gcc/arm-zephyr-eabi/10.3.0/thumb/v8-m.main/nofp/crtbegin.o

.psa_interface_thread_call
                0x000000000001566c       0xf8
 .psa_interface_thread_call
                0x000000000001566c       0xf8 secure_fw/CMakeFiles/tfm_s.dir/spm/cmsis_psa/psa_interface_thread.o
                0x0000000000015674                psa_framework_version_thread
                0x000000000001567c                psa_version_thread
                0x0000000000015684                psa_connect_thread
                0x000000000001568c                tfm_psa_call_pack_thread
                0x0000000000015694                psa_close_thread
                0x000000000001569c                psa_wait_thread
                0x00000000000156a4                psa_get_thread
                0x00000000000156ac                psa_set_rhandle_thread
                0x00000000000156b4                psa_read_thread
                0x00000000000156bc                psa_skip_thread
                0x00000000000156c4                psa_write_thread
                0x00000000000156cc                psa_reply_thread
                0x00000000000156d4                psa_notify_thread
                0x00000000000156dc                psa_clear_thread
                0x00000000000156e4                psa_eoi_thread
                0x00000000000156ec                psa_panic_thread
                0x00000000000156f4                psa_irq_disable_thread
                0x00000000000156fc                psa_irq_enable_thread
                0x0000000000015704                psa_reset_signal_thread
                0x000000000001570c                psa_rot_lifecycle_state_thread

.tfm_rodata     0x0000000000015764      0x22c
 *(.rodata*)
 .rodata.str1.1
                0x0000000000015764        0xb secure_fw/CMakeFiles/tfm_s.dir/__/generated/secure_fw/partitions/crypto/auto_generated/load_info_tfm_crypto.o
 .rodata.str1.1
                0x000000000001576f       0x4e secure_fw/CMakeFiles/tfm_s.dir/__/generated/secure_fw/partitions/platform/auto_generated/load_info_tfm_platform.o
 *fill*         0x00000000000157bd        0x3 
 .rodata.backend_instance
                0x00000000000157c0       0x10 secure_fw/spm/libtfm_spm.a(backend.o)
                0x00000000000157c0                backend_instance
 .rodata.ldinf_ea
                0x00000000000157d0        0x4 secure_fw/spm/libtfm_spm.a(static_load.o)
 .rodata.part_pool_ea
                0x00000000000157d4        0x4 secure_fw/spm/libtfm_spm.a(static_load.o)
 .rodata.serv_pool_ea
                0x00000000000157d8        0x4 secure_fw/spm/libtfm_spm.a(static_load.o)
 .rodata.memory_regions
                0x00000000000157dc       0x1c platform/libplatform_s.a(target_cfg.o)
                0x00000000000157dc                memory_regions
 .rodata        0x00000000000157f8        0xc platform/libplatform_s.a(tfm_platform_system.o)
 .rodata.fw_info_allowed_offsets
                0x0000000000015804       0x14 platform/libplatform_s.a(tfm_platform_system.o)
 .rodata.CSWTCH.12
                0x0000000000015818       0x1c D:/ncs/v2.0.2/nrfxlib/crypto/nrf_cc310_platform/lib/cortex-m33/soft-float/no-interrupts/libnrf_cc310_platform_0.9.14.a(nrf_cc3xx_platform.c.obj)
 .rodata.RndStartupTest.constprop.0.str1.4
                0x0000000000015834       0x6f D:/ncs/v2.0.2/nrfxlib/crypto/nrf_cc310_platform/lib/cortex-m33/soft-float/no-interrupts/libnrf_cc310_platform_0.9.14.a(cc_lib.c.obj)
 *fill*         0x00000000000158a3        0x1 
 .rodata.CC_PalPowerSaveModeInit.str1.4
                0x00000000000158a4       0x20 D:/ncs/v2.0.2/nrfxlib/crypto/nrf_cc310_platform/lib/cortex-m33/soft-float/no-interrupts/libnrf_cc310_platform_0.9.14.a(cc_pal_pm.c.obj)
 .rodata.mutex_free.str1.4
                0x00000000000158c4       0x26 D:/ncs/v2.0.2/nrfxlib/crypto/nrf_cc310_platform/lib/cortex-m33/soft-float/no-interrupts/libnrf_cc310_platform_0.9.14.a(nrf_cc3xx_platform_mutex.c.obj)
 *fill*         0x00000000000158ea        0x2 
 .rodata.mutex_init.str1.4
                0x00000000000158ec       0x23 D:/ncs/v2.0.2/nrfxlib/crypto/nrf_cc310_platform/lib/cortex-m33/soft-float/no-interrupts/libnrf_cc310_platform_0.9.14.a(nrf_cc3xx_platform_mutex.c.obj)
 *fill*         0x000000000001590f        0x1 
 .rodata.mbedtls_hardware_poll.str1.4
                0x0000000000015910       0x16 D:/ncs/v2.0.2/nrfxlib/crypto/nrf_cc310_platform/lib/cortex-m33/soft-float/no-interrupts/libnrf_cc310_platform_0.9.14.a(trng_api.c.obj)
                                         0x6e (size before relaxing)
 *fill*         0x0000000000015926        0x2 
 .rodata.cc_mbedtls_sha256_init.str1.4
                0x0000000000015928        0xe D:/ncs/v2.0.2/nrfxlib/crypto/nrf_cc310_platform/lib/cortex-m33/soft-float/no-interrupts/libnrf_cc310_platform_0.9.14.a(sha256_alt.c.obj)
 .rodata.ProcessHashDrv.str1.4
                0x0000000000015936       0x6f D:/ncs/v2.0.2/nrfxlib/crypto/nrf_cc310_platform/lib/cortex-m33/soft-float/no-interrupts/libnrf_cc310_platform_0.9.14.a(hash_driver.c.obj)
 *fill*         0x0000000000015936        0x2 
 .rodata.HASH_LARVAL_SHA1
                0x0000000000015938       0x14 D:/ncs/v2.0.2/nrfxlib/crypto/nrf_cc310_platform/lib/cortex-m33/soft-float/no-interrupts/libnrf_cc310_platform_0.9.14.a(hash_driver.c.obj)
 .rodata.HASH_LARVAL_SHA224
                0x000000000001594c       0x20 D:/ncs/v2.0.2/nrfxlib/crypto/nrf_cc310_platform/lib/cortex-m33/soft-float/no-interrupts/libnrf_cc310_platform_0.9.14.a(hash_driver.c.obj)
 .rodata.HASH_LARVAL_SHA256
                0x000000000001596c       0x20 D:/ncs/v2.0.2/nrfxlib/crypto/nrf_cc310_platform/lib/cortex-m33/soft-float/no-interrupts/libnrf_cc310_platform_0.9.14.a(hash_driver.c.obj)
 *(.eh_frame*)
 .eh_frame      0x000000000001598c        0x0 d:/ncs/toolchains/v2.0.2/opt/zephyr-sdk/arm-zephyr-eabi/bin/../lib/gcc/arm-zephyr-eabi/10.3.0/thumb/v8-m.main/nofp/crtbegin.o
 .eh_frame      0x000000000001598c        0x4 d:/ncs/toolchains/v2.0.2/opt/zephyr-sdk/arm-zephyr-eabi/bin/../lib/gcc/arm-zephyr-eabi/10.3.0/thumb/v8-m.main/nofp/crtend.o

.rel.dyn        0x0000000000015990        0x0
 .rel.iplt      0x0000000000015990        0x0 d:/ncs/toolchains/v2.0.2/opt/zephyr-sdk/arm-zephyr-eabi/bin/../lib/gcc/arm-zephyr-eabi/10.3.0/thumb/v8-m.main/nofp/crtbegin.o

.ARM.exidx      0x0000000000015990        0x8
 .ARM.exidx     0x0000000000015990        0x8 d:/ncs/toolchains/v2.0.2/opt/zephyr-sdk/arm-zephyr-eabi/bin/../lib/gcc/arm-zephyr-eabi/10.3.0/../../../../arm-zephyr-eabi/lib/thumb/v8-m.main/nofp/crt0.o
                                         0x10 (size before relaxing)

.tfm_secure_data_start
                0x0000000020000000        0x0
                0x0000000020000000                . = ABSOLUTE (0x20000000)

.tfm_bl2_shared_data
                0x0000000020000000      0x400
                0x0000000020000400                . = (. + 0x400)
 *fill*         0x0000000020000000      0x400 

.msp_stack      0x0000000020000400      0x400
                0x0000000020000800                . = (. + __msp_init_stack_size__)
 *fill*         0x0000000020000400      0x400 
                0x0000000020000400                Image$$ARM_LIB_STACK$$ZI$$Base = ADDR (.msp_stack)
                0x0000000020000800                Image$$ARM_LIB_STACK$$ZI$$Limit = (ADDR (.msp_stack) + SIZEOF (.msp_stack))

.psp_stack      0x0000000020000800      0x800
                0x0000000020001000                . = (. + __psp_stack_size__)
 *fill*         0x0000000020000800      0x800 
                0x0000000020000800                Image$$ER_INITIAL_PSP$$ZI$$Base = ADDR (.psp_stack)
                0x0000000020001000                Image$$ER_INITIAL_PSP$$ZI$$Limit = (ADDR (.psp_stack) + SIZEOF (.psp_stack))

.heap           0x0000000020001000     0x1000
                0x0000000020001000                __end__ = .
                0x0000000020001000                PROVIDE (end = .)
                0x0000000020001000                __HeapBase = .
                0x0000000020002000                . = (. + __heap_size__)
 *fill*         0x0000000020001000     0x1000 
                0x0000000020002000                __HeapLimit = .
                0x0000000020002000                __heap_limit = .
                0x0000000020002000                Image$$TFM_APP_RW_STACK_START$$Base = .

.TFM_APP_ROT_LINKER_DATA
                0x0000000020002000        0x0 load address 0x00000000000159a0
 *tfm_app_rot_partition*:*(.data*)
 *(TFM_*_APP-ROT_ATTR_RW)
                0x0000000020002000                . = ALIGN (0x20)
                0x0000000020002000                Image$$TFM_APP_ROT_LINKER_DATA$$RW$$Base = ADDR (.TFM_APP_ROT_LINKER_DATA)
                0x0000000020002000                Image$$TFM_APP_ROT_LINKER_DATA$$RW$$Limit = (ADDR (.TFM_APP_ROT_LINKER_DATA) + SIZEOF (.TFM_APP_ROT_LINKER_DATA))

.TFM_APP_ROT_LINKER_BSS
                0x0000000020002000       0x20
                0x0000000020002000                start_of_TFM_APP_ROT_LINKER = .
 *tfm_app_rot_partition*:*(.bss*)
 *tfm_app_rot_partition*:*(COMMON)
 *(TFM_*_APP-ROT_ATTR_ZI)
                0x0000000020002004                . = (. + (. - start_of_TFM_APP_ROT_LINKER)?0x0:0x4)
 *fill*         0x0000000020002000        0x4 
                0x0000000020002020                . = ALIGN (0x20)
 *fill*         0x0000000020002004       0x1c 
                0x0000000020002000                Image$$TFM_APP_ROT_LINKER_DATA$$ZI$$Base = ADDR (.TFM_APP_ROT_LINKER_BSS)
                0x0000000020002020                Image$$TFM_APP_ROT_LINKER_DATA$$ZI$$Limit = (ADDR (.TFM_APP_ROT_LINKER_BSS) + SIZEOF (.TFM_APP_ROT_LINKER_BSS))
                0x0000000020002020                Image$$TFM_APP_RW_STACK_END$$Base = .
                0x0000000020002020                Image$$TFM_PSA_RW_STACK_START$$Base = .

.TFM_PSA_ROT_LINKER_DATA
                0x0000000020002020        0x0 load address 0x00000000000159a0
 *tfm_psa_rot_partition*:*(.data*)
 *(TFM_*_PSA-ROT_ATTR_RW)
                0x0000000020002020                . = ALIGN (0x20)
                0x0000000020002020                Image$$TFM_PSA_ROT_LINKER_DATA$$RW$$Base = ADDR (.TFM_PSA_ROT_LINKER_DATA)
                0x0000000020002020                Image$$TFM_PSA_ROT_LINKER_DATA$$RW$$Limit = (ADDR (.TFM_PSA_ROT_LINKER_DATA) + SIZEOF (.TFM_PSA_ROT_LINKER_DATA))

.TFM_PSA_ROT_LINKER_BSS
                0x0000000020002020     0x4720
                0x0000000020002020                start_of_TFM_PSA_ROT_LINKER = .
 *tfm_psa_rot_partition*:*(.bss*)
 .bss.mbedtls_mem_buf
                0x0000000020002020        0x1 secure_fw/partitions/crypto/libtfm_psa_rot_partition_crypto.a(crypto_init.o)
 *fill*         0x0000000020002021        0x3 
 .bss.scratch   0x0000000020002024     0x1408 secure_fw/partitions/crypto/libtfm_psa_rot_partition_crypto.a(crypto_init.o)
 *fill*         0x000000002000342c        0x4 
 .bss.operation
                0x0000000020003430      0xe00 secure_fw/partitions/crypto/libtfm_psa_rot_partition_crypto.a(crypto_alloc.o)
 .bss.tfm_sp_crypto_stack
                0x0000000020004230     0x2000 secure_fw/partitions/crypto/libtfm_psa_rot_partition_crypto.a(intermedia_tfm_crypto.o)
                0x0000000020004230                tfm_sp_crypto_stack
 .bss.tfm_sp_platform_stack
                0x0000000020006230      0x500 secure_fw/partitions/platform/libtfm_psa_rot_partition_platform.a(intermedia_tfm_platform.o)
                0x0000000020006230                tfm_sp_platform_stack
 *tfm_psa_rot_partition*:*(COMMON)
 *(TFM_*_PSA-ROT_ATTR_ZI)
                0x0000000020006730                . = (. + (. - start_of_TFM_PSA_ROT_LINKER)?0x0:0x4)
                0x0000000020006740                . = ALIGN (0x20)
 *fill*         0x0000000020006730       0x10 
                0x0000000020002020                Image$$TFM_PSA_ROT_LINKER_DATA$$ZI$$Base = ADDR (.TFM_PSA_ROT_LINKER_BSS)
                0x0000000020006740                Image$$TFM_PSA_ROT_LINKER_DATA$$ZI$$Limit = (ADDR (.TFM_PSA_ROT_LINKER_BSS) + SIZEOF (.TFM_PSA_ROT_LINKER_BSS))
                0x0000000020006740                Image$$TFM_PSA_RW_STACK_END$$Base = .

.TFM_DATA       0x0000000020006740       0xf4 load address 0x0000000000015998
 *(.data*)
 .data.SystemCoreClock
                0x0000000020006740        0x4 platform/libplatform_s.a(system_nrf9160.o)
                0x0000000020006740                SystemCoreClock
 .data.ldinf_sa
                0x0000000020006744        0x4 secure_fw/spm/libtfm_spm.a(static_load.o)
 .data.part_pool_sa
                0x0000000020006748        0x4 secure_fw/spm/libtfm_spm.a(static_load.o)
 .data.serv_pool_sa
                0x000000002000674c        0x4 secure_fw/spm/libtfm_spm.a(static_load.o)
 .data.dev_mpu_s
                0x0000000020006750        0x4 platform/libplatform_s.a(tfm_hal_isolation.o)
                0x0000000020006750                dev_mpu_s
 .data.CCAsymCryptoMutex
                0x0000000020006754        0x4 D:/ncs/v2.0.2/nrfxlib/crypto/nrf_cc310_platform/lib/cortex-m33/soft-float/no-interrupts/libnrf_cc310_platform_0.9.14.a(cc_pal.c.obj)
                0x0000000020006754                CCAsymCryptoMutex
 .data.CCPowerMutex
                0x0000000020006758        0x4 D:/ncs/v2.0.2/nrfxlib/crypto/nrf_cc310_platform/lib/cortex-m33/soft-float/no-interrupts/libnrf_cc310_platform_0.9.14.a(cc_pal.c.obj)
                0x0000000020006758                CCPowerMutex
 .data.CCRndCryptoMutex
                0x000000002000675c        0x4 D:/ncs/v2.0.2/nrfxlib/crypto/nrf_cc310_platform/lib/cortex-m33/soft-float/no-interrupts/libnrf_cc310_platform_0.9.14.a(cc_pal.c.obj)
                0x000000002000675c                CCRndCryptoMutex
 .data.CCSymCryptoMutex
                0x0000000020006760        0x4 D:/ncs/v2.0.2/nrfxlib/crypto/nrf_cc310_platform/lib/cortex-m33/soft-float/no-interrupts/libnrf_cc310_platform_0.9.14.a(cc_pal.c.obj)
                0x0000000020006760                CCSymCryptoMutex
 .data.pCCRndCryptoMutex
                0x0000000020006764        0x4 D:/ncs/v2.0.2/nrfxlib/crypto/nrf_cc310_platform/lib/cortex-m33/soft-float/no-interrupts/libnrf_cc310_platform_0.9.14.a(cc_pal.c.obj)
                0x0000000020006764                pCCRndCryptoMutex
 .data.mbedtls_mutex_init
                0x0000000020006768        0x4 D:/ncs/v2.0.2/nrfxlib/crypto/nrf_cc310_platform/lib/cortex-m33/soft-float/no-interrupts/libnrf_cc310_platform_0.9.14.a(threading_alt.c.obj)
                0x0000000020006768                mbedtls_mutex_init
 .data.mbedtls_mutex_lock
                0x000000002000676c        0x4 D:/ncs/v2.0.2/nrfxlib/crypto/nrf_cc310_platform/lib/cortex-m33/soft-float/no-interrupts/libnrf_cc310_platform_0.9.14.a(threading_alt.c.obj)
                0x000000002000676c                mbedtls_mutex_lock
 .data.mbedtls_mutex_unlock
                0x0000000020006770        0x4 D:/ncs/v2.0.2/nrfxlib/crypto/nrf_cc310_platform/lib/cortex-m33/soft-float/no-interrupts/libnrf_cc310_platform_0.9.14.a(threading_alt.c.obj)
                0x0000000020006770                mbedtls_mutex_unlock
 .data.platform_abort_apis
                0x0000000020006774        0x8 D:/ncs/v2.0.2/nrfxlib/crypto/nrf_cc310_platform/lib/cortex-m33/soft-float/no-interrupts/libnrf_cc310_platform_0.9.14.a(nrf_cc3xx_platform_abort.c.obj)
                0x0000000020006774                platform_abort_apis
 .data.asym_mutex
                0x000000002000677c        0x8 D:/ncs/v2.0.2/nrfxlib/crypto/nrf_cc310_platform/lib/cortex-m33/soft-float/no-interrupts/libnrf_cc310_platform_0.9.14.a(nrf_cc3xx_platform_mutex.c.obj)
 .data.platform_mutex_apis
                0x0000000020006784       0x10 D:/ncs/v2.0.2/nrfxlib/crypto/nrf_cc310_platform/lib/cortex-m33/soft-float/no-interrupts/libnrf_cc310_platform_0.9.14.a(nrf_cc3xx_platform_mutex.c.obj)
                0x0000000020006784                platform_mutex_apis
 .data.platform_mutexes
                0x0000000020006794       0x14 D:/ncs/v2.0.2/nrfxlib/crypto/nrf_cc310_platform/lib/cortex-m33/soft-float/no-interrupts/libnrf_cc310_platform_0.9.14.a(nrf_cc3xx_platform_mutex.c.obj)
                0x0000000020006794                platform_mutexes
 .data.power_mutex
                0x00000000200067a8        0x8 D:/ncs/v2.0.2/nrfxlib/crypto/nrf_cc310_platform/lib/cortex-m33/soft-float/no-interrupts/libnrf_cc310_platform_0.9.14.a(nrf_cc3xx_platform_mutex.c.obj)
 .data.rng_mutex
                0x00000000200067b0        0x8 D:/ncs/v2.0.2/nrfxlib/crypto/nrf_cc310_platform/lib/cortex-m33/soft-float/no-interrupts/libnrf_cc310_platform_0.9.14.a(nrf_cc3xx_platform_mutex.c.obj)
 .data.sym_mutex
                0x00000000200067b8        0x8 D:/ncs/v2.0.2/nrfxlib/crypto/nrf_cc310_platform/lib/cortex-m33/soft-float/no-interrupts/libnrf_cc310_platform_0.9.14.a(nrf_cc3xx_platform_mutex.c.obj)
 .data.mbedtls_calloc_func
                0x00000000200067c0        0x4 secure_fw/partitions/crypto/mbedcrypto/nrf_security_src/libmbedcrypto_base.a(platform.o)
                0x00000000200067c0                mbedtls_calloc_func
 .data.mbedtls_free_func
                0x00000000200067c4        0x4 secure_fw/partitions/crypto/mbedcrypto/nrf_security_src/libmbedcrypto_base.a(platform.o)
                0x00000000200067c4                mbedtls_free_func
 .data._impure_ptr
                0x00000000200067c8        0x4 d:/ncs/toolchains/v2.0.2/opt/zephyr-sdk/arm-zephyr-eabi/bin/../lib/gcc/arm-zephyr-eabi/10.3.0/../../../../arm-zephyr-eabi/lib/thumb/v8-m.main/nofp\libc_nano.a(lib_a-impure.o)
                0x00000000200067c8                _impure_ptr
 .data.impure_data
                0x00000000200067cc       0x60 d:/ncs/toolchains/v2.0.2/opt/zephyr-sdk/arm-zephyr-eabi/bin/../lib/gcc/arm-zephyr-eabi/10.3.0/../../../../arm-zephyr-eabi/lib/thumb/v8-m.main/nofp\libc_nano.a(lib_a-impure.o)
                0x000000002000682c                . = ALIGN (0x4)
                0x000000002000682c                PROVIDE (__preinit_array_start = .)
 *(.preinit_array)
                0x000000002000682c                PROVIDE (__preinit_array_end = .)
                0x000000002000682c                . = ALIGN (0x4)
                0x000000002000682c                PROVIDE (__init_array_start = .)
 *(SORT_BY_NAME(.init_array.*))
 *(.init_array)
 .init_array    0x000000002000682c        0x4 d:/ncs/toolchains/v2.0.2/opt/zephyr-sdk/arm-zephyr-eabi/bin/../lib/gcc/arm-zephyr-eabi/10.3.0/thumb/v8-m.main/nofp/crtbegin.o
                0x0000000020006830                PROVIDE (__init_array_end = .)
                0x0000000020006830                . = ALIGN (0x4)
                [!provide]                        PROVIDE (__fini_array_start = .)
 *(SORT_BY_NAME(.fini_array.*))
 *(.fini_array)
 .fini_array    0x0000000020006830        0x4 d:/ncs/toolchains/v2.0.2/opt/zephyr-sdk/arm-zephyr-eabi/bin/../lib/gcc/arm-zephyr-eabi/10.3.0/thumb/v8-m.main/nofp/crtbegin.o
                [!provide]                        PROVIDE (__fini_array_end = .)
 *(.jcr*)
                0x0000000020006834                . = ALIGN (0x4)
                0x0000000020006740                Image$$ER_TFM_DATA$$RW$$Base = ADDR (.TFM_DATA)
                0x0000000020006834                Image$$ER_TFM_DATA$$RW$$Limit = (ADDR (.TFM_DATA) + SIZEOF (.TFM_DATA))

.TFM_BSS        0x0000000020006840     0x204c
                0x0000000020006840                __bss_start__ = .
                0x0000000020006840                __partition_runtime_start__ = .
 *(.bss.part_runtime)
 .bss.part_runtime
                0x0000000020006840       0x48 secure_fw/CMakeFiles/tfm_s.dir/__/generated/secure_fw/partitions/crypto/auto_generated/load_info_tfm_crypto.o
 .bss.part_runtime
                0x0000000020006888       0x48 secure_fw/CMakeFiles/tfm_s.dir/__/generated/secure_fw/partitions/platform/auto_generated/load_info_tfm_platform.o
 .bss.part_runtime
                0x00000000200068d0       0x48 secure_fw/CMakeFiles/tfm_s.dir/partitions/ns_agent/load_info_ns_agent.o
 .bss.part_runtime
                0x0000000020006918       0x48 secure_fw/CMakeFiles/tfm_s.dir/partitions/idle_partition/load_info_idle_sp.o
                0x0000000020006960                __partition_runtime_end__ = .
                0x0000000020006960                . = ALIGN (0x4)
                0x0000000020006960                __service_runtime_start__ = .
 *(.bss.serv_runtime)
 .bss.serv_runtime
                0x0000000020006960       0x14 secure_fw/CMakeFiles/tfm_s.dir/__/generated/secure_fw/partitions/crypto/auto_generated/load_info_tfm_crypto.o
 .bss.serv_runtime
                0x0000000020006974       0x3c secure_fw/CMakeFiles/tfm_s.dir/__/generated/secure_fw/partitions/platform/auto_generated/load_info_tfm_platform.o
                0x00000000200069b0                __service_runtime_end__ = .
 *(.bss*)
 .bss           0x00000000200069b0       0x1c d:/ncs/toolchains/v2.0.2/opt/zephyr-sdk/arm-zephyr-eabi/bin/../lib/gcc/arm-zephyr-eabi/10.3.0/thumb/v8-m.main/nofp/crtbegin.o
 *fill*         0x00000000200069cc       0x14 
 .bss.ns_agent_tz_stack
                0x00000000200069e0      0x400 secure_fw/CMakeFiles/tfm_s.dir/partitions/ns_agent/load_info_ns_agent.o
                0x00000000200069e0                ns_agent_tz_stack
 .bss.idle_sp_stack
                0x0000000020006de0      0x100 secure_fw/CMakeFiles/tfm_s.dir/partitions/idle_partition/load_info_idle_sp.o
                0x0000000020006de0                idle_sp_stack
 .bss.p_spm_thread_context
                0x0000000020006ee0        0x4 secure_fw/spm/libtfm_spm.a(backend.o)
                0x0000000020006ee0                p_spm_thread_context
 .bss.partition_listhead
                0x0000000020006ee4        0x8 secure_fw/spm/libtfm_spm.a(backend.o)
                0x0000000020006ee4                partition_listhead
 .bss.p_curr_thrd
                0x0000000020006eec        0x4 secure_fw/spm/libtfm_spm.a(thread.o)
                0x0000000020006eec                p_curr_thrd
 .bss.p_rnbl_head
                0x0000000020006ef0        0x4 secure_fw/spm/libtfm_spm.a(thread.o)
 .bss.p_thrd_head
                0x0000000020006ef4        0x4 secure_fw/spm/libtfm_spm.a(thread.o)
 .bss.scheduler_lock
                0x0000000020006ef8        0x4 secure_fw/spm/libtfm_spm.a(tfm_arch_v8m_main.o)
                0x0000000020006ef8                scheduler_lock
 .bss.is_boot_data_valid
                0x0000000020006efc        0x4 secure_fw/spm/libtfm_spm.a(tfm_boot_data.o)
 .bss.conn_handle_pool_pool_buf
                0x0000000020006f00      0xa90 secure_fw/spm/libtfm_spm.a(spm_ipc.o)
 .bss.loop_index
                0x0000000020007990        0x4 secure_fw/spm/libtfm_spm.a(spm_ipc.o)
 .bss.services_listhead
                0x0000000020007994        0x8 secure_fw/spm/libtfm_spm.a(spm_ipc.o)
 .bss.stateless_services_ref_tbl
                0x000000002000799c       0x80 secure_fw/spm/libtfm_spm.a(spm_ipc.o)
                0x000000002000799c                stateless_services_ref_tbl
 .bss.n_configured_regions
                0x0000000020007a1c        0x4 platform/libplatform_s.a(tfm_hal_isolation.o)
 .bss.heap      0x0000000020007a20       0x14 secure_fw/partitions/crypto/mbedcrypto/nrf_security_src/libcrypto_service_mbedcrypto.a(memory_buffer_alloc.o)
 .bss.global_data
                0x0000000020007a34        0xc secure_fw/partitions/crypto/mbedcrypto/nrf_security_src/libcrypto_service_mbedcrypto.a(psa_crypto.o)
 .bss.global_data
                0x0000000020007a40      0x584 secure_fw/partitions/crypto/mbedcrypto/nrf_security_src/libcrypto_service_mbedcrypto.a(psa_crypto_slot_management.o)
 .bss.nrf_cc3xx_platform_initialized
                0x0000000020007fc4        0x4 D:/ncs/v2.0.2/nrfxlib/crypto/nrf_cc310_platform/lib/cortex-m33/soft-float/no-interrupts/libnrf_cc310_platform_0.9.14.a(nrf_cc3xx_platform.c.obj)
 .bss.nrf_cc3xx_platform_rng_initialized
                0x0000000020007fc8        0x4 D:/ncs/v2.0.2/nrfxlib/crypto/nrf_cc310_platform/lib/cortex-m33/soft-float/no-interrupts/libnrf_cc310_platform_0.9.14.a(nrf_cc3xx_platform.c.obj)
 .bss.global_ctx
                0x0000000020007fcc      0x250 D:/ncs/v2.0.2/nrfxlib/crypto/nrf_cc310_platform/lib/cortex-m33/soft-float/no-interrupts/libnrf_cc310_platform_0.9.14.a(nrf_cc3xx_platform_hmac_drbg.c.obj)
 .bss.hmac_ctx  0x000000002000821c       0x80 D:/ncs/v2.0.2/nrfxlib/crypto/nrf_cc310_platform/lib/cortex-m33/soft-float/no-interrupts/libnrf_cc310_platform_0.9.14.a(hmac_drbg_alt.c.obj)
 .bss.random_seed_buffer
                0x000000002000829c       0x68 D:/ncs/v2.0.2/nrfxlib/crypto/nrf_cc310_platform/lib/cortex-m33/soft-float/no-interrupts/libnrf_cc310_platform_0.9.14.a(cc_lib.c.obj)
 .bss.rndWorkbuff.0
                0x0000000020008304      0x220 D:/ncs/v2.0.2/nrfxlib/crypto/nrf_cc310_platform/lib/cortex-m33/soft-float/no-interrupts/libnrf_cc310_platform_0.9.14.a(cc_lib.c.obj)
 .bss.use_count
                0x0000000020008524        0x4 D:/ncs/v2.0.2/nrfxlib/crypto/nrf_cc310_platform/lib/cortex-m33/soft-float/no-interrupts/libnrf_cc310_platform_0.9.14.a(cc_pal_pm.c.obj)
 .bss.asym_mutex_int
                0x0000000020008528        0x4 D:/ncs/v2.0.2/nrfxlib/crypto/nrf_cc310_platform/lib/cortex-m33/soft-float/no-interrupts/libnrf_cc310_platform_0.9.14.a(nrf_cc3xx_platform_mutex.c.obj)
 .bss.power_mutex_int
                0x000000002000852c        0x4 D:/ncs/v2.0.2/nrfxlib/crypto/nrf_cc310_platform/lib/cortex-m33/soft-float/no-interrupts/libnrf_cc310_platform_0.9.14.a(nrf_cc3xx_platform_mutex.c.obj)
 .bss.rng_mutex_int
                0x0000000020008530        0x4 D:/ncs/v2.0.2/nrfxlib/crypto/nrf_cc310_platform/lib/cortex-m33/soft-float/no-interrupts/libnrf_cc310_platform_0.9.14.a(nrf_cc3xx_platform_mutex.c.obj)
 .bss.sym_mutex_int
                0x0000000020008534        0x4 D:/ncs/v2.0.2/nrfxlib/crypto/nrf_cc310_platform/lib/cortex-m33/soft-float/no-interrupts/libnrf_cc310_platform_0.9.14.a(nrf_cc3xx_platform_mutex.c.obj)
 .bss.rndState.0
                0x0000000020008538        0x4 D:/ncs/v2.0.2/nrfxlib/crypto/nrf_cc310_platform/lib/cortex-m33/soft-float/no-interrupts/libnrf_cc310_platform_0.9.14.a(trng_api.c.obj)
 .bss.rndWorkBuffer.2
                0x000000002000853c      0x220 D:/ncs/v2.0.2/nrfxlib/crypto/nrf_cc310_platform/lib/cortex-m33/soft-float/no-interrupts/libnrf_cc310_platform_0.9.14.a(trng_api.c.obj)
 .bss.trngParams.1
                0x000000002000875c       0x28 D:/ncs/v2.0.2/nrfxlib/crypto/nrf_cc310_platform/lib/cortex-m33/soft-float/no-interrupts/libnrf_cc310_platform_0.9.14.a(trng_api.c.obj)
 .bss.ctx.0     0x0000000020008784       0xf4 D:/ncs/v2.0.2/nrfxlib/crypto/nrf_cc310_platform/lib/cortex-m33/soft-float/no-interrupts/libnrf_cc310_platform_0.9.14.a(sha256.c.obj)
 .bss.__malloc_free_list
                0x0000000020008878        0x4 d:/ncs/toolchains/v2.0.2/opt/zephyr-sdk/arm-zephyr-eabi/bin/../lib/gcc/arm-zephyr-eabi/10.3.0/../../../../arm-zephyr-eabi/lib/thumb/v8-m.main/nofp\libc_nano.a(lib_a-nano-mallocr.o)
                0x0000000020008878                __malloc_free_list
 .bss.__malloc_sbrk_start
                0x000000002000887c        0x4 d:/ncs/toolchains/v2.0.2/opt/zephyr-sdk/arm-zephyr-eabi/bin/../lib/gcc/arm-zephyr-eabi/10.3.0/../../../../arm-zephyr-eabi/lib/thumb/v8-m.main/nofp\libc_nano.a(lib_a-nano-mallocr.o)
                0x000000002000887c                __malloc_sbrk_start
 .bss.errno     0x0000000020008880        0x4 d:/ncs/toolchains/v2.0.2/opt/zephyr-sdk/arm-zephyr-eabi/bin/../lib/gcc/arm-zephyr-eabi/10.3.0/../../../../arm-zephyr-eabi/lib/thumb/v8-m.main/nofp\libc_nano.a(lib_a-reent.o)
                0x0000000020008880                errno
 .bss.__lock___malloc_recursive_mutex
                0x0000000020008884        0x1 d:/ncs/toolchains/v2.0.2/opt/zephyr-sdk/arm-zephyr-eabi/bin/../lib/gcc/arm-zephyr-eabi/10.3.0/../../../../arm-zephyr-eabi/lib/thumb/v8-m.main/nofp\libc_nano.a(lib_a-lock.o)
                0x0000000020008884                __lock___malloc_recursive_mutex
 *fill*         0x0000000020008885        0x3 
 .bss.heap_end.0
                0x0000000020008888        0x4 d:/ncs/toolchains/v2.0.2/opt/zephyr-sdk/arm-zephyr-eabi/bin/../lib/gcc/arm-zephyr-eabi/10.3.0/../../../../arm-zephyr-eabi/lib/thumb/v8-m.main/nofp\libnosys.a(sbrk.o)
 *(COMMON)
                0x000000002000888c                . = ALIGN (0x4)
                0x000000002000888c                __bss_end__ = .
                0x0000000020006840                Image$$ER_TFM_DATA$$ZI$$Base = ADDR (.TFM_BSS)
                0x000000002000888c                Image$$ER_TFM_DATA$$ZI$$Limit = (ADDR (.TFM_BSS) + SIZEOF (.TFM_BSS))
                0x0000000020006840                Image$$ER_PART_RT_POOL$$ZI$$Base = __partition_runtime_start__
                0x0000000020006960                Image$$ER_PART_RT_POOL$$ZI$$Limit = __partition_runtime_end__
                0x0000000020006960                Image$$ER_SERV_RT_POOL$$ZI$$Base = __service_runtime_start__
                0x00000000200069b0                Image$$ER_SERV_RT_POOL$$ZI$$Limit = __service_runtime_end__
                0x0000000020006740                Image$$ER_TFM_DATA$$Base = ADDR (.TFM_DATA)
                0x0000000020008880                Image$$ER_TFM_DATA$$Limit = ((ADDR (.TFM_DATA) + SIZEOF (.TFM_DATA)) + SIZEOF (.TFM_BSS))

.sg_start_dummy
                0x0000000000015a8c        0x0
                0x0000000000015a8c                SG_START_DUMMY_UNUSED = .

.gnu.sgstubs    0x0000000000017c00       0x40
                0x0000000000017c00                Load$$LR$$LR_VENEER$$Base = ABSOLUTE (.)
 *(.gnu.sgstubs*)
 .gnu.sgstubs.__stub
                0x0000000000017c00       0x28 linker stubs
                0x0000000000017c00                tfm_psa_framework_version_veneer
                0x0000000000017c08                tfm_psa_version_veneer
                0x0000000000017c10                tfm_psa_close_veneer
                0x0000000000017c18                tfm_psa_connect_veneer
                0x0000000000017c20                tfm_psa_call_veneer

.sg_end_dummy   0x0000000000017c40      0x3c0
                0x0000000000018000                . = ALIGN (0x8000)
 *fill*         0x0000000000017c40      0x3c0 
                0x0000000000018000                Load$$LR$$LR_VENEER$$Limit = ABSOLUTE (.)
                0x0000000000000001                ASSERT (((Load$$LR$$LR_VENEER$$Limit - Load$$LR$$LR_VENEER$$Base) <= 0x400), Veneer region overflowed)
                0x000000000001c200                Load$$LR$$LR_NS_PARTITION$$Base = 0x1c200
                0x0000000000088000                Load$$LR$$LR_SECONDARY_PARTITION$$Base = 0x88000
                0x0000000020001000                PROVIDE (__stack = Image$$ER_INITIAL_PSP$$ZI$$Limit)
OUTPUT(bin\tfm_s.axf elf32-littlearm)
LOAD linker stubs

.ARM.attributes
                0x0000000000000000       0x30
 .ARM.attributes
                0x0000000000000000       0x22 d:/ncs/toolchains/v2.0.2/opt/zephyr-sdk/arm-zephyr-eabi/bin/../lib/gcc/arm-zephyr-eabi/10.3.0/thumb/v8-m.main/nofp/crti.o
 .ARM.attributes
                0x0000000000000022       0x32 d:/ncs/toolchains/v2.0.2/opt/zephyr-sdk/arm-zephyr-eabi/bin/../lib/gcc/arm-zephyr-eabi/10.3.0/thumb/v8-m.main/nofp/crtbegin.o
 .ARM.attributes
                0x0000000000000054       0x20 d:/ncs/toolchains/v2.0.2/opt/zephyr-sdk/arm-zephyr-eabi/bin/../lib/gcc/arm-zephyr-eabi/10.3.0/../../../../arm-zephyr-eabi/lib/thumb/v8-m.main/nofp/crt0.o
 .ARM.attributes
                0x0000000000000074       0x20 secure_fw/CMakeFiles/tfm_s.dir/__/platform/ext/target/nordic_nrf/common/nrf9160/gcc/startup_nrf9160_s.o
 .ARM.attributes
                0x0000000000000094       0x32 secure_fw/CMakeFiles/tfm_s.dir/__/platform/ext/common/faults.o
 .ARM.attributes
                0x00000000000000c6       0x36 secure_fw/CMakeFiles/tfm_s.dir/__/generated/secure_fw/partitions/crypto/auto_generated/load_info_tfm_crypto.o
 .ARM.attributes
                0x00000000000000fc       0x36 secure_fw/CMakeFiles/tfm_s.dir/__/generated/secure_fw/partitions/platform/auto_generated/load_info_tfm_platform.o
 .ARM.attributes
                0x0000000000000132       0x36 secure_fw/CMakeFiles/tfm_s.dir/partitions/ns_agent/load_info_ns_agent.o
 .ARM.attributes
                0x0000000000000168       0x36 secure_fw/CMakeFiles/tfm_s.dir/partitions/idle_partition/load_info_idle_sp.o
 .ARM.attributes
                0x000000000000019e       0x32 secure_fw/CMakeFiles/tfm_s.dir/spm/cmsis_psa/psa_interface_thread.o
 .ARM.attributes
                0x00000000000001d0       0x32 platform/libplatform_s.a(hw_init.o)
 .ARM.attributes
                0x0000000000000202       0x32 platform/libplatform_s.a(system_nrf9160.o)
 .ARM.attributes
                0x0000000000000234       0x32 secure_fw/partitions/lib/sprt/libtfm_sprt.a(crt_memset.o)
 .ARM.attributes
                0x0000000000000266       0x32 secure_fw/spm/libtfm_spm.a(main.o)
 .ARM.attributes
                0x0000000000000298       0x32 secure_fw/spm/libtfm_spm.a(spm_thread_call.o)
 .ARM.attributes
                0x00000000000002ca       0x32 secure_fw/spm/libtfm_spm.a(psa_api.o)
 .ARM.attributes
                0x00000000000002fc       0x32 secure_fw/spm/libtfm_spm.a(backend.o)
 .ARM.attributes
                0x000000000000032e       0x32 secure_fw/spm/libtfm_spm.a(tfm_core_svcalls_ipc.o)
 .ARM.attributes
                0x0000000000000360       0x32 secure_fw/spm/libtfm_spm.a(tfm_nspm_ipc.o)
 .ARM.attributes
                0x0000000000000392       0x32 secure_fw/spm/libtfm_spm.a(thread.o)
 .ARM.attributes
                0x00000000000003c4       0x32 secure_fw/spm/libtfm_spm.a(tfm_arch_v8m_main.o)
 .ARM.attributes
                0x00000000000003f6       0x32 secure_fw/spm/libtfm_spm.a(ns_agent.o)
 .ARM.attributes
                0x0000000000000428       0x32 secure_fw/spm/libtfm_spm.a(idle_partition.o)
 .ARM.attributes
                0x000000000000045a       0x32 secure_fw/spm/libtfm_spm.a(tfm_boot_data.o)
 .ARM.attributes
                0x000000000000048c       0x32 secure_fw/spm/libtfm_spm.a(tfm_core_utils.o)
 .ARM.attributes
                0x00000000000004be       0x32 secure_fw/spm/libtfm_spm.a(utilities.o)
 .ARM.attributes
                0x00000000000004f0       0x32 secure_fw/spm/libtfm_spm.a(tfm_arch.o)
 .ARM.attributes
                0x0000000000000522       0x32 secure_fw/spm/libtfm_spm.a(spm_ipc.o)
 .ARM.attributes
                0x0000000000000554       0x32 secure_fw/spm/libtfm_spm.a(static_load.o)
 .ARM.attributes
                0x0000000000000586       0x32 secure_fw/spm/libtfm_spm.a(tfm_pools.o)
 .ARM.attributes
                0x00000000000005b8       0x32 secure_fw/spm/libtfm_spm.a(tfm_spm_ns_ctx.o)
 .ARM.attributes
                0x00000000000005ea       0x32 secure_fw/partitions/crypto/libtfm_psa_rot_partition_crypto.a(crypto_init.o)
 .ARM.attributes
                0x000000000000061c       0x32 secure_fw/partitions/crypto/libtfm_psa_rot_partition_crypto.a(crypto_alloc.o)
 .ARM.attributes
                0x000000000000064e       0x32 secure_fw/partitions/crypto/libtfm_psa_rot_partition_crypto.a(crypto_cipher.o)
 .ARM.attributes
                0x0000000000000680       0x32 secure_fw/partitions/crypto/libtfm_psa_rot_partition_crypto.a(crypto_hash.o)
 .ARM.attributes
                0x00000000000006b2       0x32 secure_fw/partitions/crypto/libtfm_psa_rot_partition_crypto.a(crypto_mac.o)
 .ARM.attributes
                0x00000000000006e4       0x32 secure_fw/partitions/crypto/libtfm_psa_rot_partition_crypto.a(crypto_aead.o)
 .ARM.attributes
                0x0000000000000716       0x32 secure_fw/partitions/crypto/libtfm_psa_rot_partition_crypto.a(crypto_asymmetric.o)
 .ARM.attributes
                0x0000000000000748       0x32 secure_fw/partitions/crypto/libtfm_psa_rot_partition_crypto.a(crypto_key_derivation.o)
 .ARM.attributes
                0x000000000000077a       0x32 secure_fw/partitions/crypto/libtfm_psa_rot_partition_crypto.a(crypto_key_management.o)
 .ARM.attributes
                0x00000000000007ac       0x32 secure_fw/partitions/crypto/libtfm_psa_rot_partition_crypto.a(crypto_rng.o)
 .ARM.attributes
                0x00000000000007de       0x36 secure_fw/partitions/crypto/libtfm_psa_rot_partition_crypto.a(intermedia_tfm_crypto.o)
 .ARM.attributes
                0x0000000000000814       0x32 secure_fw/partitions/platform/libtfm_psa_rot_partition_platform.a(platform_sp.o)
 .ARM.attributes
                0x0000000000000846       0x36 secure_fw/partitions/platform/libtfm_psa_rot_partition_platform.a(intermedia_tfm_platform.o)
 .ARM.attributes
                0x000000000000087c       0x32 platform/libplatform_s.a(spm_hal.o)
 .ARM.attributes
                0x00000000000008ae       0x32 platform/libplatform_s.a(tfm_hal_isolation.o)
 .ARM.attributes
                0x00000000000008e0       0x32 platform/libplatform_s.a(tfm_hal_nvic.o)
 .ARM.attributes
                0x0000000000000912       0x32 platform/libplatform_s.a(target_cfg.o)
 .ARM.attributes
                0x0000000000000944       0x32 platform/libplatform_s.a(tfm_hal_platform.o)
 .ARM.attributes
                0x0000000000000976       0x32 platform/libplatform_s.a(dummy_otp.o)
 .ARM.attributes
                0x00000000000009a8       0x32 platform/libplatform_s.a(dummy_provisioning.o)
 .ARM.attributes
                0x00000000000009da       0x32 platform/libplatform_s.a(tfm_platform_system.o)
 .ARM.attributes
                0x0000000000000a0c       0x32 platform/libplatform_s.a(tfm_platform.o)
 .ARM.attributes
                0x0000000000000a3e       0x32 platform/libplatform_s.a(mpu_armv8m_drv.o)
 .ARM.attributes
                0x0000000000000a70       0x32 platform/libplatform_s.a(spu.o)
 .ARM.attributes
                0x0000000000000aa2       0x32 platform/libplatform_s.a(tfm_hal_platform_common.o)
 .ARM.attributes
                0x0000000000000ad4       0x32 platform/libplatform_s.a(tfm_platform_hal_ioctl.o)
 .ARM.attributes
                0x0000000000000b06       0x32 secure_fw/partitions/lib/sprt/libtfm_sprt.a(crt_memcmp.o)
 .ARM.attributes
                0x0000000000000b38       0x32 secure_fw/partitions/lib/sprt/libtfm_sprt.a(crt_memcpy.o)
 .ARM.attributes
                0x0000000000000b6a       0x32 secure_fw/partitions/lib/sprt/libtfm_sprt.a(service_api.o)
 .ARM.attributes
                0x0000000000000b9c       0x32 secure_fw/partitions/crypto/mbedcrypto/nrf_security_src/libcrypto_service_mbedcrypto.a(memory_buffer_alloc.o)
 .ARM.attributes
                0x0000000000000bce       0x32 secure_fw/partitions/crypto/mbedcrypto/nrf_security_src/libcrypto_service_mbedcrypto.a(psa_crypto.o)
 .ARM.attributes
                0x0000000000000c00       0x32 secure_fw/partitions/crypto/mbedcrypto/nrf_security_src/libcrypto_service_mbedcrypto.a(psa_crypto_slot_management.o)
 .ARM.attributes
                0x0000000000000c32       0x32 secure_fw/partitions/crypto/mbedcrypto/nrf_security_src/libcrypto_service_mbedcrypto.a(random_ext.o)
 .ARM.attributes
                0x0000000000000c64       0x34 D:/ncs/v2.0.2/nrfxlib/crypto/nrf_cc310_platform/lib/cortex-m33/soft-float/no-interrupts/libnrf_cc310_platform_0.9.14.a(nrf_cc3xx_platform.c.obj)
 .ARM.attributes
                0x0000000000000c98       0x34 D:/ncs/v2.0.2/nrfxlib/crypto/nrf_cc310_platform/lib/cortex-m33/soft-float/no-interrupts/libnrf_cc310_platform_0.9.14.a(nrf_cc3xx_platform_hmac_drbg.c.obj)
 .ARM.attributes
                0x0000000000000ccc       0x34 D:/ncs/v2.0.2/nrfxlib/crypto/nrf_cc310_platform/lib/cortex-m33/soft-float/no-interrupts/libnrf_cc310_platform_0.9.14.a(mbedtls_common.c.obj)
 .ARM.attributes
                0x0000000000000d00       0x34 D:/ncs/v2.0.2/nrfxlib/crypto/nrf_cc310_platform/lib/cortex-m33/soft-float/no-interrupts/libnrf_cc310_platform_0.9.14.a(hmac_drbg_alt.c.obj)
 .ARM.attributes
                0x0000000000000d34       0x34 D:/ncs/v2.0.2/nrfxlib/crypto/nrf_cc310_platform/lib/cortex-m33/soft-float/no-interrupts/libnrf_cc310_platform_0.9.14.a(entropy.c.obj)
 .ARM.attributes
                0x0000000000000d68       0x34 D:/ncs/v2.0.2/nrfxlib/crypto/nrf_cc310_platform/lib/cortex-m33/soft-float/no-interrupts/libnrf_cc310_platform_0.9.14.a(cc_lib.c.obj)
 .ARM.attributes
                0x0000000000000d9c       0x34 D:/ncs/v2.0.2/nrfxlib/crypto/nrf_cc310_platform/lib/cortex-m33/soft-float/no-interrupts/libnrf_cc310_platform_0.9.14.a(cc_hal.c.obj)
 .ARM.attributes
                0x0000000000000dd0       0x34 D:/ncs/v2.0.2/nrfxlib/crypto/nrf_cc310_platform/lib/cortex-m33/soft-float/no-interrupts/libnrf_cc310_platform_0.9.14.a(cc_pal.c.obj)
 .ARM.attributes
                0x0000000000000e04       0x34 D:/ncs/v2.0.2/nrfxlib/crypto/nrf_cc310_platform/lib/cortex-m33/soft-float/no-interrupts/libnrf_cc310_platform_0.9.14.a(cc_pal_dma.c.obj)
 .ARM.attributes
                0x0000000000000e38       0x34 D:/ncs/v2.0.2/nrfxlib/crypto/nrf_cc310_platform/lib/cortex-m33/soft-float/no-interrupts/libnrf_cc310_platform_0.9.14.a(cc_pal_interrupt_ctrl.c.obj)
 .ARM.attributes
                0x0000000000000e6c       0x34 D:/ncs/v2.0.2/nrfxlib/crypto/nrf_cc310_platform/lib/cortex-m33/soft-float/no-interrupts/libnrf_cc310_platform_0.9.14.a(cc_pal_mem.c.obj)
 .ARM.attributes
                0x0000000000000ea0       0x34 D:/ncs/v2.0.2/nrfxlib/crypto/nrf_cc310_platform/lib/cortex-m33/soft-float/no-interrupts/libnrf_cc310_platform_0.9.14.a(cc_pal_mutex.c.obj)
 .ARM.attributes
                0x0000000000000ed4       0x34 D:/ncs/v2.0.2/nrfxlib/crypto/nrf_cc310_platform/lib/cortex-m33/soft-float/no-interrupts/libnrf_cc310_platform_0.9.14.a(cc_pal_pm.c.obj)
 .ARM.attributes
                0x0000000000000f08       0x34 D:/ncs/v2.0.2/nrfxlib/crypto/nrf_cc310_platform/lib/cortex-m33/soft-float/no-interrupts/libnrf_cc310_platform_0.9.14.a(threading_alt.c.obj)
 .ARM.attributes
                0x0000000000000f3c       0x34 D:/ncs/v2.0.2/nrfxlib/crypto/nrf_cc310_platform/lib/cortex-m33/soft-float/no-interrupts/libnrf_cc310_platform_0.9.14.a(nrf_cc3xx_platform_abort.c.obj)
 .ARM.attributes
                0x0000000000000f70       0x34 D:/ncs/v2.0.2/nrfxlib/crypto/nrf_cc310_platform/lib/cortex-m33/soft-float/no-interrupts/libnrf_cc310_platform_0.9.14.a(nrf_cc3xx_platform_mutex.c.obj)
 .ARM.attributes
                0x0000000000000fa4       0x34 D:/ncs/v2.0.2/nrfxlib/crypto/nrf_cc310_platform/lib/cortex-m33/soft-float/no-interrupts/libnrf_cc310_platform_0.9.14.a(llf_rnd_trng90b.c.obj)
 .ARM.attributes
                0x0000000000000fd8       0x34 D:/ncs/v2.0.2/nrfxlib/crypto/nrf_cc310_platform/lib/cortex-m33/soft-float/no-interrupts/libnrf_cc310_platform_0.9.14.a(trng_api.c.obj)
 .ARM.attributes
                0x000000000000100c       0x34 D:/ncs/v2.0.2/nrfxlib/crypto/nrf_cc310_platform/lib/cortex-m33/soft-float/no-interrupts/libnrf_cc310_platform_0.9.14.a(sha256_alt.c.obj)
 .ARM.attributes
                0x0000000000001040       0x34 D:/ncs/v2.0.2/nrfxlib/crypto/nrf_cc310_platform/lib/cortex-m33/soft-float/no-interrupts/libnrf_cc310_platform_0.9.14.a(mbedtls_hash_common.c.obj)
 .ARM.attributes
                0x0000000000001074       0x34 D:/ncs/v2.0.2/nrfxlib/crypto/nrf_cc310_platform/lib/cortex-m33/soft-float/no-interrupts/libnrf_cc310_platform_0.9.14.a(sha256.c.obj)
 .ARM.attributes
                0x00000000000010a8       0x34 D:/ncs/v2.0.2/nrfxlib/crypto/nrf_cc310_platform/lib/cortex-m33/soft-float/no-interrupts/libnrf_cc310_platform_0.9.14.a(cc_rng_plat.c.obj)
 .ARM.attributes
                0x00000000000010dc       0x34 D:/ncs/v2.0.2/nrfxlib/crypto/nrf_cc310_platform/lib/cortex-m33/soft-float/no-interrupts/libnrf_cc310_platform_0.9.14.a(cc_pal_trng.c.obj)
 .ARM.attributes
                0x0000000000001110       0x34 D:/ncs/v2.0.2/nrfxlib/crypto/nrf_cc310_platform/lib/cortex-m33/soft-float/no-interrupts/libnrf_cc310_platform_0.9.14.a(llf_rnd.c.obj)
 .ARM.attributes
                0x0000000000001144       0x34 D:/ncs/v2.0.2/nrfxlib/crypto/nrf_cc310_platform/lib/cortex-m33/soft-float/no-interrupts/libnrf_cc310_platform_0.9.14.a(driver_common.c.obj)
 .ARM.attributes
                0x0000000000001178       0x34 D:/ncs/v2.0.2/nrfxlib/crypto/nrf_cc310_platform/lib/cortex-m33/soft-float/no-interrupts/libnrf_cc310_platform_0.9.14.a(hash_driver.c.obj)
 .ARM.attributes
                0x00000000000011ac       0x34 D:/ncs/v2.0.2/nrfxlib/crypto/nrf_cc310_platform/lib/cortex-m33/soft-float/no-interrupts/libnrf_cc310_platform_0.9.14.a(cc_pal_buff_attr.c.obj)
 .ARM.attributes
                0x00000000000011e0       0x32 secure_fw/partitions/crypto/mbedcrypto/nrf_security_src/libmbedcrypto_base.a(platform.o)
 .ARM.attributes
                0x0000000000001212       0x32 d:/ncs/toolchains/v2.0.2/opt/zephyr-sdk/arm-zephyr-eabi/bin/../lib/gcc/arm-zephyr-eabi/10.3.0/../../../../arm-zephyr-eabi/lib/thumb/v8-m.main/nofp\libc_nano.a(lib_a-calloc.o)
 .ARM.attributes
                0x0000000000001244       0x32 d:/ncs/toolchains/v2.0.2/opt/zephyr-sdk/arm-zephyr-eabi/bin/../lib/gcc/arm-zephyr-eabi/10.3.0/../../../../arm-zephyr-eabi/lib/thumb/v8-m.main/nofp\libc_nano.a(lib_a-exit.o)
 .ARM.attributes
                0x0000000000001276       0x32 d:/ncs/toolchains/v2.0.2/opt/zephyr-sdk/arm-zephyr-eabi/bin/../lib/gcc/arm-zephyr-eabi/10.3.0/../../../../arm-zephyr-eabi/lib/thumb/v8-m.main/nofp\libc_nano.a(lib_a-impure.o)
 .ARM.attributes
                0x00000000000012a8       0x32 d:/ncs/toolchains/v2.0.2/opt/zephyr-sdk/arm-zephyr-eabi/bin/../lib/gcc/arm-zephyr-eabi/10.3.0/../../../../arm-zephyr-eabi/lib/thumb/v8-m.main/nofp\libc_nano.a(lib_a-init.o)
 .ARM.attributes
                0x00000000000012da       0x32 d:/ncs/toolchains/v2.0.2/opt/zephyr-sdk/arm-zephyr-eabi/bin/../lib/gcc/arm-zephyr-eabi/10.3.0/../../../../arm-zephyr-eabi/lib/thumb/v8-m.main/nofp\libc_nano.a(lib_a-malloc.o)
 .ARM.attributes
                0x000000000000130c       0x32 d:/ncs/toolchains/v2.0.2/opt/zephyr-sdk/arm-zephyr-eabi/bin/../lib/gcc/arm-zephyr-eabi/10.3.0/../../../../arm-zephyr-eabi/lib/thumb/v8-m.main/nofp\libc_nano.a(lib_a-memmove.o)
 .ARM.attributes
                0x000000000000133e       0x32 d:/ncs/toolchains/v2.0.2/opt/zephyr-sdk/arm-zephyr-eabi/bin/../lib/gcc/arm-zephyr-eabi/10.3.0/../../../../arm-zephyr-eabi/lib/thumb/v8-m.main/nofp\libc_nano.a(lib_a-nano-callocr.o)
 .ARM.attributes
                0x0000000000001370       0x32 d:/ncs/toolchains/v2.0.2/opt/zephyr-sdk/arm-zephyr-eabi/bin/../lib/gcc/arm-zephyr-eabi/10.3.0/../../../../arm-zephyr-eabi/lib/thumb/v8-m.main/nofp\libc_nano.a(lib_a-nano-freer.o)
 .ARM.attributes
                0x00000000000013a2       0x32 d:/ncs/toolchains/v2.0.2/opt/zephyr-sdk/arm-zephyr-eabi/bin/../lib/gcc/arm-zephyr-eabi/10.3.0/../../../../arm-zephyr-eabi/lib/thumb/v8-m.main/nofp\libc_nano.a(lib_a-nano-mallocr.o)
 .ARM.attributes
                0x00000000000013d4       0x32 d:/ncs/toolchains/v2.0.2/opt/zephyr-sdk/arm-zephyr-eabi/bin/../lib/gcc/arm-zephyr-eabi/10.3.0/../../../../arm-zephyr-eabi/lib/thumb/v8-m.main/nofp\libc_nano.a(lib_a-sbrkr.o)
 .ARM.attributes
                0x0000000000001406       0x32 d:/ncs/toolchains/v2.0.2/opt/zephyr-sdk/arm-zephyr-eabi/bin/../lib/gcc/arm-zephyr-eabi/10.3.0/../../../../arm-zephyr-eabi/lib/thumb/v8-m.main/nofp\libc_nano.a(lib_a-mlock.o)
 .ARM.attributes
                0x0000000000001438       0x32 d:/ncs/toolchains/v2.0.2/opt/zephyr-sdk/arm-zephyr-eabi/bin/../lib/gcc/arm-zephyr-eabi/10.3.0/../../../../arm-zephyr-eabi/lib/thumb/v8-m.main/nofp\libc_nano.a(lib_a-reent.o)
 .ARM.attributes
                0x000000000000146a       0x32 d:/ncs/toolchains/v2.0.2/opt/zephyr-sdk/arm-zephyr-eabi/bin/../lib/gcc/arm-zephyr-eabi/10.3.0/../../../../arm-zephyr-eabi/lib/thumb/v8-m.main/nofp\libc_nano.a(lib_a-lock.o)
 .ARM.attributes
                0x000000000000149c       0x32 d:/ncs/toolchains/v2.0.2/opt/zephyr-sdk/arm-zephyr-eabi/bin/../lib/gcc/arm-zephyr-eabi/10.3.0/thumb/v8-m.main/nofp\libgcc.a(cmse.o)
 .ARM.attributes
                0x00000000000014ce       0x32 d:/ncs/toolchains/v2.0.2/opt/zephyr-sdk/arm-zephyr-eabi/bin/../lib/gcc/arm-zephyr-eabi/10.3.0/thumb/v8-m.main/nofp/crtend.o
 .ARM.attributes
                0x0000000000001500       0x22 d:/ncs/toolchains/v2.0.2/opt/zephyr-sdk/arm-zephyr-eabi/bin/../lib/gcc/arm-zephyr-eabi/10.3.0/thumb/v8-m.main/nofp/crtn.o
 .ARM.attributes
                0x0000000000001522       0x32 d:/ncs/toolchains/v2.0.2/opt/zephyr-sdk/arm-zephyr-eabi/bin/../lib/gcc/arm-zephyr-eabi/10.3.0/../../../../arm-zephyr-eabi/lib/thumb/v8-m.main/nofp\libnosys.a(sbrk.o)
 .ARM.attributes
                0x0000000000001554       0x32 d:/ncs/toolchains/v2.0.2/opt/zephyr-sdk/arm-zephyr-eabi/bin/../lib/gcc/arm-zephyr-eabi/10.3.0/../../../../arm-zephyr-eabi/lib/thumb/v8-m.main/nofp\libnosys.a(_exit.o)

.comment        0x0000000000000000       0x69
 .comment       0x0000000000000000       0x20 secure_fw/CMakeFiles/tfm_s.dir/__/platform/ext/common/faults.o
                                         0x21 (size before relaxing)
 .comment       0x0000000000000020       0x21 secure_fw/CMakeFiles/tfm_s.dir/__/generated/secure_fw/partitions/crypto/auto_generated/load_info_tfm_crypto.o
 .comment       0x0000000000000020       0x21 secure_fw/CMakeFiles/tfm_s.dir/__/generated/secure_fw/partitions/platform/auto_generated/load_info_tfm_platform.o
 .comment       0x0000000000000020       0x21 secure_fw/CMakeFiles/tfm_s.dir/partitions/ns_agent/load_info_ns_agent.o
 .comment       0x0000000000000020       0x21 secure_fw/CMakeFiles/tfm_s.dir/partitions/idle_partition/load_info_idle_sp.o
 .comment       0x0000000000000020       0x21 secure_fw/CMakeFiles/tfm_s.dir/spm/cmsis_psa/psa_interface_thread.o
 .comment       0x0000000000000020       0x21 platform/libplatform_s.a(hw_init.o)
 .comment       0x0000000000000020       0x21 platform/libplatform_s.a(system_nrf9160.o)
 .comment       0x0000000000000020       0x21 secure_fw/partitions/lib/sprt/libtfm_sprt.a(crt_memset.o)
 .comment       0x0000000000000020       0x21 secure_fw/spm/libtfm_spm.a(main.o)
 .comment       0x0000000000000020       0x21 secure_fw/spm/libtfm_spm.a(spm_thread_call.o)
 .comment       0x0000000000000020       0x21 secure_fw/spm/libtfm_spm.a(psa_api.o)
 .comment       0x0000000000000020       0x21 secure_fw/spm/libtfm_spm.a(backend.o)
 .comment       0x0000000000000020       0x21 secure_fw/spm/libtfm_spm.a(tfm_core_svcalls_ipc.o)
 .comment       0x0000000000000020       0x21 secure_fw/spm/libtfm_spm.a(tfm_nspm_ipc.o)
 .comment       0x0000000000000020       0x21 secure_fw/spm/libtfm_spm.a(thread.o)
 .comment       0x0000000000000020       0x21 secure_fw/spm/libtfm_spm.a(tfm_arch_v8m_main.o)
 .comment       0x0000000000000020       0x21 secure_fw/spm/libtfm_spm.a(ns_agent.o)
 .comment       0x0000000000000020       0x21 secure_fw/spm/libtfm_spm.a(idle_partition.o)
 .comment       0x0000000000000020       0x21 secure_fw/spm/libtfm_spm.a(tfm_boot_data.o)
 .comment       0x0000000000000020       0x21 secure_fw/spm/libtfm_spm.a(tfm_core_utils.o)
 .comment       0x0000000000000020       0x21 secure_fw/spm/libtfm_spm.a(utilities.o)
 .comment       0x0000000000000020       0x21 secure_fw/spm/libtfm_spm.a(tfm_arch.o)
 .comment       0x0000000000000020       0x21 secure_fw/spm/libtfm_spm.a(spm_ipc.o)
 .comment       0x0000000000000020       0x21 secure_fw/spm/libtfm_spm.a(static_load.o)
 .comment       0x0000000000000020       0x21 secure_fw/spm/libtfm_spm.a(tfm_pools.o)
 .comment       0x0000000000000020       0x21 secure_fw/spm/libtfm_spm.a(tfm_spm_ns_ctx.o)
 .comment       0x0000000000000020       0x21 secure_fw/partitions/crypto/libtfm_psa_rot_partition_crypto.a(crypto_init.o)
 .comment       0x0000000000000020       0x21 secure_fw/partitions/crypto/libtfm_psa_rot_partition_crypto.a(crypto_alloc.o)
 .comment       0x0000000000000020       0x21 secure_fw/partitions/crypto/libtfm_psa_rot_partition_crypto.a(crypto_cipher.o)
 .comment       0x0000000000000020       0x21 secure_fw/partitions/crypto/libtfm_psa_rot_partition_crypto.a(crypto_hash.o)
 .comment       0x0000000000000020       0x21 secure_fw/partitions/crypto/libtfm_psa_rot_partition_crypto.a(crypto_mac.o)
 .comment       0x0000000000000020       0x21 secure_fw/partitions/crypto/libtfm_psa_rot_partition_crypto.a(crypto_aead.o)
 .comment       0x0000000000000020       0x21 secure_fw/partitions/crypto/libtfm_psa_rot_partition_crypto.a(crypto_asymmetric.o)
 .comment       0x0000000000000020       0x21 secure_fw/partitions/crypto/libtfm_psa_rot_partition_crypto.a(crypto_key_derivation.o)
 .comment       0x0000000000000020       0x21 secure_fw/partitions/crypto/libtfm_psa_rot_partition_crypto.a(crypto_key_management.o)
 .comment       0x0000000000000020       0x21 secure_fw/partitions/crypto/libtfm_psa_rot_partition_crypto.a(crypto_rng.o)
 .comment       0x0000000000000020       0x21 secure_fw/partitions/crypto/libtfm_psa_rot_partition_crypto.a(intermedia_tfm_crypto.o)
 .comment       0x0000000000000020       0x21 secure_fw/partitions/platform/libtfm_psa_rot_partition_platform.a(platform_sp.o)
 .comment       0x0000000000000020       0x21 secure_fw/partitions/platform/libtfm_psa_rot_partition_platform.a(intermedia_tfm_platform.o)
 .comment       0x0000000000000020       0x21 platform/libplatform_s.a(spm_hal.o)
 .comment       0x0000000000000020       0x21 platform/libplatform_s.a(tfm_hal_isolation.o)
 .comment       0x0000000000000020       0x21 platform/libplatform_s.a(tfm_hal_nvic.o)
 .comment       0x0000000000000020       0x21 platform/libplatform_s.a(target_cfg.o)
 .comment       0x0000000000000020       0x21 platform/libplatform_s.a(tfm_hal_platform.o)
 .comment       0x0000000000000020       0x21 platform/libplatform_s.a(dummy_otp.o)
 .comment       0x0000000000000020       0x21 platform/libplatform_s.a(dummy_provisioning.o)
 .comment       0x0000000000000020       0x21 platform/libplatform_s.a(tfm_platform_system.o)
 .comment       0x0000000000000020       0x21 platform/libplatform_s.a(tfm_platform.o)
 .comment       0x0000000000000020       0x21 platform/libplatform_s.a(mpu_armv8m_drv.o)
 .comment       0x0000000000000020       0x21 platform/libplatform_s.a(spu.o)
 .comment       0x0000000000000020       0x21 platform/libplatform_s.a(tfm_hal_platform_common.o)
 .comment       0x0000000000000020       0x21 platform/libplatform_s.a(tfm_platform_hal_ioctl.o)
 .comment       0x0000000000000020       0x21 secure_fw/partitions/lib/sprt/libtfm_sprt.a(crt_memcmp.o)
 .comment       0x0000000000000020       0x21 secure_fw/partitions/lib/sprt/libtfm_sprt.a(crt_memcpy.o)
 .comment       0x0000000000000020       0x21 secure_fw/partitions/lib/sprt/libtfm_sprt.a(service_api.o)
 .comment       0x0000000000000020       0x21 secure_fw/partitions/crypto/mbedcrypto/nrf_security_src/libcrypto_service_mbedcrypto.a(memory_buffer_alloc.o)
 .comment       0x0000000000000020       0x21 secure_fw/partitions/crypto/mbedcrypto/nrf_security_src/libcrypto_service_mbedcrypto.a(psa_crypto.o)
 .comment       0x0000000000000020       0x21 secure_fw/partitions/crypto/mbedcrypto/nrf_security_src/libcrypto_service_mbedcrypto.a(psa_crypto_slot_management.o)
 .comment       0x0000000000000020       0x21 secure_fw/partitions/crypto/mbedcrypto/nrf_security_src/libcrypto_service_mbedcrypto.a(random_ext.o)
 .comment       0x0000000000000020       0x49 D:/ncs/v2.0.2/nrfxlib/crypto/nrf_cc310_platform/lib/cortex-m33/soft-float/no-interrupts/libnrf_cc310_platform_0.9.14.a(nrf_cc3xx_platform.c.obj)
                                         0x4a (size before relaxing)
 .comment       0x0000000000000069       0x4a D:/ncs/v2.0.2/nrfxlib/crypto/nrf_cc310_platform/lib/cortex-m33/soft-float/no-interrupts/libnrf_cc310_platform_0.9.14.a(nrf_cc3xx_platform_hmac_drbg.c.obj)
 .comment       0x0000000000000069       0x4a D:/ncs/v2.0.2/nrfxlib/crypto/nrf_cc310_platform/lib/cortex-m33/soft-float/no-interrupts/libnrf_cc310_platform_0.9.14.a(mbedtls_common.c.obj)
 .comment       0x0000000000000069       0x4a D:/ncs/v2.0.2/nrfxlib/crypto/nrf_cc310_platform/lib/cortex-m33/soft-float/no-interrupts/libnrf_cc310_platform_0.9.14.a(hmac_drbg_alt.c.obj)
 .comment       0x0000000000000069       0x4a D:/ncs/v2.0.2/nrfxlib/crypto/nrf_cc310_platform/lib/cortex-m33/soft-float/no-interrupts/libnrf_cc310_platform_0.9.14.a(entropy.c.obj)
 .comment       0x0000000000000069       0x4a D:/ncs/v2.0.2/nrfxlib/crypto/nrf_cc310_platform/lib/cortex-m33/soft-float/no-interrupts/libnrf_cc310_platform_0.9.14.a(cc_lib.c.obj)
 .comment       0x0000000000000069       0x4a D:/ncs/v2.0.2/nrfxlib/crypto/nrf_cc310_platform/lib/cortex-m33/soft-float/no-interrupts/libnrf_cc310_platform_0.9.14.a(cc_hal.c.obj)
 .comment       0x0000000000000069       0x4a D:/ncs/v2.0.2/nrfxlib/crypto/nrf_cc310_platform/lib/cortex-m33/soft-float/no-interrupts/libnrf_cc310_platform_0.9.14.a(cc_pal.c.obj)
 .comment       0x0000000000000069       0x4a D:/ncs/v2.0.2/nrfxlib/crypto/nrf_cc310_platform/lib/cortex-m33/soft-float/no-interrupts/libnrf_cc310_platform_0.9.14.a(cc_pal_dma.c.obj)
 .comment       0x0000000000000069       0x4a D:/ncs/v2.0.2/nrfxlib/crypto/nrf_cc310_platform/lib/cortex-m33/soft-float/no-interrupts/libnrf_cc310_platform_0.9.14.a(cc_pal_interrupt_ctrl.c.obj)
 .comment       0x0000000000000069       0x4a D:/ncs/v2.0.2/nrfxlib/crypto/nrf_cc310_platform/lib/cortex-m33/soft-float/no-interrupts/libnrf_cc310_platform_0.9.14.a(cc_pal_mem.c.obj)
 .comment       0x0000000000000069       0x4a D:/ncs/v2.0.2/nrfxlib/crypto/nrf_cc310_platform/lib/cortex-m33/soft-float/no-interrupts/libnrf_cc310_platform_0.9.14.a(cc_pal_mutex.c.obj)
