:020000021000EC
:100200000008002045030100C7030100A1110100FF
:10021000AB110100B5110100C9110100BF110100AE
:10022000000000000000000000000000712101003B
:10023000E30301000000000039210100EB0301008D
:10024000000000000000000000000000952B0100ED
:1002500000000000F30301000000000000000000A7
:10026000F7030100FB030100FF0301000304010089
:1002700000000000070401000B0401000F0401004E
:10028000130401001704010000000000000000003A
:100290001B0401001F04010000000000000000001A
:1002A00023040100000000000000000027040100FA
:1002B0002B0401002F040100330401003704010066
:1002C0003B0401003F040100430401004704010016
:1002D0004B040100000000004F040100000000007A
:1002E000530401000000000057040100000000005A
:1002F0005B0401000000000000000000000000009E
:10030000000000005F040100000000000000000089
:1003100000000000000000000000000000000000DD
:100320000000000063040100000000000000000065
:1003300000000000000000000000000000000000BD
:1003400067040100002080F31488BFF36F8F80F3EF
:100350000A8880F30B8814490860BFF34F8F00F0C0
:1003600037FF124C124DAC4209DA21686268A3686B
:10037000043BA2BFC858D050FAE70C34F3E70D4B4A
:100380000D4CA34208DA19685A680020043AA4BF49
:100390008850FBE70833F4E772B60848084908605C
:1003A00000F05AFF00F0C0FE94ED00E06C04010084
:1003B0009004010090040100A80401000002010063
:1003C00008ED00E0FEE7FFF7FEBF00F0E9BE00F039
:1003D000ECBE00F0EFBE00F0F7BE00F0F0BE01F0A2
:1003E000C7BEFFF7FEBF01F0A7BEFFF7FEBF02F0DA
:1003F000D1BBFFF7FEBFFFF7FEBFFFF7FEBFFFF762
:10040000FEBFFFF7FEBFFFF7FEBFFFF7FEBFFFF720
:10041000FEBFFFF7FEBFFFF7FEBFFFF7FEBFFFF710
:10042000FEBFFFF7FEBFFFF7FEBFFFF7FEBFFFF700
:10043000FEBFFFF7FEBFFFF7FEBFFFF7FEBFFFF7F0
:10044000FEBFFFF7FEBFFFF7FEBFFFF7FEBFFFF7E0
:10045000FEBFFFF7FEBFFFF7FEBFFFF7FEBFFFF7D0
:0C046000FEBFFFF7FEBFFFF7FEBF00BFAE
:10046C009859010040670020F4000000A0590100D9
:10047C002020002000000000A059010000200020D6
:04048C00000000006C
:10049000406800204C200000202000202047000061
:0804A0000020002020000000F4
:1004C000024B0A460146186800F05CB8C867002075
:1004D00008B5074B044613B1002100E000BF054BEF
:1004E0001868836A03B19847204605F0B1F800BF49
:1004F000000000002407010070B50D4D00260D4CD2
:10050000641BA410A64209D10B4D00260B4C05F02C
:10051000A1F8641BA410A64205D170BD55F8043B98
:1005200001369847EEE755F8043B01369847F2E765
:100530002C6800202C6800202C68002030680020E7
:10054000024B0146186800F02BB800BFC8670020B6
:10055000884210B501EB020402D98442234607D831
:10056000431EA14208D011F8012B03F8012FF8E730
:10057000024401468A4200D110BD13F8014D02F831
:10058000014DF7E738B502FB01F5294600F052F8B6
:10059000044618B12A46002100F088F9204638BDEB
:1005A00038B50546002941D051F8043C0C1F002BFA
:1005B000B8BFE41800F0A8F81D4A136833B96360A7
:1005C00014602846BDE8384000F0A4B8A34208D91A
:1005D000206821188B4201BF19685B6809182160E7
:1005E000EDE71A465B680BB1A342FAD911685018BF
:1005F000A0420BD120680144501811608342E0D121
:1006000018685B68014453601160DAE702D90C2373
:100610002B60D6E7206821188B4202BF19685B68FF
:100620000918636008BF21605460CAE738BD00BF85
:1006300078880020F8B5CD1C064625F0030508355E
:100640000C2D38BF0C25002D01DBA94203D90C234A
:1006500033600020F8BD00F057F821490A681446BD
:100660009CB9204F3B6823B92146304600F03CF846
:1006700038602946304600F037F8431C23D10C235C
:100680003046336000F046F8E3E723685B1B17D47D
:100690000B2B03D923601C44256004E06368A2424D
:1006A0000CBF0B605360304600F034F804F10B00CF
:1006B000231D20F00700C21ACCD01B1AA350C9E793
:1006C00022466468CCE7C41C24F00304A042E3D0B3
:1006D000211A304600F008F80130DDD1CFE700BF25
:1006E000788800207C88002038B50023054D04461A
:1006F00008462B6004F09CFF431C02D12B6803B119
:10070000236038BD80880020014800F009B800BF90
:1007100084880020014800F004B800BF84880020CD
:1007200070477047CC670020009A284B9A4209D145
:100730001FB527486946002200F090FE0FBC0CBC94
:100740009E4674470FDFFEE7009A204B9A4209D17C
:100750001FB520486946002200F080FE0FBC0CBC8B
:100760009E4674470FDFFEE7009A184B9A4209D164
:100770001FB519486946002200F070FE0FBC0CBC82
:100780009E4674470FDFFEE70CB4029A0F4B9A4265
:100790000AD10CBC1FB511486946002200F05EFE6C
:1007A0000FBC0CBC9E4674470FDFFEE7009A074B58
:1007B0009A4209D11FB50A486946002200F04EFE50
:1007C0000FBC0CBC9E4674470FDFFEE7A5EDF5FE9F
:1007D000951401009B140100C9140100911501003A
:1007E00019180100C3438B4210B50ED332F01F031A
:1007F0000BD1013902F014030144102B81EA0004EB
:100800003DD004DC63B1042B32D0002041E0142B36
:10081000FBD11F2C40E8C0F30CD941E8C0F105E042
:100820001F2C40E800F305D941E800F11C460B46B7
:100830008C42EAD122F01402013A0A2AE5D801A139
:1008400051F822F0A10801009B0801008D08010069
:100850000B0801000B0801000B0801000B08010048
:10086000A7080100A1080100950801008D080100FA
:100870001F2C40E840F3DDD941E840F1D6E71F2CBA
:1008800040E880F3D6D941E880F1CFE713F4001FA8
:10089000BBD010BD13F4801FFAE75B02F9D5B4E7B3
:1008A00013F4002FF4E713F4802FF1E70346F0B5BB
:1008B000C9B29AB19C0715D115460C0444EA0164EB
:1008C0000C4344EA0124D618032D0FD822F0030567
:1008D0002B446FF00305940805FB04221A4493424D
:1008E00008D1F0BD03F8011B013AE2E7771B3C6039
:1008F000043DE9E703F8011BF1E70346002030B5AA
:10090000013A00D230BD1D780C78A54202D008B95A
:10091000281BF5E701330131F2E7F0B504468AB34D
:1009200041EA040515F0010513D1012A23D941EA52
:10093000040313F0020312D1D618032E15D86FF05A
:100940000306930806FB032204EB830401EB8301F7
:1009500016E011F8013B013A04F8013BDFE731F8FA
:10096000023B023A24F8023BDFE7CE1A3768E61A68
:100970003760043BE0E70023DEE76B5C2B55013575
:10098000AA42FAD1F0BD42DF00470000000000009B
:100990000000000000000000000000000000000057
:1009A00001015F5F030100001F030000E50A010071
:1009B0000020000000000000010000000100000015
:1009C0000000000000000000304200200000000095
:1009D000700000006457010010000000800000005B
:1009E000000700000100000000015F5F040100003B
:1009F0001F030000950F010000050000000000002B
:100A000000000000030000000000000000000000E3
:100A100030620020000000006F570100100000004D
:100A20004000000000050000010000008C5701009C
:100A3000200000004100000000050000010000004F
:100A4000A257010040000000420000000004000026
:100A50000100000000015F5F00000000FE030000D5
:100A6000F921010000040000000000000000000067
:100A7000000000000000000000000000E06900200D
:100A80000000000001015F5F01000000FF030000A3
:100A90001922010000010000000000000000000019
:100AA000000000000000000000000000E06D0020D9
:040AB0000000000042
:100AC00038B500250648294600F58054D4F800249E
:100AD000C4F80454FFF7EAFEC4F8005438BD00BF60
:100AE000242000202DE9F04FADB000F0E9F80028F7
:100AF00040F0DB8001216E4802F05AFE02F0DAFE7F
:100B0000002840F0D2801FAD014634222846FFF76E
:100B1000CDFE4FF0FF34674F4FF000414FF0FF30F4
:100B200004F0BCFDC20640F1BF80102013A904F000
:100B3000B9FD00B1FEE71399002940F0B4803423D9
:100B40002A46149804F0B6FD342805D11F9C402C89
:100B500004D94FF0FF341EE0631C1CD0202200217A
:100B600003A8FFF7A3FE202200210BA8FFF79EFE9B
:100B700004231AAA52F804191E46013B49B1342332
:100B80004FF0010B039504930DF10C090DF1600872
:100B900028E0002BEED16FF0830676E0DFF818C175
:100BA000D8F80030DCF80004D91C21F00301C0F5AE
:100BB000A0529142C24664D80144C219CCF8001434
:100BC00014985946019204F075FD019ADAF8003044
:100BD000C9F80820C9F80C3008F104080BF1010B22
:100BE00009F10809B345D9D34FF004091EAB53F8F6
:100BF0000429C84609F1FF391AB34FF0000E7346B5
:100C0000DFF8B4C00BA9DCF800240DF16C0A5AF827
:100C1000049BC2F5A05B09F1030020F003005845D6
:100C200001F1080128D8013302EB070E434541E9E1
:100C300002E902444FF0010EE9D19946CCF80024B4
:100C400002E0B9F1000FD2D1159A1B4B3146C3F81F
:100C500004241A4B0BAA53F8248003A84B46C04720
:100C60004FF0000806460DF12C0AC8450AF1080AA3
:100C700010D1FFF725FF08E0BEF1000F01D0CCF83E
:100C80000024FFF71DFF6FF08C063146149804F026
:100C90001DFD41E741465AE90223149804F012FD74
:100CA00008F10108E1E7FEE7FEE72DB0BDE8F08FAF
:100CB000202000202420002024300020DC0F010010
:100CC00008B54FF4606200210248FFF7EFFD0020F5
:100CD00008BD00BF303400206FF0850070476FF012
:100CE000850070476FF0850070476FF08500704792
:100CF0006FF0850070476FF0850070476FF08500DA
:100D000070476FF0850070476FF0850070476FF097
:100D1000850070476FF0850070476FF08500704761
:100D20006FF0850070476FF0850070476FF08500A9
:100D300070476FF0850070476FF0850070476FF067
:100D4000850070476FF0850070476FF08500704731
:100D50006FF0850070476FF0850070476FF0850079
:100D600070476FF0850070476FF0850070476FF037
:100D7000850070476FF0850070476FF08500704701
:100D80006FF0850070476FF0850070476FF0850049
:100D900070476FF0850070476FF0850070476FF007
:100DA000850070476FF0850070476FF085007047D1
:100DB0006FF0850070476FF0850070476FF0850019
:100DC00070476FF0850070476FF0850070476FF0D7
:100DD000850070476FF0850070476FF085007047A1
:100DE0006FF0850070476FF0850070476FF08500E9
:100DF00070476FF0850070476FF0850070476FF0A7
:100E0000850070476FF0850070476FF08500704770
:100E10006FF0850070476FF0850070476FF08500B8
:100E200070476FF0850070476FF0850070476FF076
:100E3000850070476FF0850070476FF08500704740
:100E40006FF0850070476FF0850070476FF0850088
:100E500070476FF085007047012908D1012B06D833
:100E60004368342B03D1D2E9000102F0F3BC6FF0E8
:100E7000800070476FF08500704708B502F09AF95E
:100E8000002008BD70B5002405460426A6B03C220B
:100E9000214607A8CDE90244CDE904440694FFF7B2
:100EA00005FD3C22214617A81694FFF7FFFC01948C
:100EB00005F11C0353F804193246013E09B11646E8
:100EC00001E0002EF6D1042405F12C0353F8041997
:100ED0002246013C09B1144601E0002CF6D1731EF4
:100EE000012B38D8012C36D80423002168680DEB7B
:100EF000030204F0DFFB042804D06FF080063046C4
:100F000026B070BD022E24D16B69402BF5D806AEF9
:100F100032460121686804F0CDFB6B699842ECD140
:100F2000CDE9026002A934B12B6A402BE5D816AA9C
:100F3000CDE9042304AC2246019802F095F9064657
:100F4000002CDCD0DDE904230021686804F0BAFB42
:100F5000D5E70021E7E70126D1E710B58CB00C46B4
:100F6000694604F09FFB009B002B04DA02330BDA86
:100F700004F0BCFB0CE003D0A3F2F233012BF7D852
:100F80006846A047014600E00021019804F09EFB5E
:100F90000CB010BD70B50E4C0E4D0F4E4FF0004111
:100FA0004FF0FF3004F07AFBC10604D53146102023
:100FB000FFF7D3FFF2E7820602D529462020F7E7A4
:100FC000430602D521464020F2E704F08FFBE5E717
:100FD000750E0100850E01007B0E01002F0E010031
:100FE000350E01001D0E0100230E0100170E010039
:100FF000290E01003B0E0100410E0100470E0100C9
:101000004D0E0100330D0100390D01000F0D0100DF
:10101000150D01001B0D0100210D0100270D010020
:101020002D0D0100630D0100690D01003F0D010050
:10103000450D01004B0D0100510D0100570D010040
:101040005D0D0100030D0100090D0100E50C01001B
:10105000EB0C0100D90C0100DF0C0100F10C0100C8
:10106000F70C0100FD0C01006F0D0100750D010072
:101070007B0D0100810D0100930D0100990D010010
:101080009F0D0100AB0D0100A50D01008D0D0100AC
:10109000B10D0100870D0100B70D0100BD0D01006C
:1010A000C30D0100C90D0100CF0D0100D50D0100D8
:1010B000DB0D0100E10D0100E70D0100ED0D010068
:1010C000F90D01000B0E0100F30D0100FF0D0100F1
:1010D000050E0100110E0100590E0100530E010012
:1010E00010B5054C237833B9044B13B1044800E024
:1010F00000BF0123237010BDB06900200000000074
:101100008C59010008B5034B1BB10349034800E0AB
:1011100000BF08BD00000000B46900208C59010028
:10112000A3F5803A704700BF174B002B08BF134B45
:101130009D46FFF7F5FF00218B460F461348144AE2
:10114000121AFFF7B3FB0E4B002B00D098470D4B44
:10115000002B00D098470020002104000D000D480E
:10116000002802D00C4800E000BFFFF7C5F92000BE
:10117000290000F039F9FFF7ABF900BF00000800C3
:101180000000000000000000001000204068002067
:101190008C880020000000000000000000F020BF4C
:1011A000FFF7FCFFFEE700F01BBFFFF7FCFFFEE7C9
:1011B00000F016BFFFF7FCFFFEE700F011BFFFF7DE
:1011C000FCFFFEE700F00CBFFFF7FCFFFEE70000AE
:1011D00072B6002383F3138883F3118818461449E9
:1011E000D1F89020C2F307229A421AD100234FF07F
:1011F000FF30104A03F120010133102B42F8210087
:10120000F8D100234FF0FF3003F160010133102BC0
:1012100042F82100F8D162B6BFF34F8FBFF36F8F52
:101220007047C1F89830C1F8A0000133DCE700BF77
:1012300000ED00E000E100E04FF47F03D3F830213F
:10124000D3F83401BFF34F8F092A03D1431E58420C
:1012500058417047002070475B4A08B5D2F8D0303B
:1012600043F00203C2F8D0304FF47F03D3F83021AB
:10127000D3F83431BFF34F8F092A01BF4FF0502309
:101280000022C3F81421C3F81821FFF7D5FF28B1B5
:1012900001224E4BC3F8382AC3F878254FF47F0358
:1012A000D3F83021D3F83431BFF34F8F092A05D159
:1012B000012B1EBF0122454BC3F87825FFF7BCFF69
:1012C00018B10E22424BC3F8E42E4FF47F03D3F83B
:1012D0003021D3F83431BFF34F8F092A06D10022D1
:1012E0003A4BC3F80C270122C3F810270022D30081
:1012F00003F57F03D3F80013BFF34F8F013108D0FC
:10130000D3F800130132D3F80433B2F5807F0B60B9
:10131000EDD1304BDA69BFF34F8FD10743D52E4B58
:10132000D3F80024012AFBD1C3F80425D3F8002404
:10133000012AFBD1274BDA69BFF34F8FD2070AD5B9
:10134000DA6922F00102DA61BFF34F8F224AD2F844
:101350000034012BFBD11F4A136ABFF34F8F0133B7
:101360000CD1136A23F0FF0343F020031362BFF391
:101370004F8F194AD2F80034012BFBD10022164BB3
:10138000C3F80425D3F80024012AFBD1BFF34F8F03
:101390000D49124BCA6802F4E0621343CB60BFF3FD
:1013A0004F8F00BFFDE71B6ABFF34F8F0133B6D0ED
:1013B000054AD2F88C3043F44063C2F88C30084BB5
:1013C000084A1A6008BD00BF00ED00E00040005070
:1013D00000A003500080FF00009003500400FA05B5
:1013E000406700200090D0030248024903B400F097
:1013F00003F80020A5EDF5FE08B5124B83F30A882B
:1014000001F042FD58B901F0B5FE40B901F0CAFE45
:1014100028B901F0C9FE28B101F0C8FE20B100F0E2
:101420008CFF07E001F0C4FE00F0DCFE00F0FEFEE1
:1014300000F0D8FD00F0C2FE00F0D5FE00F0CEFDB9
:10144000002008BD0004002038B5D1E9022305467C
:101450000C46D1E90001A847206038BD10B51346FD
:101460000C461AB1084B1B68D3E90023214600F053
:101470003DFE00F0C3FD054B1B68834202D000F027
:1014800065FF206010BD00BFE06E0020EC6E002004
:101490000020704740F20110704770B5054601F01A
:1014A00019F90646284601F017F8044608B9002045
:1014B00070BD01463246284601F04CF80028F6D1AE
:1014C00023681869F4E70000F0B589B006460F46B6
:1014D00001F000F90546304600F0FEFF044630B941
:1014E0001DB16FF0810009B0F0BD00F026FF236848
:1014F000DB689B0503D5002D45D100F01EFF2A4671
:101500002146304601F026F818B1002DE9D100F04F
:1015100014FF3946204601F00BF818B1002DE0D138
:1015200000F00BFF284601F0EAF80646EFF31085BD
:1015300072B60146204600F05BFF074685F310882F
:1015400010B96FF08200CEE701F024F805460028BC
:10155000F7D0384600F034FF0023024621462846E3
:10156000CDE90433CDE90233CDE900634FF0FF3319
:1015700001F012F829462046044B9B68079309B0F6
:10158000BDE8F04018476FF08000ACE7C05701009D
:101590002DE9F04F0D469FB00B930646174601F01C
:1015A00099F8EBB207932B140446C5F307290C9363
:1015B00016D520B16FF080001FB0BDE8F08F00F0AD
:1015C000BCFEB9F1040F10D8079B042B0DD802E024
:1015D000079B042B07D8079B4B44042B03D806E03A
:1015E000B9F1040FF4D9002CE4D100F0A6FE204696
:1015F00001F085F873000A9040F1A58016F0E00F25
:10160000F5B203D0002CD5D100F097FE804B53F8F3
:101610002580B8F1000F01D100F08FFED8F800301E
:1016200022464146986800F095FF20B1002C40F01A
:10163000E98000F082FE4046C6F3072100F078FF03
:1016400018B1002CB6D100F078FEEFF3108672B618
:1016500040460A9900F0CCFE054686F3108820B972
:10166000002C40F0D28000F068FE002328462B605A
:1016700000F0A6FE064601F03AF84FEAC90B0890C2
:101680000090012322465946384601F003F818B16C
:10169000002C8FD100F051FE079B2246DB000993FE
:1016A000089B099900930B98022300F0F3FF20B1E7
:1016B000002C7FF47FAF00F040FE202200210EA816
:1016C00000F014FE2022002116A800F00FFE5A465A
:1016D00039460EA800F0D4FD0EAF099A0B9916A852
:1016E00000F0CEFDBA46BB44D3454ED14FF0000AC0
:1016F0000AF1010AD14559D8DDF824A016AFBA4441
:1017000057456FD1284600F045FF054620B9002C0B
:101710007FF450AF00F011FE0B9B41460593079BF1
:101720002846049316ABCDE902930EAB01930A9BB6
:10173000324600930C9B00F02FFF364B2946404663
:101740009B68984738E7304600F04AFE0A990546FC
:1017500000F06CFE20B1002C7FF42CAF00F0EDFD0A
:101760006B68012B04D1002C7FF424AF00F0E5FD61
:101770006B68022B3FF41EAFD5F81480B8F1000F50
:101780007FF479AF00F0D9FD75E7089B22460093FE
:10179000DAE90001012300F07DFF20B1002C7FF485
:1017A00009AF00F0CAFD0AF1080A9DE7BB4653469F
:1017B000DBF80800DBF80C203968024491420AD2B9
:1017C0007A680A44904206D20D93002C7FF4F2AE60
:1017D00000F0B3FD0D9B013399450BF1080BE7D8E1
:1017E000083785E7089B22460093D7E900010223CA
:1017F00000F050FF20B1002C7FF4DCAE00F09DFD26
:1018000008377DE76FF08100D6E66FF08200D3E6FF
:101810009C790020C05701002DE9F04389B00446AF
:1018200000F058FF0546002C3FD0630003D5002888
:101830003BD100F082FD284600F061FF8046204643
:1018400000F0CEFD4146074600F0F0FD10B165BB4B
:1018500000F073FDD7F81490B9F1000F01D100F03A
:101860006CFD384600F096FE064608B900F065FDAE
:101870007B68012B02D1C5B900F05FFD002349460A
:101880003046CDE90433CDE90233CDE90083224669
:101890006FF0010300F080FE31464846044B9B6820
:1018A000079309B0BDE8F043184709B0BDE8F083DD
:1018B000C057010070B505460E4600F031FE0446E3
:1018C00008B900F03AFDA36B1D4201D100F035FDCF
:1018D000002E09DA236C1D4206D1054BE563196819
:1018E00004F11C0000F0E2FB206C284070BD00BF3A
:1018F000EC6E002073B50E46054610B1431E034240
:1019000001D000F01AFD00F00BFE044608B900F00B
:1019100014FD2368986800F0DCFD0223009000228B
:101920003021304600F0B6FE08B100F006FD236C11
:101930000BB900F002FD236C1D4201D100F0FDFC4B
:101940002946204600F09DFD58B1012300F1100109
:1019500040F8083C3022304600F092FC002002B0F3
:1019600070BD6FF08B00FAE770B506460D4600F0CB
:1019700073FE044608B900F0E0FCA3681B68DB684E
:101980009B0501D500F0D9FC3046E56100F028FD4B
:101990002A460146A068BDE8704000F06FBD2DE901
:1019A000F3470E469046994600F056FE044608B9A5
:1019B00000F0C3FCA3685B681B68986800F089FDB1
:1019C00023698246002B01DA00F0B7FC032E01D90F
:1019D00000F0B3FC04EB86073D6ADDB10223002270
:1019E00049464046CDF800A000F054FE08B100F092
:1019F000A4FC3D6A04EBC6044D4528BF4D46404655
:101A00002A46216C00F03CFC236C2B4423643B6A87
:101A10005B1B3B62284602B0BDE8F08770B50E46FE
:101A2000154600F019FE044608B900F086FC23694B
:101A3000002B01DA00F081FC032E01D900F07DFCBF
:101A400004EB8601086A58B185422A4628BF02463F
:101A500004EBC604236C801A134423640862104606
:101A600070BD2DE9F7430D4690461E4600F0F4FD8B
:101A7000044608B900F061FCA3685B681B689868BD
:101A800000F027FD23698146002B01DA00F055FCA8
:101A9000032D01D900F051FC04EBC5070C3554F8B7
:101AA00025307A6E9B1AB34201D200F046FC012326
:101AB000002231464046CDF8009000F0EBFD08B121
:101AC00000F03BFCD7E9180332464146184400F0C9
:101AD000D7FB7B6E33447B6603B0BDE8F083000028
:101AE0002DE9F04180460C4600F0B6FD054608B9E8
:101AF00000F023FCAF680FB900F01FFC404600F077
:101B00006FFC2B690646991C12D05A1C15D154B390
:101B100014F1820F05D10146384600F09BFC0023EA
:101B20001FE014F1830FFAD000F007FC0024F6E761
:101B30000146384600F08EFCF8E7002BF4DB28461F
:101B400000F064FE3B68DB689B0503D531463846F0
:101B500000F080FC14F1810FE1D1AB69002B04DAB5
:101B60000223736003E04446F4E700F0E6FBEFF382
:101B7000108672B6044B21462846DB68984786F3E8
:101B80001088BDE8F08100BFC057010008B500F023
:101B9000B9FCBDE80840082100F04CBE10B500F0CB
:101BA000BFFC044608B900F0C8FB236C1B0701D436
:101BB00000F0C3FBEFF3108272B6236C23F008032E
:101BC000236482F3108810BD70B5064600F0A8FCAF
:101BD000044608B900F0B1FB3146206800F045FE2C
:101BE000054608B900F0A9FB6B680BB100F0A5FB36
:101BF000236C1E4201D100F0A0FBEFF3108372B6FC
:101C0000206C20EA0600206483F31088E86801F065
:101C100071F9E868BDE8704001F046B901F030BBE9
:101C200038B5054600F07CFC044608B900F085FB99
:101C30002068294600F019FE044608B900F07DFB33
:101C4000E068BDE8384001F02FB938B5054600F02E
:101C500067FC044608B900F070FB2068294600F0D4
:101C600004FE044608B900F068FBE06801F02CF9B6
:101C7000012038BD70B5054600F052FC044608B995
:101C800000F05BFB2946206800F0EFFD064608B92E
:101C900000F053FB73680BB900F04FFB236C1D423F
:101CA00001D100F04AFBEFF3108372B6206C20EAFA
:101CB0000500206483F3108870BD08B50C3000F077
:101CC00001FA002008BD0000F8B506460D4621B116
:101CD00018B103680BB143680BB900F02EFBD6E9CD
:101CE00000345E68EFF3108772B6236B05F184024F
:101CF0005A60236BE16BC5F88430234643F8302FDC
:101D0000C5F88830236C314243EA0603236408D0C7
:101D1000194004F11C0000F0D5F9E36B23EA060337
:101D2000E36387F31088044B05F10C00196800F099
:101D3000BDF90020F8BD00BFEC6E002038B5084D9D
:101D4000284600F0A5F92B6804465B6853E90801B2
:101D500000F05FFF08B100F0F0FA204638BD00BF88
:101D6000EC6E00200022836B73B50568194300F107
:101D70003003C0E90C33AB6841F0080103746B68B1
:101D800000F1200604468163C261427442824661CA
:101D900023B900F019FF0246064B1E60AB6A2969A1
:101DA00004F1100019440091E96800F047F902B00D
:101DB00070BD00BFE06E00202DE9F041164E0546D3
:101DC0003368046886B00BB900F0B7FA336862690B
:101DD0005B68D2F80480203B9C4210D1EFF3098766
:101DE00000220E4B696802A8CDE9008700F0BAFA1C
:101DF00002A800F0DBFA059806B0BDE8F081616842
:101E00005B681768994202D0206800F002FF3368CF
:101E100020345C60E4E700BFEC6E0020870901001D
:101E200070B50E4E8B6B32680C46526853F81C1C12
:101E300052F81C2C05468A4203D053F8200C00F0BF
:101E4000E8FEA36B326853605B6883F30B88E36A38
:101E500083F30988A06A256370BD00BFEC6E002083
:101E6000F8B501F00C030C2B14BF0446144611F016
:101E7000400607460D4627D0A36913F8026C85F08B
:101E80000803C3F3C003B3EBD61F01D000F055FA2B
:101E9000422E30D01BD8402E29D0412E1ED04D4886
:101EA000C71B082F01D900F048FA132E00F28F80CB
:101EB000DFE806F02733373C43484D52575E646BEA
:101EC0007074777B7E81858900F037FAD7E7802EA2
:101ED000E5D12046BDE8F840FFF76EBF00F020FCDA
:101EE000054601463B4800F02AFA2846F8BD204640
:101EF00000F0A2F9F9E739462068BDE8F840FFF79D
:101F00008FBFFFF7C7FA206000F078F8324B1B68EC
:101F10008342EAD000F01AFAE7E72068FFF7BDFA3B
:101F2000F1E7D4E90001FFF7CFFAECE7D4E90223A7
:101F3000D4E90001FFF72CFBE5E72068FFF76CFC14
:101F40000020E0E7D4E90001FFF7B4FCDBE7D4E9C7
:101F50000001FFF7CFFCD6E7D4E90001FFF704FD4D
:101F6000EEE7D4E90223D4E90001FFF718FDCAE740
:101F70002068D4E90112FFF751FDC4E7D4E9022338
:101F8000D4E90001FFF76DFDDAE7D4E90001FFF7BE
:101F9000A7FDD5E72068FFF7F9FDD1E7FFF7FEFDC4
:101FA000CEE72068FFF710FECAE7FFF737FEC7E766
:101FB000FFF76EFAA7E72068FFF732FEC0E7206858
:101FC000FFF743FE9FE72068FFF754FEB8E76FF086
:101FD000830098E700080020EC6E002041DF704786
:101FE00000F0ABB908B500F0E3FD034B986000F0DA
:101FF000E5FD80F3888808BD00ED02E0044B186819
:1020000010B14378012B00D170478068F8E700BF1A
:10201000F06E0020C9B20129064B417005D11A6843
:102020002AB101781278914201D3034A10681860EE
:10203000704700BFF06E0020F46E0020F7B5164622
:10204000124A044610680D461F4618B123780178DD
:10205000994211D3A060146020460121FFF7DAFFF6
:10206000089B3246CDE900732946606825F00103DC
:1020700000F078F903B0F0BD0246806810B1017835
:102080009942F9D3A0609460E6E700BFF46E0020A7
:1020900038B50546FFF7B2FF044600F057F905B121
:1020A0002C606068BDE8384000F080B90223016010
:1020B0004B70024B1A68024B1A607047F46E002096
:1020C000F06E002038B5044600680D4660B14378D4
:1020D000022B09D10121FFF79DFF2368294658688B
:1020E00000F031F90023236038BD000070B572B6EE
:1020F0001446EFF30B855FF0000C002A1FBF8CF332
:102100000B886C46954683F30B880A4A01231360BB
:1021100062B6FFF799F972B65FF0000C002C1EBF93
:102120008CF30B88A54685F30B88024C00252560AF
:1021300062B670BDF86E0020402010EA0E0016D086
:1021400001B500F033FBBDE8044088420FD0EFF347
:102150000982EFF30B8322E9F00F80E81C4091E83D
:102160001C40B2E8F00F82F3098883F30B887047B4
:10217000EFF308807146EFF3098206B4FFF770FEB3
:10218000864606BC00F0080001F00803C01A01DC16
:102190000DDB704706B42DE9F00F074C25462646A7
:1021A0002746A046A146A246A34630B4704730BC9D
:1021B000BDE8F00F06BC7047A5EDF5FE084BDA68E8
:1021C00082F07F4282F47F0242F48042DA60002291
:1021D0001A765A76DA76DA77602283F82220704708
:1021E00000ED00E07047EFF3148030F0040080F35E
:1021F0001488BFF36F8F7047044601229443204632
:10220000214622462346254626462746A046A14685
:10221000A246A346A446044708B500214FF0FF306C
:1022200003F03CFA0028F8D130BFF6E70122014B59
:102230001A607047FC6E0020F7B5D0E901670446CC
:1022400000F06EF9054608B900F077F82B68986839
:1022500000F03FF90223009000223046B9B200F0AE
:1022600019FA18B10323236003B0F0BD034B1B68B8
:10227000012BF7D100F0E4F9F4E700BFFC6E002079
:10228000F0B504468AB341EA040515F0010513D1FF
:10229000012A23D941EA040313F0020312D1D6180C
:1022A000032E15D86FF00306930806FB032204EBF8
:1022B000830401EB830116E011F8013B013A04F8B5
:1022C000013BDFE731F8023B023A24F8023BDFE74B
:1022D000CE1A3768E61A3760043BE0E70023DEE7F2
:1022E0006B5C2B550135AA42FAD1F0BD0346F0B51F
:1022F000C9B29AB19C0715D115460C0444EA016491
:102300000C4344EA0124D618032D0FD822F003050C
:102310002B446FF00305940805FB04221A449342F2
:1023200008D1F0BD03F8011B013AE2E7771B3C60DE
:10233000043DE9E703F8011BF1E700F0A1BF08380D
:1023400080F30888084703681962704704484FF013
:1023500080510160BFF34F8FBFF36F8F7047000054
:1023600004ED00E02DE9F843099C1F460E4BA4F153
:10237000080644E90233483C054688469146002158
:1023800040222046FFF7B2FF4FF0807346F8043C2E
:102390006FF0020346E9037846F8209CEB60089B47
:1023A000C5E90043BDE8F883A5EDF5FE436883F376
:1023B0000B880368203383F30988C06870470000E6
:1023C000054A1368013303F007031360034A01331E
:1023D000801A03EBC000704790790020006F002046
:1023E00018B1024B013803EBD0007047006F00209A
:1023F00070B505460C480E4600F096FB044688B1C1
:10240000A0220021FFF772FF0023AA68C4E9013669
:1024100004F1980365615360C4F8982045F8083FBB
:10242000C4F89C50204670BD006F002038B50446AB
:102430000D460146054800F090FB28B1A36804480A
:10244000AB4208BF002038BD0148FCE7006F002008
:102450000500008038B50024CC60EFF3108572B61B
:102460000548D1E9262353601A6000F06BFB85F321
:102470001088204638BD00BF006F002000200A6091
:102480007047426BF0B500F13005AA4203461ED0FA
:10249000EFF3108472B6426B0020AA4204D11A6C8A
:1024A00022EA0101196408E052F87C7CA2F184065A
:1024B0003F687F688F4208D110B184F31088F0BD67
:1024C000D2E900707860076030465268E5E7002086
:1024D000F5E701207047000030B5094C02466168FD
:1024E0000023084640B10568AD68954205D11BB18F
:1024F000026960601A61016130BD03460069F1E75D
:1025000094790020054A0346506800B97047026874
:1025100052689A42FAD0406CF7E700BFE46E0020A0
:10252000024B1B6858682038704700BFEC6E0020D3
:1025300003680748DA681B6912F4806F03D18B4285
:1025400028BF002070478B4208BF0020704700BFA3
:102550000300008038B505462AB10B68DB68DB054F
:102560000DD5002038BDFFF7DBFF044608B9FFF7A3
:10257000E4FE0022236899692C338A4201D1044881
:10258000F0E753F8040FA842EBD00132F5E700BFA3
:10259000050000800C3070472DE9F84A0446894652
:1025A00017460021302210309B46099E0B9DFFF7F5
:1025B0009DFE0023204AE3602260204AC4F8089070
:1025C0001268301D526804F1400C203A62600D9A86
:1025D000C4F810B0C4F88020089AA26104F1200267
:1025E0000A998B4214D10023184604F1300104F1FA
:1025F00060022E1DDDF830C00832634512D1384626
:102600006761FFF7EDFE08B10368E361BDE8F88A92
:1026100050F8331042F8041B56F833104CF83310BE
:102620000133DDE756F833C041F804CB55F833C029
:10263000013342E902C0DDE743431515EC6E00208B
:1026400008B5FFF76DFF18B103680BB1586808BDF6
:102650004FF0FF30FBE7000010B5FFF7C1FE044666
:1026600001460A4800F079FA68B1E268084B9A42DC
:102670000AD1FFF7E5FF63695B681B685B6883420B
:1026800002D104F10C0010BD0020FCE7006F002017
:102690004343151538B5049D144699B1A0B1CA43FA
:1026A000824201D2094838BD022B0CBF0622022209
:1026B0000DB942F008020CB142F0200200F0B8FA65
:1026C0000028EFD10020EEE70148ECE7040000808D
:1026D0000100008010B5FFF723FF044608B9FFF79B
:1026E0002CFE23685868B0FA80F0400910BD08B588
:1026F000FFF716FF08B9FFF720FE012008BD38B527
:10270000054648B100F041FAB5EBD07F044601D050
:10271000FFF713FE204638BDFFF792FFF4E70000F5
:102720002DE9F74300251023A0224FF429611A4810
:1027300000F0C6F9194F1A4B7D605D6000F028FA71
:10274000184EDFF86490384600F0AEF80446E0B169
:10275000D0F80080D8F81C302BB180234A461049AD
:1027600000F00AF90546D8F8243013B1204600F0ED
:1027700069F92068211D00F02DFA08B1FFF7DDFD91
:102780002946204633689847DDE77368019303B014
:10279000BDE8F043184700BF006F0020E46E002042
:1027A00094790020C05701009C7900202DE9F04168
:1027B000FFF724FC134F144B3D681B686E68012B18
:1027C000044631461BD0D0B1103DA0F1100845455C
:1027D00015D0EFF309826B6A2033934201D9FFF7DA
:1027E000ACFDD8F804106B688B4206D054F8100C7E
:1027F00000F00FFA08B1FFF7A0FD61683C603046B9
:10280000BDE8F081EC6E0020F86E002030B56FF06E
:102810000304002300F13002241A52F8041B29B1EA
:10282000D0F8801054F8125019444D600833202B12
:10283000F3D130BD70B50D46044608B9FFF77DFDF4
:10284000EFF3108672B6236CE16B2B4329422364AD
:1028500008D0194004F11C00FFF734FCE16B21EAB9
:102860000501E16386F3108870BD70B591B14B1E10
:102870000B400FD1846900F1300202EB8402142472
:102880000C26C56904FB0522056A06FB0522456A7C
:102890009D4201D1002070BD04FB032006698E42D9
:1028A000F9D00133F4E70000F8B5054608B9FFF7A1
:1028B00044FD2C4E346814F1290F50D82A4B196866
:1028C00004F128038B424AD2236AA26903EB430333
:1028D0000C32606A1344E2690244E04302EB820274
:1028E0001344B0EB830F4FEA830202D3A31899423B
:1028F00001D2FFF722FD23681C4A1B0C1B049342E4
:1029000001D0FFF71AFD2388B3F5817F01D3FFF7CC
:1029100014FD6368002B01DAFFF70FFD144A1768F6
:1029200007F148031360134A1268934201D9FFF775
:1029300004FD236AA26903EB43030C32616A13446A
:10294000E2693C600A4402EB82021344326802EB03
:10295000830333606B687B646F603846F8BD002783
:10296000FBE700BF44670020D057010000005F5F15
:1029700048670020D45701002DE9F04F85B0884604
:1029800091460746029300B109B9FFF7D6FC3E68AD
:10299000B26906F1300303EB82030193F569274B1B
:1029A000D3F800A095B1142000FB05A51D60244BB1
:1029B0001B689D4201D9FFF7C0FC00255446AB4679
:1029C000F3695B4502D9BAF1000F03D1284605B07F
:1029D000BDE8F08F1422019B02FB0B320023236120
:1029E000B368C4E90027990544BF53681D4304F147
:1029F0000803C4E90233D3689A0516D5B9F1000F6C
:102A000002D0029A802A03D00393FFF796FC039B1F
:102A100013F0E00FDAB202D159F822301BB1039261
:102A2000FFF78BFC039A49F82240D8F804300BF1E9
:102A3000010B2361C8F804401434C1E74C6700203F
:102A4000D85701002DE9F047054608B9FFF775FC96
:102A50004FF014090C22002740F2011A2E68B369C6
:102A600006F1300404EB8304F36909FB0344336A81
:102A700002FB034409FB07F1736A01EB0408BB4244
:102A800001D8BDE8F087AB6BD8F810202846134377
:102A9000AB630B594146984708B1FFF74EFC3388AA
:102AA000B3F5807F05D1D8F80C0000F0FDF90137AF
:102AB000E0E75345FBD1D8F80C0000F005FAF6E743
:102AC0002DE9F04116461D46044640B33BB302F1E2
:102AD000080803FB08F707F110028A421FD1002102
:102AE000FFF704FC04F1080C04F1100260461346E1
:102AF0000021C4F80CC001318D42436003EB080E85
:102B0000C3E9000C184608D10020A7EB0807C4E968
:102B100000653A44A260BDE8F0817346EBE70148E6
:102B2000F9E700BF0100008058B1C3680830834254
:102B300006D0D3E9001203F108004A601160704723
:102B4000002070478268A1F10803536041F8082C07
:102B500040F8083F41F8040C70470346024653F81A
:102B6000100B526899420ED3083002FB003291429A
:102B700009D20839C91AB1FBF0F300FB1310B0FAFF
:102B800080F040097047002070474FF0FF307047D9
:102B90007047000008B500F0F1FB0822034BC3F8B2
:102BA0008021BDE80840FFF71BBA00BF00E100E04C
:102BB000014B1868704700BFDC570100014B1B68D0
:102BC00018687047DC570100014B1B685868704754
:102BD000DC570100F0B510B943F6DA30F0BD00293A
:102BE000FAD0012300220C2414250B60016A8A42CA
:102BF00001D10020F2E704FB02F3D0E9067603EBF3
:102C0000870305FB063303449B6B1B07E4D40132A7
:102C1000EDE7EFF3148311F00F0F0CBF0122002238
:102C200062F3000383F31488BFF36F8F00207047B3
:102C300012F020032DE9F0410646884609D0EFF353
:102C40009483DC074FF012034CBF42F0080222F0DD
:102C50000802100702F0060148BF43F004030629EA
:102C60003DD143F001052A4641463046FDF7BAFD05
:102C7000002814BF012000202AD146E800F2B04409
:102C8000110E120208F1FF3747E800F34FEA136410
:102C90001ED51B021CD58C421AD046E800F447E82A
:102CA00000F700F0DAFB240E84424FEA176733D3B3
:102CB00000F0D5FB87422FD8204600F0C9FB2A46FA
:102CC000C6F1010101443046FDF78CFDA8B9002092
:102CD000002814BF00206FF07F00BDE8F08191074D
:102CE0003ED543F00805BEE7204600F0AFFB0646A0
:102CF00000F0B7FB2A460146E5E70134A742F3D8C6
:102D0000384600F0A3FB2A46A8EB0001FDF76AFD58
:102D1000003818BF0120DBE700F0B2FB8442D6D3B5
:102D200000F0B0FB8742D2D8204600F0A3FB2A4631
:102D3000C6F1010101443046FDF754FD0028C6D01C
:102D40000134A74203D8384600F08EFBDBE720466B
:102D500000F08AFB064600F097FB2A460146EAE7A8
:102D60004CF2DA20B9E700002DE9F0413B4C86B087
:102D70003B4800F0EBFA236801255A1C0193394BBC
:102D80002260DA681B694FF44078039300233448CB
:102D900001A902920495ADF814808DF8163000F068
:102DA00099FA20B143F6DA3006B0BDE8F081236825
:102DB0008DF816005A1C01932B4B294802932B4B7C
:102DC00001A9CDE903352260ADF8148000F082FA44
:102DD0000028E7D1022740F2011623688DF816007B
:102DE0005A1C0193224B1E480293224B01A92260D8
:102DF00003930497ADF8146000F06CFA0028D1D169
:102E000023688DF816005A1C01931B4B144802933B
:102E10001A4B01A9CDE903352260ADF8148000F00A
:102E200059FA0028BED123688DF816005A1C019368
:102E3000134B0B480293134B01A92260CDE90337D2
:102E4000ADF8146000F046FA04460028AAD12A46DC
:102E50002946034800F026FA2046A5E71C7A002000
:102E600050670020DC570100C0040100A0090100E8
:102E70000008002000100020E0100100E010010018
:102E8000002000202020002008B500F081F800F08C
:102E90008FF828B900F0AAF810B9FFF765FF08B15C
:102EA00043F6DA3008BD000043B2002B08DB0122F4
:102EB00000F01F0002FA00F0024A5B0942F823000A
:102EC0000020704700E100E043B2002B0DDB01223F
:102ED00000F01F0002FA00F05B09054A203342F8B7
:102EE0002300BFF34F8FBFF36F8F0020704700BFE9
:102EF00000E100E043B2002B09DB012200F01F00DB
:102F000002FA00F05B09034A603342F82300002014
:102F1000704700BF00E100E00020034BD8765A6AFA
:102F200042F470225A62704700ED00E00349044BFE
:102F3000CA68002092B21343CB60704700ED00E0F6
:102F40000800FA050020704700224FF0FF30094BBF
:102F500002F1A0010132102A43F82100F8D1D3F880
:102F60008022002022F00802C3F88022D3F88032A9
:102F7000704700BF00E100E008B500F0F7F9082253
:102F8000024BC3F880211A60002008BD00E100E078
:102F9000064BD3F8D02022F00102C3F8D020D3F89A
:102FA000D02042F00202C3F8D020704700ED00E0CC
:102FB00010B50B4C00F0F4F9D4E9010100F006FA69
:102FC0000849094800F014FA2169E068013900F065
:102FD00025FAD4E9050100F0F9F9002010BD00BF81
:102FE000DC570100FFFF03200000012010B5002185
:102FF000444800F04DFA00214FF0502000F048FA0C
:103000000021414800F044FA0021404800F040FA15
:1030100000213F4800F03CFA00213E4800F038FA19
:1030200000213D4800F034FA00213C4800F030FA1D
:1030300000213B4800F02CFA00213A4800F028FA21
:103040000021394800F024FA0021384800F020FA25
:103050000021374800F01CFA0021364800F018FA29
:103060000021354800F014FA0021344800F010FA2D
:103070000021334800F00CFA0021324800F008FA31
:103080000021314800F004FA0021304800F000FA35
:103090002F4C00212F4800F0FBF900212E4800F0B2
:1030A000F7F92046002100F0F3F92046002100F056
:1030B000EFF90021294800F0EBF90021284800F041
:1030C000E7F904F5B0340021264800F0E1F9204684
:1030D000002100F0DDF90021234800F0D9F900219A
:1030E000224800F0D5F901220020214BC3F88004CA
:1030F000C3F88424C3F8C004C3F8C424C4F840252A
:1031000010BD00BF004000500080005000900050F3
:1031100000A0005000B0005000E0005000F000504F
:1031200000000150001001500040015000500150BB
:10313000007001500080015000B0015000C00150EB
:1031400000D0015000E0015000F00150000002509A
:103150000030025000100250002002500060025067
:103160000080025000A0025000A0035000258450AF
:103170000030005008B500F09BF968B900F0ECFB96
:1031800058B9074AD36823F008031B041B0C43F00B
:10319000BF6343F40033D36008BD45F22350FBE71F
:1031A00000ED00E0002070470020704700207047CD
:1031B00070470000BFF34F8F0549064BCA6802F401
:1031C000E0621343CB60BFF34F8F00BFFDE700BF4A
:1031D00000ED00E00400FA052DE9F04F436887B0E8
:1031E000082B2ED14B68042B2BD14FF0FF33D0F896
:1031F0000080D1F800A0D8F80400CAF8003000B36D
:1032000026223C21FFF714FD0546D0B9D8F800303E
:10321000DFF84CB0DFF84C9003AF5BF8046B99E833
:1032200007001E4487E807000C2239463046019308
:10323000FDF763FB019B044600B936B90135052D46
:10324000EBD1022007B0BDE8F08F3C223146D8F820
:103250000400FDF762FB2046CAF80040F2E700BF19
:1032600004580100F85701000346084611461BB1F7
:10327000022B03D00320704700F02EB9FFF7ACBF3C
:10328000BFF34F8F0549064BCA6802F4E06213434F
:10329000CB60BFF34F8F00BFFDE700BF00ED00E044
:1032A0000400FA05002918BF0421002A18BF0222D1
:1032B000036807481143186359605A6842F00102D5
:1032C0005A60BFF34F8FBFF36F8F0020704700BF6E
:1032D00004AAFF004A68034612F01F0070B529D106
:1032E0000E680F2E26D81C6822F01F0265686060E9
:1032F000A6600B7C03F0010313438A7CD20002F02A
:1033000018021A434B7C5B0003F006031343E3608F
:103310008B68013B23F01F02CB685B0003F00E03B8
:10332000134343F0010323616560BFF34F8FBFF385
:103330006F8F70BD0120FCE7036800205A68C9B296
:1033400058609960D86018615A60704738B5054672
:1033500003681C68C4F307240CB9204638BD013C3F
:1033600021462846FFF7E8FFF6E700000722024B58
:10337000C3F80423704700BF003000500022074B01
:10338000C3F80021D3F80011C3F80421D3F80411C5
:10339000C3F80821D3F80831704700BF003000504F
:1033A00000231720084A03F5C0710133202B42F88F
:1033B0002100F8D10023172003F5E0710133202B01
:1033C00042F82100F8D170470030005010B540F2AB
:1033D0000714064AC00BC90B884200D910BDC3B2FE
:1033E00003F5C07342F823400130F5E70030005088
:1033F00010B540F2071400F1604001F16041064A47
:10340000400B490B884200D910BDC3B203F5E073ED
:1034100042F823400130F5E700300050C0F30E03BE
:10342000C3F50043B3FA83F3C3F11B03064AC0F3A9
:10343000C730DBB240F4807043F48073C2F80005FB
:10344000C2F80435704700BF00300050C003704719
:10345000C00300F5FF407F307047002070471F20F9
:1034600070474FF40040704700F57F40C030400384
:10347000704700004303014818447047FF1FF81FBE
:10348000402070475F2070474FF4005070470000A5
:10349000002914BF4FF480720022044BC0F30730A0
:1034A00000F5007043F82020704700BF0030005046
:1034B00008B5FFF731FD60B9FFF738FD48B9FFF7F0
:1034C00041FD30B962B6FFF73FFD10B9FFF754FD7B
:1034D00008B143F6DA3008BD38B543680C2B2CD15F
:1034E0004B68042B29D14FF0FF3304680D68206826
:1034F0002B6010B3A16801B32622FFF799FBE0B956
:103500006168B1F5803F10D3A2688B18B3F5813F95
:1035100005D90B48814208D92D30834208D820684C
:10352000FDF7FBF90020286038BD064B994204D90D
:10353000A268054B88189842F1D90220F4E700BF31
:10354000FF01FF002F01FF003801FF0001680E4A54
:103550000346914215D1C169A2F11022A2F1EF12E6
:1035600091420ED18268012A0BD8C26812B101695A
:103570008A4206D0586928B19B691B1A58425841A3
:1035800070470120704700BF55AA00FF0D4B70B572
:103590009E68A6B13046FFF7D9FF044678B9F368B4
:1035A0006BB935690DB9204670BD2846FFF7CEFFCF
:1035B00028B9EB68B34202D12E462D69F2E7012407
:1035C000F1E700BF207A00202DE9F041394E346840
:1035D000D4B1B468C4B1002861D000295FD001FB28
:1035E00000F5B5FBF0F0884259D1291D57D8AA073C
:1035F0000DD025F003020432F46803E061689142C3
:103600004FD2A469002CF9D12046BDE8F0812A46AA
:10361000F2E7891A232904F12007D4E9050C1AD806
:103620000123A360A0B1C0F818C0A36903B1586119
:103630000023C4E905333369DB0702D5FFF7A6FF92
:10364000A0BB2A46002138463C46FDF72FF9DBE7B0
:10365000C6F80CC0E9E702F1200804EB08032039A2
:10366000C3E9011E2169DFF850E0DC60196144F80C
:1036700008E0AEF1102EAEF1EF1EC3F81CE001B170
:10368000CB60C3E9050C40B18361996901B14B611D
:1036900001212361C4E90121CAE7F360F5E70024B1
:1036A000B2E7D4F808E0BEF1000FB2D00120FCF779
:1036B0000FFF00BF207A002055AA00FFF8B505468D
:1036C00000285DD0394F3B68002B59D0BA68002ADA
:1036D00056D0834203D87A681344984202D301201B
:1036E000FCF7F6FEA0F120042046FFF72FFF00288C
:1036F000F5D155F8183C012BF1D155F8146C45F86B
:10370000180CB6B1B368002B3BD155F81C3C03F143
:10371000200273681344736055F8103C336103B1A1
:10372000DE60204620220021FDF7C0F82346344603
:103730001E462069002830D08368002B2DD1636895
:1037400042682033134463600369D4E9052123618F
:10375000CAB9F1B9426981696261A161DAB1946162
:10376000A26902B1546103B1DC6020220021FDF79F
:103770009DF83B699B0703D5FFF708FF0028AED1F2
:10378000F8BD0646D5E79161A1690029E2D04A61FA
:10379000E0E7F960F8E7FC60E2E7002EE9D1FB68BA
:1037A000A36103B15C61FC60E3E700BF207A002005
:1037B00038B50D461422002104461248FDF776F86C
:1037C0001149124801F02AFF232D1AD914F00303DE
:1037D0001FBF043DED18C3F10403E4182A4600217D
:1037E0002046FDF763F8074B094AC3E900459C6092
:1037F0002260A2F11022203DA2F1EF126560E26189
:10380000DC6038BD207A0020BD360100C9350100DA
:1038100055AA00FF10B50446406A10B1A16A00F035
:103820001DF9606A01F0F4FE0020C4E9090010BD32
:1038300038B50446FFF7EEFF236A2C22012B0CBF9C
:1038400005466FF0960500212046FDF72FF8284623
:1038500038BD000037B505460B480C46037ADB0738
:103860000ED500230A460193294601AB00F064F807
:1038700020B9019BA34218BF6FF0930003B030BD85
:103880006FF08800FAE700BF347A002008B500F036
:103890003DF80748037A13F0060F03D008220021F1
:1038A000FDF704F8BDE808400C21014800F0D6B847
:1038B000347A002038B50E4C217A11F0010112D172
:1038C00008222046FCF7F2FF0222237A62F3420329
:1038D000237200F00FF8054638B9237A43F001034C
:1038E0002372284638BD0025FBE7FFF7CFFFF8E736
:1038F000347A0020044A002092F8803543F0010316
:1039000082F88035704700BF407A0020F8B5094C36
:1039100020252646012720462762FFF789FF013D23
:1039200004F12C04F7D196F8803565F3000386F88E
:103930008035F8BD407A002038B5002014461D4679
:1039400000F05EF828B92B68A34218BF6FF093000F
:1039500038BD6FF09200FBE710B50C4C236813B133
:103960000B4B1B682BB900F089FC30B90122084BC6
:103970001A6001230020236010BD0138062801D9F8
:10398000044810BD044B53F8200010BDC47F002034
:10399000C87F0020FE8FFFFF185801002DE9F0437B
:1039A000144C154F002818BF0446236883B0BB424F
:1039B0001CD016460D4620464FF4147104F104093C
:1039C00000F04CF804F58E78484600F045FB404680
:1039D00000F0D2F82B464A4640460849009600F0CF
:1039E000EDF900B9276003B0BDE8F083002003B013
:1039F000BDE8F083CC7F0020A5BCC95AD5400100AA
:103A000070B50E4D82B0002814BF8446AC461D46EA
:103A1000DCF800000A4B98420DD100260CF58E70A0
:103A200033460096144600F0F3F9002818BF3446D8
:103A30002C6002B070BD0348FBE700BFCC7F0020C4
:103A4000A5BCC95AE88FFFFF38B131B1002201444B
:103A50000346013081421A70FAD1704738B131B152
:103A6000002201440346013088421A70FAD170479F
:103A700070B590B000287AD03E4C0D4640223621D9
:103A800006462046FCF712FF40225C21A018FCF7F6
:103A90000DFF2B1D9C4203D204F144039D4252D3DF
:103AA0002B682268534023602B68226C53402364A8
:103AB0006B686268534063606B68626C5340636418
:103AC000AB68A2685340A360AB68A26C5340A36488
:103AD000EB68E2685340E360EB68E26C5340E364F8
:103AE0002B69226953402361226D2B695340236562
:103AF00062696B69534063616B69626D53406365D2
:103B0000AB69A2695340A361AB69A26D5340A36541
:103B1000EB69E2695340E361EB69E26D5340E365B1
:103B20000021304601F0E2F8044628B94022304630
:103B3000104901F0EFF8044640216846FFF78EFF78
:103B4000204610B070BD631E04F13F01013D1F34DB
:103B500015F8010F13F8012F42401A7011F8012FC8
:103B60002878A34282EA00020A70F1D1D8E76FF008
:103B70007304E5E71C82002010B54FF49A7200210F
:103B80000446FCF793FE42F21072044BC4F8202165
:103B900004F596701B68BDE8104018476867002060
:103BA0002DE9F04F04468946924695B0002900F071
:103BB000A780002A14BF0227012700238DF80C30AC
:103BC000002C00F09F80DFF8448104AE08F1400B28
:103BD0000021204601F08AF8034648B130462021F2
:103BE0000193FFF73BFF019B184615B0BDE8F08F2E
:103BF00040224146204601F08DF803460028EDD1D1
:103C000004F1F40520222946204601F083F80346FA
:103C10000028E3D10122204603A901F07BF80346E6
:103C20000028DBD1022F62D020460CA901F09CF8BD
:103C300003460028D2D11946204601F057F8034622
:103C40000028CBD140225946204601F063F80346B4
:103C50000028C3D1202220460CA901F05BF80346BE
:103C60000028BBD13146204601F07EF803460028EB
:103C7000B4D131462046FFF7FBFE03460028ADD104
:103C800020222946204601F045F803460028A5D108
:103C900020460CA901F068F8034600289ED1014691
:103CA000204601F023F80346002897D140225946C8
:103CB000204601F02FF8034600288FD1202220460D
:103CC0000CA901F027F80346002887D12946204691
:103CD00001F04AF80346002880D19DF80C200132FB
:103CE000D2B2BA428DF80C20FFF472AF76E752469A
:103CF0004946204601F00EF80346002894D06DE7AF
:103D000001275AE76FF0730304AE67E71C820020B7
:103D10002DE9F04104460F4615469846D0F81801A3
:103D2000E0B013B100EB40004008B5F5807F3ED80D
:103D30002844B0F5C07F3AD84FF4C07200216846DD
:103D4000FCF7B4FD6946D4F82431D4F81821D4F82E
:103D50002801984770BBD4F81861B8F1000F0AD059
:103D6000D4E9493072080DEB0601984710BBD4F82E
:103D7000183106EB530607B18DB932466946204625
:103D8000FFF70EFF054610B90123C4F81431314680
:103D90006846FFF763FE284660B0BDE8F0810DEB92
:103DA000060039462A462E44FCF7B7FDE5E76FF0DA
:103DB0000405F0E76FF00805EDE700BF2DE9F047D7
:103DC000044604F1F4050F4691461E46DDF82080B6
:103DD00000F072FF29462046FFF74AFE08B1BDE811
:103DE000F087284620220121FCF760FDD4F8183125
:103DF000C4F82471C4F8289113B92023C4F81831E9
:103E0000424631462046BDE8F0470123FFF780BF18
:103E1000B2F5806F00F295802DE9F04F89B09A4697
:103E2000129BB3F5807F00F29080D0F824311646C3
:103E3000044688464BB3D0F81C31012B05D0D0F88E
:103E40001421D0F820319A421FDD5146002320462C
:103E5000129AFFF75DFF014698B900231293002ED6
:103E60005ED0DFF8EC9009F1400B0021204600F015
:103E70003DFF202E3546014628BF202504F1F407DA
:103E800090B1084609B0BDE8F08FBAF1000FE6D056
:103E9000129B002BE1D051461A462046FFF780FEC8
:103EA00001460028DBD0ECE749464022204600F0DE
:103EB00031FF01460028E4D139462022204600F097
:103EC00029FF01460028DCD16946204600F04CFF5E
:103ED00001460028D5D1204600F008FF0146002801
:103EE000CFD159464022204600F014FF0146002859
:103EF000C7D169462022204600F00CFF0146002869
:103F0000BFD13946204600F02FFF01460028B8D126
:103F100040462A463946FCF700FD761BA844A4D14A
:103F200051462046129AFFF73BFE01460028A8D1D1
:103F30000846D4F814310133C4F8143109B0BDE88F
:103F4000F08F6FF00201084670476FF0040198E7A8
:103F50001C8200202DE9F043202B1D460646884692
:103F600091468BB026D8DBB202AF31688DF8048061
:103F70008DF8053006F1040821B9404600F0B6FE80
:103F8000044640B9012302224046336001A900F0F3
:103F9000C1FE044638B138462021FFF75FFD2046B8
:103FA0000BB0BDE8F0832A464946404600F0B2FE19
:103FB0000446F0E702AF1946104600233A4601F0E6
:103FC0003BF804460028E6D12023B9461D46CCE73D
:103FD0002DE9F041D0F8F830A6B0002BD8BF02AEE2
:103FE00031DD05460027D0F80C4102AEA4F10108EE
:103FF0009022D5F8FC403146D0F8000101AB019782
:10400000B8FA88F8A0474FEA5818044620B9019B2F
:1040100053B9B8F1000F16D030469021FFF71EFDBE
:10402000204626B0BDE8F081014632462846FFF71B
:1040300091FF58B9D5F80431019A1344C5F80431F9
:10404000B8F1000FE8D16FF03C04E5E704462046E4
:1040500026B0BDE8F08100BF70B5002504461422EB
:104060002946C0F8F850FC30FCF720FC154B04F54D
:1040700088761B6830469847204640F8045B00F07D
:104080001BFE114B30461B689847C8B9D4F8F8306E
:10409000AB420FDC03EB830204EB82022021C2F867
:1040A00000010120C2E9421008490133C2F8FC10A6
:1040B000C4F8F830064B3046BDE870401B6818471E
:1040C00070BD00BF686700206C670020B54B010021
:1040D000706700202DE9F047202A88B078D83E4B41
:1040E00000F5887904461B68484617468846984775
:1040F000054640BB40F20116D4F8F830002B63D0DF
:104100002046FFF765FF054600285FD1D4F8F83058
:10411000002B07DDD4E94102904203D3D4F80C21EF
:10412000012A14D0013EE9D16FF03B056E462021F3
:104130003046FFF793FC294B48461B6898470028F8
:1041400018BF6FF01D05284608B0BDE8F0871F288E
:10415000E8D96E4629462022304604F1040AFCF7CD
:10416000A5FB3146504600F0FFFD05460028DED194
:10417000504600F0B5FD504600F09EFD29465046E1
:1041800000F0B4FD05460028D1D15046202231462A
:1041900000F0C0FD05460028C9D103463246202163
:1041A000304600F049FF05460028C0D1D4F8F83069
:1041B0003A46002BC8BF002340463146C8BFC4F86A
:1041C0000431FCF7AAFBB2E76FF03F056E46AEE79D
:1041D0006FF03B05B7E700BF6C67002070670020F9
:1041E000002130B58DB0282202A80191FCF75EFBBA
:1041F00002A800F049FF044610B120460DB030BDC2
:10420000184D4FF0FF31286800F038F90446C0B966
:10421000002000F063F900BB134A02A901A800F0D6
:10422000BBFC0446012000F059F990B9286800F061
:104230002DF90028E1D00D4800F0B8F920460DB066
:1042400030BD0B4800F0B2F9012C08BF0524EDD0B9
:10425000DEE7084800F0AAF9E8E7074800F0A6F909
:10426000DAE700BF64670020048300208C58010057
:10427000345801006C5801004C58010010B582B050
:1042800000F050F828B100F09FF80324204602B057
:1042900010BD00F06BF8D8B900F020F9E0B91E4C61
:1042A000D4F828391B0EF02B0AD1D4F8242A1B4B42
:1042B0009A4229D000F038F8072400F085F8E5E7A5
:1042C000062400F031F800F07FF8204602B010BD5F
:1042D0000424204602B010BD00F026F800F074F867
:1042E000FFF77EFF044658B902460146FFF756FB2A
:1042F00030B968220A4901ABFFF782FB0028C5D01C
:104300000524204602B010BD012000F0E7F8002887
:10431000E2D1C4F80C0AE3E7001084500000E0206A
:104320009C8200200020704700207047430504D580
:104330004FF0FF32034BC3F80821024BC3F8080AC1
:10434000704700BF00108450014BC3F8040A704747
:104350000010845008B100F06BB84FF4750070473E
:1043600008B100F04FB84FF47500704710B5114810
:1043700000F070F800B110BD0F4800F06BF8002895
:10438000F9D10E4C204600F065F80028F3D10C4B13
:104390000C481C6000F05EF801460028EBD100F0EC
:1043A0002DF8044608B1204610BD00F079F82046EB
:1043B000FAE700BF60670020546700205C670020B8
:1043C000646700205867002008B5084800F04CF8E2
:1043D000074800F049F8074800F046F8064800F0A2
:1043E00043F8BDE8084000F00BB800BF606700204C
:1043F000546700205C670020586700200020704749
:10440000704700BF024610B4084CD4F8003A13427B
:10441000FBD021B1D4F804310B60C4F80831034B50
:104420000020C3F8082A10BC704700BF0010845059
:10443000044AD2F8003A1842FBD0C2F8080A002019
:10444000704700BF00108450FCF782B80A46002174
:10445000FCF72CBA08B5034B02681B681068984734
:10446000002008BD8467002008B5034B02685B6824
:1044700010689847002008BD84670020024B02683E
:104480009B681068184700BF8467002008B5034B7D
:104490000268DB6810689847002008BD8467002028
:1044A00070B5094C094D2069AB68984718B1084BA5
:1044B00008485B6898470021074AEB68116020694B
:1044C000BDE87040184700BF946700208467002053
:1044D00074670020A45801002485002070B51B4D8E
:1044E0001B4E0446B26828699047F8B95CB1194C74
:1044F0002368B3B1012B1BD0013B23602869F3680B
:104500009847002070BD134C216841B90122124B1D
:10451000C3F80025114AD2F81039002BFBD1013124
:104520002160F36828699847002070BD0C4870BD71
:104530000A4AD2F81039002BFBD1074A6FF07E40AF
:10454000C2F80035FFF700FF2368D5E79467002025
:1045500084670020248500200000845000108450CF
:10456000E98FFFFF014B1B68184700BF84670020DD
:10457000014B9B68184700BF84670020014BDB6834
:10458000184700BF84670020BFF34F8F0549064BD3
:10459000CA6802F4E0621343CB60BFF34F8F00BFE1
:1045A000FDE700BF00ED00E00400FA0530B44FF075
:1045B000FE320025074B084C08494968C3F800241F
:1045C000C3F80424C3F80824C3F80C24C4F8005525
:1045D00030BC0847001084500000845074670020ED
:1045E00010B5044630B16368DB0602D500232360B2
:1045F000636010BD024B03485B689847F3E700BF58
:1046000074670020C4580100B0B1436893B1DB0661
:104610000ED5012350E8002F194640E8001C9CF0FD
:10462000000FF7D1012AF5D0BFF35F8F002070474C
:1046300003487047034870476FF4E040704700BF7D
:10464000E98FFFFFEA8FFFFF034668B142683AB186
:10465000D20607D5BFF35F8F002210461A6070475D
:1046600003487047034870476FF4E040704700BF4D
:10467000EA8FFFFFE98FFFFF10B5044620B100224B
:1046800011232260636010BD0148FFF78FFFF6E73A
:10469000EC580100002800F084802DE9F0430C461E
:1046A00083B0002978D01D46002B75D007461AB17B
:1046B000012200232A6003602B68002B67D0294663
:1046C000204600F0D7FD0346002861D12146286826
:1046D00000F0B2FD034600285AD12A68082A72D099
:1046E000042A73D0A2F10208B8FA88F84FEA5818E1
:1046F0000120384EC6F8C401C6F84001C6F8C4010E
:10470000626AC6F83021D6F830118A42F6D14FF0ED
:10471000000901934FF0FF30C6F82C91FFF706FE19
:104720006FF01B024846C6F80021FFF70DFEC6F8E1
:104730000C81D6F8040A40F48060FFF705FE0A22D7
:10474000C6F838210A9B012B019B2DD022692249F2
:10475000A1FB02121209616A184601FB02F202EB88
:1047600042021C49D2039209C1F8D8210122C1F8A2
:104770002C213A68296822F07F4242EA01623A60BD
:10478000296842EA01223A6003B0BDE8F083134B86
:10479000184603B0BDE8F083114B184603B0BDE8DE
:1047A000F0830F4B184670474FF47F02D2F80C1C71
:1047B000013106D0D2F80C2C0749A1FB02121209D4
:1047C000C9E71622C7E74FF0030891E74FF0020848
:1047D0008EE700BF00108450ABAAAAAA310CF100EA
:1047E000350CF10070B50024C9004FF0010C2546CE
:1047F000A6464E1E08E09E4514D00125B44516D8A5
:104800009E4601340CF1010C630950F8233004F08A
:104810001F01CB401F2918BF03F00103002CEAD170
:104820000125EDE701359542E8D1024870BD002031
:1048300070BD00BF360CF10000283FD02DE9F041DB
:104840004C1EB4F5047F28D23BB332B34FF0000EB8
:10485000764675467446CF0003F1FF38610950F87B
:10486000211004F01F0C21FA0CF1BCF11F0F18BF2E
:1048700001F00101A4B1AB4218D08E4208BF0EF185
:10488000010EA84515D0314601350134BC4201D096
:104890000E46E3E70020BDE8F0810948BDE8F0815D
:1048A0004FF0010E0E4674467546D7E70125AE4619
:1048B000EBE77245F1D331461D46E6E70048704705
:1048C000370CF1002DE9F04F91B08346DDE91B462E
:1048D0000D46002E4DD1096906911C6000231A99DE
:1048E0000B60002A00F025819E4B6A6AD3F83811CC
:1048F000D3F830319A4248D10A2946D19BF8033087
:10490000089304F1080307930423069A0593964B32
:10491000944CA3FB02139B0803EB4303A2EB43035A
:1049200003931A9B069E1E60002E34D04FF00008A1
:104930004FF0010ADDF81C9000F0ACFC0023099355
:10494000BBF1000F00F0DF80002D00F0DC80089B41
:10495000EBB1284608A900F08DFC00283ED0834B1F
:10496000984218D1039000F095FC039811B0BDE86F
:10497000F08F4FF47F01D1F80C0C01300CBF4FF4D5
:104980000471D1F80C1C0691A7E77948EAE7794849
:10499000764B9842E6D0089B082B00F0C880002296
:1049A0005B000893294608AB58460092FFF772FE59
:1049B000704B984200F0B7800028D3D1DBF800207C
:1049C000130A03F47F03134323F07F43CBF8003033
:1049D000059B013B0593A4D10020C3E72946089815
:1049E00000F02AFC0028BAD1089B082B00F0958023
:1049F000042B00F09580A3F10203B3FA83F35B0963
:104A00000493C4F8C4A1C4F840A1C4F8C4A16B6A5B
:104A1000C4F83031D4F830219342F6D100234FF05E
:104A2000FF30C4F82C31FFF781FC002318466FF0EB
:104A30001B03C4F80031FFF787FC049B4A4FC4F8FE
:104A40000C31D4F8040A40F48060FFF77DFC0A239F
:104A5000C4F838312B6909A8A7FB03236A6A1B092C
:104A600002FB03F303EB4303DB039B09C4F8D831D8
:104A7000C4F82CA10899DBF800200B0222F07F4239
:104A800043EA01631343CBF8003000F0C5FB099BF8
:104A900003F01A0303437FF47EAFA7FB0637D4F875
:104AA0001431B8EB970F0A93D4F818310B93D4F85C
:104AB0001C310C93D4F820310D93D4F824310E938B
:104AC000D4F828310F9301D1039BF3B9484618223B
:104AD0000AA9183E09F11809FFF7B6FC08F1010808
:104AE000002E7FF429AF069BB3F5047F36D8079ECE
:104AF000194630466A691F46FFF774FE20B300234B
:104B00001A9A13602BE71C4829E748461A460AA957
:104B1000F61A9944FFF798FCE0E70323049370E743
:104B2000022304936DE72B6A002B3FF41BAF13485D
:104B300018E7012229465846009608ABFFF7AAFD60
:104B400000283FF4DEAE0DE74FF48063394630466F
:104B5000AA69FFF771FE0028D1D13DE71A9B1E60BC
:104B600019E700BF00108450ABAAAAAA020CF100FA
:104B7000300CF100310CF100350CF100320CF10079
:104B800010B4DDE9013401940024DDF80CC0CDE956
:104B900002C410BCFFF796BE30B51546012487B09D
:104BA00005AB00930022CDE9015404ABFFF78AFE68
:104BB00007B030BD2DE9F04188B00592002968D0DA
:104BC0001C46002B65D01546002A62D0DFF8C8804D
:104BD0000E46D8F800004FF0FF31FFF74FFC0028D9
:104BE0004CD10020FFF77AFC002843D12B4800F07D
:104BF0004BFAE8B101204FF0FF37FFF76FFC0028B8
:104C000034D14FF408712648FEF71EFF04212548D1
:104C1000FEF71AFF21482821FEF716FFD8F80000FA
:104C2000FFF734FC00282DD1384608B0BDE8F081EC
:104C30001B4B0246029307AB039000931749194898
:104C4000019405ABFFF79CFF0028D3D12368AB424A
:104C5000D0D3079907462A4630460831FFF7F4FBC0
:104C600001202560FFF73AFC0028CAD00E48FFF764
:104C70009DFCC6E70D48FFF799FCB7E70C48FFF726
:104C800095FCAEE70B48FFF791FC384608B0BDE84D
:104C9000F0814FF0FF37C7E7646700205C87002092
:104CA0003C850020388500206C5801004C580100DC
:104CB000345801001059010010B5044628B12046AF
:104CC000BDE81040F421FFF7C1BB0448FFF76EFCBC
:104CD0002046BDE81040F421FFF7B8BB2859010079
:104CE00010B1F421FEF7B0BE704700BF08B561B146
:104CF000012907D1022100F05BF8002818BF6FF0EE
:104D0000360008BD6FF0360008BD012100F050F8F4
:104D1000F3E700BF30B505468818B0F5801F0B4695
:104D20001446A1B001D8802A0CD9B3F5801F17D939
:104D300022461946284600F07DF8044684B92046EC
:104D400021B030BD6846FFF77FFB22466946284602
:104D500000F070F8802104466846FFF777FBEDE726
:104D60006FF03604EBE700BF70B5E8B10E46D9B17D
:104D7000044600F031F80546B0B92368012B0BD08A
:104D8000022B01D0284670BD1C22304604F10801D8
:104D9000FFF75AFB284670BD2022304604F1080177
:104DA000FFF752FB284670BD6FF03605EAE700BFFB
:104DB00078B138B50D46F0210446FFF747FB402394
:104DC00020462560E36500F0A5FA003818BF0120F1
:104DD00038BD0120704700BFF0B5056EA5B0044690
:104DE00004AEE5B9002301270193304667602946E8
:104DF00002AA009300F05AFA10B1012025B0F0BDCC
:104E00002A46204602A900F0AFFA0028F5D1204634
:104E100000F0C0FB0028F0D1206625B0F0BD802D49
:104E20002A46304628BF802204F16401FFF70CFBBC
:104E3000256ED7E7002800F0DC802DE9F04F1746FB
:104E4000A5B0002A00F0AB800C46002961D0B2F575
:104E5000803F0546C0F0ED804FF6FF7AA2F57F4710
:104E6000006EFF3F05F1640B01EB0A09EA6DA9F53D
:104E70007F46141AB4FBF2F302FB1344FF3E002CEE
:104E800061D182424FF6FF746ED0B4FBF2F802FBA0
:104E900008F8B8F1000F40D154B9A7F57F43B7F532
:104EA000803F4C46A3F1FF03D14414D31F46DDE7F6
:104EB00019302246314605EB8000FFF7C5FA286E0F
:104EC000A7F57F432044B7F5803F4C462866D14480
:104ED000A3F1FF03EAD2EA6D161AB6FBF2F302FB66
:104EE0001366BE4228BF3E46002E74D1904200F0A9
:104EF0008280B7FBF2F602FB06F6002E5CD00023A0
:104F000031462046CDE9003302AA00F0CFF900284F
:104F100049D0012025B0BDE8F08F0023414630463E
:104F2000CDE9003302AA00F0C1F90028F1D14246D0
:104F3000284602A900F018FA0028EAD1286E464453
:104F4000A4EB0804A8E7544528BF5446314622463E
:104F50005844FFF779FA286EEA6D204482422644CD
:104F60002866AAEB040490D1802A28BF80225946E3
:104F700004A8FFF769FA0023E96D02AACDE900331E
:104F800004A800F093F90028C3D12846EA6D02A9CD
:104F900000F0EAF90028BCD1EA6D286675E73846CA
:104FA00025B0BDE8F08F3246284602A900F0DCF9B2
:104FB0000028AED13444BF1B002FF0D02B6E3A46F0
:104FC000193305EB83002146FFF73EFA2B6E0020D4
:104FD0003B442B669EE705F16403214632461844A4
:104FE000FFF732FA286EEA6D3044BF1B344428665E
:104FF0007CE701207047802A28BF802205F16401E8
:1050000004A8FFF721FA0023E96D04A8CDE90033D5
:1050100002AA00F04BF900287FF47BAF2846EA6D26
:1050200002A900F0A1F900287FF473AFEA6D2866A9
:105030005FE7006E4FE700BFF8B51C460546114814
:1050400016460F46FFF738FE21460E48FFF74EFE84
:10505000044620B10B48FFF743FE2046F8BD3A4610
:1050600029460848FFF756FE04460028F2D131468B
:105070000448FFF779FE04460248FFF731FE204658
:10508000F8BD00BF848700201C2330B583B001A980
:105090000446019300F036F8054638B9019B1C2BF5
:1050A00007D0164D1C212046FFF7D0F9284603B043
:1050B00030BD0121D4E90032003B18BF0123E1617A
:1050C0000AB143F00203A26832B9E26842B9C4E906
:1050D00008328BB90A4DE5E7E26843F004033AB1C0
:1050E0000022284643F00803C4E9083203B030BD6B
:1050F0001546C4E90832D9E71546D7E7370CF00062
:105100000E0CF0000346002866D0002964D00A681F
:105110001C2A61D14FF47F023B49D2F8100C88421F
:105120005CD0D2F8101C013158D0D2F8101C4FF4CA
:105130007F021960D2F8140C3449884260D0D2F84A
:10514000141C01315CD0D2F8141C4FF47F0259605A
:10515000D2F8181C11F5947F4FD0D2F8181C0131E9
:105160004BD0D2F8181C4FF47F029960D2F81C0C77
:10517000274988423ED0D2F81C1C01313AD0D2F8DF
:105180001C1C4FF47F02D960D2F8001C70312FD064
:10519000D2F8001C01312BD0D2F8001C4FF47F0252
:1051A0001961D2F8041CAF3120D0D2F8041C0131AF
:1051B0001CD0D2F8041C4FF47F025961D2F8080CBD
:1051C000144988420DD0D2F8081C013109D0D2F818
:1051D000082C00209A6170470120704740F6FC01BE
:1051E000A5E740F2373200209A6170475121E2E78B
:1051F0009021D3E742F60411C3E740F6D861B2E745
:1052000042F2D001A1E700BFFCF8FFFFD020FFFF72
:105210000429FFFF37F3FFFF014608B54FF4806014
:10522000FFF79EF80022034BC3F8C821C3F82C21D6
:1052300008BD00BF001084500138072805D8DFE8FA
:1052400000F0120E040A0404040609487047CB68F3
:1052500000204B6270478B6800204B6270474B68A0
:1052600000204B6270470B6800204B62704700BF04
:10527000310CF1000B6802E0082B0B6006D8026AC3
:1052800013424FEA4303F7D00020704700487047AD
:10529000310CF1000022044B4FF48060C3F82C2144
:1052A000C3F8C421FFF742B800108450F0B50024C1
:1052B00083B0B0F1005F8DF8074025D38C4684445D
:1052C000BCF1804F04461FD817461D4601220DF140
:1052D000070300F099F90646B0B99DF80730099A1E
:1052E0003C603B7192B14DB10246089928460DF1E0
:1052F000070300F089F938B99DF807303046099A5C
:105300001560137103B0F0BD4FF47506304603B05D
:10531000F0BD00BFE8B110B50468012C04D0022C28
:1053200010D044B10C4810BD20220C490830FFF7C2
:105330008BF8002010BD142209490830FFF784F8CB
:10534000204610BD202207490830FFF77DF80020D5
:1053500010BD4FF4730070470100F3006C59010059
:10536000385901004C5901002DE9F843002900F09B
:10537000F9800446002800F0F98003680F46904643
:10538000002B00F0C380013B012B00F2D7804FF0CF
:10539000FF3178484FF00209FFF770F8002840F01D
:1053A000BF800020FFF79AF80646002840F0C28030
:1053B000714AD2F81C39002BFBD16F4DD5F8203C37
:1053C000002BFBD14FF0FF30FEF7B0FFD5F8040AF9
:1053D00020F04000FEF7B8FF01230722C5F8183877
:1053E000C5F80029C5F8C437A36CC5F8CC37E36C01
:1053F000C5F8D037C5F8C09723685BB1013B012BD6
:1054000018D8636AC5F85C36236AC5F85836E3696C
:10541000C5F85436A269584BC3F850266269C3F8E0
:105420004C262269C3F84826E268C3F84426A268DD
:10543000C3F84026504AD2F81039002BFBD1B8F1FE
:10544000000F5FD063684020012B08BFC2F884368C
:105450003A68494BC3F8282CC3F82C8CFEF77AFF26
:105460000646454AD2F81039002BFBD1424AD2F801
:10547000203C002BFBD123685BB1013B012B18D8EA
:10548000D2F85C366362D2F858362362D2F85436CA
:10549000E361394BD3F85026A261D3F84C26626100
:1054A000D3F848262261D3F84426E260D3F8403688
:1054B000A36000230121304AD2F8CC07A064D2F8BF
:1054C000D007E064C2F8C417C2F88436C2F8C837FF
:1054D000D2F81039002BFBD1C2F81838002E3BD17E
:1054E000254BD3F8040A40F04000FEF72DFF0120C1
:1054F000FEF7F4FF60BB1F48FEF7C8FF10BB304645
:10550000BDE8F8830423C2F8C837AAE74FF0FF319B
:1055100018484FF00109FEF7B1FF00283FF441AFF2
:105520001648FFF743F80020FEF7D8FF064600288C
:105530003FF43EAF1248FFF739F839E7114E3046D5
:10554000BDE8F8831048FFF731F83046BDE8F8832E
:105550000E48FFF72BF8CEE7102104F10800FEF704
:1055600075FFBDE70A4E3046BDE8F8834FF4730679
:10557000C5E700BF60670020001084503458010068
:105580004C5801000100F3008C5801006C580100D8
:105590000300F300A0B3034670B4D0E90240D3E99E
:1055A000041226BA05BA0CBA10BAC3E90440D3E90A
:1055B0000612986A09BAC3E9026512BA996100BA7B
:1055C000D3E9084125BA0CBAC3E90725D3E90B1280
:1055D000C3E9094009BAD86B12BAD962D3E90D41BF
:1055E00025BAC3E90C250CBA00BAD3E9101209BADE
:1055F00012BAC3E90E40196400205A6470BC7047A7
:105600004FF47300704700BF00201870704700BF50
:10561000014B1B68184700BFC4670020024B18608D
:10562000024B002019607047C0670020C46700204B
:10563000054A0346106810B10344136070470348DD
:1056400003441360704700BF8888002000100020CA
:10565000FEE700BFF8B500BFF8BC08BC9E46704727
:0C566000F8B500BFF8BC08BC9E467047BF
:10566C000122FBF7F5FE1FBD1FB527486946F7E77A
:10567C001FB526486946F3E71FB525486946EFE78D
:10568C001FB524486946EBE71FB523486946E7E791
:10569C001FB522486946E3E71FB521486946DFE795
:1056AC001FB520486946DBE71FB51F486946D7E799
:1056BC001FB51E486946D3E71FB51D486946CFE79D
:1056CC001FB51C486946CBE71FB51B486946C7E7A1
:1056DC001FB51A486946C3E71FB519486946BFE7A5
:1056EC001FB518486946BBE71FB517486946B7E7A9
:1056FC001FB516486946B3E71FB515486946AFE7AD
:10570C001FB514486946ABE7951401009B140100C2
:10571C00C91401009115010019180100B5180100F8
:10572C00F5180100691901009F1901001D1A0100EB
:10573C00631A0100E11A01008D1B01009D1B010081
:10574C00C91B01001D1C01004B1C0100211C010088
:08575C00751C0100911401000D
:1057640054464D5F43525950544F0054464D5F5375
:10577400505F504C4154464F524D5F53595354451A
:105784004D5F52455345540054464D5F53505F504E
:105794004C4154464F524D5F494F43544C0054467C
:1057A4004D5F53505F504C4154464F524D5F4E56DF
:1057B4005F434F554E54455200000000651D0100E3
:1057C4003D1D0100C91C0100BB1C0100B40A0100FD
:1057D40060690020B069002000C2010000C201001D
:1057E400FF7F0800007C01000080010000800800A9
:1057F400FFFF0F00DEE61E284CBBCE8F025B0000CD
:105804000000000000020000000400000008000086
:1058140000100000FF8FFFFFFF8FFFFFFE8FFFFFD1
:10582400FE8FFFFFFD8FFFFFFC8FFFFFFC8FFFFF4D
:105834004661696C20746F206163717569726520BB
:105844006D757465780A00004661696C20746F2078
:10585400696E63726561736520504D20636F756E68
:105864007465720A000000004661696C20746F2040
:10587400646563726561736520504D20636F756E56
:105884007465720A000000004661696C20746F2020
:1058940072656C65617365206D757465780A0000C6
:1058A400436F756C64206E6F74206C6F636B207033
:1058B4006F7765722073617665206D757465780005
:1058C4006D757465785F667265652063616C6C657F
:1058D400642077697468204E554C4C207061726165
:1058E4006D6574657200000043616E277420696EF3
:1058F400697469616C697A65206D757465782C20AA
:10590400776173204E554C4C0D0A00004661696C5A
:1059140020746F20756E6C6F636B206D7574657881
:105924000A0000000A637478206973204E554C4CB9
:105934000A0000000123456789ABCDEFFEDCBA986D
:1059440076543210F0E1D2C3D89E05C107D57C3617
:1059540017DD703039590EF7310BC0FF1115586837
:10596400A78FF964A44FFABE67E6096A85AE67BBE0
:1059740072F36E3C3AF54FA57F520E518C68059B2D
:0C598400ABD9831F19CDE05B00000000D0
:0859900090B7FF7F0100000049
:105998000090D003A0090100406800206069002041
:1059A80090ED00E098670020A46700209C67002025
:1059B800946700205C67002065450100714501007F
:1059C8007D45010000000000894501002885002070
:1059D8001100000079460100E14501000946010077
:1059E80049460100B86700207C670020B0670020A6
:1059F80000000000A86700202C850020110000008E
:105A080030850020110000003485002011000000BE
:105A1800C104010041050100CC670020000000001E
:105A2800000000000000000000000000000000006E
:105A3800000000000000000000000000000000005E
:105A4800000000000000000000000000000000004E
:105A5800000000000000000000000000000000003E
:105A6800000000000000000000000000000000002E
:105A78000000000000000000000000000511010007
:045A8800E110010028
:107C00007FE97FE9F8F790BD7FE97FE9F8F79CBD50
:107C10007FE97FE9F8F7CABD7FE97FE9F8F7A4BDFE
:107C20007FE97FE9F8F7B0BD000000000000000028
:107C30000000000000000000000000000000000044
:0400000310000345A1
:00000001FF
